{
  "contracts/Multiparty.sol": {
    "Multiparty": {
      "abi": [
        {
          "inputs": [],
          "stateMutability": "nonpayable",
          "type": "constructor"
        },
        {
          "inputs": [],
          "name": "ADDRESS_ZERO_NOT_PERMITED",
          "type": "error"
        },
        {
          "inputs": [],
          "name": "LENGTH_MUST_BE_SAME_WITH_PARTYMEMBERS_LENGTH",
          "type": "error"
        },
        {
          "inputs": [],
          "name": "NOT_AUTHORIZE_TO_CALL_THIS_FUNCTION",
          "type": "error"
        },
        {
          "inputs": [],
          "name": "PARTY_MEMBERS_VALUE_CANNOT_BE_EMPTY",
          "type": "error"
        },
        {
          "inputs": [],
          "name": "PENALTY_RATE_MUST_BE_SET",
          "type": "error"
        },
        {
          "inputs": [],
          "name": "TERMS_FOR_BUSINESS_CANNOT_BE_EMPTY",
          "type": "error"
        },
        {
          "inputs": [],
          "name": "VALUE_CANNOT_BE_EMPTY",
          "type": "error"
        },
        {
          "anonymous": false,
          "inputs": [
            {
              "indexed": true,
              "internalType": "address",
              "name": "whoCreates",
              "type": "address"
            }
          ],
          "name": "MultiPartyCreatedSuccessfully",
          "type": "event"
        },
        {
          "inputs": [
            {
              "internalType": "address[]",
              "name": "_partMem",
              "type": "address[]"
            },
            {
              "internalType": "uint256[]",
              "name": "_totalAmountForEach",
              "type": "uint256[]"
            },
            {
              "internalType": "uint256[]",
              "name": "_mileStoneCountForEach",
              "type": "uint256[]"
            },
            {
              "internalType": "uint256[]",
              "name": "_expectedDateForEach",
              "type": "uint256[]"
            },
            {
              "internalType": "string",
              "name": "_termsForConductingBusiness",
              "type": "string"
            },
            {
              "internalType": "uint256",
              "name": "_penalty",
              "type": "uint256"
            }
          ],
          "name": "createMultiPartySystem",
          "outputs": [],
          "stateMutability": "nonpayable",
          "type": "function"
        },
        {
          "inputs": [
            {
              "internalType": "address",
              "name": "",
              "type": "address"
            },
            {
              "internalType": "uint256",
              "name": "",
              "type": "uint256"
            }
          ],
          "name": "multipartyList",
          "outputs": [
            {
              "internalType": "string",
              "name": "termsForConductingBusiness",
              "type": "string"
            },
            {
              "internalType": "uint256",
              "name": "penaltyRateForDefaulters",
              "type": "uint256"
            }
          ],
          "stateMutability": "view",
          "type": "function"
        },
        {
          "inputs": [
            {
              "internalType": "address",
              "name": "",
              "type": "address"
            }
          ],
          "name": "totalMultiPartySystemCreated",
          "outputs": [
            {
              "internalType": "uint256",
              "name": "",
              "type": "uint256"
            }
          ],
          "stateMutability": "view",
          "type": "function"
        }
      ],
      "evm": {
        "bytecode": {
          "linkReferences": {},
          "object": "608060405234801561001057600080fd5b50600073ffffffffffffffffffffffffffffffffffffffff163373ffffffffffffffffffffffffffffffffffffffff1603610077576040517f7a795c5600000000000000000000000000000000000000000000000000000000815260040160405180910390fd5b33600260006101000a81548173ffffffffffffffffffffffffffffffffffffffff021916908373ffffffffffffffffffffffffffffffffffffffff160217905550610fe1806100c76000396000f3fe608060405234801561001057600080fd5b50600436106100415760003560e01c80632d223bc514610046578063592a1e2714610077578063bb908118146100a7575b600080fd5b610060600480360381019061005b9190610726565b6100c3565b60405161006e929190610805565b60405180910390f35b610091600480360381019061008c9190610835565b61017c565b60405161009e9190610862565b60405180910390f35b6100c160048036038101906100bc9190610b3d565b610194565b005b6000602052816000526040600020602052806000526040600020600091509150508060040180546100f390610c85565b80601f016020809104026020016040519081016040528092919081815260200182805461011f90610c85565b801561016c5780601f106101415761010080835404028352916020019161016c565b820191906000526020600020905b81548152906001019060200180831161014f57829003601f168201915b5050505050908060050154905082565b60016020528060005260406000206000915090505481565b600073ffffffffffffffffffffffffffffffffffffffff163373ffffffffffffffffffffffffffffffffffffffff16036101fa576040517f7a795c5600000000000000000000000000000000000000000000000000000000815260040160405180910390fd5b600260009054906101000a900473ffffffffffffffffffffffffffffffffffffffff1673ffffffffffffffffffffffffffffffffffffffff163373ffffffffffffffffffffffffffffffffffffffff1614610281576040517f6810116800000000000000000000000000000000000000000000000000000000815260040160405180910390fd5b60008651905060008751036102c2576040517f28539e8c00000000000000000000000000000000000000000000000000000000815260040160405180910390fd5b8551811415806102d3575084518114155b806102df575083518114155b15610316576040517f47c48a1600000000000000000000000000000000000000000000000000000000815260040160405180910390fd5b6000835103610351576040517fd1fe3e0c00000000000000000000000000000000000000000000000000000000815260040160405180910390fd5b6000820361038b576040517f6b19089700000000000000000000000000000000000000000000000000000000815260040160405180910390fd5b60006040518060c001604052808981526020018881526020018781526020018681526020018581526020018481525090506000600160003373ffffffffffffffffffffffffffffffffffffffff1673ffffffffffffffffffffffffffffffffffffffff168152602001908152602001600020549050816000803373ffffffffffffffffffffffffffffffffffffffff1673ffffffffffffffffffffffffffffffffffffffff1681526020019081526020016000206000838152602001908152602001600020600082015181600001908051906020019061046c92919061058a565b506020820151816001019080519060200190610489929190610614565b5060408201518160020190805190602001906104a6929190610614565b5060608201518160030190805190602001906104c3929190610614565b5060808201518160040190816104d99190610e62565b5060a08201518160050155905050600160003373ffffffffffffffffffffffffffffffffffffffff1673ffffffffffffffffffffffffffffffffffffffff168152602001908152602001600020600081548092919061053790610f63565b91905055503373ffffffffffffffffffffffffffffffffffffffff167f2ffc1d5319c537fd92b356c1f118d1dbed93de3f439d2f869fe6893e8e5d27bd60405160405180910390a2505050505050505050565b828054828255906000526020600020908101928215610603579160200282015b828111156106025782518260006101000a81548173ffffffffffffffffffffffffffffffffffffffff021916908373ffffffffffffffffffffffffffffffffffffffff160217905550916020019190600101906105aa565b5b5090506106109190610661565b5090565b828054828255906000526020600020908101928215610650579160200282015b8281111561064f578251825591602001919060010190610634565b5b50905061065d9190610661565b5090565b5b8082111561067a576000816000905550600101610662565b5090565b6000604051905090565b600080fd5b600080fd5b600073ffffffffffffffffffffffffffffffffffffffff82169050919050565b60006106bd82610692565b9050919050565b6106cd816106b2565b81146106d857600080fd5b50565b6000813590506106ea816106c4565b92915050565b6000819050919050565b610703816106f0565b811461070e57600080fd5b50565b600081359050610720816106fa565b92915050565b6000806040838503121561073d5761073c610688565b5b600061074b858286016106db565b925050602061075c85828601610711565b9150509250929050565b600081519050919050565b600082825260208201905092915050565b60005b838110156107a0578082015181840152602081019050610785565b60008484015250505050565b6000601f19601f8301169050919050565b60006107c882610766565b6107d28185610771565b93506107e2818560208601610782565b6107eb816107ac565b840191505092915050565b6107ff816106f0565b82525050565b6000604082019050818103600083015261081f81856107bd565b905061082e60208301846107f6565b9392505050565b60006020828403121561084b5761084a610688565b5b6000610859848285016106db565b91505092915050565b600060208201905061087760008301846107f6565b92915050565b600080fd5b7f4e487b7100000000000000000000000000000000000000000000000000000000600052604160045260246000fd5b6108ba826107ac565b810181811067ffffffffffffffff821117156108d9576108d8610882565b5b80604052505050565b60006108ec61067e565b90506108f882826108b1565b919050565b600067ffffffffffffffff82111561091857610917610882565b5b602082029050602081019050919050565b600080fd5b600061094161093c846108fd565b6108e2565b9050808382526020820190506020840283018581111561096457610963610929565b5b835b8181101561098d578061097988826106db565b845260208401935050602081019050610966565b5050509392505050565b600082601f8301126109ac576109ab61087d565b5b81356109bc84826020860161092e565b91505092915050565b600067ffffffffffffffff8211156109e0576109df610882565b5b602082029050602081019050919050565b6000610a046109ff846109c5565b6108e2565b90508083825260208201905060208402830185811115610a2757610a26610929565b5b835b81811015610a505780610a3c8882610711565b845260208401935050602081019050610a29565b5050509392505050565b600082601f830112610a6f57610a6e61087d565b5b8135610a7f8482602086016109f1565b91505092915050565b600080fd5b600067ffffffffffffffff821115610aa857610aa7610882565b5b610ab1826107ac565b9050602081019050919050565b82818337600083830152505050565b6000610ae0610adb84610a8d565b6108e2565b905082815260208101848484011115610afc57610afb610a88565b5b610b07848285610abe565b509392505050565b600082601f830112610b2457610b2361087d565b5b8135610b34848260208601610acd565b91505092915050565b60008060008060008060c08789031215610b5a57610b59610688565b5b600087013567ffffffffffffffff811115610b7857610b7761068d565b5b610b8489828a01610997565b965050602087013567ffffffffffffffff811115610ba557610ba461068d565b5b610bb189828a01610a5a565b955050604087013567ffffffffffffffff811115610bd257610bd161068d565b5b610bde89828a01610a5a565b945050606087013567ffffffffffffffff811115610bff57610bfe61068d565b5b610c0b89828a01610a5a565b935050608087013567ffffffffffffffff811115610c2c57610c2b61068d565b5b610c3889828a01610b0f565b92505060a0610c4989828a01610711565b9150509295509295509295565b7f4e487b7100000000000000000000000000000000000000000000000000000000600052602260045260246000fd5b60006002820490506001821680610c9d57607f821691505b602082108103610cb057610caf610c56565b5b50919050565b60008190508160005260206000209050919050565b60006020601f8301049050919050565b600082821b905092915050565b600060088302610d187fffffffffffffffffffffffffffffffffffffffffffffffffffffffffffffffff82610cdb565b610d228683610cdb565b95508019841693508086168417925050509392505050565b6000819050919050565b6000610d5f610d5a610d55846106f0565b610d3a565b6106f0565b9050919050565b6000819050919050565b610d7983610d44565b610d8d610d8582610d66565b848454610ce8565b825550505050565b600090565b610da2610d95565b610dad818484610d70565b505050565b5b81811015610dd157610dc6600082610d9a565b600181019050610db3565b5050565b601f821115610e1657610de781610cb6565b610df084610ccb565b81016020851015610dff578190505b610e13610e0b85610ccb565b830182610db2565b50505b505050565b600082821c905092915050565b6000610e3960001984600802610e1b565b1980831691505092915050565b6000610e528383610e28565b9150826002028217905092915050565b610e6b82610766565b67ffffffffffffffff811115610e8457610e83610882565b5b610e8e8254610c85565b610e99828285610dd5565b600060209050601f831160018114610ecc5760008415610eba578287015190505b610ec48582610e46565b865550610f2c565b601f198416610eda86610cb6565b60005b82811015610f0257848901518255600182019150602085019450602081019050610edd565b86831015610f1f5784890151610f1b601f891682610e28565b8355505b6001600288020188555050505b505050505050565b7f4e487b7100000000000000000000000000000000000000000000000000000000600052601160045260246000fd5b6000610f6e826106f0565b91507fffffffffffffffffffffffffffffffffffffffffffffffffffffffffffffffff8203610fa057610f9f610f34565b5b60018201905091905056fea264697066735822122087c8ffa8bfd33aff4797c95dddc700929c5bd4b21757d1b35f3845e5146c40b164736f6c63430008170033",
          "opcodes": "PUSH1 0x80 PUSH1 0x40 MSTORE CALLVALUE DUP1 ISZERO PUSH2 0x10 JUMPI PUSH1 0x0 DUP1 REVERT JUMPDEST POP PUSH1 0x0 PUSH20 0xFFFFFFFFFFFFFFFFFFFFFFFFFFFFFFFFFFFFFFFF AND CALLER PUSH20 0xFFFFFFFFFFFFFFFFFFFFFFFFFFFFFFFFFFFFFFFF AND SUB PUSH2 0x77 JUMPI PUSH1 0x40 MLOAD PUSH32 0x7A795C5600000000000000000000000000000000000000000000000000000000 DUP2 MSTORE PUSH1 0x4 ADD PUSH1 0x40 MLOAD DUP1 SWAP2 SUB SWAP1 REVERT JUMPDEST CALLER PUSH1 0x2 PUSH1 0x0 PUSH2 0x100 EXP DUP2 SLOAD DUP2 PUSH20 0xFFFFFFFFFFFFFFFFFFFFFFFFFFFFFFFFFFFFFFFF MUL NOT AND SWAP1 DUP4 PUSH20 0xFFFFFFFFFFFFFFFFFFFFFFFFFFFFFFFFFFFFFFFF AND MUL OR SWAP1 SSTORE POP PUSH2 0xFE1 DUP1 PUSH2 0xC7 PUSH1 0x0 CODECOPY PUSH1 0x0 RETURN INVALID PUSH1 0x80 PUSH1 0x40 MSTORE CALLVALUE DUP1 ISZERO PUSH2 0x10 JUMPI PUSH1 0x0 DUP1 REVERT JUMPDEST POP PUSH1 0x4 CALLDATASIZE LT PUSH2 0x41 JUMPI PUSH1 0x0 CALLDATALOAD PUSH1 0xE0 SHR DUP1 PUSH4 0x2D223BC5 EQ PUSH2 0x46 JUMPI DUP1 PUSH4 0x592A1E27 EQ PUSH2 0x77 JUMPI DUP1 PUSH4 0xBB908118 EQ PUSH2 0xA7 JUMPI JUMPDEST PUSH1 0x0 DUP1 REVERT JUMPDEST PUSH2 0x60 PUSH1 0x4 DUP1 CALLDATASIZE SUB DUP2 ADD SWAP1 PUSH2 0x5B SWAP2 SWAP1 PUSH2 0x726 JUMP JUMPDEST PUSH2 0xC3 JUMP JUMPDEST PUSH1 0x40 MLOAD PUSH2 0x6E SWAP3 SWAP2 SWAP1 PUSH2 0x805 JUMP JUMPDEST PUSH1 0x40 MLOAD DUP1 SWAP2 SUB SWAP1 RETURN JUMPDEST PUSH2 0x91 PUSH1 0x4 DUP1 CALLDATASIZE SUB DUP2 ADD SWAP1 PUSH2 0x8C SWAP2 SWAP1 PUSH2 0x835 JUMP JUMPDEST PUSH2 0x17C JUMP JUMPDEST PUSH1 0x40 MLOAD PUSH2 0x9E SWAP2 SWAP1 PUSH2 0x862 JUMP JUMPDEST PUSH1 0x40 MLOAD DUP1 SWAP2 SUB SWAP1 RETURN JUMPDEST PUSH2 0xC1 PUSH1 0x4 DUP1 CALLDATASIZE SUB DUP2 ADD SWAP1 PUSH2 0xBC SWAP2 SWAP1 PUSH2 0xB3D JUMP JUMPDEST PUSH2 0x194 JUMP JUMPDEST STOP JUMPDEST PUSH1 0x0 PUSH1 0x20 MSTORE DUP2 PUSH1 0x0 MSTORE PUSH1 0x40 PUSH1 0x0 KECCAK256 PUSH1 0x20 MSTORE DUP1 PUSH1 0x0 MSTORE PUSH1 0x40 PUSH1 0x0 KECCAK256 PUSH1 0x0 SWAP2 POP SWAP2 POP POP DUP1 PUSH1 0x4 ADD DUP1 SLOAD PUSH2 0xF3 SWAP1 PUSH2 0xC85 JUMP JUMPDEST DUP1 PUSH1 0x1F ADD PUSH1 0x20 DUP1 SWAP2 DIV MUL PUSH1 0x20 ADD PUSH1 0x40 MLOAD SWAP1 DUP2 ADD PUSH1 0x40 MSTORE DUP1 SWAP3 SWAP2 SWAP1 DUP2 DUP2 MSTORE PUSH1 0x20 ADD DUP3 DUP1 SLOAD PUSH2 0x11F SWAP1 PUSH2 0xC85 JUMP JUMPDEST DUP1 ISZERO PUSH2 0x16C JUMPI DUP1 PUSH1 0x1F LT PUSH2 0x141 JUMPI PUSH2 0x100 DUP1 DUP4 SLOAD DIV MUL DUP4 MSTORE SWAP2 PUSH1 0x20 ADD SWAP2 PUSH2 0x16C JUMP JUMPDEST DUP3 ADD SWAP2 SWAP1 PUSH1 0x0 MSTORE PUSH1 0x20 PUSH1 0x0 KECCAK256 SWAP1 JUMPDEST DUP2 SLOAD DUP2 MSTORE SWAP1 PUSH1 0x1 ADD SWAP1 PUSH1 0x20 ADD DUP1 DUP4 GT PUSH2 0x14F JUMPI DUP3 SWAP1 SUB PUSH1 0x1F AND DUP3 ADD SWAP2 JUMPDEST POP POP POP POP POP SWAP1 DUP1 PUSH1 0x5 ADD SLOAD SWAP1 POP DUP3 JUMP JUMPDEST PUSH1 0x1 PUSH1 0x20 MSTORE DUP1 PUSH1 0x0 MSTORE PUSH1 0x40 PUSH1 0x0 KECCAK256 PUSH1 0x0 SWAP2 POP SWAP1 POP SLOAD DUP2 JUMP JUMPDEST PUSH1 0x0 PUSH20 0xFFFFFFFFFFFFFFFFFFFFFFFFFFFFFFFFFFFFFFFF AND CALLER PUSH20 0xFFFFFFFFFFFFFFFFFFFFFFFFFFFFFFFFFFFFFFFF AND SUB PUSH2 0x1FA JUMPI PUSH1 0x40 MLOAD PUSH32 0x7A795C5600000000000000000000000000000000000000000000000000000000 DUP2 MSTORE PUSH1 0x4 ADD PUSH1 0x40 MLOAD DUP1 SWAP2 SUB SWAP1 REVERT JUMPDEST PUSH1 0x2 PUSH1 0x0 SWAP1 SLOAD SWAP1 PUSH2 0x100 EXP SWAP1 DIV PUSH20 0xFFFFFFFFFFFFFFFFFFFFFFFFFFFFFFFFFFFFFFFF AND PUSH20 0xFFFFFFFFFFFFFFFFFFFFFFFFFFFFFFFFFFFFFFFF AND CALLER PUSH20 0xFFFFFFFFFFFFFFFFFFFFFFFFFFFFFFFFFFFFFFFF AND EQ PUSH2 0x281 JUMPI PUSH1 0x40 MLOAD PUSH32 0x6810116800000000000000000000000000000000000000000000000000000000 DUP2 MSTORE PUSH1 0x4 ADD PUSH1 0x40 MLOAD DUP1 SWAP2 SUB SWAP1 REVERT JUMPDEST PUSH1 0x0 DUP7 MLOAD SWAP1 POP PUSH1 0x0 DUP8 MLOAD SUB PUSH2 0x2C2 JUMPI PUSH1 0x40 MLOAD PUSH32 0x28539E8C00000000000000000000000000000000000000000000000000000000 DUP2 MSTORE PUSH1 0x4 ADD PUSH1 0x40 MLOAD DUP1 SWAP2 SUB SWAP1 REVERT JUMPDEST DUP6 MLOAD DUP2 EQ ISZERO DUP1 PUSH2 0x2D3 JUMPI POP DUP5 MLOAD DUP2 EQ ISZERO JUMPDEST DUP1 PUSH2 0x2DF JUMPI POP DUP4 MLOAD DUP2 EQ ISZERO JUMPDEST ISZERO PUSH2 0x316 JUMPI PUSH1 0x40 MLOAD PUSH32 0x47C48A1600000000000000000000000000000000000000000000000000000000 DUP2 MSTORE PUSH1 0x4 ADD PUSH1 0x40 MLOAD DUP1 SWAP2 SUB SWAP1 REVERT JUMPDEST PUSH1 0x0 DUP4 MLOAD SUB PUSH2 0x351 JUMPI PUSH1 0x40 MLOAD PUSH32 0xD1FE3E0C00000000000000000000000000000000000000000000000000000000 DUP2 MSTORE PUSH1 0x4 ADD PUSH1 0x40 MLOAD DUP1 SWAP2 SUB SWAP1 REVERT JUMPDEST PUSH1 0x0 DUP3 SUB PUSH2 0x38B JUMPI PUSH1 0x40 MLOAD PUSH32 0x6B19089700000000000000000000000000000000000000000000000000000000 DUP2 MSTORE PUSH1 0x4 ADD PUSH1 0x40 MLOAD DUP1 SWAP2 SUB SWAP1 REVERT JUMPDEST PUSH1 0x0 PUSH1 0x40 MLOAD DUP1 PUSH1 0xC0 ADD PUSH1 0x40 MSTORE DUP1 DUP10 DUP2 MSTORE PUSH1 0x20 ADD DUP9 DUP2 MSTORE PUSH1 0x20 ADD DUP8 DUP2 MSTORE PUSH1 0x20 ADD DUP7 DUP2 MSTORE PUSH1 0x20 ADD DUP6 DUP2 MSTORE PUSH1 0x20 ADD DUP5 DUP2 MSTORE POP SWAP1 POP PUSH1 0x0 PUSH1 0x1 PUSH1 0x0 CALLER PUSH20 0xFFFFFFFFFFFFFFFFFFFFFFFFFFFFFFFFFFFFFFFF AND PUSH20 0xFFFFFFFFFFFFFFFFFFFFFFFFFFFFFFFFFFFFFFFF AND DUP2 MSTORE PUSH1 0x20 ADD SWAP1 DUP2 MSTORE PUSH1 0x20 ADD PUSH1 0x0 KECCAK256 SLOAD SWAP1 POP DUP2 PUSH1 0x0 DUP1 CALLER PUSH20 0xFFFFFFFFFFFFFFFFFFFFFFFFFFFFFFFFFFFFFFFF AND PUSH20 0xFFFFFFFFFFFFFFFFFFFFFFFFFFFFFFFFFFFFFFFF AND DUP2 MSTORE PUSH1 0x20 ADD SWAP1 DUP2 MSTORE PUSH1 0x20 ADD PUSH1 0x0 KECCAK256 PUSH1 0x0 DUP4 DUP2 MSTORE PUSH1 0x20 ADD SWAP1 DUP2 MSTORE PUSH1 0x20 ADD PUSH1 0x0 KECCAK256 PUSH1 0x0 DUP3 ADD MLOAD DUP2 PUSH1 0x0 ADD SWAP1 DUP1 MLOAD SWAP1 PUSH1 0x20 ADD SWAP1 PUSH2 0x46C SWAP3 SWAP2 SWAP1 PUSH2 0x58A JUMP JUMPDEST POP PUSH1 0x20 DUP3 ADD MLOAD DUP2 PUSH1 0x1 ADD SWAP1 DUP1 MLOAD SWAP1 PUSH1 0x20 ADD SWAP1 PUSH2 0x489 SWAP3 SWAP2 SWAP1 PUSH2 0x614 JUMP JUMPDEST POP PUSH1 0x40 DUP3 ADD MLOAD DUP2 PUSH1 0x2 ADD SWAP1 DUP1 MLOAD SWAP1 PUSH1 0x20 ADD SWAP1 PUSH2 0x4A6 SWAP3 SWAP2 SWAP1 PUSH2 0x614 JUMP JUMPDEST POP PUSH1 0x60 DUP3 ADD MLOAD DUP2 PUSH1 0x3 ADD SWAP1 DUP1 MLOAD SWAP1 PUSH1 0x20 ADD SWAP1 PUSH2 0x4C3 SWAP3 SWAP2 SWAP1 PUSH2 0x614 JUMP JUMPDEST POP PUSH1 0x80 DUP3 ADD MLOAD DUP2 PUSH1 0x4 ADD SWAP1 DUP2 PUSH2 0x4D9 SWAP2 SWAP1 PUSH2 0xE62 JUMP JUMPDEST POP PUSH1 0xA0 DUP3 ADD MLOAD DUP2 PUSH1 0x5 ADD SSTORE SWAP1 POP POP PUSH1 0x1 PUSH1 0x0 CALLER PUSH20 0xFFFFFFFFFFFFFFFFFFFFFFFFFFFFFFFFFFFFFFFF AND PUSH20 0xFFFFFFFFFFFFFFFFFFFFFFFFFFFFFFFFFFFFFFFF AND DUP2 MSTORE PUSH1 0x20 ADD SWAP1 DUP2 MSTORE PUSH1 0x20 ADD PUSH1 0x0 KECCAK256 PUSH1 0x0 DUP2 SLOAD DUP1 SWAP3 SWAP2 SWAP1 PUSH2 0x537 SWAP1 PUSH2 0xF63 JUMP JUMPDEST SWAP2 SWAP1 POP SSTORE POP CALLER PUSH20 0xFFFFFFFFFFFFFFFFFFFFFFFFFFFFFFFFFFFFFFFF AND PUSH32 0x2FFC1D5319C537FD92B356C1F118D1DBED93DE3F439D2F869FE6893E8E5D27BD PUSH1 0x40 MLOAD PUSH1 0x40 MLOAD DUP1 SWAP2 SUB SWAP1 LOG2 POP POP POP POP POP POP POP POP POP JUMP JUMPDEST DUP3 DUP1 SLOAD DUP3 DUP3 SSTORE SWAP1 PUSH1 0x0 MSTORE PUSH1 0x20 PUSH1 0x0 KECCAK256 SWAP1 DUP2 ADD SWAP3 DUP3 ISZERO PUSH2 0x603 JUMPI SWAP2 PUSH1 0x20 MUL DUP3 ADD JUMPDEST DUP3 DUP2 GT ISZERO PUSH2 0x602 JUMPI DUP3 MLOAD DUP3 PUSH1 0x0 PUSH2 0x100 EXP DUP2 SLOAD DUP2 PUSH20 0xFFFFFFFFFFFFFFFFFFFFFFFFFFFFFFFFFFFFFFFF MUL NOT AND SWAP1 DUP4 PUSH20 0xFFFFFFFFFFFFFFFFFFFFFFFFFFFFFFFFFFFFFFFF AND MUL OR SWAP1 SSTORE POP SWAP2 PUSH1 0x20 ADD SWAP2 SWAP1 PUSH1 0x1 ADD SWAP1 PUSH2 0x5AA JUMP JUMPDEST JUMPDEST POP SWAP1 POP PUSH2 0x610 SWAP2 SWAP1 PUSH2 0x661 JUMP JUMPDEST POP SWAP1 JUMP JUMPDEST DUP3 DUP1 SLOAD DUP3 DUP3 SSTORE SWAP1 PUSH1 0x0 MSTORE PUSH1 0x20 PUSH1 0x0 KECCAK256 SWAP1 DUP2 ADD SWAP3 DUP3 ISZERO PUSH2 0x650 JUMPI SWAP2 PUSH1 0x20 MUL DUP3 ADD JUMPDEST DUP3 DUP2 GT ISZERO PUSH2 0x64F JUMPI DUP3 MLOAD DUP3 SSTORE SWAP2 PUSH1 0x20 ADD SWAP2 SWAP1 PUSH1 0x1 ADD SWAP1 PUSH2 0x634 JUMP JUMPDEST JUMPDEST POP SWAP1 POP PUSH2 0x65D SWAP2 SWAP1 PUSH2 0x661 JUMP JUMPDEST POP SWAP1 JUMP JUMPDEST JUMPDEST DUP1 DUP3 GT ISZERO PUSH2 0x67A JUMPI PUSH1 0x0 DUP2 PUSH1 0x0 SWAP1 SSTORE POP PUSH1 0x1 ADD PUSH2 0x662 JUMP JUMPDEST POP SWAP1 JUMP JUMPDEST PUSH1 0x0 PUSH1 0x40 MLOAD SWAP1 POP SWAP1 JUMP JUMPDEST PUSH1 0x0 DUP1 REVERT JUMPDEST PUSH1 0x0 DUP1 REVERT JUMPDEST PUSH1 0x0 PUSH20 0xFFFFFFFFFFFFFFFFFFFFFFFFFFFFFFFFFFFFFFFF DUP3 AND SWAP1 POP SWAP2 SWAP1 POP JUMP JUMPDEST PUSH1 0x0 PUSH2 0x6BD DUP3 PUSH2 0x692 JUMP JUMPDEST SWAP1 POP SWAP2 SWAP1 POP JUMP JUMPDEST PUSH2 0x6CD DUP2 PUSH2 0x6B2 JUMP JUMPDEST DUP2 EQ PUSH2 0x6D8 JUMPI PUSH1 0x0 DUP1 REVERT JUMPDEST POP JUMP JUMPDEST PUSH1 0x0 DUP2 CALLDATALOAD SWAP1 POP PUSH2 0x6EA DUP2 PUSH2 0x6C4 JUMP JUMPDEST SWAP3 SWAP2 POP POP JUMP JUMPDEST PUSH1 0x0 DUP2 SWAP1 POP SWAP2 SWAP1 POP JUMP JUMPDEST PUSH2 0x703 DUP2 PUSH2 0x6F0 JUMP JUMPDEST DUP2 EQ PUSH2 0x70E JUMPI PUSH1 0x0 DUP1 REVERT JUMPDEST POP JUMP JUMPDEST PUSH1 0x0 DUP2 CALLDATALOAD SWAP1 POP PUSH2 0x720 DUP2 PUSH2 0x6FA JUMP JUMPDEST SWAP3 SWAP2 POP POP JUMP JUMPDEST PUSH1 0x0 DUP1 PUSH1 0x40 DUP4 DUP6 SUB SLT ISZERO PUSH2 0x73D JUMPI PUSH2 0x73C PUSH2 0x688 JUMP JUMPDEST JUMPDEST PUSH1 0x0 PUSH2 0x74B DUP6 DUP3 DUP7 ADD PUSH2 0x6DB JUMP JUMPDEST SWAP3 POP POP PUSH1 0x20 PUSH2 0x75C DUP6 DUP3 DUP7 ADD PUSH2 0x711 JUMP JUMPDEST SWAP2 POP POP SWAP3 POP SWAP3 SWAP1 POP JUMP JUMPDEST PUSH1 0x0 DUP2 MLOAD SWAP1 POP SWAP2 SWAP1 POP JUMP JUMPDEST PUSH1 0x0 DUP3 DUP3 MSTORE PUSH1 0x20 DUP3 ADD SWAP1 POP SWAP3 SWAP2 POP POP JUMP JUMPDEST PUSH1 0x0 JUMPDEST DUP4 DUP2 LT ISZERO PUSH2 0x7A0 JUMPI DUP1 DUP3 ADD MLOAD DUP2 DUP5 ADD MSTORE PUSH1 0x20 DUP2 ADD SWAP1 POP PUSH2 0x785 JUMP JUMPDEST PUSH1 0x0 DUP5 DUP5 ADD MSTORE POP POP POP POP JUMP JUMPDEST PUSH1 0x0 PUSH1 0x1F NOT PUSH1 0x1F DUP4 ADD AND SWAP1 POP SWAP2 SWAP1 POP JUMP JUMPDEST PUSH1 0x0 PUSH2 0x7C8 DUP3 PUSH2 0x766 JUMP JUMPDEST PUSH2 0x7D2 DUP2 DUP6 PUSH2 0x771 JUMP JUMPDEST SWAP4 POP PUSH2 0x7E2 DUP2 DUP6 PUSH1 0x20 DUP7 ADD PUSH2 0x782 JUMP JUMPDEST PUSH2 0x7EB DUP2 PUSH2 0x7AC JUMP JUMPDEST DUP5 ADD SWAP2 POP POP SWAP3 SWAP2 POP POP JUMP JUMPDEST PUSH2 0x7FF DUP2 PUSH2 0x6F0 JUMP JUMPDEST DUP3 MSTORE POP POP JUMP JUMPDEST PUSH1 0x0 PUSH1 0x40 DUP3 ADD SWAP1 POP DUP2 DUP2 SUB PUSH1 0x0 DUP4 ADD MSTORE PUSH2 0x81F DUP2 DUP6 PUSH2 0x7BD JUMP JUMPDEST SWAP1 POP PUSH2 0x82E PUSH1 0x20 DUP4 ADD DUP5 PUSH2 0x7F6 JUMP JUMPDEST SWAP4 SWAP3 POP POP POP JUMP JUMPDEST PUSH1 0x0 PUSH1 0x20 DUP3 DUP5 SUB SLT ISZERO PUSH2 0x84B JUMPI PUSH2 0x84A PUSH2 0x688 JUMP JUMPDEST JUMPDEST PUSH1 0x0 PUSH2 0x859 DUP5 DUP3 DUP6 ADD PUSH2 0x6DB JUMP JUMPDEST SWAP2 POP POP SWAP3 SWAP2 POP POP JUMP JUMPDEST PUSH1 0x0 PUSH1 0x20 DUP3 ADD SWAP1 POP PUSH2 0x877 PUSH1 0x0 DUP4 ADD DUP5 PUSH2 0x7F6 JUMP JUMPDEST SWAP3 SWAP2 POP POP JUMP JUMPDEST PUSH1 0x0 DUP1 REVERT JUMPDEST PUSH32 0x4E487B7100000000000000000000000000000000000000000000000000000000 PUSH1 0x0 MSTORE PUSH1 0x41 PUSH1 0x4 MSTORE PUSH1 0x24 PUSH1 0x0 REVERT JUMPDEST PUSH2 0x8BA DUP3 PUSH2 0x7AC JUMP JUMPDEST DUP2 ADD DUP2 DUP2 LT PUSH8 0xFFFFFFFFFFFFFFFF DUP3 GT OR ISZERO PUSH2 0x8D9 JUMPI PUSH2 0x8D8 PUSH2 0x882 JUMP JUMPDEST JUMPDEST DUP1 PUSH1 0x40 MSTORE POP POP POP JUMP JUMPDEST PUSH1 0x0 PUSH2 0x8EC PUSH2 0x67E JUMP JUMPDEST SWAP1 POP PUSH2 0x8F8 DUP3 DUP3 PUSH2 0x8B1 JUMP JUMPDEST SWAP2 SWAP1 POP JUMP JUMPDEST PUSH1 0x0 PUSH8 0xFFFFFFFFFFFFFFFF DUP3 GT ISZERO PUSH2 0x918 JUMPI PUSH2 0x917 PUSH2 0x882 JUMP JUMPDEST JUMPDEST PUSH1 0x20 DUP3 MUL SWAP1 POP PUSH1 0x20 DUP2 ADD SWAP1 POP SWAP2 SWAP1 POP JUMP JUMPDEST PUSH1 0x0 DUP1 REVERT JUMPDEST PUSH1 0x0 PUSH2 0x941 PUSH2 0x93C DUP5 PUSH2 0x8FD JUMP JUMPDEST PUSH2 0x8E2 JUMP JUMPDEST SWAP1 POP DUP1 DUP4 DUP3 MSTORE PUSH1 0x20 DUP3 ADD SWAP1 POP PUSH1 0x20 DUP5 MUL DUP4 ADD DUP6 DUP2 GT ISZERO PUSH2 0x964 JUMPI PUSH2 0x963 PUSH2 0x929 JUMP JUMPDEST JUMPDEST DUP4 JUMPDEST DUP2 DUP2 LT ISZERO PUSH2 0x98D JUMPI DUP1 PUSH2 0x979 DUP9 DUP3 PUSH2 0x6DB JUMP JUMPDEST DUP5 MSTORE PUSH1 0x20 DUP5 ADD SWAP4 POP POP PUSH1 0x20 DUP2 ADD SWAP1 POP PUSH2 0x966 JUMP JUMPDEST POP POP POP SWAP4 SWAP3 POP POP POP JUMP JUMPDEST PUSH1 0x0 DUP3 PUSH1 0x1F DUP4 ADD SLT PUSH2 0x9AC JUMPI PUSH2 0x9AB PUSH2 0x87D JUMP JUMPDEST JUMPDEST DUP2 CALLDATALOAD PUSH2 0x9BC DUP5 DUP3 PUSH1 0x20 DUP7 ADD PUSH2 0x92E JUMP JUMPDEST SWAP2 POP POP SWAP3 SWAP2 POP POP JUMP JUMPDEST PUSH1 0x0 PUSH8 0xFFFFFFFFFFFFFFFF DUP3 GT ISZERO PUSH2 0x9E0 JUMPI PUSH2 0x9DF PUSH2 0x882 JUMP JUMPDEST JUMPDEST PUSH1 0x20 DUP3 MUL SWAP1 POP PUSH1 0x20 DUP2 ADD SWAP1 POP SWAP2 SWAP1 POP JUMP JUMPDEST PUSH1 0x0 PUSH2 0xA04 PUSH2 0x9FF DUP5 PUSH2 0x9C5 JUMP JUMPDEST PUSH2 0x8E2 JUMP JUMPDEST SWAP1 POP DUP1 DUP4 DUP3 MSTORE PUSH1 0x20 DUP3 ADD SWAP1 POP PUSH1 0x20 DUP5 MUL DUP4 ADD DUP6 DUP2 GT ISZERO PUSH2 0xA27 JUMPI PUSH2 0xA26 PUSH2 0x929 JUMP JUMPDEST JUMPDEST DUP4 JUMPDEST DUP2 DUP2 LT ISZERO PUSH2 0xA50 JUMPI DUP1 PUSH2 0xA3C DUP9 DUP3 PUSH2 0x711 JUMP JUMPDEST DUP5 MSTORE PUSH1 0x20 DUP5 ADD SWAP4 POP POP PUSH1 0x20 DUP2 ADD SWAP1 POP PUSH2 0xA29 JUMP JUMPDEST POP POP POP SWAP4 SWAP3 POP POP POP JUMP JUMPDEST PUSH1 0x0 DUP3 PUSH1 0x1F DUP4 ADD SLT PUSH2 0xA6F JUMPI PUSH2 0xA6E PUSH2 0x87D JUMP JUMPDEST JUMPDEST DUP2 CALLDATALOAD PUSH2 0xA7F DUP5 DUP3 PUSH1 0x20 DUP7 ADD PUSH2 0x9F1 JUMP JUMPDEST SWAP2 POP POP SWAP3 SWAP2 POP POP JUMP JUMPDEST PUSH1 0x0 DUP1 REVERT JUMPDEST PUSH1 0x0 PUSH8 0xFFFFFFFFFFFFFFFF DUP3 GT ISZERO PUSH2 0xAA8 JUMPI PUSH2 0xAA7 PUSH2 0x882 JUMP JUMPDEST JUMPDEST PUSH2 0xAB1 DUP3 PUSH2 0x7AC JUMP JUMPDEST SWAP1 POP PUSH1 0x20 DUP2 ADD SWAP1 POP SWAP2 SWAP1 POP JUMP JUMPDEST DUP3 DUP2 DUP4 CALLDATACOPY PUSH1 0x0 DUP4 DUP4 ADD MSTORE POP POP POP JUMP JUMPDEST PUSH1 0x0 PUSH2 0xAE0 PUSH2 0xADB DUP5 PUSH2 0xA8D JUMP JUMPDEST PUSH2 0x8E2 JUMP JUMPDEST SWAP1 POP DUP3 DUP2 MSTORE PUSH1 0x20 DUP2 ADD DUP5 DUP5 DUP5 ADD GT ISZERO PUSH2 0xAFC JUMPI PUSH2 0xAFB PUSH2 0xA88 JUMP JUMPDEST JUMPDEST PUSH2 0xB07 DUP5 DUP3 DUP6 PUSH2 0xABE JUMP JUMPDEST POP SWAP4 SWAP3 POP POP POP JUMP JUMPDEST PUSH1 0x0 DUP3 PUSH1 0x1F DUP4 ADD SLT PUSH2 0xB24 JUMPI PUSH2 0xB23 PUSH2 0x87D JUMP JUMPDEST JUMPDEST DUP2 CALLDATALOAD PUSH2 0xB34 DUP5 DUP3 PUSH1 0x20 DUP7 ADD PUSH2 0xACD JUMP JUMPDEST SWAP2 POP POP SWAP3 SWAP2 POP POP JUMP JUMPDEST PUSH1 0x0 DUP1 PUSH1 0x0 DUP1 PUSH1 0x0 DUP1 PUSH1 0xC0 DUP8 DUP10 SUB SLT ISZERO PUSH2 0xB5A JUMPI PUSH2 0xB59 PUSH2 0x688 JUMP JUMPDEST JUMPDEST PUSH1 0x0 DUP8 ADD CALLDATALOAD PUSH8 0xFFFFFFFFFFFFFFFF DUP2 GT ISZERO PUSH2 0xB78 JUMPI PUSH2 0xB77 PUSH2 0x68D JUMP JUMPDEST JUMPDEST PUSH2 0xB84 DUP10 DUP3 DUP11 ADD PUSH2 0x997 JUMP JUMPDEST SWAP7 POP POP PUSH1 0x20 DUP8 ADD CALLDATALOAD PUSH8 0xFFFFFFFFFFFFFFFF DUP2 GT ISZERO PUSH2 0xBA5 JUMPI PUSH2 0xBA4 PUSH2 0x68D JUMP JUMPDEST JUMPDEST PUSH2 0xBB1 DUP10 DUP3 DUP11 ADD PUSH2 0xA5A JUMP JUMPDEST SWAP6 POP POP PUSH1 0x40 DUP8 ADD CALLDATALOAD PUSH8 0xFFFFFFFFFFFFFFFF DUP2 GT ISZERO PUSH2 0xBD2 JUMPI PUSH2 0xBD1 PUSH2 0x68D JUMP JUMPDEST JUMPDEST PUSH2 0xBDE DUP10 DUP3 DUP11 ADD PUSH2 0xA5A JUMP JUMPDEST SWAP5 POP POP PUSH1 0x60 DUP8 ADD CALLDATALOAD PUSH8 0xFFFFFFFFFFFFFFFF DUP2 GT ISZERO PUSH2 0xBFF JUMPI PUSH2 0xBFE PUSH2 0x68D JUMP JUMPDEST JUMPDEST PUSH2 0xC0B DUP10 DUP3 DUP11 ADD PUSH2 0xA5A JUMP JUMPDEST SWAP4 POP POP PUSH1 0x80 DUP8 ADD CALLDATALOAD PUSH8 0xFFFFFFFFFFFFFFFF DUP2 GT ISZERO PUSH2 0xC2C JUMPI PUSH2 0xC2B PUSH2 0x68D JUMP JUMPDEST JUMPDEST PUSH2 0xC38 DUP10 DUP3 DUP11 ADD PUSH2 0xB0F JUMP JUMPDEST SWAP3 POP POP PUSH1 0xA0 PUSH2 0xC49 DUP10 DUP3 DUP11 ADD PUSH2 0x711 JUMP JUMPDEST SWAP2 POP POP SWAP3 SWAP6 POP SWAP3 SWAP6 POP SWAP3 SWAP6 JUMP JUMPDEST PUSH32 0x4E487B7100000000000000000000000000000000000000000000000000000000 PUSH1 0x0 MSTORE PUSH1 0x22 PUSH1 0x4 MSTORE PUSH1 0x24 PUSH1 0x0 REVERT JUMPDEST PUSH1 0x0 PUSH1 0x2 DUP3 DIV SWAP1 POP PUSH1 0x1 DUP3 AND DUP1 PUSH2 0xC9D JUMPI PUSH1 0x7F DUP3 AND SWAP2 POP JUMPDEST PUSH1 0x20 DUP3 LT DUP2 SUB PUSH2 0xCB0 JUMPI PUSH2 0xCAF PUSH2 0xC56 JUMP JUMPDEST JUMPDEST POP SWAP2 SWAP1 POP JUMP JUMPDEST PUSH1 0x0 DUP2 SWAP1 POP DUP2 PUSH1 0x0 MSTORE PUSH1 0x20 PUSH1 0x0 KECCAK256 SWAP1 POP SWAP2 SWAP1 POP JUMP JUMPDEST PUSH1 0x0 PUSH1 0x20 PUSH1 0x1F DUP4 ADD DIV SWAP1 POP SWAP2 SWAP1 POP JUMP JUMPDEST PUSH1 0x0 DUP3 DUP3 SHL SWAP1 POP SWAP3 SWAP2 POP POP JUMP JUMPDEST PUSH1 0x0 PUSH1 0x8 DUP4 MUL PUSH2 0xD18 PUSH32 0xFFFFFFFFFFFFFFFFFFFFFFFFFFFFFFFFFFFFFFFFFFFFFFFFFFFFFFFFFFFFFFFF DUP3 PUSH2 0xCDB JUMP JUMPDEST PUSH2 0xD22 DUP7 DUP4 PUSH2 0xCDB JUMP JUMPDEST SWAP6 POP DUP1 NOT DUP5 AND SWAP4 POP DUP1 DUP7 AND DUP5 OR SWAP3 POP POP POP SWAP4 SWAP3 POP POP POP JUMP JUMPDEST PUSH1 0x0 DUP2 SWAP1 POP SWAP2 SWAP1 POP JUMP JUMPDEST PUSH1 0x0 PUSH2 0xD5F PUSH2 0xD5A PUSH2 0xD55 DUP5 PUSH2 0x6F0 JUMP JUMPDEST PUSH2 0xD3A JUMP JUMPDEST PUSH2 0x6F0 JUMP JUMPDEST SWAP1 POP SWAP2 SWAP1 POP JUMP JUMPDEST PUSH1 0x0 DUP2 SWAP1 POP SWAP2 SWAP1 POP JUMP JUMPDEST PUSH2 0xD79 DUP4 PUSH2 0xD44 JUMP JUMPDEST PUSH2 0xD8D PUSH2 0xD85 DUP3 PUSH2 0xD66 JUMP JUMPDEST DUP5 DUP5 SLOAD PUSH2 0xCE8 JUMP JUMPDEST DUP3 SSTORE POP POP POP POP JUMP JUMPDEST PUSH1 0x0 SWAP1 JUMP JUMPDEST PUSH2 0xDA2 PUSH2 0xD95 JUMP JUMPDEST PUSH2 0xDAD DUP2 DUP5 DUP5 PUSH2 0xD70 JUMP JUMPDEST POP POP POP JUMP JUMPDEST JUMPDEST DUP2 DUP2 LT ISZERO PUSH2 0xDD1 JUMPI PUSH2 0xDC6 PUSH1 0x0 DUP3 PUSH2 0xD9A JUMP JUMPDEST PUSH1 0x1 DUP2 ADD SWAP1 POP PUSH2 0xDB3 JUMP JUMPDEST POP POP JUMP JUMPDEST PUSH1 0x1F DUP3 GT ISZERO PUSH2 0xE16 JUMPI PUSH2 0xDE7 DUP2 PUSH2 0xCB6 JUMP JUMPDEST PUSH2 0xDF0 DUP5 PUSH2 0xCCB JUMP JUMPDEST DUP2 ADD PUSH1 0x20 DUP6 LT ISZERO PUSH2 0xDFF JUMPI DUP2 SWAP1 POP JUMPDEST PUSH2 0xE13 PUSH2 0xE0B DUP6 PUSH2 0xCCB JUMP JUMPDEST DUP4 ADD DUP3 PUSH2 0xDB2 JUMP JUMPDEST POP POP JUMPDEST POP POP POP JUMP JUMPDEST PUSH1 0x0 DUP3 DUP3 SHR SWAP1 POP SWAP3 SWAP2 POP POP JUMP JUMPDEST PUSH1 0x0 PUSH2 0xE39 PUSH1 0x0 NOT DUP5 PUSH1 0x8 MUL PUSH2 0xE1B JUMP JUMPDEST NOT DUP1 DUP4 AND SWAP2 POP POP SWAP3 SWAP2 POP POP JUMP JUMPDEST PUSH1 0x0 PUSH2 0xE52 DUP4 DUP4 PUSH2 0xE28 JUMP JUMPDEST SWAP2 POP DUP3 PUSH1 0x2 MUL DUP3 OR SWAP1 POP SWAP3 SWAP2 POP POP JUMP JUMPDEST PUSH2 0xE6B DUP3 PUSH2 0x766 JUMP JUMPDEST PUSH8 0xFFFFFFFFFFFFFFFF DUP2 GT ISZERO PUSH2 0xE84 JUMPI PUSH2 0xE83 PUSH2 0x882 JUMP JUMPDEST JUMPDEST PUSH2 0xE8E DUP3 SLOAD PUSH2 0xC85 JUMP JUMPDEST PUSH2 0xE99 DUP3 DUP3 DUP6 PUSH2 0xDD5 JUMP JUMPDEST PUSH1 0x0 PUSH1 0x20 SWAP1 POP PUSH1 0x1F DUP4 GT PUSH1 0x1 DUP2 EQ PUSH2 0xECC JUMPI PUSH1 0x0 DUP5 ISZERO PUSH2 0xEBA JUMPI DUP3 DUP8 ADD MLOAD SWAP1 POP JUMPDEST PUSH2 0xEC4 DUP6 DUP3 PUSH2 0xE46 JUMP JUMPDEST DUP7 SSTORE POP PUSH2 0xF2C JUMP JUMPDEST PUSH1 0x1F NOT DUP5 AND PUSH2 0xEDA DUP7 PUSH2 0xCB6 JUMP JUMPDEST PUSH1 0x0 JUMPDEST DUP3 DUP2 LT ISZERO PUSH2 0xF02 JUMPI DUP5 DUP10 ADD MLOAD DUP3 SSTORE PUSH1 0x1 DUP3 ADD SWAP2 POP PUSH1 0x20 DUP6 ADD SWAP5 POP PUSH1 0x20 DUP2 ADD SWAP1 POP PUSH2 0xEDD JUMP JUMPDEST DUP7 DUP4 LT ISZERO PUSH2 0xF1F JUMPI DUP5 DUP10 ADD MLOAD PUSH2 0xF1B PUSH1 0x1F DUP10 AND DUP3 PUSH2 0xE28 JUMP JUMPDEST DUP4 SSTORE POP JUMPDEST PUSH1 0x1 PUSH1 0x2 DUP9 MUL ADD DUP9 SSTORE POP POP POP JUMPDEST POP POP POP POP POP POP JUMP JUMPDEST PUSH32 0x4E487B7100000000000000000000000000000000000000000000000000000000 PUSH1 0x0 MSTORE PUSH1 0x11 PUSH1 0x4 MSTORE PUSH1 0x24 PUSH1 0x0 REVERT JUMPDEST PUSH1 0x0 PUSH2 0xF6E DUP3 PUSH2 0x6F0 JUMP JUMPDEST SWAP2 POP PUSH32 0xFFFFFFFFFFFFFFFFFFFFFFFFFFFFFFFFFFFFFFFFFFFFFFFFFFFFFFFFFFFFFFFF DUP3 SUB PUSH2 0xFA0 JUMPI PUSH2 0xF9F PUSH2 0xF34 JUMP JUMPDEST JUMPDEST PUSH1 0x1 DUP3 ADD SWAP1 POP SWAP2 SWAP1 POP JUMP INVALID LOG2 PUSH5 0x6970667358 0x22 SLT KECCAK256 DUP8 0xC8 SELFDESTRUCT 0xA8 0xBF 0xD3 GASPRICE SELFDESTRUCT SELFBALANCE SWAP8 0xC9 0x5D 0xDD 0xC7 STOP SWAP3 SWAP13 JUMPDEST 0xD4 0xB2 OR JUMPI 0xD1 0xB3 PUSH0 CODESIZE GASLIMIT 0xE5 EQ PUSH13 0x40B164736F6C63430008170033 "
        },
        "methodIdentifiers": {
          "createMultiPartySystem(address[],uint256[],uint256[],uint256[],string,uint256)": "bb908118",
          "multipartyList(address,uint256)": "2d223bc5",
          "totalMultiPartySystemCreated(address)": "592a1e27"
        }
      }
    }
  }
}