{
  "contracts/Multiparty.sol": {
    "Multiparty": {
      "abi": [
        {
          "inputs": [],
          "stateMutability": "nonpayable",
          "type": "constructor"
        },
        {
          "inputs": [],
          "name": "ADDRESS_ZERO_NOT_PERMITED",
          "type": "error"
        },
        {
          "inputs": [],
          "name": "LENGTH_MUST_BE_SAME_WITH_PARTYMEMBERS_LENGTH",
          "type": "error"
        },
        {
          "inputs": [],
          "name": "NOT_AUTHORIZE_TO_CALL_THIS_FUNCTION",
          "type": "error"
        },
        {
          "inputs": [],
          "name": "PARTY_MEMBERS_VALUE_CANNOT_BE_EMPTY",
          "type": "error"
        },
        {
          "inputs": [],
          "name": "PENALTY_RATE_MUST_BE_SET",
          "type": "error"
        },
        {
          "inputs": [],
          "name": "TERMS_FOR_BUSINESS_CANNOT_BE_EMPTY",
          "type": "error"
        },
        {
          "inputs": [],
          "name": "VALUE_CANNOT_BE_EMPTY",
          "type": "error"
        },
        {
          "anonymous": false,
          "inputs": [
            {
              "indexed": true,
              "internalType": "address",
              "name": "whoCreates",
              "type": "address"
            }
          ],
          "name": "MultiPartyCreatedSuccessfully",
          "type": "event"
        },
        {
          "inputs": [
            {
              "internalType": "address[]",
              "name": "_partMem",
              "type": "address[]"
            },
            {
              "internalType": "uint256[]",
              "name": "_totalAmountForEach",
              "type": "uint256[]"
            },
            {
              "internalType": "uint256[]",
              "name": "_mileStoneCountForEach",
              "type": "uint256[]"
            },
            {
              "internalType": "uint256[]",
              "name": "_expectedDateForEach",
              "type": "uint256[]"
            },
            {
              "internalType": "string",
              "name": "_termsForConductingBusiness",
              "type": "string"
            },
            {
              "internalType": "uint256",
              "name": "_penalty",
              "type": "uint256"
            }
          ],
          "name": "createMultiPartySystem",
          "outputs": [],
          "stateMutability": "nonpayable",
          "type": "function"
        },
        {
          "inputs": [
            {
              "internalType": "address",
              "name": "",
              "type": "address"
            },
            {
              "internalType": "uint256",
              "name": "",
              "type": "uint256"
            }
          ],
          "name": "multipartyList",
          "outputs": [
            {
              "internalType": "string",
              "name": "termsForConductingBusiness",
              "type": "string"
            },
            {
              "internalType": "uint256",
              "name": "penaltyRateForDefaulters",
              "type": "uint256"
            }
          ],
          "stateMutability": "view",
          "type": "function"
        },
        {
          "inputs": [
            {
              "internalType": "uint256",
              "name": "partyMemberId",
              "type": "uint256"
            }
          ],
          "name": "partyMember",
          "outputs": [
            {
              "internalType": "address",
              "name": "partyMemberAddress",
              "type": "address"
            }
          ],
          "stateMutability": "view",
          "type": "function"
        },
        {
          "inputs": [
            {
              "internalType": "uint256",
              "name": "partyMemberId",
              "type": "uint256"
            },
            {
              "internalType": "uint256",
              "name": "milestoneIndex",
              "type": "uint256"
            },
            {
              "internalType": "uint256",
              "name": "milestone1Payment",
              "type": "uint256"
            },
            {
              "internalType": "uint256",
              "name": "milestone2Payment",
              "type": "uint256"
            },
            {
              "internalType": "uint256",
              "name": "milestone3Payment",
              "type": "uint256"
            }
          ],
          "name": "releasePayment",
          "outputs": [],
          "stateMutability": "nonpayable",
          "type": "function"
        },
        {
          "inputs": [
            {
              "internalType": "address",
              "name": "",
              "type": "address"
            }
          ],
          "name": "totalMultiPartySystemCreated",
          "outputs": [
            {
              "internalType": "uint256",
              "name": "",
              "type": "uint256"
            }
          ],
          "stateMutability": "view",
          "type": "function"
        }
      ],
      "evm": {
        "bytecode": {
          "linkReferences": {},
          "object": "608060405234801561001057600080fd5b50600073ffffffffffffffffffffffffffffffffffffffff163373ffffffffffffffffffffffffffffffffffffffff1603610077576040517f7a795c5600000000000000000000000000000000000000000000000000000000815260040160405180910390fd5b33600360006101000a81548173ffffffffffffffffffffffffffffffffffffffff021916908373ffffffffffffffffffffffffffffffffffffffff16021790555061160c806100c76000396000f3fe608060405234801561001057600080fd5b50600436106100575760003560e01c80632d223bc51461005c5780633cdeba901461008d578063592a1e27146100bd5780639d6573d7146100ed578063bb90811814610109575b600080fd5b61007660048036038101906100719190610b30565b610125565b604051610084929190610c0f565b60405180910390f35b6100a760048036038101906100a29190610c3f565b6101de565b6040516100b49190610c7b565b60405180910390f35b6100d760048036038101906100d29190610c96565b610211565b6040516100e49190610cc3565b60405180910390f35b61010760048036038101906101029190610cde565b610229565b005b610123600480360381019061011e9190611019565b61059d565b005b60016020528160005260406000206020528060005260406000206000915091505080600401805461015590611161565b80601f016020809104026020016040519081016040528092919081815260200182805461018190611161565b80156101ce5780601f106101a3576101008083540402835291602001916101ce565b820191906000526020600020905b8154815290600101906020018083116101b157829003601f168201915b5050505050908060050154905082565b60006020528060005260406000206000915054906101000a900473ffffffffffffffffffffffffffffffffffffffff1681565b60026020528060005260406000206000915090505481565b60018414801561025c575060008081111561024757610246611192565b5b60008081111561025a57610259611192565b5b145b1561033957600560009054906101000a900473ffffffffffffffffffffffffffffffffffffffff1673ffffffffffffffffffffffffffffffffffffffff1663a9059cbb60008088815260200190815260200160002060009054906101000a900473ffffffffffffffffffffffffffffffffffffffff16856040518363ffffffff1660e01b81526004016102f09291906111c1565b6020604051808303816000875af115801561030f573d6000803e3d6000fd5b505050506040513d601f19601f820116820180604052508101906103339190611222565b50610596565b60028414801561036c575060018081111561035757610356611192565b5b60018081111561036a57610369611192565b5b145b1561044957600560009054906101000a900473ffffffffffffffffffffffffffffffffffffffff1673ffffffffffffffffffffffffffffffffffffffff1663a9059cbb60008088815260200190815260200160002060009054906101000a900473ffffffffffffffffffffffffffffffffffffffff16846040518363ffffffff1660e01b81526004016104009291906111c1565b6020604051808303816000875af115801561041f573d6000803e3d6000fd5b505050506040513d601f19601f820116820180604052508101906104439190611222565b50610595565b60038414801561047c575060028081111561046757610466611192565b5b60028081111561047a57610479611192565b5b145b1561055957600560009054906101000a900473ffffffffffffffffffffffffffffffffffffffff1673ffffffffffffffffffffffffffffffffffffffff1663a9059cbb60008088815260200190815260200160002060009054906101000a900473ffffffffffffffffffffffffffffffffffffffff16836040518363ffffffff1660e01b81526004016105109291906111c1565b6020604051808303816000875af115801561052f573d6000803e3d6000fd5b505050506040513d601f19601f820116820180604052508101906105539190611222565b50610594565b6040517f08c379a000000000000000000000000000000000000000000000000000000000815260040161058b906112c1565b60405180910390fd5b5b5b5050505050565b600073ffffffffffffffffffffffffffffffffffffffff163373ffffffffffffffffffffffffffffffffffffffff1603610603576040517f7a795c5600000000000000000000000000000000000000000000000000000000815260040160405180910390fd5b600360009054906101000a900473ffffffffffffffffffffffffffffffffffffffff1673ffffffffffffffffffffffffffffffffffffffff163373ffffffffffffffffffffffffffffffffffffffff161461068a576040517f6810116800000000000000000000000000000000000000000000000000000000815260040160405180910390fd5b60008651905060008751036106cb576040517f28539e8c00000000000000000000000000000000000000000000000000000000815260040160405180910390fd5b8551811415806106dc575084518114155b806106e8575083518114155b1561071f576040517f47c48a1600000000000000000000000000000000000000000000000000000000815260040160405180910390fd5b600083510361075a576040517fd1fe3e0c00000000000000000000000000000000000000000000000000000000815260040160405180910390fd5b60008203610794576040517f6b19089700000000000000000000000000000000000000000000000000000000815260040160405180910390fd5b60006040518060c001604052808981526020018881526020018781526020018681526020018581526020018481525090506000600260003373ffffffffffffffffffffffffffffffffffffffff1673ffffffffffffffffffffffffffffffffffffffff16815260200190815260200160002054905081600160003373ffffffffffffffffffffffffffffffffffffffff1673ffffffffffffffffffffffffffffffffffffffff16815260200190815260200160002060008381526020019081526020016000206000820151816000019080519060200190610876929190610994565b506020820151816001019080519060200190610893929190610a1e565b5060408201518160020190805190602001906108b0929190610a1e565b5060608201518160030190805190602001906108cd929190610a1e565b5060808201518160040190816108e3919061148d565b5060a08201518160050155905050600260003373ffffffffffffffffffffffffffffffffffffffff1673ffffffffffffffffffffffffffffffffffffffff16815260200190815260200160002060008154809291906109419061158e565b91905055503373ffffffffffffffffffffffffffffffffffffffff167f2ffc1d5319c537fd92b356c1f118d1dbed93de3f439d2f869fe6893e8e5d27bd60405160405180910390a2505050505050505050565b828054828255906000526020600020908101928215610a0d579160200282015b82811115610a0c5782518260006101000a81548173ffffffffffffffffffffffffffffffffffffffff021916908373ffffffffffffffffffffffffffffffffffffffff160217905550916020019190600101906109b4565b5b509050610a1a9190610a6b565b5090565b828054828255906000526020600020908101928215610a5a579160200282015b82811115610a59578251825591602001919060010190610a3e565b5b509050610a679190610a6b565b5090565b5b80821115610a84576000816000905550600101610a6c565b5090565b6000604051905090565b600080fd5b600080fd5b600073ffffffffffffffffffffffffffffffffffffffff82169050919050565b6000610ac782610a9c565b9050919050565b610ad781610abc565b8114610ae257600080fd5b50565b600081359050610af481610ace565b92915050565b6000819050919050565b610b0d81610afa565b8114610b1857600080fd5b50565b600081359050610b2a81610b04565b92915050565b60008060408385031215610b4757610b46610a92565b5b6000610b5585828601610ae5565b9250506020610b6685828601610b1b565b9150509250929050565b600081519050919050565b600082825260208201905092915050565b60005b83811015610baa578082015181840152602081019050610b8f565b60008484015250505050565b6000601f19601f8301169050919050565b6000610bd282610b70565b610bdc8185610b7b565b9350610bec818560208601610b8c565b610bf581610bb6565b840191505092915050565b610c0981610afa565b82525050565b60006040820190508181036000830152610c298185610bc7565b9050610c386020830184610c00565b9392505050565b600060208284031215610c5557610c54610a92565b5b6000610c6384828501610b1b565b91505092915050565b610c7581610abc565b82525050565b6000602082019050610c906000830184610c6c565b92915050565b600060208284031215610cac57610cab610a92565b5b6000610cba84828501610ae5565b91505092915050565b6000602082019050610cd86000830184610c00565b92915050565b600080600080600060a08688031215610cfa57610cf9610a92565b5b6000610d0888828901610b1b565b9550506020610d1988828901610b1b565b9450506040610d2a88828901610b1b565b9350506060610d3b88828901610b1b565b9250506080610d4c88828901610b1b565b9150509295509295909350565b600080fd5b7f4e487b7100000000000000000000000000000000000000000000000000000000600052604160045260246000fd5b610d9682610bb6565b810181811067ffffffffffffffff82111715610db557610db4610d5e565b5b80604052505050565b6000610dc8610a88565b9050610dd48282610d8d565b919050565b600067ffffffffffffffff821115610df457610df3610d5e565b5b602082029050602081019050919050565b600080fd5b6000610e1d610e1884610dd9565b610dbe565b90508083825260208201905060208402830185811115610e4057610e3f610e05565b5b835b81811015610e695780610e558882610ae5565b845260208401935050602081019050610e42565b5050509392505050565b600082601f830112610e8857610e87610d59565b5b8135610e98848260208601610e0a565b91505092915050565b600067ffffffffffffffff821115610ebc57610ebb610d5e565b5b602082029050602081019050919050565b6000610ee0610edb84610ea1565b610dbe565b90508083825260208201905060208402830185811115610f0357610f02610e05565b5b835b81811015610f2c5780610f188882610b1b565b845260208401935050602081019050610f05565b5050509392505050565b600082601f830112610f4b57610f4a610d59565b5b8135610f5b848260208601610ecd565b91505092915050565b600080fd5b600067ffffffffffffffff821115610f8457610f83610d5e565b5b610f8d82610bb6565b9050602081019050919050565b82818337600083830152505050565b6000610fbc610fb784610f69565b610dbe565b905082815260208101848484011115610fd857610fd7610f64565b5b610fe3848285610f9a565b509392505050565b600082601f83011261100057610fff610d59565b5b8135611010848260208601610fa9565b91505092915050565b60008060008060008060c0878903121561103657611035610a92565b5b600087013567ffffffffffffffff81111561105457611053610a97565b5b61106089828a01610e73565b965050602087013567ffffffffffffffff81111561108157611080610a97565b5b61108d89828a01610f36565b955050604087013567ffffffffffffffff8111156110ae576110ad610a97565b5b6110ba89828a01610f36565b945050606087013567ffffffffffffffff8111156110db576110da610a97565b5b6110e789828a01610f36565b935050608087013567ffffffffffffffff81111561110857611107610a97565b5b61111489828a01610feb565b92505060a061112589828a01610b1b565b9150509295509295509295565b7f4e487b7100000000000000000000000000000000000000000000000000000000600052602260045260246000fd5b6000600282049050600182168061117957607f821691505b60208210810361118c5761118b611132565b5b50919050565b7f4e487b7100000000000000000000000000000000000000000000000000000000600052602160045260246000fd5b60006040820190506111d66000830185610c6c565b6111e36020830184610c00565b9392505050565b60008115159050919050565b6111ff816111ea565b811461120a57600080fd5b50565b60008151905061121c816111f6565b92915050565b60006020828403121561123857611237610a92565b5b60006112468482850161120d565b91505092915050565b7f4d696c6573746f6e65206e6f7420636f6d706c65746564206f7220696e76616c60008201527f6964000000000000000000000000000000000000000000000000000000000000602082015250565b60006112ab602283610b7b565b91506112b68261124f565b604082019050919050565b600060208201905081810360008301526112da8161129e565b9050919050565b60008190508160005260206000209050919050565b60006020601f8301049050919050565b600082821b905092915050565b6000600883026113437fffffffffffffffffffffffffffffffffffffffffffffffffffffffffffffffff82611306565b61134d8683611306565b95508019841693508086168417925050509392505050565b6000819050919050565b600061138a61138561138084610afa565b611365565b610afa565b9050919050565b6000819050919050565b6113a48361136f565b6113b86113b082611391565b848454611313565b825550505050565b600090565b6113cd6113c0565b6113d881848461139b565b505050565b5b818110156113fc576113f16000826113c5565b6001810190506113de565b5050565b601f82111561144157611412816112e1565b61141b846112f6565b8101602085101561142a578190505b61143e611436856112f6565b8301826113dd565b50505b505050565b600082821c905092915050565b600061146460001984600802611446565b1980831691505092915050565b600061147d8383611453565b9150826002028217905092915050565b61149682610b70565b67ffffffffffffffff8111156114af576114ae610d5e565b5b6114b98254611161565b6114c4828285611400565b600060209050601f8311600181146114f757600084156114e5578287015190505b6114ef8582611471565b865550611557565b601f198416611505866112e1565b60005b8281101561152d57848901518255600182019150602085019450602081019050611508565b8683101561154a5784890151611546601f891682611453565b8355505b6001600288020188555050505b505050505050565b7f4e487b7100000000000000000000000000000000000000000000000000000000600052601160045260246000fd5b600061159982610afa565b91507fffffffffffffffffffffffffffffffffffffffffffffffffffffffffffffffff82036115cb576115ca61155f565b5b60018201905091905056fea2646970667358221220cd86d27c5b3460fa9bcdacfb15192ced24a6d7fd4f832bc0384289ca831ea8ed64736f6c63430008180033",
          "opcodes": "PUSH1 0x80 PUSH1 0x40 MSTORE CALLVALUE DUP1 ISZERO PUSH2 0x10 JUMPI PUSH1 0x0 DUP1 REVERT JUMPDEST POP PUSH1 0x0 PUSH20 0xFFFFFFFFFFFFFFFFFFFFFFFFFFFFFFFFFFFFFFFF AND CALLER PUSH20 0xFFFFFFFFFFFFFFFFFFFFFFFFFFFFFFFFFFFFFFFF AND SUB PUSH2 0x77 JUMPI PUSH1 0x40 MLOAD PUSH32 0x7A795C5600000000000000000000000000000000000000000000000000000000 DUP2 MSTORE PUSH1 0x4 ADD PUSH1 0x40 MLOAD DUP1 SWAP2 SUB SWAP1 REVERT JUMPDEST CALLER PUSH1 0x3 PUSH1 0x0 PUSH2 0x100 EXP DUP2 SLOAD DUP2 PUSH20 0xFFFFFFFFFFFFFFFFFFFFFFFFFFFFFFFFFFFFFFFF MUL NOT AND SWAP1 DUP4 PUSH20 0xFFFFFFFFFFFFFFFFFFFFFFFFFFFFFFFFFFFFFFFF AND MUL OR SWAP1 SSTORE POP PUSH2 0x160C DUP1 PUSH2 0xC7 PUSH1 0x0 CODECOPY PUSH1 0x0 RETURN INVALID PUSH1 0x80 PUSH1 0x40 MSTORE CALLVALUE DUP1 ISZERO PUSH2 0x10 JUMPI PUSH1 0x0 DUP1 REVERT JUMPDEST POP PUSH1 0x4 CALLDATASIZE LT PUSH2 0x57 JUMPI PUSH1 0x0 CALLDATALOAD PUSH1 0xE0 SHR DUP1 PUSH4 0x2D223BC5 EQ PUSH2 0x5C JUMPI DUP1 PUSH4 0x3CDEBA90 EQ PUSH2 0x8D JUMPI DUP1 PUSH4 0x592A1E27 EQ PUSH2 0xBD JUMPI DUP1 PUSH4 0x9D6573D7 EQ PUSH2 0xED JUMPI DUP1 PUSH4 0xBB908118 EQ PUSH2 0x109 JUMPI JUMPDEST PUSH1 0x0 DUP1 REVERT JUMPDEST PUSH2 0x76 PUSH1 0x4 DUP1 CALLDATASIZE SUB DUP2 ADD SWAP1 PUSH2 0x71 SWAP2 SWAP1 PUSH2 0xB30 JUMP JUMPDEST PUSH2 0x125 JUMP JUMPDEST PUSH1 0x40 MLOAD PUSH2 0x84 SWAP3 SWAP2 SWAP1 PUSH2 0xC0F JUMP JUMPDEST PUSH1 0x40 MLOAD DUP1 SWAP2 SUB SWAP1 RETURN JUMPDEST PUSH2 0xA7 PUSH1 0x4 DUP1 CALLDATASIZE SUB DUP2 ADD SWAP1 PUSH2 0xA2 SWAP2 SWAP1 PUSH2 0xC3F JUMP JUMPDEST PUSH2 0x1DE JUMP JUMPDEST PUSH1 0x40 MLOAD PUSH2 0xB4 SWAP2 SWAP1 PUSH2 0xC7B JUMP JUMPDEST PUSH1 0x40 MLOAD DUP1 SWAP2 SUB SWAP1 RETURN JUMPDEST PUSH2 0xD7 PUSH1 0x4 DUP1 CALLDATASIZE SUB DUP2 ADD SWAP1 PUSH2 0xD2 SWAP2 SWAP1 PUSH2 0xC96 JUMP JUMPDEST PUSH2 0x211 JUMP JUMPDEST PUSH1 0x40 MLOAD PUSH2 0xE4 SWAP2 SWAP1 PUSH2 0xCC3 JUMP JUMPDEST PUSH1 0x40 MLOAD DUP1 SWAP2 SUB SWAP1 RETURN JUMPDEST PUSH2 0x107 PUSH1 0x4 DUP1 CALLDATASIZE SUB DUP2 ADD SWAP1 PUSH2 0x102 SWAP2 SWAP1 PUSH2 0xCDE JUMP JUMPDEST PUSH2 0x229 JUMP JUMPDEST STOP JUMPDEST PUSH2 0x123 PUSH1 0x4 DUP1 CALLDATASIZE SUB DUP2 ADD SWAP1 PUSH2 0x11E SWAP2 SWAP1 PUSH2 0x1019 JUMP JUMPDEST PUSH2 0x59D JUMP JUMPDEST STOP JUMPDEST PUSH1 0x1 PUSH1 0x20 MSTORE DUP2 PUSH1 0x0 MSTORE PUSH1 0x40 PUSH1 0x0 KECCAK256 PUSH1 0x20 MSTORE DUP1 PUSH1 0x0 MSTORE PUSH1 0x40 PUSH1 0x0 KECCAK256 PUSH1 0x0 SWAP2 POP SWAP2 POP POP DUP1 PUSH1 0x4 ADD DUP1 SLOAD PUSH2 0x155 SWAP1 PUSH2 0x1161 JUMP JUMPDEST DUP1 PUSH1 0x1F ADD PUSH1 0x20 DUP1 SWAP2 DIV MUL PUSH1 0x20 ADD PUSH1 0x40 MLOAD SWAP1 DUP2 ADD PUSH1 0x40 MSTORE DUP1 SWAP3 SWAP2 SWAP1 DUP2 DUP2 MSTORE PUSH1 0x20 ADD DUP3 DUP1 SLOAD PUSH2 0x181 SWAP1 PUSH2 0x1161 JUMP JUMPDEST DUP1 ISZERO PUSH2 0x1CE JUMPI DUP1 PUSH1 0x1F LT PUSH2 0x1A3 JUMPI PUSH2 0x100 DUP1 DUP4 SLOAD DIV MUL DUP4 MSTORE SWAP2 PUSH1 0x20 ADD SWAP2 PUSH2 0x1CE JUMP JUMPDEST DUP3 ADD SWAP2 SWAP1 PUSH1 0x0 MSTORE PUSH1 0x20 PUSH1 0x0 KECCAK256 SWAP1 JUMPDEST DUP2 SLOAD DUP2 MSTORE SWAP1 PUSH1 0x1 ADD SWAP1 PUSH1 0x20 ADD DUP1 DUP4 GT PUSH2 0x1B1 JUMPI DUP3 SWAP1 SUB PUSH1 0x1F AND DUP3 ADD SWAP2 JUMPDEST POP POP POP POP POP SWAP1 DUP1 PUSH1 0x5 ADD SLOAD SWAP1 POP DUP3 JUMP JUMPDEST PUSH1 0x0 PUSH1 0x20 MSTORE DUP1 PUSH1 0x0 MSTORE PUSH1 0x40 PUSH1 0x0 KECCAK256 PUSH1 0x0 SWAP2 POP SLOAD SWAP1 PUSH2 0x100 EXP SWAP1 DIV PUSH20 0xFFFFFFFFFFFFFFFFFFFFFFFFFFFFFFFFFFFFFFFF AND DUP2 JUMP JUMPDEST PUSH1 0x2 PUSH1 0x20 MSTORE DUP1 PUSH1 0x0 MSTORE PUSH1 0x40 PUSH1 0x0 KECCAK256 PUSH1 0x0 SWAP2 POP SWAP1 POP SLOAD DUP2 JUMP JUMPDEST PUSH1 0x1 DUP5 EQ DUP1 ISZERO PUSH2 0x25C JUMPI POP PUSH1 0x0 DUP1 DUP2 GT ISZERO PUSH2 0x247 JUMPI PUSH2 0x246 PUSH2 0x1192 JUMP JUMPDEST JUMPDEST PUSH1 0x0 DUP1 DUP2 GT ISZERO PUSH2 0x25A JUMPI PUSH2 0x259 PUSH2 0x1192 JUMP JUMPDEST JUMPDEST EQ JUMPDEST ISZERO PUSH2 0x339 JUMPI PUSH1 0x5 PUSH1 0x0 SWAP1 SLOAD SWAP1 PUSH2 0x100 EXP SWAP1 DIV PUSH20 0xFFFFFFFFFFFFFFFFFFFFFFFFFFFFFFFFFFFFFFFF AND PUSH20 0xFFFFFFFFFFFFFFFFFFFFFFFFFFFFFFFFFFFFFFFF AND PUSH4 0xA9059CBB PUSH1 0x0 DUP1 DUP9 DUP2 MSTORE PUSH1 0x20 ADD SWAP1 DUP2 MSTORE PUSH1 0x20 ADD PUSH1 0x0 KECCAK256 PUSH1 0x0 SWAP1 SLOAD SWAP1 PUSH2 0x100 EXP SWAP1 DIV PUSH20 0xFFFFFFFFFFFFFFFFFFFFFFFFFFFFFFFFFFFFFFFF AND DUP6 PUSH1 0x40 MLOAD DUP4 PUSH4 0xFFFFFFFF AND PUSH1 0xE0 SHL DUP2 MSTORE PUSH1 0x4 ADD PUSH2 0x2F0 SWAP3 SWAP2 SWAP1 PUSH2 0x11C1 JUMP JUMPDEST PUSH1 0x20 PUSH1 0x40 MLOAD DUP1 DUP4 SUB DUP2 PUSH1 0x0 DUP8 GAS CALL ISZERO DUP1 ISZERO PUSH2 0x30F JUMPI RETURNDATASIZE PUSH1 0x0 DUP1 RETURNDATACOPY RETURNDATASIZE PUSH1 0x0 REVERT JUMPDEST POP POP POP POP PUSH1 0x40 MLOAD RETURNDATASIZE PUSH1 0x1F NOT PUSH1 0x1F DUP3 ADD AND DUP3 ADD DUP1 PUSH1 0x40 MSTORE POP DUP2 ADD SWAP1 PUSH2 0x333 SWAP2 SWAP1 PUSH2 0x1222 JUMP JUMPDEST POP PUSH2 0x596 JUMP JUMPDEST PUSH1 0x2 DUP5 EQ DUP1 ISZERO PUSH2 0x36C JUMPI POP PUSH1 0x1 DUP1 DUP2 GT ISZERO PUSH2 0x357 JUMPI PUSH2 0x356 PUSH2 0x1192 JUMP JUMPDEST JUMPDEST PUSH1 0x1 DUP1 DUP2 GT ISZERO PUSH2 0x36A JUMPI PUSH2 0x369 PUSH2 0x1192 JUMP JUMPDEST JUMPDEST EQ JUMPDEST ISZERO PUSH2 0x449 JUMPI PUSH1 0x5 PUSH1 0x0 SWAP1 SLOAD SWAP1 PUSH2 0x100 EXP SWAP1 DIV PUSH20 0xFFFFFFFFFFFFFFFFFFFFFFFFFFFFFFFFFFFFFFFF AND PUSH20 0xFFFFFFFFFFFFFFFFFFFFFFFFFFFFFFFFFFFFFFFF AND PUSH4 0xA9059CBB PUSH1 0x0 DUP1 DUP9 DUP2 MSTORE PUSH1 0x20 ADD SWAP1 DUP2 MSTORE PUSH1 0x20 ADD PUSH1 0x0 KECCAK256 PUSH1 0x0 SWAP1 SLOAD SWAP1 PUSH2 0x100 EXP SWAP1 DIV PUSH20 0xFFFFFFFFFFFFFFFFFFFFFFFFFFFFFFFFFFFFFFFF AND DUP5 PUSH1 0x40 MLOAD DUP4 PUSH4 0xFFFFFFFF AND PUSH1 0xE0 SHL DUP2 MSTORE PUSH1 0x4 ADD PUSH2 0x400 SWAP3 SWAP2 SWAP1 PUSH2 0x11C1 JUMP JUMPDEST PUSH1 0x20 PUSH1 0x40 MLOAD DUP1 DUP4 SUB DUP2 PUSH1 0x0 DUP8 GAS CALL ISZERO DUP1 ISZERO PUSH2 0x41F JUMPI RETURNDATASIZE PUSH1 0x0 DUP1 RETURNDATACOPY RETURNDATASIZE PUSH1 0x0 REVERT JUMPDEST POP POP POP POP PUSH1 0x40 MLOAD RETURNDATASIZE PUSH1 0x1F NOT PUSH1 0x1F DUP3 ADD AND DUP3 ADD DUP1 PUSH1 0x40 MSTORE POP DUP2 ADD SWAP1 PUSH2 0x443 SWAP2 SWAP1 PUSH2 0x1222 JUMP JUMPDEST POP PUSH2 0x595 JUMP JUMPDEST PUSH1 0x3 DUP5 EQ DUP1 ISZERO PUSH2 0x47C JUMPI POP PUSH1 0x2 DUP1 DUP2 GT ISZERO PUSH2 0x467 JUMPI PUSH2 0x466 PUSH2 0x1192 JUMP JUMPDEST JUMPDEST PUSH1 0x2 DUP1 DUP2 GT ISZERO PUSH2 0x47A JUMPI PUSH2 0x479 PUSH2 0x1192 JUMP JUMPDEST JUMPDEST EQ JUMPDEST ISZERO PUSH2 0x559 JUMPI PUSH1 0x5 PUSH1 0x0 SWAP1 SLOAD SWAP1 PUSH2 0x100 EXP SWAP1 DIV PUSH20 0xFFFFFFFFFFFFFFFFFFFFFFFFFFFFFFFFFFFFFFFF AND PUSH20 0xFFFFFFFFFFFFFFFFFFFFFFFFFFFFFFFFFFFFFFFF AND PUSH4 0xA9059CBB PUSH1 0x0 DUP1 DUP9 DUP2 MSTORE PUSH1 0x20 ADD SWAP1 DUP2 MSTORE PUSH1 0x20 ADD PUSH1 0x0 KECCAK256 PUSH1 0x0 SWAP1 SLOAD SWAP1 PUSH2 0x100 EXP SWAP1 DIV PUSH20 0xFFFFFFFFFFFFFFFFFFFFFFFFFFFFFFFFFFFFFFFF AND DUP4 PUSH1 0x40 MLOAD DUP4 PUSH4 0xFFFFFFFF AND PUSH1 0xE0 SHL DUP2 MSTORE PUSH1 0x4 ADD PUSH2 0x510 SWAP3 SWAP2 SWAP1 PUSH2 0x11C1 JUMP JUMPDEST PUSH1 0x20 PUSH1 0x40 MLOAD DUP1 DUP4 SUB DUP2 PUSH1 0x0 DUP8 GAS CALL ISZERO DUP1 ISZERO PUSH2 0x52F JUMPI RETURNDATASIZE PUSH1 0x0 DUP1 RETURNDATACOPY RETURNDATASIZE PUSH1 0x0 REVERT JUMPDEST POP POP POP POP PUSH1 0x40 MLOAD RETURNDATASIZE PUSH1 0x1F NOT PUSH1 0x1F DUP3 ADD AND DUP3 ADD DUP1 PUSH1 0x40 MSTORE POP DUP2 ADD SWAP1 PUSH2 0x553 SWAP2 SWAP1 PUSH2 0x1222 JUMP JUMPDEST POP PUSH2 0x594 JUMP JUMPDEST PUSH1 0x40 MLOAD PUSH32 0x8C379A000000000000000000000000000000000000000000000000000000000 DUP2 MSTORE PUSH1 0x4 ADD PUSH2 0x58B SWAP1 PUSH2 0x12C1 JUMP JUMPDEST PUSH1 0x40 MLOAD DUP1 SWAP2 SUB SWAP1 REVERT JUMPDEST JUMPDEST JUMPDEST POP POP POP POP POP JUMP JUMPDEST PUSH1 0x0 PUSH20 0xFFFFFFFFFFFFFFFFFFFFFFFFFFFFFFFFFFFFFFFF AND CALLER PUSH20 0xFFFFFFFFFFFFFFFFFFFFFFFFFFFFFFFFFFFFFFFF AND SUB PUSH2 0x603 JUMPI PUSH1 0x40 MLOAD PUSH32 0x7A795C5600000000000000000000000000000000000000000000000000000000 DUP2 MSTORE PUSH1 0x4 ADD PUSH1 0x40 MLOAD DUP1 SWAP2 SUB SWAP1 REVERT JUMPDEST PUSH1 0x3 PUSH1 0x0 SWAP1 SLOAD SWAP1 PUSH2 0x100 EXP SWAP1 DIV PUSH20 0xFFFFFFFFFFFFFFFFFFFFFFFFFFFFFFFFFFFFFFFF AND PUSH20 0xFFFFFFFFFFFFFFFFFFFFFFFFFFFFFFFFFFFFFFFF AND CALLER PUSH20 0xFFFFFFFFFFFFFFFFFFFFFFFFFFFFFFFFFFFFFFFF AND EQ PUSH2 0x68A JUMPI PUSH1 0x40 MLOAD PUSH32 0x6810116800000000000000000000000000000000000000000000000000000000 DUP2 MSTORE PUSH1 0x4 ADD PUSH1 0x40 MLOAD DUP1 SWAP2 SUB SWAP1 REVERT JUMPDEST PUSH1 0x0 DUP7 MLOAD SWAP1 POP PUSH1 0x0 DUP8 MLOAD SUB PUSH2 0x6CB JUMPI PUSH1 0x40 MLOAD PUSH32 0x28539E8C00000000000000000000000000000000000000000000000000000000 DUP2 MSTORE PUSH1 0x4 ADD PUSH1 0x40 MLOAD DUP1 SWAP2 SUB SWAP1 REVERT JUMPDEST DUP6 MLOAD DUP2 EQ ISZERO DUP1 PUSH2 0x6DC JUMPI POP DUP5 MLOAD DUP2 EQ ISZERO JUMPDEST DUP1 PUSH2 0x6E8 JUMPI POP DUP4 MLOAD DUP2 EQ ISZERO JUMPDEST ISZERO PUSH2 0x71F JUMPI PUSH1 0x40 MLOAD PUSH32 0x47C48A1600000000000000000000000000000000000000000000000000000000 DUP2 MSTORE PUSH1 0x4 ADD PUSH1 0x40 MLOAD DUP1 SWAP2 SUB SWAP1 REVERT JUMPDEST PUSH1 0x0 DUP4 MLOAD SUB PUSH2 0x75A JUMPI PUSH1 0x40 MLOAD PUSH32 0xD1FE3E0C00000000000000000000000000000000000000000000000000000000 DUP2 MSTORE PUSH1 0x4 ADD PUSH1 0x40 MLOAD DUP1 SWAP2 SUB SWAP1 REVERT JUMPDEST PUSH1 0x0 DUP3 SUB PUSH2 0x794 JUMPI PUSH1 0x40 MLOAD PUSH32 0x6B19089700000000000000000000000000000000000000000000000000000000 DUP2 MSTORE PUSH1 0x4 ADD PUSH1 0x40 MLOAD DUP1 SWAP2 SUB SWAP1 REVERT JUMPDEST PUSH1 0x0 PUSH1 0x40 MLOAD DUP1 PUSH1 0xC0 ADD PUSH1 0x40 MSTORE DUP1 DUP10 DUP2 MSTORE PUSH1 0x20 ADD DUP9 DUP2 MSTORE PUSH1 0x20 ADD DUP8 DUP2 MSTORE PUSH1 0x20 ADD DUP7 DUP2 MSTORE PUSH1 0x20 ADD DUP6 DUP2 MSTORE PUSH1 0x20 ADD DUP5 DUP2 MSTORE POP SWAP1 POP PUSH1 0x0 PUSH1 0x2 PUSH1 0x0 CALLER PUSH20 0xFFFFFFFFFFFFFFFFFFFFFFFFFFFFFFFFFFFFFFFF AND PUSH20 0xFFFFFFFFFFFFFFFFFFFFFFFFFFFFFFFFFFFFFFFF AND DUP2 MSTORE PUSH1 0x20 ADD SWAP1 DUP2 MSTORE PUSH1 0x20 ADD PUSH1 0x0 KECCAK256 SLOAD SWAP1 POP DUP2 PUSH1 0x1 PUSH1 0x0 CALLER PUSH20 0xFFFFFFFFFFFFFFFFFFFFFFFFFFFFFFFFFFFFFFFF AND PUSH20 0xFFFFFFFFFFFFFFFFFFFFFFFFFFFFFFFFFFFFFFFF AND DUP2 MSTORE PUSH1 0x20 ADD SWAP1 DUP2 MSTORE PUSH1 0x20 ADD PUSH1 0x0 KECCAK256 PUSH1 0x0 DUP4 DUP2 MSTORE PUSH1 0x20 ADD SWAP1 DUP2 MSTORE PUSH1 0x20 ADD PUSH1 0x0 KECCAK256 PUSH1 0x0 DUP3 ADD MLOAD DUP2 PUSH1 0x0 ADD SWAP1 DUP1 MLOAD SWAP1 PUSH1 0x20 ADD SWAP1 PUSH2 0x876 SWAP3 SWAP2 SWAP1 PUSH2 0x994 JUMP JUMPDEST POP PUSH1 0x20 DUP3 ADD MLOAD DUP2 PUSH1 0x1 ADD SWAP1 DUP1 MLOAD SWAP1 PUSH1 0x20 ADD SWAP1 PUSH2 0x893 SWAP3 SWAP2 SWAP1 PUSH2 0xA1E JUMP JUMPDEST POP PUSH1 0x40 DUP3 ADD MLOAD DUP2 PUSH1 0x2 ADD SWAP1 DUP1 MLOAD SWAP1 PUSH1 0x20 ADD SWAP1 PUSH2 0x8B0 SWAP3 SWAP2 SWAP1 PUSH2 0xA1E JUMP JUMPDEST POP PUSH1 0x60 DUP3 ADD MLOAD DUP2 PUSH1 0x3 ADD SWAP1 DUP1 MLOAD SWAP1 PUSH1 0x20 ADD SWAP1 PUSH2 0x8CD SWAP3 SWAP2 SWAP1 PUSH2 0xA1E JUMP JUMPDEST POP PUSH1 0x80 DUP3 ADD MLOAD DUP2 PUSH1 0x4 ADD SWAP1 DUP2 PUSH2 0x8E3 SWAP2 SWAP1 PUSH2 0x148D JUMP JUMPDEST POP PUSH1 0xA0 DUP3 ADD MLOAD DUP2 PUSH1 0x5 ADD SSTORE SWAP1 POP POP PUSH1 0x2 PUSH1 0x0 CALLER PUSH20 0xFFFFFFFFFFFFFFFFFFFFFFFFFFFFFFFFFFFFFFFF AND PUSH20 0xFFFFFFFFFFFFFFFFFFFFFFFFFFFFFFFFFFFFFFFF AND DUP2 MSTORE PUSH1 0x20 ADD SWAP1 DUP2 MSTORE PUSH1 0x20 ADD PUSH1 0x0 KECCAK256 PUSH1 0x0 DUP2 SLOAD DUP1 SWAP3 SWAP2 SWAP1 PUSH2 0x941 SWAP1 PUSH2 0x158E JUMP JUMPDEST SWAP2 SWAP1 POP SSTORE POP CALLER PUSH20 0xFFFFFFFFFFFFFFFFFFFFFFFFFFFFFFFFFFFFFFFF AND PUSH32 0x2FFC1D5319C537FD92B356C1F118D1DBED93DE3F439D2F869FE6893E8E5D27BD PUSH1 0x40 MLOAD PUSH1 0x40 MLOAD DUP1 SWAP2 SUB SWAP1 LOG2 POP POP POP POP POP POP POP POP POP JUMP JUMPDEST DUP3 DUP1 SLOAD DUP3 DUP3 SSTORE SWAP1 PUSH1 0x0 MSTORE PUSH1 0x20 PUSH1 0x0 KECCAK256 SWAP1 DUP2 ADD SWAP3 DUP3 ISZERO PUSH2 0xA0D JUMPI SWAP2 PUSH1 0x20 MUL DUP3 ADD JUMPDEST DUP3 DUP2 GT ISZERO PUSH2 0xA0C JUMPI DUP3 MLOAD DUP3 PUSH1 0x0 PUSH2 0x100 EXP DUP2 SLOAD DUP2 PUSH20 0xFFFFFFFFFFFFFFFFFFFFFFFFFFFFFFFFFFFFFFFF MUL NOT AND SWAP1 DUP4 PUSH20 0xFFFFFFFFFFFFFFFFFFFFFFFFFFFFFFFFFFFFFFFF AND MUL OR SWAP1 SSTORE POP SWAP2 PUSH1 0x20 ADD SWAP2 SWAP1 PUSH1 0x1 ADD SWAP1 PUSH2 0x9B4 JUMP JUMPDEST JUMPDEST POP SWAP1 POP PUSH2 0xA1A SWAP2 SWAP1 PUSH2 0xA6B JUMP JUMPDEST POP SWAP1 JUMP JUMPDEST DUP3 DUP1 SLOAD DUP3 DUP3 SSTORE SWAP1 PUSH1 0x0 MSTORE PUSH1 0x20 PUSH1 0x0 KECCAK256 SWAP1 DUP2 ADD SWAP3 DUP3 ISZERO PUSH2 0xA5A JUMPI SWAP2 PUSH1 0x20 MUL DUP3 ADD JUMPDEST DUP3 DUP2 GT ISZERO PUSH2 0xA59 JUMPI DUP3 MLOAD DUP3 SSTORE SWAP2 PUSH1 0x20 ADD SWAP2 SWAP1 PUSH1 0x1 ADD SWAP1 PUSH2 0xA3E JUMP JUMPDEST JUMPDEST POP SWAP1 POP PUSH2 0xA67 SWAP2 SWAP1 PUSH2 0xA6B JUMP JUMPDEST POP SWAP1 JUMP JUMPDEST JUMPDEST DUP1 DUP3 GT ISZERO PUSH2 0xA84 JUMPI PUSH1 0x0 DUP2 PUSH1 0x0 SWAP1 SSTORE POP PUSH1 0x1 ADD PUSH2 0xA6C JUMP JUMPDEST POP SWAP1 JUMP JUMPDEST PUSH1 0x0 PUSH1 0x40 MLOAD SWAP1 POP SWAP1 JUMP JUMPDEST PUSH1 0x0 DUP1 REVERT JUMPDEST PUSH1 0x0 DUP1 REVERT JUMPDEST PUSH1 0x0 PUSH20 0xFFFFFFFFFFFFFFFFFFFFFFFFFFFFFFFFFFFFFFFF DUP3 AND SWAP1 POP SWAP2 SWAP1 POP JUMP JUMPDEST PUSH1 0x0 PUSH2 0xAC7 DUP3 PUSH2 0xA9C JUMP JUMPDEST SWAP1 POP SWAP2 SWAP1 POP JUMP JUMPDEST PUSH2 0xAD7 DUP2 PUSH2 0xABC JUMP JUMPDEST DUP2 EQ PUSH2 0xAE2 JUMPI PUSH1 0x0 DUP1 REVERT JUMPDEST POP JUMP JUMPDEST PUSH1 0x0 DUP2 CALLDATALOAD SWAP1 POP PUSH2 0xAF4 DUP2 PUSH2 0xACE JUMP JUMPDEST SWAP3 SWAP2 POP POP JUMP JUMPDEST PUSH1 0x0 DUP2 SWAP1 POP SWAP2 SWAP1 POP JUMP JUMPDEST PUSH2 0xB0D DUP2 PUSH2 0xAFA JUMP JUMPDEST DUP2 EQ PUSH2 0xB18 JUMPI PUSH1 0x0 DUP1 REVERT JUMPDEST POP JUMP JUMPDEST PUSH1 0x0 DUP2 CALLDATALOAD SWAP1 POP PUSH2 0xB2A DUP2 PUSH2 0xB04 JUMP JUMPDEST SWAP3 SWAP2 POP POP JUMP JUMPDEST PUSH1 0x0 DUP1 PUSH1 0x40 DUP4 DUP6 SUB SLT ISZERO PUSH2 0xB47 JUMPI PUSH2 0xB46 PUSH2 0xA92 JUMP JUMPDEST JUMPDEST PUSH1 0x0 PUSH2 0xB55 DUP6 DUP3 DUP7 ADD PUSH2 0xAE5 JUMP JUMPDEST SWAP3 POP POP PUSH1 0x20 PUSH2 0xB66 DUP6 DUP3 DUP7 ADD PUSH2 0xB1B JUMP JUMPDEST SWAP2 POP POP SWAP3 POP SWAP3 SWAP1 POP JUMP JUMPDEST PUSH1 0x0 DUP2 MLOAD SWAP1 POP SWAP2 SWAP1 POP JUMP JUMPDEST PUSH1 0x0 DUP3 DUP3 MSTORE PUSH1 0x20 DUP3 ADD SWAP1 POP SWAP3 SWAP2 POP POP JUMP JUMPDEST PUSH1 0x0 JUMPDEST DUP4 DUP2 LT ISZERO PUSH2 0xBAA JUMPI DUP1 DUP3 ADD MLOAD DUP2 DUP5 ADD MSTORE PUSH1 0x20 DUP2 ADD SWAP1 POP PUSH2 0xB8F JUMP JUMPDEST PUSH1 0x0 DUP5 DUP5 ADD MSTORE POP POP POP POP JUMP JUMPDEST PUSH1 0x0 PUSH1 0x1F NOT PUSH1 0x1F DUP4 ADD AND SWAP1 POP SWAP2 SWAP1 POP JUMP JUMPDEST PUSH1 0x0 PUSH2 0xBD2 DUP3 PUSH2 0xB70 JUMP JUMPDEST PUSH2 0xBDC DUP2 DUP6 PUSH2 0xB7B JUMP JUMPDEST SWAP4 POP PUSH2 0xBEC DUP2 DUP6 PUSH1 0x20 DUP7 ADD PUSH2 0xB8C JUMP JUMPDEST PUSH2 0xBF5 DUP2 PUSH2 0xBB6 JUMP JUMPDEST DUP5 ADD SWAP2 POP POP SWAP3 SWAP2 POP POP JUMP JUMPDEST PUSH2 0xC09 DUP2 PUSH2 0xAFA JUMP JUMPDEST DUP3 MSTORE POP POP JUMP JUMPDEST PUSH1 0x0 PUSH1 0x40 DUP3 ADD SWAP1 POP DUP2 DUP2 SUB PUSH1 0x0 DUP4 ADD MSTORE PUSH2 0xC29 DUP2 DUP6 PUSH2 0xBC7 JUMP JUMPDEST SWAP1 POP PUSH2 0xC38 PUSH1 0x20 DUP4 ADD DUP5 PUSH2 0xC00 JUMP JUMPDEST SWAP4 SWAP3 POP POP POP JUMP JUMPDEST PUSH1 0x0 PUSH1 0x20 DUP3 DUP5 SUB SLT ISZERO PUSH2 0xC55 JUMPI PUSH2 0xC54 PUSH2 0xA92 JUMP JUMPDEST JUMPDEST PUSH1 0x0 PUSH2 0xC63 DUP5 DUP3 DUP6 ADD PUSH2 0xB1B JUMP JUMPDEST SWAP2 POP POP SWAP3 SWAP2 POP POP JUMP JUMPDEST PUSH2 0xC75 DUP2 PUSH2 0xABC JUMP JUMPDEST DUP3 MSTORE POP POP JUMP JUMPDEST PUSH1 0x0 PUSH1 0x20 DUP3 ADD SWAP1 POP PUSH2 0xC90 PUSH1 0x0 DUP4 ADD DUP5 PUSH2 0xC6C JUMP JUMPDEST SWAP3 SWAP2 POP POP JUMP JUMPDEST PUSH1 0x0 PUSH1 0x20 DUP3 DUP5 SUB SLT ISZERO PUSH2 0xCAC JUMPI PUSH2 0xCAB PUSH2 0xA92 JUMP JUMPDEST JUMPDEST PUSH1 0x0 PUSH2 0xCBA DUP5 DUP3 DUP6 ADD PUSH2 0xAE5 JUMP JUMPDEST SWAP2 POP POP SWAP3 SWAP2 POP POP JUMP JUMPDEST PUSH1 0x0 PUSH1 0x20 DUP3 ADD SWAP1 POP PUSH2 0xCD8 PUSH1 0x0 DUP4 ADD DUP5 PUSH2 0xC00 JUMP JUMPDEST SWAP3 SWAP2 POP POP JUMP JUMPDEST PUSH1 0x0 DUP1 PUSH1 0x0 DUP1 PUSH1 0x0 PUSH1 0xA0 DUP7 DUP9 SUB SLT ISZERO PUSH2 0xCFA JUMPI PUSH2 0xCF9 PUSH2 0xA92 JUMP JUMPDEST JUMPDEST PUSH1 0x0 PUSH2 0xD08 DUP9 DUP3 DUP10 ADD PUSH2 0xB1B JUMP JUMPDEST SWAP6 POP POP PUSH1 0x20 PUSH2 0xD19 DUP9 DUP3 DUP10 ADD PUSH2 0xB1B JUMP JUMPDEST SWAP5 POP POP PUSH1 0x40 PUSH2 0xD2A DUP9 DUP3 DUP10 ADD PUSH2 0xB1B JUMP JUMPDEST SWAP4 POP POP PUSH1 0x60 PUSH2 0xD3B DUP9 DUP3 DUP10 ADD PUSH2 0xB1B JUMP JUMPDEST SWAP3 POP POP PUSH1 0x80 PUSH2 0xD4C DUP9 DUP3 DUP10 ADD PUSH2 0xB1B JUMP JUMPDEST SWAP2 POP POP SWAP3 SWAP6 POP SWAP3 SWAP6 SWAP1 SWAP4 POP JUMP JUMPDEST PUSH1 0x0 DUP1 REVERT JUMPDEST PUSH32 0x4E487B7100000000000000000000000000000000000000000000000000000000 PUSH1 0x0 MSTORE PUSH1 0x41 PUSH1 0x4 MSTORE PUSH1 0x24 PUSH1 0x0 REVERT JUMPDEST PUSH2 0xD96 DUP3 PUSH2 0xBB6 JUMP JUMPDEST DUP2 ADD DUP2 DUP2 LT PUSH8 0xFFFFFFFFFFFFFFFF DUP3 GT OR ISZERO PUSH2 0xDB5 JUMPI PUSH2 0xDB4 PUSH2 0xD5E JUMP JUMPDEST JUMPDEST DUP1 PUSH1 0x40 MSTORE POP POP POP JUMP JUMPDEST PUSH1 0x0 PUSH2 0xDC8 PUSH2 0xA88 JUMP JUMPDEST SWAP1 POP PUSH2 0xDD4 DUP3 DUP3 PUSH2 0xD8D JUMP JUMPDEST SWAP2 SWAP1 POP JUMP JUMPDEST PUSH1 0x0 PUSH8 0xFFFFFFFFFFFFFFFF DUP3 GT ISZERO PUSH2 0xDF4 JUMPI PUSH2 0xDF3 PUSH2 0xD5E JUMP JUMPDEST JUMPDEST PUSH1 0x20 DUP3 MUL SWAP1 POP PUSH1 0x20 DUP2 ADD SWAP1 POP SWAP2 SWAP1 POP JUMP JUMPDEST PUSH1 0x0 DUP1 REVERT JUMPDEST PUSH1 0x0 PUSH2 0xE1D PUSH2 0xE18 DUP5 PUSH2 0xDD9 JUMP JUMPDEST PUSH2 0xDBE JUMP JUMPDEST SWAP1 POP DUP1 DUP4 DUP3 MSTORE PUSH1 0x20 DUP3 ADD SWAP1 POP PUSH1 0x20 DUP5 MUL DUP4 ADD DUP6 DUP2 GT ISZERO PUSH2 0xE40 JUMPI PUSH2 0xE3F PUSH2 0xE05 JUMP JUMPDEST JUMPDEST DUP4 JUMPDEST DUP2 DUP2 LT ISZERO PUSH2 0xE69 JUMPI DUP1 PUSH2 0xE55 DUP9 DUP3 PUSH2 0xAE5 JUMP JUMPDEST DUP5 MSTORE PUSH1 0x20 DUP5 ADD SWAP4 POP POP PUSH1 0x20 DUP2 ADD SWAP1 POP PUSH2 0xE42 JUMP JUMPDEST POP POP POP SWAP4 SWAP3 POP POP POP JUMP JUMPDEST PUSH1 0x0 DUP3 PUSH1 0x1F DUP4 ADD SLT PUSH2 0xE88 JUMPI PUSH2 0xE87 PUSH2 0xD59 JUMP JUMPDEST JUMPDEST DUP2 CALLDATALOAD PUSH2 0xE98 DUP5 DUP3 PUSH1 0x20 DUP7 ADD PUSH2 0xE0A JUMP JUMPDEST SWAP2 POP POP SWAP3 SWAP2 POP POP JUMP JUMPDEST PUSH1 0x0 PUSH8 0xFFFFFFFFFFFFFFFF DUP3 GT ISZERO PUSH2 0xEBC JUMPI PUSH2 0xEBB PUSH2 0xD5E JUMP JUMPDEST JUMPDEST PUSH1 0x20 DUP3 MUL SWAP1 POP PUSH1 0x20 DUP2 ADD SWAP1 POP SWAP2 SWAP1 POP JUMP JUMPDEST PUSH1 0x0 PUSH2 0xEE0 PUSH2 0xEDB DUP5 PUSH2 0xEA1 JUMP JUMPDEST PUSH2 0xDBE JUMP JUMPDEST SWAP1 POP DUP1 DUP4 DUP3 MSTORE PUSH1 0x20 DUP3 ADD SWAP1 POP PUSH1 0x20 DUP5 MUL DUP4 ADD DUP6 DUP2 GT ISZERO PUSH2 0xF03 JUMPI PUSH2 0xF02 PUSH2 0xE05 JUMP JUMPDEST JUMPDEST DUP4 JUMPDEST DUP2 DUP2 LT ISZERO PUSH2 0xF2C JUMPI DUP1 PUSH2 0xF18 DUP9 DUP3 PUSH2 0xB1B JUMP JUMPDEST DUP5 MSTORE PUSH1 0x20 DUP5 ADD SWAP4 POP POP PUSH1 0x20 DUP2 ADD SWAP1 POP PUSH2 0xF05 JUMP JUMPDEST POP POP POP SWAP4 SWAP3 POP POP POP JUMP JUMPDEST PUSH1 0x0 DUP3 PUSH1 0x1F DUP4 ADD SLT PUSH2 0xF4B JUMPI PUSH2 0xF4A PUSH2 0xD59 JUMP JUMPDEST JUMPDEST DUP2 CALLDATALOAD PUSH2 0xF5B DUP5 DUP3 PUSH1 0x20 DUP7 ADD PUSH2 0xECD JUMP JUMPDEST SWAP2 POP POP SWAP3 SWAP2 POP POP JUMP JUMPDEST PUSH1 0x0 DUP1 REVERT JUMPDEST PUSH1 0x0 PUSH8 0xFFFFFFFFFFFFFFFF DUP3 GT ISZERO PUSH2 0xF84 JUMPI PUSH2 0xF83 PUSH2 0xD5E JUMP JUMPDEST JUMPDEST PUSH2 0xF8D DUP3 PUSH2 0xBB6 JUMP JUMPDEST SWAP1 POP PUSH1 0x20 DUP2 ADD SWAP1 POP SWAP2 SWAP1 POP JUMP JUMPDEST DUP3 DUP2 DUP4 CALLDATACOPY PUSH1 0x0 DUP4 DUP4 ADD MSTORE POP POP POP JUMP JUMPDEST PUSH1 0x0 PUSH2 0xFBC PUSH2 0xFB7 DUP5 PUSH2 0xF69 JUMP JUMPDEST PUSH2 0xDBE JUMP JUMPDEST SWAP1 POP DUP3 DUP2 MSTORE PUSH1 0x20 DUP2 ADD DUP5 DUP5 DUP5 ADD GT ISZERO PUSH2 0xFD8 JUMPI PUSH2 0xFD7 PUSH2 0xF64 JUMP JUMPDEST JUMPDEST PUSH2 0xFE3 DUP5 DUP3 DUP6 PUSH2 0xF9A JUMP JUMPDEST POP SWAP4 SWAP3 POP POP POP JUMP JUMPDEST PUSH1 0x0 DUP3 PUSH1 0x1F DUP4 ADD SLT PUSH2 0x1000 JUMPI PUSH2 0xFFF PUSH2 0xD59 JUMP JUMPDEST JUMPDEST DUP2 CALLDATALOAD PUSH2 0x1010 DUP5 DUP3 PUSH1 0x20 DUP7 ADD PUSH2 0xFA9 JUMP JUMPDEST SWAP2 POP POP SWAP3 SWAP2 POP POP JUMP JUMPDEST PUSH1 0x0 DUP1 PUSH1 0x0 DUP1 PUSH1 0x0 DUP1 PUSH1 0xC0 DUP8 DUP10 SUB SLT ISZERO PUSH2 0x1036 JUMPI PUSH2 0x1035 PUSH2 0xA92 JUMP JUMPDEST JUMPDEST PUSH1 0x0 DUP8 ADD CALLDATALOAD PUSH8 0xFFFFFFFFFFFFFFFF DUP2 GT ISZERO PUSH2 0x1054 JUMPI PUSH2 0x1053 PUSH2 0xA97 JUMP JUMPDEST JUMPDEST PUSH2 0x1060 DUP10 DUP3 DUP11 ADD PUSH2 0xE73 JUMP JUMPDEST SWAP7 POP POP PUSH1 0x20 DUP8 ADD CALLDATALOAD PUSH8 0xFFFFFFFFFFFFFFFF DUP2 GT ISZERO PUSH2 0x1081 JUMPI PUSH2 0x1080 PUSH2 0xA97 JUMP JUMPDEST JUMPDEST PUSH2 0x108D DUP10 DUP3 DUP11 ADD PUSH2 0xF36 JUMP JUMPDEST SWAP6 POP POP PUSH1 0x40 DUP8 ADD CALLDATALOAD PUSH8 0xFFFFFFFFFFFFFFFF DUP2 GT ISZERO PUSH2 0x10AE JUMPI PUSH2 0x10AD PUSH2 0xA97 JUMP JUMPDEST JUMPDEST PUSH2 0x10BA DUP10 DUP3 DUP11 ADD PUSH2 0xF36 JUMP JUMPDEST SWAP5 POP POP PUSH1 0x60 DUP8 ADD CALLDATALOAD PUSH8 0xFFFFFFFFFFFFFFFF DUP2 GT ISZERO PUSH2 0x10DB JUMPI PUSH2 0x10DA PUSH2 0xA97 JUMP JUMPDEST JUMPDEST PUSH2 0x10E7 DUP10 DUP3 DUP11 ADD PUSH2 0xF36 JUMP JUMPDEST SWAP4 POP POP PUSH1 0x80 DUP8 ADD CALLDATALOAD PUSH8 0xFFFFFFFFFFFFFFFF DUP2 GT ISZERO PUSH2 0x1108 JUMPI PUSH2 0x1107 PUSH2 0xA97 JUMP JUMPDEST JUMPDEST PUSH2 0x1114 DUP10 DUP3 DUP11 ADD PUSH2 0xFEB JUMP JUMPDEST SWAP3 POP POP PUSH1 0xA0 PUSH2 0x1125 DUP10 DUP3 DUP11 ADD PUSH2 0xB1B JUMP JUMPDEST SWAP2 POP POP SWAP3 SWAP6 POP SWAP3 SWAP6 POP SWAP3 SWAP6 JUMP JUMPDEST PUSH32 0x4E487B7100000000000000000000000000000000000000000000000000000000 PUSH1 0x0 MSTORE PUSH1 0x22 PUSH1 0x4 MSTORE PUSH1 0x24 PUSH1 0x0 REVERT JUMPDEST PUSH1 0x0 PUSH1 0x2 DUP3 DIV SWAP1 POP PUSH1 0x1 DUP3 AND DUP1 PUSH2 0x1179 JUMPI PUSH1 0x7F DUP3 AND SWAP2 POP JUMPDEST PUSH1 0x20 DUP3 LT DUP2 SUB PUSH2 0x118C JUMPI PUSH2 0x118B PUSH2 0x1132 JUMP JUMPDEST JUMPDEST POP SWAP2 SWAP1 POP JUMP JUMPDEST PUSH32 0x4E487B7100000000000000000000000000000000000000000000000000000000 PUSH1 0x0 MSTORE PUSH1 0x21 PUSH1 0x4 MSTORE PUSH1 0x24 PUSH1 0x0 REVERT JUMPDEST PUSH1 0x0 PUSH1 0x40 DUP3 ADD SWAP1 POP PUSH2 0x11D6 PUSH1 0x0 DUP4 ADD DUP6 PUSH2 0xC6C JUMP JUMPDEST PUSH2 0x11E3 PUSH1 0x20 DUP4 ADD DUP5 PUSH2 0xC00 JUMP JUMPDEST SWAP4 SWAP3 POP POP POP JUMP JUMPDEST PUSH1 0x0 DUP2 ISZERO ISZERO SWAP1 POP SWAP2 SWAP1 POP JUMP JUMPDEST PUSH2 0x11FF DUP2 PUSH2 0x11EA JUMP JUMPDEST DUP2 EQ PUSH2 0x120A JUMPI PUSH1 0x0 DUP1 REVERT JUMPDEST POP JUMP JUMPDEST PUSH1 0x0 DUP2 MLOAD SWAP1 POP PUSH2 0x121C DUP2 PUSH2 0x11F6 JUMP JUMPDEST SWAP3 SWAP2 POP POP JUMP JUMPDEST PUSH1 0x0 PUSH1 0x20 DUP3 DUP5 SUB SLT ISZERO PUSH2 0x1238 JUMPI PUSH2 0x1237 PUSH2 0xA92 JUMP JUMPDEST JUMPDEST PUSH1 0x0 PUSH2 0x1246 DUP5 DUP3 DUP6 ADD PUSH2 0x120D JUMP JUMPDEST SWAP2 POP POP SWAP3 SWAP2 POP POP JUMP JUMPDEST PUSH32 0x4D696C6573746F6E65206E6F7420636F6D706C65746564206F7220696E76616C PUSH1 0x0 DUP3 ADD MSTORE PUSH32 0x6964000000000000000000000000000000000000000000000000000000000000 PUSH1 0x20 DUP3 ADD MSTORE POP JUMP JUMPDEST PUSH1 0x0 PUSH2 0x12AB PUSH1 0x22 DUP4 PUSH2 0xB7B JUMP JUMPDEST SWAP2 POP PUSH2 0x12B6 DUP3 PUSH2 0x124F JUMP JUMPDEST PUSH1 0x40 DUP3 ADD SWAP1 POP SWAP2 SWAP1 POP JUMP JUMPDEST PUSH1 0x0 PUSH1 0x20 DUP3 ADD SWAP1 POP DUP2 DUP2 SUB PUSH1 0x0 DUP4 ADD MSTORE PUSH2 0x12DA DUP2 PUSH2 0x129E JUMP JUMPDEST SWAP1 POP SWAP2 SWAP1 POP JUMP JUMPDEST PUSH1 0x0 DUP2 SWAP1 POP DUP2 PUSH1 0x0 MSTORE PUSH1 0x20 PUSH1 0x0 KECCAK256 SWAP1 POP SWAP2 SWAP1 POP JUMP JUMPDEST PUSH1 0x0 PUSH1 0x20 PUSH1 0x1F DUP4 ADD DIV SWAP1 POP SWAP2 SWAP1 POP JUMP JUMPDEST PUSH1 0x0 DUP3 DUP3 SHL SWAP1 POP SWAP3 SWAP2 POP POP JUMP JUMPDEST PUSH1 0x0 PUSH1 0x8 DUP4 MUL PUSH2 0x1343 PUSH32 0xFFFFFFFFFFFFFFFFFFFFFFFFFFFFFFFFFFFFFFFFFFFFFFFFFFFFFFFFFFFFFFFF DUP3 PUSH2 0x1306 JUMP JUMPDEST PUSH2 0x134D DUP7 DUP4 PUSH2 0x1306 JUMP JUMPDEST SWAP6 POP DUP1 NOT DUP5 AND SWAP4 POP DUP1 DUP7 AND DUP5 OR SWAP3 POP POP POP SWAP4 SWAP3 POP POP POP JUMP JUMPDEST PUSH1 0x0 DUP2 SWAP1 POP SWAP2 SWAP1 POP JUMP JUMPDEST PUSH1 0x0 PUSH2 0x138A PUSH2 0x1385 PUSH2 0x1380 DUP5 PUSH2 0xAFA JUMP JUMPDEST PUSH2 0x1365 JUMP JUMPDEST PUSH2 0xAFA JUMP JUMPDEST SWAP1 POP SWAP2 SWAP1 POP JUMP JUMPDEST PUSH1 0x0 DUP2 SWAP1 POP SWAP2 SWAP1 POP JUMP JUMPDEST PUSH2 0x13A4 DUP4 PUSH2 0x136F JUMP JUMPDEST PUSH2 0x13B8 PUSH2 0x13B0 DUP3 PUSH2 0x1391 JUMP JUMPDEST DUP5 DUP5 SLOAD PUSH2 0x1313 JUMP JUMPDEST DUP3 SSTORE POP POP POP POP JUMP JUMPDEST PUSH1 0x0 SWAP1 JUMP JUMPDEST PUSH2 0x13CD PUSH2 0x13C0 JUMP JUMPDEST PUSH2 0x13D8 DUP2 DUP5 DUP5 PUSH2 0x139B JUMP JUMPDEST POP POP POP JUMP JUMPDEST JUMPDEST DUP2 DUP2 LT ISZERO PUSH2 0x13FC JUMPI PUSH2 0x13F1 PUSH1 0x0 DUP3 PUSH2 0x13C5 JUMP JUMPDEST PUSH1 0x1 DUP2 ADD SWAP1 POP PUSH2 0x13DE JUMP JUMPDEST POP POP JUMP JUMPDEST PUSH1 0x1F DUP3 GT ISZERO PUSH2 0x1441 JUMPI PUSH2 0x1412 DUP2 PUSH2 0x12E1 JUMP JUMPDEST PUSH2 0x141B DUP5 PUSH2 0x12F6 JUMP JUMPDEST DUP2 ADD PUSH1 0x20 DUP6 LT ISZERO PUSH2 0x142A JUMPI DUP2 SWAP1 POP JUMPDEST PUSH2 0x143E PUSH2 0x1436 DUP6 PUSH2 0x12F6 JUMP JUMPDEST DUP4 ADD DUP3 PUSH2 0x13DD JUMP JUMPDEST POP POP JUMPDEST POP POP POP JUMP JUMPDEST PUSH1 0x0 DUP3 DUP3 SHR SWAP1 POP SWAP3 SWAP2 POP POP JUMP JUMPDEST PUSH1 0x0 PUSH2 0x1464 PUSH1 0x0 NOT DUP5 PUSH1 0x8 MUL PUSH2 0x1446 JUMP JUMPDEST NOT DUP1 DUP4 AND SWAP2 POP POP SWAP3 SWAP2 POP POP JUMP JUMPDEST PUSH1 0x0 PUSH2 0x147D DUP4 DUP4 PUSH2 0x1453 JUMP JUMPDEST SWAP2 POP DUP3 PUSH1 0x2 MUL DUP3 OR SWAP1 POP SWAP3 SWAP2 POP POP JUMP JUMPDEST PUSH2 0x1496 DUP3 PUSH2 0xB70 JUMP JUMPDEST PUSH8 0xFFFFFFFFFFFFFFFF DUP2 GT ISZERO PUSH2 0x14AF JUMPI PUSH2 0x14AE PUSH2 0xD5E JUMP JUMPDEST JUMPDEST PUSH2 0x14B9 DUP3 SLOAD PUSH2 0x1161 JUMP JUMPDEST PUSH2 0x14C4 DUP3 DUP3 DUP6 PUSH2 0x1400 JUMP JUMPDEST PUSH1 0x0 PUSH1 0x20 SWAP1 POP PUSH1 0x1F DUP4 GT PUSH1 0x1 DUP2 EQ PUSH2 0x14F7 JUMPI PUSH1 0x0 DUP5 ISZERO PUSH2 0x14E5 JUMPI DUP3 DUP8 ADD MLOAD SWAP1 POP JUMPDEST PUSH2 0x14EF DUP6 DUP3 PUSH2 0x1471 JUMP JUMPDEST DUP7 SSTORE POP PUSH2 0x1557 JUMP JUMPDEST PUSH1 0x1F NOT DUP5 AND PUSH2 0x1505 DUP7 PUSH2 0x12E1 JUMP JUMPDEST PUSH1 0x0 JUMPDEST DUP3 DUP2 LT ISZERO PUSH2 0x152D JUMPI DUP5 DUP10 ADD MLOAD DUP3 SSTORE PUSH1 0x1 DUP3 ADD SWAP2 POP PUSH1 0x20 DUP6 ADD SWAP5 POP PUSH1 0x20 DUP2 ADD SWAP1 POP PUSH2 0x1508 JUMP JUMPDEST DUP7 DUP4 LT ISZERO PUSH2 0x154A JUMPI DUP5 DUP10 ADD MLOAD PUSH2 0x1546 PUSH1 0x1F DUP10 AND DUP3 PUSH2 0x1453 JUMP JUMPDEST DUP4 SSTORE POP JUMPDEST PUSH1 0x1 PUSH1 0x2 DUP9 MUL ADD DUP9 SSTORE POP POP POP JUMPDEST POP POP POP POP POP POP JUMP JUMPDEST PUSH32 0x4E487B7100000000000000000000000000000000000000000000000000000000 PUSH1 0x0 MSTORE PUSH1 0x11 PUSH1 0x4 MSTORE PUSH1 0x24 PUSH1 0x0 REVERT JUMPDEST PUSH1 0x0 PUSH2 0x1599 DUP3 PUSH2 0xAFA JUMP JUMPDEST SWAP2 POP PUSH32 0xFFFFFFFFFFFFFFFFFFFFFFFFFFFFFFFFFFFFFFFFFFFFFFFFFFFFFFFFFFFFFFFF DUP3 SUB PUSH2 0x15CB JUMPI PUSH2 0x15CA PUSH2 0x155F JUMP JUMPDEST JUMPDEST PUSH1 0x1 DUP3 ADD SWAP1 POP SWAP2 SWAP1 POP JUMP INVALID LOG2 PUSH5 0x6970667358 0x22 SLT KECCAK256 0xCD DUP7 0xD2 PUSH29 0x5B3460FA9BCDACFB15192CED24A6D7FD4F832BC0384289CA831EA8ED64 PUSH20 0x6F6C634300081800330000000000000000000000 "
        },
        "methodIdentifiers": {
          "createMultiPartySystem(address[],uint256[],uint256[],uint256[],string,uint256)": "bb908118",
          "multipartyList(address,uint256)": "2d223bc5",
          "partyMember(uint256)": "3cdeba90",
          "releasePayment(uint256,uint256,uint256,uint256,uint256)": "9d6573d7",
          "totalMultiPartySystemCreated(address)": "592a1e27"
        }
      }
    }
  }
}