{
  "_format": "hh-sol-artifact-1",
  "contractName": "PayNVoiceFactory",
  "sourceName": "contracts/invoiceFactory.sol",
  "abi": [
    {
      "inputs": [
        {
          "internalType": "address",
          "name": "tokAddress",
          "type": "address"
        }
      ],
      "name": "createInvoice",
      "outputs": [
        {
          "internalType": "contract PayNVoice",
          "name": "newInvoice_",
          "type": "address"
        },
        {
          "internalType": "uint256",
          "name": "length_",
          "type": "uint256"
        }
      ],
      "stateMutability": "nonpayable",
      "type": "function"
    },
    {
      "inputs": [
        {
          "internalType": "uint256",
          "name": "_index",
          "type": "uint256"
        }
      ],
      "name": "getANInvoiceClone",
      "outputs": [
        {
          "internalType": "contract PayNVoice",
          "name": "",
          "type": "address"
        }
      ],
      "stateMutability": "view",
      "type": "function"
    },
    {
      "inputs": [],
      "name": "getInvoiceClones",
      "outputs": [
        {
          "internalType": "contract PayNVoice[]",
          "name": "",
          "type": "address[]"
        }
      ],
      "stateMutability": "view",
      "type": "function"
    }
  ],
  "bytecode": "0x608060405234801561001057600080fd5b506147dd806100206000396000f3fe608060405234801561001057600080fd5b50600436106100415760003560e01c806386e229b1146100465780638a374ad614610064578063b7f7852014610095575b600080fd5b61004e6100c5565b60405161005b919061037f565b60405180910390f35b61007e600480360381019061007991906103e4565b610153565b60405161008c929190610439565b60405180910390f35b6100af60048036038101906100aa919061048e565b6101fc565b6040516100bc91906104bb565b60405180910390f35b6060600080548060200260200160405190810160405280929190818152602001828054801561014957602002820191906000526020600020905b8160009054906101000a900473ffffffffffffffffffffffffffffffffffffffff1673ffffffffffffffffffffffffffffffffffffffff16815260200190600101908083116100ff575b5050505050905090565b6000808260405161016390610243565b61016d91906104e5565b604051809103906000f080158015610189573d6000803e3d6000fd5b5091506000829080600181540180825580915050600190039060005260206000200160009091909190916101000a81548173ffffffffffffffffffffffffffffffffffffffff021916908373ffffffffffffffffffffffffffffffffffffffff1602179055506000805490509050915091565b600080828154811061021157610210610500565b5b9060005260206000200160009054906101000a900473ffffffffffffffffffffffffffffffffffffffff169050919050565b614278806200053083390190565b600081519050919050565b600082825260208201905092915050565b6000819050602082019050919050565b600073ffffffffffffffffffffffffffffffffffffffff82169050919050565b6000819050919050565b60006102c26102bd6102b88461027d565b61029d565b61027d565b9050919050565b60006102d4826102a7565b9050919050565b60006102e6826102c9565b9050919050565b6102f6816102db565b82525050565b600061030883836102ed565b60208301905092915050565b6000602082019050919050565b600061032c82610251565b610336818561025c565b93506103418361026d565b8060005b8381101561037257815161035988826102fc565b975061036483610314565b925050600181019050610345565b5085935050505092915050565b600060208201905081810360008301526103998184610321565b905092915050565b600080fd5b60006103b18261027d565b9050919050565b6103c1816103a6565b81146103cc57600080fd5b50565b6000813590506103de816103b8565b92915050565b6000602082840312156103fa576103f96103a1565b5b6000610408848285016103cf565b91505092915050565b61041a816102db565b82525050565b6000819050919050565b61043381610420565b82525050565b600060408201905061044e6000830185610411565b61045b602083018461042a565b9392505050565b61046b81610420565b811461047657600080fd5b50565b60008135905061048881610462565b92915050565b6000602082840312156104a4576104a36103a1565b5b60006104b284828501610479565b91505092915050565b60006020820190506104d06000830184610411565b92915050565b6104df816103a6565b82525050565b60006020820190506104fa60008301846104d6565b92915050565b7f4e487b7100000000000000000000000000000000000000000000000000000000600052603260045260246000fdfe60806040526005600160146101000a81548160ff021916908360ff16021790555060016004553480156200003257600080fd5b506040516200427838038062004278833981810160405281019062000058919062000218565b600073ffffffffffffffffffffffffffffffffffffffff163373ffffffffffffffffffffffffffffffffffffffff1603620000bf576040517f5f252daf00000000000000000000000000000000000000000000000000000000815260040160405180910390fd5b600073ffffffffffffffffffffffffffffffffffffffff168173ffffffffffffffffffffffffffffffffffffffff160362000126576040517f5f252daf00000000000000000000000000000000000000000000000000000000815260040160405180910390fd5b336000806101000a81548173ffffffffffffffffffffffffffffffffffffffff021916908373ffffffffffffffffffffffffffffffffffffffff16021790555080600160006101000a81548173ffffffffffffffffffffffffffffffffffffffff021916908373ffffffffffffffffffffffffffffffffffffffff160217905550506200024a565b600080fd5b600073ffffffffffffffffffffffffffffffffffffffff82169050919050565b6000620001e082620001b3565b9050919050565b620001f281620001d3565b8114620001fe57600080fd5b50565b6000815190506200021281620001e7565b92915050565b600060208284031215620002315762000230620001ae565b5b6000620002418482850162000201565b91505092915050565b61401e806200025a6000396000f3fe608060405234801561001057600080fd5b50600436106100ea5760003560e01c806368a93d2d1161008c57806398df912e1161006657806398df912e1461028a578063d16c0d4e146102a6578063f3c3d215146102c2578063f835cd3c146102de576100ea565b806368a93d2d146102205780637a4652191461023e5780638beed0f81461026e576100ea565b80633a23cc0a116100c85780633a23cc0a1461017457806342c549c0146101a45780634b7535d9146101d45780635cae48f514610204576100ea565b80630dad62fa146100ef578063294e70d2146101265780633141da5314610156575b600080fd5b61010960048036038101906101049190612cd6565b6102fc565b60405161011d989796959493929190612ddf565b60405180910390f35b610140600480360381019061013b9190612fa0565b6104a8565b60405161014d9190613053565b60405180910390f35b61015e61090a565b60405161016b9190613416565b60405180910390f35b61018e60048036038101906101899190613438565b610a9e565b60405161019b9190613538565b60405180910390f35b6101be60048036038101906101b99190613438565b610f0e565b6040516101cb91906135e0565b60405180910390f35b6101ee60048036038101906101e99190613602565b6110d3565b6040516101fb9190613053565b60405180910390f35b61021e6004803603810190610219919061362f565b6110eb565b005b61022861123c565b604051610235919061366f565b60405180910390f35b61025860048036038101906102539190613602565b611260565b6040516102659190613416565b60405180910390f35b61028860048036038101906102839190613438565b611886565b005b6102a4600480360381019061029f919061368a565b611cfb565b005b6102c060048036038101906102bb919061362f565b611e86565b005b6102dc60048036038101906102d79190613438565b6122d1565b005b6102e66124a4565b6040516102f3919061366f565b60405180910390f35b6002602052816000526040600020602052806000526040600020600091509150508060000160009054906101000a900473ffffffffffffffffffffffffffffffffffffffff169080600101549080600201549080600301805461035e90613728565b80601f016020809104026020016040519081016040528092919081815260200182805461038a90613728565b80156103d75780601f106103ac576101008083540402835291602001916103d7565b820191906000526020600020905b8154815290600101906020018083116103ba57829003601f168201915b5050505050908060040180546103ec90613728565b80601f016020809104026020016040519081016040528092919081815260200182805461041890613728565b80156104655780601f1061043a57610100808354040283529160200191610465565b820191906000526020600020905b81548152906001019060200180831161044857829003601f168201915b5050505050908060050160009054906101000a900460ff16908060050160019054906101000a900460ff16908060050160029054906101000a900460ff16905088565b60008073ffffffffffffffffffffffffffffffffffffffff163373ffffffffffffffffffffffffffffffffffffffff160361050f576040517f5f252daf00000000000000000000000000000000000000000000000000000000815260040160405180910390fd5b60008054906101000a900473ffffffffffffffffffffffffffffffffffffffff1673ffffffffffffffffffffffffffffffffffffffff163373ffffffffffffffffffffffffffffffffffffffff1614610594576040517f5915277700000000000000000000000000000000000000000000000000000000815260040160405180910390fd5b600061059f866124ca565b905060045491506000600260008060009054906101000a900473ffffffffffffffffffffffffffffffffffffffff1673ffffffffffffffffffffffffffffffffffffffff1673ffffffffffffffffffffffffffffffffffffffff16815260200190815260200160002060008481526020019081526020016000209050878160000160006101000a81548173ffffffffffffffffffffffffffffffffffffffff021916908373ffffffffffffffffffffffffffffffffffffffff160217905550818160010181905550858160020181905550848160030190816106819190613905565b50838160040190816106939190613905565b5080600260003373ffffffffffffffffffffffffffffffffffffffff1673ffffffffffffffffffffffffffffffffffffffff16815260200190815260200160002060008581526020019081526020016000206000820160009054906101000a900473ffffffffffffffffffffffffffffffffffffffff168160000160006101000a81548173ffffffffffffffffffffffffffffffffffffffff021916908373ffffffffffffffffffffffffffffffffffffffff16021790555060018201548160010155600282015481600201556003820181600301908161077491906139ed565b506004820181600401908161078991906139ed565b506005820160009054906101000a900460ff168160050160006101000a81548160ff0219169083151502179055506005820160019054906101000a900460ff168160050160016101000a81548160ff0219169083151502179055506005820160029054906101000a900460ff168160050160026101000a81548160ff0219169083151502179055506006820181600601908054610827929190612a31565b50905050600360003373ffffffffffffffffffffffffffffffffffffffff1673ffffffffffffffffffffffffffffffffffffffff168152602001908152602001600020600081548092919061087b90613b04565b91905055506004600081548092919061089390613b04565b91905055508773ffffffffffffffffffffffffffffffffffffffff163373ffffffffffffffffffffffffffffffffffffffff167f88fb90d9d534f2792ee5650e3a21b58a53c91bb4155553be08ee1e83b7860aa589866040516108f7929190613b4c565b60405180910390a3505095945050505050565b6060600073ffffffffffffffffffffffffffffffffffffffff163373ffffffffffffffffffffffffffffffffffffffff1603610972576040517f5f252daf00000000000000000000000000000000000000000000000000000000815260040160405180910390fd5b606060008054906101000a900473ffffffffffffffffffffffffffffffffffffffff1673ffffffffffffffffffffffffffffffffffffffff163373ffffffffffffffffffffffffffffffffffffffff1603610a225760006109d233612504565b905060016004541015610a11576040517f9df573ea00000000000000000000000000000000000000000000000000000000815260040160405180910390fd5b610a1a8161254d565b915050610a97565b6000610a4d60008054906101000a900473ffffffffffffffffffffffffffffffffffffffff16612504565b90506001811015610a8a576040517f9df573ea00000000000000000000000000000000000000000000000000000000815260040160405180910390fd5b610a938161254d565b9150505b8091505090565b610aa6612b12565b600073ffffffffffffffffffffffffffffffffffffffff163373ffffffffffffffffffffffffffffffffffffffff1603610b0c576040517f5f252daf00000000000000000000000000000000000000000000000000000000815260040160405180910390fd5b600260008060009054906101000a900473ffffffffffffffffffffffffffffffffffffffff1673ffffffffffffffffffffffffffffffffffffffff1673ffffffffffffffffffffffffffffffffffffffff1681526020019081526020016000206000838152602001908152602001600020604051806101200160405290816000820160009054906101000a900473ffffffffffffffffffffffffffffffffffffffff1673ffffffffffffffffffffffffffffffffffffffff1673ffffffffffffffffffffffffffffffffffffffff1681526020016001820154815260200160028201548152602001600382018054610c0390613728565b80601f0160208091040260200160405190810160405280929190818152602001828054610c2f90613728565b8015610c7c5780601f10610c5157610100808354040283529160200191610c7c565b820191906000526020600020905b815481529060010190602001808311610c5f57829003601f168201915b50505050508152602001600482018054610c9590613728565b80601f0160208091040260200160405190810160405280929190818152602001828054610cc190613728565b8015610d0e5780601f10610ce357610100808354040283529160200191610d0e565b820191906000526020600020905b815481529060010190602001808311610cf157829003601f168201915b505050505081526020016005820160009054906101000a900460ff161515151581526020016005820160019054906101000a900460ff161515151581526020016005820160029054906101000a900460ff1615151515815260200160068201805480602002602001604051908101604052809291908181526020016000905b82821015610eb15783829060005260206000209060030201604051806080016040529081600082018054610dc090613728565b80601f0160208091040260200160405190810160405280929190818152602001828054610dec90613728565b8015610e395780601f10610e0e57610100808354040283529160200191610e39565b820191906000526020600020905b815481529060010190602001808311610e1c57829003601f168201915b50505050508152602001600182015481526020016002820160009054906101000a900460ff166002811115610e7157610e7061313d565b5b6002811115610e8357610e8261313d565b5b81526020016002820160019054906101000a900460ff16151515158152505081526020019060010190610d8d565b505050508152505090503373ffffffffffffffffffffffffffffffffffffffff167f4b91f05e4e767e5e8d10a7a3636995feb5ad4f56c1a75c977090f2b313be6d9483604051610f019190613053565b60405180910390a2919050565b6060600260008060009054906101000a900473ffffffffffffffffffffffffffffffffffffffff1673ffffffffffffffffffffffffffffffffffffffff1673ffffffffffffffffffffffffffffffffffffffff1681526020019081526020016000206000838152602001908152602001600020600601805480602002602001604051908101604052809291908181526020016000905b828210156110c85783829060005260206000209060030201604051806080016040529081600082018054610fd790613728565b80601f016020809104026020016040519081016040528092919081815260200182805461100390613728565b80156110505780601f1061102557610100808354040283529160200191611050565b820191906000526020600020905b81548152906001019060200180831161103357829003601f168201915b50505050508152602001600182015481526020016002820160009054906101000a900460ff1660028111156110885761108761313d565b5b600281111561109a5761109961313d565b5b81526020016002820160019054906101000a900460ff16151515158152505081526020019060010190610fa4565b505050509050919050565b60036020528060005260406000206000915090505481565b6000600260008060009054906101000a900473ffffffffffffffffffffffffffffffffffffffff1673ffffffffffffffffffffffffffffffffffffffff1673ffffffffffffffffffffffffffffffffffffffff16815260200190815260200160002060008481526020019081526020016000209050806006018054905082106111a9576040517f08c379a00000000000000000000000000000000000000000000000000000000081526004016111a090613bc1565b60405180910390fd5b60008160060183815481106111c1576111c0613be1565b5b9060005260206000209060030201905060018160020160006101000a81548160ff021916908360028111156111f9576111f861313d565b5b0217905550837f1b7218c0ac23ea9cbe4df603d2b340fbf469a115b73ea3d11460727f445d6be18460405161122e9190613053565b60405180910390a250505050565b60008054906101000a900473ffffffffffffffffffffffffffffffffffffffff1681565b6060600080600190505b600454811161135c578373ffffffffffffffffffffffffffffffffffffffff16600260008060009054906101000a900473ffffffffffffffffffffffffffffffffffffffff1673ffffffffffffffffffffffffffffffffffffffff1673ffffffffffffffffffffffffffffffffffffffff168152602001908152602001600020600083815260200190815260200160002060000160009054906101000a900473ffffffffffffffffffffffffffffffffffffffff1673ffffffffffffffffffffffffffffffffffffffff160361134957818061134590613b04565b9250505b808061135490613b04565b91505061126a565b5060008167ffffffffffffffff81111561137957611378612e75565b5b6040519080825280602002602001820160405280156113b257816020015b61139f612b12565b8152602001906001900390816113975790505b509050600080600190505b600454811161187a578573ffffffffffffffffffffffffffffffffffffffff16600260008060009054906101000a900473ffffffffffffffffffffffffffffffffffffffff1673ffffffffffffffffffffffffffffffffffffffff1673ffffffffffffffffffffffffffffffffffffffff168152602001908152602001600020600083815260200190815260200160002060000160009054906101000a900473ffffffffffffffffffffffffffffffffffffffff1673ffffffffffffffffffffffffffffffffffffffff160361186757600260008060009054906101000a900473ffffffffffffffffffffffffffffffffffffffff1673ffffffffffffffffffffffffffffffffffffffff1673ffffffffffffffffffffffffffffffffffffffff1681526020019081526020016000206000828152602001908152602001600020604051806101200160405290816000820160009054906101000a900473ffffffffffffffffffffffffffffffffffffffff1673ffffffffffffffffffffffffffffffffffffffff1673ffffffffffffffffffffffffffffffffffffffff168152602001600182015481526020016002820154815260200160038201805461158490613728565b80601f01602080910402602001604051908101604052809291908181526020018280546115b090613728565b80156115fd5780601f106115d2576101008083540402835291602001916115fd565b820191906000526020600020905b8154815290600101906020018083116115e057829003601f168201915b5050505050815260200160048201805461161690613728565b80601f016020809104026020016040519081016040528092919081815260200182805461164290613728565b801561168f5780601f106116645761010080835404028352916020019161168f565b820191906000526020600020905b81548152906001019060200180831161167257829003601f168201915b505050505081526020016005820160009054906101000a900460ff161515151581526020016005820160019054906101000a900460ff161515151581526020016005820160029054906101000a900460ff1615151515815260200160068201805480602002602001604051908101604052809291908181526020016000905b82821015611832578382906000526020600020906003020160405180608001604052908160008201805461174190613728565b80601f016020809104026020016040519081016040528092919081815260200182805461176d90613728565b80156117ba5780601f1061178f576101008083540402835291602001916117ba565b820191906000526020600020905b81548152906001019060200180831161179d57829003601f168201915b50505050508152602001600182015481526020016002820160009054906101000a900460ff1660028111156117f2576117f161313d565b5b60028111156118045761180361313d565b5b81526020016002820160019054906101000a900460ff1615151515815250508152602001906001019061170e565b505050508152505083838151811061184d5761184c613be1565b5b6020026020010181905250818061186390613b04565b9250505b808061187290613b04565b9150506113bd565b50819350505050919050565b600073ffffffffffffffffffffffffffffffffffffffff163373ffffffffffffffffffffffffffffffffffffffff16036118ec576040517f5f252daf00000000000000000000000000000000000000000000000000000000815260040160405180910390fd5b6000600260008060009054906101000a900473ffffffffffffffffffffffffffffffffffffffff1673ffffffffffffffffffffffffffffffffffffffff1673ffffffffffffffffffffffffffffffffffffffff168152602001908152602001600020600083815260200190815260200160002090508060000160009054906101000a900473ffffffffffffffffffffffffffffffffffffffff1673ffffffffffffffffffffffffffffffffffffffff163373ffffffffffffffffffffffffffffffffffffffff16146119ea576040517f6810116800000000000000000000000000000000000000000000000000000000815260040160405180910390fd5b6000816001015403611a28576040517f7eed038200000000000000000000000000000000000000000000000000000000815260040160405180910390fd5b60008160060180549050905060005b81811015611cf55760001515836006018281548110611a5957611a58613be1565b5b906000526020600020906003020160020160019054906101000a900460ff16151503611ce857600280811115611a9257611a9161313d565b5b836006018281548110611aa857611aa7613be1565b5b906000526020600020906003020160020160009054906101000a900460ff166002811115611ad957611ad861313d565b5b03611ce757600160009054906101000a900473ffffffffffffffffffffffffffffffffffffffff1673ffffffffffffffffffffffffffffffffffffffff1663a9059cbb600260008060009054906101000a900473ffffffffffffffffffffffffffffffffffffffff1673ffffffffffffffffffffffffffffffffffffffff1673ffffffffffffffffffffffffffffffffffffffff168152602001908152602001600020600087815260200190815260200160002060000160009054906101000a900473ffffffffffffffffffffffffffffffffffffffff16600260008060009054906101000a900473ffffffffffffffffffffffffffffffffffffffff1673ffffffffffffffffffffffffffffffffffffffff1673ffffffffffffffffffffffffffffffffffffffff16815260200190815260200160002060008881526020019081526020016000206006018481548110611c3757611c36613be1565b5b9060005260206000209060030201600101546040518363ffffffff1660e01b8152600401611c66929190613c10565b6020604051808303816000875af1158015611c85573d6000803e3d6000fd5b505050506040513d601f19601f82011682018060405250810190611ca99190613c65565b5060011515836006018281548110611cc457611cc3613be1565b5b906000526020600020906003020160020160019054906101000a90505050611cf5565b5b8080600101915050611a37565b50505050565b6000600260008060009054906101000a900473ffffffffffffffffffffffffffffffffffffffff1673ffffffffffffffffffffffffffffffffffffffff1673ffffffffffffffffffffffffffffffffffffffff1681526020019081526020016000206000858152602001908152602001600020905080600601604051806080016040528085815260200184815260200160006002811115611d9f57611d9e61313d565b5b81526020016000151581525090806001815401808255809150506001900390600052602060002090600302016000909190919091506000820151816000019081611de99190613905565b506020820151816001015560408201518160020160006101000a81548160ff02191690836002811115611e1f57611e1e61313d565b5b021790555060608201518160020160016101000a81548160ff0219169083151502179055505050837fbf293db00f4de65b181a066ecc2f8bb81fb7174b517fd8085700e259ad00db1b8484604051611e78929190613c92565b60405180910390a250505050565b600073ffffffffffffffffffffffffffffffffffffffff163373ffffffffffffffffffffffffffffffffffffffff1603611eec576040517f5f252daf00000000000000000000000000000000000000000000000000000000815260040160405180910390fd5b6000600260008060009054906101000a900473ffffffffffffffffffffffffffffffffffffffff1673ffffffffffffffffffffffffffffffffffffffff1673ffffffffffffffffffffffffffffffffffffffff168152602001908152602001600020600084815260200190815260200160002090508060000160009054906101000a900473ffffffffffffffffffffffffffffffffffffffff1673ffffffffffffffffffffffffffffffffffffffff163373ffffffffffffffffffffffffffffffffffffffff1614611fea576040517f44f3b42100000000000000000000000000000000000000000000000000000000815260040160405180910390fd5b6000600260008060009054906101000a900473ffffffffffffffffffffffffffffffffffffffff1673ffffffffffffffffffffffffffffffffffffffff1673ffffffffffffffffffffffffffffffffffffffff168152602001908152602001600020600085815260200190815260200160002060010154905080831161209c576040517f81fff43000000000000000000000000000000000000000000000000000000000815260040160405180910390fd5b60006120a7846124ca565b90506000600160009054906101000a900473ffffffffffffffffffffffffffffffffffffffff1673ffffffffffffffffffffffffffffffffffffffff166370a08231336040518263ffffffff1660e01b8152600401612106919061366f565b602060405180830381865afa158015612123573d6000803e3d6000fd5b505050506040513d601f19601f820116820180604052508101906121479190613cd7565b90506000612154826124ca565b9050828111612198576040517f08c379a000000000000000000000000000000000000000000000000000000000815260040161218f90613d50565b60405180910390fd5b6001600260008060009054906101000a900473ffffffffffffffffffffffffffffffffffffffff1673ffffffffffffffffffffffffffffffffffffffff1673ffffffffffffffffffffffffffffffffffffffff168152602001908152602001600020600089815260200190815260200160002060050160016101000a81548160ff021916908315150217905550600160009054906101000a900473ffffffffffffffffffffffffffffffffffffffff1673ffffffffffffffffffffffffffffffffffffffff166323b872dd3330896040518463ffffffff1660e01b815260040161228493929190613d70565b6020604051808303816000875af11580156122a3573d6000803e3d6000fd5b505050506040513d601f19601f820116820180604052508101906122c79190613c65565b5050505050505050565b600073ffffffffffffffffffffffffffffffffffffffff163373ffffffffffffffffffffffffffffffffffffffff1603612337576040517f5f252daf00000000000000000000000000000000000000000000000000000000815260040160405180910390fd5b6000600260008060009054906101000a900473ffffffffffffffffffffffffffffffffffffffff1673ffffffffffffffffffffffffffffffffffffffff1673ffffffffffffffffffffffffffffffffffffffff168152602001908152602001600020600083815260200190815260200160002090503373ffffffffffffffffffffffffffffffffffffffff168160000160009054906101000a900473ffffffffffffffffffffffffffffffffffffffff1673ffffffffffffffffffffffffffffffffffffffff1614612435576040517f5169e01000000000000000000000000000000000000000000000000000000000815260040160405180910390fd5b60018160050160026101000a81548160ff0219169083151502179055503373ffffffffffffffffffffffffffffffffffffffff167fd3ec1db989d7a04f562031e02001f88781a3bc555a5608a288acccae5b50e86f836040516124989190613053565b60405180910390a25050565b600160009054906101000a900473ffffffffffffffffffffffffffffffffffffffff1681565b6000806124d5612988565b90506000670de0b6b3a764000084836124ee9190613da7565b6124f89190613e18565b90508092505050919050565b6000600360008373ffffffffffffffffffffffffffffffffffffffff1673ffffffffffffffffffffffffffffffffffffffff168152602001908152602001600020549050919050565b606060008267ffffffffffffffff81111561256b5761256a612e75565b5b6040519080825280602002602001820160405280156125a457816020015b612591612b12565b8152602001906001900390816125895790505b5090506000600190505b83811161297e57600260003373ffffffffffffffffffffffffffffffffffffffff1673ffffffffffffffffffffffffffffffffffffffff1681526020019081526020016000206000828152602001908152602001600020604051806101200160405290816000820160009054906101000a900473ffffffffffffffffffffffffffffffffffffffff1673ffffffffffffffffffffffffffffffffffffffff1673ffffffffffffffffffffffffffffffffffffffff168152602001600182015481526020016002820154815260200160038201805461268b90613728565b80601f01602080910402602001604051908101604052809291908181526020018280546126b790613728565b80156127045780601f106126d957610100808354040283529160200191612704565b820191906000526020600020905b8154815290600101906020018083116126e757829003601f168201915b5050505050815260200160048201805461271d90613728565b80601f016020809104026020016040519081016040528092919081815260200182805461274990613728565b80156127965780601f1061276b57610100808354040283529160200191612796565b820191906000526020600020905b81548152906001019060200180831161277957829003601f168201915b505050505081526020016005820160009054906101000a900460ff161515151581526020016005820160019054906101000a900460ff161515151581526020016005820160029054906101000a900460ff1615151515815260200160068201805480602002602001604051908101604052809291908181526020016000905b82821015612939578382906000526020600020906003020160405180608001604052908160008201805461284890613728565b80601f016020809104026020016040519081016040528092919081815260200182805461287490613728565b80156128c15780601f10612896576101008083540402835291602001916128c1565b820191906000526020600020905b8154815290600101906020018083116128a457829003601f168201915b50505050508152602001600182015481526020016002820160009054906101000a900460ff1660028111156128f9576128f861313d565b5b600281111561290b5761290a61313d565b5b81526020016002820160019054906101000a900460ff16151515158152505081526020019060010190612815565b50505050815250508260018361294f9190613e49565b815181106129605761295f613be1565b5b6020026020010181905250808061297690613b04565b9150506125ae565b5080915050919050565b60008073694aa1769357215de4fac081bf1f309adc325306905060008173ffffffffffffffffffffffffffffffffffffffff1663feaf968c6040518163ffffffff1660e01b815260040160a060405180830381865afa1580156129ef573d6000803e3d6000fd5b505050506040513d601f19601f82011682018060405250810190612a139190613ef5565b5050509150506402540be40081612a2a9190613f70565b9250505090565b828054828255906000526020600020906003028101928215612b015760005260206000209160030282015b82811115612b0057828260008201816000019081612a7a91906139ed565b50600182015481600101556002820160009054906101000a900460ff168160020160006101000a81548160ff02191690836002811115612abd57612abc61313d565b5b02179055506002820160019054906101000a900460ff168160020160016101000a81548160ff021916908315150217905550505091600301919060030190612a5c565b5b509050612b0e9190612b7a565b5090565b604051806101200160405280600073ffffffffffffffffffffffffffffffffffffffff16815260200160008152602001600081526020016060815260200160608152602001600015158152602001600015158152602001600015158152602001606081525090565b5b80821115612bcd5760008082016000612b949190612bd1565b60018201600090556002820160006101000a81549060ff02191690556002820160016101000a81549060ff021916905550600301612b7b565b5090565b508054612bdd90613728565b6000825580601f10612bef5750612c0e565b601f016020900490600052602060002090810190612c0d9190612c11565b5b50565b5b80821115612c2a576000816000905550600101612c12565b5090565b6000604051905090565b600080fd5b600080fd5b600073ffffffffffffffffffffffffffffffffffffffff82169050919050565b6000612c6d82612c42565b9050919050565b612c7d81612c62565b8114612c8857600080fd5b50565b600081359050612c9a81612c74565b92915050565b6000819050919050565b612cb381612ca0565b8114612cbe57600080fd5b50565b600081359050612cd081612caa565b92915050565b60008060408385031215612ced57612cec612c38565b5b6000612cfb85828601612c8b565b9250506020612d0c85828601612cc1565b9150509250929050565b612d1f81612c62565b82525050565b612d2e81612ca0565b82525050565b600081519050919050565b600082825260208201905092915050565b60005b83811015612d6e578082015181840152602081019050612d53565b60008484015250505050565b6000601f19601f8301169050919050565b6000612d9682612d34565b612da08185612d3f565b9350612db0818560208601612d50565b612db981612d7a565b840191505092915050565b60008115159050919050565b612dd981612dc4565b82525050565b600061010082019050612df5600083018b612d16565b612e02602083018a612d25565b612e0f6040830189612d25565b8181036060830152612e218188612d8b565b90508181036080830152612e358187612d8b565b9050612e4460a0830186612dd0565b612e5160c0830185612dd0565b612e5e60e0830184612dd0565b9998505050505050505050565b600080fd5b600080fd5b7f4e487b7100000000000000000000000000000000000000000000000000000000600052604160045260246000fd5b612ead82612d7a565b810181811067ffffffffffffffff82111715612ecc57612ecb612e75565b5b80604052505050565b6000612edf612c2e565b9050612eeb8282612ea4565b919050565b600067ffffffffffffffff821115612f0b57612f0a612e75565b5b612f1482612d7a565b9050602081019050919050565b82818337600083830152505050565b6000612f43612f3e84612ef0565b612ed5565b905082815260208101848484011115612f5f57612f5e612e70565b5b612f6a848285612f21565b509392505050565b600082601f830112612f8757612f86612e6b565b5b8135612f97848260208601612f30565b91505092915050565b600080600080600060a08688031215612fbc57612fbb612c38565b5b6000612fca88828901612c8b565b9550506020612fdb88828901612cc1565b9450506040612fec88828901612cc1565b935050606086013567ffffffffffffffff81111561300d5761300c612c3d565b5b61301988828901612f72565b925050608086013567ffffffffffffffff81111561303a57613039612c3d565b5b61304688828901612f72565b9150509295509295909350565b60006020820190506130686000830184612d25565b92915050565b600081519050919050565b600082825260208201905092915050565b6000819050602082019050919050565b6130a381612c62565b82525050565b6130b281612ca0565b82525050565b600082825260208201905092915050565b60006130d482612d34565b6130de81856130b8565b93506130ee818560208601612d50565b6130f781612d7a565b840191505092915050565b61310b81612dc4565b82525050565b600081519050919050565b600082825260208201905092915050565b6000819050602082019050919050565b7f4e487b7100000000000000000000000000000000000000000000000000000000600052602160045260246000fd5b6003811061317d5761317c61313d565b5b50565b600081905061318e8261316c565b919050565b600061319e82613180565b9050919050565b6131ae81613193565b82525050565b600060808301600083015184820360008601526131d182826130c9565b91505060208301516131e660208601826130a9565b5060408301516131f960408601826131a5565b50606083015161320c6060860182613102565b508091505092915050565b600061322383836131b4565b905092915050565b6000602082019050919050565b600061324382613111565b61324d818561311c565b93508360208202850161325f8561312d565b8060005b8581101561329b578484038952815161327c8582613217565b94506132878361322b565b925060208a01995050600181019050613263565b50829750879550505050505092915050565b6000610120830160008301516132c6600086018261309a565b5060208301516132d960208601826130a9565b5060408301516132ec60408601826130a9565b506060830151848203606086015261330482826130c9565b9150506080830151848203608086015261331e82826130c9565b91505060a083015161333360a0860182613102565b5060c083015161334660c0860182613102565b5060e083015161335960e0860182613102565b506101008301518482036101008601526133738282613238565b9150508091505092915050565b600061338c83836132ad565b905092915050565b6000602082019050919050565b60006133ac8261306e565b6133b68185613079565b9350836020820285016133c88561308a565b8060005b8581101561340457848403895281516133e58582613380565b94506133f083613394565b925060208a019950506001810190506133cc565b50829750879550505050505092915050565b6000602082019050818103600083015261343081846133a1565b905092915050565b60006020828403121561344e5761344d612c38565b5b600061345c84828501612cc1565b91505092915050565b60006101208301600083015161347e600086018261309a565b50602083015161349160208601826130a9565b5060408301516134a460408601826130a9565b50606083015184820360608601526134bc82826130c9565b915050608083015184820360808601526134d682826130c9565b91505060a08301516134eb60a0860182613102565b5060c08301516134fe60c0860182613102565b5060e083015161351160e0860182613102565b5061010083015184820361010086015261352b8282613238565b9150508091505092915050565b600060208201905081810360008301526135528184613465565b905092915050565b600082825260208201905092915050565b600061357682613111565b613580818561355a565b9350836020820285016135928561312d565b8060005b858110156135ce57848403895281516135af8582613217565b94506135ba8361322b565b925060208a01995050600181019050613596565b50829750879550505050505092915050565b600060208201905081810360008301526135fa818461356b565b905092915050565b60006020828403121561361857613617612c38565b5b600061362684828501612c8b565b91505092915050565b6000806040838503121561364657613645612c38565b5b600061365485828601612cc1565b925050602061366585828601612cc1565b9150509250929050565b60006020820190506136846000830184612d16565b92915050565b6000806000606084860312156136a3576136a2612c38565b5b60006136b186828701612cc1565b935050602084013567ffffffffffffffff8111156136d2576136d1612c3d565b5b6136de86828701612f72565b92505060406136ef86828701612cc1565b9150509250925092565b7f4e487b7100000000000000000000000000000000000000000000000000000000600052602260045260246000fd5b6000600282049050600182168061374057607f821691505b602082108103613753576137526136f9565b5b50919050565b60008190508160005260206000209050919050565b60006020601f8301049050919050565b600082821b905092915050565b6000600883026137bb7fffffffffffffffffffffffffffffffffffffffffffffffffffffffffffffffff8261377e565b6137c5868361377e565b95508019841693508086168417925050509392505050565b6000819050919050565b60006138026137fd6137f884612ca0565b6137dd565b612ca0565b9050919050565b6000819050919050565b61381c836137e7565b61383061382882613809565b84845461378b565b825550505050565b600090565b613845613838565b613850818484613813565b505050565b5b818110156138745761386960008261383d565b600181019050613856565b5050565b601f8211156138b95761388a81613759565b6138938461376e565b810160208510156138a2578190505b6138b66138ae8561376e565b830182613855565b50505b505050565b600082821c905092915050565b60006138dc600019846008026138be565b1980831691505092915050565b60006138f583836138cb565b9150826002028217905092915050565b61390e82612d34565b67ffffffffffffffff81111561392757613926612e75565b5b6139318254613728565b61393c828285613878565b600060209050601f83116001811461396f576000841561395d578287015190505b61396785826138e9565b8655506139cf565b601f19841661397d86613759565b60005b828110156139a557848901518255600182019150602085019450602081019050613980565b868310156139c257848901516139be601f8916826138cb565b8355505b6001600288020188555050505b505050505050565b6000815490506139e681613728565b9050919050565b8181036139fb575050613ad3565b613a04826139d7565b67ffffffffffffffff811115613a1d57613a1c612e75565b5b613a278254613728565b613a32828285613878565b6000601f831160018114613a615760008415613a4f578287015490505b613a5985826138e9565b865550613acc565b601f198416613a6f87613759565b9650613a7a86613759565b60005b82811015613aa257848901548255600182019150600185019450602081019050613a7d565b86831015613abf5784890154613abb601f8916826138cb565b8355505b6001600288020188555050505b5050505050505b565b7f4e487b7100000000000000000000000000000000000000000000000000000000600052601160045260246000fd5b6000613b0f82612ca0565b91507fffffffffffffffffffffffffffffffffffffffffffffffffffffffffffffffff8203613b4157613b40613ad5565b5b600182019050919050565b6000604082019050613b616000830185612d25565b613b6e6020830184612d25565b9392505050565b7f496e76616c6964206d696c6573746f6e6520696e646578000000000000000000600082015250565b6000613bab601783612d3f565b9150613bb682613b75565b602082019050919050565b60006020820190508181036000830152613bda81613b9e565b9050919050565b7f4e487b7100000000000000000000000000000000000000000000000000000000600052603260045260246000fd5b6000604082019050613c256000830185612d16565b613c326020830184612d25565b9392505050565b613c4281612dc4565b8114613c4d57600080fd5b50565b600081519050613c5f81613c39565b92915050565b600060208284031215613c7b57613c7a612c38565b5b6000613c8984828501613c50565b91505092915050565b60006040820190508181036000830152613cac8185612d8b565b9050613cbb6020830184612d25565b9392505050565b600081519050613cd181612caa565b92915050565b600060208284031215613ced57613cec612c38565b5b6000613cfb84828501613cc2565b91505092915050565b7f496e73756666696369656e742062616c616e6365000000000000000000000000600082015250565b6000613d3a601483612d3f565b9150613d4582613d04565b602082019050919050565b60006020820190508181036000830152613d6981613d2d565b9050919050565b6000606082019050613d856000830186612d16565b613d926020830185612d16565b613d9f6040830184612d25565b949350505050565b6000613db282612ca0565b9150613dbd83612ca0565b9250828202613dcb81612ca0565b91508282048414831517613de257613de1613ad5565b5b5092915050565b7f4e487b7100000000000000000000000000000000000000000000000000000000600052601260045260246000fd5b6000613e2382612ca0565b9150613e2e83612ca0565b925082613e3e57613e3d613de9565b5b828204905092915050565b6000613e5482612ca0565b9150613e5f83612ca0565b9250828203905081811115613e7757613e76613ad5565b5b92915050565b600069ffffffffffffffffffff82169050919050565b613e9c81613e7d565b8114613ea757600080fd5b50565b600081519050613eb981613e93565b92915050565b6000819050919050565b613ed281613ebf565b8114613edd57600080fd5b50565b600081519050613eef81613ec9565b92915050565b600080600080600060a08688031215613f1157613f10612c38565b5b6000613f1f88828901613eaa565b9550506020613f3088828901613ee0565b9450506040613f4188828901613cc2565b9350506060613f5288828901613cc2565b9250506080613f6388828901613eaa565b9150509295509295909350565b6000613f7b82613ebf565b9150613f8683613ebf565b9250828202613f9481613ebf565b91507f80000000000000000000000000000000000000000000000000000000000000008414600084121615613fcc57613fcb613ad5565b5b8282058414831517613fe157613fe0613ad5565b5b509291505056fea2646970667358221220ae34f0a3644fb4df7d199191ff530191d667f56414999922faa6fcbbd1e1989e64736f6c63430008180033a26469706673582212204bd13c75762ac6c2dcc62970952a55c81ac3a65b05a3a2a5e6a6c45df20200e064736f6c63430008180033",
  "linkReferences": {},
  "deployedLinkReferences": {}
}