{
  "_format": "hh-sol-artifact-1",
  "contractName": "PayNVoiceFactory",
  "sourceName": "contracts/invoiceFactory.sol",
  "abi": [
    {
      "inputs": [
        {
          "internalType": "address",
          "name": "tokAddress",
          "type": "address"
        }
      ],
      "name": "createInvoice",
      "outputs": [
        {
          "internalType": "contract PayNVoice",
          "name": "newInvoice_",
          "type": "address"
        },
        {
          "internalType": "uint256",
          "name": "length_",
          "type": "uint256"
        }
      ],
      "stateMutability": "nonpayable",
      "type": "function"
    },
    {
      "inputs": [
        {
          "internalType": "uint256",
          "name": "_index",
          "type": "uint256"
        }
      ],
      "name": "getANInvoiceClone",
      "outputs": [
        {
          "internalType": "contract PayNVoice",
          "name": "",
          "type": "address"
        }
      ],
      "stateMutability": "view",
      "type": "function"
    },
    {
      "inputs": [],
      "name": "getInvoiceClones",
      "outputs": [
        {
          "internalType": "contract PayNVoice[]",
          "name": "",
          "type": "address[]"
        }
      ],
      "stateMutability": "view",
      "type": "function"
    }
  ],
  "bytecode": "0x608060405234801561001057600080fd5b50614512806100206000396000f3fe608060405234801561001057600080fd5b50600436106100415760003560e01c806386e229b1146100465780638a374ad614610064578063b7f7852014610095575b600080fd5b61004e6100c5565b60405161005b919061037f565b60405180910390f35b61007e600480360381019061007991906103e4565b610153565b60405161008c929190610439565b60405180910390f35b6100af60048036038101906100aa919061048e565b6101fc565b6040516100bc91906104bb565b60405180910390f35b6060600080548060200260200160405190810160405280929190818152602001828054801561014957602002820191906000526020600020905b8160009054906101000a900473ffffffffffffffffffffffffffffffffffffffff1673ffffffffffffffffffffffffffffffffffffffff16815260200190600101908083116100ff575b5050505050905090565b6000808260405161016390610243565b61016d91906104e5565b604051809103906000f080158015610189573d6000803e3d6000fd5b5091506000829080600181540180825580915050600190039060005260206000200160009091909190916101000a81548173ffffffffffffffffffffffffffffffffffffffff021916908373ffffffffffffffffffffffffffffffffffffffff1602179055506000805490509050915091565b600080828154811061021157610210610500565b5b9060005260206000200160009054906101000a900473ffffffffffffffffffffffffffffffffffffffff169050919050565b613fad806200053083390190565b600081519050919050565b600082825260208201905092915050565b6000819050602082019050919050565b600073ffffffffffffffffffffffffffffffffffffffff82169050919050565b6000819050919050565b60006102c26102bd6102b88461027d565b61029d565b61027d565b9050919050565b60006102d4826102a7565b9050919050565b60006102e6826102c9565b9050919050565b6102f6816102db565b82525050565b600061030883836102ed565b60208301905092915050565b6000602082019050919050565b600061032c82610251565b610336818561025c565b93506103418361026d565b8060005b8381101561037257815161035988826102fc565b975061036483610314565b925050600181019050610345565b5085935050505092915050565b600060208201905081810360008301526103998184610321565b905092915050565b600080fd5b60006103b18261027d565b9050919050565b6103c1816103a6565b81146103cc57600080fd5b50565b6000813590506103de816103b8565b92915050565b6000602082840312156103fa576103f96103a1565b5b6000610408848285016103cf565b91505092915050565b61041a816102db565b82525050565b6000819050919050565b61043381610420565b82525050565b600060408201905061044e6000830185610411565b61045b602083018461042a565b9392505050565b61046b81610420565b811461047657600080fd5b50565b60008135905061048881610462565b92915050565b6000602082840312156104a4576104a36103a1565b5b60006104b284828501610479565b91505092915050565b60006020820190506104d06000830184610411565b92915050565b6104df816103a6565b82525050565b60006020820190506104fa60008301846104d6565b92915050565b7f4e487b7100000000000000000000000000000000000000000000000000000000600052603260045260246000fdfe608060405260016004553480156200001657600080fd5b5060405162003fad38038062003fad83398181016040528101906200003c9190620001fc565b600073ffffffffffffffffffffffffffffffffffffffff163373ffffffffffffffffffffffffffffffffffffffff1603620000a3576040517f7a795c5600000000000000000000000000000000000000000000000000000000815260040160405180910390fd5b600073ffffffffffffffffffffffffffffffffffffffff168173ffffffffffffffffffffffffffffffffffffffff16036200010a576040517f7a795c5600000000000000000000000000000000000000000000000000000000815260040160405180910390fd5b336000806101000a81548173ffffffffffffffffffffffffffffffffffffffff021916908373ffffffffffffffffffffffffffffffffffffffff16021790555080600160006101000a81548173ffffffffffffffffffffffffffffffffffffffff021916908373ffffffffffffffffffffffffffffffffffffffff160217905550506200022e565b600080fd5b600073ffffffffffffffffffffffffffffffffffffffff82169050919050565b6000620001c48262000197565b9050919050565b620001d681620001b7565b8114620001e257600080fd5b50565b600081519050620001f681620001cb565b92915050565b60006020828403121562000215576200021462000192565b5b60006200022584828501620001e5565b91505092915050565b613d6f806200023e6000396000f3fe6080604052600436106100dd5760003560e01c806368a93d2d1161007f57806398df912e1161005957806398df912e146102ff578063daa41e7014610328578063f3c3d21514610344578063f835cd3c1461036d576100dd565b806368a93d2d1461026e5780637a465219146102995780638beed0f8146102d6576100dd565b80633a23cc0a116100bb5780633a23cc0a1461018e57806342c549c0146101cb5780634b7535d9146102085780635cae48f514610245576100dd565b80630dad62fa146100e2578063294e70d2146101265780633141da5314610163575b600080fd5b3480156100ee57600080fd5b5061010960048036038101906101049190612c34565b610398565b60405161011d989796959493929190612d3d565b60405180910390f35b34801561013257600080fd5b5061014d60048036038101906101489190612efe565b610544565b60405161015a9190612fb1565b60405180910390f35b34801561016f57600080fd5b50610178610998565b6040516101859190613374565b60405180910390f35b34801561019a57600080fd5b506101b560048036038101906101b09190613396565b610b2c565b6040516101c29190613496565b60405180910390f35b3480156101d757600080fd5b506101f260048036038101906101ed9190613396565b610f9c565b6040516101ff919061353e565b60405180910390f35b34801561021457600080fd5b5061022f600480360381019061022a9190613560565b611161565b60405161023c9190612fb1565b60405180910390f35b34801561025157600080fd5b5061026c6004803603810190610267919061358d565b611179565b005b34801561027a57600080fd5b506102836112ca565b60405161029091906135cd565b60405180910390f35b3480156102a557600080fd5b506102c060048036038101906102bb9190613560565b6112ee565b6040516102cd9190613374565b60405180910390f35b3480156102e257600080fd5b506102fd60048036038101906102f89190613396565b611914565b005b34801561030b57600080fd5b50610326600480360381019061032191906135e8565b611d89565b005b610342600480360381019061033d9190613396565b611f14565b005b34801561035057600080fd5b5061036b60048036038101906103669190613396565b612312565b005b34801561037957600080fd5b506103826124e5565b60405161038f91906135cd565b60405180910390f35b6002602052816000526040600020602052806000526040600020600091509150508060000160009054906101000a900473ffffffffffffffffffffffffffffffffffffffff16908060010154908060020154908060030180546103fa90613686565b80601f016020809104026020016040519081016040528092919081815260200182805461042690613686565b80156104735780601f1061044857610100808354040283529160200191610473565b820191906000526020600020905b81548152906001019060200180831161045657829003601f168201915b50505050509080600401805461048890613686565b80601f01602080910402602001604051908101604052809291908181526020018280546104b490613686565b80156105015780601f106104d657610100808354040283529160200191610501565b820191906000526020600020905b8154815290600101906020018083116104e457829003601f168201915b5050505050908060050160009054906101000a900460ff16908060050160019054906101000a900460ff16908060050160029054906101000a900460ff16905088565b60008073ffffffffffffffffffffffffffffffffffffffff163373ffffffffffffffffffffffffffffffffffffffff16036105ab576040517f7a795c5600000000000000000000000000000000000000000000000000000000815260040160405180910390fd5b60008054906101000a900473ffffffffffffffffffffffffffffffffffffffff1673ffffffffffffffffffffffffffffffffffffffff163373ffffffffffffffffffffffffffffffffffffffff1614610630576040517f5915277700000000000000000000000000000000000000000000000000000000815260040160405180910390fd5b60045490506000600260008060009054906101000a900473ffffffffffffffffffffffffffffffffffffffff1673ffffffffffffffffffffffffffffffffffffffff1673ffffffffffffffffffffffffffffffffffffffff16815260200190815260200160002060008381526020019081526020016000209050868160000160006101000a81548173ffffffffffffffffffffffffffffffffffffffff021916908373ffffffffffffffffffffffffffffffffffffffff160217905550858160010181905550848160020181905550838160030190816107109190613863565b50828160040190816107229190613863565b5080600260003373ffffffffffffffffffffffffffffffffffffffff1673ffffffffffffffffffffffffffffffffffffffff16815260200190815260200160002060008481526020019081526020016000206000820160009054906101000a900473ffffffffffffffffffffffffffffffffffffffff168160000160006101000a81548173ffffffffffffffffffffffffffffffffffffffff021916908373ffffffffffffffffffffffffffffffffffffffff160217905550600182015481600101556002820154816002015560038201816003019081610803919061394b565b5060048201816004019081610818919061394b565b506005820160009054906101000a900460ff168160050160006101000a81548160ff0219169083151502179055506005820160019054906101000a900460ff168160050160016101000a81548160ff0219169083151502179055506005820160029054906101000a900460ff168160050160026101000a81548160ff02191690831515021790555060068201816006019080546108b692919061298f565b50905050600360003373ffffffffffffffffffffffffffffffffffffffff1673ffffffffffffffffffffffffffffffffffffffff168152602001908152602001600020600081548092919061090a90613a62565b91905055506004600081548092919061092290613a62565b91905055508673ffffffffffffffffffffffffffffffffffffffff163373ffffffffffffffffffffffffffffffffffffffff167f88fb90d9d534f2792ee5650e3a21b58a53c91bb4155553be08ee1e83b7860aa58885604051610986929190613aaa565b60405180910390a35095945050505050565b6060600073ffffffffffffffffffffffffffffffffffffffff163373ffffffffffffffffffffffffffffffffffffffff1603610a00576040517f7a795c5600000000000000000000000000000000000000000000000000000000815260040160405180910390fd5b606060008054906101000a900473ffffffffffffffffffffffffffffffffffffffff1673ffffffffffffffffffffffffffffffffffffffff163373ffffffffffffffffffffffffffffffffffffffff1603610ab0576000610a603361250b565b905060016004541015610a9f576040517f9df573ea00000000000000000000000000000000000000000000000000000000815260040160405180910390fd5b610aa881612554565b915050610b25565b6000610adb60008054906101000a900473ffffffffffffffffffffffffffffffffffffffff1661250b565b90506001811015610b18576040517f9df573ea00000000000000000000000000000000000000000000000000000000815260040160405180910390fd5b610b2181612554565b9150505b8091505090565b610b34612a70565b600073ffffffffffffffffffffffffffffffffffffffff163373ffffffffffffffffffffffffffffffffffffffff1603610b9a576040517f7a795c5600000000000000000000000000000000000000000000000000000000815260040160405180910390fd5b600260008060009054906101000a900473ffffffffffffffffffffffffffffffffffffffff1673ffffffffffffffffffffffffffffffffffffffff1673ffffffffffffffffffffffffffffffffffffffff1681526020019081526020016000206000838152602001908152602001600020604051806101200160405290816000820160009054906101000a900473ffffffffffffffffffffffffffffffffffffffff1673ffffffffffffffffffffffffffffffffffffffff1673ffffffffffffffffffffffffffffffffffffffff1681526020016001820154815260200160028201548152602001600382018054610c9190613686565b80601f0160208091040260200160405190810160405280929190818152602001828054610cbd90613686565b8015610d0a5780601f10610cdf57610100808354040283529160200191610d0a565b820191906000526020600020905b815481529060010190602001808311610ced57829003601f168201915b50505050508152602001600482018054610d2390613686565b80601f0160208091040260200160405190810160405280929190818152602001828054610d4f90613686565b8015610d9c5780601f10610d7157610100808354040283529160200191610d9c565b820191906000526020600020905b815481529060010190602001808311610d7f57829003601f168201915b505050505081526020016005820160009054906101000a900460ff161515151581526020016005820160019054906101000a900460ff161515151581526020016005820160029054906101000a900460ff1615151515815260200160068201805480602002602001604051908101604052809291908181526020016000905b82821015610f3f5783829060005260206000209060030201604051806080016040529081600082018054610e4e90613686565b80601f0160208091040260200160405190810160405280929190818152602001828054610e7a90613686565b8015610ec75780601f10610e9c57610100808354040283529160200191610ec7565b820191906000526020600020905b815481529060010190602001808311610eaa57829003601f168201915b50505050508152602001600182015481526020016002820160009054906101000a900460ff166002811115610eff57610efe61309b565b5b6002811115610f1157610f1061309b565b5b81526020016002820160019054906101000a900460ff16151515158152505081526020019060010190610e1b565b505050508152505090503373ffffffffffffffffffffffffffffffffffffffff167f4b91f05e4e767e5e8d10a7a3636995feb5ad4f56c1a75c977090f2b313be6d9483604051610f8f9190612fb1565b60405180910390a2919050565b6060600260008060009054906101000a900473ffffffffffffffffffffffffffffffffffffffff1673ffffffffffffffffffffffffffffffffffffffff1673ffffffffffffffffffffffffffffffffffffffff1681526020019081526020016000206000838152602001908152602001600020600601805480602002602001604051908101604052809291908181526020016000905b82821015611156578382906000526020600020906003020160405180608001604052908160008201805461106590613686565b80601f016020809104026020016040519081016040528092919081815260200182805461109190613686565b80156110de5780601f106110b3576101008083540402835291602001916110de565b820191906000526020600020905b8154815290600101906020018083116110c157829003601f168201915b50505050508152602001600182015481526020016002820160009054906101000a900460ff1660028111156111165761111561309b565b5b60028111156111285761112761309b565b5b81526020016002820160019054906101000a900460ff16151515158152505081526020019060010190611032565b505050509050919050565b60036020528060005260406000206000915090505481565b6000600260008060009054906101000a900473ffffffffffffffffffffffffffffffffffffffff1673ffffffffffffffffffffffffffffffffffffffff1673ffffffffffffffffffffffffffffffffffffffff1681526020019081526020016000206000848152602001908152602001600020905080600601805490508210611237576040517f08c379a000000000000000000000000000000000000000000000000000000000815260040161122e90613b1f565b60405180910390fd5b600081600601838154811061124f5761124e613b3f565b5b9060005260206000209060030201905060018160020160006101000a81548160ff021916908360028111156112875761128661309b565b5b0217905550837f1b7218c0ac23ea9cbe4df603d2b340fbf469a115b73ea3d11460727f445d6be1846040516112bc9190612fb1565b60405180910390a250505050565b60008054906101000a900473ffffffffffffffffffffffffffffffffffffffff1681565b6060600080600190505b60045481116113ea578373ffffffffffffffffffffffffffffffffffffffff16600260008060009054906101000a900473ffffffffffffffffffffffffffffffffffffffff1673ffffffffffffffffffffffffffffffffffffffff1673ffffffffffffffffffffffffffffffffffffffff168152602001908152602001600020600083815260200190815260200160002060000160009054906101000a900473ffffffffffffffffffffffffffffffffffffffff1673ffffffffffffffffffffffffffffffffffffffff16036113d75781806113d390613a62565b9250505b80806113e290613a62565b9150506112f8565b5060008167ffffffffffffffff81111561140757611406612dd3565b5b60405190808252806020026020018201604052801561144057816020015b61142d612a70565b8152602001906001900390816114255790505b509050600080600190505b6004548111611908578573ffffffffffffffffffffffffffffffffffffffff16600260008060009054906101000a900473ffffffffffffffffffffffffffffffffffffffff1673ffffffffffffffffffffffffffffffffffffffff1673ffffffffffffffffffffffffffffffffffffffff168152602001908152602001600020600083815260200190815260200160002060000160009054906101000a900473ffffffffffffffffffffffffffffffffffffffff1673ffffffffffffffffffffffffffffffffffffffff16036118f557600260008060009054906101000a900473ffffffffffffffffffffffffffffffffffffffff1673ffffffffffffffffffffffffffffffffffffffff1673ffffffffffffffffffffffffffffffffffffffff1681526020019081526020016000206000828152602001908152602001600020604051806101200160405290816000820160009054906101000a900473ffffffffffffffffffffffffffffffffffffffff1673ffffffffffffffffffffffffffffffffffffffff1673ffffffffffffffffffffffffffffffffffffffff168152602001600182015481526020016002820154815260200160038201805461161290613686565b80601f016020809104026020016040519081016040528092919081815260200182805461163e90613686565b801561168b5780601f106116605761010080835404028352916020019161168b565b820191906000526020600020905b81548152906001019060200180831161166e57829003601f168201915b505050505081526020016004820180546116a490613686565b80601f01602080910402602001604051908101604052809291908181526020018280546116d090613686565b801561171d5780601f106116f25761010080835404028352916020019161171d565b820191906000526020600020905b81548152906001019060200180831161170057829003601f168201915b505050505081526020016005820160009054906101000a900460ff161515151581526020016005820160019054906101000a900460ff161515151581526020016005820160029054906101000a900460ff1615151515815260200160068201805480602002602001604051908101604052809291908181526020016000905b828210156118c057838290600052602060002090600302016040518060800160405290816000820180546117cf90613686565b80601f01602080910402602001604051908101604052809291908181526020018280546117fb90613686565b80156118485780601f1061181d57610100808354040283529160200191611848565b820191906000526020600020905b81548152906001019060200180831161182b57829003601f168201915b50505050508152602001600182015481526020016002820160009054906101000a900460ff1660028111156118805761187f61309b565b5b60028111156118925761189161309b565b5b81526020016002820160019054906101000a900460ff1615151515815250508152602001906001019061179c565b50505050815250508383815181106118db576118da613b3f565b5b602002602001018190525081806118f190613a62565b9250505b808061190090613a62565b91505061144b565b50819350505050919050565b600073ffffffffffffffffffffffffffffffffffffffff163373ffffffffffffffffffffffffffffffffffffffff160361197a576040517f7a795c5600000000000000000000000000000000000000000000000000000000815260040160405180910390fd5b6000600260008060009054906101000a900473ffffffffffffffffffffffffffffffffffffffff1673ffffffffffffffffffffffffffffffffffffffff1673ffffffffffffffffffffffffffffffffffffffff168152602001908152602001600020600083815260200190815260200160002090508060000160009054906101000a900473ffffffffffffffffffffffffffffffffffffffff1673ffffffffffffffffffffffffffffffffffffffff163373ffffffffffffffffffffffffffffffffffffffff1614611a78576040517f6810116800000000000000000000000000000000000000000000000000000000815260040160405180910390fd5b6000816001015403611ab6576040517f7eed038200000000000000000000000000000000000000000000000000000000815260040160405180910390fd5b60008160060180549050905060005b81811015611d835760001515836006018281548110611ae757611ae6613b3f565b5b906000526020600020906003020160020160019054906101000a900460ff16151503611d7657600280811115611b2057611b1f61309b565b5b836006018281548110611b3657611b35613b3f565b5b906000526020600020906003020160020160009054906101000a900460ff166002811115611b6757611b6661309b565b5b03611d7557600160009054906101000a900473ffffffffffffffffffffffffffffffffffffffff1673ffffffffffffffffffffffffffffffffffffffff1663a9059cbb600260008060009054906101000a900473ffffffffffffffffffffffffffffffffffffffff1673ffffffffffffffffffffffffffffffffffffffff1673ffffffffffffffffffffffffffffffffffffffff168152602001908152602001600020600087815260200190815260200160002060000160009054906101000a900473ffffffffffffffffffffffffffffffffffffffff16600260008060009054906101000a900473ffffffffffffffffffffffffffffffffffffffff1673ffffffffffffffffffffffffffffffffffffffff1673ffffffffffffffffffffffffffffffffffffffff16815260200190815260200160002060008881526020019081526020016000206006018481548110611cc557611cc4613b3f565b5b9060005260206000209060030201600101546040518363ffffffff1660e01b8152600401611cf4929190613b6e565b6020604051808303816000875af1158015611d13573d6000803e3d6000fd5b505050506040513d601f19601f82011682018060405250810190611d379190613bc3565b5060011515836006018281548110611d5257611d51613b3f565b5b906000526020600020906003020160020160019054906101000a90505050611d83565b5b8080600101915050611ac5565b50505050565b6000600260008060009054906101000a900473ffffffffffffffffffffffffffffffffffffffff1673ffffffffffffffffffffffffffffffffffffffff1673ffffffffffffffffffffffffffffffffffffffff1681526020019081526020016000206000858152602001908152602001600020905080600601604051806080016040528085815260200184815260200160006002811115611e2d57611e2c61309b565b5b81526020016000151581525090806001815401808255809150506001900390600052602060002090600302016000909190919091506000820151816000019081611e779190613863565b506020820151816001015560408201518160020160006101000a81548160ff02191690836002811115611ead57611eac61309b565b5b021790555060608201518160020160016101000a81548160ff0219169083151502179055505050837fbf293db00f4de65b181a066ecc2f8bb81fb7174b517fd8085700e259ad00db1b8484604051611f06929190613bf0565b60405180910390a250505050565b6000600260008060009054906101000a900473ffffffffffffffffffffffffffffffffffffffff1673ffffffffffffffffffffffffffffffffffffffff1673ffffffffffffffffffffffffffffffffffffffff168152602001908152602001600020600083815260200190815260200160002090503373ffffffffffffffffffffffffffffffffffffffff168160000160009054906101000a900473ffffffffffffffffffffffffffffffffffffffff1673ffffffffffffffffffffffffffffffffffffffff1614612012576040517f44f3b42100000000000000000000000000000000000000000000000000000000815260040160405180910390fd5b6000600160009054906101000a900473ffffffffffffffffffffffffffffffffffffffff1673ffffffffffffffffffffffffffffffffffffffff166370a08231336040518263ffffffff1660e01b815260040161206f91906135cd565b602060405180830381865afa15801561208c573d6000803e3d6000fd5b505050506040513d601f19601f820116820180604052508101906120b09190613c35565b9050600260008060009054906101000a900473ffffffffffffffffffffffffffffffffffffffff1673ffffffffffffffffffffffffffffffffffffffff1673ffffffffffffffffffffffffffffffffffffffff168152602001908152602001600020600084815260200190815260200160002060010154811015612169576040517f08c379a000000000000000000000000000000000000000000000000000000000815260040161216090613cae565b60405180910390fd5b6001600260008060009054906101000a900473ffffffffffffffffffffffffffffffffffffffff1673ffffffffffffffffffffffffffffffffffffffff1673ffffffffffffffffffffffffffffffffffffffff168152602001908152602001600020600085815260200190815260200160002060050160016101000a81548160ff021916908315150217905550600160009054906101000a900473ffffffffffffffffffffffffffffffffffffffff1673ffffffffffffffffffffffffffffffffffffffff166323b872dd3330600260008060009054906101000a900473ffffffffffffffffffffffffffffffffffffffff1673ffffffffffffffffffffffffffffffffffffffff1673ffffffffffffffffffffffffffffffffffffffff1681526020019081526020016000206000888152602001908152602001600020600101546040518463ffffffff1660e01b81526004016122c993929190613cce565b6020604051808303816000875af11580156122e8573d6000803e3d6000fd5b505050506040513d601f19601f8201168201806040525081019061230c9190613bc3565b50505050565b600073ffffffffffffffffffffffffffffffffffffffff163373ffffffffffffffffffffffffffffffffffffffff1603612378576040517f7a795c5600000000000000000000000000000000000000000000000000000000815260040160405180910390fd5b6000600260008060009054906101000a900473ffffffffffffffffffffffffffffffffffffffff1673ffffffffffffffffffffffffffffffffffffffff1673ffffffffffffffffffffffffffffffffffffffff168152602001908152602001600020600083815260200190815260200160002090503373ffffffffffffffffffffffffffffffffffffffff168160000160009054906101000a900473ffffffffffffffffffffffffffffffffffffffff1673ffffffffffffffffffffffffffffffffffffffff1614612476576040517f5169e01000000000000000000000000000000000000000000000000000000000815260040160405180910390fd5b60018160050160026101000a81548160ff0219169083151502179055503373ffffffffffffffffffffffffffffffffffffffff167fd3ec1db989d7a04f562031e02001f88781a3bc555a5608a288acccae5b50e86f836040516124d99190612fb1565b60405180910390a25050565b600160009054906101000a900473ffffffffffffffffffffffffffffffffffffffff1681565b6000600360008373ffffffffffffffffffffffffffffffffffffffff1673ffffffffffffffffffffffffffffffffffffffff168152602001908152602001600020549050919050565b606060008267ffffffffffffffff81111561257257612571612dd3565b5b6040519080825280602002602001820160405280156125ab57816020015b612598612a70565b8152602001906001900390816125905790505b5090506000600190505b83811161298557600260003373ffffffffffffffffffffffffffffffffffffffff1673ffffffffffffffffffffffffffffffffffffffff1681526020019081526020016000206000828152602001908152602001600020604051806101200160405290816000820160009054906101000a900473ffffffffffffffffffffffffffffffffffffffff1673ffffffffffffffffffffffffffffffffffffffff1673ffffffffffffffffffffffffffffffffffffffff168152602001600182015481526020016002820154815260200160038201805461269290613686565b80601f01602080910402602001604051908101604052809291908181526020018280546126be90613686565b801561270b5780601f106126e05761010080835404028352916020019161270b565b820191906000526020600020905b8154815290600101906020018083116126ee57829003601f168201915b5050505050815260200160048201805461272490613686565b80601f016020809104026020016040519081016040528092919081815260200182805461275090613686565b801561279d5780601f106127725761010080835404028352916020019161279d565b820191906000526020600020905b81548152906001019060200180831161278057829003601f168201915b505050505081526020016005820160009054906101000a900460ff161515151581526020016005820160019054906101000a900460ff161515151581526020016005820160029054906101000a900460ff1615151515815260200160068201805480602002602001604051908101604052809291908181526020016000905b82821015612940578382906000526020600020906003020160405180608001604052908160008201805461284f90613686565b80601f016020809104026020016040519081016040528092919081815260200182805461287b90613686565b80156128c85780601f1061289d576101008083540402835291602001916128c8565b820191906000526020600020905b8154815290600101906020018083116128ab57829003601f168201915b50505050508152602001600182015481526020016002820160009054906101000a900460ff166002811115612900576128ff61309b565b5b60028111156129125761291161309b565b5b81526020016002820160019054906101000a900460ff1615151515815250508152602001906001019061281c565b5050505081525050826001836129569190613d05565b8151811061296757612966613b3f565b5b6020026020010181905250808061297d90613a62565b9150506125b5565b5080915050919050565b828054828255906000526020600020906003028101928215612a5f5760005260206000209160030282015b82811115612a5e578282600082018160000190816129d8919061394b565b50600182015481600101556002820160009054906101000a900460ff168160020160006101000a81548160ff02191690836002811115612a1b57612a1a61309b565b5b02179055506002820160019054906101000a900460ff168160020160016101000a81548160ff0219169083151502179055505050916003019190600301906129ba565b5b509050612a6c9190612ad8565b5090565b604051806101200160405280600073ffffffffffffffffffffffffffffffffffffffff16815260200160008152602001600081526020016060815260200160608152602001600015158152602001600015158152602001600015158152602001606081525090565b5b80821115612b2b5760008082016000612af29190612b2f565b60018201600090556002820160006101000a81549060ff02191690556002820160016101000a81549060ff021916905550600301612ad9565b5090565b508054612b3b90613686565b6000825580601f10612b4d5750612b6c565b601f016020900490600052602060002090810190612b6b9190612b6f565b5b50565b5b80821115612b88576000816000905550600101612b70565b5090565b6000604051905090565b600080fd5b600080fd5b600073ffffffffffffffffffffffffffffffffffffffff82169050919050565b6000612bcb82612ba0565b9050919050565b612bdb81612bc0565b8114612be657600080fd5b50565b600081359050612bf881612bd2565b92915050565b6000819050919050565b612c1181612bfe565b8114612c1c57600080fd5b50565b600081359050612c2e81612c08565b92915050565b60008060408385031215612c4b57612c4a612b96565b5b6000612c5985828601612be9565b9250506020612c6a85828601612c1f565b9150509250929050565b612c7d81612bc0565b82525050565b612c8c81612bfe565b82525050565b600081519050919050565b600082825260208201905092915050565b60005b83811015612ccc578082015181840152602081019050612cb1565b60008484015250505050565b6000601f19601f8301169050919050565b6000612cf482612c92565b612cfe8185612c9d565b9350612d0e818560208601612cae565b612d1781612cd8565b840191505092915050565b60008115159050919050565b612d3781612d22565b82525050565b600061010082019050612d53600083018b612c74565b612d60602083018a612c83565b612d6d6040830189612c83565b8181036060830152612d7f8188612ce9565b90508181036080830152612d938187612ce9565b9050612da260a0830186612d2e565b612daf60c0830185612d2e565b612dbc60e0830184612d2e565b9998505050505050505050565b600080fd5b600080fd5b7f4e487b7100000000000000000000000000000000000000000000000000000000600052604160045260246000fd5b612e0b82612cd8565b810181811067ffffffffffffffff82111715612e2a57612e29612dd3565b5b80604052505050565b6000612e3d612b8c565b9050612e498282612e02565b919050565b600067ffffffffffffffff821115612e6957612e68612dd3565b5b612e7282612cd8565b9050602081019050919050565b82818337600083830152505050565b6000612ea1612e9c84612e4e565b612e33565b905082815260208101848484011115612ebd57612ebc612dce565b5b612ec8848285612e7f565b509392505050565b600082601f830112612ee557612ee4612dc9565b5b8135612ef5848260208601612e8e565b91505092915050565b600080600080600060a08688031215612f1a57612f19612b96565b5b6000612f2888828901612be9565b9550506020612f3988828901612c1f565b9450506040612f4a88828901612c1f565b935050606086013567ffffffffffffffff811115612f6b57612f6a612b9b565b5b612f7788828901612ed0565b925050608086013567ffffffffffffffff811115612f9857612f97612b9b565b5b612fa488828901612ed0565b9150509295509295909350565b6000602082019050612fc66000830184612c83565b92915050565b600081519050919050565b600082825260208201905092915050565b6000819050602082019050919050565b61300181612bc0565b82525050565b61301081612bfe565b82525050565b600082825260208201905092915050565b600061303282612c92565b61303c8185613016565b935061304c818560208601612cae565b61305581612cd8565b840191505092915050565b61306981612d22565b82525050565b600081519050919050565b600082825260208201905092915050565b6000819050602082019050919050565b7f4e487b7100000000000000000000000000000000000000000000000000000000600052602160045260246000fd5b600381106130db576130da61309b565b5b50565b60008190506130ec826130ca565b919050565b60006130fc826130de565b9050919050565b61310c816130f1565b82525050565b6000608083016000830151848203600086015261312f8282613027565b91505060208301516131446020860182613007565b5060408301516131576040860182613103565b50606083015161316a6060860182613060565b508091505092915050565b60006131818383613112565b905092915050565b6000602082019050919050565b60006131a18261306f565b6131ab818561307a565b9350836020820285016131bd8561308b565b8060005b858110156131f957848403895281516131da8582613175565b94506131e583613189565b925060208a019950506001810190506131c1565b50829750879550505050505092915050565b6000610120830160008301516132246000860182612ff8565b5060208301516132376020860182613007565b50604083015161324a6040860182613007565b50606083015184820360608601526132628282613027565b9150506080830151848203608086015261327c8282613027565b91505060a083015161329160a0860182613060565b5060c08301516132a460c0860182613060565b5060e08301516132b760e0860182613060565b506101008301518482036101008601526132d18282613196565b9150508091505092915050565b60006132ea838361320b565b905092915050565b6000602082019050919050565b600061330a82612fcc565b6133148185612fd7565b93508360208202850161332685612fe8565b8060005b85811015613362578484038952815161334385826132de565b945061334e836132f2565b925060208a0199505060018101905061332a565b50829750879550505050505092915050565b6000602082019050818103600083015261338e81846132ff565b905092915050565b6000602082840312156133ac576133ab612b96565b5b60006133ba84828501612c1f565b91505092915050565b6000610120830160008301516133dc6000860182612ff8565b5060208301516133ef6020860182613007565b5060408301516134026040860182613007565b506060830151848203606086015261341a8282613027565b915050608083015184820360808601526134348282613027565b91505060a083015161344960a0860182613060565b5060c083015161345c60c0860182613060565b5060e083015161346f60e0860182613060565b506101008301518482036101008601526134898282613196565b9150508091505092915050565b600060208201905081810360008301526134b081846133c3565b905092915050565b600082825260208201905092915050565b60006134d48261306f565b6134de81856134b8565b9350836020820285016134f08561308b565b8060005b8581101561352c578484038952815161350d8582613175565b945061351883613189565b925060208a019950506001810190506134f4565b50829750879550505050505092915050565b6000602082019050818103600083015261355881846134c9565b905092915050565b60006020828403121561357657613575612b96565b5b600061358484828501612be9565b91505092915050565b600080604083850312156135a4576135a3612b96565b5b60006135b285828601612c1f565b92505060206135c385828601612c1f565b9150509250929050565b60006020820190506135e26000830184612c74565b92915050565b60008060006060848603121561360157613600612b96565b5b600061360f86828701612c1f565b935050602084013567ffffffffffffffff8111156136305761362f612b9b565b5b61363c86828701612ed0565b925050604061364d86828701612c1f565b9150509250925092565b7f4e487b7100000000000000000000000000000000000000000000000000000000600052602260045260246000fd5b6000600282049050600182168061369e57607f821691505b6020821081036136b1576136b0613657565b5b50919050565b60008190508160005260206000209050919050565b60006020601f8301049050919050565b600082821b905092915050565b6000600883026137197fffffffffffffffffffffffffffffffffffffffffffffffffffffffffffffffff826136dc565b61372386836136dc565b95508019841693508086168417925050509392505050565b6000819050919050565b600061376061375b61375684612bfe565b61373b565b612bfe565b9050919050565b6000819050919050565b61377a83613745565b61378e61378682613767565b8484546136e9565b825550505050565b600090565b6137a3613796565b6137ae818484613771565b505050565b5b818110156137d2576137c760008261379b565b6001810190506137b4565b5050565b601f821115613817576137e8816136b7565b6137f1846136cc565b81016020851015613800578190505b61381461380c856136cc565b8301826137b3565b50505b505050565b600082821c905092915050565b600061383a6000198460080261381c565b1980831691505092915050565b60006138538383613829565b9150826002028217905092915050565b61386c82612c92565b67ffffffffffffffff81111561388557613884612dd3565b5b61388f8254613686565b61389a8282856137d6565b600060209050601f8311600181146138cd57600084156138bb578287015190505b6138c58582613847565b86555061392d565b601f1984166138db866136b7565b60005b82811015613903578489015182556001820191506020850194506020810190506138de565b86831015613920578489015161391c601f891682613829565b8355505b6001600288020188555050505b505050505050565b60008154905061394481613686565b9050919050565b818103613959575050613a31565b61396282613935565b67ffffffffffffffff81111561397b5761397a612dd3565b5b6139858254613686565b6139908282856137d6565b6000601f8311600181146139bf57600084156139ad578287015490505b6139b78582613847565b865550613a2a565b601f1984166139cd876136b7565b96506139d8866136b7565b60005b82811015613a00578489015482556001820191506001850194506020810190506139db565b86831015613a1d5784890154613a19601f891682613829565b8355505b6001600288020188555050505b5050505050505b565b7f4e487b7100000000000000000000000000000000000000000000000000000000600052601160045260246000fd5b6000613a6d82612bfe565b91507fffffffffffffffffffffffffffffffffffffffffffffffffffffffffffffffff8203613a9f57613a9e613a33565b5b600182019050919050565b6000604082019050613abf6000830185612c83565b613acc6020830184612c83565b9392505050565b7f496e76616c6964206d696c6573746f6e6520696e646578000000000000000000600082015250565b6000613b09601783612c9d565b9150613b1482613ad3565b602082019050919050565b60006020820190508181036000830152613b3881613afc565b9050919050565b7f4e487b7100000000000000000000000000000000000000000000000000000000600052603260045260246000fd5b6000604082019050613b836000830185612c74565b613b906020830184612c83565b9392505050565b613ba081612d22565b8114613bab57600080fd5b50565b600081519050613bbd81613b97565b92915050565b600060208284031215613bd957613bd8612b96565b5b6000613be784828501613bae565b91505092915050565b60006040820190508181036000830152613c0a8185612ce9565b9050613c196020830184612c83565b9392505050565b600081519050613c2f81612c08565b92915050565b600060208284031215613c4b57613c4a612b96565b5b6000613c5984828501613c20565b91505092915050565b7f496e73756666696369656e742062616c616e6365000000000000000000000000600082015250565b6000613c98601483612c9d565b9150613ca382613c62565b602082019050919050565b60006020820190508181036000830152613cc781613c8b565b9050919050565b6000606082019050613ce36000830186612c74565b613cf06020830185612c74565b613cfd6040830184612c83565b949350505050565b6000613d1082612bfe565b9150613d1b83612bfe565b9250828203905081811115613d3357613d32613a33565b5b9291505056fea2646970667358221220efe7fb682832eae8692fb0c75b5f6554dde14a5b17d521a15989221c91ce68ce64736f6c63430008180033a2646970667358221220ce8616fab5f1c0f2e8e31208e2a66bd45ad77bc6914496a7c733556b8dee0d6464736f6c63430008180033",
  "linkReferences": {},
  "deployedLinkReferences": {}
}