{
  "_format": "hh-sol-artifact-1",
  "contractName": "PayNVoiceFactory",
  "sourceName": "contracts/invoiceFactory.sol",
  "abi": [
    {
      "inputs": [
        {
          "internalType": "address",
          "name": "tokAddress",
          "type": "address"
        }
      ],
      "name": "createInvoice",
      "outputs": [
        {
          "internalType": "contract PayNVoice",
          "name": "newInvoice_",
          "type": "address"
        },
        {
          "internalType": "uint256",
          "name": "length_",
          "type": "uint256"
        }
      ],
      "stateMutability": "nonpayable",
      "type": "function"
    },
    {
      "inputs": [
        {
          "internalType": "uint256",
          "name": "_index",
          "type": "uint256"
        }
      ],
      "name": "getANInvoiceClone",
      "outputs": [
        {
          "internalType": "contract PayNVoice",
          "name": "",
          "type": "address"
        }
      ],
      "stateMutability": "view",
      "type": "function"
    },
    {
      "inputs": [],
      "name": "getInvoiceClones",
      "outputs": [
        {
          "internalType": "contract PayNVoice[]",
          "name": "",
          "type": "address[]"
        }
      ],
      "stateMutability": "view",
      "type": "function"
    },
    {
      "inputs": [
        {
          "internalType": "uint256",
          "name": "",
          "type": "uint256"
        }
      ],
      "name": "invoiceClones",
      "outputs": [
        {
          "internalType": "contract PayNVoice",
          "name": "",
          "type": "address"
        }
      ],
      "stateMutability": "view",
      "type": "function"
    }
  ],
  "bytecode": "0x608060405234801561001057600080fd5b50614984806100206000396000f3fe608060405234801561001057600080fd5b506004361061004c5760003560e01c80632395517e1461005157806386e229b1146100815780638a374ad61461009f578063b7f78520146100d0575b600080fd5b61006b60048036038101906100669190610306565b610100565b60405161007891906103b2565b60405180910390f35b61008961013f565b604051610096919061048b565b60405180910390f35b6100b960048036038101906100b491906104eb565b6101cd565b6040516100c7929190610527565b60405180910390f35b6100ea60048036038101906100e59190610306565b610276565b6040516100f791906103b2565b60405180910390f35b6000818154811061011057600080fd5b906000526020600020016000915054906101000a900473ffffffffffffffffffffffffffffffffffffffff1681565b606060008054806020026020016040519081016040528092919081815260200182805480156101c357602002820191906000526020600020905b8160009054906101000a900473ffffffffffffffffffffffffffffffffffffffff1673ffffffffffffffffffffffffffffffffffffffff1681526020019060010190808311610179575b5050505050905090565b600080826040516101dd906102bd565b6101e7919061055f565b604051809103906000f080158015610203573d6000803e3d6000fd5b5091506000829080600181540180825580915050600190039060005260206000200160009091909190916101000a81548173ffffffffffffffffffffffffffffffffffffffff021916908373ffffffffffffffffffffffffffffffffffffffff1602179055506000805490509050915091565b600080828154811061028b5761028a61057a565b5b9060005260206000200160009054906101000a900473ffffffffffffffffffffffffffffffffffffffff169050919050565b6143a580620005aa83390190565b600080fd5b6000819050919050565b6102e3816102d0565b81146102ee57600080fd5b50565b600081359050610300816102da565b92915050565b60006020828403121561031c5761031b6102cb565b5b600061032a848285016102f1565b91505092915050565b600073ffffffffffffffffffffffffffffffffffffffff82169050919050565b6000819050919050565b600061037861037361036e84610333565b610353565b610333565b9050919050565b600061038a8261035d565b9050919050565b600061039c8261037f565b9050919050565b6103ac81610391565b82525050565b60006020820190506103c760008301846103a3565b92915050565b600081519050919050565b600082825260208201905092915050565b6000819050602082019050919050565b61040281610391565b82525050565b600061041483836103f9565b60208301905092915050565b6000602082019050919050565b6000610438826103cd565b61044281856103d8565b935061044d836103e9565b8060005b8381101561047e5781516104658882610408565b975061047083610420565b925050600181019050610451565b5085935050505092915050565b600060208201905081810360008301526104a5818461042d565b905092915050565b60006104b882610333565b9050919050565b6104c8816104ad565b81146104d357600080fd5b50565b6000813590506104e5816104bf565b92915050565b600060208284031215610501576105006102cb565b5b600061050f848285016104d6565b91505092915050565b610521816102d0565b82525050565b600060408201905061053c60008301856103a3565b6105496020830184610518565b9392505050565b610559816104ad565b82525050565b60006020820190506105746000830184610550565b92915050565b7f4e487b7100000000000000000000000000000000000000000000000000000000600052603260045260246000fdfe60806040526005600160146101000a81548160ff021916908360ff16021790555060016004553480156200003257600080fd5b50604051620043a5380380620043a5833981810160405281019062000058919062000218565b600073ffffffffffffffffffffffffffffffffffffffff163373ffffffffffffffffffffffffffffffffffffffff1603620000bf576040517f5f252daf00000000000000000000000000000000000000000000000000000000815260040160405180910390fd5b600073ffffffffffffffffffffffffffffffffffffffff168173ffffffffffffffffffffffffffffffffffffffff160362000126576040517f5f252daf00000000000000000000000000000000000000000000000000000000815260040160405180910390fd5b336000806101000a81548173ffffffffffffffffffffffffffffffffffffffff021916908373ffffffffffffffffffffffffffffffffffffffff16021790555080600160006101000a81548173ffffffffffffffffffffffffffffffffffffffff021916908373ffffffffffffffffffffffffffffffffffffffff160217905550506200024a565b600080fd5b600073ffffffffffffffffffffffffffffffffffffffff82169050919050565b6000620001e082620001b3565b9050919050565b620001f281620001d3565b8114620001fe57600080fd5b50565b6000815190506200021281620001e7565b92915050565b600060208284031215620002315762000230620001ae565b5b6000620002418482850162000201565b91505092915050565b61414b806200025a6000396000f3fe608060405234801561001057600080fd5b50600436106100f55760003560e01c80635cae48f51161009757806398df912e1161006657806398df912e146102b1578063d16c0d4e146102cd578063f3c3d215146102e9578063f835cd3c14610305576100f5565b80635cae48f51461022b57806368a93d2d146102475780637a465219146102655780638beed0f814610295576100f5565b80633141da53116100d35780633141da531461017d5780633a23cc0a1461019b57806342c549c0146101cb5780634b7535d9146101fb576100f5565b80630dad62fa146100fa57806327f6771414610131578063294e70d21461014d575b600080fd5b610114600480360381019061010f9190612db0565b610323565b604051610128989796959493929190612eb9565b60405180910390f35b61014b60048036038101906101469190612f45565b6104cf565b005b610167600480360381019061016291906130cd565b610524565b6040516101749190613180565b60405180910390f35b610185610986565b6040516101929190613543565b60405180910390f35b6101b560048036038101906101b09190613565565b610b1a565b6040516101c29190613665565b60405180910390f35b6101e560048036038101906101e09190613565565b610f8a565b6040516101f2919061370d565b60405180910390f35b6102156004803603810190610210919061372f565b61114f565b6040516102229190613180565b60405180910390f35b6102456004803603810190610240919061375c565b611167565b005b61024f6112b8565b60405161025c919061379c565b60405180910390f35b61027f600480360381019061027a919061372f565b6112dc565b60405161028c9190613543565b60405180910390f35b6102af60048036038101906102aa9190613565565b611902565b005b6102cb60048036038101906102c691906137b7565b611dd5565b005b6102e760048036038101906102e2919061375c565b611f60565b005b61030360048036038101906102fe9190613565565b6123ab565b005b61030d61257e565b60405161031a919061379c565b60405180910390f35b6002602052816000526040600020602052806000526040600020600091509150508060000160009054906101000a900473ffffffffffffffffffffffffffffffffffffffff169080600101549080600201549080600301805461038590613855565b80601f01602080910402602001604051908101604052809291908181526020018280546103b190613855565b80156103fe5780601f106103d3576101008083540402835291602001916103fe565b820191906000526020600020905b8154815290600101906020018083116103e157829003601f168201915b50505050509080600401805461041390613855565b80601f016020809104026020016040519081016040528092919081815260200182805461043f90613855565b801561048c5780601f106104615761010080835404028352916020019161048c565b820191906000526020600020905b81548152906001019060200180831161046f57829003601f168201915b5050505050908060050160009054906101000a900460ff16908060050160019054906101000a900460ff16908060050160029054906101000a900460ff16905088565b8173ffffffffffffffffffffffffffffffffffffffff167f1c2934a9876c21213c8c5214b30ed4d3746b82e17ee23221937968711d05471e8483604051610517929190613886565b60405180910390a2505050565b60008073ffffffffffffffffffffffffffffffffffffffff163373ffffffffffffffffffffffffffffffffffffffff160361058b576040517f5f252daf00000000000000000000000000000000000000000000000000000000815260040160405180910390fd5b60008054906101000a900473ffffffffffffffffffffffffffffffffffffffff1673ffffffffffffffffffffffffffffffffffffffff163373ffffffffffffffffffffffffffffffffffffffff1614610610576040517f5915277700000000000000000000000000000000000000000000000000000000815260040160405180910390fd5b600061061b866125a4565b905060045491506000600260008060009054906101000a900473ffffffffffffffffffffffffffffffffffffffff1673ffffffffffffffffffffffffffffffffffffffff1673ffffffffffffffffffffffffffffffffffffffff16815260200190815260200160002060008481526020019081526020016000209050878160000160006101000a81548173ffffffffffffffffffffffffffffffffffffffff021916908373ffffffffffffffffffffffffffffffffffffffff160217905550818160010181905550858160020181905550848160030190816106fd9190613a5b565b508381600401908161070f9190613a5b565b5080600260003373ffffffffffffffffffffffffffffffffffffffff1673ffffffffffffffffffffffffffffffffffffffff16815260200190815260200160002060008581526020019081526020016000206000820160009054906101000a900473ffffffffffffffffffffffffffffffffffffffff168160000160006101000a81548173ffffffffffffffffffffffffffffffffffffffff021916908373ffffffffffffffffffffffffffffffffffffffff1602179055506001820154816001015560028201548160020155600382018160030190816107f09190613b43565b50600482018160040190816108059190613b43565b506005820160009054906101000a900460ff168160050160006101000a81548160ff0219169083151502179055506005820160019054906101000a900460ff168160050160016101000a81548160ff0219169083151502179055506005820160029054906101000a900460ff168160050160026101000a81548160ff02191690831515021790555060068201816006019080546108a3929190612b0b565b50905050600360003373ffffffffffffffffffffffffffffffffffffffff1673ffffffffffffffffffffffffffffffffffffffff16815260200190815260200160002060008154809291906108f790613c5a565b91905055506004600081548092919061090f90613c5a565b91905055508773ffffffffffffffffffffffffffffffffffffffff163373ffffffffffffffffffffffffffffffffffffffff167f88fb90d9d534f2792ee5650e3a21b58a53c91bb4155553be08ee1e83b7860aa58986604051610973929190613886565b60405180910390a3505095945050505050565b6060600073ffffffffffffffffffffffffffffffffffffffff163373ffffffffffffffffffffffffffffffffffffffff16036109ee576040517f5f252daf00000000000000000000000000000000000000000000000000000000815260040160405180910390fd5b606060008054906101000a900473ffffffffffffffffffffffffffffffffffffffff1673ffffffffffffffffffffffffffffffffffffffff163373ffffffffffffffffffffffffffffffffffffffff1603610a9e576000610a4e336125de565b905060016004541015610a8d576040517f9df573ea00000000000000000000000000000000000000000000000000000000815260040160405180910390fd5b610a9681612627565b915050610b13565b6000610ac960008054906101000a900473ffffffffffffffffffffffffffffffffffffffff166125de565b90506001811015610b06576040517f9df573ea00000000000000000000000000000000000000000000000000000000815260040160405180910390fd5b610b0f81612627565b9150505b8091505090565b610b22612bec565b600073ffffffffffffffffffffffffffffffffffffffff163373ffffffffffffffffffffffffffffffffffffffff1603610b88576040517f5f252daf00000000000000000000000000000000000000000000000000000000815260040160405180910390fd5b600260008060009054906101000a900473ffffffffffffffffffffffffffffffffffffffff1673ffffffffffffffffffffffffffffffffffffffff1673ffffffffffffffffffffffffffffffffffffffff1681526020019081526020016000206000838152602001908152602001600020604051806101200160405290816000820160009054906101000a900473ffffffffffffffffffffffffffffffffffffffff1673ffffffffffffffffffffffffffffffffffffffff1673ffffffffffffffffffffffffffffffffffffffff1681526020016001820154815260200160028201548152602001600382018054610c7f90613855565b80601f0160208091040260200160405190810160405280929190818152602001828054610cab90613855565b8015610cf85780601f10610ccd57610100808354040283529160200191610cf8565b820191906000526020600020905b815481529060010190602001808311610cdb57829003601f168201915b50505050508152602001600482018054610d1190613855565b80601f0160208091040260200160405190810160405280929190818152602001828054610d3d90613855565b8015610d8a5780601f10610d5f57610100808354040283529160200191610d8a565b820191906000526020600020905b815481529060010190602001808311610d6d57829003601f168201915b505050505081526020016005820160009054906101000a900460ff161515151581526020016005820160019054906101000a900460ff161515151581526020016005820160029054906101000a900460ff1615151515815260200160068201805480602002602001604051908101604052809291908181526020016000905b82821015610f2d5783829060005260206000209060030201604051806080016040529081600082018054610e3c90613855565b80601f0160208091040260200160405190810160405280929190818152602001828054610e6890613855565b8015610eb55780601f10610e8a57610100808354040283529160200191610eb5565b820191906000526020600020905b815481529060010190602001808311610e9857829003601f168201915b50505050508152602001600182015481526020016002820160009054906101000a900460ff166002811115610eed57610eec61326a565b5b6002811115610eff57610efe61326a565b5b81526020016002820160019054906101000a900460ff16151515158152505081526020019060010190610e09565b505050508152505090503373ffffffffffffffffffffffffffffffffffffffff167f4b91f05e4e767e5e8d10a7a3636995feb5ad4f56c1a75c977090f2b313be6d9483604051610f7d9190613180565b60405180910390a2919050565b6060600260008060009054906101000a900473ffffffffffffffffffffffffffffffffffffffff1673ffffffffffffffffffffffffffffffffffffffff1673ffffffffffffffffffffffffffffffffffffffff1681526020019081526020016000206000838152602001908152602001600020600601805480602002602001604051908101604052809291908181526020016000905b82821015611144578382906000526020600020906003020160405180608001604052908160008201805461105390613855565b80601f016020809104026020016040519081016040528092919081815260200182805461107f90613855565b80156110cc5780601f106110a1576101008083540402835291602001916110cc565b820191906000526020600020905b8154815290600101906020018083116110af57829003601f168201915b50505050508152602001600182015481526020016002820160009054906101000a900460ff1660028111156111045761110361326a565b5b60028111156111165761111561326a565b5b81526020016002820160019054906101000a900460ff16151515158152505081526020019060010190611020565b505050509050919050565b60036020528060005260406000206000915090505481565b6000600260008060009054906101000a900473ffffffffffffffffffffffffffffffffffffffff1673ffffffffffffffffffffffffffffffffffffffff1673ffffffffffffffffffffffffffffffffffffffff1681526020019081526020016000206000848152602001908152602001600020905080600601805490508210611225576040517f08c379a000000000000000000000000000000000000000000000000000000000815260040161121c90613cee565b60405180910390fd5b600081600601838154811061123d5761123c613d0e565b5b9060005260206000209060030201905060018160020160006101000a81548160ff021916908360028111156112755761127461326a565b5b0217905550837f1b7218c0ac23ea9cbe4df603d2b340fbf469a115b73ea3d11460727f445d6be1846040516112aa9190613180565b60405180910390a250505050565b60008054906101000a900473ffffffffffffffffffffffffffffffffffffffff1681565b6060600080600190505b60045481116113d8578373ffffffffffffffffffffffffffffffffffffffff16600260008060009054906101000a900473ffffffffffffffffffffffffffffffffffffffff1673ffffffffffffffffffffffffffffffffffffffff1673ffffffffffffffffffffffffffffffffffffffff168152602001908152602001600020600083815260200190815260200160002060000160009054906101000a900473ffffffffffffffffffffffffffffffffffffffff1673ffffffffffffffffffffffffffffffffffffffff16036113c55781806113c190613c5a565b9250505b80806113d090613c5a565b9150506112e6565b5060008167ffffffffffffffff8111156113f5576113f4612fa2565b5b60405190808252806020026020018201604052801561142e57816020015b61141b612bec565b8152602001906001900390816114135790505b509050600080600190505b60045481116118f6578573ffffffffffffffffffffffffffffffffffffffff16600260008060009054906101000a900473ffffffffffffffffffffffffffffffffffffffff1673ffffffffffffffffffffffffffffffffffffffff1673ffffffffffffffffffffffffffffffffffffffff168152602001908152602001600020600083815260200190815260200160002060000160009054906101000a900473ffffffffffffffffffffffffffffffffffffffff1673ffffffffffffffffffffffffffffffffffffffff16036118e357600260008060009054906101000a900473ffffffffffffffffffffffffffffffffffffffff1673ffffffffffffffffffffffffffffffffffffffff1673ffffffffffffffffffffffffffffffffffffffff1681526020019081526020016000206000828152602001908152602001600020604051806101200160405290816000820160009054906101000a900473ffffffffffffffffffffffffffffffffffffffff1673ffffffffffffffffffffffffffffffffffffffff1673ffffffffffffffffffffffffffffffffffffffff168152602001600182015481526020016002820154815260200160038201805461160090613855565b80601f016020809104026020016040519081016040528092919081815260200182805461162c90613855565b80156116795780601f1061164e57610100808354040283529160200191611679565b820191906000526020600020905b81548152906001019060200180831161165c57829003601f168201915b5050505050815260200160048201805461169290613855565b80601f01602080910402602001604051908101604052809291908181526020018280546116be90613855565b801561170b5780601f106116e05761010080835404028352916020019161170b565b820191906000526020600020905b8154815290600101906020018083116116ee57829003601f168201915b505050505081526020016005820160009054906101000a900460ff161515151581526020016005820160019054906101000a900460ff161515151581526020016005820160029054906101000a900460ff1615151515815260200160068201805480602002602001604051908101604052809291908181526020016000905b828210156118ae57838290600052602060002090600302016040518060800160405290816000820180546117bd90613855565b80601f01602080910402602001604051908101604052809291908181526020018280546117e990613855565b80156118365780601f1061180b57610100808354040283529160200191611836565b820191906000526020600020905b81548152906001019060200180831161181957829003601f168201915b50505050508152602001600182015481526020016002820160009054906101000a900460ff16600281111561186e5761186d61326a565b5b60028111156118805761187f61326a565b5b81526020016002820160019054906101000a900460ff1615151515815250508152602001906001019061178a565b50505050815250508383815181106118c9576118c8613d0e565b5b602002602001018190525081806118df90613c5a565b9250505b80806118ee90613c5a565b915050611439565b50819350505050919050565b600073ffffffffffffffffffffffffffffffffffffffff163373ffffffffffffffffffffffffffffffffffffffff1603611968576040517f5f252daf00000000000000000000000000000000000000000000000000000000815260040160405180910390fd5b6000600260008060009054906101000a900473ffffffffffffffffffffffffffffffffffffffff1673ffffffffffffffffffffffffffffffffffffffff1673ffffffffffffffffffffffffffffffffffffffff168152602001908152602001600020600083815260200190815260200160002090508060000160009054906101000a900473ffffffffffffffffffffffffffffffffffffffff1673ffffffffffffffffffffffffffffffffffffffff163373ffffffffffffffffffffffffffffffffffffffff1614611a66576040517f6810116800000000000000000000000000000000000000000000000000000000815260040160405180910390fd5b6000816001015403611aa4576040517f7eed038200000000000000000000000000000000000000000000000000000000815260040160405180910390fd5b60008160060180549050905060005b81811015611dcf5760001515836006018281548110611ad557611ad4613d0e565b5b906000526020600020906003020160020160019054906101000a900460ff16151503611dc257600280811115611b0e57611b0d61326a565b5b836006018281548110611b2457611b23613d0e565b5b906000526020600020906003020160020160009054906101000a900460ff166002811115611b5557611b5461326a565b5b03611dc157600160009054906101000a900473ffffffffffffffffffffffffffffffffffffffff1673ffffffffffffffffffffffffffffffffffffffff1663a9059cbb600260008060009054906101000a900473ffffffffffffffffffffffffffffffffffffffff1673ffffffffffffffffffffffffffffffffffffffff1673ffffffffffffffffffffffffffffffffffffffff168152602001908152602001600020600087815260200190815260200160002060000160009054906101000a900473ffffffffffffffffffffffffffffffffffffffff16600260008060009054906101000a900473ffffffffffffffffffffffffffffffffffffffff1673ffffffffffffffffffffffffffffffffffffffff1673ffffffffffffffffffffffffffffffffffffffff16815260200190815260200160002060008881526020019081526020016000206006018481548110611cb357611cb2613d0e565b5b9060005260206000209060030201600101546040518363ffffffff1660e01b8152600401611ce2929190613d3d565b6020604051808303816000875af1158015611d01573d6000803e3d6000fd5b505050506040513d601f19601f82011682018060405250810190611d259190613d92565b506001836006018281548110611d3e57611d3d613d0e565b5b906000526020600020906003020160020160016101000a81548160ff021916908315150217905550611dbc818460000160009054906101000a900473ffffffffffffffffffffffffffffffffffffffff16856006018481548110611da557611da4613d0e565b5b9060005260206000209060030201600101546104cf565b611dcf565b5b8080600101915050611ab3565b50505050565b6000600260008060009054906101000a900473ffffffffffffffffffffffffffffffffffffffff1673ffffffffffffffffffffffffffffffffffffffff1673ffffffffffffffffffffffffffffffffffffffff1681526020019081526020016000206000858152602001908152602001600020905080600601604051806080016040528085815260200184815260200160006002811115611e7957611e7861326a565b5b81526020016000151581525090806001815401808255809150506001900390600052602060002090600302016000909190919091506000820151816000019081611ec39190613a5b565b506020820151816001015560408201518160020160006101000a81548160ff02191690836002811115611ef957611ef861326a565b5b021790555060608201518160020160016101000a81548160ff0219169083151502179055505050837fbf293db00f4de65b181a066ecc2f8bb81fb7174b517fd8085700e259ad00db1b8484604051611f52929190613dbf565b60405180910390a250505050565b600073ffffffffffffffffffffffffffffffffffffffff163373ffffffffffffffffffffffffffffffffffffffff1603611fc6576040517f5f252daf00000000000000000000000000000000000000000000000000000000815260040160405180910390fd5b6000600260008060009054906101000a900473ffffffffffffffffffffffffffffffffffffffff1673ffffffffffffffffffffffffffffffffffffffff1673ffffffffffffffffffffffffffffffffffffffff168152602001908152602001600020600084815260200190815260200160002090508060000160009054906101000a900473ffffffffffffffffffffffffffffffffffffffff1673ffffffffffffffffffffffffffffffffffffffff163373ffffffffffffffffffffffffffffffffffffffff16146120c4576040517f44f3b42100000000000000000000000000000000000000000000000000000000815260040160405180910390fd5b6000600260008060009054906101000a900473ffffffffffffffffffffffffffffffffffffffff1673ffffffffffffffffffffffffffffffffffffffff1673ffffffffffffffffffffffffffffffffffffffff1681526020019081526020016000206000858152602001908152602001600020600101549050808311612176576040517f81fff43000000000000000000000000000000000000000000000000000000000815260040160405180910390fd5b6000612181846125a4565b90506000600160009054906101000a900473ffffffffffffffffffffffffffffffffffffffff1673ffffffffffffffffffffffffffffffffffffffff166370a08231336040518263ffffffff1660e01b81526004016121e0919061379c565b602060405180830381865afa1580156121fd573d6000803e3d6000fd5b505050506040513d601f19601f820116820180604052508101906122219190613e04565b9050600061222e826125a4565b9050828111612272576040517f08c379a000000000000000000000000000000000000000000000000000000000815260040161226990613e7d565b60405180910390fd5b6001600260008060009054906101000a900473ffffffffffffffffffffffffffffffffffffffff1673ffffffffffffffffffffffffffffffffffffffff1673ffffffffffffffffffffffffffffffffffffffff168152602001908152602001600020600089815260200190815260200160002060050160016101000a81548160ff021916908315150217905550600160009054906101000a900473ffffffffffffffffffffffffffffffffffffffff1673ffffffffffffffffffffffffffffffffffffffff166323b872dd3330896040518463ffffffff1660e01b815260040161235e93929190613e9d565b6020604051808303816000875af115801561237d573d6000803e3d6000fd5b505050506040513d601f19601f820116820180604052508101906123a19190613d92565b5050505050505050565b600073ffffffffffffffffffffffffffffffffffffffff163373ffffffffffffffffffffffffffffffffffffffff1603612411576040517f5f252daf00000000000000000000000000000000000000000000000000000000815260040160405180910390fd5b6000600260008060009054906101000a900473ffffffffffffffffffffffffffffffffffffffff1673ffffffffffffffffffffffffffffffffffffffff1673ffffffffffffffffffffffffffffffffffffffff168152602001908152602001600020600083815260200190815260200160002090503373ffffffffffffffffffffffffffffffffffffffff168160000160009054906101000a900473ffffffffffffffffffffffffffffffffffffffff1673ffffffffffffffffffffffffffffffffffffffff161461250f576040517f5169e01000000000000000000000000000000000000000000000000000000000815260040160405180910390fd5b60018160050160026101000a81548160ff0219169083151502179055503373ffffffffffffffffffffffffffffffffffffffff167fd3ec1db989d7a04f562031e02001f88781a3bc555a5608a288acccae5b50e86f836040516125729190613180565b60405180910390a25050565b600160009054906101000a900473ffffffffffffffffffffffffffffffffffffffff1681565b6000806125af612a62565b90506000670de0b6b3a764000084836125c89190613ed4565b6125d29190613f45565b90508092505050919050565b6000600360008373ffffffffffffffffffffffffffffffffffffffff1673ffffffffffffffffffffffffffffffffffffffff168152602001908152602001600020549050919050565b606060008267ffffffffffffffff81111561264557612644612fa2565b5b60405190808252806020026020018201604052801561267e57816020015b61266b612bec565b8152602001906001900390816126635790505b5090506000600190505b838111612a5857600260003373ffffffffffffffffffffffffffffffffffffffff1673ffffffffffffffffffffffffffffffffffffffff1681526020019081526020016000206000828152602001908152602001600020604051806101200160405290816000820160009054906101000a900473ffffffffffffffffffffffffffffffffffffffff1673ffffffffffffffffffffffffffffffffffffffff1673ffffffffffffffffffffffffffffffffffffffff168152602001600182015481526020016002820154815260200160038201805461276590613855565b80601f016020809104026020016040519081016040528092919081815260200182805461279190613855565b80156127de5780601f106127b3576101008083540402835291602001916127de565b820191906000526020600020905b8154815290600101906020018083116127c157829003601f168201915b505050505081526020016004820180546127f790613855565b80601f016020809104026020016040519081016040528092919081815260200182805461282390613855565b80156128705780601f1061284557610100808354040283529160200191612870565b820191906000526020600020905b81548152906001019060200180831161285357829003601f168201915b505050505081526020016005820160009054906101000a900460ff161515151581526020016005820160019054906101000a900460ff161515151581526020016005820160029054906101000a900460ff1615151515815260200160068201805480602002602001604051908101604052809291908181526020016000905b82821015612a13578382906000526020600020906003020160405180608001604052908160008201805461292290613855565b80601f016020809104026020016040519081016040528092919081815260200182805461294e90613855565b801561299b5780601f106129705761010080835404028352916020019161299b565b820191906000526020600020905b81548152906001019060200180831161297e57829003601f168201915b50505050508152602001600182015481526020016002820160009054906101000a900460ff1660028111156129d3576129d261326a565b5b60028111156129e5576129e461326a565b5b81526020016002820160019054906101000a900460ff161515151581525050815260200190600101906128ef565b505050508152505082600183612a299190613f76565b81518110612a3a57612a39613d0e565b5b60200260200101819052508080612a5090613c5a565b915050612688565b5080915050919050565b60008073694aa1769357215de4fac081bf1f309adc325306905060008173ffffffffffffffffffffffffffffffffffffffff1663feaf968c6040518163ffffffff1660e01b815260040160a060405180830381865afa158015612ac9573d6000803e3d6000fd5b505050506040513d601f19601f82011682018060405250810190612aed9190614022565b5050509150506402540be40081612b04919061409d565b9250505090565b828054828255906000526020600020906003028101928215612bdb5760005260206000209160030282015b82811115612bda57828260008201816000019081612b549190613b43565b50600182015481600101556002820160009054906101000a900460ff168160020160006101000a81548160ff02191690836002811115612b9757612b9661326a565b5b02179055506002820160019054906101000a900460ff168160020160016101000a81548160ff021916908315150217905550505091600301919060030190612b36565b5b509050612be89190612c54565b5090565b604051806101200160405280600073ffffffffffffffffffffffffffffffffffffffff16815260200160008152602001600081526020016060815260200160608152602001600015158152602001600015158152602001600015158152602001606081525090565b5b80821115612ca75760008082016000612c6e9190612cab565b60018201600090556002820160006101000a81549060ff02191690556002820160016101000a81549060ff021916905550600301612c55565b5090565b508054612cb790613855565b6000825580601f10612cc95750612ce8565b601f016020900490600052602060002090810190612ce79190612ceb565b5b50565b5b80821115612d04576000816000905550600101612cec565b5090565b6000604051905090565b600080fd5b600080fd5b600073ffffffffffffffffffffffffffffffffffffffff82169050919050565b6000612d4782612d1c565b9050919050565b612d5781612d3c565b8114612d6257600080fd5b50565b600081359050612d7481612d4e565b92915050565b6000819050919050565b612d8d81612d7a565b8114612d9857600080fd5b50565b600081359050612daa81612d84565b92915050565b60008060408385031215612dc757612dc6612d12565b5b6000612dd585828601612d65565b9250506020612de685828601612d9b565b9150509250929050565b612df981612d3c565b82525050565b612e0881612d7a565b82525050565b600081519050919050565b600082825260208201905092915050565b60005b83811015612e48578082015181840152602081019050612e2d565b60008484015250505050565b6000601f19601f8301169050919050565b6000612e7082612e0e565b612e7a8185612e19565b9350612e8a818560208601612e2a565b612e9381612e54565b840191505092915050565b60008115159050919050565b612eb381612e9e565b82525050565b600061010082019050612ecf600083018b612df0565b612edc602083018a612dff565b612ee96040830189612dff565b8181036060830152612efb8188612e65565b90508181036080830152612f0f8187612e65565b9050612f1e60a0830186612eaa565b612f2b60c0830185612eaa565b612f3860e0830184612eaa565b9998505050505050505050565b600080600060608486031215612f5e57612f5d612d12565b5b6000612f6c86828701612d9b565b9350506020612f7d86828701612d65565b9250506040612f8e86828701612d9b565b9150509250925092565b600080fd5b600080fd5b7f4e487b7100000000000000000000000000000000000000000000000000000000600052604160045260246000fd5b612fda82612e54565b810181811067ffffffffffffffff82111715612ff957612ff8612fa2565b5b80604052505050565b600061300c612d08565b90506130188282612fd1565b919050565b600067ffffffffffffffff82111561303857613037612fa2565b5b61304182612e54565b9050602081019050919050565b82818337600083830152505050565b600061307061306b8461301d565b613002565b90508281526020810184848401111561308c5761308b612f9d565b5b61309784828561304e565b509392505050565b600082601f8301126130b4576130b3612f98565b5b81356130c484826020860161305d565b91505092915050565b600080600080600060a086880312156130e9576130e8612d12565b5b60006130f788828901612d65565b955050602061310888828901612d9b565b945050604061311988828901612d9b565b935050606086013567ffffffffffffffff81111561313a57613139612d17565b5b6131468882890161309f565b925050608086013567ffffffffffffffff81111561316757613166612d17565b5b6131738882890161309f565b9150509295509295909350565b60006020820190506131956000830184612dff565b92915050565b600081519050919050565b600082825260208201905092915050565b6000819050602082019050919050565b6131d081612d3c565b82525050565b6131df81612d7a565b82525050565b600082825260208201905092915050565b600061320182612e0e565b61320b81856131e5565b935061321b818560208601612e2a565b61322481612e54565b840191505092915050565b61323881612e9e565b82525050565b600081519050919050565b600082825260208201905092915050565b6000819050602082019050919050565b7f4e487b7100000000000000000000000000000000000000000000000000000000600052602160045260246000fd5b600381106132aa576132a961326a565b5b50565b60008190506132bb82613299565b919050565b60006132cb826132ad565b9050919050565b6132db816132c0565b82525050565b600060808301600083015184820360008601526132fe82826131f6565b915050602083015161331360208601826131d6565b50604083015161332660408601826132d2565b506060830151613339606086018261322f565b508091505092915050565b600061335083836132e1565b905092915050565b6000602082019050919050565b60006133708261323e565b61337a8185613249565b93508360208202850161338c8561325a565b8060005b858110156133c857848403895281516133a98582613344565b94506133b483613358565b925060208a01995050600181019050613390565b50829750879550505050505092915050565b6000610120830160008301516133f360008601826131c7565b50602083015161340660208601826131d6565b50604083015161341960408601826131d6565b506060830151848203606086015261343182826131f6565b9150506080830151848203608086015261344b82826131f6565b91505060a083015161346060a086018261322f565b5060c083015161347360c086018261322f565b5060e083015161348660e086018261322f565b506101008301518482036101008601526134a08282613365565b9150508091505092915050565b60006134b983836133da565b905092915050565b6000602082019050919050565b60006134d98261319b565b6134e381856131a6565b9350836020820285016134f5856131b7565b8060005b85811015613531578484038952815161351285826134ad565b945061351d836134c1565b925060208a019950506001810190506134f9565b50829750879550505050505092915050565b6000602082019050818103600083015261355d81846134ce565b905092915050565b60006020828403121561357b5761357a612d12565b5b600061358984828501612d9b565b91505092915050565b6000610120830160008301516135ab60008601826131c7565b5060208301516135be60208601826131d6565b5060408301516135d160408601826131d6565b50606083015184820360608601526135e982826131f6565b9150506080830151848203608086015261360382826131f6565b91505060a083015161361860a086018261322f565b5060c083015161362b60c086018261322f565b5060e083015161363e60e086018261322f565b506101008301518482036101008601526136588282613365565b9150508091505092915050565b6000602082019050818103600083015261367f8184613592565b905092915050565b600082825260208201905092915050565b60006136a38261323e565b6136ad8185613687565b9350836020820285016136bf8561325a565b8060005b858110156136fb57848403895281516136dc8582613344565b94506136e783613358565b925060208a019950506001810190506136c3565b50829750879550505050505092915050565b600060208201905081810360008301526137278184613698565b905092915050565b60006020828403121561374557613744612d12565b5b600061375384828501612d65565b91505092915050565b6000806040838503121561377357613772612d12565b5b600061378185828601612d9b565b925050602061379285828601612d9b565b9150509250929050565b60006020820190506137b16000830184612df0565b92915050565b6000806000606084860312156137d0576137cf612d12565b5b60006137de86828701612d9b565b935050602084013567ffffffffffffffff8111156137ff576137fe612d17565b5b61380b8682870161309f565b925050604061381c86828701612d9b565b9150509250925092565b7f4e487b7100000000000000000000000000000000000000000000000000000000600052602260045260246000fd5b6000600282049050600182168061386d57607f821691505b6020821081036138805761387f613826565b5b50919050565b600060408201905061389b6000830185612dff565b6138a86020830184612dff565b9392505050565b60008190508160005260206000209050919050565b60006020601f8301049050919050565b600082821b905092915050565b6000600883026139117fffffffffffffffffffffffffffffffffffffffffffffffffffffffffffffffff826138d4565b61391b86836138d4565b95508019841693508086168417925050509392505050565b6000819050919050565b600061395861395361394e84612d7a565b613933565b612d7a565b9050919050565b6000819050919050565b6139728361393d565b61398661397e8261395f565b8484546138e1565b825550505050565b600090565b61399b61398e565b6139a6818484613969565b505050565b5b818110156139ca576139bf600082613993565b6001810190506139ac565b5050565b601f821115613a0f576139e0816138af565b6139e9846138c4565b810160208510156139f8578190505b613a0c613a04856138c4565b8301826139ab565b50505b505050565b600082821c905092915050565b6000613a3260001984600802613a14565b1980831691505092915050565b6000613a4b8383613a21565b9150826002028217905092915050565b613a6482612e0e565b67ffffffffffffffff811115613a7d57613a7c612fa2565b5b613a878254613855565b613a928282856139ce565b600060209050601f831160018114613ac55760008415613ab3578287015190505b613abd8582613a3f565b865550613b25565b601f198416613ad3866138af565b60005b82811015613afb57848901518255600182019150602085019450602081019050613ad6565b86831015613b185784890151613b14601f891682613a21565b8355505b6001600288020188555050505b505050505050565b600081549050613b3c81613855565b9050919050565b818103613b51575050613c29565b613b5a82613b2d565b67ffffffffffffffff811115613b7357613b72612fa2565b5b613b7d8254613855565b613b888282856139ce565b6000601f831160018114613bb75760008415613ba5578287015490505b613baf8582613a3f565b865550613c22565b601f198416613bc5876138af565b9650613bd0866138af565b60005b82811015613bf857848901548255600182019150600185019450602081019050613bd3565b86831015613c155784890154613c11601f891682613a21565b8355505b6001600288020188555050505b5050505050505b565b7f4e487b7100000000000000000000000000000000000000000000000000000000600052601160045260246000fd5b6000613c6582612d7a565b91507fffffffffffffffffffffffffffffffffffffffffffffffffffffffffffffffff8203613c9757613c96613c2b565b5b600182019050919050565b7f496e76616c6964206d696c6573746f6e6520696e646578000000000000000000600082015250565b6000613cd8601783612e19565b9150613ce382613ca2565b602082019050919050565b60006020820190508181036000830152613d0781613ccb565b9050919050565b7f4e487b7100000000000000000000000000000000000000000000000000000000600052603260045260246000fd5b6000604082019050613d526000830185612df0565b613d5f6020830184612dff565b9392505050565b613d6f81612e9e565b8114613d7a57600080fd5b50565b600081519050613d8c81613d66565b92915050565b600060208284031215613da857613da7612d12565b5b6000613db684828501613d7d565b91505092915050565b60006040820190508181036000830152613dd98185612e65565b9050613de86020830184612dff565b9392505050565b600081519050613dfe81612d84565b92915050565b600060208284031215613e1a57613e19612d12565b5b6000613e2884828501613def565b91505092915050565b7f496e73756666696369656e742062616c616e6365000000000000000000000000600082015250565b6000613e67601483612e19565b9150613e7282613e31565b602082019050919050565b60006020820190508181036000830152613e9681613e5a565b9050919050565b6000606082019050613eb26000830186612df0565b613ebf6020830185612df0565b613ecc6040830184612dff565b949350505050565b6000613edf82612d7a565b9150613eea83612d7a565b9250828202613ef881612d7a565b91508282048414831517613f0f57613f0e613c2b565b5b5092915050565b7f4e487b7100000000000000000000000000000000000000000000000000000000600052601260045260246000fd5b6000613f5082612d7a565b9150613f5b83612d7a565b925082613f6b57613f6a613f16565b5b828204905092915050565b6000613f8182612d7a565b9150613f8c83612d7a565b9250828203905081811115613fa457613fa3613c2b565b5b92915050565b600069ffffffffffffffffffff82169050919050565b613fc981613faa565b8114613fd457600080fd5b50565b600081519050613fe681613fc0565b92915050565b6000819050919050565b613fff81613fec565b811461400a57600080fd5b50565b60008151905061401c81613ff6565b92915050565b600080600080600060a0868803121561403e5761403d612d12565b5b600061404c88828901613fd7565b955050602061405d8882890161400d565b945050604061406e88828901613def565b935050606061407f88828901613def565b925050608061409088828901613fd7565b9150509295509295909350565b60006140a882613fec565b91506140b383613fec565b92508282026140c181613fec565b91507f800000000000000000000000000000000000000000000000000000000000000084146000841216156140f9576140f8613c2b565b5b828205841483151761410e5761410d613c2b565b5b509291505056fea2646970667358221220c05d615d2d63fee4da60d977bcb01d20957130dbf2d6605ec955c30608a9e38864736f6c63430008180033a264697066735822122087d34049ffda79a02f6fe8403db3a63ad9feec9fc92ec3ec7fd31be3f9eb79e664736f6c63430008180033",
  "linkReferences": {},
  "deployedLinkReferences": {}
}