{"contracts/invoiceFactory.sol":{"PayNVoiceFactory":{"abi":[{"inputs":[{"internalType":"address","name":"tokAddress","type":"address"}],"name":"createInvoice","outputs":[{"internalType":"contract PayNVoice","name":"newInvoice_","type":"address"},{"internalType":"uint256","name":"length_","type":"uint256"}],"stateMutability":"nonpayable","type":"function"},{"inputs":[{"internalType":"uint256","name":"_index","type":"uint256"}],"name":"getANInvoiceClone","outputs":[{"internalType":"contract PayNVoice","name":"","type":"address"}],"stateMutability":"view","type":"function"},{"inputs":[],"name":"getInvoiceClones","outputs":[{"internalType":"contract PayNVoice[]","name":"","type":"address[]"}],"stateMutability":"view","type":"function"},{"inputs":[{"internalType":"uint256","name":"","type":"uint256"}],"name":"invoiceClones","outputs":[{"internalType":"contract PayNVoice","name":"","type":"address"}],"stateMutability":"view","type":"function"}],"evm":{"bytecode":{"linkReferences":{},"object":"608060405234801561001057600080fd5b50614984806100206000396000f3fe608060405234801561001057600080fd5b506004361061004c5760003560e01c80632395517e1461005157806386e229b1146100815780638a374ad61461009f578063b7f78520146100d0575b600080fd5b61006b60048036038101906100669190610306565b610100565b60405161007891906103b2565b60405180910390f35b61008961013f565b604051610096919061048b565b60405180910390f35b6100b960048036038101906100b491906104eb565b6101cd565b6040516100c7929190610527565b60405180910390f35b6100ea60048036038101906100e59190610306565b610276565b6040516100f791906103b2565b60405180910390f35b6000818154811061011057600080fd5b906000526020600020016000915054906101000a900473ffffffffffffffffffffffffffffffffffffffff1681565b606060008054806020026020016040519081016040528092919081815260200182805480156101c357602002820191906000526020600020905b8160009054906101000a900473ffffffffffffffffffffffffffffffffffffffff1673ffffffffffffffffffffffffffffffffffffffff1681526020019060010190808311610179575b5050505050905090565b600080826040516101dd906102bd565b6101e7919061055f565b604051809103906000f080158015610203573d6000803e3d6000fd5b5091506000829080600181540180825580915050600190039060005260206000200160009091909190916101000a81548173ffffffffffffffffffffffffffffffffffffffff021916908373ffffffffffffffffffffffffffffffffffffffff1602179055506000805490509050915091565b600080828154811061028b5761028a61057a565b5b9060005260206000200160009054906101000a900473ffffffffffffffffffffffffffffffffffffffff169050919050565b6143a580620005aa83390190565b600080fd5b6000819050919050565b6102e3816102d0565b81146102ee57600080fd5b50565b600081359050610300816102da565b92915050565b60006020828403121561031c5761031b6102cb565b5b600061032a848285016102f1565b91505092915050565b600073ffffffffffffffffffffffffffffffffffffffff82169050919050565b6000819050919050565b600061037861037361036e84610333565b610353565b610333565b9050919050565b600061038a8261035d565b9050919050565b600061039c8261037f565b9050919050565b6103ac81610391565b82525050565b60006020820190506103c760008301846103a3565b92915050565b600081519050919050565b600082825260208201905092915050565b6000819050602082019050919050565b61040281610391565b82525050565b600061041483836103f9565b60208301905092915050565b6000602082019050919050565b6000610438826103cd565b61044281856103d8565b935061044d836103e9565b8060005b8381101561047e5781516104658882610408565b975061047083610420565b925050600181019050610451565b5085935050505092915050565b600060208201905081810360008301526104a5818461042d565b905092915050565b60006104b882610333565b9050919050565b6104c8816104ad565b81146104d357600080fd5b50565b6000813590506104e5816104bf565b92915050565b600060208284031215610501576105006102cb565b5b600061050f848285016104d6565b91505092915050565b610521816102d0565b82525050565b600060408201905061053c60008301856103a3565b6105496020830184610518565b9392505050565b610559816104ad565b82525050565b60006020820190506105746000830184610550565b92915050565b7f4e487b7100000000000000000000000000000000000000000000000000000000600052603260045260246000fdfe60806040526005600160146101000a81548160ff021916908360ff16021790555060016004553480156200003257600080fd5b50604051620043a5380380620043a5833981810160405281019062000058919062000218565b600073ffffffffffffffffffffffffffffffffffffffff163373ffffffffffffffffffffffffffffffffffffffff1603620000bf576040517f5f252daf00000000000000000000000000000000000000000000000000000000815260040160405180910390fd5b600073ffffffffffffffffffffffffffffffffffffffff168173ffffffffffffffffffffffffffffffffffffffff160362000126576040517f5f252daf00000000000000000000000000000000000000000000000000000000815260040160405180910390fd5b336000806101000a81548173ffffffffffffffffffffffffffffffffffffffff021916908373ffffffffffffffffffffffffffffffffffffffff16021790555080600160006101000a81548173ffffffffffffffffffffffffffffffffffffffff021916908373ffffffffffffffffffffffffffffffffffffffff160217905550506200024a565b600080fd5b600073ffffffffffffffffffffffffffffffffffffffff82169050919050565b6000620001e082620001b3565b9050919050565b620001f281620001d3565b8114620001fe57600080fd5b50565b6000815190506200021281620001e7565b92915050565b600060208284031215620002315762000230620001ae565b5b6000620002418482850162000201565b91505092915050565b61414b806200025a6000396000f3fe608060405234801561001057600080fd5b50600436106100f55760003560e01c80635cae48f51161009757806398df912e1161006657806398df912e146102b1578063d16c0d4e146102cd578063f3c3d215146102e9578063f835cd3c14610305576100f5565b80635cae48f51461022b57806368a93d2d146102475780637a465219146102655780638beed0f814610295576100f5565b80633141da53116100d35780633141da531461017d5780633a23cc0a1461019b57806342c549c0146101cb5780634b7535d9146101fb576100f5565b80630dad62fa146100fa57806327f6771414610131578063294e70d21461014d575b600080fd5b610114600480360381019061010f9190612db0565b610323565b604051610128989796959493929190612eb9565b60405180910390f35b61014b60048036038101906101469190612f45565b6104cf565b005b610167600480360381019061016291906130cd565b610524565b6040516101749190613180565b60405180910390f35b610185610986565b6040516101929190613543565b60405180910390f35b6101b560048036038101906101b09190613565565b610b1a565b6040516101c29190613665565b60405180910390f35b6101e560048036038101906101e09190613565565b610f8a565b6040516101f2919061370d565b60405180910390f35b6102156004803603810190610210919061372f565b61114f565b6040516102229190613180565b60405180910390f35b6102456004803603810190610240919061375c565b611167565b005b61024f6112b8565b60405161025c919061379c565b60405180910390f35b61027f600480360381019061027a919061372f565b6112dc565b60405161028c9190613543565b60405180910390f35b6102af60048036038101906102aa9190613565565b611902565b005b6102cb60048036038101906102c691906137b7565b611dd5565b005b6102e760048036038101906102e2919061375c565b611f60565b005b61030360048036038101906102fe9190613565565b6123ab565b005b61030d61257e565b60405161031a919061379c565b60405180910390f35b6002602052816000526040600020602052806000526040600020600091509150508060000160009054906101000a900473ffffffffffffffffffffffffffffffffffffffff169080600101549080600201549080600301805461038590613855565b80601f01602080910402602001604051908101604052809291908181526020018280546103b190613855565b80156103fe5780601f106103d3576101008083540402835291602001916103fe565b820191906000526020600020905b8154815290600101906020018083116103e157829003601f168201915b50505050509080600401805461041390613855565b80601f016020809104026020016040519081016040528092919081815260200182805461043f90613855565b801561048c5780601f106104615761010080835404028352916020019161048c565b820191906000526020600020905b81548152906001019060200180831161046f57829003601f168201915b5050505050908060050160009054906101000a900460ff16908060050160019054906101000a900460ff16908060050160029054906101000a900460ff16905088565b8173ffffffffffffffffffffffffffffffffffffffff167f1c2934a9876c21213c8c5214b30ed4d3746b82e17ee23221937968711d05471e8483604051610517929190613886565b60405180910390a2505050565b60008073ffffffffffffffffffffffffffffffffffffffff163373ffffffffffffffffffffffffffffffffffffffff160361058b576040517f5f252daf00000000000000000000000000000000000000000000000000000000815260040160405180910390fd5b60008054906101000a900473ffffffffffffffffffffffffffffffffffffffff1673ffffffffffffffffffffffffffffffffffffffff163373ffffffffffffffffffffffffffffffffffffffff1614610610576040517f5915277700000000000000000000000000000000000000000000000000000000815260040160405180910390fd5b600061061b866125a4565b905060045491506000600260008060009054906101000a900473ffffffffffffffffffffffffffffffffffffffff1673ffffffffffffffffffffffffffffffffffffffff1673ffffffffffffffffffffffffffffffffffffffff16815260200190815260200160002060008481526020019081526020016000209050878160000160006101000a81548173ffffffffffffffffffffffffffffffffffffffff021916908373ffffffffffffffffffffffffffffffffffffffff160217905550818160010181905550858160020181905550848160030190816106fd9190613a5b565b508381600401908161070f9190613a5b565b5080600260003373ffffffffffffffffffffffffffffffffffffffff1673ffffffffffffffffffffffffffffffffffffffff16815260200190815260200160002060008581526020019081526020016000206000820160009054906101000a900473ffffffffffffffffffffffffffffffffffffffff168160000160006101000a81548173ffffffffffffffffffffffffffffffffffffffff021916908373ffffffffffffffffffffffffffffffffffffffff1602179055506001820154816001015560028201548160020155600382018160030190816107f09190613b43565b50600482018160040190816108059190613b43565b506005820160009054906101000a900460ff168160050160006101000a81548160ff0219169083151502179055506005820160019054906101000a900460ff168160050160016101000a81548160ff0219169083151502179055506005820160029054906101000a900460ff168160050160026101000a81548160ff02191690831515021790555060068201816006019080546108a3929190612b0b565b50905050600360003373ffffffffffffffffffffffffffffffffffffffff1673ffffffffffffffffffffffffffffffffffffffff16815260200190815260200160002060008154809291906108f790613c5a565b91905055506004600081548092919061090f90613c5a565b91905055508773ffffffffffffffffffffffffffffffffffffffff163373ffffffffffffffffffffffffffffffffffffffff167f88fb90d9d534f2792ee5650e3a21b58a53c91bb4155553be08ee1e83b7860aa58986604051610973929190613886565b60405180910390a3505095945050505050565b6060600073ffffffffffffffffffffffffffffffffffffffff163373ffffffffffffffffffffffffffffffffffffffff16036109ee576040517f5f252daf00000000000000000000000000000000000000000000000000000000815260040160405180910390fd5b606060008054906101000a900473ffffffffffffffffffffffffffffffffffffffff1673ffffffffffffffffffffffffffffffffffffffff163373ffffffffffffffffffffffffffffffffffffffff1603610a9e576000610a4e336125de565b905060016004541015610a8d576040517f9df573ea00000000000000000000000000000000000000000000000000000000815260040160405180910390fd5b610a9681612627565b915050610b13565b6000610ac960008054906101000a900473ffffffffffffffffffffffffffffffffffffffff166125de565b90506001811015610b06576040517f9df573ea00000000000000000000000000000000000000000000000000000000815260040160405180910390fd5b610b0f81612627565b9150505b8091505090565b610b22612bec565b600073ffffffffffffffffffffffffffffffffffffffff163373ffffffffffffffffffffffffffffffffffffffff1603610b88576040517f5f252daf00000000000000000000000000000000000000000000000000000000815260040160405180910390fd5b600260008060009054906101000a900473ffffffffffffffffffffffffffffffffffffffff1673ffffffffffffffffffffffffffffffffffffffff1673ffffffffffffffffffffffffffffffffffffffff1681526020019081526020016000206000838152602001908152602001600020604051806101200160405290816000820160009054906101000a900473ffffffffffffffffffffffffffffffffffffffff1673ffffffffffffffffffffffffffffffffffffffff1673ffffffffffffffffffffffffffffffffffffffff1681526020016001820154815260200160028201548152602001600382018054610c7f90613855565b80601f0160208091040260200160405190810160405280929190818152602001828054610cab90613855565b8015610cf85780601f10610ccd57610100808354040283529160200191610cf8565b820191906000526020600020905b815481529060010190602001808311610cdb57829003601f168201915b50505050508152602001600482018054610d1190613855565b80601f0160208091040260200160405190810160405280929190818152602001828054610d3d90613855565b8015610d8a5780601f10610d5f57610100808354040283529160200191610d8a565b820191906000526020600020905b815481529060010190602001808311610d6d57829003601f168201915b505050505081526020016005820160009054906101000a900460ff161515151581526020016005820160019054906101000a900460ff161515151581526020016005820160029054906101000a900460ff1615151515815260200160068201805480602002602001604051908101604052809291908181526020016000905b82821015610f2d5783829060005260206000209060030201604051806080016040529081600082018054610e3c90613855565b80601f0160208091040260200160405190810160405280929190818152602001828054610e6890613855565b8015610eb55780601f10610e8a57610100808354040283529160200191610eb5565b820191906000526020600020905b815481529060010190602001808311610e9857829003601f168201915b50505050508152602001600182015481526020016002820160009054906101000a900460ff166002811115610eed57610eec61326a565b5b6002811115610eff57610efe61326a565b5b81526020016002820160019054906101000a900460ff16151515158152505081526020019060010190610e09565b505050508152505090503373ffffffffffffffffffffffffffffffffffffffff167f4b91f05e4e767e5e8d10a7a3636995feb5ad4f56c1a75c977090f2b313be6d9483604051610f7d9190613180565b60405180910390a2919050565b6060600260008060009054906101000a900473ffffffffffffffffffffffffffffffffffffffff1673ffffffffffffffffffffffffffffffffffffffff1673ffffffffffffffffffffffffffffffffffffffff1681526020019081526020016000206000838152602001908152602001600020600601805480602002602001604051908101604052809291908181526020016000905b82821015611144578382906000526020600020906003020160405180608001604052908160008201805461105390613855565b80601f016020809104026020016040519081016040528092919081815260200182805461107f90613855565b80156110cc5780601f106110a1576101008083540402835291602001916110cc565b820191906000526020600020905b8154815290600101906020018083116110af57829003601f168201915b50505050508152602001600182015481526020016002820160009054906101000a900460ff1660028111156111045761110361326a565b5b60028111156111165761111561326a565b5b81526020016002820160019054906101000a900460ff16151515158152505081526020019060010190611020565b505050509050919050565b60036020528060005260406000206000915090505481565b6000600260008060009054906101000a900473ffffffffffffffffffffffffffffffffffffffff1673ffffffffffffffffffffffffffffffffffffffff1673ffffffffffffffffffffffffffffffffffffffff1681526020019081526020016000206000848152602001908152602001600020905080600601805490508210611225576040517f08c379a000000000000000000000000000000000000000000000000000000000815260040161121c90613cee565b60405180910390fd5b600081600601838154811061123d5761123c613d0e565b5b9060005260206000209060030201905060018160020160006101000a81548160ff021916908360028111156112755761127461326a565b5b0217905550837f1b7218c0ac23ea9cbe4df603d2b340fbf469a115b73ea3d11460727f445d6be1846040516112aa9190613180565b60405180910390a250505050565b60008054906101000a900473ffffffffffffffffffffffffffffffffffffffff1681565b6060600080600190505b60045481116113d8578373ffffffffffffffffffffffffffffffffffffffff16600260008060009054906101000a900473ffffffffffffffffffffffffffffffffffffffff1673ffffffffffffffffffffffffffffffffffffffff1673ffffffffffffffffffffffffffffffffffffffff168152602001908152602001600020600083815260200190815260200160002060000160009054906101000a900473ffffffffffffffffffffffffffffffffffffffff1673ffffffffffffffffffffffffffffffffffffffff16036113c55781806113c190613c5a565b9250505b80806113d090613c5a565b9150506112e6565b5060008167ffffffffffffffff8111156113f5576113f4612fa2565b5b60405190808252806020026020018201604052801561142e57816020015b61141b612bec565b8152602001906001900390816114135790505b509050600080600190505b60045481116118f6578573ffffffffffffffffffffffffffffffffffffffff16600260008060009054906101000a900473ffffffffffffffffffffffffffffffffffffffff1673ffffffffffffffffffffffffffffffffffffffff1673ffffffffffffffffffffffffffffffffffffffff168152602001908152602001600020600083815260200190815260200160002060000160009054906101000a900473ffffffffffffffffffffffffffffffffffffffff1673ffffffffffffffffffffffffffffffffffffffff16036118e357600260008060009054906101000a900473ffffffffffffffffffffffffffffffffffffffff1673ffffffffffffffffffffffffffffffffffffffff1673ffffffffffffffffffffffffffffffffffffffff1681526020019081526020016000206000828152602001908152602001600020604051806101200160405290816000820160009054906101000a900473ffffffffffffffffffffffffffffffffffffffff1673ffffffffffffffffffffffffffffffffffffffff1673ffffffffffffffffffffffffffffffffffffffff168152602001600182015481526020016002820154815260200160038201805461160090613855565b80601f016020809104026020016040519081016040528092919081815260200182805461162c90613855565b80156116795780601f1061164e57610100808354040283529160200191611679565b820191906000526020600020905b81548152906001019060200180831161165c57829003601f168201915b5050505050815260200160048201805461169290613855565b80601f01602080910402602001604051908101604052809291908181526020018280546116be90613855565b801561170b5780601f106116e05761010080835404028352916020019161170b565b820191906000526020600020905b8154815290600101906020018083116116ee57829003601f168201915b505050505081526020016005820160009054906101000a900460ff161515151581526020016005820160019054906101000a900460ff161515151581526020016005820160029054906101000a900460ff1615151515815260200160068201805480602002602001604051908101604052809291908181526020016000905b828210156118ae57838290600052602060002090600302016040518060800160405290816000820180546117bd90613855565b80601f01602080910402602001604051908101604052809291908181526020018280546117e990613855565b80156118365780601f1061180b57610100808354040283529160200191611836565b820191906000526020600020905b81548152906001019060200180831161181957829003601f168201915b50505050508152602001600182015481526020016002820160009054906101000a900460ff16600281111561186e5761186d61326a565b5b60028111156118805761187f61326a565b5b81526020016002820160019054906101000a900460ff1615151515815250508152602001906001019061178a565b50505050815250508383815181106118c9576118c8613d0e565b5b602002602001018190525081806118df90613c5a565b9250505b80806118ee90613c5a565b915050611439565b50819350505050919050565b600073ffffffffffffffffffffffffffffffffffffffff163373ffffffffffffffffffffffffffffffffffffffff1603611968576040517f5f252daf00000000000000000000000000000000000000000000000000000000815260040160405180910390fd5b6000600260008060009054906101000a900473ffffffffffffffffffffffffffffffffffffffff1673ffffffffffffffffffffffffffffffffffffffff1673ffffffffffffffffffffffffffffffffffffffff168152602001908152602001600020600083815260200190815260200160002090508060000160009054906101000a900473ffffffffffffffffffffffffffffffffffffffff1673ffffffffffffffffffffffffffffffffffffffff163373ffffffffffffffffffffffffffffffffffffffff1614611a66576040517f6810116800000000000000000000000000000000000000000000000000000000815260040160405180910390fd5b6000816001015403611aa4576040517f7eed038200000000000000000000000000000000000000000000000000000000815260040160405180910390fd5b60008160060180549050905060005b81811015611dcf5760001515836006018281548110611ad557611ad4613d0e565b5b906000526020600020906003020160020160019054906101000a900460ff16151503611dc257600280811115611b0e57611b0d61326a565b5b836006018281548110611b2457611b23613d0e565b5b906000526020600020906003020160020160009054906101000a900460ff166002811115611b5557611b5461326a565b5b03611dc157600160009054906101000a900473ffffffffffffffffffffffffffffffffffffffff1673ffffffffffffffffffffffffffffffffffffffff1663a9059cbb600260008060009054906101000a900473ffffffffffffffffffffffffffffffffffffffff1673ffffffffffffffffffffffffffffffffffffffff1673ffffffffffffffffffffffffffffffffffffffff168152602001908152602001600020600087815260200190815260200160002060000160009054906101000a900473ffffffffffffffffffffffffffffffffffffffff16600260008060009054906101000a900473ffffffffffffffffffffffffffffffffffffffff1673ffffffffffffffffffffffffffffffffffffffff1673ffffffffffffffffffffffffffffffffffffffff16815260200190815260200160002060008881526020019081526020016000206006018481548110611cb357611cb2613d0e565b5b9060005260206000209060030201600101546040518363ffffffff1660e01b8152600401611ce2929190613d3d565b6020604051808303816000875af1158015611d01573d6000803e3d6000fd5b505050506040513d601f19601f82011682018060405250810190611d259190613d92565b506001836006018281548110611d3e57611d3d613d0e565b5b906000526020600020906003020160020160016101000a81548160ff021916908315150217905550611dbc818460000160009054906101000a900473ffffffffffffffffffffffffffffffffffffffff16856006018481548110611da557611da4613d0e565b5b9060005260206000209060030201600101546104cf565b611dcf565b5b8080600101915050611ab3565b50505050565b6000600260008060009054906101000a900473ffffffffffffffffffffffffffffffffffffffff1673ffffffffffffffffffffffffffffffffffffffff1673ffffffffffffffffffffffffffffffffffffffff1681526020019081526020016000206000858152602001908152602001600020905080600601604051806080016040528085815260200184815260200160006002811115611e7957611e7861326a565b5b81526020016000151581525090806001815401808255809150506001900390600052602060002090600302016000909190919091506000820151816000019081611ec39190613a5b565b506020820151816001015560408201518160020160006101000a81548160ff02191690836002811115611ef957611ef861326a565b5b021790555060608201518160020160016101000a81548160ff0219169083151502179055505050837fbf293db00f4de65b181a066ecc2f8bb81fb7174b517fd8085700e259ad00db1b8484604051611f52929190613dbf565b60405180910390a250505050565b600073ffffffffffffffffffffffffffffffffffffffff163373ffffffffffffffffffffffffffffffffffffffff1603611fc6576040517f5f252daf00000000000000000000000000000000000000000000000000000000815260040160405180910390fd5b6000600260008060009054906101000a900473ffffffffffffffffffffffffffffffffffffffff1673ffffffffffffffffffffffffffffffffffffffff1673ffffffffffffffffffffffffffffffffffffffff168152602001908152602001600020600084815260200190815260200160002090508060000160009054906101000a900473ffffffffffffffffffffffffffffffffffffffff1673ffffffffffffffffffffffffffffffffffffffff163373ffffffffffffffffffffffffffffffffffffffff16146120c4576040517f44f3b42100000000000000000000000000000000000000000000000000000000815260040160405180910390fd5b6000600260008060009054906101000a900473ffffffffffffffffffffffffffffffffffffffff1673ffffffffffffffffffffffffffffffffffffffff1673ffffffffffffffffffffffffffffffffffffffff1681526020019081526020016000206000858152602001908152602001600020600101549050808311612176576040517f81fff43000000000000000000000000000000000000000000000000000000000815260040160405180910390fd5b6000612181846125a4565b90506000600160009054906101000a900473ffffffffffffffffffffffffffffffffffffffff1673ffffffffffffffffffffffffffffffffffffffff166370a08231336040518263ffffffff1660e01b81526004016121e0919061379c565b602060405180830381865afa1580156121fd573d6000803e3d6000fd5b505050506040513d601f19601f820116820180604052508101906122219190613e04565b9050600061222e826125a4565b9050828111612272576040517f08c379a000000000000000000000000000000000000000000000000000000000815260040161226990613e7d565b60405180910390fd5b6001600260008060009054906101000a900473ffffffffffffffffffffffffffffffffffffffff1673ffffffffffffffffffffffffffffffffffffffff1673ffffffffffffffffffffffffffffffffffffffff168152602001908152602001600020600089815260200190815260200160002060050160016101000a81548160ff021916908315150217905550600160009054906101000a900473ffffffffffffffffffffffffffffffffffffffff1673ffffffffffffffffffffffffffffffffffffffff166323b872dd3330896040518463ffffffff1660e01b815260040161235e93929190613e9d565b6020604051808303816000875af115801561237d573d6000803e3d6000fd5b505050506040513d601f19601f820116820180604052508101906123a19190613d92565b5050505050505050565b600073ffffffffffffffffffffffffffffffffffffffff163373ffffffffffffffffffffffffffffffffffffffff1603612411576040517f5f252daf00000000000000000000000000000000000000000000000000000000815260040160405180910390fd5b6000600260008060009054906101000a900473ffffffffffffffffffffffffffffffffffffffff1673ffffffffffffffffffffffffffffffffffffffff1673ffffffffffffffffffffffffffffffffffffffff168152602001908152602001600020600083815260200190815260200160002090503373ffffffffffffffffffffffffffffffffffffffff168160000160009054906101000a900473ffffffffffffffffffffffffffffffffffffffff1673ffffffffffffffffffffffffffffffffffffffff161461250f576040517f5169e01000000000000000000000000000000000000000000000000000000000815260040160405180910390fd5b60018160050160026101000a81548160ff0219169083151502179055503373ffffffffffffffffffffffffffffffffffffffff167fd3ec1db989d7a04f562031e02001f88781a3bc555a5608a288acccae5b50e86f836040516125729190613180565b60405180910390a25050565b600160009054906101000a900473ffffffffffffffffffffffffffffffffffffffff1681565b6000806125af612a62565b90506000670de0b6b3a764000084836125c89190613ed4565b6125d29190613f45565b90508092505050919050565b6000600360008373ffffffffffffffffffffffffffffffffffffffff1673ffffffffffffffffffffffffffffffffffffffff168152602001908152602001600020549050919050565b606060008267ffffffffffffffff81111561264557612644612fa2565b5b60405190808252806020026020018201604052801561267e57816020015b61266b612bec565b8152602001906001900390816126635790505b5090506000600190505b838111612a5857600260003373ffffffffffffffffffffffffffffffffffffffff1673ffffffffffffffffffffffffffffffffffffffff1681526020019081526020016000206000828152602001908152602001600020604051806101200160405290816000820160009054906101000a900473ffffffffffffffffffffffffffffffffffffffff1673ffffffffffffffffffffffffffffffffffffffff1673ffffffffffffffffffffffffffffffffffffffff168152602001600182015481526020016002820154815260200160038201805461276590613855565b80601f016020809104026020016040519081016040528092919081815260200182805461279190613855565b80156127de5780601f106127b3576101008083540402835291602001916127de565b820191906000526020600020905b8154815290600101906020018083116127c157829003601f168201915b505050505081526020016004820180546127f790613855565b80601f016020809104026020016040519081016040528092919081815260200182805461282390613855565b80156128705780601f1061284557610100808354040283529160200191612870565b820191906000526020600020905b81548152906001019060200180831161285357829003601f168201915b505050505081526020016005820160009054906101000a900460ff161515151581526020016005820160019054906101000a900460ff161515151581526020016005820160029054906101000a900460ff1615151515815260200160068201805480602002602001604051908101604052809291908181526020016000905b82821015612a13578382906000526020600020906003020160405180608001604052908160008201805461292290613855565b80601f016020809104026020016040519081016040528092919081815260200182805461294e90613855565b801561299b5780601f106129705761010080835404028352916020019161299b565b820191906000526020600020905b81548152906001019060200180831161297e57829003601f168201915b50505050508152602001600182015481526020016002820160009054906101000a900460ff1660028111156129d3576129d261326a565b5b60028111156129e5576129e461326a565b5b81526020016002820160019054906101000a900460ff161515151581525050815260200190600101906128ef565b505050508152505082600183612a299190613f76565b81518110612a3a57612a39613d0e565b5b60200260200101819052508080612a5090613c5a565b915050612688565b5080915050919050565b60008073694aa1769357215de4fac081bf1f309adc325306905060008173ffffffffffffffffffffffffffffffffffffffff1663feaf968c6040518163ffffffff1660e01b815260040160a060405180830381865afa158015612ac9573d6000803e3d6000fd5b505050506040513d601f19601f82011682018060405250810190612aed9190614022565b5050509150506402540be40081612b04919061409d565b9250505090565b828054828255906000526020600020906003028101928215612bdb5760005260206000209160030282015b82811115612bda57828260008201816000019081612b549190613b43565b50600182015481600101556002820160009054906101000a900460ff168160020160006101000a81548160ff02191690836002811115612b9757612b9661326a565b5b02179055506002820160019054906101000a900460ff168160020160016101000a81548160ff021916908315150217905550505091600301919060030190612b36565b5b509050612be89190612c54565b5090565b604051806101200160405280600073ffffffffffffffffffffffffffffffffffffffff16815260200160008152602001600081526020016060815260200160608152602001600015158152602001600015158152602001600015158152602001606081525090565b5b80821115612ca75760008082016000612c6e9190612cab565b60018201600090556002820160006101000a81549060ff02191690556002820160016101000a81549060ff021916905550600301612c55565b5090565b508054612cb790613855565b6000825580601f10612cc95750612ce8565b601f016020900490600052602060002090810190612ce79190612ceb565b5b50565b5b80821115612d04576000816000905550600101612cec565b5090565b6000604051905090565b600080fd5b600080fd5b600073ffffffffffffffffffffffffffffffffffffffff82169050919050565b6000612d4782612d1c565b9050919050565b612d5781612d3c565b8114612d6257600080fd5b50565b600081359050612d7481612d4e565b92915050565b6000819050919050565b612d8d81612d7a565b8114612d9857600080fd5b50565b600081359050612daa81612d84565b92915050565b60008060408385031215612dc757612dc6612d12565b5b6000612dd585828601612d65565b9250506020612de685828601612d9b565b9150509250929050565b612df981612d3c565b82525050565b612e0881612d7a565b82525050565b600081519050919050565b600082825260208201905092915050565b60005b83811015612e48578082015181840152602081019050612e2d565b60008484015250505050565b6000601f19601f8301169050919050565b6000612e7082612e0e565b612e7a8185612e19565b9350612e8a818560208601612e2a565b612e9381612e54565b840191505092915050565b60008115159050919050565b612eb381612e9e565b82525050565b600061010082019050612ecf600083018b612df0565b612edc602083018a612dff565b612ee96040830189612dff565b8181036060830152612efb8188612e65565b90508181036080830152612f0f8187612e65565b9050612f1e60a0830186612eaa565b612f2b60c0830185612eaa565b612f3860e0830184612eaa565b9998505050505050505050565b600080600060608486031215612f5e57612f5d612d12565b5b6000612f6c86828701612d9b565b9350506020612f7d86828701612d65565b9250506040612f8e86828701612d9b565b9150509250925092565b600080fd5b600080fd5b7f4e487b7100000000000000000000000000000000000000000000000000000000600052604160045260246000fd5b612fda82612e54565b810181811067ffffffffffffffff82111715612ff957612ff8612fa2565b5b80604052505050565b600061300c612d08565b90506130188282612fd1565b919050565b600067ffffffffffffffff82111561303857613037612fa2565b5b61304182612e54565b9050602081019050919050565b82818337600083830152505050565b600061307061306b8461301d565b613002565b90508281526020810184848401111561308c5761308b612f9d565b5b61309784828561304e565b509392505050565b600082601f8301126130b4576130b3612f98565b5b81356130c484826020860161305d565b91505092915050565b600080600080600060a086880312156130e9576130e8612d12565b5b60006130f788828901612d65565b955050602061310888828901612d9b565b945050604061311988828901612d9b565b935050606086013567ffffffffffffffff81111561313a57613139612d17565b5b6131468882890161309f565b925050608086013567ffffffffffffffff81111561316757613166612d17565b5b6131738882890161309f565b9150509295509295909350565b60006020820190506131956000830184612dff565b92915050565b600081519050919050565b600082825260208201905092915050565b6000819050602082019050919050565b6131d081612d3c565b82525050565b6131df81612d7a565b82525050565b600082825260208201905092915050565b600061320182612e0e565b61320b81856131e5565b935061321b818560208601612e2a565b61322481612e54565b840191505092915050565b61323881612e9e565b82525050565b600081519050919050565b600082825260208201905092915050565b6000819050602082019050919050565b7f4e487b7100000000000000000000000000000000000000000000000000000000600052602160045260246000fd5b600381106132aa576132a961326a565b5b50565b60008190506132bb82613299565b919050565b60006132cb826132ad565b9050919050565b6132db816132c0565b82525050565b600060808301600083015184820360008601526132fe82826131f6565b915050602083015161331360208601826131d6565b50604083015161332660408601826132d2565b506060830151613339606086018261322f565b508091505092915050565b600061335083836132e1565b905092915050565b6000602082019050919050565b60006133708261323e565b61337a8185613249565b93508360208202850161338c8561325a565b8060005b858110156133c857848403895281516133a98582613344565b94506133b483613358565b925060208a01995050600181019050613390565b50829750879550505050505092915050565b6000610120830160008301516133f360008601826131c7565b50602083015161340660208601826131d6565b50604083015161341960408601826131d6565b506060830151848203606086015261343182826131f6565b9150506080830151848203608086015261344b82826131f6565b91505060a083015161346060a086018261322f565b5060c083015161347360c086018261322f565b5060e083015161348660e086018261322f565b506101008301518482036101008601526134a08282613365565b9150508091505092915050565b60006134b983836133da565b905092915050565b6000602082019050919050565b60006134d98261319b565b6134e381856131a6565b9350836020820285016134f5856131b7565b8060005b85811015613531578484038952815161351285826134ad565b945061351d836134c1565b925060208a019950506001810190506134f9565b50829750879550505050505092915050565b6000602082019050818103600083015261355d81846134ce565b905092915050565b60006020828403121561357b5761357a612d12565b5b600061358984828501612d9b565b91505092915050565b6000610120830160008301516135ab60008601826131c7565b5060208301516135be60208601826131d6565b5060408301516135d160408601826131d6565b50606083015184820360608601526135e982826131f6565b9150506080830151848203608086015261360382826131f6565b91505060a083015161361860a086018261322f565b5060c083015161362b60c086018261322f565b5060e083015161363e60e086018261322f565b506101008301518482036101008601526136588282613365565b9150508091505092915050565b6000602082019050818103600083015261367f8184613592565b905092915050565b600082825260208201905092915050565b60006136a38261323e565b6136ad8185613687565b9350836020820285016136bf8561325a565b8060005b858110156136fb57848403895281516136dc8582613344565b94506136e783613358565b925060208a019950506001810190506136c3565b50829750879550505050505092915050565b600060208201905081810360008301526137278184613698565b905092915050565b60006020828403121561374557613744612d12565b5b600061375384828501612d65565b91505092915050565b6000806040838503121561377357613772612d12565b5b600061378185828601612d9b565b925050602061379285828601612d9b565b9150509250929050565b60006020820190506137b16000830184612df0565b92915050565b6000806000606084860312156137d0576137cf612d12565b5b60006137de86828701612d9b565b935050602084013567ffffffffffffffff8111156137ff576137fe612d17565b5b61380b8682870161309f565b925050604061381c86828701612d9b565b9150509250925092565b7f4e487b7100000000000000000000000000000000000000000000000000000000600052602260045260246000fd5b6000600282049050600182168061386d57607f821691505b6020821081036138805761387f613826565b5b50919050565b600060408201905061389b6000830185612dff565b6138a86020830184612dff565b9392505050565b60008190508160005260206000209050919050565b60006020601f8301049050919050565b600082821b905092915050565b6000600883026139117fffffffffffffffffffffffffffffffffffffffffffffffffffffffffffffffff826138d4565b61391b86836138d4565b95508019841693508086168417925050509392505050565b6000819050919050565b600061395861395361394e84612d7a565b613933565b612d7a565b9050919050565b6000819050919050565b6139728361393d565b61398661397e8261395f565b8484546138e1565b825550505050565b600090565b61399b61398e565b6139a6818484613969565b505050565b5b818110156139ca576139bf600082613993565b6001810190506139ac565b5050565b601f821115613a0f576139e0816138af565b6139e9846138c4565b810160208510156139f8578190505b613a0c613a04856138c4565b8301826139ab565b50505b505050565b600082821c905092915050565b6000613a3260001984600802613a14565b1980831691505092915050565b6000613a4b8383613a21565b9150826002028217905092915050565b613a6482612e0e565b67ffffffffffffffff811115613a7d57613a7c612fa2565b5b613a878254613855565b613a928282856139ce565b600060209050601f831160018114613ac55760008415613ab3578287015190505b613abd8582613a3f565b865550613b25565b601f198416613ad3866138af565b60005b82811015613afb57848901518255600182019150602085019450602081019050613ad6565b86831015613b185784890151613b14601f891682613a21565b8355505b6001600288020188555050505b505050505050565b600081549050613b3c81613855565b9050919050565b818103613b51575050613c29565b613b5a82613b2d565b67ffffffffffffffff811115613b7357613b72612fa2565b5b613b7d8254613855565b613b888282856139ce565b6000601f831160018114613bb75760008415613ba5578287015490505b613baf8582613a3f565b865550613c22565b601f198416613bc5876138af565b9650613bd0866138af565b60005b82811015613bf857848901548255600182019150600185019450602081019050613bd3565b86831015613c155784890154613c11601f891682613a21565b8355505b6001600288020188555050505b5050505050505b565b7f4e487b7100000000000000000000000000000000000000000000000000000000600052601160045260246000fd5b6000613c6582612d7a565b91507fffffffffffffffffffffffffffffffffffffffffffffffffffffffffffffffff8203613c9757613c96613c2b565b5b600182019050919050565b7f496e76616c6964206d696c6573746f6e6520696e646578000000000000000000600082015250565b6000613cd8601783612e19565b9150613ce382613ca2565b602082019050919050565b60006020820190508181036000830152613d0781613ccb565b9050919050565b7f4e487b7100000000000000000000000000000000000000000000000000000000600052603260045260246000fd5b6000604082019050613d526000830185612df0565b613d5f6020830184612dff565b9392505050565b613d6f81612e9e565b8114613d7a57600080fd5b50565b600081519050613d8c81613d66565b92915050565b600060208284031215613da857613da7612d12565b5b6000613db684828501613d7d565b91505092915050565b60006040820190508181036000830152613dd98185612e65565b9050613de86020830184612dff565b9392505050565b600081519050613dfe81612d84565b92915050565b600060208284031215613e1a57613e19612d12565b5b6000613e2884828501613def565b91505092915050565b7f496e73756666696369656e742062616c616e6365000000000000000000000000600082015250565b6000613e67601483612e19565b9150613e7282613e31565b602082019050919050565b60006020820190508181036000830152613e9681613e5a565b9050919050565b6000606082019050613eb26000830186612df0565b613ebf6020830185612df0565b613ecc6040830184612dff565b949350505050565b6000613edf82612d7a565b9150613eea83612d7a565b9250828202613ef881612d7a565b91508282048414831517613f0f57613f0e613c2b565b5b5092915050565b7f4e487b7100000000000000000000000000000000000000000000000000000000600052601260045260246000fd5b6000613f5082612d7a565b9150613f5b83612d7a565b925082613f6b57613f6a613f16565b5b828204905092915050565b6000613f8182612d7a565b9150613f8c83612d7a565b9250828203905081811115613fa457613fa3613c2b565b5b92915050565b600069ffffffffffffffffffff82169050919050565b613fc981613faa565b8114613fd457600080fd5b50565b600081519050613fe681613fc0565b92915050565b6000819050919050565b613fff81613fec565b811461400a57600080fd5b50565b60008151905061401c81613ff6565b92915050565b600080600080600060a0868803121561403e5761403d612d12565b5b600061404c88828901613fd7565b955050602061405d8882890161400d565b945050604061406e88828901613def565b935050606061407f88828901613def565b925050608061409088828901613fd7565b9150509295509295909350565b60006140a882613fec565b91506140b383613fec565b92508282026140c181613fec565b91507f800000000000000000000000000000000000000000000000000000000000000084146000841216156140f9576140f8613c2b565b5b828205841483151761410e5761410d613c2b565b5b509291505056fea2646970667358221220c05d615d2d63fee4da60d977bcb01d20957130dbf2d6605ec955c30608a9e38864736f6c63430008180033a264697066735822122087d34049ffda79a02f6fe8403db3a63ad9feec9fc92ec3ec7fd31be3f9eb79e664736f6c63430008180033","opcodes":"PUSH1 0x80 PUSH1 0x40 MSTORE CALLVALUE DUP1 ISZERO PUSH2 0x10 JUMPI PUSH1 0x0 DUP1 REVERT JUMPDEST POP PUSH2 0x4984 DUP1 PUSH2 0x20 PUSH1 0x0 CODECOPY PUSH1 0x0 RETURN INVALID PUSH1 0x80 PUSH1 0x40 MSTORE CALLVALUE DUP1 ISZERO PUSH2 0x10 JUMPI PUSH1 0x0 DUP1 REVERT JUMPDEST POP PUSH1 0x4 CALLDATASIZE LT PUSH2 0x4C JUMPI PUSH1 0x0 CALLDATALOAD PUSH1 0xE0 SHR DUP1 PUSH4 0x2395517E EQ PUSH2 0x51 JUMPI DUP1 PUSH4 0x86E229B1 EQ PUSH2 0x81 JUMPI DUP1 PUSH4 0x8A374AD6 EQ PUSH2 0x9F JUMPI DUP1 PUSH4 0xB7F78520 EQ PUSH2 0xD0 JUMPI JUMPDEST PUSH1 0x0 DUP1 REVERT JUMPDEST PUSH2 0x6B PUSH1 0x4 DUP1 CALLDATASIZE SUB DUP2 ADD SWAP1 PUSH2 0x66 SWAP2 SWAP1 PUSH2 0x306 JUMP JUMPDEST PUSH2 0x100 JUMP JUMPDEST PUSH1 0x40 MLOAD PUSH2 0x78 SWAP2 SWAP1 PUSH2 0x3B2 JUMP JUMPDEST PUSH1 0x40 MLOAD DUP1 SWAP2 SUB SWAP1 RETURN JUMPDEST PUSH2 0x89 PUSH2 0x13F JUMP JUMPDEST PUSH1 0x40 MLOAD PUSH2 0x96 SWAP2 SWAP1 PUSH2 0x48B JUMP JUMPDEST PUSH1 0x40 MLOAD DUP1 SWAP2 SUB SWAP1 RETURN JUMPDEST PUSH2 0xB9 PUSH1 0x4 DUP1 CALLDATASIZE SUB DUP2 ADD SWAP1 PUSH2 0xB4 SWAP2 SWAP1 PUSH2 0x4EB JUMP JUMPDEST PUSH2 0x1CD JUMP JUMPDEST PUSH1 0x40 MLOAD PUSH2 0xC7 SWAP3 SWAP2 SWAP1 PUSH2 0x527 JUMP JUMPDEST PUSH1 0x40 MLOAD DUP1 SWAP2 SUB SWAP1 RETURN JUMPDEST PUSH2 0xEA PUSH1 0x4 DUP1 CALLDATASIZE SUB DUP2 ADD SWAP1 PUSH2 0xE5 SWAP2 SWAP1 PUSH2 0x306 JUMP JUMPDEST PUSH2 0x276 JUMP JUMPDEST PUSH1 0x40 MLOAD PUSH2 0xF7 SWAP2 SWAP1 PUSH2 0x3B2 JUMP JUMPDEST PUSH1 0x40 MLOAD DUP1 SWAP2 SUB SWAP1 RETURN JUMPDEST PUSH1 0x0 DUP2 DUP2 SLOAD DUP2 LT PUSH2 0x110 JUMPI PUSH1 0x0 DUP1 REVERT JUMPDEST SWAP1 PUSH1 0x0 MSTORE PUSH1 0x20 PUSH1 0x0 KECCAK256 ADD PUSH1 0x0 SWAP2 POP SLOAD SWAP1 PUSH2 0x100 EXP SWAP1 DIV PUSH20 0xFFFFFFFFFFFFFFFFFFFFFFFFFFFFFFFFFFFFFFFF AND DUP2 JUMP JUMPDEST PUSH1 0x60 PUSH1 0x0 DUP1 SLOAD DUP1 PUSH1 0x20 MUL PUSH1 0x20 ADD PUSH1 0x40 MLOAD SWAP1 DUP2 ADD PUSH1 0x40 MSTORE DUP1 SWAP3 SWAP2 SWAP1 DUP2 DUP2 MSTORE PUSH1 0x20 ADD DUP3 DUP1 SLOAD DUP1 ISZERO PUSH2 0x1C3 JUMPI PUSH1 0x20 MUL DUP3 ADD SWAP2 SWAP1 PUSH1 0x0 MSTORE PUSH1 0x20 PUSH1 0x0 KECCAK256 SWAP1 JUMPDEST DUP2 PUSH1 0x0 SWAP1 SLOAD SWAP1 PUSH2 0x100 EXP SWAP1 DIV PUSH20 0xFFFFFFFFFFFFFFFFFFFFFFFFFFFFFFFFFFFFFFFF AND PUSH20 0xFFFFFFFFFFFFFFFFFFFFFFFFFFFFFFFFFFFFFFFF AND DUP2 MSTORE PUSH1 0x20 ADD SWAP1 PUSH1 0x1 ADD SWAP1 DUP1 DUP4 GT PUSH2 0x179 JUMPI JUMPDEST POP POP POP POP POP SWAP1 POP SWAP1 JUMP JUMPDEST PUSH1 0x0 DUP1 DUP3 PUSH1 0x40 MLOAD PUSH2 0x1DD SWAP1 PUSH2 0x2BD JUMP JUMPDEST PUSH2 0x1E7 SWAP2 SWAP1 PUSH2 0x55F JUMP JUMPDEST PUSH1 0x40 MLOAD DUP1 SWAP2 SUB SWAP1 PUSH1 0x0 CREATE DUP1 ISZERO DUP1 ISZERO PUSH2 0x203 JUMPI RETURNDATASIZE PUSH1 0x0 DUP1 RETURNDATACOPY RETURNDATASIZE PUSH1 0x0 REVERT JUMPDEST POP SWAP2 POP PUSH1 0x0 DUP3 SWAP1 DUP1 PUSH1 0x1 DUP2 SLOAD ADD DUP1 DUP3 SSTORE DUP1 SWAP2 POP POP PUSH1 0x1 SWAP1 SUB SWAP1 PUSH1 0x0 MSTORE PUSH1 0x20 PUSH1 0x0 KECCAK256 ADD PUSH1 0x0 SWAP1 SWAP2 SWAP1 SWAP2 SWAP1 SWAP2 PUSH2 0x100 EXP DUP2 SLOAD DUP2 PUSH20 0xFFFFFFFFFFFFFFFFFFFFFFFFFFFFFFFFFFFFFFFF MUL NOT AND SWAP1 DUP4 PUSH20 0xFFFFFFFFFFFFFFFFFFFFFFFFFFFFFFFFFFFFFFFF AND MUL OR SWAP1 SSTORE POP PUSH1 0x0 DUP1 SLOAD SWAP1 POP SWAP1 POP SWAP2 POP SWAP2 JUMP JUMPDEST PUSH1 0x0 DUP1 DUP3 DUP2 SLOAD DUP2 LT PUSH2 0x28B JUMPI PUSH2 0x28A PUSH2 0x57A JUMP JUMPDEST JUMPDEST SWAP1 PUSH1 0x0 MSTORE PUSH1 0x20 PUSH1 0x0 KECCAK256 ADD PUSH1 0x0 SWAP1 SLOAD SWAP1 PUSH2 0x100 EXP SWAP1 DIV PUSH20 0xFFFFFFFFFFFFFFFFFFFFFFFFFFFFFFFFFFFFFFFF AND SWAP1 POP SWAP2 SWAP1 POP JUMP JUMPDEST PUSH2 0x43A5 DUP1 PUSH3 0x5AA DUP4 CODECOPY ADD SWAP1 JUMP JUMPDEST PUSH1 0x0 DUP1 REVERT JUMPDEST PUSH1 0x0 DUP2 SWAP1 POP SWAP2 SWAP1 POP JUMP JUMPDEST PUSH2 0x2E3 DUP2 PUSH2 0x2D0 JUMP JUMPDEST DUP2 EQ PUSH2 0x2EE JUMPI PUSH1 0x0 DUP1 REVERT JUMPDEST POP JUMP JUMPDEST PUSH1 0x0 DUP2 CALLDATALOAD SWAP1 POP PUSH2 0x300 DUP2 PUSH2 0x2DA JUMP JUMPDEST SWAP3 SWAP2 POP POP JUMP JUMPDEST PUSH1 0x0 PUSH1 0x20 DUP3 DUP5 SUB SLT ISZERO PUSH2 0x31C JUMPI PUSH2 0x31B PUSH2 0x2CB JUMP JUMPDEST JUMPDEST PUSH1 0x0 PUSH2 0x32A DUP5 DUP3 DUP6 ADD PUSH2 0x2F1 JUMP JUMPDEST SWAP2 POP POP SWAP3 SWAP2 POP POP JUMP JUMPDEST PUSH1 0x0 PUSH20 0xFFFFFFFFFFFFFFFFFFFFFFFFFFFFFFFFFFFFFFFF DUP3 AND SWAP1 POP SWAP2 SWAP1 POP JUMP JUMPDEST PUSH1 0x0 DUP2 SWAP1 POP SWAP2 SWAP1 POP JUMP JUMPDEST PUSH1 0x0 PUSH2 0x378 PUSH2 0x373 PUSH2 0x36E DUP5 PUSH2 0x333 JUMP JUMPDEST PUSH2 0x353 JUMP JUMPDEST PUSH2 0x333 JUMP JUMPDEST SWAP1 POP SWAP2 SWAP1 POP JUMP JUMPDEST PUSH1 0x0 PUSH2 0x38A DUP3 PUSH2 0x35D JUMP JUMPDEST SWAP1 POP SWAP2 SWAP1 POP JUMP JUMPDEST PUSH1 0x0 PUSH2 0x39C DUP3 PUSH2 0x37F JUMP JUMPDEST SWAP1 POP SWAP2 SWAP1 POP JUMP JUMPDEST PUSH2 0x3AC DUP2 PUSH2 0x391 JUMP JUMPDEST DUP3 MSTORE POP POP JUMP JUMPDEST PUSH1 0x0 PUSH1 0x20 DUP3 ADD SWAP1 POP PUSH2 0x3C7 PUSH1 0x0 DUP4 ADD DUP5 PUSH2 0x3A3 JUMP JUMPDEST SWAP3 SWAP2 POP POP JUMP JUMPDEST PUSH1 0x0 DUP2 MLOAD SWAP1 POP SWAP2 SWAP1 POP JUMP JUMPDEST PUSH1 0x0 DUP3 DUP3 MSTORE PUSH1 0x20 DUP3 ADD SWAP1 POP SWAP3 SWAP2 POP POP JUMP JUMPDEST PUSH1 0x0 DUP2 SWAP1 POP PUSH1 0x20 DUP3 ADD SWAP1 POP SWAP2 SWAP1 POP JUMP JUMPDEST PUSH2 0x402 DUP2 PUSH2 0x391 JUMP JUMPDEST DUP3 MSTORE POP POP JUMP JUMPDEST PUSH1 0x0 PUSH2 0x414 DUP4 DUP4 PUSH2 0x3F9 JUMP JUMPDEST PUSH1 0x20 DUP4 ADD SWAP1 POP SWAP3 SWAP2 POP POP JUMP JUMPDEST PUSH1 0x0 PUSH1 0x20 DUP3 ADD SWAP1 POP SWAP2 SWAP1 POP JUMP JUMPDEST PUSH1 0x0 PUSH2 0x438 DUP3 PUSH2 0x3CD JUMP JUMPDEST PUSH2 0x442 DUP2 DUP6 PUSH2 0x3D8 JUMP JUMPDEST SWAP4 POP PUSH2 0x44D DUP4 PUSH2 0x3E9 JUMP JUMPDEST DUP1 PUSH1 0x0 JUMPDEST DUP4 DUP2 LT ISZERO PUSH2 0x47E JUMPI DUP2 MLOAD PUSH2 0x465 DUP9 DUP3 PUSH2 0x408 JUMP JUMPDEST SWAP8 POP PUSH2 0x470 DUP4 PUSH2 0x420 JUMP JUMPDEST SWAP3 POP POP PUSH1 0x1 DUP2 ADD SWAP1 POP PUSH2 0x451 JUMP JUMPDEST POP DUP6 SWAP4 POP POP POP POP SWAP3 SWAP2 POP POP JUMP JUMPDEST PUSH1 0x0 PUSH1 0x20 DUP3 ADD SWAP1 POP DUP2 DUP2 SUB PUSH1 0x0 DUP4 ADD MSTORE PUSH2 0x4A5 DUP2 DUP5 PUSH2 0x42D JUMP JUMPDEST SWAP1 POP SWAP3 SWAP2 POP POP JUMP JUMPDEST PUSH1 0x0 PUSH2 0x4B8 DUP3 PUSH2 0x333 JUMP JUMPDEST SWAP1 POP SWAP2 SWAP1 POP JUMP JUMPDEST PUSH2 0x4C8 DUP2 PUSH2 0x4AD JUMP JUMPDEST DUP2 EQ PUSH2 0x4D3 JUMPI PUSH1 0x0 DUP1 REVERT JUMPDEST POP JUMP JUMPDEST PUSH1 0x0 DUP2 CALLDATALOAD SWAP1 POP PUSH2 0x4E5 DUP2 PUSH2 0x4BF JUMP JUMPDEST SWAP3 SWAP2 POP POP JUMP JUMPDEST PUSH1 0x0 PUSH1 0x20 DUP3 DUP5 SUB SLT ISZERO PUSH2 0x501 JUMPI PUSH2 0x500 PUSH2 0x2CB JUMP JUMPDEST JUMPDEST PUSH1 0x0 PUSH2 0x50F DUP5 DUP3 DUP6 ADD PUSH2 0x4D6 JUMP JUMPDEST SWAP2 POP POP SWAP3 SWAP2 POP POP JUMP JUMPDEST PUSH2 0x521 DUP2 PUSH2 0x2D0 JUMP JUMPDEST DUP3 MSTORE POP POP JUMP JUMPDEST PUSH1 0x0 PUSH1 0x40 DUP3 ADD SWAP1 POP PUSH2 0x53C PUSH1 0x0 DUP4 ADD DUP6 PUSH2 0x3A3 JUMP JUMPDEST PUSH2 0x549 PUSH1 0x20 DUP4 ADD DUP5 PUSH2 0x518 JUMP JUMPDEST SWAP4 SWAP3 POP POP POP JUMP JUMPDEST PUSH2 0x559 DUP2 PUSH2 0x4AD JUMP JUMPDEST DUP3 MSTORE POP POP JUMP JUMPDEST PUSH1 0x0 PUSH1 0x20 DUP3 ADD SWAP1 POP PUSH2 0x574 PUSH1 0x0 DUP4 ADD DUP5 PUSH2 0x550 JUMP JUMPDEST SWAP3 SWAP2 POP POP JUMP JUMPDEST PUSH32 0x4E487B7100000000000000000000000000000000000000000000000000000000 PUSH1 0x0 MSTORE PUSH1 0x32 PUSH1 0x4 MSTORE PUSH1 0x24 PUSH1 0x0 REVERT INVALID PUSH1 0x80 PUSH1 0x40 MSTORE PUSH1 0x5 PUSH1 0x1 PUSH1 0x14 PUSH2 0x100 EXP DUP2 SLOAD DUP2 PUSH1 0xFF MUL NOT AND SWAP1 DUP4 PUSH1 0xFF AND MUL OR SWAP1 SSTORE POP PUSH1 0x1 PUSH1 0x4 SSTORE CALLVALUE DUP1 ISZERO PUSH3 0x32 JUMPI PUSH1 0x0 DUP1 REVERT JUMPDEST POP PUSH1 0x40 MLOAD PUSH3 0x43A5 CODESIZE SUB DUP1 PUSH3 0x43A5 DUP4 CODECOPY DUP2 DUP2 ADD PUSH1 0x40 MSTORE DUP2 ADD SWAP1 PUSH3 0x58 SWAP2 SWAP1 PUSH3 0x218 JUMP JUMPDEST PUSH1 0x0 PUSH20 0xFFFFFFFFFFFFFFFFFFFFFFFFFFFFFFFFFFFFFFFF AND CALLER PUSH20 0xFFFFFFFFFFFFFFFFFFFFFFFFFFFFFFFFFFFFFFFF AND SUB PUSH3 0xBF JUMPI PUSH1 0x40 MLOAD PUSH32 0x5F252DAF00000000000000000000000000000000000000000000000000000000 DUP2 MSTORE PUSH1 0x4 ADD PUSH1 0x40 MLOAD DUP1 SWAP2 SUB SWAP1 REVERT JUMPDEST PUSH1 0x0 PUSH20 0xFFFFFFFFFFFFFFFFFFFFFFFFFFFFFFFFFFFFFFFF AND DUP2 PUSH20 0xFFFFFFFFFFFFFFFFFFFFFFFFFFFFFFFFFFFFFFFF AND SUB PUSH3 0x126 JUMPI PUSH1 0x40 MLOAD PUSH32 0x5F252DAF00000000000000000000000000000000000000000000000000000000 DUP2 MSTORE PUSH1 0x4 ADD PUSH1 0x40 MLOAD DUP1 SWAP2 SUB SWAP1 REVERT JUMPDEST CALLER PUSH1 0x0 DUP1 PUSH2 0x100 EXP DUP2 SLOAD DUP2 PUSH20 0xFFFFFFFFFFFFFFFFFFFFFFFFFFFFFFFFFFFFFFFF MUL NOT AND SWAP1 DUP4 PUSH20 0xFFFFFFFFFFFFFFFFFFFFFFFFFFFFFFFFFFFFFFFF AND MUL OR SWAP1 SSTORE POP DUP1 PUSH1 0x1 PUSH1 0x0 PUSH2 0x100 EXP DUP2 SLOAD DUP2 PUSH20 0xFFFFFFFFFFFFFFFFFFFFFFFFFFFFFFFFFFFFFFFF MUL NOT AND SWAP1 DUP4 PUSH20 0xFFFFFFFFFFFFFFFFFFFFFFFFFFFFFFFFFFFFFFFF AND MUL OR SWAP1 SSTORE POP POP PUSH3 0x24A JUMP JUMPDEST PUSH1 0x0 DUP1 REVERT JUMPDEST PUSH1 0x0 PUSH20 0xFFFFFFFFFFFFFFFFFFFFFFFFFFFFFFFFFFFFFFFF DUP3 AND SWAP1 POP SWAP2 SWAP1 POP JUMP JUMPDEST PUSH1 0x0 PUSH3 0x1E0 DUP3 PUSH3 0x1B3 JUMP JUMPDEST SWAP1 POP SWAP2 SWAP1 POP JUMP JUMPDEST PUSH3 0x1F2 DUP2 PUSH3 0x1D3 JUMP JUMPDEST DUP2 EQ PUSH3 0x1FE JUMPI PUSH1 0x0 DUP1 REVERT JUMPDEST POP JUMP JUMPDEST PUSH1 0x0 DUP2 MLOAD SWAP1 POP PUSH3 0x212 DUP2 PUSH3 0x1E7 JUMP JUMPDEST SWAP3 SWAP2 POP POP JUMP JUMPDEST PUSH1 0x0 PUSH1 0x20 DUP3 DUP5 SUB SLT ISZERO PUSH3 0x231 JUMPI PUSH3 0x230 PUSH3 0x1AE JUMP JUMPDEST JUMPDEST PUSH1 0x0 PUSH3 0x241 DUP5 DUP3 DUP6 ADD PUSH3 0x201 JUMP JUMPDEST SWAP2 POP POP SWAP3 SWAP2 POP POP JUMP JUMPDEST PUSH2 0x414B DUP1 PUSH3 0x25A PUSH1 0x0 CODECOPY PUSH1 0x0 RETURN INVALID PUSH1 0x80 PUSH1 0x40 MSTORE CALLVALUE DUP1 ISZERO PUSH2 0x10 JUMPI PUSH1 0x0 DUP1 REVERT JUMPDEST POP PUSH1 0x4 CALLDATASIZE LT PUSH2 0xF5 JUMPI PUSH1 0x0 CALLDATALOAD PUSH1 0xE0 SHR DUP1 PUSH4 0x5CAE48F5 GT PUSH2 0x97 JUMPI DUP1 PUSH4 0x98DF912E GT PUSH2 0x66 JUMPI DUP1 PUSH4 0x98DF912E EQ PUSH2 0x2B1 JUMPI DUP1 PUSH4 0xD16C0D4E EQ PUSH2 0x2CD JUMPI DUP1 PUSH4 0xF3C3D215 EQ PUSH2 0x2E9 JUMPI DUP1 PUSH4 0xF835CD3C EQ PUSH2 0x305 JUMPI PUSH2 0xF5 JUMP JUMPDEST DUP1 PUSH4 0x5CAE48F5 EQ PUSH2 0x22B JUMPI DUP1 PUSH4 0x68A93D2D EQ PUSH2 0x247 JUMPI DUP1 PUSH4 0x7A465219 EQ PUSH2 0x265 JUMPI DUP1 PUSH4 0x8BEED0F8 EQ PUSH2 0x295 JUMPI PUSH2 0xF5 JUMP JUMPDEST DUP1 PUSH4 0x3141DA53 GT PUSH2 0xD3 JUMPI DUP1 PUSH4 0x3141DA53 EQ PUSH2 0x17D JUMPI DUP1 PUSH4 0x3A23CC0A EQ PUSH2 0x19B JUMPI DUP1 PUSH4 0x42C549C0 EQ PUSH2 0x1CB JUMPI DUP1 PUSH4 0x4B7535D9 EQ PUSH2 0x1FB JUMPI PUSH2 0xF5 JUMP JUMPDEST DUP1 PUSH4 0xDAD62FA EQ PUSH2 0xFA JUMPI DUP1 PUSH4 0x27F67714 EQ PUSH2 0x131 JUMPI DUP1 PUSH4 0x294E70D2 EQ PUSH2 0x14D JUMPI JUMPDEST PUSH1 0x0 DUP1 REVERT JUMPDEST PUSH2 0x114 PUSH1 0x4 DUP1 CALLDATASIZE SUB DUP2 ADD SWAP1 PUSH2 0x10F SWAP2 SWAP1 PUSH2 0x2DB0 JUMP JUMPDEST PUSH2 0x323 JUMP JUMPDEST PUSH1 0x40 MLOAD PUSH2 0x128 SWAP9 SWAP8 SWAP7 SWAP6 SWAP5 SWAP4 SWAP3 SWAP2 SWAP1 PUSH2 0x2EB9 JUMP JUMPDEST PUSH1 0x40 MLOAD DUP1 SWAP2 SUB SWAP1 RETURN JUMPDEST PUSH2 0x14B PUSH1 0x4 DUP1 CALLDATASIZE SUB DUP2 ADD SWAP1 PUSH2 0x146 SWAP2 SWAP1 PUSH2 0x2F45 JUMP JUMPDEST PUSH2 0x4CF JUMP JUMPDEST STOP JUMPDEST PUSH2 0x167 PUSH1 0x4 DUP1 CALLDATASIZE SUB DUP2 ADD SWAP1 PUSH2 0x162 SWAP2 SWAP1 PUSH2 0x30CD JUMP JUMPDEST PUSH2 0x524 JUMP JUMPDEST PUSH1 0x40 MLOAD PUSH2 0x174 SWAP2 SWAP1 PUSH2 0x3180 JUMP JUMPDEST PUSH1 0x40 MLOAD DUP1 SWAP2 SUB SWAP1 RETURN JUMPDEST PUSH2 0x185 PUSH2 0x986 JUMP JUMPDEST PUSH1 0x40 MLOAD PUSH2 0x192 SWAP2 SWAP1 PUSH2 0x3543 JUMP JUMPDEST PUSH1 0x40 MLOAD DUP1 SWAP2 SUB SWAP1 RETURN JUMPDEST PUSH2 0x1B5 PUSH1 0x4 DUP1 CALLDATASIZE SUB DUP2 ADD SWAP1 PUSH2 0x1B0 SWAP2 SWAP1 PUSH2 0x3565 JUMP JUMPDEST PUSH2 0xB1A JUMP JUMPDEST PUSH1 0x40 MLOAD PUSH2 0x1C2 SWAP2 SWAP1 PUSH2 0x3665 JUMP JUMPDEST PUSH1 0x40 MLOAD DUP1 SWAP2 SUB SWAP1 RETURN JUMPDEST PUSH2 0x1E5 PUSH1 0x4 DUP1 CALLDATASIZE SUB DUP2 ADD SWAP1 PUSH2 0x1E0 SWAP2 SWAP1 PUSH2 0x3565 JUMP JUMPDEST PUSH2 0xF8A JUMP JUMPDEST PUSH1 0x40 MLOAD PUSH2 0x1F2 SWAP2 SWAP1 PUSH2 0x370D JUMP JUMPDEST PUSH1 0x40 MLOAD DUP1 SWAP2 SUB SWAP1 RETURN JUMPDEST PUSH2 0x215 PUSH1 0x4 DUP1 CALLDATASIZE SUB DUP2 ADD SWAP1 PUSH2 0x210 SWAP2 SWAP1 PUSH2 0x372F JUMP JUMPDEST PUSH2 0x114F JUMP JUMPDEST PUSH1 0x40 MLOAD PUSH2 0x222 SWAP2 SWAP1 PUSH2 0x3180 JUMP JUMPDEST PUSH1 0x40 MLOAD DUP1 SWAP2 SUB SWAP1 RETURN JUMPDEST PUSH2 0x245 PUSH1 0x4 DUP1 CALLDATASIZE SUB DUP2 ADD SWAP1 PUSH2 0x240 SWAP2 SWAP1 PUSH2 0x375C JUMP JUMPDEST PUSH2 0x1167 JUMP JUMPDEST STOP JUMPDEST PUSH2 0x24F PUSH2 0x12B8 JUMP JUMPDEST PUSH1 0x40 MLOAD PUSH2 0x25C SWAP2 SWAP1 PUSH2 0x379C JUMP JUMPDEST PUSH1 0x40 MLOAD DUP1 SWAP2 SUB SWAP1 RETURN JUMPDEST PUSH2 0x27F PUSH1 0x4 DUP1 CALLDATASIZE SUB DUP2 ADD SWAP1 PUSH2 0x27A SWAP2 SWAP1 PUSH2 0x372F JUMP JUMPDEST PUSH2 0x12DC JUMP JUMPDEST PUSH1 0x40 MLOAD PUSH2 0x28C SWAP2 SWAP1 PUSH2 0x3543 JUMP JUMPDEST PUSH1 0x40 MLOAD DUP1 SWAP2 SUB SWAP1 RETURN JUMPDEST PUSH2 0x2AF PUSH1 0x4 DUP1 CALLDATASIZE SUB DUP2 ADD SWAP1 PUSH2 0x2AA SWAP2 SWAP1 PUSH2 0x3565 JUMP JUMPDEST PUSH2 0x1902 JUMP JUMPDEST STOP JUMPDEST PUSH2 0x2CB PUSH1 0x4 DUP1 CALLDATASIZE SUB DUP2 ADD SWAP1 PUSH2 0x2C6 SWAP2 SWAP1 PUSH2 0x37B7 JUMP JUMPDEST PUSH2 0x1DD5 JUMP JUMPDEST STOP JUMPDEST PUSH2 0x2E7 PUSH1 0x4 DUP1 CALLDATASIZE SUB DUP2 ADD SWAP1 PUSH2 0x2E2 SWAP2 SWAP1 PUSH2 0x375C JUMP JUMPDEST PUSH2 0x1F60 JUMP JUMPDEST STOP JUMPDEST PUSH2 0x303 PUSH1 0x4 DUP1 CALLDATASIZE SUB DUP2 ADD SWAP1 PUSH2 0x2FE SWAP2 SWAP1 PUSH2 0x3565 JUMP JUMPDEST PUSH2 0x23AB JUMP JUMPDEST STOP JUMPDEST PUSH2 0x30D PUSH2 0x257E JUMP JUMPDEST PUSH1 0x40 MLOAD PUSH2 0x31A SWAP2 SWAP1 PUSH2 0x379C JUMP JUMPDEST PUSH1 0x40 MLOAD DUP1 SWAP2 SUB SWAP1 RETURN JUMPDEST PUSH1 0x2 PUSH1 0x20 MSTORE DUP2 PUSH1 0x0 MSTORE PUSH1 0x40 PUSH1 0x0 KECCAK256 PUSH1 0x20 MSTORE DUP1 PUSH1 0x0 MSTORE PUSH1 0x40 PUSH1 0x0 KECCAK256 PUSH1 0x0 SWAP2 POP SWAP2 POP POP DUP1 PUSH1 0x0 ADD PUSH1 0x0 SWAP1 SLOAD SWAP1 PUSH2 0x100 EXP SWAP1 DIV PUSH20 0xFFFFFFFFFFFFFFFFFFFFFFFFFFFFFFFFFFFFFFFF AND SWAP1 DUP1 PUSH1 0x1 ADD SLOAD SWAP1 DUP1 PUSH1 0x2 ADD SLOAD SWAP1 DUP1 PUSH1 0x3 ADD DUP1 SLOAD PUSH2 0x385 SWAP1 PUSH2 0x3855 JUMP JUMPDEST DUP1 PUSH1 0x1F ADD PUSH1 0x20 DUP1 SWAP2 DIV MUL PUSH1 0x20 ADD PUSH1 0x40 MLOAD SWAP1 DUP2 ADD PUSH1 0x40 MSTORE DUP1 SWAP3 SWAP2 SWAP1 DUP2 DUP2 MSTORE PUSH1 0x20 ADD DUP3 DUP1 SLOAD PUSH2 0x3B1 SWAP1 PUSH2 0x3855 JUMP JUMPDEST DUP1 ISZERO PUSH2 0x3FE JUMPI DUP1 PUSH1 0x1F LT PUSH2 0x3D3 JUMPI PUSH2 0x100 DUP1 DUP4 SLOAD DIV MUL DUP4 MSTORE SWAP2 PUSH1 0x20 ADD SWAP2 PUSH2 0x3FE JUMP JUMPDEST DUP3 ADD SWAP2 SWAP1 PUSH1 0x0 MSTORE PUSH1 0x20 PUSH1 0x0 KECCAK256 SWAP1 JUMPDEST DUP2 SLOAD DUP2 MSTORE SWAP1 PUSH1 0x1 ADD SWAP1 PUSH1 0x20 ADD DUP1 DUP4 GT PUSH2 0x3E1 JUMPI DUP3 SWAP1 SUB PUSH1 0x1F AND DUP3 ADD SWAP2 JUMPDEST POP POP POP POP POP SWAP1 DUP1 PUSH1 0x4 ADD DUP1 SLOAD PUSH2 0x413 SWAP1 PUSH2 0x3855 JUMP JUMPDEST DUP1 PUSH1 0x1F ADD PUSH1 0x20 DUP1 SWAP2 DIV MUL PUSH1 0x20 ADD PUSH1 0x40 MLOAD SWAP1 DUP2 ADD PUSH1 0x40 MSTORE DUP1 SWAP3 SWAP2 SWAP1 DUP2 DUP2 MSTORE PUSH1 0x20 ADD DUP3 DUP1 SLOAD PUSH2 0x43F SWAP1 PUSH2 0x3855 JUMP JUMPDEST DUP1 ISZERO PUSH2 0x48C JUMPI DUP1 PUSH1 0x1F LT PUSH2 0x461 JUMPI PUSH2 0x100 DUP1 DUP4 SLOAD DIV MUL DUP4 MSTORE SWAP2 PUSH1 0x20 ADD SWAP2 PUSH2 0x48C JUMP JUMPDEST DUP3 ADD SWAP2 SWAP1 PUSH1 0x0 MSTORE PUSH1 0x20 PUSH1 0x0 KECCAK256 SWAP1 JUMPDEST DUP2 SLOAD DUP2 MSTORE SWAP1 PUSH1 0x1 ADD SWAP1 PUSH1 0x20 ADD DUP1 DUP4 GT PUSH2 0x46F JUMPI DUP3 SWAP1 SUB PUSH1 0x1F AND DUP3 ADD SWAP2 JUMPDEST POP POP POP POP POP SWAP1 DUP1 PUSH1 0x5 ADD PUSH1 0x0 SWAP1 SLOAD SWAP1 PUSH2 0x100 EXP SWAP1 DIV PUSH1 0xFF AND SWAP1 DUP1 PUSH1 0x5 ADD PUSH1 0x1 SWAP1 SLOAD SWAP1 PUSH2 0x100 EXP SWAP1 DIV PUSH1 0xFF AND SWAP1 DUP1 PUSH1 0x5 ADD PUSH1 0x2 SWAP1 SLOAD SWAP1 PUSH2 0x100 EXP SWAP1 DIV PUSH1 0xFF AND SWAP1 POP DUP9 JUMP JUMPDEST DUP2 PUSH20 0xFFFFFFFFFFFFFFFFFFFFFFFFFFFFFFFFFFFFFFFF AND PUSH32 0x1C2934A9876C21213C8C5214B30ED4D3746B82E17EE23221937968711D05471E DUP5 DUP4 PUSH1 0x40 MLOAD PUSH2 0x517 SWAP3 SWAP2 SWAP1 PUSH2 0x3886 JUMP JUMPDEST PUSH1 0x40 MLOAD DUP1 SWAP2 SUB SWAP1 LOG2 POP POP POP JUMP JUMPDEST PUSH1 0x0 DUP1 PUSH20 0xFFFFFFFFFFFFFFFFFFFFFFFFFFFFFFFFFFFFFFFF AND CALLER PUSH20 0xFFFFFFFFFFFFFFFFFFFFFFFFFFFFFFFFFFFFFFFF AND SUB PUSH2 0x58B JUMPI PUSH1 0x40 MLOAD PUSH32 0x5F252DAF00000000000000000000000000000000000000000000000000000000 DUP2 MSTORE PUSH1 0x4 ADD PUSH1 0x40 MLOAD DUP1 SWAP2 SUB SWAP1 REVERT JUMPDEST PUSH1 0x0 DUP1 SLOAD SWAP1 PUSH2 0x100 EXP SWAP1 DIV PUSH20 0xFFFFFFFFFFFFFFFFFFFFFFFFFFFFFFFFFFFFFFFF AND PUSH20 0xFFFFFFFFFFFFFFFFFFFFFFFFFFFFFFFFFFFFFFFF AND CALLER PUSH20 0xFFFFFFFFFFFFFFFFFFFFFFFFFFFFFFFFFFFFFFFF AND EQ PUSH2 0x610 JUMPI PUSH1 0x40 MLOAD PUSH32 0x5915277700000000000000000000000000000000000000000000000000000000 DUP2 MSTORE PUSH1 0x4 ADD PUSH1 0x40 MLOAD DUP1 SWAP2 SUB SWAP1 REVERT JUMPDEST PUSH1 0x0 PUSH2 0x61B DUP7 PUSH2 0x25A4 JUMP JUMPDEST SWAP1 POP PUSH1 0x4 SLOAD SWAP2 POP PUSH1 0x0 PUSH1 0x2 PUSH1 0x0 DUP1 PUSH1 0x0 SWAP1 SLOAD SWAP1 PUSH2 0x100 EXP SWAP1 DIV PUSH20 0xFFFFFFFFFFFFFFFFFFFFFFFFFFFFFFFFFFFFFFFF AND PUSH20 0xFFFFFFFFFFFFFFFFFFFFFFFFFFFFFFFFFFFFFFFF AND PUSH20 0xFFFFFFFFFFFFFFFFFFFFFFFFFFFFFFFFFFFFFFFF AND DUP2 MSTORE PUSH1 0x20 ADD SWAP1 DUP2 MSTORE PUSH1 0x20 ADD PUSH1 0x0 KECCAK256 PUSH1 0x0 DUP5 DUP2 MSTORE PUSH1 0x20 ADD SWAP1 DUP2 MSTORE PUSH1 0x20 ADD PUSH1 0x0 KECCAK256 SWAP1 POP DUP8 DUP2 PUSH1 0x0 ADD PUSH1 0x0 PUSH2 0x100 EXP DUP2 SLOAD DUP2 PUSH20 0xFFFFFFFFFFFFFFFFFFFFFFFFFFFFFFFFFFFFFFFF MUL NOT AND SWAP1 DUP4 PUSH20 0xFFFFFFFFFFFFFFFFFFFFFFFFFFFFFFFFFFFFFFFF AND MUL OR SWAP1 SSTORE POP DUP2 DUP2 PUSH1 0x1 ADD DUP2 SWAP1 SSTORE POP DUP6 DUP2 PUSH1 0x2 ADD DUP2 SWAP1 SSTORE POP DUP5 DUP2 PUSH1 0x3 ADD SWAP1 DUP2 PUSH2 0x6FD SWAP2 SWAP1 PUSH2 0x3A5B JUMP JUMPDEST POP DUP4 DUP2 PUSH1 0x4 ADD SWAP1 DUP2 PUSH2 0x70F SWAP2 SWAP1 PUSH2 0x3A5B JUMP JUMPDEST POP DUP1 PUSH1 0x2 PUSH1 0x0 CALLER PUSH20 0xFFFFFFFFFFFFFFFFFFFFFFFFFFFFFFFFFFFFFFFF AND PUSH20 0xFFFFFFFFFFFFFFFFFFFFFFFFFFFFFFFFFFFFFFFF AND DUP2 MSTORE PUSH1 0x20 ADD SWAP1 DUP2 MSTORE PUSH1 0x20 ADD PUSH1 0x0 KECCAK256 PUSH1 0x0 DUP6 DUP2 MSTORE PUSH1 0x20 ADD SWAP1 DUP2 MSTORE PUSH1 0x20 ADD PUSH1 0x0 KECCAK256 PUSH1 0x0 DUP3 ADD PUSH1 0x0 SWAP1 SLOAD SWAP1 PUSH2 0x100 EXP SWAP1 DIV PUSH20 0xFFFFFFFFFFFFFFFFFFFFFFFFFFFFFFFFFFFFFFFF AND DUP2 PUSH1 0x0 ADD PUSH1 0x0 PUSH2 0x100 EXP DUP2 SLOAD DUP2 PUSH20 0xFFFFFFFFFFFFFFFFFFFFFFFFFFFFFFFFFFFFFFFF MUL NOT AND SWAP1 DUP4 PUSH20 0xFFFFFFFFFFFFFFFFFFFFFFFFFFFFFFFFFFFFFFFF AND MUL OR SWAP1 SSTORE POP PUSH1 0x1 DUP3 ADD SLOAD DUP2 PUSH1 0x1 ADD SSTORE PUSH1 0x2 DUP3 ADD SLOAD DUP2 PUSH1 0x2 ADD SSTORE PUSH1 0x3 DUP3 ADD DUP2 PUSH1 0x3 ADD SWAP1 DUP2 PUSH2 0x7F0 SWAP2 SWAP1 PUSH2 0x3B43 JUMP JUMPDEST POP PUSH1 0x4 DUP3 ADD DUP2 PUSH1 0x4 ADD SWAP1 DUP2 PUSH2 0x805 SWAP2 SWAP1 PUSH2 0x3B43 JUMP JUMPDEST POP PUSH1 0x5 DUP3 ADD PUSH1 0x0 SWAP1 SLOAD SWAP1 PUSH2 0x100 EXP SWAP1 DIV PUSH1 0xFF AND DUP2 PUSH1 0x5 ADD PUSH1 0x0 PUSH2 0x100 EXP DUP2 SLOAD DUP2 PUSH1 0xFF MUL NOT AND SWAP1 DUP4 ISZERO ISZERO MUL OR SWAP1 SSTORE POP PUSH1 0x5 DUP3 ADD PUSH1 0x1 SWAP1 SLOAD SWAP1 PUSH2 0x100 EXP SWAP1 DIV PUSH1 0xFF AND DUP2 PUSH1 0x5 ADD PUSH1 0x1 PUSH2 0x100 EXP DUP2 SLOAD DUP2 PUSH1 0xFF MUL NOT AND SWAP1 DUP4 ISZERO ISZERO MUL OR SWAP1 SSTORE POP PUSH1 0x5 DUP3 ADD PUSH1 0x2 SWAP1 SLOAD SWAP1 PUSH2 0x100 EXP SWAP1 DIV PUSH1 0xFF AND DUP2 PUSH1 0x5 ADD PUSH1 0x2 PUSH2 0x100 EXP DUP2 SLOAD DUP2 PUSH1 0xFF MUL NOT AND SWAP1 DUP4 ISZERO ISZERO MUL OR SWAP1 SSTORE POP PUSH1 0x6 DUP3 ADD DUP2 PUSH1 0x6 ADD SWAP1 DUP1 SLOAD PUSH2 0x8A3 SWAP3 SWAP2 SWAP1 PUSH2 0x2B0B JUMP JUMPDEST POP SWAP1 POP POP PUSH1 0x3 PUSH1 0x0 CALLER PUSH20 0xFFFFFFFFFFFFFFFFFFFFFFFFFFFFFFFFFFFFFFFF AND PUSH20 0xFFFFFFFFFFFFFFFFFFFFFFFFFFFFFFFFFFFFFFFF AND DUP2 MSTORE PUSH1 0x20 ADD SWAP1 DUP2 MSTORE PUSH1 0x20 ADD PUSH1 0x0 KECCAK256 PUSH1 0x0 DUP2 SLOAD DUP1 SWAP3 SWAP2 SWAP1 PUSH2 0x8F7 SWAP1 PUSH2 0x3C5A JUMP JUMPDEST SWAP2 SWAP1 POP SSTORE POP PUSH1 0x4 PUSH1 0x0 DUP2 SLOAD DUP1 SWAP3 SWAP2 SWAP1 PUSH2 0x90F SWAP1 PUSH2 0x3C5A JUMP JUMPDEST SWAP2 SWAP1 POP SSTORE POP DUP8 PUSH20 0xFFFFFFFFFFFFFFFFFFFFFFFFFFFFFFFFFFFFFFFF AND CALLER PUSH20 0xFFFFFFFFFFFFFFFFFFFFFFFFFFFFFFFFFFFFFFFF AND PUSH32 0x88FB90D9D534F2792EE5650E3A21B58A53C91BB4155553BE08EE1E83B7860AA5 DUP10 DUP7 PUSH1 0x40 MLOAD PUSH2 0x973 SWAP3 SWAP2 SWAP1 PUSH2 0x3886 JUMP JUMPDEST PUSH1 0x40 MLOAD DUP1 SWAP2 SUB SWAP1 LOG3 POP POP SWAP6 SWAP5 POP POP POP POP POP JUMP JUMPDEST PUSH1 0x60 PUSH1 0x0 PUSH20 0xFFFFFFFFFFFFFFFFFFFFFFFFFFFFFFFFFFFFFFFF AND CALLER PUSH20 0xFFFFFFFFFFFFFFFFFFFFFFFFFFFFFFFFFFFFFFFF AND SUB PUSH2 0x9EE JUMPI PUSH1 0x40 MLOAD PUSH32 0x5F252DAF00000000000000000000000000000000000000000000000000000000 DUP2 MSTORE PUSH1 0x4 ADD PUSH1 0x40 MLOAD DUP1 SWAP2 SUB SWAP1 REVERT JUMPDEST PUSH1 0x60 PUSH1 0x0 DUP1 SLOAD SWAP1 PUSH2 0x100 EXP SWAP1 DIV PUSH20 0xFFFFFFFFFFFFFFFFFFFFFFFFFFFFFFFFFFFFFFFF AND PUSH20 0xFFFFFFFFFFFFFFFFFFFFFFFFFFFFFFFFFFFFFFFF AND CALLER PUSH20 0xFFFFFFFFFFFFFFFFFFFFFFFFFFFFFFFFFFFFFFFF AND SUB PUSH2 0xA9E JUMPI PUSH1 0x0 PUSH2 0xA4E CALLER PUSH2 0x25DE JUMP JUMPDEST SWAP1 POP PUSH1 0x1 PUSH1 0x4 SLOAD LT ISZERO PUSH2 0xA8D JUMPI PUSH1 0x40 MLOAD PUSH32 0x9DF573EA00000000000000000000000000000000000000000000000000000000 DUP2 MSTORE PUSH1 0x4 ADD PUSH1 0x40 MLOAD DUP1 SWAP2 SUB SWAP1 REVERT JUMPDEST PUSH2 0xA96 DUP2 PUSH2 0x2627 JUMP JUMPDEST SWAP2 POP POP PUSH2 0xB13 JUMP JUMPDEST PUSH1 0x0 PUSH2 0xAC9 PUSH1 0x0 DUP1 SLOAD SWAP1 PUSH2 0x100 EXP SWAP1 DIV PUSH20 0xFFFFFFFFFFFFFFFFFFFFFFFFFFFFFFFFFFFFFFFF AND PUSH2 0x25DE JUMP JUMPDEST SWAP1 POP PUSH1 0x1 DUP2 LT ISZERO PUSH2 0xB06 JUMPI PUSH1 0x40 MLOAD PUSH32 0x9DF573EA00000000000000000000000000000000000000000000000000000000 DUP2 MSTORE PUSH1 0x4 ADD PUSH1 0x40 MLOAD DUP1 SWAP2 SUB SWAP1 REVERT JUMPDEST PUSH2 0xB0F DUP2 PUSH2 0x2627 JUMP JUMPDEST SWAP2 POP POP JUMPDEST DUP1 SWAP2 POP POP SWAP1 JUMP JUMPDEST PUSH2 0xB22 PUSH2 0x2BEC JUMP JUMPDEST PUSH1 0x0 PUSH20 0xFFFFFFFFFFFFFFFFFFFFFFFFFFFFFFFFFFFFFFFF AND CALLER PUSH20 0xFFFFFFFFFFFFFFFFFFFFFFFFFFFFFFFFFFFFFFFF AND SUB PUSH2 0xB88 JUMPI PUSH1 0x40 MLOAD PUSH32 0x5F252DAF00000000000000000000000000000000000000000000000000000000 DUP2 MSTORE PUSH1 0x4 ADD PUSH1 0x40 MLOAD DUP1 SWAP2 SUB SWAP1 REVERT JUMPDEST PUSH1 0x2 PUSH1 0x0 DUP1 PUSH1 0x0 SWAP1 SLOAD SWAP1 PUSH2 0x100 EXP SWAP1 DIV PUSH20 0xFFFFFFFFFFFFFFFFFFFFFFFFFFFFFFFFFFFFFFFF AND PUSH20 0xFFFFFFFFFFFFFFFFFFFFFFFFFFFFFFFFFFFFFFFF AND PUSH20 0xFFFFFFFFFFFFFFFFFFFFFFFFFFFFFFFFFFFFFFFF AND DUP2 MSTORE PUSH1 0x20 ADD SWAP1 DUP2 MSTORE PUSH1 0x20 ADD PUSH1 0x0 KECCAK256 PUSH1 0x0 DUP4 DUP2 MSTORE PUSH1 0x20 ADD SWAP1 DUP2 MSTORE PUSH1 0x20 ADD PUSH1 0x0 KECCAK256 PUSH1 0x40 MLOAD DUP1 PUSH2 0x120 ADD PUSH1 0x40 MSTORE SWAP1 DUP2 PUSH1 0x0 DUP3 ADD PUSH1 0x0 SWAP1 SLOAD SWAP1 PUSH2 0x100 EXP SWAP1 DIV PUSH20 0xFFFFFFFFFFFFFFFFFFFFFFFFFFFFFFFFFFFFFFFF AND PUSH20 0xFFFFFFFFFFFFFFFFFFFFFFFFFFFFFFFFFFFFFFFF AND PUSH20 0xFFFFFFFFFFFFFFFFFFFFFFFFFFFFFFFFFFFFFFFF AND DUP2 MSTORE PUSH1 0x20 ADD PUSH1 0x1 DUP3 ADD SLOAD DUP2 MSTORE PUSH1 0x20 ADD PUSH1 0x2 DUP3 ADD SLOAD DUP2 MSTORE PUSH1 0x20 ADD PUSH1 0x3 DUP3 ADD DUP1 SLOAD PUSH2 0xC7F SWAP1 PUSH2 0x3855 JUMP JUMPDEST DUP1 PUSH1 0x1F ADD PUSH1 0x20 DUP1 SWAP2 DIV MUL PUSH1 0x20 ADD PUSH1 0x40 MLOAD SWAP1 DUP2 ADD PUSH1 0x40 MSTORE DUP1 SWAP3 SWAP2 SWAP1 DUP2 DUP2 MSTORE PUSH1 0x20 ADD DUP3 DUP1 SLOAD PUSH2 0xCAB SWAP1 PUSH2 0x3855 JUMP JUMPDEST DUP1 ISZERO PUSH2 0xCF8 JUMPI DUP1 PUSH1 0x1F LT PUSH2 0xCCD JUMPI PUSH2 0x100 DUP1 DUP4 SLOAD DIV MUL DUP4 MSTORE SWAP2 PUSH1 0x20 ADD SWAP2 PUSH2 0xCF8 JUMP JUMPDEST DUP3 ADD SWAP2 SWAP1 PUSH1 0x0 MSTORE PUSH1 0x20 PUSH1 0x0 KECCAK256 SWAP1 JUMPDEST DUP2 SLOAD DUP2 MSTORE SWAP1 PUSH1 0x1 ADD SWAP1 PUSH1 0x20 ADD DUP1 DUP4 GT PUSH2 0xCDB JUMPI DUP3 SWAP1 SUB PUSH1 0x1F AND DUP3 ADD SWAP2 JUMPDEST POP POP POP POP POP DUP2 MSTORE PUSH1 0x20 ADD PUSH1 0x4 DUP3 ADD DUP1 SLOAD PUSH2 0xD11 SWAP1 PUSH2 0x3855 JUMP JUMPDEST DUP1 PUSH1 0x1F ADD PUSH1 0x20 DUP1 SWAP2 DIV MUL PUSH1 0x20 ADD PUSH1 0x40 MLOAD SWAP1 DUP2 ADD PUSH1 0x40 MSTORE DUP1 SWAP3 SWAP2 SWAP1 DUP2 DUP2 MSTORE PUSH1 0x20 ADD DUP3 DUP1 SLOAD PUSH2 0xD3D SWAP1 PUSH2 0x3855 JUMP JUMPDEST DUP1 ISZERO PUSH2 0xD8A JUMPI DUP1 PUSH1 0x1F LT PUSH2 0xD5F JUMPI PUSH2 0x100 DUP1 DUP4 SLOAD DIV MUL DUP4 MSTORE SWAP2 PUSH1 0x20 ADD SWAP2 PUSH2 0xD8A JUMP JUMPDEST DUP3 ADD SWAP2 SWAP1 PUSH1 0x0 MSTORE PUSH1 0x20 PUSH1 0x0 KECCAK256 SWAP1 JUMPDEST DUP2 SLOAD DUP2 MSTORE SWAP1 PUSH1 0x1 ADD SWAP1 PUSH1 0x20 ADD DUP1 DUP4 GT PUSH2 0xD6D JUMPI DUP3 SWAP1 SUB PUSH1 0x1F AND DUP3 ADD SWAP2 JUMPDEST POP POP POP POP POP DUP2 MSTORE PUSH1 0x20 ADD PUSH1 0x5 DUP3 ADD PUSH1 0x0 SWAP1 SLOAD SWAP1 PUSH2 0x100 EXP SWAP1 DIV PUSH1 0xFF AND ISZERO ISZERO ISZERO ISZERO DUP2 MSTORE PUSH1 0x20 ADD PUSH1 0x5 DUP3 ADD PUSH1 0x1 SWAP1 SLOAD SWAP1 PUSH2 0x100 EXP SWAP1 DIV PUSH1 0xFF AND ISZERO ISZERO ISZERO ISZERO DUP2 MSTORE PUSH1 0x20 ADD PUSH1 0x5 DUP3 ADD PUSH1 0x2 SWAP1 SLOAD SWAP1 PUSH2 0x100 EXP SWAP1 DIV PUSH1 0xFF AND ISZERO ISZERO ISZERO ISZERO DUP2 MSTORE PUSH1 0x20 ADD PUSH1 0x6 DUP3 ADD DUP1 SLOAD DUP1 PUSH1 0x20 MUL PUSH1 0x20 ADD PUSH1 0x40 MLOAD SWAP1 DUP2 ADD PUSH1 0x40 MSTORE DUP1 SWAP3 SWAP2 SWAP1 DUP2 DUP2 MSTORE PUSH1 0x20 ADD PUSH1 0x0 SWAP1 JUMPDEST DUP3 DUP3 LT ISZERO PUSH2 0xF2D JUMPI DUP4 DUP3 SWAP1 PUSH1 0x0 MSTORE PUSH1 0x20 PUSH1 0x0 KECCAK256 SWAP1 PUSH1 0x3 MUL ADD PUSH1 0x40 MLOAD DUP1 PUSH1 0x80 ADD PUSH1 0x40 MSTORE SWAP1 DUP2 PUSH1 0x0 DUP3 ADD DUP1 SLOAD PUSH2 0xE3C SWAP1 PUSH2 0x3855 JUMP JUMPDEST DUP1 PUSH1 0x1F ADD PUSH1 0x20 DUP1 SWAP2 DIV MUL PUSH1 0x20 ADD PUSH1 0x40 MLOAD SWAP1 DUP2 ADD PUSH1 0x40 MSTORE DUP1 SWAP3 SWAP2 SWAP1 DUP2 DUP2 MSTORE PUSH1 0x20 ADD DUP3 DUP1 SLOAD PUSH2 0xE68 SWAP1 PUSH2 0x3855 JUMP JUMPDEST DUP1 ISZERO PUSH2 0xEB5 JUMPI DUP1 PUSH1 0x1F LT PUSH2 0xE8A JUMPI PUSH2 0x100 DUP1 DUP4 SLOAD DIV MUL DUP4 MSTORE SWAP2 PUSH1 0x20 ADD SWAP2 PUSH2 0xEB5 JUMP JUMPDEST DUP3 ADD SWAP2 SWAP1 PUSH1 0x0 MSTORE PUSH1 0x20 PUSH1 0x0 KECCAK256 SWAP1 JUMPDEST DUP2 SLOAD DUP2 MSTORE SWAP1 PUSH1 0x1 ADD SWAP1 PUSH1 0x20 ADD DUP1 DUP4 GT PUSH2 0xE98 JUMPI DUP3 SWAP1 SUB PUSH1 0x1F AND DUP3 ADD SWAP2 JUMPDEST POP POP POP POP POP DUP2 MSTORE PUSH1 0x20 ADD PUSH1 0x1 DUP3 ADD SLOAD DUP2 MSTORE PUSH1 0x20 ADD PUSH1 0x2 DUP3 ADD PUSH1 0x0 SWAP1 SLOAD SWAP1 PUSH2 0x100 EXP SWAP1 DIV PUSH1 0xFF AND PUSH1 0x2 DUP2 GT ISZERO PUSH2 0xEED JUMPI PUSH2 0xEEC PUSH2 0x326A JUMP JUMPDEST JUMPDEST PUSH1 0x2 DUP2 GT ISZERO PUSH2 0xEFF JUMPI PUSH2 0xEFE PUSH2 0x326A JUMP JUMPDEST JUMPDEST DUP2 MSTORE PUSH1 0x20 ADD PUSH1 0x2 DUP3 ADD PUSH1 0x1 SWAP1 SLOAD SWAP1 PUSH2 0x100 EXP SWAP1 DIV PUSH1 0xFF AND ISZERO ISZERO ISZERO ISZERO DUP2 MSTORE POP POP DUP2 MSTORE PUSH1 0x20 ADD SWAP1 PUSH1 0x1 ADD SWAP1 PUSH2 0xE09 JUMP JUMPDEST POP POP POP POP DUP2 MSTORE POP POP SWAP1 POP CALLER PUSH20 0xFFFFFFFFFFFFFFFFFFFFFFFFFFFFFFFFFFFFFFFF AND PUSH32 0x4B91F05E4E767E5E8D10A7A3636995FEB5AD4F56C1A75C977090F2B313BE6D94 DUP4 PUSH1 0x40 MLOAD PUSH2 0xF7D SWAP2 SWAP1 PUSH2 0x3180 JUMP JUMPDEST PUSH1 0x40 MLOAD DUP1 SWAP2 SUB SWAP1 LOG2 SWAP2 SWAP1 POP JUMP JUMPDEST PUSH1 0x60 PUSH1 0x2 PUSH1 0x0 DUP1 PUSH1 0x0 SWAP1 SLOAD SWAP1 PUSH2 0x100 EXP SWAP1 DIV PUSH20 0xFFFFFFFFFFFFFFFFFFFFFFFFFFFFFFFFFFFFFFFF AND PUSH20 0xFFFFFFFFFFFFFFFFFFFFFFFFFFFFFFFFFFFFFFFF AND PUSH20 0xFFFFFFFFFFFFFFFFFFFFFFFFFFFFFFFFFFFFFFFF AND DUP2 MSTORE PUSH1 0x20 ADD SWAP1 DUP2 MSTORE PUSH1 0x20 ADD PUSH1 0x0 KECCAK256 PUSH1 0x0 DUP4 DUP2 MSTORE PUSH1 0x20 ADD SWAP1 DUP2 MSTORE PUSH1 0x20 ADD PUSH1 0x0 KECCAK256 PUSH1 0x6 ADD DUP1 SLOAD DUP1 PUSH1 0x20 MUL PUSH1 0x20 ADD PUSH1 0x40 MLOAD SWAP1 DUP2 ADD PUSH1 0x40 MSTORE DUP1 SWAP3 SWAP2 SWAP1 DUP2 DUP2 MSTORE PUSH1 0x20 ADD PUSH1 0x0 SWAP1 JUMPDEST DUP3 DUP3 LT ISZERO PUSH2 0x1144 JUMPI DUP4 DUP3 SWAP1 PUSH1 0x0 MSTORE PUSH1 0x20 PUSH1 0x0 KECCAK256 SWAP1 PUSH1 0x3 MUL ADD PUSH1 0x40 MLOAD DUP1 PUSH1 0x80 ADD PUSH1 0x40 MSTORE SWAP1 DUP2 PUSH1 0x0 DUP3 ADD DUP1 SLOAD PUSH2 0x1053 SWAP1 PUSH2 0x3855 JUMP JUMPDEST DUP1 PUSH1 0x1F ADD PUSH1 0x20 DUP1 SWAP2 DIV MUL PUSH1 0x20 ADD PUSH1 0x40 MLOAD SWAP1 DUP2 ADD PUSH1 0x40 MSTORE DUP1 SWAP3 SWAP2 SWAP1 DUP2 DUP2 MSTORE PUSH1 0x20 ADD DUP3 DUP1 SLOAD PUSH2 0x107F SWAP1 PUSH2 0x3855 JUMP JUMPDEST DUP1 ISZERO PUSH2 0x10CC JUMPI DUP1 PUSH1 0x1F LT PUSH2 0x10A1 JUMPI PUSH2 0x100 DUP1 DUP4 SLOAD DIV MUL DUP4 MSTORE SWAP2 PUSH1 0x20 ADD SWAP2 PUSH2 0x10CC JUMP JUMPDEST DUP3 ADD SWAP2 SWAP1 PUSH1 0x0 MSTORE PUSH1 0x20 PUSH1 0x0 KECCAK256 SWAP1 JUMPDEST DUP2 SLOAD DUP2 MSTORE SWAP1 PUSH1 0x1 ADD SWAP1 PUSH1 0x20 ADD DUP1 DUP4 GT PUSH2 0x10AF JUMPI DUP3 SWAP1 SUB PUSH1 0x1F AND DUP3 ADD SWAP2 JUMPDEST POP POP POP POP POP DUP2 MSTORE PUSH1 0x20 ADD PUSH1 0x1 DUP3 ADD SLOAD DUP2 MSTORE PUSH1 0x20 ADD PUSH1 0x2 DUP3 ADD PUSH1 0x0 SWAP1 SLOAD SWAP1 PUSH2 0x100 EXP SWAP1 DIV PUSH1 0xFF AND PUSH1 0x2 DUP2 GT ISZERO PUSH2 0x1104 JUMPI PUSH2 0x1103 PUSH2 0x326A JUMP JUMPDEST JUMPDEST PUSH1 0x2 DUP2 GT ISZERO PUSH2 0x1116 JUMPI PUSH2 0x1115 PUSH2 0x326A JUMP JUMPDEST JUMPDEST DUP2 MSTORE PUSH1 0x20 ADD PUSH1 0x2 DUP3 ADD PUSH1 0x1 SWAP1 SLOAD SWAP1 PUSH2 0x100 EXP SWAP1 DIV PUSH1 0xFF AND ISZERO ISZERO ISZERO ISZERO DUP2 MSTORE POP POP DUP2 MSTORE PUSH1 0x20 ADD SWAP1 PUSH1 0x1 ADD SWAP1 PUSH2 0x1020 JUMP JUMPDEST POP POP POP POP SWAP1 POP SWAP2 SWAP1 POP JUMP JUMPDEST PUSH1 0x3 PUSH1 0x20 MSTORE DUP1 PUSH1 0x0 MSTORE PUSH1 0x40 PUSH1 0x0 KECCAK256 PUSH1 0x0 SWAP2 POP SWAP1 POP SLOAD DUP2 JUMP JUMPDEST PUSH1 0x0 PUSH1 0x2 PUSH1 0x0 DUP1 PUSH1 0x0 SWAP1 SLOAD SWAP1 PUSH2 0x100 EXP SWAP1 DIV PUSH20 0xFFFFFFFFFFFFFFFFFFFFFFFFFFFFFFFFFFFFFFFF AND PUSH20 0xFFFFFFFFFFFFFFFFFFFFFFFFFFFFFFFFFFFFFFFF AND PUSH20 0xFFFFFFFFFFFFFFFFFFFFFFFFFFFFFFFFFFFFFFFF AND DUP2 MSTORE PUSH1 0x20 ADD SWAP1 DUP2 MSTORE PUSH1 0x20 ADD PUSH1 0x0 KECCAK256 PUSH1 0x0 DUP5 DUP2 MSTORE PUSH1 0x20 ADD SWAP1 DUP2 MSTORE PUSH1 0x20 ADD PUSH1 0x0 KECCAK256 SWAP1 POP DUP1 PUSH1 0x6 ADD DUP1 SLOAD SWAP1 POP DUP3 LT PUSH2 0x1225 JUMPI PUSH1 0x40 MLOAD PUSH32 0x8C379A000000000000000000000000000000000000000000000000000000000 DUP2 MSTORE PUSH1 0x4 ADD PUSH2 0x121C SWAP1 PUSH2 0x3CEE JUMP JUMPDEST PUSH1 0x40 MLOAD DUP1 SWAP2 SUB SWAP1 REVERT JUMPDEST PUSH1 0x0 DUP2 PUSH1 0x6 ADD DUP4 DUP2 SLOAD DUP2 LT PUSH2 0x123D JUMPI PUSH2 0x123C PUSH2 0x3D0E JUMP JUMPDEST JUMPDEST SWAP1 PUSH1 0x0 MSTORE PUSH1 0x20 PUSH1 0x0 KECCAK256 SWAP1 PUSH1 0x3 MUL ADD SWAP1 POP PUSH1 0x1 DUP2 PUSH1 0x2 ADD PUSH1 0x0 PUSH2 0x100 EXP DUP2 SLOAD DUP2 PUSH1 0xFF MUL NOT AND SWAP1 DUP4 PUSH1 0x2 DUP2 GT ISZERO PUSH2 0x1275 JUMPI PUSH2 0x1274 PUSH2 0x326A JUMP JUMPDEST JUMPDEST MUL OR SWAP1 SSTORE POP DUP4 PUSH32 0x1B7218C0AC23EA9CBE4DF603D2B340FBF469A115B73EA3D11460727F445D6BE1 DUP5 PUSH1 0x40 MLOAD PUSH2 0x12AA SWAP2 SWAP1 PUSH2 0x3180 JUMP JUMPDEST PUSH1 0x40 MLOAD DUP1 SWAP2 SUB SWAP1 LOG2 POP POP POP POP JUMP JUMPDEST PUSH1 0x0 DUP1 SLOAD SWAP1 PUSH2 0x100 EXP SWAP1 DIV PUSH20 0xFFFFFFFFFFFFFFFFFFFFFFFFFFFFFFFFFFFFFFFF AND DUP2 JUMP JUMPDEST PUSH1 0x60 PUSH1 0x0 DUP1 PUSH1 0x1 SWAP1 POP JUMPDEST PUSH1 0x4 SLOAD DUP2 GT PUSH2 0x13D8 JUMPI DUP4 PUSH20 0xFFFFFFFFFFFFFFFFFFFFFFFFFFFFFFFFFFFFFFFF AND PUSH1 0x2 PUSH1 0x0 DUP1 PUSH1 0x0 SWAP1 SLOAD SWAP1 PUSH2 0x100 EXP SWAP1 DIV PUSH20 0xFFFFFFFFFFFFFFFFFFFFFFFFFFFFFFFFFFFFFFFF AND PUSH20 0xFFFFFFFFFFFFFFFFFFFFFFFFFFFFFFFFFFFFFFFF AND PUSH20 0xFFFFFFFFFFFFFFFFFFFFFFFFFFFFFFFFFFFFFFFF AND DUP2 MSTORE PUSH1 0x20 ADD SWAP1 DUP2 MSTORE PUSH1 0x20 ADD PUSH1 0x0 KECCAK256 PUSH1 0x0 DUP4 DUP2 MSTORE PUSH1 0x20 ADD SWAP1 DUP2 MSTORE PUSH1 0x20 ADD PUSH1 0x0 KECCAK256 PUSH1 0x0 ADD PUSH1 0x0 SWAP1 SLOAD SWAP1 PUSH2 0x100 EXP SWAP1 DIV PUSH20 0xFFFFFFFFFFFFFFFFFFFFFFFFFFFFFFFFFFFFFFFF AND PUSH20 0xFFFFFFFFFFFFFFFFFFFFFFFFFFFFFFFFFFFFFFFF AND SUB PUSH2 0x13C5 JUMPI DUP2 DUP1 PUSH2 0x13C1 SWAP1 PUSH2 0x3C5A JUMP JUMPDEST SWAP3 POP POP JUMPDEST DUP1 DUP1 PUSH2 0x13D0 SWAP1 PUSH2 0x3C5A JUMP JUMPDEST SWAP2 POP POP PUSH2 0x12E6 JUMP JUMPDEST POP PUSH1 0x0 DUP2 PUSH8 0xFFFFFFFFFFFFFFFF DUP2 GT ISZERO PUSH2 0x13F5 JUMPI PUSH2 0x13F4 PUSH2 0x2FA2 JUMP JUMPDEST JUMPDEST PUSH1 0x40 MLOAD SWAP1 DUP1 DUP3 MSTORE DUP1 PUSH1 0x20 MUL PUSH1 0x20 ADD DUP3 ADD PUSH1 0x40 MSTORE DUP1 ISZERO PUSH2 0x142E JUMPI DUP2 PUSH1 0x20 ADD JUMPDEST PUSH2 0x141B PUSH2 0x2BEC JUMP JUMPDEST DUP2 MSTORE PUSH1 0x20 ADD SWAP1 PUSH1 0x1 SWAP1 SUB SWAP1 DUP2 PUSH2 0x1413 JUMPI SWAP1 POP JUMPDEST POP SWAP1 POP PUSH1 0x0 DUP1 PUSH1 0x1 SWAP1 POP JUMPDEST PUSH1 0x4 SLOAD DUP2 GT PUSH2 0x18F6 JUMPI DUP6 PUSH20 0xFFFFFFFFFFFFFFFFFFFFFFFFFFFFFFFFFFFFFFFF AND PUSH1 0x2 PUSH1 0x0 DUP1 PUSH1 0x0 SWAP1 SLOAD SWAP1 PUSH2 0x100 EXP SWAP1 DIV PUSH20 0xFFFFFFFFFFFFFFFFFFFFFFFFFFFFFFFFFFFFFFFF AND PUSH20 0xFFFFFFFFFFFFFFFFFFFFFFFFFFFFFFFFFFFFFFFF AND PUSH20 0xFFFFFFFFFFFFFFFFFFFFFFFFFFFFFFFFFFFFFFFF AND DUP2 MSTORE PUSH1 0x20 ADD SWAP1 DUP2 MSTORE PUSH1 0x20 ADD PUSH1 0x0 KECCAK256 PUSH1 0x0 DUP4 DUP2 MSTORE PUSH1 0x20 ADD SWAP1 DUP2 MSTORE PUSH1 0x20 ADD PUSH1 0x0 KECCAK256 PUSH1 0x0 ADD PUSH1 0x0 SWAP1 SLOAD SWAP1 PUSH2 0x100 EXP SWAP1 DIV PUSH20 0xFFFFFFFFFFFFFFFFFFFFFFFFFFFFFFFFFFFFFFFF AND PUSH20 0xFFFFFFFFFFFFFFFFFFFFFFFFFFFFFFFFFFFFFFFF AND SUB PUSH2 0x18E3 JUMPI PUSH1 0x2 PUSH1 0x0 DUP1 PUSH1 0x0 SWAP1 SLOAD SWAP1 PUSH2 0x100 EXP SWAP1 DIV PUSH20 0xFFFFFFFFFFFFFFFFFFFFFFFFFFFFFFFFFFFFFFFF AND PUSH20 0xFFFFFFFFFFFFFFFFFFFFFFFFFFFFFFFFFFFFFFFF AND PUSH20 0xFFFFFFFFFFFFFFFFFFFFFFFFFFFFFFFFFFFFFFFF AND DUP2 MSTORE PUSH1 0x20 ADD SWAP1 DUP2 MSTORE PUSH1 0x20 ADD PUSH1 0x0 KECCAK256 PUSH1 0x0 DUP3 DUP2 MSTORE PUSH1 0x20 ADD SWAP1 DUP2 MSTORE PUSH1 0x20 ADD PUSH1 0x0 KECCAK256 PUSH1 0x40 MLOAD DUP1 PUSH2 0x120 ADD PUSH1 0x40 MSTORE SWAP1 DUP2 PUSH1 0x0 DUP3 ADD PUSH1 0x0 SWAP1 SLOAD SWAP1 PUSH2 0x100 EXP SWAP1 DIV PUSH20 0xFFFFFFFFFFFFFFFFFFFFFFFFFFFFFFFFFFFFFFFF AND PUSH20 0xFFFFFFFFFFFFFFFFFFFFFFFFFFFFFFFFFFFFFFFF AND PUSH20 0xFFFFFFFFFFFFFFFFFFFFFFFFFFFFFFFFFFFFFFFF AND DUP2 MSTORE PUSH1 0x20 ADD PUSH1 0x1 DUP3 ADD SLOAD DUP2 MSTORE PUSH1 0x20 ADD PUSH1 0x2 DUP3 ADD SLOAD DUP2 MSTORE PUSH1 0x20 ADD PUSH1 0x3 DUP3 ADD DUP1 SLOAD PUSH2 0x1600 SWAP1 PUSH2 0x3855 JUMP JUMPDEST DUP1 PUSH1 0x1F ADD PUSH1 0x20 DUP1 SWAP2 DIV MUL PUSH1 0x20 ADD PUSH1 0x40 MLOAD SWAP1 DUP2 ADD PUSH1 0x40 MSTORE DUP1 SWAP3 SWAP2 SWAP1 DUP2 DUP2 MSTORE PUSH1 0x20 ADD DUP3 DUP1 SLOAD PUSH2 0x162C SWAP1 PUSH2 0x3855 JUMP JUMPDEST DUP1 ISZERO PUSH2 0x1679 JUMPI DUP1 PUSH1 0x1F LT PUSH2 0x164E JUMPI PUSH2 0x100 DUP1 DUP4 SLOAD DIV MUL DUP4 MSTORE SWAP2 PUSH1 0x20 ADD SWAP2 PUSH2 0x1679 JUMP JUMPDEST DUP3 ADD SWAP2 SWAP1 PUSH1 0x0 MSTORE PUSH1 0x20 PUSH1 0x0 KECCAK256 SWAP1 JUMPDEST DUP2 SLOAD DUP2 MSTORE SWAP1 PUSH1 0x1 ADD SWAP1 PUSH1 0x20 ADD DUP1 DUP4 GT PUSH2 0x165C JUMPI DUP3 SWAP1 SUB PUSH1 0x1F AND DUP3 ADD SWAP2 JUMPDEST POP POP POP POP POP DUP2 MSTORE PUSH1 0x20 ADD PUSH1 0x4 DUP3 ADD DUP1 SLOAD PUSH2 0x1692 SWAP1 PUSH2 0x3855 JUMP JUMPDEST DUP1 PUSH1 0x1F ADD PUSH1 0x20 DUP1 SWAP2 DIV MUL PUSH1 0x20 ADD PUSH1 0x40 MLOAD SWAP1 DUP2 ADD PUSH1 0x40 MSTORE DUP1 SWAP3 SWAP2 SWAP1 DUP2 DUP2 MSTORE PUSH1 0x20 ADD DUP3 DUP1 SLOAD PUSH2 0x16BE SWAP1 PUSH2 0x3855 JUMP JUMPDEST DUP1 ISZERO PUSH2 0x170B JUMPI DUP1 PUSH1 0x1F LT PUSH2 0x16E0 JUMPI PUSH2 0x100 DUP1 DUP4 SLOAD DIV MUL DUP4 MSTORE SWAP2 PUSH1 0x20 ADD SWAP2 PUSH2 0x170B JUMP JUMPDEST DUP3 ADD SWAP2 SWAP1 PUSH1 0x0 MSTORE PUSH1 0x20 PUSH1 0x0 KECCAK256 SWAP1 JUMPDEST DUP2 SLOAD DUP2 MSTORE SWAP1 PUSH1 0x1 ADD SWAP1 PUSH1 0x20 ADD DUP1 DUP4 GT PUSH2 0x16EE JUMPI DUP3 SWAP1 SUB PUSH1 0x1F AND DUP3 ADD SWAP2 JUMPDEST POP POP POP POP POP DUP2 MSTORE PUSH1 0x20 ADD PUSH1 0x5 DUP3 ADD PUSH1 0x0 SWAP1 SLOAD SWAP1 PUSH2 0x100 EXP SWAP1 DIV PUSH1 0xFF AND ISZERO ISZERO ISZERO ISZERO DUP2 MSTORE PUSH1 0x20 ADD PUSH1 0x5 DUP3 ADD PUSH1 0x1 SWAP1 SLOAD SWAP1 PUSH2 0x100 EXP SWAP1 DIV PUSH1 0xFF AND ISZERO ISZERO ISZERO ISZERO DUP2 MSTORE PUSH1 0x20 ADD PUSH1 0x5 DUP3 ADD PUSH1 0x2 SWAP1 SLOAD SWAP1 PUSH2 0x100 EXP SWAP1 DIV PUSH1 0xFF AND ISZERO ISZERO ISZERO ISZERO DUP2 MSTORE PUSH1 0x20 ADD PUSH1 0x6 DUP3 ADD DUP1 SLOAD DUP1 PUSH1 0x20 MUL PUSH1 0x20 ADD PUSH1 0x40 MLOAD SWAP1 DUP2 ADD PUSH1 0x40 MSTORE DUP1 SWAP3 SWAP2 SWAP1 DUP2 DUP2 MSTORE PUSH1 0x20 ADD PUSH1 0x0 SWAP1 JUMPDEST DUP3 DUP3 LT ISZERO PUSH2 0x18AE JUMPI DUP4 DUP3 SWAP1 PUSH1 0x0 MSTORE PUSH1 0x20 PUSH1 0x0 KECCAK256 SWAP1 PUSH1 0x3 MUL ADD PUSH1 0x40 MLOAD DUP1 PUSH1 0x80 ADD PUSH1 0x40 MSTORE SWAP1 DUP2 PUSH1 0x0 DUP3 ADD DUP1 SLOAD PUSH2 0x17BD SWAP1 PUSH2 0x3855 JUMP JUMPDEST DUP1 PUSH1 0x1F ADD PUSH1 0x20 DUP1 SWAP2 DIV MUL PUSH1 0x20 ADD PUSH1 0x40 MLOAD SWAP1 DUP2 ADD PUSH1 0x40 MSTORE DUP1 SWAP3 SWAP2 SWAP1 DUP2 DUP2 MSTORE PUSH1 0x20 ADD DUP3 DUP1 SLOAD PUSH2 0x17E9 SWAP1 PUSH2 0x3855 JUMP JUMPDEST DUP1 ISZERO PUSH2 0x1836 JUMPI DUP1 PUSH1 0x1F LT PUSH2 0x180B JUMPI PUSH2 0x100 DUP1 DUP4 SLOAD DIV MUL DUP4 MSTORE SWAP2 PUSH1 0x20 ADD SWAP2 PUSH2 0x1836 JUMP JUMPDEST DUP3 ADD SWAP2 SWAP1 PUSH1 0x0 MSTORE PUSH1 0x20 PUSH1 0x0 KECCAK256 SWAP1 JUMPDEST DUP2 SLOAD DUP2 MSTORE SWAP1 PUSH1 0x1 ADD SWAP1 PUSH1 0x20 ADD DUP1 DUP4 GT PUSH2 0x1819 JUMPI DUP3 SWAP1 SUB PUSH1 0x1F AND DUP3 ADD SWAP2 JUMPDEST POP POP POP POP POP DUP2 MSTORE PUSH1 0x20 ADD PUSH1 0x1 DUP3 ADD SLOAD DUP2 MSTORE PUSH1 0x20 ADD PUSH1 0x2 DUP3 ADD PUSH1 0x0 SWAP1 SLOAD SWAP1 PUSH2 0x100 EXP SWAP1 DIV PUSH1 0xFF AND PUSH1 0x2 DUP2 GT ISZERO PUSH2 0x186E JUMPI PUSH2 0x186D PUSH2 0x326A JUMP JUMPDEST JUMPDEST PUSH1 0x2 DUP2 GT ISZERO PUSH2 0x1880 JUMPI PUSH2 0x187F PUSH2 0x326A JUMP JUMPDEST JUMPDEST DUP2 MSTORE PUSH1 0x20 ADD PUSH1 0x2 DUP3 ADD PUSH1 0x1 SWAP1 SLOAD SWAP1 PUSH2 0x100 EXP SWAP1 DIV PUSH1 0xFF AND ISZERO ISZERO ISZERO ISZERO DUP2 MSTORE POP POP DUP2 MSTORE PUSH1 0x20 ADD SWAP1 PUSH1 0x1 ADD SWAP1 PUSH2 0x178A JUMP JUMPDEST POP POP POP POP DUP2 MSTORE POP POP DUP4 DUP4 DUP2 MLOAD DUP2 LT PUSH2 0x18C9 JUMPI PUSH2 0x18C8 PUSH2 0x3D0E JUMP JUMPDEST JUMPDEST PUSH1 0x20 MUL PUSH1 0x20 ADD ADD DUP2 SWAP1 MSTORE POP DUP2 DUP1 PUSH2 0x18DF SWAP1 PUSH2 0x3C5A JUMP JUMPDEST SWAP3 POP POP JUMPDEST DUP1 DUP1 PUSH2 0x18EE SWAP1 PUSH2 0x3C5A JUMP JUMPDEST SWAP2 POP POP PUSH2 0x1439 JUMP JUMPDEST POP DUP2 SWAP4 POP POP POP POP SWAP2 SWAP1 POP JUMP JUMPDEST PUSH1 0x0 PUSH20 0xFFFFFFFFFFFFFFFFFFFFFFFFFFFFFFFFFFFFFFFF AND CALLER PUSH20 0xFFFFFFFFFFFFFFFFFFFFFFFFFFFFFFFFFFFFFFFF AND SUB PUSH2 0x1968 JUMPI PUSH1 0x40 MLOAD PUSH32 0x5F252DAF00000000000000000000000000000000000000000000000000000000 DUP2 MSTORE PUSH1 0x4 ADD PUSH1 0x40 MLOAD DUP1 SWAP2 SUB SWAP1 REVERT JUMPDEST PUSH1 0x0 PUSH1 0x2 PUSH1 0x0 DUP1 PUSH1 0x0 SWAP1 SLOAD SWAP1 PUSH2 0x100 EXP SWAP1 DIV PUSH20 0xFFFFFFFFFFFFFFFFFFFFFFFFFFFFFFFFFFFFFFFF AND PUSH20 0xFFFFFFFFFFFFFFFFFFFFFFFFFFFFFFFFFFFFFFFF AND PUSH20 0xFFFFFFFFFFFFFFFFFFFFFFFFFFFFFFFFFFFFFFFF AND DUP2 MSTORE PUSH1 0x20 ADD SWAP1 DUP2 MSTORE PUSH1 0x20 ADD PUSH1 0x0 KECCAK256 PUSH1 0x0 DUP4 DUP2 MSTORE PUSH1 0x20 ADD SWAP1 DUP2 MSTORE PUSH1 0x20 ADD PUSH1 0x0 KECCAK256 SWAP1 POP DUP1 PUSH1 0x0 ADD PUSH1 0x0 SWAP1 SLOAD SWAP1 PUSH2 0x100 EXP SWAP1 DIV PUSH20 0xFFFFFFFFFFFFFFFFFFFFFFFFFFFFFFFFFFFFFFFF AND PUSH20 0xFFFFFFFFFFFFFFFFFFFFFFFFFFFFFFFFFFFFFFFF AND CALLER PUSH20 0xFFFFFFFFFFFFFFFFFFFFFFFFFFFFFFFFFFFFFFFF AND EQ PUSH2 0x1A66 JUMPI PUSH1 0x40 MLOAD PUSH32 0x6810116800000000000000000000000000000000000000000000000000000000 DUP2 MSTORE PUSH1 0x4 ADD PUSH1 0x40 MLOAD DUP1 SWAP2 SUB SWAP1 REVERT JUMPDEST PUSH1 0x0 DUP2 PUSH1 0x1 ADD SLOAD SUB PUSH2 0x1AA4 JUMPI PUSH1 0x40 MLOAD PUSH32 0x7EED038200000000000000000000000000000000000000000000000000000000 DUP2 MSTORE PUSH1 0x4 ADD PUSH1 0x40 MLOAD DUP1 SWAP2 SUB SWAP1 REVERT JUMPDEST PUSH1 0x0 DUP2 PUSH1 0x6 ADD DUP1 SLOAD SWAP1 POP SWAP1 POP PUSH1 0x0 JUMPDEST DUP2 DUP2 LT ISZERO PUSH2 0x1DCF JUMPI PUSH1 0x0 ISZERO ISZERO DUP4 PUSH1 0x6 ADD DUP3 DUP2 SLOAD DUP2 LT PUSH2 0x1AD5 JUMPI PUSH2 0x1AD4 PUSH2 0x3D0E JUMP JUMPDEST JUMPDEST SWAP1 PUSH1 0x0 MSTORE PUSH1 0x20 PUSH1 0x0 KECCAK256 SWAP1 PUSH1 0x3 MUL ADD PUSH1 0x2 ADD PUSH1 0x1 SWAP1 SLOAD SWAP1 PUSH2 0x100 EXP SWAP1 DIV PUSH1 0xFF AND ISZERO ISZERO SUB PUSH2 0x1DC2 JUMPI PUSH1 0x2 DUP1 DUP2 GT ISZERO PUSH2 0x1B0E JUMPI PUSH2 0x1B0D PUSH2 0x326A JUMP JUMPDEST JUMPDEST DUP4 PUSH1 0x6 ADD DUP3 DUP2 SLOAD DUP2 LT PUSH2 0x1B24 JUMPI PUSH2 0x1B23 PUSH2 0x3D0E JUMP JUMPDEST JUMPDEST SWAP1 PUSH1 0x0 MSTORE PUSH1 0x20 PUSH1 0x0 KECCAK256 SWAP1 PUSH1 0x3 MUL ADD PUSH1 0x2 ADD PUSH1 0x0 SWAP1 SLOAD SWAP1 PUSH2 0x100 EXP SWAP1 DIV PUSH1 0xFF AND PUSH1 0x2 DUP2 GT ISZERO PUSH2 0x1B55 JUMPI PUSH2 0x1B54 PUSH2 0x326A JUMP JUMPDEST JUMPDEST SUB PUSH2 0x1DC1 JUMPI PUSH1 0x1 PUSH1 0x0 SWAP1 SLOAD SWAP1 PUSH2 0x100 EXP SWAP1 DIV PUSH20 0xFFFFFFFFFFFFFFFFFFFFFFFFFFFFFFFFFFFFFFFF AND PUSH20 0xFFFFFFFFFFFFFFFFFFFFFFFFFFFFFFFFFFFFFFFF AND PUSH4 0xA9059CBB PUSH1 0x2 PUSH1 0x0 DUP1 PUSH1 0x0 SWAP1 SLOAD SWAP1 PUSH2 0x100 EXP SWAP1 DIV PUSH20 0xFFFFFFFFFFFFFFFFFFFFFFFFFFFFFFFFFFFFFFFF AND PUSH20 0xFFFFFFFFFFFFFFFFFFFFFFFFFFFFFFFFFFFFFFFF AND PUSH20 0xFFFFFFFFFFFFFFFFFFFFFFFFFFFFFFFFFFFFFFFF AND DUP2 MSTORE PUSH1 0x20 ADD SWAP1 DUP2 MSTORE PUSH1 0x20 ADD PUSH1 0x0 KECCAK256 PUSH1 0x0 DUP8 DUP2 MSTORE PUSH1 0x20 ADD SWAP1 DUP2 MSTORE PUSH1 0x20 ADD PUSH1 0x0 KECCAK256 PUSH1 0x0 ADD PUSH1 0x0 SWAP1 SLOAD SWAP1 PUSH2 0x100 EXP SWAP1 DIV PUSH20 0xFFFFFFFFFFFFFFFFFFFFFFFFFFFFFFFFFFFFFFFF AND PUSH1 0x2 PUSH1 0x0 DUP1 PUSH1 0x0 SWAP1 SLOAD SWAP1 PUSH2 0x100 EXP SWAP1 DIV PUSH20 0xFFFFFFFFFFFFFFFFFFFFFFFFFFFFFFFFFFFFFFFF AND PUSH20 0xFFFFFFFFFFFFFFFFFFFFFFFFFFFFFFFFFFFFFFFF AND PUSH20 0xFFFFFFFFFFFFFFFFFFFFFFFFFFFFFFFFFFFFFFFF AND DUP2 MSTORE PUSH1 0x20 ADD SWAP1 DUP2 MSTORE PUSH1 0x20 ADD PUSH1 0x0 KECCAK256 PUSH1 0x0 DUP9 DUP2 MSTORE PUSH1 0x20 ADD SWAP1 DUP2 MSTORE PUSH1 0x20 ADD PUSH1 0x0 KECCAK256 PUSH1 0x6 ADD DUP5 DUP2 SLOAD DUP2 LT PUSH2 0x1CB3 JUMPI PUSH2 0x1CB2 PUSH2 0x3D0E JUMP JUMPDEST JUMPDEST SWAP1 PUSH1 0x0 MSTORE PUSH1 0x20 PUSH1 0x0 KECCAK256 SWAP1 PUSH1 0x3 MUL ADD PUSH1 0x1 ADD SLOAD PUSH1 0x40 MLOAD DUP4 PUSH4 0xFFFFFFFF AND PUSH1 0xE0 SHL DUP2 MSTORE PUSH1 0x4 ADD PUSH2 0x1CE2 SWAP3 SWAP2 SWAP1 PUSH2 0x3D3D JUMP JUMPDEST PUSH1 0x20 PUSH1 0x40 MLOAD DUP1 DUP4 SUB DUP2 PUSH1 0x0 DUP8 GAS CALL ISZERO DUP1 ISZERO PUSH2 0x1D01 JUMPI RETURNDATASIZE PUSH1 0x0 DUP1 RETURNDATACOPY RETURNDATASIZE PUSH1 0x0 REVERT JUMPDEST POP POP POP POP PUSH1 0x40 MLOAD RETURNDATASIZE PUSH1 0x1F NOT PUSH1 0x1F DUP3 ADD AND DUP3 ADD DUP1 PUSH1 0x40 MSTORE POP DUP2 ADD SWAP1 PUSH2 0x1D25 SWAP2 SWAP1 PUSH2 0x3D92 JUMP JUMPDEST POP PUSH1 0x1 DUP4 PUSH1 0x6 ADD DUP3 DUP2 SLOAD DUP2 LT PUSH2 0x1D3E JUMPI PUSH2 0x1D3D PUSH2 0x3D0E JUMP JUMPDEST JUMPDEST SWAP1 PUSH1 0x0 MSTORE PUSH1 0x20 PUSH1 0x0 KECCAK256 SWAP1 PUSH1 0x3 MUL ADD PUSH1 0x2 ADD PUSH1 0x1 PUSH2 0x100 EXP DUP2 SLOAD DUP2 PUSH1 0xFF MUL NOT AND SWAP1 DUP4 ISZERO ISZERO MUL OR SWAP1 SSTORE POP PUSH2 0x1DBC DUP2 DUP5 PUSH1 0x0 ADD PUSH1 0x0 SWAP1 SLOAD SWAP1 PUSH2 0x100 EXP SWAP1 DIV PUSH20 0xFFFFFFFFFFFFFFFFFFFFFFFFFFFFFFFFFFFFFFFF AND DUP6 PUSH1 0x6 ADD DUP5 DUP2 SLOAD DUP2 LT PUSH2 0x1DA5 JUMPI PUSH2 0x1DA4 PUSH2 0x3D0E JUMP JUMPDEST JUMPDEST SWAP1 PUSH1 0x0 MSTORE PUSH1 0x20 PUSH1 0x0 KECCAK256 SWAP1 PUSH1 0x3 MUL ADD PUSH1 0x1 ADD SLOAD PUSH2 0x4CF JUMP JUMPDEST PUSH2 0x1DCF JUMP JUMPDEST JUMPDEST DUP1 DUP1 PUSH1 0x1 ADD SWAP2 POP POP PUSH2 0x1AB3 JUMP JUMPDEST POP POP POP POP JUMP JUMPDEST PUSH1 0x0 PUSH1 0x2 PUSH1 0x0 DUP1 PUSH1 0x0 SWAP1 SLOAD SWAP1 PUSH2 0x100 EXP SWAP1 DIV PUSH20 0xFFFFFFFFFFFFFFFFFFFFFFFFFFFFFFFFFFFFFFFF AND PUSH20 0xFFFFFFFFFFFFFFFFFFFFFFFFFFFFFFFFFFFFFFFF AND PUSH20 0xFFFFFFFFFFFFFFFFFFFFFFFFFFFFFFFFFFFFFFFF AND DUP2 MSTORE PUSH1 0x20 ADD SWAP1 DUP2 MSTORE PUSH1 0x20 ADD PUSH1 0x0 KECCAK256 PUSH1 0x0 DUP6 DUP2 MSTORE PUSH1 0x20 ADD SWAP1 DUP2 MSTORE PUSH1 0x20 ADD PUSH1 0x0 KECCAK256 SWAP1 POP DUP1 PUSH1 0x6 ADD PUSH1 0x40 MLOAD DUP1 PUSH1 0x80 ADD PUSH1 0x40 MSTORE DUP1 DUP6 DUP2 MSTORE PUSH1 0x20 ADD DUP5 DUP2 MSTORE PUSH1 0x20 ADD PUSH1 0x0 PUSH1 0x2 DUP2 GT ISZERO PUSH2 0x1E79 JUMPI PUSH2 0x1E78 PUSH2 0x326A JUMP JUMPDEST JUMPDEST DUP2 MSTORE PUSH1 0x20 ADD PUSH1 0x0 ISZERO ISZERO DUP2 MSTORE POP SWAP1 DUP1 PUSH1 0x1 DUP2 SLOAD ADD DUP1 DUP3 SSTORE DUP1 SWAP2 POP POP PUSH1 0x1 SWAP1 SUB SWAP1 PUSH1 0x0 MSTORE PUSH1 0x20 PUSH1 0x0 KECCAK256 SWAP1 PUSH1 0x3 MUL ADD PUSH1 0x0 SWAP1 SWAP2 SWAP1 SWAP2 SWAP1 SWAP2 POP PUSH1 0x0 DUP3 ADD MLOAD DUP2 PUSH1 0x0 ADD SWAP1 DUP2 PUSH2 0x1EC3 SWAP2 SWAP1 PUSH2 0x3A5B JUMP JUMPDEST POP PUSH1 0x20 DUP3 ADD MLOAD DUP2 PUSH1 0x1 ADD SSTORE PUSH1 0x40 DUP3 ADD MLOAD DUP2 PUSH1 0x2 ADD PUSH1 0x0 PUSH2 0x100 EXP DUP2 SLOAD DUP2 PUSH1 0xFF MUL NOT AND SWAP1 DUP4 PUSH1 0x2 DUP2 GT ISZERO PUSH2 0x1EF9 JUMPI PUSH2 0x1EF8 PUSH2 0x326A JUMP JUMPDEST JUMPDEST MUL OR SWAP1 SSTORE POP PUSH1 0x60 DUP3 ADD MLOAD DUP2 PUSH1 0x2 ADD PUSH1 0x1 PUSH2 0x100 EXP DUP2 SLOAD DUP2 PUSH1 0xFF MUL NOT AND SWAP1 DUP4 ISZERO ISZERO MUL OR SWAP1 SSTORE POP POP POP DUP4 PUSH32 0xBF293DB00F4DE65B181A066ECC2F8BB81FB7174B517FD8085700E259AD00DB1B DUP5 DUP5 PUSH1 0x40 MLOAD PUSH2 0x1F52 SWAP3 SWAP2 SWAP1 PUSH2 0x3DBF JUMP JUMPDEST PUSH1 0x40 MLOAD DUP1 SWAP2 SUB SWAP1 LOG2 POP POP POP POP JUMP JUMPDEST PUSH1 0x0 PUSH20 0xFFFFFFFFFFFFFFFFFFFFFFFFFFFFFFFFFFFFFFFF AND CALLER PUSH20 0xFFFFFFFFFFFFFFFFFFFFFFFFFFFFFFFFFFFFFFFF AND SUB PUSH2 0x1FC6 JUMPI PUSH1 0x40 MLOAD PUSH32 0x5F252DAF00000000000000000000000000000000000000000000000000000000 DUP2 MSTORE PUSH1 0x4 ADD PUSH1 0x40 MLOAD DUP1 SWAP2 SUB SWAP1 REVERT JUMPDEST PUSH1 0x0 PUSH1 0x2 PUSH1 0x0 DUP1 PUSH1 0x0 SWAP1 SLOAD SWAP1 PUSH2 0x100 EXP SWAP1 DIV PUSH20 0xFFFFFFFFFFFFFFFFFFFFFFFFFFFFFFFFFFFFFFFF AND PUSH20 0xFFFFFFFFFFFFFFFFFFFFFFFFFFFFFFFFFFFFFFFF AND PUSH20 0xFFFFFFFFFFFFFFFFFFFFFFFFFFFFFFFFFFFFFFFF AND DUP2 MSTORE PUSH1 0x20 ADD SWAP1 DUP2 MSTORE PUSH1 0x20 ADD PUSH1 0x0 KECCAK256 PUSH1 0x0 DUP5 DUP2 MSTORE PUSH1 0x20 ADD SWAP1 DUP2 MSTORE PUSH1 0x20 ADD PUSH1 0x0 KECCAK256 SWAP1 POP DUP1 PUSH1 0x0 ADD PUSH1 0x0 SWAP1 SLOAD SWAP1 PUSH2 0x100 EXP SWAP1 DIV PUSH20 0xFFFFFFFFFFFFFFFFFFFFFFFFFFFFFFFFFFFFFFFF AND PUSH20 0xFFFFFFFFFFFFFFFFFFFFFFFFFFFFFFFFFFFFFFFF AND CALLER PUSH20 0xFFFFFFFFFFFFFFFFFFFFFFFFFFFFFFFFFFFFFFFF AND EQ PUSH2 0x20C4 JUMPI PUSH1 0x40 MLOAD PUSH32 0x44F3B42100000000000000000000000000000000000000000000000000000000 DUP2 MSTORE PUSH1 0x4 ADD PUSH1 0x40 MLOAD DUP1 SWAP2 SUB SWAP1 REVERT JUMPDEST PUSH1 0x0 PUSH1 0x2 PUSH1 0x0 DUP1 PUSH1 0x0 SWAP1 SLOAD SWAP1 PUSH2 0x100 EXP SWAP1 DIV PUSH20 0xFFFFFFFFFFFFFFFFFFFFFFFFFFFFFFFFFFFFFFFF AND PUSH20 0xFFFFFFFFFFFFFFFFFFFFFFFFFFFFFFFFFFFFFFFF AND PUSH20 0xFFFFFFFFFFFFFFFFFFFFFFFFFFFFFFFFFFFFFFFF AND DUP2 MSTORE PUSH1 0x20 ADD SWAP1 DUP2 MSTORE PUSH1 0x20 ADD PUSH1 0x0 KECCAK256 PUSH1 0x0 DUP6 DUP2 MSTORE PUSH1 0x20 ADD SWAP1 DUP2 MSTORE PUSH1 0x20 ADD PUSH1 0x0 KECCAK256 PUSH1 0x1 ADD SLOAD SWAP1 POP DUP1 DUP4 GT PUSH2 0x2176 JUMPI PUSH1 0x40 MLOAD PUSH32 0x81FFF43000000000000000000000000000000000000000000000000000000000 DUP2 MSTORE PUSH1 0x4 ADD PUSH1 0x40 MLOAD DUP1 SWAP2 SUB SWAP1 REVERT JUMPDEST PUSH1 0x0 PUSH2 0x2181 DUP5 PUSH2 0x25A4 JUMP JUMPDEST SWAP1 POP PUSH1 0x0 PUSH1 0x1 PUSH1 0x0 SWAP1 SLOAD SWAP1 PUSH2 0x100 EXP SWAP1 DIV PUSH20 0xFFFFFFFFFFFFFFFFFFFFFFFFFFFFFFFFFFFFFFFF AND PUSH20 0xFFFFFFFFFFFFFFFFFFFFFFFFFFFFFFFFFFFFFFFF AND PUSH4 0x70A08231 CALLER PUSH1 0x40 MLOAD DUP3 PUSH4 0xFFFFFFFF AND PUSH1 0xE0 SHL DUP2 MSTORE PUSH1 0x4 ADD PUSH2 0x21E0 SWAP2 SWAP1 PUSH2 0x379C JUMP JUMPDEST PUSH1 0x20 PUSH1 0x40 MLOAD DUP1 DUP4 SUB DUP2 DUP7 GAS STATICCALL ISZERO DUP1 ISZERO PUSH2 0x21FD JUMPI RETURNDATASIZE PUSH1 0x0 DUP1 RETURNDATACOPY RETURNDATASIZE PUSH1 0x0 REVERT JUMPDEST POP POP POP POP PUSH1 0x40 MLOAD RETURNDATASIZE PUSH1 0x1F NOT PUSH1 0x1F DUP3 ADD AND DUP3 ADD DUP1 PUSH1 0x40 MSTORE POP DUP2 ADD SWAP1 PUSH2 0x2221 SWAP2 SWAP1 PUSH2 0x3E04 JUMP JUMPDEST SWAP1 POP PUSH1 0x0 PUSH2 0x222E DUP3 PUSH2 0x25A4 JUMP JUMPDEST SWAP1 POP DUP3 DUP2 GT PUSH2 0x2272 JUMPI PUSH1 0x40 MLOAD PUSH32 0x8C379A000000000000000000000000000000000000000000000000000000000 DUP2 MSTORE PUSH1 0x4 ADD PUSH2 0x2269 SWAP1 PUSH2 0x3E7D JUMP JUMPDEST PUSH1 0x40 MLOAD DUP1 SWAP2 SUB SWAP1 REVERT JUMPDEST PUSH1 0x1 PUSH1 0x2 PUSH1 0x0 DUP1 PUSH1 0x0 SWAP1 SLOAD SWAP1 PUSH2 0x100 EXP SWAP1 DIV PUSH20 0xFFFFFFFFFFFFFFFFFFFFFFFFFFFFFFFFFFFFFFFF AND PUSH20 0xFFFFFFFFFFFFFFFFFFFFFFFFFFFFFFFFFFFFFFFF AND PUSH20 0xFFFFFFFFFFFFFFFFFFFFFFFFFFFFFFFFFFFFFFFF AND DUP2 MSTORE PUSH1 0x20 ADD SWAP1 DUP2 MSTORE PUSH1 0x20 ADD PUSH1 0x0 KECCAK256 PUSH1 0x0 DUP10 DUP2 MSTORE PUSH1 0x20 ADD SWAP1 DUP2 MSTORE PUSH1 0x20 ADD PUSH1 0x0 KECCAK256 PUSH1 0x5 ADD PUSH1 0x1 PUSH2 0x100 EXP DUP2 SLOAD DUP2 PUSH1 0xFF MUL NOT AND SWAP1 DUP4 ISZERO ISZERO MUL OR SWAP1 SSTORE POP PUSH1 0x1 PUSH1 0x0 SWAP1 SLOAD SWAP1 PUSH2 0x100 EXP SWAP1 DIV PUSH20 0xFFFFFFFFFFFFFFFFFFFFFFFFFFFFFFFFFFFFFFFF AND PUSH20 0xFFFFFFFFFFFFFFFFFFFFFFFFFFFFFFFFFFFFFFFF AND PUSH4 0x23B872DD CALLER ADDRESS DUP10 PUSH1 0x40 MLOAD DUP5 PUSH4 0xFFFFFFFF AND PUSH1 0xE0 SHL DUP2 MSTORE PUSH1 0x4 ADD PUSH2 0x235E SWAP4 SWAP3 SWAP2 SWAP1 PUSH2 0x3E9D JUMP JUMPDEST PUSH1 0x20 PUSH1 0x40 MLOAD DUP1 DUP4 SUB DUP2 PUSH1 0x0 DUP8 GAS CALL ISZERO DUP1 ISZERO PUSH2 0x237D JUMPI RETURNDATASIZE PUSH1 0x0 DUP1 RETURNDATACOPY RETURNDATASIZE PUSH1 0x0 REVERT JUMPDEST POP POP POP POP PUSH1 0x40 MLOAD RETURNDATASIZE PUSH1 0x1F NOT PUSH1 0x1F DUP3 ADD AND DUP3 ADD DUP1 PUSH1 0x40 MSTORE POP DUP2 ADD SWAP1 PUSH2 0x23A1 SWAP2 SWAP1 PUSH2 0x3D92 JUMP JUMPDEST POP POP POP POP POP POP POP POP JUMP JUMPDEST PUSH1 0x0 PUSH20 0xFFFFFFFFFFFFFFFFFFFFFFFFFFFFFFFFFFFFFFFF AND CALLER PUSH20 0xFFFFFFFFFFFFFFFFFFFFFFFFFFFFFFFFFFFFFFFF AND SUB PUSH2 0x2411 JUMPI PUSH1 0x40 MLOAD PUSH32 0x5F252DAF00000000000000000000000000000000000000000000000000000000 DUP2 MSTORE PUSH1 0x4 ADD PUSH1 0x40 MLOAD DUP1 SWAP2 SUB SWAP1 REVERT JUMPDEST PUSH1 0x0 PUSH1 0x2 PUSH1 0x0 DUP1 PUSH1 0x0 SWAP1 SLOAD SWAP1 PUSH2 0x100 EXP SWAP1 DIV PUSH20 0xFFFFFFFFFFFFFFFFFFFFFFFFFFFFFFFFFFFFFFFF AND PUSH20 0xFFFFFFFFFFFFFFFFFFFFFFFFFFFFFFFFFFFFFFFF AND PUSH20 0xFFFFFFFFFFFFFFFFFFFFFFFFFFFFFFFFFFFFFFFF AND DUP2 MSTORE PUSH1 0x20 ADD SWAP1 DUP2 MSTORE PUSH1 0x20 ADD PUSH1 0x0 KECCAK256 PUSH1 0x0 DUP4 DUP2 MSTORE PUSH1 0x20 ADD SWAP1 DUP2 MSTORE PUSH1 0x20 ADD PUSH1 0x0 KECCAK256 SWAP1 POP CALLER PUSH20 0xFFFFFFFFFFFFFFFFFFFFFFFFFFFFFFFFFFFFFFFF AND DUP2 PUSH1 0x0 ADD PUSH1 0x0 SWAP1 SLOAD SWAP1 PUSH2 0x100 EXP SWAP1 DIV PUSH20 0xFFFFFFFFFFFFFFFFFFFFFFFFFFFFFFFFFFFFFFFF AND PUSH20 0xFFFFFFFFFFFFFFFFFFFFFFFFFFFFFFFFFFFFFFFF AND EQ PUSH2 0x250F JUMPI PUSH1 0x40 MLOAD PUSH32 0x5169E01000000000000000000000000000000000000000000000000000000000 DUP2 MSTORE PUSH1 0x4 ADD PUSH1 0x40 MLOAD DUP1 SWAP2 SUB SWAP1 REVERT JUMPDEST PUSH1 0x1 DUP2 PUSH1 0x5 ADD PUSH1 0x2 PUSH2 0x100 EXP DUP2 SLOAD DUP2 PUSH1 0xFF MUL NOT AND SWAP1 DUP4 ISZERO ISZERO MUL OR SWAP1 SSTORE POP CALLER PUSH20 0xFFFFFFFFFFFFFFFFFFFFFFFFFFFFFFFFFFFFFFFF AND PUSH32 0xD3EC1DB989D7A04F562031E02001F88781A3BC555A5608A288ACCCAE5B50E86F DUP4 PUSH1 0x40 MLOAD PUSH2 0x2572 SWAP2 SWAP1 PUSH2 0x3180 JUMP JUMPDEST PUSH1 0x40 MLOAD DUP1 SWAP2 SUB SWAP1 LOG2 POP POP JUMP JUMPDEST PUSH1 0x1 PUSH1 0x0 SWAP1 SLOAD SWAP1 PUSH2 0x100 EXP SWAP1 DIV PUSH20 0xFFFFFFFFFFFFFFFFFFFFFFFFFFFFFFFFFFFFFFFF AND DUP2 JUMP JUMPDEST PUSH1 0x0 DUP1 PUSH2 0x25AF PUSH2 0x2A62 JUMP JUMPDEST SWAP1 POP PUSH1 0x0 PUSH8 0xDE0B6B3A7640000 DUP5 DUP4 PUSH2 0x25C8 SWAP2 SWAP1 PUSH2 0x3ED4 JUMP JUMPDEST PUSH2 0x25D2 SWAP2 SWAP1 PUSH2 0x3F45 JUMP JUMPDEST SWAP1 POP DUP1 SWAP3 POP POP POP SWAP2 SWAP1 POP JUMP JUMPDEST PUSH1 0x0 PUSH1 0x3 PUSH1 0x0 DUP4 PUSH20 0xFFFFFFFFFFFFFFFFFFFFFFFFFFFFFFFFFFFFFFFF AND PUSH20 0xFFFFFFFFFFFFFFFFFFFFFFFFFFFFFFFFFFFFFFFF AND DUP2 MSTORE PUSH1 0x20 ADD SWAP1 DUP2 MSTORE PUSH1 0x20 ADD PUSH1 0x0 KECCAK256 SLOAD SWAP1 POP SWAP2 SWAP1 POP JUMP JUMPDEST PUSH1 0x60 PUSH1 0x0 DUP3 PUSH8 0xFFFFFFFFFFFFFFFF DUP2 GT ISZERO PUSH2 0x2645 JUMPI PUSH2 0x2644 PUSH2 0x2FA2 JUMP JUMPDEST JUMPDEST PUSH1 0x40 MLOAD SWAP1 DUP1 DUP3 MSTORE DUP1 PUSH1 0x20 MUL PUSH1 0x20 ADD DUP3 ADD PUSH1 0x40 MSTORE DUP1 ISZERO PUSH2 0x267E JUMPI DUP2 PUSH1 0x20 ADD JUMPDEST PUSH2 0x266B PUSH2 0x2BEC JUMP JUMPDEST DUP2 MSTORE PUSH1 0x20 ADD SWAP1 PUSH1 0x1 SWAP1 SUB SWAP1 DUP2 PUSH2 0x2663 JUMPI SWAP1 POP JUMPDEST POP SWAP1 POP PUSH1 0x0 PUSH1 0x1 SWAP1 POP JUMPDEST DUP4 DUP2 GT PUSH2 0x2A58 JUMPI PUSH1 0x2 PUSH1 0x0 CALLER PUSH20 0xFFFFFFFFFFFFFFFFFFFFFFFFFFFFFFFFFFFFFFFF AND PUSH20 0xFFFFFFFFFFFFFFFFFFFFFFFFFFFFFFFFFFFFFFFF AND DUP2 MSTORE PUSH1 0x20 ADD SWAP1 DUP2 MSTORE PUSH1 0x20 ADD PUSH1 0x0 KECCAK256 PUSH1 0x0 DUP3 DUP2 MSTORE PUSH1 0x20 ADD SWAP1 DUP2 MSTORE PUSH1 0x20 ADD PUSH1 0x0 KECCAK256 PUSH1 0x40 MLOAD DUP1 PUSH2 0x120 ADD PUSH1 0x40 MSTORE SWAP1 DUP2 PUSH1 0x0 DUP3 ADD PUSH1 0x0 SWAP1 SLOAD SWAP1 PUSH2 0x100 EXP SWAP1 DIV PUSH20 0xFFFFFFFFFFFFFFFFFFFFFFFFFFFFFFFFFFFFFFFF AND PUSH20 0xFFFFFFFFFFFFFFFFFFFFFFFFFFFFFFFFFFFFFFFF AND PUSH20 0xFFFFFFFFFFFFFFFFFFFFFFFFFFFFFFFFFFFFFFFF AND DUP2 MSTORE PUSH1 0x20 ADD PUSH1 0x1 DUP3 ADD SLOAD DUP2 MSTORE PUSH1 0x20 ADD PUSH1 0x2 DUP3 ADD SLOAD DUP2 MSTORE PUSH1 0x20 ADD PUSH1 0x3 DUP3 ADD DUP1 SLOAD PUSH2 0x2765 SWAP1 PUSH2 0x3855 JUMP JUMPDEST DUP1 PUSH1 0x1F ADD PUSH1 0x20 DUP1 SWAP2 DIV MUL PUSH1 0x20 ADD PUSH1 0x40 MLOAD SWAP1 DUP2 ADD PUSH1 0x40 MSTORE DUP1 SWAP3 SWAP2 SWAP1 DUP2 DUP2 MSTORE PUSH1 0x20 ADD DUP3 DUP1 SLOAD PUSH2 0x2791 SWAP1 PUSH2 0x3855 JUMP JUMPDEST DUP1 ISZERO PUSH2 0x27DE JUMPI DUP1 PUSH1 0x1F LT PUSH2 0x27B3 JUMPI PUSH2 0x100 DUP1 DUP4 SLOAD DIV MUL DUP4 MSTORE SWAP2 PUSH1 0x20 ADD SWAP2 PUSH2 0x27DE JUMP JUMPDEST DUP3 ADD SWAP2 SWAP1 PUSH1 0x0 MSTORE PUSH1 0x20 PUSH1 0x0 KECCAK256 SWAP1 JUMPDEST DUP2 SLOAD DUP2 MSTORE SWAP1 PUSH1 0x1 ADD SWAP1 PUSH1 0x20 ADD DUP1 DUP4 GT PUSH2 0x27C1 JUMPI DUP3 SWAP1 SUB PUSH1 0x1F AND DUP3 ADD SWAP2 JUMPDEST POP POP POP POP POP DUP2 MSTORE PUSH1 0x20 ADD PUSH1 0x4 DUP3 ADD DUP1 SLOAD PUSH2 0x27F7 SWAP1 PUSH2 0x3855 JUMP JUMPDEST DUP1 PUSH1 0x1F ADD PUSH1 0x20 DUP1 SWAP2 DIV MUL PUSH1 0x20 ADD PUSH1 0x40 MLOAD SWAP1 DUP2 ADD PUSH1 0x40 MSTORE DUP1 SWAP3 SWAP2 SWAP1 DUP2 DUP2 MSTORE PUSH1 0x20 ADD DUP3 DUP1 SLOAD PUSH2 0x2823 SWAP1 PUSH2 0x3855 JUMP JUMPDEST DUP1 ISZERO PUSH2 0x2870 JUMPI DUP1 PUSH1 0x1F LT PUSH2 0x2845 JUMPI PUSH2 0x100 DUP1 DUP4 SLOAD DIV MUL DUP4 MSTORE SWAP2 PUSH1 0x20 ADD SWAP2 PUSH2 0x2870 JUMP JUMPDEST DUP3 ADD SWAP2 SWAP1 PUSH1 0x0 MSTORE PUSH1 0x20 PUSH1 0x0 KECCAK256 SWAP1 JUMPDEST DUP2 SLOAD DUP2 MSTORE SWAP1 PUSH1 0x1 ADD SWAP1 PUSH1 0x20 ADD DUP1 DUP4 GT PUSH2 0x2853 JUMPI DUP3 SWAP1 SUB PUSH1 0x1F AND DUP3 ADD SWAP2 JUMPDEST POP POP POP POP POP DUP2 MSTORE PUSH1 0x20 ADD PUSH1 0x5 DUP3 ADD PUSH1 0x0 SWAP1 SLOAD SWAP1 PUSH2 0x100 EXP SWAP1 DIV PUSH1 0xFF AND ISZERO ISZERO ISZERO ISZERO DUP2 MSTORE PUSH1 0x20 ADD PUSH1 0x5 DUP3 ADD PUSH1 0x1 SWAP1 SLOAD SWAP1 PUSH2 0x100 EXP SWAP1 DIV PUSH1 0xFF AND ISZERO ISZERO ISZERO ISZERO DUP2 MSTORE PUSH1 0x20 ADD PUSH1 0x5 DUP3 ADD PUSH1 0x2 SWAP1 SLOAD SWAP1 PUSH2 0x100 EXP SWAP1 DIV PUSH1 0xFF AND ISZERO ISZERO ISZERO ISZERO DUP2 MSTORE PUSH1 0x20 ADD PUSH1 0x6 DUP3 ADD DUP1 SLOAD DUP1 PUSH1 0x20 MUL PUSH1 0x20 ADD PUSH1 0x40 MLOAD SWAP1 DUP2 ADD PUSH1 0x40 MSTORE DUP1 SWAP3 SWAP2 SWAP1 DUP2 DUP2 MSTORE PUSH1 0x20 ADD PUSH1 0x0 SWAP1 JUMPDEST DUP3 DUP3 LT ISZERO PUSH2 0x2A13 JUMPI DUP4 DUP3 SWAP1 PUSH1 0x0 MSTORE PUSH1 0x20 PUSH1 0x0 KECCAK256 SWAP1 PUSH1 0x3 MUL ADD PUSH1 0x40 MLOAD DUP1 PUSH1 0x80 ADD PUSH1 0x40 MSTORE SWAP1 DUP2 PUSH1 0x0 DUP3 ADD DUP1 SLOAD PUSH2 0x2922 SWAP1 PUSH2 0x3855 JUMP JUMPDEST DUP1 PUSH1 0x1F ADD PUSH1 0x20 DUP1 SWAP2 DIV MUL PUSH1 0x20 ADD PUSH1 0x40 MLOAD SWAP1 DUP2 ADD PUSH1 0x40 MSTORE DUP1 SWAP3 SWAP2 SWAP1 DUP2 DUP2 MSTORE PUSH1 0x20 ADD DUP3 DUP1 SLOAD PUSH2 0x294E SWAP1 PUSH2 0x3855 JUMP JUMPDEST DUP1 ISZERO PUSH2 0x299B JUMPI DUP1 PUSH1 0x1F LT PUSH2 0x2970 JUMPI PUSH2 0x100 DUP1 DUP4 SLOAD DIV MUL DUP4 MSTORE SWAP2 PUSH1 0x20 ADD SWAP2 PUSH2 0x299B JUMP JUMPDEST DUP3 ADD SWAP2 SWAP1 PUSH1 0x0 MSTORE PUSH1 0x20 PUSH1 0x0 KECCAK256 SWAP1 JUMPDEST DUP2 SLOAD DUP2 MSTORE SWAP1 PUSH1 0x1 ADD SWAP1 PUSH1 0x20 ADD DUP1 DUP4 GT PUSH2 0x297E JUMPI DUP3 SWAP1 SUB PUSH1 0x1F AND DUP3 ADD SWAP2 JUMPDEST POP POP POP POP POP DUP2 MSTORE PUSH1 0x20 ADD PUSH1 0x1 DUP3 ADD SLOAD DUP2 MSTORE PUSH1 0x20 ADD PUSH1 0x2 DUP3 ADD PUSH1 0x0 SWAP1 SLOAD SWAP1 PUSH2 0x100 EXP SWAP1 DIV PUSH1 0xFF AND PUSH1 0x2 DUP2 GT ISZERO PUSH2 0x29D3 JUMPI PUSH2 0x29D2 PUSH2 0x326A JUMP JUMPDEST JUMPDEST PUSH1 0x2 DUP2 GT ISZERO PUSH2 0x29E5 JUMPI PUSH2 0x29E4 PUSH2 0x326A JUMP JUMPDEST JUMPDEST DUP2 MSTORE PUSH1 0x20 ADD PUSH1 0x2 DUP3 ADD PUSH1 0x1 SWAP1 SLOAD SWAP1 PUSH2 0x100 EXP SWAP1 DIV PUSH1 0xFF AND ISZERO ISZERO ISZERO ISZERO DUP2 MSTORE POP POP DUP2 MSTORE PUSH1 0x20 ADD SWAP1 PUSH1 0x1 ADD SWAP1 PUSH2 0x28EF JUMP JUMPDEST POP POP POP POP DUP2 MSTORE POP POP DUP3 PUSH1 0x1 DUP4 PUSH2 0x2A29 SWAP2 SWAP1 PUSH2 0x3F76 JUMP JUMPDEST DUP2 MLOAD DUP2 LT PUSH2 0x2A3A JUMPI PUSH2 0x2A39 PUSH2 0x3D0E JUMP JUMPDEST JUMPDEST PUSH1 0x20 MUL PUSH1 0x20 ADD ADD DUP2 SWAP1 MSTORE POP DUP1 DUP1 PUSH2 0x2A50 SWAP1 PUSH2 0x3C5A JUMP JUMPDEST SWAP2 POP POP PUSH2 0x2688 JUMP JUMPDEST POP DUP1 SWAP2 POP POP SWAP2 SWAP1 POP JUMP JUMPDEST PUSH1 0x0 DUP1 PUSH20 0x694AA1769357215DE4FAC081BF1F309ADC325306 SWAP1 POP PUSH1 0x0 DUP2 PUSH20 0xFFFFFFFFFFFFFFFFFFFFFFFFFFFFFFFFFFFFFFFF AND PUSH4 0xFEAF968C PUSH1 0x40 MLOAD DUP2 PUSH4 0xFFFFFFFF AND PUSH1 0xE0 SHL DUP2 MSTORE PUSH1 0x4 ADD PUSH1 0xA0 PUSH1 0x40 MLOAD DUP1 DUP4 SUB DUP2 DUP7 GAS STATICCALL ISZERO DUP1 ISZERO PUSH2 0x2AC9 JUMPI RETURNDATASIZE PUSH1 0x0 DUP1 RETURNDATACOPY RETURNDATASIZE PUSH1 0x0 REVERT JUMPDEST POP POP POP POP PUSH1 0x40 MLOAD RETURNDATASIZE PUSH1 0x1F NOT PUSH1 0x1F DUP3 ADD AND DUP3 ADD DUP1 PUSH1 0x40 MSTORE POP DUP2 ADD SWAP1 PUSH2 0x2AED SWAP2 SWAP1 PUSH2 0x4022 JUMP JUMPDEST POP POP POP SWAP2 POP POP PUSH5 0x2540BE400 DUP2 PUSH2 0x2B04 SWAP2 SWAP1 PUSH2 0x409D JUMP JUMPDEST SWAP3 POP POP POP SWAP1 JUMP JUMPDEST DUP3 DUP1 SLOAD DUP3 DUP3 SSTORE SWAP1 PUSH1 0x0 MSTORE PUSH1 0x20 PUSH1 0x0 KECCAK256 SWAP1 PUSH1 0x3 MUL DUP2 ADD SWAP3 DUP3 ISZERO PUSH2 0x2BDB JUMPI PUSH1 0x0 MSTORE PUSH1 0x20 PUSH1 0x0 KECCAK256 SWAP2 PUSH1 0x3 MUL DUP3 ADD JUMPDEST DUP3 DUP2 GT ISZERO PUSH2 0x2BDA JUMPI DUP3 DUP3 PUSH1 0x0 DUP3 ADD DUP2 PUSH1 0x0 ADD SWAP1 DUP2 PUSH2 0x2B54 SWAP2 SWAP1 PUSH2 0x3B43 JUMP JUMPDEST POP PUSH1 0x1 DUP3 ADD SLOAD DUP2 PUSH1 0x1 ADD SSTORE PUSH1 0x2 DUP3 ADD PUSH1 0x0 SWAP1 SLOAD SWAP1 PUSH2 0x100 EXP SWAP1 DIV PUSH1 0xFF AND DUP2 PUSH1 0x2 ADD PUSH1 0x0 PUSH2 0x100 EXP DUP2 SLOAD DUP2 PUSH1 0xFF MUL NOT AND SWAP1 DUP4 PUSH1 0x2 DUP2 GT ISZERO PUSH2 0x2B97 JUMPI PUSH2 0x2B96 PUSH2 0x326A JUMP JUMPDEST JUMPDEST MUL OR SWAP1 SSTORE POP PUSH1 0x2 DUP3 ADD PUSH1 0x1 SWAP1 SLOAD SWAP1 PUSH2 0x100 EXP SWAP1 DIV PUSH1 0xFF AND DUP2 PUSH1 0x2 ADD PUSH1 0x1 PUSH2 0x100 EXP DUP2 SLOAD DUP2 PUSH1 0xFF MUL NOT AND SWAP1 DUP4 ISZERO ISZERO MUL OR SWAP1 SSTORE POP POP POP SWAP2 PUSH1 0x3 ADD SWAP2 SWAP1 PUSH1 0x3 ADD SWAP1 PUSH2 0x2B36 JUMP JUMPDEST JUMPDEST POP SWAP1 POP PUSH2 0x2BE8 SWAP2 SWAP1 PUSH2 0x2C54 JUMP JUMPDEST POP SWAP1 JUMP JUMPDEST PUSH1 0x40 MLOAD DUP1 PUSH2 0x120 ADD PUSH1 0x40 MSTORE DUP1 PUSH1 0x0 PUSH20 0xFFFFFFFFFFFFFFFFFFFFFFFFFFFFFFFFFFFFFFFF AND DUP2 MSTORE PUSH1 0x20 ADD PUSH1 0x0 DUP2 MSTORE PUSH1 0x20 ADD PUSH1 0x0 DUP2 MSTORE PUSH1 0x20 ADD PUSH1 0x60 DUP2 MSTORE PUSH1 0x20 ADD PUSH1 0x60 DUP2 MSTORE PUSH1 0x20 ADD PUSH1 0x0 ISZERO ISZERO DUP2 MSTORE PUSH1 0x20 ADD PUSH1 0x0 ISZERO ISZERO DUP2 MSTORE PUSH1 0x20 ADD PUSH1 0x0 ISZERO ISZERO DUP2 MSTORE PUSH1 0x20 ADD PUSH1 0x60 DUP2 MSTORE POP SWAP1 JUMP JUMPDEST JUMPDEST DUP1 DUP3 GT ISZERO PUSH2 0x2CA7 JUMPI PUSH1 0x0 DUP1 DUP3 ADD PUSH1 0x0 PUSH2 0x2C6E SWAP2 SWAP1 PUSH2 0x2CAB JUMP JUMPDEST PUSH1 0x1 DUP3 ADD PUSH1 0x0 SWAP1 SSTORE PUSH1 0x2 DUP3 ADD PUSH1 0x0 PUSH2 0x100 EXP DUP2 SLOAD SWAP1 PUSH1 0xFF MUL NOT AND SWAP1 SSTORE PUSH1 0x2 DUP3 ADD PUSH1 0x1 PUSH2 0x100 EXP DUP2 SLOAD SWAP1 PUSH1 0xFF MUL NOT AND SWAP1 SSTORE POP PUSH1 0x3 ADD PUSH2 0x2C55 JUMP JUMPDEST POP SWAP1 JUMP JUMPDEST POP DUP1 SLOAD PUSH2 0x2CB7 SWAP1 PUSH2 0x3855 JUMP JUMPDEST PUSH1 0x0 DUP3 SSTORE DUP1 PUSH1 0x1F LT PUSH2 0x2CC9 JUMPI POP PUSH2 0x2CE8 JUMP JUMPDEST PUSH1 0x1F ADD PUSH1 0x20 SWAP1 DIV SWAP1 PUSH1 0x0 MSTORE PUSH1 0x20 PUSH1 0x0 KECCAK256 SWAP1 DUP2 ADD SWAP1 PUSH2 0x2CE7 SWAP2 SWAP1 PUSH2 0x2CEB JUMP JUMPDEST JUMPDEST POP JUMP JUMPDEST JUMPDEST DUP1 DUP3 GT ISZERO PUSH2 0x2D04 JUMPI PUSH1 0x0 DUP2 PUSH1 0x0 SWAP1 SSTORE POP PUSH1 0x1 ADD PUSH2 0x2CEC JUMP JUMPDEST POP SWAP1 JUMP JUMPDEST PUSH1 0x0 PUSH1 0x40 MLOAD SWAP1 POP SWAP1 JUMP JUMPDEST PUSH1 0x0 DUP1 REVERT JUMPDEST PUSH1 0x0 DUP1 REVERT JUMPDEST PUSH1 0x0 PUSH20 0xFFFFFFFFFFFFFFFFFFFFFFFFFFFFFFFFFFFFFFFF DUP3 AND SWAP1 POP SWAP2 SWAP1 POP JUMP JUMPDEST PUSH1 0x0 PUSH2 0x2D47 DUP3 PUSH2 0x2D1C JUMP JUMPDEST SWAP1 POP SWAP2 SWAP1 POP JUMP JUMPDEST PUSH2 0x2D57 DUP2 PUSH2 0x2D3C JUMP JUMPDEST DUP2 EQ PUSH2 0x2D62 JUMPI PUSH1 0x0 DUP1 REVERT JUMPDEST POP JUMP JUMPDEST PUSH1 0x0 DUP2 CALLDATALOAD SWAP1 POP PUSH2 0x2D74 DUP2 PUSH2 0x2D4E JUMP JUMPDEST SWAP3 SWAP2 POP POP JUMP JUMPDEST PUSH1 0x0 DUP2 SWAP1 POP SWAP2 SWAP1 POP JUMP JUMPDEST PUSH2 0x2D8D DUP2 PUSH2 0x2D7A JUMP JUMPDEST DUP2 EQ PUSH2 0x2D98 JUMPI PUSH1 0x0 DUP1 REVERT JUMPDEST POP JUMP JUMPDEST PUSH1 0x0 DUP2 CALLDATALOAD SWAP1 POP PUSH2 0x2DAA DUP2 PUSH2 0x2D84 JUMP JUMPDEST SWAP3 SWAP2 POP POP JUMP JUMPDEST PUSH1 0x0 DUP1 PUSH1 0x40 DUP4 DUP6 SUB SLT ISZERO PUSH2 0x2DC7 JUMPI PUSH2 0x2DC6 PUSH2 0x2D12 JUMP JUMPDEST JUMPDEST PUSH1 0x0 PUSH2 0x2DD5 DUP6 DUP3 DUP7 ADD PUSH2 0x2D65 JUMP JUMPDEST SWAP3 POP POP PUSH1 0x20 PUSH2 0x2DE6 DUP6 DUP3 DUP7 ADD PUSH2 0x2D9B JUMP JUMPDEST SWAP2 POP POP SWAP3 POP SWAP3 SWAP1 POP JUMP JUMPDEST PUSH2 0x2DF9 DUP2 PUSH2 0x2D3C JUMP JUMPDEST DUP3 MSTORE POP POP JUMP JUMPDEST PUSH2 0x2E08 DUP2 PUSH2 0x2D7A JUMP JUMPDEST DUP3 MSTORE POP POP JUMP JUMPDEST PUSH1 0x0 DUP2 MLOAD SWAP1 POP SWAP2 SWAP1 POP JUMP JUMPDEST PUSH1 0x0 DUP3 DUP3 MSTORE PUSH1 0x20 DUP3 ADD SWAP1 POP SWAP3 SWAP2 POP POP JUMP JUMPDEST PUSH1 0x0 JUMPDEST DUP4 DUP2 LT ISZERO PUSH2 0x2E48 JUMPI DUP1 DUP3 ADD MLOAD DUP2 DUP5 ADD MSTORE PUSH1 0x20 DUP2 ADD SWAP1 POP PUSH2 0x2E2D JUMP JUMPDEST PUSH1 0x0 DUP5 DUP5 ADD MSTORE POP POP POP POP JUMP JUMPDEST PUSH1 0x0 PUSH1 0x1F NOT PUSH1 0x1F DUP4 ADD AND SWAP1 POP SWAP2 SWAP1 POP JUMP JUMPDEST PUSH1 0x0 PUSH2 0x2E70 DUP3 PUSH2 0x2E0E JUMP JUMPDEST PUSH2 0x2E7A DUP2 DUP6 PUSH2 0x2E19 JUMP JUMPDEST SWAP4 POP PUSH2 0x2E8A DUP2 DUP6 PUSH1 0x20 DUP7 ADD PUSH2 0x2E2A JUMP JUMPDEST PUSH2 0x2E93 DUP2 PUSH2 0x2E54 JUMP JUMPDEST DUP5 ADD SWAP2 POP POP SWAP3 SWAP2 POP POP JUMP JUMPDEST PUSH1 0x0 DUP2 ISZERO ISZERO SWAP1 POP SWAP2 SWAP1 POP JUMP JUMPDEST PUSH2 0x2EB3 DUP2 PUSH2 0x2E9E JUMP JUMPDEST DUP3 MSTORE POP POP JUMP JUMPDEST PUSH1 0x0 PUSH2 0x100 DUP3 ADD SWAP1 POP PUSH2 0x2ECF PUSH1 0x0 DUP4 ADD DUP12 PUSH2 0x2DF0 JUMP JUMPDEST PUSH2 0x2EDC PUSH1 0x20 DUP4 ADD DUP11 PUSH2 0x2DFF JUMP JUMPDEST PUSH2 0x2EE9 PUSH1 0x40 DUP4 ADD DUP10 PUSH2 0x2DFF JUMP JUMPDEST DUP2 DUP2 SUB PUSH1 0x60 DUP4 ADD MSTORE PUSH2 0x2EFB DUP2 DUP9 PUSH2 0x2E65 JUMP JUMPDEST SWAP1 POP DUP2 DUP2 SUB PUSH1 0x80 DUP4 ADD MSTORE PUSH2 0x2F0F DUP2 DUP8 PUSH2 0x2E65 JUMP JUMPDEST SWAP1 POP PUSH2 0x2F1E PUSH1 0xA0 DUP4 ADD DUP7 PUSH2 0x2EAA JUMP JUMPDEST PUSH2 0x2F2B PUSH1 0xC0 DUP4 ADD DUP6 PUSH2 0x2EAA JUMP JUMPDEST PUSH2 0x2F38 PUSH1 0xE0 DUP4 ADD DUP5 PUSH2 0x2EAA JUMP JUMPDEST SWAP10 SWAP9 POP POP POP POP POP POP POP POP POP JUMP JUMPDEST PUSH1 0x0 DUP1 PUSH1 0x0 PUSH1 0x60 DUP5 DUP7 SUB SLT ISZERO PUSH2 0x2F5E JUMPI PUSH2 0x2F5D PUSH2 0x2D12 JUMP JUMPDEST JUMPDEST PUSH1 0x0 PUSH2 0x2F6C DUP7 DUP3 DUP8 ADD PUSH2 0x2D9B JUMP JUMPDEST SWAP4 POP POP PUSH1 0x20 PUSH2 0x2F7D DUP7 DUP3 DUP8 ADD PUSH2 0x2D65 JUMP JUMPDEST SWAP3 POP POP PUSH1 0x40 PUSH2 0x2F8E DUP7 DUP3 DUP8 ADD PUSH2 0x2D9B JUMP JUMPDEST SWAP2 POP POP SWAP3 POP SWAP3 POP SWAP3 JUMP JUMPDEST PUSH1 0x0 DUP1 REVERT JUMPDEST PUSH1 0x0 DUP1 REVERT JUMPDEST PUSH32 0x4E487B7100000000000000000000000000000000000000000000000000000000 PUSH1 0x0 MSTORE PUSH1 0x41 PUSH1 0x4 MSTORE PUSH1 0x24 PUSH1 0x0 REVERT JUMPDEST PUSH2 0x2FDA DUP3 PUSH2 0x2E54 JUMP JUMPDEST DUP2 ADD DUP2 DUP2 LT PUSH8 0xFFFFFFFFFFFFFFFF DUP3 GT OR ISZERO PUSH2 0x2FF9 JUMPI PUSH2 0x2FF8 PUSH2 0x2FA2 JUMP JUMPDEST JUMPDEST DUP1 PUSH1 0x40 MSTORE POP POP POP JUMP JUMPDEST PUSH1 0x0 PUSH2 0x300C PUSH2 0x2D08 JUMP JUMPDEST SWAP1 POP PUSH2 0x3018 DUP3 DUP3 PUSH2 0x2FD1 JUMP JUMPDEST SWAP2 SWAP1 POP JUMP JUMPDEST PUSH1 0x0 PUSH8 0xFFFFFFFFFFFFFFFF DUP3 GT ISZERO PUSH2 0x3038 JUMPI PUSH2 0x3037 PUSH2 0x2FA2 JUMP JUMPDEST JUMPDEST PUSH2 0x3041 DUP3 PUSH2 0x2E54 JUMP JUMPDEST SWAP1 POP PUSH1 0x20 DUP2 ADD SWAP1 POP SWAP2 SWAP1 POP JUMP JUMPDEST DUP3 DUP2 DUP4 CALLDATACOPY PUSH1 0x0 DUP4 DUP4 ADD MSTORE POP POP POP JUMP JUMPDEST PUSH1 0x0 PUSH2 0x3070 PUSH2 0x306B DUP5 PUSH2 0x301D JUMP JUMPDEST PUSH2 0x3002 JUMP JUMPDEST SWAP1 POP DUP3 DUP2 MSTORE PUSH1 0x20 DUP2 ADD DUP5 DUP5 DUP5 ADD GT ISZERO PUSH2 0x308C JUMPI PUSH2 0x308B PUSH2 0x2F9D JUMP JUMPDEST JUMPDEST PUSH2 0x3097 DUP5 DUP3 DUP6 PUSH2 0x304E JUMP JUMPDEST POP SWAP4 SWAP3 POP POP POP JUMP JUMPDEST PUSH1 0x0 DUP3 PUSH1 0x1F DUP4 ADD SLT PUSH2 0x30B4 JUMPI PUSH2 0x30B3 PUSH2 0x2F98 JUMP JUMPDEST JUMPDEST DUP2 CALLDATALOAD PUSH2 0x30C4 DUP5 DUP3 PUSH1 0x20 DUP7 ADD PUSH2 0x305D JUMP JUMPDEST SWAP2 POP POP SWAP3 SWAP2 POP POP JUMP JUMPDEST PUSH1 0x0 DUP1 PUSH1 0x0 DUP1 PUSH1 0x0 PUSH1 0xA0 DUP7 DUP9 SUB SLT ISZERO PUSH2 0x30E9 JUMPI PUSH2 0x30E8 PUSH2 0x2D12 JUMP JUMPDEST JUMPDEST PUSH1 0x0 PUSH2 0x30F7 DUP9 DUP3 DUP10 ADD PUSH2 0x2D65 JUMP JUMPDEST SWAP6 POP POP PUSH1 0x20 PUSH2 0x3108 DUP9 DUP3 DUP10 ADD PUSH2 0x2D9B JUMP JUMPDEST SWAP5 POP POP PUSH1 0x40 PUSH2 0x3119 DUP9 DUP3 DUP10 ADD PUSH2 0x2D9B JUMP JUMPDEST SWAP4 POP POP PUSH1 0x60 DUP7 ADD CALLDATALOAD PUSH8 0xFFFFFFFFFFFFFFFF DUP2 GT ISZERO PUSH2 0x313A JUMPI PUSH2 0x3139 PUSH2 0x2D17 JUMP JUMPDEST JUMPDEST PUSH2 0x3146 DUP9 DUP3 DUP10 ADD PUSH2 0x309F JUMP JUMPDEST SWAP3 POP POP PUSH1 0x80 DUP7 ADD CALLDATALOAD PUSH8 0xFFFFFFFFFFFFFFFF DUP2 GT ISZERO PUSH2 0x3167 JUMPI PUSH2 0x3166 PUSH2 0x2D17 JUMP JUMPDEST JUMPDEST PUSH2 0x3173 DUP9 DUP3 DUP10 ADD PUSH2 0x309F JUMP JUMPDEST SWAP2 POP POP SWAP3 SWAP6 POP SWAP3 SWAP6 SWAP1 SWAP4 POP JUMP JUMPDEST PUSH1 0x0 PUSH1 0x20 DUP3 ADD SWAP1 POP PUSH2 0x3195 PUSH1 0x0 DUP4 ADD DUP5 PUSH2 0x2DFF JUMP JUMPDEST SWAP3 SWAP2 POP POP JUMP JUMPDEST PUSH1 0x0 DUP2 MLOAD SWAP1 POP SWAP2 SWAP1 POP JUMP JUMPDEST PUSH1 0x0 DUP3 DUP3 MSTORE PUSH1 0x20 DUP3 ADD SWAP1 POP SWAP3 SWAP2 POP POP JUMP JUMPDEST PUSH1 0x0 DUP2 SWAP1 POP PUSH1 0x20 DUP3 ADD SWAP1 POP SWAP2 SWAP1 POP JUMP JUMPDEST PUSH2 0x31D0 DUP2 PUSH2 0x2D3C JUMP JUMPDEST DUP3 MSTORE POP POP JUMP JUMPDEST PUSH2 0x31DF DUP2 PUSH2 0x2D7A JUMP JUMPDEST DUP3 MSTORE POP POP JUMP JUMPDEST PUSH1 0x0 DUP3 DUP3 MSTORE PUSH1 0x20 DUP3 ADD SWAP1 POP SWAP3 SWAP2 POP POP JUMP JUMPDEST PUSH1 0x0 PUSH2 0x3201 DUP3 PUSH2 0x2E0E JUMP JUMPDEST PUSH2 0x320B DUP2 DUP6 PUSH2 0x31E5 JUMP JUMPDEST SWAP4 POP PUSH2 0x321B DUP2 DUP6 PUSH1 0x20 DUP7 ADD PUSH2 0x2E2A JUMP JUMPDEST PUSH2 0x3224 DUP2 PUSH2 0x2E54 JUMP JUMPDEST DUP5 ADD SWAP2 POP POP SWAP3 SWAP2 POP POP JUMP JUMPDEST PUSH2 0x3238 DUP2 PUSH2 0x2E9E JUMP JUMPDEST DUP3 MSTORE POP POP JUMP JUMPDEST PUSH1 0x0 DUP2 MLOAD SWAP1 POP SWAP2 SWAP1 POP JUMP JUMPDEST PUSH1 0x0 DUP3 DUP3 MSTORE PUSH1 0x20 DUP3 ADD SWAP1 POP SWAP3 SWAP2 POP POP JUMP JUMPDEST PUSH1 0x0 DUP2 SWAP1 POP PUSH1 0x20 DUP3 ADD SWAP1 POP SWAP2 SWAP1 POP JUMP JUMPDEST PUSH32 0x4E487B7100000000000000000000000000000000000000000000000000000000 PUSH1 0x0 MSTORE PUSH1 0x21 PUSH1 0x4 MSTORE PUSH1 0x24 PUSH1 0x0 REVERT JUMPDEST PUSH1 0x3 DUP2 LT PUSH2 0x32AA JUMPI PUSH2 0x32A9 PUSH2 0x326A JUMP JUMPDEST JUMPDEST POP JUMP JUMPDEST PUSH1 0x0 DUP2 SWAP1 POP PUSH2 0x32BB DUP3 PUSH2 0x3299 JUMP JUMPDEST SWAP2 SWAP1 POP JUMP JUMPDEST PUSH1 0x0 PUSH2 0x32CB DUP3 PUSH2 0x32AD JUMP JUMPDEST SWAP1 POP SWAP2 SWAP1 POP JUMP JUMPDEST PUSH2 0x32DB DUP2 PUSH2 0x32C0 JUMP JUMPDEST DUP3 MSTORE POP POP JUMP JUMPDEST PUSH1 0x0 PUSH1 0x80 DUP4 ADD PUSH1 0x0 DUP4 ADD MLOAD DUP5 DUP3 SUB PUSH1 0x0 DUP7 ADD MSTORE PUSH2 0x32FE DUP3 DUP3 PUSH2 0x31F6 JUMP JUMPDEST SWAP2 POP POP PUSH1 0x20 DUP4 ADD MLOAD PUSH2 0x3313 PUSH1 0x20 DUP7 ADD DUP3 PUSH2 0x31D6 JUMP JUMPDEST POP PUSH1 0x40 DUP4 ADD MLOAD PUSH2 0x3326 PUSH1 0x40 DUP7 ADD DUP3 PUSH2 0x32D2 JUMP JUMPDEST POP PUSH1 0x60 DUP4 ADD MLOAD PUSH2 0x3339 PUSH1 0x60 DUP7 ADD DUP3 PUSH2 0x322F JUMP JUMPDEST POP DUP1 SWAP2 POP POP SWAP3 SWAP2 POP POP JUMP JUMPDEST PUSH1 0x0 PUSH2 0x3350 DUP4 DUP4 PUSH2 0x32E1 JUMP JUMPDEST SWAP1 POP SWAP3 SWAP2 POP POP JUMP JUMPDEST PUSH1 0x0 PUSH1 0x20 DUP3 ADD SWAP1 POP SWAP2 SWAP1 POP JUMP JUMPDEST PUSH1 0x0 PUSH2 0x3370 DUP3 PUSH2 0x323E JUMP JUMPDEST PUSH2 0x337A DUP2 DUP6 PUSH2 0x3249 JUMP JUMPDEST SWAP4 POP DUP4 PUSH1 0x20 DUP3 MUL DUP6 ADD PUSH2 0x338C DUP6 PUSH2 0x325A JUMP JUMPDEST DUP1 PUSH1 0x0 JUMPDEST DUP6 DUP2 LT ISZERO PUSH2 0x33C8 JUMPI DUP5 DUP5 SUB DUP10 MSTORE DUP2 MLOAD PUSH2 0x33A9 DUP6 DUP3 PUSH2 0x3344 JUMP JUMPDEST SWAP5 POP PUSH2 0x33B4 DUP4 PUSH2 0x3358 JUMP JUMPDEST SWAP3 POP PUSH1 0x20 DUP11 ADD SWAP10 POP POP PUSH1 0x1 DUP2 ADD SWAP1 POP PUSH2 0x3390 JUMP JUMPDEST POP DUP3 SWAP8 POP DUP8 SWAP6 POP POP POP POP POP POP SWAP3 SWAP2 POP POP JUMP JUMPDEST PUSH1 0x0 PUSH2 0x120 DUP4 ADD PUSH1 0x0 DUP4 ADD MLOAD PUSH2 0x33F3 PUSH1 0x0 DUP7 ADD DUP3 PUSH2 0x31C7 JUMP JUMPDEST POP PUSH1 0x20 DUP4 ADD MLOAD PUSH2 0x3406 PUSH1 0x20 DUP7 ADD DUP3 PUSH2 0x31D6 JUMP JUMPDEST POP PUSH1 0x40 DUP4 ADD MLOAD PUSH2 0x3419 PUSH1 0x40 DUP7 ADD DUP3 PUSH2 0x31D6 JUMP JUMPDEST POP PUSH1 0x60 DUP4 ADD MLOAD DUP5 DUP3 SUB PUSH1 0x60 DUP7 ADD MSTORE PUSH2 0x3431 DUP3 DUP3 PUSH2 0x31F6 JUMP JUMPDEST SWAP2 POP POP PUSH1 0x80 DUP4 ADD MLOAD DUP5 DUP3 SUB PUSH1 0x80 DUP7 ADD MSTORE PUSH2 0x344B DUP3 DUP3 PUSH2 0x31F6 JUMP JUMPDEST SWAP2 POP POP PUSH1 0xA0 DUP4 ADD MLOAD PUSH2 0x3460 PUSH1 0xA0 DUP7 ADD DUP3 PUSH2 0x322F JUMP JUMPDEST POP PUSH1 0xC0 DUP4 ADD MLOAD PUSH2 0x3473 PUSH1 0xC0 DUP7 ADD DUP3 PUSH2 0x322F JUMP JUMPDEST POP PUSH1 0xE0 DUP4 ADD MLOAD PUSH2 0x3486 PUSH1 0xE0 DUP7 ADD DUP3 PUSH2 0x322F JUMP JUMPDEST POP PUSH2 0x100 DUP4 ADD MLOAD DUP5 DUP3 SUB PUSH2 0x100 DUP7 ADD MSTORE PUSH2 0x34A0 DUP3 DUP3 PUSH2 0x3365 JUMP JUMPDEST SWAP2 POP POP DUP1 SWAP2 POP POP SWAP3 SWAP2 POP POP JUMP JUMPDEST PUSH1 0x0 PUSH2 0x34B9 DUP4 DUP4 PUSH2 0x33DA JUMP JUMPDEST SWAP1 POP SWAP3 SWAP2 POP POP JUMP JUMPDEST PUSH1 0x0 PUSH1 0x20 DUP3 ADD SWAP1 POP SWAP2 SWAP1 POP JUMP JUMPDEST PUSH1 0x0 PUSH2 0x34D9 DUP3 PUSH2 0x319B JUMP JUMPDEST PUSH2 0x34E3 DUP2 DUP6 PUSH2 0x31A6 JUMP JUMPDEST SWAP4 POP DUP4 PUSH1 0x20 DUP3 MUL DUP6 ADD PUSH2 0x34F5 DUP6 PUSH2 0x31B7 JUMP JUMPDEST DUP1 PUSH1 0x0 JUMPDEST DUP6 DUP2 LT ISZERO PUSH2 0x3531 JUMPI DUP5 DUP5 SUB DUP10 MSTORE DUP2 MLOAD PUSH2 0x3512 DUP6 DUP3 PUSH2 0x34AD JUMP JUMPDEST SWAP5 POP PUSH2 0x351D DUP4 PUSH2 0x34C1 JUMP JUMPDEST SWAP3 POP PUSH1 0x20 DUP11 ADD SWAP10 POP POP PUSH1 0x1 DUP2 ADD SWAP1 POP PUSH2 0x34F9 JUMP JUMPDEST POP DUP3 SWAP8 POP DUP8 SWAP6 POP POP POP POP POP POP SWAP3 SWAP2 POP POP JUMP JUMPDEST PUSH1 0x0 PUSH1 0x20 DUP3 ADD SWAP1 POP DUP2 DUP2 SUB PUSH1 0x0 DUP4 ADD MSTORE PUSH2 0x355D DUP2 DUP5 PUSH2 0x34CE JUMP JUMPDEST SWAP1 POP SWAP3 SWAP2 POP POP JUMP JUMPDEST PUSH1 0x0 PUSH1 0x20 DUP3 DUP5 SUB SLT ISZERO PUSH2 0x357B JUMPI PUSH2 0x357A PUSH2 0x2D12 JUMP JUMPDEST JUMPDEST PUSH1 0x0 PUSH2 0x3589 DUP5 DUP3 DUP6 ADD PUSH2 0x2D9B JUMP JUMPDEST SWAP2 POP POP SWAP3 SWAP2 POP POP JUMP JUMPDEST PUSH1 0x0 PUSH2 0x120 DUP4 ADD PUSH1 0x0 DUP4 ADD MLOAD PUSH2 0x35AB PUSH1 0x0 DUP7 ADD DUP3 PUSH2 0x31C7 JUMP JUMPDEST POP PUSH1 0x20 DUP4 ADD MLOAD PUSH2 0x35BE PUSH1 0x20 DUP7 ADD DUP3 PUSH2 0x31D6 JUMP JUMPDEST POP PUSH1 0x40 DUP4 ADD MLOAD PUSH2 0x35D1 PUSH1 0x40 DUP7 ADD DUP3 PUSH2 0x31D6 JUMP JUMPDEST POP PUSH1 0x60 DUP4 ADD MLOAD DUP5 DUP3 SUB PUSH1 0x60 DUP7 ADD MSTORE PUSH2 0x35E9 DUP3 DUP3 PUSH2 0x31F6 JUMP JUMPDEST SWAP2 POP POP PUSH1 0x80 DUP4 ADD MLOAD DUP5 DUP3 SUB PUSH1 0x80 DUP7 ADD MSTORE PUSH2 0x3603 DUP3 DUP3 PUSH2 0x31F6 JUMP JUMPDEST SWAP2 POP POP PUSH1 0xA0 DUP4 ADD MLOAD PUSH2 0x3618 PUSH1 0xA0 DUP7 ADD DUP3 PUSH2 0x322F JUMP JUMPDEST POP PUSH1 0xC0 DUP4 ADD MLOAD PUSH2 0x362B PUSH1 0xC0 DUP7 ADD DUP3 PUSH2 0x322F JUMP JUMPDEST POP PUSH1 0xE0 DUP4 ADD MLOAD PUSH2 0x363E PUSH1 0xE0 DUP7 ADD DUP3 PUSH2 0x322F JUMP JUMPDEST POP PUSH2 0x100 DUP4 ADD MLOAD DUP5 DUP3 SUB PUSH2 0x100 DUP7 ADD MSTORE PUSH2 0x3658 DUP3 DUP3 PUSH2 0x3365 JUMP JUMPDEST SWAP2 POP POP DUP1 SWAP2 POP POP SWAP3 SWAP2 POP POP JUMP JUMPDEST PUSH1 0x0 PUSH1 0x20 DUP3 ADD SWAP1 POP DUP2 DUP2 SUB PUSH1 0x0 DUP4 ADD MSTORE PUSH2 0x367F DUP2 DUP5 PUSH2 0x3592 JUMP JUMPDEST SWAP1 POP SWAP3 SWAP2 POP POP JUMP JUMPDEST PUSH1 0x0 DUP3 DUP3 MSTORE PUSH1 0x20 DUP3 ADD SWAP1 POP SWAP3 SWAP2 POP POP JUMP JUMPDEST PUSH1 0x0 PUSH2 0x36A3 DUP3 PUSH2 0x323E JUMP JUMPDEST PUSH2 0x36AD DUP2 DUP6 PUSH2 0x3687 JUMP JUMPDEST SWAP4 POP DUP4 PUSH1 0x20 DUP3 MUL DUP6 ADD PUSH2 0x36BF DUP6 PUSH2 0x325A JUMP JUMPDEST DUP1 PUSH1 0x0 JUMPDEST DUP6 DUP2 LT ISZERO PUSH2 0x36FB JUMPI DUP5 DUP5 SUB DUP10 MSTORE DUP2 MLOAD PUSH2 0x36DC DUP6 DUP3 PUSH2 0x3344 JUMP JUMPDEST SWAP5 POP PUSH2 0x36E7 DUP4 PUSH2 0x3358 JUMP JUMPDEST SWAP3 POP PUSH1 0x20 DUP11 ADD SWAP10 POP POP PUSH1 0x1 DUP2 ADD SWAP1 POP PUSH2 0x36C3 JUMP JUMPDEST POP DUP3 SWAP8 POP DUP8 SWAP6 POP POP POP POP POP POP SWAP3 SWAP2 POP POP JUMP JUMPDEST PUSH1 0x0 PUSH1 0x20 DUP3 ADD SWAP1 POP DUP2 DUP2 SUB PUSH1 0x0 DUP4 ADD MSTORE PUSH2 0x3727 DUP2 DUP5 PUSH2 0x3698 JUMP JUMPDEST SWAP1 POP SWAP3 SWAP2 POP POP JUMP JUMPDEST PUSH1 0x0 PUSH1 0x20 DUP3 DUP5 SUB SLT ISZERO PUSH2 0x3745 JUMPI PUSH2 0x3744 PUSH2 0x2D12 JUMP JUMPDEST JUMPDEST PUSH1 0x0 PUSH2 0x3753 DUP5 DUP3 DUP6 ADD PUSH2 0x2D65 JUMP JUMPDEST SWAP2 POP POP SWAP3 SWAP2 POP POP JUMP JUMPDEST PUSH1 0x0 DUP1 PUSH1 0x40 DUP4 DUP6 SUB SLT ISZERO PUSH2 0x3773 JUMPI PUSH2 0x3772 PUSH2 0x2D12 JUMP JUMPDEST JUMPDEST PUSH1 0x0 PUSH2 0x3781 DUP6 DUP3 DUP7 ADD PUSH2 0x2D9B JUMP JUMPDEST SWAP3 POP POP PUSH1 0x20 PUSH2 0x3792 DUP6 DUP3 DUP7 ADD PUSH2 0x2D9B JUMP JUMPDEST SWAP2 POP POP SWAP3 POP SWAP3 SWAP1 POP JUMP JUMPDEST PUSH1 0x0 PUSH1 0x20 DUP3 ADD SWAP1 POP PUSH2 0x37B1 PUSH1 0x0 DUP4 ADD DUP5 PUSH2 0x2DF0 JUMP JUMPDEST SWAP3 SWAP2 POP POP JUMP JUMPDEST PUSH1 0x0 DUP1 PUSH1 0x0 PUSH1 0x60 DUP5 DUP7 SUB SLT ISZERO PUSH2 0x37D0 JUMPI PUSH2 0x37CF PUSH2 0x2D12 JUMP JUMPDEST JUMPDEST PUSH1 0x0 PUSH2 0x37DE DUP7 DUP3 DUP8 ADD PUSH2 0x2D9B JUMP JUMPDEST SWAP4 POP POP PUSH1 0x20 DUP5 ADD CALLDATALOAD PUSH8 0xFFFFFFFFFFFFFFFF DUP2 GT ISZERO PUSH2 0x37FF JUMPI PUSH2 0x37FE PUSH2 0x2D17 JUMP JUMPDEST JUMPDEST PUSH2 0x380B DUP7 DUP3 DUP8 ADD PUSH2 0x309F JUMP JUMPDEST SWAP3 POP POP PUSH1 0x40 PUSH2 0x381C DUP7 DUP3 DUP8 ADD PUSH2 0x2D9B JUMP JUMPDEST SWAP2 POP POP SWAP3 POP SWAP3 POP SWAP3 JUMP JUMPDEST PUSH32 0x4E487B7100000000000000000000000000000000000000000000000000000000 PUSH1 0x0 MSTORE PUSH1 0x22 PUSH1 0x4 MSTORE PUSH1 0x24 PUSH1 0x0 REVERT JUMPDEST PUSH1 0x0 PUSH1 0x2 DUP3 DIV SWAP1 POP PUSH1 0x1 DUP3 AND DUP1 PUSH2 0x386D JUMPI PUSH1 0x7F DUP3 AND SWAP2 POP JUMPDEST PUSH1 0x20 DUP3 LT DUP2 SUB PUSH2 0x3880 JUMPI PUSH2 0x387F PUSH2 0x3826 JUMP JUMPDEST JUMPDEST POP SWAP2 SWAP1 POP JUMP JUMPDEST PUSH1 0x0 PUSH1 0x40 DUP3 ADD SWAP1 POP PUSH2 0x389B PUSH1 0x0 DUP4 ADD DUP6 PUSH2 0x2DFF JUMP JUMPDEST PUSH2 0x38A8 PUSH1 0x20 DUP4 ADD DUP5 PUSH2 0x2DFF JUMP JUMPDEST SWAP4 SWAP3 POP POP POP JUMP JUMPDEST PUSH1 0x0 DUP2 SWAP1 POP DUP2 PUSH1 0x0 MSTORE PUSH1 0x20 PUSH1 0x0 KECCAK256 SWAP1 POP SWAP2 SWAP1 POP JUMP JUMPDEST PUSH1 0x0 PUSH1 0x20 PUSH1 0x1F DUP4 ADD DIV SWAP1 POP SWAP2 SWAP1 POP JUMP JUMPDEST PUSH1 0x0 DUP3 DUP3 SHL SWAP1 POP SWAP3 SWAP2 POP POP JUMP JUMPDEST PUSH1 0x0 PUSH1 0x8 DUP4 MUL PUSH2 0x3911 PUSH32 0xFFFFFFFFFFFFFFFFFFFFFFFFFFFFFFFFFFFFFFFFFFFFFFFFFFFFFFFFFFFFFFFF DUP3 PUSH2 0x38D4 JUMP JUMPDEST PUSH2 0x391B DUP7 DUP4 PUSH2 0x38D4 JUMP JUMPDEST SWAP6 POP DUP1 NOT DUP5 AND SWAP4 POP DUP1 DUP7 AND DUP5 OR SWAP3 POP POP POP SWAP4 SWAP3 POP POP POP JUMP JUMPDEST PUSH1 0x0 DUP2 SWAP1 POP SWAP2 SWAP1 POP JUMP JUMPDEST PUSH1 0x0 PUSH2 0x3958 PUSH2 0x3953 PUSH2 0x394E DUP5 PUSH2 0x2D7A JUMP JUMPDEST PUSH2 0x3933 JUMP JUMPDEST PUSH2 0x2D7A JUMP JUMPDEST SWAP1 POP SWAP2 SWAP1 POP JUMP JUMPDEST PUSH1 0x0 DUP2 SWAP1 POP SWAP2 SWAP1 POP JUMP JUMPDEST PUSH2 0x3972 DUP4 PUSH2 0x393D JUMP JUMPDEST PUSH2 0x3986 PUSH2 0x397E DUP3 PUSH2 0x395F JUMP JUMPDEST DUP5 DUP5 SLOAD PUSH2 0x38E1 JUMP JUMPDEST DUP3 SSTORE POP POP POP POP JUMP JUMPDEST PUSH1 0x0 SWAP1 JUMP JUMPDEST PUSH2 0x399B PUSH2 0x398E JUMP JUMPDEST PUSH2 0x39A6 DUP2 DUP5 DUP5 PUSH2 0x3969 JUMP JUMPDEST POP POP POP JUMP JUMPDEST JUMPDEST DUP2 DUP2 LT ISZERO PUSH2 0x39CA JUMPI PUSH2 0x39BF PUSH1 0x0 DUP3 PUSH2 0x3993 JUMP JUMPDEST PUSH1 0x1 DUP2 ADD SWAP1 POP PUSH2 0x39AC JUMP JUMPDEST POP POP JUMP JUMPDEST PUSH1 0x1F DUP3 GT ISZERO PUSH2 0x3A0F JUMPI PUSH2 0x39E0 DUP2 PUSH2 0x38AF JUMP JUMPDEST PUSH2 0x39E9 DUP5 PUSH2 0x38C4 JUMP JUMPDEST DUP2 ADD PUSH1 0x20 DUP6 LT ISZERO PUSH2 0x39F8 JUMPI DUP2 SWAP1 POP JUMPDEST PUSH2 0x3A0C PUSH2 0x3A04 DUP6 PUSH2 0x38C4 JUMP JUMPDEST DUP4 ADD DUP3 PUSH2 0x39AB JUMP JUMPDEST POP POP JUMPDEST POP POP POP JUMP JUMPDEST PUSH1 0x0 DUP3 DUP3 SHR SWAP1 POP SWAP3 SWAP2 POP POP JUMP JUMPDEST PUSH1 0x0 PUSH2 0x3A32 PUSH1 0x0 NOT DUP5 PUSH1 0x8 MUL PUSH2 0x3A14 JUMP JUMPDEST NOT DUP1 DUP4 AND SWAP2 POP POP SWAP3 SWAP2 POP POP JUMP JUMPDEST PUSH1 0x0 PUSH2 0x3A4B DUP4 DUP4 PUSH2 0x3A21 JUMP JUMPDEST SWAP2 POP DUP3 PUSH1 0x2 MUL DUP3 OR SWAP1 POP SWAP3 SWAP2 POP POP JUMP JUMPDEST PUSH2 0x3A64 DUP3 PUSH2 0x2E0E JUMP JUMPDEST PUSH8 0xFFFFFFFFFFFFFFFF DUP2 GT ISZERO PUSH2 0x3A7D JUMPI PUSH2 0x3A7C PUSH2 0x2FA2 JUMP JUMPDEST JUMPDEST PUSH2 0x3A87 DUP3 SLOAD PUSH2 0x3855 JUMP JUMPDEST PUSH2 0x3A92 DUP3 DUP3 DUP6 PUSH2 0x39CE JUMP JUMPDEST PUSH1 0x0 PUSH1 0x20 SWAP1 POP PUSH1 0x1F DUP4 GT PUSH1 0x1 DUP2 EQ PUSH2 0x3AC5 JUMPI PUSH1 0x0 DUP5 ISZERO PUSH2 0x3AB3 JUMPI DUP3 DUP8 ADD MLOAD SWAP1 POP JUMPDEST PUSH2 0x3ABD DUP6 DUP3 PUSH2 0x3A3F JUMP JUMPDEST DUP7 SSTORE POP PUSH2 0x3B25 JUMP JUMPDEST PUSH1 0x1F NOT DUP5 AND PUSH2 0x3AD3 DUP7 PUSH2 0x38AF JUMP JUMPDEST PUSH1 0x0 JUMPDEST DUP3 DUP2 LT ISZERO PUSH2 0x3AFB JUMPI DUP5 DUP10 ADD MLOAD DUP3 SSTORE PUSH1 0x1 DUP3 ADD SWAP2 POP PUSH1 0x20 DUP6 ADD SWAP5 POP PUSH1 0x20 DUP2 ADD SWAP1 POP PUSH2 0x3AD6 JUMP JUMPDEST DUP7 DUP4 LT ISZERO PUSH2 0x3B18 JUMPI DUP5 DUP10 ADD MLOAD PUSH2 0x3B14 PUSH1 0x1F DUP10 AND DUP3 PUSH2 0x3A21 JUMP JUMPDEST DUP4 SSTORE POP JUMPDEST PUSH1 0x1 PUSH1 0x2 DUP9 MUL ADD DUP9 SSTORE POP POP POP JUMPDEST POP POP POP POP POP POP JUMP JUMPDEST PUSH1 0x0 DUP2 SLOAD SWAP1 POP PUSH2 0x3B3C DUP2 PUSH2 0x3855 JUMP JUMPDEST SWAP1 POP SWAP2 SWAP1 POP JUMP JUMPDEST DUP2 DUP2 SUB PUSH2 0x3B51 JUMPI POP POP PUSH2 0x3C29 JUMP JUMPDEST PUSH2 0x3B5A DUP3 PUSH2 0x3B2D JUMP JUMPDEST PUSH8 0xFFFFFFFFFFFFFFFF DUP2 GT ISZERO PUSH2 0x3B73 JUMPI PUSH2 0x3B72 PUSH2 0x2FA2 JUMP JUMPDEST JUMPDEST PUSH2 0x3B7D DUP3 SLOAD PUSH2 0x3855 JUMP JUMPDEST PUSH2 0x3B88 DUP3 DUP3 DUP6 PUSH2 0x39CE JUMP JUMPDEST PUSH1 0x0 PUSH1 0x1F DUP4 GT PUSH1 0x1 DUP2 EQ PUSH2 0x3BB7 JUMPI PUSH1 0x0 DUP5 ISZERO PUSH2 0x3BA5 JUMPI DUP3 DUP8 ADD SLOAD SWAP1 POP JUMPDEST PUSH2 0x3BAF DUP6 DUP3 PUSH2 0x3A3F JUMP JUMPDEST DUP7 SSTORE POP PUSH2 0x3C22 JUMP JUMPDEST PUSH1 0x1F NOT DUP5 AND PUSH2 0x3BC5 DUP8 PUSH2 0x38AF JUMP JUMPDEST SWAP7 POP PUSH2 0x3BD0 DUP7 PUSH2 0x38AF JUMP JUMPDEST PUSH1 0x0 JUMPDEST DUP3 DUP2 LT ISZERO PUSH2 0x3BF8 JUMPI DUP5 DUP10 ADD SLOAD DUP3 SSTORE PUSH1 0x1 DUP3 ADD SWAP2 POP PUSH1 0x1 DUP6 ADD SWAP5 POP PUSH1 0x20 DUP2 ADD SWAP1 POP PUSH2 0x3BD3 JUMP JUMPDEST DUP7 DUP4 LT ISZERO PUSH2 0x3C15 JUMPI DUP5 DUP10 ADD SLOAD PUSH2 0x3C11 PUSH1 0x1F DUP10 AND DUP3 PUSH2 0x3A21 JUMP JUMPDEST DUP4 SSTORE POP JUMPDEST PUSH1 0x1 PUSH1 0x2 DUP9 MUL ADD DUP9 SSTORE POP POP POP JUMPDEST POP POP POP POP POP POP JUMPDEST JUMP JUMPDEST PUSH32 0x4E487B7100000000000000000000000000000000000000000000000000000000 PUSH1 0x0 MSTORE PUSH1 0x11 PUSH1 0x4 MSTORE PUSH1 0x24 PUSH1 0x0 REVERT JUMPDEST PUSH1 0x0 PUSH2 0x3C65 DUP3 PUSH2 0x2D7A JUMP JUMPDEST SWAP2 POP PUSH32 0xFFFFFFFFFFFFFFFFFFFFFFFFFFFFFFFFFFFFFFFFFFFFFFFFFFFFFFFFFFFFFFFF DUP3 SUB PUSH2 0x3C97 JUMPI PUSH2 0x3C96 PUSH2 0x3C2B JUMP JUMPDEST JUMPDEST PUSH1 0x1 DUP3 ADD SWAP1 POP SWAP2 SWAP1 POP JUMP JUMPDEST PUSH32 0x496E76616C6964206D696C6573746F6E6520696E646578000000000000000000 PUSH1 0x0 DUP3 ADD MSTORE POP JUMP JUMPDEST PUSH1 0x0 PUSH2 0x3CD8 PUSH1 0x17 DUP4 PUSH2 0x2E19 JUMP JUMPDEST SWAP2 POP PUSH2 0x3CE3 DUP3 PUSH2 0x3CA2 JUMP JUMPDEST PUSH1 0x20 DUP3 ADD SWAP1 POP SWAP2 SWAP1 POP JUMP JUMPDEST PUSH1 0x0 PUSH1 0x20 DUP3 ADD SWAP1 POP DUP2 DUP2 SUB PUSH1 0x0 DUP4 ADD MSTORE PUSH2 0x3D07 DUP2 PUSH2 0x3CCB JUMP JUMPDEST SWAP1 POP SWAP2 SWAP1 POP JUMP JUMPDEST PUSH32 0x4E487B7100000000000000000000000000000000000000000000000000000000 PUSH1 0x0 MSTORE PUSH1 0x32 PUSH1 0x4 MSTORE PUSH1 0x24 PUSH1 0x0 REVERT JUMPDEST PUSH1 0x0 PUSH1 0x40 DUP3 ADD SWAP1 POP PUSH2 0x3D52 PUSH1 0x0 DUP4 ADD DUP6 PUSH2 0x2DF0 JUMP JUMPDEST PUSH2 0x3D5F PUSH1 0x20 DUP4 ADD DUP5 PUSH2 0x2DFF JUMP JUMPDEST SWAP4 SWAP3 POP POP POP JUMP JUMPDEST PUSH2 0x3D6F DUP2 PUSH2 0x2E9E JUMP JUMPDEST DUP2 EQ PUSH2 0x3D7A JUMPI PUSH1 0x0 DUP1 REVERT JUMPDEST POP JUMP JUMPDEST PUSH1 0x0 DUP2 MLOAD SWAP1 POP PUSH2 0x3D8C DUP2 PUSH2 0x3D66 JUMP JUMPDEST SWAP3 SWAP2 POP POP JUMP JUMPDEST PUSH1 0x0 PUSH1 0x20 DUP3 DUP5 SUB SLT ISZERO PUSH2 0x3DA8 JUMPI PUSH2 0x3DA7 PUSH2 0x2D12 JUMP JUMPDEST JUMPDEST PUSH1 0x0 PUSH2 0x3DB6 DUP5 DUP3 DUP6 ADD PUSH2 0x3D7D JUMP JUMPDEST SWAP2 POP POP SWAP3 SWAP2 POP POP JUMP JUMPDEST PUSH1 0x0 PUSH1 0x40 DUP3 ADD SWAP1 POP DUP2 DUP2 SUB PUSH1 0x0 DUP4 ADD MSTORE PUSH2 0x3DD9 DUP2 DUP6 PUSH2 0x2E65 JUMP JUMPDEST SWAP1 POP PUSH2 0x3DE8 PUSH1 0x20 DUP4 ADD DUP5 PUSH2 0x2DFF JUMP JUMPDEST SWAP4 SWAP3 POP POP POP JUMP JUMPDEST PUSH1 0x0 DUP2 MLOAD SWAP1 POP PUSH2 0x3DFE DUP2 PUSH2 0x2D84 JUMP JUMPDEST SWAP3 SWAP2 POP POP JUMP JUMPDEST PUSH1 0x0 PUSH1 0x20 DUP3 DUP5 SUB SLT ISZERO PUSH2 0x3E1A JUMPI PUSH2 0x3E19 PUSH2 0x2D12 JUMP JUMPDEST JUMPDEST PUSH1 0x0 PUSH2 0x3E28 DUP5 DUP3 DUP6 ADD PUSH2 0x3DEF JUMP JUMPDEST SWAP2 POP POP SWAP3 SWAP2 POP POP JUMP JUMPDEST PUSH32 0x496E73756666696369656E742062616C616E6365000000000000000000000000 PUSH1 0x0 DUP3 ADD MSTORE POP JUMP JUMPDEST PUSH1 0x0 PUSH2 0x3E67 PUSH1 0x14 DUP4 PUSH2 0x2E19 JUMP JUMPDEST SWAP2 POP PUSH2 0x3E72 DUP3 PUSH2 0x3E31 JUMP JUMPDEST PUSH1 0x20 DUP3 ADD SWAP1 POP SWAP2 SWAP1 POP JUMP JUMPDEST PUSH1 0x0 PUSH1 0x20 DUP3 ADD SWAP1 POP DUP2 DUP2 SUB PUSH1 0x0 DUP4 ADD MSTORE PUSH2 0x3E96 DUP2 PUSH2 0x3E5A JUMP JUMPDEST SWAP1 POP SWAP2 SWAP1 POP JUMP JUMPDEST PUSH1 0x0 PUSH1 0x60 DUP3 ADD SWAP1 POP PUSH2 0x3EB2 PUSH1 0x0 DUP4 ADD DUP7 PUSH2 0x2DF0 JUMP JUMPDEST PUSH2 0x3EBF PUSH1 0x20 DUP4 ADD DUP6 PUSH2 0x2DF0 JUMP JUMPDEST PUSH2 0x3ECC PUSH1 0x40 DUP4 ADD DUP5 PUSH2 0x2DFF JUMP JUMPDEST SWAP5 SWAP4 POP POP POP POP JUMP JUMPDEST PUSH1 0x0 PUSH2 0x3EDF DUP3 PUSH2 0x2D7A JUMP JUMPDEST SWAP2 POP PUSH2 0x3EEA DUP4 PUSH2 0x2D7A JUMP JUMPDEST SWAP3 POP DUP3 DUP3 MUL PUSH2 0x3EF8 DUP2 PUSH2 0x2D7A JUMP JUMPDEST SWAP2 POP DUP3 DUP3 DIV DUP5 EQ DUP4 ISZERO OR PUSH2 0x3F0F JUMPI PUSH2 0x3F0E PUSH2 0x3C2B JUMP JUMPDEST JUMPDEST POP SWAP3 SWAP2 POP POP JUMP JUMPDEST PUSH32 0x4E487B7100000000000000000000000000000000000000000000000000000000 PUSH1 0x0 MSTORE PUSH1 0x12 PUSH1 0x4 MSTORE PUSH1 0x24 PUSH1 0x0 REVERT JUMPDEST PUSH1 0x0 PUSH2 0x3F50 DUP3 PUSH2 0x2D7A JUMP JUMPDEST SWAP2 POP PUSH2 0x3F5B DUP4 PUSH2 0x2D7A JUMP JUMPDEST SWAP3 POP DUP3 PUSH2 0x3F6B JUMPI PUSH2 0x3F6A PUSH2 0x3F16 JUMP JUMPDEST JUMPDEST DUP3 DUP3 DIV SWAP1 POP SWAP3 SWAP2 POP POP JUMP JUMPDEST PUSH1 0x0 PUSH2 0x3F81 DUP3 PUSH2 0x2D7A JUMP JUMPDEST SWAP2 POP PUSH2 0x3F8C DUP4 PUSH2 0x2D7A JUMP JUMPDEST SWAP3 POP DUP3 DUP3 SUB SWAP1 POP DUP2 DUP2 GT ISZERO PUSH2 0x3FA4 JUMPI PUSH2 0x3FA3 PUSH2 0x3C2B JUMP JUMPDEST JUMPDEST SWAP3 SWAP2 POP POP JUMP JUMPDEST PUSH1 0x0 PUSH10 0xFFFFFFFFFFFFFFFFFFFF DUP3 AND SWAP1 POP SWAP2 SWAP1 POP JUMP JUMPDEST PUSH2 0x3FC9 DUP2 PUSH2 0x3FAA JUMP JUMPDEST DUP2 EQ PUSH2 0x3FD4 JUMPI PUSH1 0x0 DUP1 REVERT JUMPDEST POP JUMP JUMPDEST PUSH1 0x0 DUP2 MLOAD SWAP1 POP PUSH2 0x3FE6 DUP2 PUSH2 0x3FC0 JUMP JUMPDEST SWAP3 SWAP2 POP POP JUMP JUMPDEST PUSH1 0x0 DUP2 SWAP1 POP SWAP2 SWAP1 POP JUMP JUMPDEST PUSH2 0x3FFF DUP2 PUSH2 0x3FEC JUMP JUMPDEST DUP2 EQ PUSH2 0x400A JUMPI PUSH1 0x0 DUP1 REVERT JUMPDEST POP JUMP JUMPDEST PUSH1 0x0 DUP2 MLOAD SWAP1 POP PUSH2 0x401C DUP2 PUSH2 0x3FF6 JUMP JUMPDEST SWAP3 SWAP2 POP POP JUMP JUMPDEST PUSH1 0x0 DUP1 PUSH1 0x0 DUP1 PUSH1 0x0 PUSH1 0xA0 DUP7 DUP9 SUB SLT ISZERO PUSH2 0x403E JUMPI PUSH2 0x403D PUSH2 0x2D12 JUMP JUMPDEST JUMPDEST PUSH1 0x0 PUSH2 0x404C DUP9 DUP3 DUP10 ADD PUSH2 0x3FD7 JUMP JUMPDEST SWAP6 POP POP PUSH1 0x20 PUSH2 0x405D DUP9 DUP3 DUP10 ADD PUSH2 0x400D JUMP JUMPDEST SWAP5 POP POP PUSH1 0x40 PUSH2 0x406E DUP9 DUP3 DUP10 ADD PUSH2 0x3DEF JUMP JUMPDEST SWAP4 POP POP PUSH1 0x60 PUSH2 0x407F DUP9 DUP3 DUP10 ADD PUSH2 0x3DEF JUMP JUMPDEST SWAP3 POP POP PUSH1 0x80 PUSH2 0x4090 DUP9 DUP3 DUP10 ADD PUSH2 0x3FD7 JUMP JUMPDEST SWAP2 POP POP SWAP3 SWAP6 POP SWAP3 SWAP6 SWAP1 SWAP4 POP JUMP JUMPDEST PUSH1 0x0 PUSH2 0x40A8 DUP3 PUSH2 0x3FEC JUMP JUMPDEST SWAP2 POP PUSH2 0x40B3 DUP4 PUSH2 0x3FEC JUMP JUMPDEST SWAP3 POP DUP3 DUP3 MUL PUSH2 0x40C1 DUP2 PUSH2 0x3FEC JUMP JUMPDEST SWAP2 POP PUSH32 0x8000000000000000000000000000000000000000000000000000000000000000 DUP5 EQ PUSH1 0x0 DUP5 SLT AND ISZERO PUSH2 0x40F9 JUMPI PUSH2 0x40F8 PUSH2 0x3C2B JUMP JUMPDEST JUMPDEST DUP3 DUP3 SDIV DUP5 EQ DUP4 ISZERO OR PUSH2 0x410E JUMPI PUSH2 0x410D PUSH2 0x3C2B JUMP JUMPDEST JUMPDEST POP SWAP3 SWAP2 POP POP JUMP INVALID LOG2 PUSH5 0x6970667358 0x22 SLT KECCAK256 0xC0 TSTORE PUSH2 0x5D2D PUSH4 0xFEE4DA60 0xD9 PUSH24 0xBCB01D20957130DBF2D6605EC955C30608A9E38864736F6C PUSH4 0x43000818 STOP CALLER LOG2 PUSH5 0x6970667358 0x22 SLT KECCAK256 DUP8 0xD3 BLOCKHASH BLOBHASH SELFDESTRUCT 0xDA PUSH26 0xA02F6FE8403DB3A63AD9FEEC9FC92EC3EC7FD31BE3F9EB79E664 PUSH20 0x6F6C634300081800330000000000000000000000 "},"methodIdentifiers":{"createInvoice(address)":"8a374ad6","getANInvoiceClone(uint256)":"b7f78520","getInvoiceClones()":"86e229b1","invoiceClones(uint256)":"2395517e"}}}}}