{"contracts/PayNvoice.sol":{"PayNVoice":{"abi":[{"inputs":[{"internalType":"address","name":"_erc20TokenAddress","type":"address"}],"stateMutability":"nonpayable","type":"constructor"},{"inputs":[],"name":"ADDRESS_ZERO_NOT_PERMITED","type":"error"},{"inputs":[],"name":"CANT_INITIATE_RELEASE","type":"error"},{"inputs":[],"name":"INVALID_ADDRESS","type":"error"},{"inputs":[],"name":"INVOICE_DOES_NOT_EXIST","type":"error"},{"inputs":[],"name":"INVOICE_NOT_FOR_YOU","type":"error"},{"inputs":[],"name":"INVOICE_NOT_GENERATED_YET","type":"error"},{"inputs":[],"name":"NOT_AUTHORIZE_TO_CALL_THIS_FUNCTION","type":"error"},{"anonymous":false,"inputs":[{"indexed":true,"internalType":"address","name":"forWho","type":"address"},{"indexed":true,"internalType":"uint256","name":"invoiceId","type":"uint256"}],"name":"InvoiceAcceptedSuccessfully","type":"event"},{"anonymous":false,"inputs":[{"indexed":true,"internalType":"address","name":"whocreates","type":"address"},{"indexed":true,"internalType":"address","name":"createFor","type":"address"},{"indexed":false,"internalType":"uint256","name":"amount","type":"uint256"},{"indexed":true,"internalType":"uint256","name":"id","type":"uint256"}],"name":"InvoiceCreatedSuccessfully","type":"event"},{"anonymous":false,"inputs":[{"indexed":true,"internalType":"uint256","name":"invoiceId","type":"uint256"},{"indexed":true,"internalType":"string","name":"description","type":"string"},{"indexed":true,"internalType":"uint256","name":"amount","type":"uint256"}],"name":"MilestoneAdded","type":"event"},{"anonymous":false,"inputs":[{"indexed":true,"internalType":"uint256","name":"invoiceId","type":"uint256"},{"indexed":true,"internalType":"uint256","name":"milestoneIndex","type":"uint256"}],"name":"MilestoneCompleted","type":"event"},{"inputs":[{"internalType":"uint256","name":"_invoiceId","type":"uint256"}],"name":"acceptInvoice","outputs":[],"stateMutability":"nonpayable","type":"function"},{"inputs":[{"internalType":"uint256","name":"_invoiceId","type":"uint256"},{"internalType":"string","name":"_description","type":"string"},{"internalType":"uint256","name":"_amount","type":"uint256"},{"internalType":"uint256","name":"_deadline","type":"uint256"}],"name":"addMilestone","outputs":[],"stateMutability":"nonpayable","type":"function"},{"inputs":[{"internalType":"uint256","name":"invoiceId","type":"uint256"}],"name":"calculateLateFee","outputs":[{"internalType":"uint256","name":"","type":"uint256"}],"stateMutability":"view","type":"function"},{"inputs":[{"internalType":"uint256","name":"invoiceId","type":"uint256"},{"internalType":"uint256","name":"milestoneIndex","type":"uint256"}],"name":"calculateLateFeeForSupplier","outputs":[{"internalType":"uint256","name":"","type":"uint256"}],"stateMutability":"view","type":"function"},{"inputs":[{"internalType":"uint256","name":"invoiceId","type":"uint256"}],"name":"confirmPaymentRelease","outputs":[],"stateMutability":"nonpayable","type":"function"},{"inputs":[{"internalType":"address","name":"clientAddress","type":"address"},{"internalType":"uint256","name":"amount","type":"uint256"},{"internalType":"uint256","name":"deadline","type":"uint256"},{"internalType":"string","name":"termsAndConditions","type":"string"},{"internalType":"string","name":"paymentTerm","type":"string"},{"internalType":"string","name":"title","type":"string"}],"name":"createInvoice","outputs":[{"internalType":"uint256","name":"invoiceId_","type":"uint256"}],"stateMutability":"nonpayable","type":"function"},{"inputs":[{"internalType":"uint256","name":"invoiceId","type":"uint256"}],"name":"depositToEscrow","outputs":[],"stateMutability":"payable","type":"function"},{"inputs":[],"name":"erc20TokenAddress","outputs":[{"internalType":"address","name":"","type":"address"}],"stateMutability":"view","type":"function"},{"inputs":[],"name":"generateAllInvoice","outputs":[{"components":[{"internalType":"address","name":"clientAddress","type":"address"},{"internalType":"uint256","name":"amount","type":"uint256"},{"internalType":"uint256","name":"deadline","type":"uint256"},{"internalType":"string","name":"title","type":"string"},{"internalType":"string","name":"termsAndConditions","type":"string"},{"internalType":"string","name":"paymentterm","type":"string"},{"internalType":"bool","name":"areConditionsMet","type":"bool"},{"internalType":"bool","name":"isPaid","type":"bool"},{"internalType":"bool","name":"hasAccepted","type":"bool"},{"components":[{"internalType":"string","name":"description","type":"string"},{"internalType":"uint256","name":"amount","type":"uint256"},{"internalType":"enum PayNVoice.Status","name":"status","type":"uint8"},{"internalType":"bool","name":"isPaid","type":"bool"},{"internalType":"uint256","name":"deadline","type":"uint256"}],"internalType":"struct PayNVoice.Milestone[]","name":"milestones","type":"tuple[]"},{"internalType":"uint256","name":"lateFeeRate","type":"uint256"}],"internalType":"struct PayNVoice.Invoice[]","name":"","type":"tuple[]"}],"stateMutability":"view","type":"function"},{"inputs":[{"internalType":"uint256","name":"invoiceId","type":"uint256"}],"name":"getInvoice","outputs":[{"components":[{"internalType":"address","name":"clientAddress","type":"address"},{"internalType":"uint256","name":"amount","type":"uint256"},{"internalType":"uint256","name":"deadline","type":"uint256"},{"internalType":"string","name":"title","type":"string"},{"internalType":"string","name":"termsAndConditions","type":"string"},{"internalType":"string","name":"paymentterm","type":"string"},{"internalType":"bool","name":"areConditionsMet","type":"bool"},{"internalType":"bool","name":"isPaid","type":"bool"},{"internalType":"bool","name":"hasAccepted","type":"bool"},{"components":[{"internalType":"string","name":"description","type":"string"},{"internalType":"uint256","name":"amount","type":"uint256"},{"internalType":"enum PayNVoice.Status","name":"status","type":"uint8"},{"internalType":"bool","name":"isPaid","type":"bool"},{"internalType":"uint256","name":"deadline","type":"uint256"}],"internalType":"struct PayNVoice.Milestone[]","name":"milestones","type":"tuple[]"},{"internalType":"uint256","name":"lateFeeRate","type":"uint256"}],"internalType":"struct PayNVoice.Invoice","name":"","type":"tuple"}],"stateMutability":"view","type":"function"},{"inputs":[],"name":"getInvoicesForClient","outputs":[{"components":[{"internalType":"address","name":"clientAddress","type":"address"},{"internalType":"uint256","name":"amount","type":"uint256"},{"internalType":"uint256","name":"deadline","type":"uint256"},{"internalType":"string","name":"title","type":"string"},{"internalType":"string","name":"termsAndConditions","type":"string"},{"internalType":"string","name":"paymentterm","type":"string"},{"internalType":"bool","name":"areConditionsMet","type":"bool"},{"internalType":"bool","name":"isPaid","type":"bool"},{"internalType":"bool","name":"hasAccepted","type":"bool"},{"components":[{"internalType":"string","name":"description","type":"string"},{"internalType":"uint256","name":"amount","type":"uint256"},{"internalType":"enum PayNVoice.Status","name":"status","type":"uint8"},{"internalType":"bool","name":"isPaid","type":"bool"},{"internalType":"uint256","name":"deadline","type":"uint256"}],"internalType":"struct PayNVoice.Milestone[]","name":"milestones","type":"tuple[]"},{"internalType":"uint256","name":"lateFeeRate","type":"uint256"}],"internalType":"struct PayNVoice.Invoice[]","name":"","type":"tuple[]"}],"stateMutability":"view","type":"function"},{"inputs":[{"internalType":"uint256","name":"invoiceId","type":"uint256"}],"name":"getMilestones","outputs":[{"components":[{"internalType":"string","name":"description","type":"string"},{"internalType":"uint256","name":"amount","type":"uint256"},{"internalType":"enum PayNVoice.Status","name":"status","type":"uint8"},{"internalType":"bool","name":"isPaid","type":"bool"},{"internalType":"uint256","name":"deadline","type":"uint256"}],"internalType":"struct PayNVoice.Milestone[]","name":"","type":"tuple[]"}],"stateMutability":"view","type":"function"},{"inputs":[{"internalType":"address","name":"","type":"address"}],"name":"invoiceCount","outputs":[{"internalType":"uint256","name":"","type":"uint256"}],"stateMutability":"view","type":"function"},{"inputs":[],"name":"invoiceCreator","outputs":[{"internalType":"address","name":"","type":"address"}],"stateMutability":"view","type":"function"},{"inputs":[{"internalType":"address","name":"","type":"address"},{"internalType":"uint256","name":"","type":"uint256"}],"name":"invoices","outputs":[{"internalType":"address","name":"clientAddress","type":"address"},{"internalType":"uint256","name":"amount","type":"uint256"},{"internalType":"uint256","name":"deadline","type":"uint256"},{"internalType":"string","name":"title","type":"string"},{"internalType":"string","name":"termsAndConditions","type":"string"},{"internalType":"string","name":"paymentterm","type":"string"},{"internalType":"bool","name":"areConditionsMet","type":"bool"},{"internalType":"bool","name":"isPaid","type":"bool"},{"internalType":"bool","name":"hasAccepted","type":"bool"},{"internalType":"uint256","name":"lateFeeRate","type":"uint256"}],"stateMutability":"view","type":"function"},{"inputs":[{"internalType":"uint256","name":"_invoiceId","type":"uint256"},{"internalType":"uint256","name":"_milestoneIndex","type":"uint256"}],"name":"markMilestoneCompleted","outputs":[],"stateMutability":"nonpayable","type":"function"}],"evm":{"bytecode":{"linkReferences":{},"object":"60806040523480156200001157600080fd5b5060405162004b7a38038062004b7a8339818101604052810190620000379190620001b7565b600073ffffffffffffffffffffffffffffffffffffffff163373ffffffffffffffffffffffffffffffffffffffff16036200009e576040517f7a795c5600000000000000000000000000000000000000000000000000000000815260040160405180910390fd5b600073ffffffffffffffffffffffffffffffffffffffff168173ffffffffffffffffffffffffffffffffffffffff160362000105576040517f7a795c5600000000000000000000000000000000000000000000000000000000815260040160405180910390fd5b80600160006101000a81548173ffffffffffffffffffffffffffffffffffffffff021916908373ffffffffffffffffffffffffffffffffffffffff16021790555050620001e9565b600080fd5b600073ffffffffffffffffffffffffffffffffffffffff82169050919050565b60006200017f8262000152565b9050919050565b620001918162000172565b81146200019d57600080fd5b50565b600081519050620001b18162000186565b92915050565b600060208284031215620001d057620001cf6200014d565b5b6000620001e084828501620001a0565b91505092915050565b61498180620001f96000396000f3fe6080604052600436106100f35760003560e01c80634b7535d91161008a57806393d17e251161005957806393d17e251461037f578063daa41e70146103a8578063f3c3d215146103c4578063f835cd3c146103ed576100f3565b80634b7535d9146102c55780635cae48f51461030257806368a93d2d1461032b5780638beed0f814610356576100f3565b80633141da53116100c65780633141da53146101f55780633301c652146102205780633a23cc0a1461024b57806342c549c014610288576100f3565b80630dad62fa146100f85780630e502e941461013e5780631c93a0971461017b57806329772446146101b8575b600080fd5b34801561010457600080fd5b5061011f600480360381019061011a9190613559565b610418565b6040516101359a99989796959493929190613662565b60405180910390f35b34801561014a57600080fd5b5061016560048036038101906101609190613713565b610658565b6040516101729190613740565b60405180910390f35b34801561018757600080fd5b506101a2600480360381019061019d9190613890565b610720565b6040516101af9190613740565b60405180910390f35b3480156101c457600080fd5b506101df60048036038101906101da9190613971565b610c80565b6040516101ec9190613740565b60405180910390f35b34801561020157600080fd5b5061020a610dbc565b6040516102179190613d9d565b60405180910390f35b34801561022c57600080fd5b50610235610f30565b6040516102429190613d9d565b60405180910390f35b34801561025757600080fd5b50610272600480360381019061026d9190613713565b611613565b60405161027f9190613ec3565b60405180910390f35b34801561029457600080fd5b506102af60048036038101906102aa9190613713565b611adb565b6040516102bc9190613f6b565b60405180910390f35b3480156102d157600080fd5b506102ec60048036038101906102e79190613f8d565b611c89565b6040516102f99190613740565b60405180910390f35b34801561030e57600080fd5b5061032960048036038101906103249190613971565b611ca1565b005b34801561033757600080fd5b50610340611dc7565b60405161034d9190613fba565b60405180910390f35b34801561036257600080fd5b5061037d60048036038101906103789190613713565b611deb565b005b34801561038b57600080fd5b506103a660048036038101906103a19190613fd5565b612631565b005b6103c260048036038101906103bd9190613713565b6127b6565b005b3480156103d057600080fd5b506103eb60048036038101906103e69190613713565b612b7b565b005b3480156103f957600080fd5b50610402612d44565b60405161040f9190613fba565b60405180910390f35b6002602052816000526040600020602052806000526040600020600091509150508060000160009054906101000a900473ffffffffffffffffffffffffffffffffffffffff169080600101549080600201549080600301805461047a90614087565b80601f01602080910402602001604051908101604052809291908181526020018280546104a690614087565b80156104f35780601f106104c8576101008083540402835291602001916104f3565b820191906000526020600020905b8154815290600101906020018083116104d657829003601f168201915b50505050509080600401805461050890614087565b80601f016020809104026020016040519081016040528092919081815260200182805461053490614087565b80156105815780601f1061055657610100808354040283529160200191610581565b820191906000526020600020905b81548152906001019060200180831161056457829003601f168201915b50505050509080600501805461059690614087565b80601f01602080910402602001604051908101604052809291908181526020018280546105c290614087565b801561060f5780601f106105e45761010080835404028352916020019161060f565b820191906000526020600020905b8154815290600101906020018083116105f257829003601f168201915b5050505050908060060160009054906101000a900460ff16908060060160019054906101000a900460ff16908060060160029054906101000a900460ff1690806008015490508a565b600080600260003373ffffffffffffffffffffffffffffffffffffffff1673ffffffffffffffffffffffffffffffffffffffff168152602001908152602001600020600084815260200190815260200160002090508060020154421115610715576000620151808260020154426106cf91906140e7565b6106d9919061414a565b90506000606482846008015485600101546106f4919061417b565b6106fe919061417b565b610708919061414a565b905080935050505061071b565b60009150505b919050565b60008073ffffffffffffffffffffffffffffffffffffffff163373ffffffffffffffffffffffffffffffffffffffff1603610787576040517f7a795c5600000000000000000000000000000000000000000000000000000000815260040160405180910390fd5b3373ffffffffffffffffffffffffffffffffffffffff168773ffffffffffffffffffffffffffffffffffffffff16036107ec576040517f5963709b00000000000000000000000000000000000000000000000000000000815260040160405180910390fd5b3373ffffffffffffffffffffffffffffffffffffffff168773ffffffffffffffffffffffffffffffffffffffff160361085a576040517f08c379a000000000000000000000000000000000000000000000000000000000815260040161085190614209565b60405180910390fd5b60016004546108699190614229565b90506000600260003373ffffffffffffffffffffffffffffffffffffffff1673ffffffffffffffffffffffffffffffffffffffff16815260200190815260200160002060008381526020019081526020016000209050878160000160006101000a81548173ffffffffffffffffffffffffffffffffffffffff021916908373ffffffffffffffffffffffffffffffffffffffff160217905550868160010181905550858160020181905550848160040190816109259190614409565b50838160050190816109379190614409565b50828160030190816109499190614409565b50336000806101000a81548173ffffffffffffffffffffffffffffffffffffffff021916908373ffffffffffffffffffffffffffffffffffffffff16021790555080600260008060009054906101000a900473ffffffffffffffffffffffffffffffffffffffff1673ffffffffffffffffffffffffffffffffffffffff1673ffffffffffffffffffffffffffffffffffffffff16815260200190815260200160002060008481526020019081526020016000206000820160009054906101000a900473ffffffffffffffffffffffffffffffffffffffff168160000160006101000a81548173ffffffffffffffffffffffffffffffffffffffff021916908373ffffffffffffffffffffffffffffffffffffffff160217905550600182015481600101556002820154816002015560038201816003019081610a8b91906144f1565b5060048201816004019081610aa091906144f1565b5060058201816005019081610ab591906144f1565b506006820160009054906101000a900460ff168160060160006101000a81548160ff0219169083151502179055506006820160019054906101000a900460ff168160060160016101000a81548160ff0219169083151502179055506006820160029054906101000a900460ff168160060160026101000a81548160ff0219169083151502179055506007820181600701908054610b53929190613294565b5060088201548160080155905050600360008060009054906101000a900473ffffffffffffffffffffffffffffffffffffffff1673ffffffffffffffffffffffffffffffffffffffff1673ffffffffffffffffffffffffffffffffffffffff1681526020019081526020016000206000815480929190610bd2906145d9565b919050555060046000815480929190610bea906145d9565b9190505550818873ffffffffffffffffffffffffffffffffffffffff1660008054906101000a900473ffffffffffffffffffffffffffffffffffffffff1673ffffffffffffffffffffffffffffffffffffffff167f88fb90d9d534f2792ee5650e3a21b58a53c91bb4155553be08ee1e83b7860aa58a604051610c6d9190613740565b60405180910390a4509695505050505050565b600080600260003373ffffffffffffffffffffffffffffffffffffffff1673ffffffffffffffffffffffffffffffffffffffff1681526020019081526020016000206000858152602001908152602001600020905080600701805490508310610d1e576040517f08c379a0000000000000000000000000000000000000000000000000000000008152600401610d159061466d565b60405180910390fd5b6000816007018481548110610d3657610d3561468d565b5b906000526020600020906004020190508060030154421115610daf57600062015180836002015442610d6891906140e7565b610d72919061414a565b9050600060648285600801548660010154610d8d919061417b565b610d97919061417b565b610da1919061414a565b905080945050505050610db6565b6000925050505b92915050565b6060600073ffffffffffffffffffffffffffffffffffffffff163373ffffffffffffffffffffffffffffffffffffffff1603610e24576040517f7a795c5600000000000000000000000000000000000000000000000000000000815260040160405180910390fd5b606060008054906101000a900473ffffffffffffffffffffffffffffffffffffffff1673ffffffffffffffffffffffffffffffffffffffff163373ffffffffffffffffffffffffffffffffffffffff1603610ed4576000610e8433612d6a565b905060016004541015610ec3576040517f9df573ea00000000000000000000000000000000000000000000000000000000815260040160405180910390fd5b610ecc81612db3565b915050610f29565b6000610edf33612d6a565b90506001811015610f1c576040517f9df573ea00000000000000000000000000000000000000000000000000000000815260040160405180910390fd5b610f2581612db3565b9150505b8091505090565b6060600080600190505b6004548111611066573373ffffffffffffffffffffffffffffffffffffffff16600260008060009054906101000a900473ffffffffffffffffffffffffffffffffffffffff1673ffffffffffffffffffffffffffffffffffffffff1673ffffffffffffffffffffffffffffffffffffffff168152602001908152602001600020600083815260200190815260200160002060000160009054906101000a900473ffffffffffffffffffffffffffffffffffffffff1673ffffffffffffffffffffffffffffffffffffffff1614611045576040517f08c379a000000000000000000000000000000000000000000000000000000000815260040161103c90614708565b60405180910390fd5b8180611050906145d9565b925050808061105e906145d9565b915050610f3a565b5060008167ffffffffffffffff81111561108357611082613765565b5b6040519080825280602002602001820160405280156110bc57816020015b6110a961337f565b8152602001906001900390816110a15790505b509050600080600190505b6004548111611609573373ffffffffffffffffffffffffffffffffffffffff16600260008060009054906101000a900473ffffffffffffffffffffffffffffffffffffffff1673ffffffffffffffffffffffffffffffffffffffff1673ffffffffffffffffffffffffffffffffffffffff168152602001908152602001600020600083815260200190815260200160002060000160009054906101000a900473ffffffffffffffffffffffffffffffffffffffff1673ffffffffffffffffffffffffffffffffffffffff16036115f657600260003373ffffffffffffffffffffffffffffffffffffffff1673ffffffffffffffffffffffffffffffffffffffff1681526020019081526020016000206000828152602001908152602001600020604051806101600160405290816000820160009054906101000a900473ffffffffffffffffffffffffffffffffffffffff1673ffffffffffffffffffffffffffffffffffffffff1673ffffffffffffffffffffffffffffffffffffffff168152602001600182015481526020016002820154815260200160038201805461126d90614087565b80601f016020809104026020016040519081016040528092919081815260200182805461129990614087565b80156112e65780601f106112bb576101008083540402835291602001916112e6565b820191906000526020600020905b8154815290600101906020018083116112c957829003601f168201915b505050505081526020016004820180546112ff90614087565b80601f016020809104026020016040519081016040528092919081815260200182805461132b90614087565b80156113785780601f1061134d57610100808354040283529160200191611378565b820191906000526020600020905b81548152906001019060200180831161135b57829003601f168201915b5050505050815260200160058201805461139190614087565b80601f01602080910402602001604051908101604052809291908181526020018280546113bd90614087565b801561140a5780601f106113df5761010080835404028352916020019161140a565b820191906000526020600020905b8154815290600101906020018083116113ed57829003601f168201915b505050505081526020016006820160009054906101000a900460ff161515151581526020016006820160019054906101000a900460ff161515151581526020016006820160029054906101000a900460ff1615151515815260200160078201805480602002602001604051908101604052809291908181526020016000905b828210156115b757838290600052602060002090600402016040518060a00160405290816000820180546114bc90614087565b80601f01602080910402602001604051908101604052809291908181526020018280546114e890614087565b80156115355780601f1061150a57610100808354040283529160200191611535565b820191906000526020600020905b81548152906001019060200180831161151857829003601f168201915b50505050508152602001600182015481526020016002820160009054906101000a900460ff16600281111561156d5761156c613a80565b5b600281111561157f5761157e613a80565b5b81526020016002820160019054906101000a900460ff1615151515815260200160038201548152505081526020019060010190611489565b5050505081526020016008820154815250508383815181106115dc576115db61468d565b5b602002602001018190525081806115f2906145d9565b9250505b8080611601906145d9565b9150506110c7565b5081935050505090565b61161b61337f565b600073ffffffffffffffffffffffffffffffffffffffff163373ffffffffffffffffffffffffffffffffffffffff1603611681576040517f7a795c5600000000000000000000000000000000000000000000000000000000815260040160405180910390fd5b600260008060009054906101000a900473ffffffffffffffffffffffffffffffffffffffff1673ffffffffffffffffffffffffffffffffffffffff1673ffffffffffffffffffffffffffffffffffffffff1681526020019081526020016000206000838152602001908152602001600020604051806101600160405290816000820160009054906101000a900473ffffffffffffffffffffffffffffffffffffffff1673ffffffffffffffffffffffffffffffffffffffff1673ffffffffffffffffffffffffffffffffffffffff168152602001600182015481526020016002820154815260200160038201805461177890614087565b80601f01602080910402602001604051908101604052809291908181526020018280546117a490614087565b80156117f15780601f106117c6576101008083540402835291602001916117f1565b820191906000526020600020905b8154815290600101906020018083116117d457829003601f168201915b5050505050815260200160048201805461180a90614087565b80601f016020809104026020016040519081016040528092919081815260200182805461183690614087565b80156118835780601f1061185857610100808354040283529160200191611883565b820191906000526020600020905b81548152906001019060200180831161186657829003601f168201915b5050505050815260200160058201805461189c90614087565b80601f01602080910402602001604051908101604052809291908181526020018280546118c890614087565b80156119155780601f106118ea57610100808354040283529160200191611915565b820191906000526020600020905b8154815290600101906020018083116118f857829003601f168201915b505050505081526020016006820160009054906101000a900460ff161515151581526020016006820160019054906101000a900460ff161515151581526020016006820160029054906101000a900460ff1615151515815260200160078201805480602002602001604051908101604052809291908181526020016000905b82821015611ac257838290600052602060002090600402016040518060a00160405290816000820180546119c790614087565b80601f01602080910402602001604051908101604052809291908181526020018280546119f390614087565b8015611a405780601f10611a1557610100808354040283529160200191611a40565b820191906000526020600020905b815481529060010190602001808311611a2357829003601f168201915b50505050508152602001600182015481526020016002820160009054906101000a900460ff166002811115611a7857611a77613a80565b5b6002811115611a8a57611a89613a80565b5b81526020016002820160019054906101000a900460ff1615151515815260200160038201548152505081526020019060010190611994565b5050505081526020016008820154815250509050919050565b6060600260003373ffffffffffffffffffffffffffffffffffffffff1673ffffffffffffffffffffffffffffffffffffffff1681526020019081526020016000206000838152602001908152602001600020600701805480602002602001604051908101604052809291908181526020016000905b82821015611c7e57838290600052602060002090600402016040518060a0016040529081600082018054611b8390614087565b80601f0160208091040260200160405190810160405280929190818152602001828054611baf90614087565b8015611bfc5780601f10611bd157610100808354040283529160200191611bfc565b820191906000526020600020905b815481529060010190602001808311611bdf57829003601f168201915b50505050508152602001600182015481526020016002820160009054906101000a900460ff166002811115611c3457611c33613a80565b5b6002811115611c4657611c45613a80565b5b81526020016002820160019054906101000a900460ff1615151515815260200160038201548152505081526020019060010190611b50565b505050509050919050565b60036020528060005260406000206000915090505481565b6000600260003373ffffffffffffffffffffffffffffffffffffffff1673ffffffffffffffffffffffffffffffffffffffff1681526020019081526020016000206000848152602001908152602001600020905080600701805490508210611d3e576040517f08c379a0000000000000000000000000000000000000000000000000000000008152600401611d359061466d565b60405180910390fd5b6000816007018381548110611d5657611d5561468d565b5b9060005260206000209060040201905060018160020160006101000a81548160ff02191690836002811115611d8e57611d8d613a80565b5b021790555082847f1b7218c0ac23ea9cbe4df603d2b340fbf469a115b73ea3d11460727f445d6be160405160405180910390a350505050565b60008054906101000a900473ffffffffffffffffffffffffffffffffffffffff1681565b600073ffffffffffffffffffffffffffffffffffffffff163373ffffffffffffffffffffffffffffffffffffffff1603611e51576040517f7a795c5600000000000000000000000000000000000000000000000000000000815260040160405180910390fd5b6000600260008060009054906101000a900473ffffffffffffffffffffffffffffffffffffffff1673ffffffffffffffffffffffffffffffffffffffff1673ffffffffffffffffffffffffffffffffffffffff168152602001908152602001600020600083815260200190815260200160002090508060000160009054906101000a900473ffffffffffffffffffffffffffffffffffffffff1673ffffffffffffffffffffffffffffffffffffffff163373ffffffffffffffffffffffffffffffffffffffff1614611f4f576040517f6810116800000000000000000000000000000000000000000000000000000000815260040160405180910390fd5b6000816001015403611f8d576040517f7eed038200000000000000000000000000000000000000000000000000000000815260040160405180910390fd5b6000816007018054905090506000600160009054906101000a900473ffffffffffffffffffffffffffffffffffffffff1673ffffffffffffffffffffffffffffffffffffffff166370a08231336040518263ffffffff1660e01b8152600401611ff69190613fba565b602060405180830381865afa158015612013573d6000803e3d6000fd5b505050506040513d601f19601f82011682018060405250810190612037919061473d565b905060005b8281101561262a576000151584600701828154811061205e5761205d61468d565b5b906000526020600020906004020160020160019054906101000a900460ff1615150361261d5783600701818154811061209a5761209961468d565b5b90600052602060002090600402016003015442111580156120bf575083600201544211155b801561212257506002808111156120d9576120d8613a80565b5b8460070182815481106120ef576120ee61468d565b5b906000526020600020906004020160020160009054906101000a900460ff1660028111156121205761211f613a80565b5b145b1561225257600115158460070182815481106121415761214061468d565b5b906000526020600020906004020160020160019054906101000a90505050600160009054906101000a900473ffffffffffffffffffffffffffffffffffffffff1673ffffffffffffffffffffffffffffffffffffffff166323b872dd308660000160009054906101000a900473ffffffffffffffffffffffffffffffffffffffff168760070185815481106121d9576121d861468d565b5b9060005260206000209060040201600101546040518463ffffffff1660e01b81526004016122099392919061476a565b6020604051808303816000875af1158015612228573d6000803e3d6000fd5b505050506040513d601f19601f8201168201806040525081019061224c91906147cd565b5061262a565b8360070181815481106122685761226761468d565b5b906000526020600020906004020160030154421115801561228c5750836002015442115b80156122ef57506002808111156122a6576122a5613a80565b5b8460070182815481106122bc576122bb61468d565b5b906000526020600020906004020160020160009054906101000a900460ff1660028111156122ed576122ec613a80565b5b145b1561243f5760006122ff86610658565b905060008186600101546123139190614229565b905080841015612358576040517f08c379a000000000000000000000000000000000000000000000000000000000815260040161234f9061486c565b60405180910390fd5b60018660060160016101000a81548160ff021916908315150217905550600160009054906101000a900473ffffffffffffffffffffffffffffffffffffffff1673ffffffffffffffffffffffffffffffffffffffff166323b872dd308860000160009054906101000a900473ffffffffffffffffffffffffffffffffffffffff16846040518463ffffffff1660e01b81526004016123f89392919061476a565b6020604051808303816000875af1158015612417573d6000803e3d6000fd5b505050506040513d601f19601f8201168201806040525081019061243b91906147cd565b5050505b8360070181815481106124555761245461468d565b5b906000526020600020906004020160030154421180156124cc575060028081111561248357612482613a80565b5b8460070182815481106124995761249861468d565b5b906000526020600020906004020160020160009054906101000a900460ff1660028111156124ca576124c9613a80565b5b145b1561261c5760006124dd8683610c80565b90506000818660070184815481106124f8576124f761468d565b5b90600052602060002090600402016001015461251491906140e7565b9050600115158660070184815481106125305761252f61468d565b5b906000526020600020906004020160020160019054906101000a90505050600160009054906101000a900473ffffffffffffffffffffffffffffffffffffffff1673ffffffffffffffffffffffffffffffffffffffff166323b872dd308860000160009054906101000a900473ffffffffffffffffffffffffffffffffffffffff16846040518463ffffffff1660e01b81526004016125d19392919061476a565b6020604051808303816000875af11580156125f0573d6000803e3d6000fd5b505050506040513d601f19601f8201168201806040525081019061261491906147cd565b50505061262a565b5b808060010191505061203c565b5050505050565b6000600260003373ffffffffffffffffffffffffffffffffffffffff1673ffffffffffffffffffffffffffffffffffffffff16815260200190815260200160002060008681526020019081526020016000209050806007016040518060a00160405280868152602001858152602001600060028111156126b4576126b3613a80565b5b815260200160001515815260200184815250908060018154018082558091505060019003906000526020600020906004020160009091909190915060008201518160000190816127049190614409565b506020820151816001015560408201518160020160006101000a81548160ff0219169083600281111561273a57612739613a80565b5b021790555060608201518160020160016101000a81548160ff021916908315150217905550608082015181600301555050828460405161277a91906148c8565b6040518091039020867fbf293db00f4de65b181a066ecc2f8bb81fb7174b517fd8085700e259ad00db1b60405160405180910390a45050505050565b6000600260003373ffffffffffffffffffffffffffffffffffffffff1673ffffffffffffffffffffffffffffffffffffffff168152602001908152602001600020600083815260200190815260200160002090503373ffffffffffffffffffffffffffffffffffffffff168160000160009054906101000a900473ffffffffffffffffffffffffffffffffffffffff1673ffffffffffffffffffffffffffffffffffffffff1614612893576040517f44f3b42100000000000000000000000000000000000000000000000000000000815260040160405180910390fd5b6000600160009054906101000a900473ffffffffffffffffffffffffffffffffffffffff1673ffffffffffffffffffffffffffffffffffffffff166370a08231336040518263ffffffff1660e01b81526004016128f09190613fba565b602060405180830381865afa15801561290d573d6000803e3d6000fd5b505050506040513d601f19601f82011682018060405250810190612931919061473d565b90508160020154421115612a6a57600061294a84610658565b9050600081846001015461295e9190614229565b9050808310156129a3576040517f08c379a000000000000000000000000000000000000000000000000000000000815260040161299a9061486c565b60405180910390fd5b60018460060160016101000a81548160ff021916908315150217905550600160009054906101000a900473ffffffffffffffffffffffffffffffffffffffff1673ffffffffffffffffffffffffffffffffffffffff166323b872dd3330846040518463ffffffff1660e01b8152600401612a1f9392919061476a565b6020604051808303816000875af1158015612a3e573d6000803e3d6000fd5b505050506040513d601f19601f82011682018060405250810190612a6291906147cd565b505050612b76565b8160010154811015612ab1576040517f08c379a0000000000000000000000000000000000000000000000000000000008152600401612aa89061492b565b60405180910390fd5b60018260060160016101000a81548160ff021916908315150217905550600160009054906101000a900473ffffffffffffffffffffffffffffffffffffffff1673ffffffffffffffffffffffffffffffffffffffff166323b872dd333085600101546040518463ffffffff1660e01b8152600401612b319392919061476a565b6020604051808303816000875af1158015612b50573d6000803e3d6000fd5b505050506040513d601f19601f82011682018060405250810190612b7491906147cd565b505b505050565b600073ffffffffffffffffffffffffffffffffffffffff163373ffffffffffffffffffffffffffffffffffffffff1603612be1576040517f7a795c5600000000000000000000000000000000000000000000000000000000815260040160405180910390fd5b6000600260008060009054906101000a900473ffffffffffffffffffffffffffffffffffffffff1673ffffffffffffffffffffffffffffffffffffffff1673ffffffffffffffffffffffffffffffffffffffff168152602001908152602001600020600083815260200190815260200160002090503373ffffffffffffffffffffffffffffffffffffffff168160000160009054906101000a900473ffffffffffffffffffffffffffffffffffffffff1673ffffffffffffffffffffffffffffffffffffffff1614612cdf576040517f5169e01000000000000000000000000000000000000000000000000000000000815260040160405180910390fd5b60018160060160026101000a81548160ff021916908315150217905550813373ffffffffffffffffffffffffffffffffffffffff167fd3ec1db989d7a04f562031e02001f88781a3bc555a5608a288acccae5b50e86f60405160405180910390a35050565b600160009054906101000a900473ffffffffffffffffffffffffffffffffffffffff1681565b6000600360008373ffffffffffffffffffffffffffffffffffffffff1673ffffffffffffffffffffffffffffffffffffffff168152602001908152602001600020549050919050565b606060008267ffffffffffffffff811115612dd157612dd0613765565b5b604051908082528060200260200182016040528015612e0a57816020015b612df761337f565b815260200190600190039081612def5790505b5090506000600190505b83811161328a57600260003373ffffffffffffffffffffffffffffffffffffffff1673ffffffffffffffffffffffffffffffffffffffff1681526020019081526020016000206000828152602001908152602001600020604051806101600160405290816000820160009054906101000a900473ffffffffffffffffffffffffffffffffffffffff1673ffffffffffffffffffffffffffffffffffffffff1673ffffffffffffffffffffffffffffffffffffffff1681526020016001820154815260200160028201548152602001600382018054612ef190614087565b80601f0160208091040260200160405190810160405280929190818152602001828054612f1d90614087565b8015612f6a5780601f10612f3f57610100808354040283529160200191612f6a565b820191906000526020600020905b815481529060010190602001808311612f4d57829003601f168201915b50505050508152602001600482018054612f8390614087565b80601f0160208091040260200160405190810160405280929190818152602001828054612faf90614087565b8015612ffc5780601f10612fd157610100808354040283529160200191612ffc565b820191906000526020600020905b815481529060010190602001808311612fdf57829003601f168201915b5050505050815260200160058201805461301590614087565b80601f016020809104026020016040519081016040528092919081815260200182805461304190614087565b801561308e5780601f106130635761010080835404028352916020019161308e565b820191906000526020600020905b81548152906001019060200180831161307157829003601f168201915b505050505081526020016006820160009054906101000a900460ff161515151581526020016006820160019054906101000a900460ff161515151581526020016006820160029054906101000a900460ff1615151515815260200160078201805480602002602001604051908101604052809291908181526020016000905b8282101561323b57838290600052602060002090600402016040518060a001604052908160008201805461314090614087565b80601f016020809104026020016040519081016040528092919081815260200182805461316c90614087565b80156131b95780601f1061318e576101008083540402835291602001916131b9565b820191906000526020600020905b81548152906001019060200180831161319c57829003601f168201915b50505050508152602001600182015481526020016002820160009054906101000a900460ff1660028111156131f1576131f0613a80565b5b600281111561320357613202613a80565b5b81526020016002820160019054906101000a900460ff161515151581526020016003820154815250508152602001906001019061310d565b5050505081526020016008820154815250508260018361325b91906140e7565b8151811061326c5761326b61468d565b5b60200260200101819052508080613282906145d9565b915050612e14565b5080915050919050565b82805482825590600052602060002090600402810192821561336e5760005260206000209160040282015b8281111561336d578282600082018160000190816132dd91906144f1565b50600182015481600101556002820160009054906101000a900460ff168160020160006101000a81548160ff021916908360028111156133205761331f613a80565b5b02179055506002820160019054906101000a900460ff168160020160016101000a81548160ff021916908315150217905550600382015481600301555050916004019190600401906132bf565b5b50905061337b91906133f5565b5090565b604051806101600160405280600073ffffffffffffffffffffffffffffffffffffffff168152602001600081526020016000815260200160608152602001606081526020016060815260200160001515815260200160001515815260200160001515815260200160608152602001600081525090565b5b80821115613450576000808201600061340f9190613454565b60018201600090556002820160006101000a81549060ff02191690556002820160016101000a81549060ff02191690556003820160009055506004016133f6565b5090565b50805461346090614087565b6000825580601f106134725750613491565b601f0160209004906000526020600020908101906134909190613494565b5b50565b5b808211156134ad576000816000905550600101613495565b5090565b6000604051905090565b600080fd5b600080fd5b600073ffffffffffffffffffffffffffffffffffffffff82169050919050565b60006134f0826134c5565b9050919050565b613500816134e5565b811461350b57600080fd5b50565b60008135905061351d816134f7565b92915050565b6000819050919050565b61353681613523565b811461354157600080fd5b50565b6000813590506135538161352d565b92915050565b600080604083850312156135705761356f6134bb565b5b600061357e8582860161350e565b925050602061358f85828601613544565b9150509250929050565b6135a2816134e5565b82525050565b6135b181613523565b82525050565b600081519050919050565b600082825260208201905092915050565b60005b838110156135f15780820151818401526020810190506135d6565b60008484015250505050565b6000601f19601f8301169050919050565b6000613619826135b7565b61362381856135c2565b93506136338185602086016135d3565b61363c816135fd565b840191505092915050565b60008115159050919050565b61365c81613647565b82525050565b600061014082019050613678600083018d613599565b613685602083018c6135a8565b613692604083018b6135a8565b81810360608301526136a4818a61360e565b905081810360808301526136b8818961360e565b905081810360a08301526136cc818861360e565b90506136db60c0830187613653565b6136e860e0830186613653565b6136f6610100830185613653565b6137046101208301846135a8565b9b9a5050505050505050505050565b600060208284031215613729576137286134bb565b5b600061373784828501613544565b91505092915050565b600060208201905061375560008301846135a8565b92915050565b600080fd5b600080fd5b7f4e487b7100000000000000000000000000000000000000000000000000000000600052604160045260246000fd5b61379d826135fd565b810181811067ffffffffffffffff821117156137bc576137bb613765565b5b80604052505050565b60006137cf6134b1565b90506137db8282613794565b919050565b600067ffffffffffffffff8211156137fb576137fa613765565b5b613804826135fd565b9050602081019050919050565b82818337600083830152505050565b600061383361382e846137e0565b6137c5565b90508281526020810184848401111561384f5761384e613760565b5b61385a848285613811565b509392505050565b600082601f8301126138775761387661375b565b5b8135613887848260208601613820565b91505092915050565b60008060008060008060c087890312156138ad576138ac6134bb565b5b60006138bb89828a0161350e565b96505060206138cc89828a01613544565b95505060406138dd89828a01613544565b945050606087013567ffffffffffffffff8111156138fe576138fd6134c0565b5b61390a89828a01613862565b935050608087013567ffffffffffffffff81111561392b5761392a6134c0565b5b61393789828a01613862565b92505060a087013567ffffffffffffffff811115613958576139576134c0565b5b61396489828a01613862565b9150509295509295509295565b60008060408385031215613988576139876134bb565b5b600061399685828601613544565b92505060206139a785828601613544565b9150509250929050565b600081519050919050565b600082825260208201905092915050565b6000819050602082019050919050565b6139e6816134e5565b82525050565b6139f581613523565b82525050565b600082825260208201905092915050565b6000613a17826135b7565b613a2181856139fb565b9350613a318185602086016135d3565b613a3a816135fd565b840191505092915050565b613a4e81613647565b82525050565b600081519050919050565b600082825260208201905092915050565b6000819050602082019050919050565b7f4e487b7100000000000000000000000000000000000000000000000000000000600052602160045260246000fd5b60038110613ac057613abf613a80565b5b50565b6000819050613ad182613aaf565b919050565b6000613ae182613ac3565b9050919050565b613af181613ad6565b82525050565b600060a0830160008301518482036000860152613b148282613a0c565b9150506020830151613b2960208601826139ec565b506040830151613b3c6040860182613ae8565b506060830151613b4f6060860182613a45565b506080830151613b6260808601826139ec565b508091505092915050565b6000613b798383613af7565b905092915050565b6000602082019050919050565b6000613b9982613a54565b613ba38185613a5f565b935083602082028501613bb585613a70565b8060005b85811015613bf15784840389528151613bd28582613b6d565b9450613bdd83613b81565b925060208a01995050600181019050613bb9565b50829750879550505050505092915050565b600061016083016000830151613c1c60008601826139dd565b506020830151613c2f60208601826139ec565b506040830151613c4260408601826139ec565b5060608301518482036060860152613c5a8282613a0c565b91505060808301518482036080860152613c748282613a0c565b91505060a083015184820360a0860152613c8e8282613a0c565b91505060c0830151613ca360c0860182613a45565b5060e0830151613cb660e0860182613a45565b50610100830151613ccb610100860182613a45565b50610120830151848203610120860152613ce58282613b8e565b915050610140830151613cfc6101408601826139ec565b508091505092915050565b6000613d138383613c03565b905092915050565b6000602082019050919050565b6000613d33826139b1565b613d3d81856139bc565b935083602082028501613d4f856139cd565b8060005b85811015613d8b5784840389528151613d6c8582613d07565b9450613d7783613d1b565b925060208a01995050600181019050613d53565b50829750879550505050505092915050565b60006020820190508181036000830152613db78184613d28565b905092915050565b600061016083016000830151613dd860008601826139dd565b506020830151613deb60208601826139ec565b506040830151613dfe60408601826139ec565b5060608301518482036060860152613e168282613a0c565b91505060808301518482036080860152613e308282613a0c565b91505060a083015184820360a0860152613e4a8282613a0c565b91505060c0830151613e5f60c0860182613a45565b5060e0830151613e7260e0860182613a45565b50610100830151613e87610100860182613a45565b50610120830151848203610120860152613ea18282613b8e565b915050610140830151613eb86101408601826139ec565b508091505092915050565b60006020820190508181036000830152613edd8184613dbf565b905092915050565b600082825260208201905092915050565b6000613f0182613a54565b613f0b8185613ee5565b935083602082028501613f1d85613a70565b8060005b85811015613f595784840389528151613f3a8582613b6d565b9450613f4583613b81565b925060208a01995050600181019050613f21565b50829750879550505050505092915050565b60006020820190508181036000830152613f858184613ef6565b905092915050565b600060208284031215613fa357613fa26134bb565b5b6000613fb18482850161350e565b91505092915050565b6000602082019050613fcf6000830184613599565b92915050565b60008060008060808587031215613fef57613fee6134bb565b5b6000613ffd87828801613544565b945050602085013567ffffffffffffffff81111561401e5761401d6134c0565b5b61402a87828801613862565b935050604061403b87828801613544565b925050606061404c87828801613544565b91505092959194509250565b7f4e487b7100000000000000000000000000000000000000000000000000000000600052602260045260246000fd5b6000600282049050600182168061409f57607f821691505b6020821081036140b2576140b1614058565b5b50919050565b7f4e487b7100000000000000000000000000000000000000000000000000000000600052601160045260246000fd5b60006140f282613523565b91506140fd83613523565b9250828203905081811115614115576141146140b8565b5b92915050565b7f4e487b7100000000000000000000000000000000000000000000000000000000600052601260045260246000fd5b600061415582613523565b915061416083613523565b9250826141705761416f61411b565b5b828204905092915050565b600061418682613523565b915061419183613523565b925082820261419f81613523565b915082820484148315176141b6576141b56140b8565b5b5092915050565b7f4e4f000000000000000000000000000000000000000000000000000000000000600082015250565b60006141f36002836135c2565b91506141fe826141bd565b602082019050919050565b60006020820190508181036000830152614222816141e6565b9050919050565b600061423482613523565b915061423f83613523565b9250828201905080821115614257576142566140b8565b5b92915050565b60008190508160005260206000209050919050565b60006020601f8301049050919050565b600082821b905092915050565b6000600883026142bf7fffffffffffffffffffffffffffffffffffffffffffffffffffffffffffffffff82614282565b6142c98683614282565b95508019841693508086168417925050509392505050565b6000819050919050565b60006143066143016142fc84613523565b6142e1565b613523565b9050919050565b6000819050919050565b614320836142eb565b61433461432c8261430d565b84845461428f565b825550505050565b600090565b61434961433c565b614354818484614317565b505050565b5b818110156143785761436d600082614341565b60018101905061435a565b5050565b601f8211156143bd5761438e8161425d565b61439784614272565b810160208510156143a6578190505b6143ba6143b285614272565b830182614359565b50505b505050565b600082821c905092915050565b60006143e0600019846008026143c2565b1980831691505092915050565b60006143f983836143cf565b9150826002028217905092915050565b614412826135b7565b67ffffffffffffffff81111561442b5761442a613765565b5b6144358254614087565b61444082828561437c565b600060209050601f8311600181146144735760008415614461578287015190505b61446b85826143ed565b8655506144d3565b601f1984166144818661425d565b60005b828110156144a957848901518255600182019150602085019450602081019050614484565b868310156144c657848901516144c2601f8916826143cf565b8355505b6001600288020188555050505b505050505050565b6000815490506144ea81614087565b9050919050565b8181036144ff5750506145d7565b614508826144db565b67ffffffffffffffff81111561452157614520613765565b5b61452b8254614087565b61453682828561437c565b6000601f8311600181146145655760008415614553578287015490505b61455d85826143ed565b8655506145d0565b601f1984166145738761425d565b965061457e8661425d565b60005b828110156145a657848901548255600182019150600185019450602081019050614581565b868310156145c357848901546145bf601f8916826143cf565b8355505b6001600288020188555050505b5050505050505b565b60006145e482613523565b91507fffffffffffffffffffffffffffffffffffffffffffffffffffffffffffffffff8203614616576146156140b8565b5b600182019050919050565b7f496e76616c6964206d696c6573746f6e6520696e646578000000000000000000600082015250565b60006146576017836135c2565b915061466282614621565b602082019050919050565b600060208201905081810360008301526146868161464a565b9050919050565b7f4e487b7100000000000000000000000000000000000000000000000000000000600052603260045260246000fd5b7f456e74657220412076616c696420416464726573730000000000000000000000600082015250565b60006146f26015836135c2565b91506146fd826146bc565b602082019050919050565b60006020820190508181036000830152614721816146e5565b9050919050565b6000815190506147378161352d565b92915050565b600060208284031215614753576147526134bb565b5b600061476184828501614728565b91505092915050565b600060608201905061477f6000830186613599565b61478c6020830185613599565b61479960408301846135a8565b949350505050565b6147aa81613647565b81146147b557600080fd5b50565b6000815190506147c7816147a1565b92915050565b6000602082840312156147e3576147e26134bb565b5b60006147f1848285016147b8565b91505092915050565b7f496e73756666696369656e742062616c616e636520666f7220616d6f756e742060008201527f616e64206c617465206665650000000000000000000000000000000000000000602082015250565b6000614856602c836135c2565b9150614861826147fa565b604082019050919050565b6000602082019050818103600083015261488581614849565b9050919050565b600081905092915050565b60006148a2826135b7565b6148ac818561488c565b93506148bc8185602086016135d3565b80840191505092915050565b60006148d48284614897565b915081905092915050565b7f496e73756666696369656e742062616c616e6365000000000000000000000000600082015250565b60006149156014836135c2565b9150614920826148df565b602082019050919050565b6000602082019050818103600083015261494481614908565b905091905056fea26469706673582212200a9eb4987cc5ccdae6848d3b03258beb8ebf2159696273acb05b5ce51b62858c64736f6c63430008180033","opcodes":"PUSH1 0x80 PUSH1 0x40 MSTORE CALLVALUE DUP1 ISZERO PUSH3 0x11 JUMPI PUSH1 0x0 DUP1 REVERT JUMPDEST POP PUSH1 0x40 MLOAD PUSH3 0x4B7A CODESIZE SUB DUP1 PUSH3 0x4B7A DUP4 CODECOPY DUP2 DUP2 ADD PUSH1 0x40 MSTORE DUP2 ADD SWAP1 PUSH3 0x37 SWAP2 SWAP1 PUSH3 0x1B7 JUMP JUMPDEST PUSH1 0x0 PUSH20 0xFFFFFFFFFFFFFFFFFFFFFFFFFFFFFFFFFFFFFFFF AND CALLER PUSH20 0xFFFFFFFFFFFFFFFFFFFFFFFFFFFFFFFFFFFFFFFF AND SUB PUSH3 0x9E JUMPI PUSH1 0x40 MLOAD PUSH32 0x7A795C5600000000000000000000000000000000000000000000000000000000 DUP2 MSTORE PUSH1 0x4 ADD PUSH1 0x40 MLOAD DUP1 SWAP2 SUB SWAP1 REVERT JUMPDEST PUSH1 0x0 PUSH20 0xFFFFFFFFFFFFFFFFFFFFFFFFFFFFFFFFFFFFFFFF AND DUP2 PUSH20 0xFFFFFFFFFFFFFFFFFFFFFFFFFFFFFFFFFFFFFFFF AND SUB PUSH3 0x105 JUMPI PUSH1 0x40 MLOAD PUSH32 0x7A795C5600000000000000000000000000000000000000000000000000000000 DUP2 MSTORE PUSH1 0x4 ADD PUSH1 0x40 MLOAD DUP1 SWAP2 SUB SWAP1 REVERT JUMPDEST DUP1 PUSH1 0x1 PUSH1 0x0 PUSH2 0x100 EXP DUP2 SLOAD DUP2 PUSH20 0xFFFFFFFFFFFFFFFFFFFFFFFFFFFFFFFFFFFFFFFF MUL NOT AND SWAP1 DUP4 PUSH20 0xFFFFFFFFFFFFFFFFFFFFFFFFFFFFFFFFFFFFFFFF AND MUL OR SWAP1 SSTORE POP POP PUSH3 0x1E9 JUMP JUMPDEST PUSH1 0x0 DUP1 REVERT JUMPDEST PUSH1 0x0 PUSH20 0xFFFFFFFFFFFFFFFFFFFFFFFFFFFFFFFFFFFFFFFF DUP3 AND SWAP1 POP SWAP2 SWAP1 POP JUMP JUMPDEST PUSH1 0x0 PUSH3 0x17F DUP3 PUSH3 0x152 JUMP JUMPDEST SWAP1 POP SWAP2 SWAP1 POP JUMP JUMPDEST PUSH3 0x191 DUP2 PUSH3 0x172 JUMP JUMPDEST DUP2 EQ PUSH3 0x19D JUMPI PUSH1 0x0 DUP1 REVERT JUMPDEST POP JUMP JUMPDEST PUSH1 0x0 DUP2 MLOAD SWAP1 POP PUSH3 0x1B1 DUP2 PUSH3 0x186 JUMP JUMPDEST SWAP3 SWAP2 POP POP JUMP JUMPDEST PUSH1 0x0 PUSH1 0x20 DUP3 DUP5 SUB SLT ISZERO PUSH3 0x1D0 JUMPI PUSH3 0x1CF PUSH3 0x14D JUMP JUMPDEST JUMPDEST PUSH1 0x0 PUSH3 0x1E0 DUP5 DUP3 DUP6 ADD PUSH3 0x1A0 JUMP JUMPDEST SWAP2 POP POP SWAP3 SWAP2 POP POP JUMP JUMPDEST PUSH2 0x4981 DUP1 PUSH3 0x1F9 PUSH1 0x0 CODECOPY PUSH1 0x0 RETURN INVALID PUSH1 0x80 PUSH1 0x40 MSTORE PUSH1 0x4 CALLDATASIZE LT PUSH2 0xF3 JUMPI PUSH1 0x0 CALLDATALOAD PUSH1 0xE0 SHR DUP1 PUSH4 0x4B7535D9 GT PUSH2 0x8A JUMPI DUP1 PUSH4 0x93D17E25 GT PUSH2 0x59 JUMPI DUP1 PUSH4 0x93D17E25 EQ PUSH2 0x37F JUMPI DUP1 PUSH4 0xDAA41E70 EQ PUSH2 0x3A8 JUMPI DUP1 PUSH4 0xF3C3D215 EQ PUSH2 0x3C4 JUMPI DUP1 PUSH4 0xF835CD3C EQ PUSH2 0x3ED JUMPI PUSH2 0xF3 JUMP JUMPDEST DUP1 PUSH4 0x4B7535D9 EQ PUSH2 0x2C5 JUMPI DUP1 PUSH4 0x5CAE48F5 EQ PUSH2 0x302 JUMPI DUP1 PUSH4 0x68A93D2D EQ PUSH2 0x32B JUMPI DUP1 PUSH4 0x8BEED0F8 EQ PUSH2 0x356 JUMPI PUSH2 0xF3 JUMP JUMPDEST DUP1 PUSH4 0x3141DA53 GT PUSH2 0xC6 JUMPI DUP1 PUSH4 0x3141DA53 EQ PUSH2 0x1F5 JUMPI DUP1 PUSH4 0x3301C652 EQ PUSH2 0x220 JUMPI DUP1 PUSH4 0x3A23CC0A EQ PUSH2 0x24B JUMPI DUP1 PUSH4 0x42C549C0 EQ PUSH2 0x288 JUMPI PUSH2 0xF3 JUMP JUMPDEST DUP1 PUSH4 0xDAD62FA EQ PUSH2 0xF8 JUMPI DUP1 PUSH4 0xE502E94 EQ PUSH2 0x13E JUMPI DUP1 PUSH4 0x1C93A097 EQ PUSH2 0x17B JUMPI DUP1 PUSH4 0x29772446 EQ PUSH2 0x1B8 JUMPI JUMPDEST PUSH1 0x0 DUP1 REVERT JUMPDEST CALLVALUE DUP1 ISZERO PUSH2 0x104 JUMPI PUSH1 0x0 DUP1 REVERT JUMPDEST POP PUSH2 0x11F PUSH1 0x4 DUP1 CALLDATASIZE SUB DUP2 ADD SWAP1 PUSH2 0x11A SWAP2 SWAP1 PUSH2 0x3559 JUMP JUMPDEST PUSH2 0x418 JUMP JUMPDEST PUSH1 0x40 MLOAD PUSH2 0x135 SWAP11 SWAP10 SWAP9 SWAP8 SWAP7 SWAP6 SWAP5 SWAP4 SWAP3 SWAP2 SWAP1 PUSH2 0x3662 JUMP JUMPDEST PUSH1 0x40 MLOAD DUP1 SWAP2 SUB SWAP1 RETURN JUMPDEST CALLVALUE DUP1 ISZERO PUSH2 0x14A JUMPI PUSH1 0x0 DUP1 REVERT JUMPDEST POP PUSH2 0x165 PUSH1 0x4 DUP1 CALLDATASIZE SUB DUP2 ADD SWAP1 PUSH2 0x160 SWAP2 SWAP1 PUSH2 0x3713 JUMP JUMPDEST PUSH2 0x658 JUMP JUMPDEST PUSH1 0x40 MLOAD PUSH2 0x172 SWAP2 SWAP1 PUSH2 0x3740 JUMP JUMPDEST PUSH1 0x40 MLOAD DUP1 SWAP2 SUB SWAP1 RETURN JUMPDEST CALLVALUE DUP1 ISZERO PUSH2 0x187 JUMPI PUSH1 0x0 DUP1 REVERT JUMPDEST POP PUSH2 0x1A2 PUSH1 0x4 DUP1 CALLDATASIZE SUB DUP2 ADD SWAP1 PUSH2 0x19D SWAP2 SWAP1 PUSH2 0x3890 JUMP JUMPDEST PUSH2 0x720 JUMP JUMPDEST PUSH1 0x40 MLOAD PUSH2 0x1AF SWAP2 SWAP1 PUSH2 0x3740 JUMP JUMPDEST PUSH1 0x40 MLOAD DUP1 SWAP2 SUB SWAP1 RETURN JUMPDEST CALLVALUE DUP1 ISZERO PUSH2 0x1C4 JUMPI PUSH1 0x0 DUP1 REVERT JUMPDEST POP PUSH2 0x1DF PUSH1 0x4 DUP1 CALLDATASIZE SUB DUP2 ADD SWAP1 PUSH2 0x1DA SWAP2 SWAP1 PUSH2 0x3971 JUMP JUMPDEST PUSH2 0xC80 JUMP JUMPDEST PUSH1 0x40 MLOAD PUSH2 0x1EC SWAP2 SWAP1 PUSH2 0x3740 JUMP JUMPDEST PUSH1 0x40 MLOAD DUP1 SWAP2 SUB SWAP1 RETURN JUMPDEST CALLVALUE DUP1 ISZERO PUSH2 0x201 JUMPI PUSH1 0x0 DUP1 REVERT JUMPDEST POP PUSH2 0x20A PUSH2 0xDBC JUMP JUMPDEST PUSH1 0x40 MLOAD PUSH2 0x217 SWAP2 SWAP1 PUSH2 0x3D9D JUMP JUMPDEST PUSH1 0x40 MLOAD DUP1 SWAP2 SUB SWAP1 RETURN JUMPDEST CALLVALUE DUP1 ISZERO PUSH2 0x22C JUMPI PUSH1 0x0 DUP1 REVERT JUMPDEST POP PUSH2 0x235 PUSH2 0xF30 JUMP JUMPDEST PUSH1 0x40 MLOAD PUSH2 0x242 SWAP2 SWAP1 PUSH2 0x3D9D JUMP JUMPDEST PUSH1 0x40 MLOAD DUP1 SWAP2 SUB SWAP1 RETURN JUMPDEST CALLVALUE DUP1 ISZERO PUSH2 0x257 JUMPI PUSH1 0x0 DUP1 REVERT JUMPDEST POP PUSH2 0x272 PUSH1 0x4 DUP1 CALLDATASIZE SUB DUP2 ADD SWAP1 PUSH2 0x26D SWAP2 SWAP1 PUSH2 0x3713 JUMP JUMPDEST PUSH2 0x1613 JUMP JUMPDEST PUSH1 0x40 MLOAD PUSH2 0x27F SWAP2 SWAP1 PUSH2 0x3EC3 JUMP JUMPDEST PUSH1 0x40 MLOAD DUP1 SWAP2 SUB SWAP1 RETURN JUMPDEST CALLVALUE DUP1 ISZERO PUSH2 0x294 JUMPI PUSH1 0x0 DUP1 REVERT JUMPDEST POP PUSH2 0x2AF PUSH1 0x4 DUP1 CALLDATASIZE SUB DUP2 ADD SWAP1 PUSH2 0x2AA SWAP2 SWAP1 PUSH2 0x3713 JUMP JUMPDEST PUSH2 0x1ADB JUMP JUMPDEST PUSH1 0x40 MLOAD PUSH2 0x2BC SWAP2 SWAP1 PUSH2 0x3F6B JUMP JUMPDEST PUSH1 0x40 MLOAD DUP1 SWAP2 SUB SWAP1 RETURN JUMPDEST CALLVALUE DUP1 ISZERO PUSH2 0x2D1 JUMPI PUSH1 0x0 DUP1 REVERT JUMPDEST POP PUSH2 0x2EC PUSH1 0x4 DUP1 CALLDATASIZE SUB DUP2 ADD SWAP1 PUSH2 0x2E7 SWAP2 SWAP1 PUSH2 0x3F8D JUMP JUMPDEST PUSH2 0x1C89 JUMP JUMPDEST PUSH1 0x40 MLOAD PUSH2 0x2F9 SWAP2 SWAP1 PUSH2 0x3740 JUMP JUMPDEST PUSH1 0x40 MLOAD DUP1 SWAP2 SUB SWAP1 RETURN JUMPDEST CALLVALUE DUP1 ISZERO PUSH2 0x30E JUMPI PUSH1 0x0 DUP1 REVERT JUMPDEST POP PUSH2 0x329 PUSH1 0x4 DUP1 CALLDATASIZE SUB DUP2 ADD SWAP1 PUSH2 0x324 SWAP2 SWAP1 PUSH2 0x3971 JUMP JUMPDEST PUSH2 0x1CA1 JUMP JUMPDEST STOP JUMPDEST CALLVALUE DUP1 ISZERO PUSH2 0x337 JUMPI PUSH1 0x0 DUP1 REVERT JUMPDEST POP PUSH2 0x340 PUSH2 0x1DC7 JUMP JUMPDEST PUSH1 0x40 MLOAD PUSH2 0x34D SWAP2 SWAP1 PUSH2 0x3FBA JUMP JUMPDEST PUSH1 0x40 MLOAD DUP1 SWAP2 SUB SWAP1 RETURN JUMPDEST CALLVALUE DUP1 ISZERO PUSH2 0x362 JUMPI PUSH1 0x0 DUP1 REVERT JUMPDEST POP PUSH2 0x37D PUSH1 0x4 DUP1 CALLDATASIZE SUB DUP2 ADD SWAP1 PUSH2 0x378 SWAP2 SWAP1 PUSH2 0x3713 JUMP JUMPDEST PUSH2 0x1DEB JUMP JUMPDEST STOP JUMPDEST CALLVALUE DUP1 ISZERO PUSH2 0x38B JUMPI PUSH1 0x0 DUP1 REVERT JUMPDEST POP PUSH2 0x3A6 PUSH1 0x4 DUP1 CALLDATASIZE SUB DUP2 ADD SWAP1 PUSH2 0x3A1 SWAP2 SWAP1 PUSH2 0x3FD5 JUMP JUMPDEST PUSH2 0x2631 JUMP JUMPDEST STOP JUMPDEST PUSH2 0x3C2 PUSH1 0x4 DUP1 CALLDATASIZE SUB DUP2 ADD SWAP1 PUSH2 0x3BD SWAP2 SWAP1 PUSH2 0x3713 JUMP JUMPDEST PUSH2 0x27B6 JUMP JUMPDEST STOP JUMPDEST CALLVALUE DUP1 ISZERO PUSH2 0x3D0 JUMPI PUSH1 0x0 DUP1 REVERT JUMPDEST POP PUSH2 0x3EB PUSH1 0x4 DUP1 CALLDATASIZE SUB DUP2 ADD SWAP1 PUSH2 0x3E6 SWAP2 SWAP1 PUSH2 0x3713 JUMP JUMPDEST PUSH2 0x2B7B JUMP JUMPDEST STOP JUMPDEST CALLVALUE DUP1 ISZERO PUSH2 0x3F9 JUMPI PUSH1 0x0 DUP1 REVERT JUMPDEST POP PUSH2 0x402 PUSH2 0x2D44 JUMP JUMPDEST PUSH1 0x40 MLOAD PUSH2 0x40F SWAP2 SWAP1 PUSH2 0x3FBA JUMP JUMPDEST PUSH1 0x40 MLOAD DUP1 SWAP2 SUB SWAP1 RETURN JUMPDEST PUSH1 0x2 PUSH1 0x20 MSTORE DUP2 PUSH1 0x0 MSTORE PUSH1 0x40 PUSH1 0x0 KECCAK256 PUSH1 0x20 MSTORE DUP1 PUSH1 0x0 MSTORE PUSH1 0x40 PUSH1 0x0 KECCAK256 PUSH1 0x0 SWAP2 POP SWAP2 POP POP DUP1 PUSH1 0x0 ADD PUSH1 0x0 SWAP1 SLOAD SWAP1 PUSH2 0x100 EXP SWAP1 DIV PUSH20 0xFFFFFFFFFFFFFFFFFFFFFFFFFFFFFFFFFFFFFFFF AND SWAP1 DUP1 PUSH1 0x1 ADD SLOAD SWAP1 DUP1 PUSH1 0x2 ADD SLOAD SWAP1 DUP1 PUSH1 0x3 ADD DUP1 SLOAD PUSH2 0x47A SWAP1 PUSH2 0x4087 JUMP JUMPDEST DUP1 PUSH1 0x1F ADD PUSH1 0x20 DUP1 SWAP2 DIV MUL PUSH1 0x20 ADD PUSH1 0x40 MLOAD SWAP1 DUP2 ADD PUSH1 0x40 MSTORE DUP1 SWAP3 SWAP2 SWAP1 DUP2 DUP2 MSTORE PUSH1 0x20 ADD DUP3 DUP1 SLOAD PUSH2 0x4A6 SWAP1 PUSH2 0x4087 JUMP JUMPDEST DUP1 ISZERO PUSH2 0x4F3 JUMPI DUP1 PUSH1 0x1F LT PUSH2 0x4C8 JUMPI PUSH2 0x100 DUP1 DUP4 SLOAD DIV MUL DUP4 MSTORE SWAP2 PUSH1 0x20 ADD SWAP2 PUSH2 0x4F3 JUMP JUMPDEST DUP3 ADD SWAP2 SWAP1 PUSH1 0x0 MSTORE PUSH1 0x20 PUSH1 0x0 KECCAK256 SWAP1 JUMPDEST DUP2 SLOAD DUP2 MSTORE SWAP1 PUSH1 0x1 ADD SWAP1 PUSH1 0x20 ADD DUP1 DUP4 GT PUSH2 0x4D6 JUMPI DUP3 SWAP1 SUB PUSH1 0x1F AND DUP3 ADD SWAP2 JUMPDEST POP POP POP POP POP SWAP1 DUP1 PUSH1 0x4 ADD DUP1 SLOAD PUSH2 0x508 SWAP1 PUSH2 0x4087 JUMP JUMPDEST DUP1 PUSH1 0x1F ADD PUSH1 0x20 DUP1 SWAP2 DIV MUL PUSH1 0x20 ADD PUSH1 0x40 MLOAD SWAP1 DUP2 ADD PUSH1 0x40 MSTORE DUP1 SWAP3 SWAP2 SWAP1 DUP2 DUP2 MSTORE PUSH1 0x20 ADD DUP3 DUP1 SLOAD PUSH2 0x534 SWAP1 PUSH2 0x4087 JUMP JUMPDEST DUP1 ISZERO PUSH2 0x581 JUMPI DUP1 PUSH1 0x1F LT PUSH2 0x556 JUMPI PUSH2 0x100 DUP1 DUP4 SLOAD DIV MUL DUP4 MSTORE SWAP2 PUSH1 0x20 ADD SWAP2 PUSH2 0x581 JUMP JUMPDEST DUP3 ADD SWAP2 SWAP1 PUSH1 0x0 MSTORE PUSH1 0x20 PUSH1 0x0 KECCAK256 SWAP1 JUMPDEST DUP2 SLOAD DUP2 MSTORE SWAP1 PUSH1 0x1 ADD SWAP1 PUSH1 0x20 ADD DUP1 DUP4 GT PUSH2 0x564 JUMPI DUP3 SWAP1 SUB PUSH1 0x1F AND DUP3 ADD SWAP2 JUMPDEST POP POP POP POP POP SWAP1 DUP1 PUSH1 0x5 ADD DUP1 SLOAD PUSH2 0x596 SWAP1 PUSH2 0x4087 JUMP JUMPDEST DUP1 PUSH1 0x1F ADD PUSH1 0x20 DUP1 SWAP2 DIV MUL PUSH1 0x20 ADD PUSH1 0x40 MLOAD SWAP1 DUP2 ADD PUSH1 0x40 MSTORE DUP1 SWAP3 SWAP2 SWAP1 DUP2 DUP2 MSTORE PUSH1 0x20 ADD DUP3 DUP1 SLOAD PUSH2 0x5C2 SWAP1 PUSH2 0x4087 JUMP JUMPDEST DUP1 ISZERO PUSH2 0x60F JUMPI DUP1 PUSH1 0x1F LT PUSH2 0x5E4 JUMPI PUSH2 0x100 DUP1 DUP4 SLOAD DIV MUL DUP4 MSTORE SWAP2 PUSH1 0x20 ADD SWAP2 PUSH2 0x60F JUMP JUMPDEST DUP3 ADD SWAP2 SWAP1 PUSH1 0x0 MSTORE PUSH1 0x20 PUSH1 0x0 KECCAK256 SWAP1 JUMPDEST DUP2 SLOAD DUP2 MSTORE SWAP1 PUSH1 0x1 ADD SWAP1 PUSH1 0x20 ADD DUP1 DUP4 GT PUSH2 0x5F2 JUMPI DUP3 SWAP1 SUB PUSH1 0x1F AND DUP3 ADD SWAP2 JUMPDEST POP POP POP POP POP SWAP1 DUP1 PUSH1 0x6 ADD PUSH1 0x0 SWAP1 SLOAD SWAP1 PUSH2 0x100 EXP SWAP1 DIV PUSH1 0xFF AND SWAP1 DUP1 PUSH1 0x6 ADD PUSH1 0x1 SWAP1 SLOAD SWAP1 PUSH2 0x100 EXP SWAP1 DIV PUSH1 0xFF AND SWAP1 DUP1 PUSH1 0x6 ADD PUSH1 0x2 SWAP1 SLOAD SWAP1 PUSH2 0x100 EXP SWAP1 DIV PUSH1 0xFF AND SWAP1 DUP1 PUSH1 0x8 ADD SLOAD SWAP1 POP DUP11 JUMP JUMPDEST PUSH1 0x0 DUP1 PUSH1 0x2 PUSH1 0x0 CALLER PUSH20 0xFFFFFFFFFFFFFFFFFFFFFFFFFFFFFFFFFFFFFFFF AND PUSH20 0xFFFFFFFFFFFFFFFFFFFFFFFFFFFFFFFFFFFFFFFF AND DUP2 MSTORE PUSH1 0x20 ADD SWAP1 DUP2 MSTORE PUSH1 0x20 ADD PUSH1 0x0 KECCAK256 PUSH1 0x0 DUP5 DUP2 MSTORE PUSH1 0x20 ADD SWAP1 DUP2 MSTORE PUSH1 0x20 ADD PUSH1 0x0 KECCAK256 SWAP1 POP DUP1 PUSH1 0x2 ADD SLOAD TIMESTAMP GT ISZERO PUSH2 0x715 JUMPI PUSH1 0x0 PUSH3 0x15180 DUP3 PUSH1 0x2 ADD SLOAD TIMESTAMP PUSH2 0x6CF SWAP2 SWAP1 PUSH2 0x40E7 JUMP JUMPDEST PUSH2 0x6D9 SWAP2 SWAP1 PUSH2 0x414A JUMP JUMPDEST SWAP1 POP PUSH1 0x0 PUSH1 0x64 DUP3 DUP5 PUSH1 0x8 ADD SLOAD DUP6 PUSH1 0x1 ADD SLOAD PUSH2 0x6F4 SWAP2 SWAP1 PUSH2 0x417B JUMP JUMPDEST PUSH2 0x6FE SWAP2 SWAP1 PUSH2 0x417B JUMP JUMPDEST PUSH2 0x708 SWAP2 SWAP1 PUSH2 0x414A JUMP JUMPDEST SWAP1 POP DUP1 SWAP4 POP POP POP POP PUSH2 0x71B JUMP JUMPDEST PUSH1 0x0 SWAP2 POP POP JUMPDEST SWAP2 SWAP1 POP JUMP JUMPDEST PUSH1 0x0 DUP1 PUSH20 0xFFFFFFFFFFFFFFFFFFFFFFFFFFFFFFFFFFFFFFFF AND CALLER PUSH20 0xFFFFFFFFFFFFFFFFFFFFFFFFFFFFFFFFFFFFFFFF AND SUB PUSH2 0x787 JUMPI PUSH1 0x40 MLOAD PUSH32 0x7A795C5600000000000000000000000000000000000000000000000000000000 DUP2 MSTORE PUSH1 0x4 ADD PUSH1 0x40 MLOAD DUP1 SWAP2 SUB SWAP1 REVERT JUMPDEST CALLER PUSH20 0xFFFFFFFFFFFFFFFFFFFFFFFFFFFFFFFFFFFFFFFF AND DUP8 PUSH20 0xFFFFFFFFFFFFFFFFFFFFFFFFFFFFFFFFFFFFFFFF AND SUB PUSH2 0x7EC JUMPI PUSH1 0x40 MLOAD PUSH32 0x5963709B00000000000000000000000000000000000000000000000000000000 DUP2 MSTORE PUSH1 0x4 ADD PUSH1 0x40 MLOAD DUP1 SWAP2 SUB SWAP1 REVERT JUMPDEST CALLER PUSH20 0xFFFFFFFFFFFFFFFFFFFFFFFFFFFFFFFFFFFFFFFF AND DUP8 PUSH20 0xFFFFFFFFFFFFFFFFFFFFFFFFFFFFFFFFFFFFFFFF AND SUB PUSH2 0x85A JUMPI PUSH1 0x40 MLOAD PUSH32 0x8C379A000000000000000000000000000000000000000000000000000000000 DUP2 MSTORE PUSH1 0x4 ADD PUSH2 0x851 SWAP1 PUSH2 0x4209 JUMP JUMPDEST PUSH1 0x40 MLOAD DUP1 SWAP2 SUB SWAP1 REVERT JUMPDEST PUSH1 0x1 PUSH1 0x4 SLOAD PUSH2 0x869 SWAP2 SWAP1 PUSH2 0x4229 JUMP JUMPDEST SWAP1 POP PUSH1 0x0 PUSH1 0x2 PUSH1 0x0 CALLER PUSH20 0xFFFFFFFFFFFFFFFFFFFFFFFFFFFFFFFFFFFFFFFF AND PUSH20 0xFFFFFFFFFFFFFFFFFFFFFFFFFFFFFFFFFFFFFFFF AND DUP2 MSTORE PUSH1 0x20 ADD SWAP1 DUP2 MSTORE PUSH1 0x20 ADD PUSH1 0x0 KECCAK256 PUSH1 0x0 DUP4 DUP2 MSTORE PUSH1 0x20 ADD SWAP1 DUP2 MSTORE PUSH1 0x20 ADD PUSH1 0x0 KECCAK256 SWAP1 POP DUP8 DUP2 PUSH1 0x0 ADD PUSH1 0x0 PUSH2 0x100 EXP DUP2 SLOAD DUP2 PUSH20 0xFFFFFFFFFFFFFFFFFFFFFFFFFFFFFFFFFFFFFFFF MUL NOT AND SWAP1 DUP4 PUSH20 0xFFFFFFFFFFFFFFFFFFFFFFFFFFFFFFFFFFFFFFFF AND MUL OR SWAP1 SSTORE POP DUP7 DUP2 PUSH1 0x1 ADD DUP2 SWAP1 SSTORE POP DUP6 DUP2 PUSH1 0x2 ADD DUP2 SWAP1 SSTORE POP DUP5 DUP2 PUSH1 0x4 ADD SWAP1 DUP2 PUSH2 0x925 SWAP2 SWAP1 PUSH2 0x4409 JUMP JUMPDEST POP DUP4 DUP2 PUSH1 0x5 ADD SWAP1 DUP2 PUSH2 0x937 SWAP2 SWAP1 PUSH2 0x4409 JUMP JUMPDEST POP DUP3 DUP2 PUSH1 0x3 ADD SWAP1 DUP2 PUSH2 0x949 SWAP2 SWAP1 PUSH2 0x4409 JUMP JUMPDEST POP CALLER PUSH1 0x0 DUP1 PUSH2 0x100 EXP DUP2 SLOAD DUP2 PUSH20 0xFFFFFFFFFFFFFFFFFFFFFFFFFFFFFFFFFFFFFFFF MUL NOT AND SWAP1 DUP4 PUSH20 0xFFFFFFFFFFFFFFFFFFFFFFFFFFFFFFFFFFFFFFFF AND MUL OR SWAP1 SSTORE POP DUP1 PUSH1 0x2 PUSH1 0x0 DUP1 PUSH1 0x0 SWAP1 SLOAD SWAP1 PUSH2 0x100 EXP SWAP1 DIV PUSH20 0xFFFFFFFFFFFFFFFFFFFFFFFFFFFFFFFFFFFFFFFF AND PUSH20 0xFFFFFFFFFFFFFFFFFFFFFFFFFFFFFFFFFFFFFFFF AND PUSH20 0xFFFFFFFFFFFFFFFFFFFFFFFFFFFFFFFFFFFFFFFF AND DUP2 MSTORE PUSH1 0x20 ADD SWAP1 DUP2 MSTORE PUSH1 0x20 ADD PUSH1 0x0 KECCAK256 PUSH1 0x0 DUP5 DUP2 MSTORE PUSH1 0x20 ADD SWAP1 DUP2 MSTORE PUSH1 0x20 ADD PUSH1 0x0 KECCAK256 PUSH1 0x0 DUP3 ADD PUSH1 0x0 SWAP1 SLOAD SWAP1 PUSH2 0x100 EXP SWAP1 DIV PUSH20 0xFFFFFFFFFFFFFFFFFFFFFFFFFFFFFFFFFFFFFFFF AND DUP2 PUSH1 0x0 ADD PUSH1 0x0 PUSH2 0x100 EXP DUP2 SLOAD DUP2 PUSH20 0xFFFFFFFFFFFFFFFFFFFFFFFFFFFFFFFFFFFFFFFF MUL NOT AND SWAP1 DUP4 PUSH20 0xFFFFFFFFFFFFFFFFFFFFFFFFFFFFFFFFFFFFFFFF AND MUL OR SWAP1 SSTORE POP PUSH1 0x1 DUP3 ADD SLOAD DUP2 PUSH1 0x1 ADD SSTORE PUSH1 0x2 DUP3 ADD SLOAD DUP2 PUSH1 0x2 ADD SSTORE PUSH1 0x3 DUP3 ADD DUP2 PUSH1 0x3 ADD SWAP1 DUP2 PUSH2 0xA8B SWAP2 SWAP1 PUSH2 0x44F1 JUMP JUMPDEST POP PUSH1 0x4 DUP3 ADD DUP2 PUSH1 0x4 ADD SWAP1 DUP2 PUSH2 0xAA0 SWAP2 SWAP1 PUSH2 0x44F1 JUMP JUMPDEST POP PUSH1 0x5 DUP3 ADD DUP2 PUSH1 0x5 ADD SWAP1 DUP2 PUSH2 0xAB5 SWAP2 SWAP1 PUSH2 0x44F1 JUMP JUMPDEST POP PUSH1 0x6 DUP3 ADD PUSH1 0x0 SWAP1 SLOAD SWAP1 PUSH2 0x100 EXP SWAP1 DIV PUSH1 0xFF AND DUP2 PUSH1 0x6 ADD PUSH1 0x0 PUSH2 0x100 EXP DUP2 SLOAD DUP2 PUSH1 0xFF MUL NOT AND SWAP1 DUP4 ISZERO ISZERO MUL OR SWAP1 SSTORE POP PUSH1 0x6 DUP3 ADD PUSH1 0x1 SWAP1 SLOAD SWAP1 PUSH2 0x100 EXP SWAP1 DIV PUSH1 0xFF AND DUP2 PUSH1 0x6 ADD PUSH1 0x1 PUSH2 0x100 EXP DUP2 SLOAD DUP2 PUSH1 0xFF MUL NOT AND SWAP1 DUP4 ISZERO ISZERO MUL OR SWAP1 SSTORE POP PUSH1 0x6 DUP3 ADD PUSH1 0x2 SWAP1 SLOAD SWAP1 PUSH2 0x100 EXP SWAP1 DIV PUSH1 0xFF AND DUP2 PUSH1 0x6 ADD PUSH1 0x2 PUSH2 0x100 EXP DUP2 SLOAD DUP2 PUSH1 0xFF MUL NOT AND SWAP1 DUP4 ISZERO ISZERO MUL OR SWAP1 SSTORE POP PUSH1 0x7 DUP3 ADD DUP2 PUSH1 0x7 ADD SWAP1 DUP1 SLOAD PUSH2 0xB53 SWAP3 SWAP2 SWAP1 PUSH2 0x3294 JUMP JUMPDEST POP PUSH1 0x8 DUP3 ADD SLOAD DUP2 PUSH1 0x8 ADD SSTORE SWAP1 POP POP PUSH1 0x3 PUSH1 0x0 DUP1 PUSH1 0x0 SWAP1 SLOAD SWAP1 PUSH2 0x100 EXP SWAP1 DIV PUSH20 0xFFFFFFFFFFFFFFFFFFFFFFFFFFFFFFFFFFFFFFFF AND PUSH20 0xFFFFFFFFFFFFFFFFFFFFFFFFFFFFFFFFFFFFFFFF AND PUSH20 0xFFFFFFFFFFFFFFFFFFFFFFFFFFFFFFFFFFFFFFFF AND DUP2 MSTORE PUSH1 0x20 ADD SWAP1 DUP2 MSTORE PUSH1 0x20 ADD PUSH1 0x0 KECCAK256 PUSH1 0x0 DUP2 SLOAD DUP1 SWAP3 SWAP2 SWAP1 PUSH2 0xBD2 SWAP1 PUSH2 0x45D9 JUMP JUMPDEST SWAP2 SWAP1 POP SSTORE POP PUSH1 0x4 PUSH1 0x0 DUP2 SLOAD DUP1 SWAP3 SWAP2 SWAP1 PUSH2 0xBEA SWAP1 PUSH2 0x45D9 JUMP JUMPDEST SWAP2 SWAP1 POP SSTORE POP DUP2 DUP9 PUSH20 0xFFFFFFFFFFFFFFFFFFFFFFFFFFFFFFFFFFFFFFFF AND PUSH1 0x0 DUP1 SLOAD SWAP1 PUSH2 0x100 EXP SWAP1 DIV PUSH20 0xFFFFFFFFFFFFFFFFFFFFFFFFFFFFFFFFFFFFFFFF AND PUSH20 0xFFFFFFFFFFFFFFFFFFFFFFFFFFFFFFFFFFFFFFFF AND PUSH32 0x88FB90D9D534F2792EE5650E3A21B58A53C91BB4155553BE08EE1E83B7860AA5 DUP11 PUSH1 0x40 MLOAD PUSH2 0xC6D SWAP2 SWAP1 PUSH2 0x3740 JUMP JUMPDEST PUSH1 0x40 MLOAD DUP1 SWAP2 SUB SWAP1 LOG4 POP SWAP7 SWAP6 POP POP POP POP POP POP JUMP JUMPDEST PUSH1 0x0 DUP1 PUSH1 0x2 PUSH1 0x0 CALLER PUSH20 0xFFFFFFFFFFFFFFFFFFFFFFFFFFFFFFFFFFFFFFFF AND PUSH20 0xFFFFFFFFFFFFFFFFFFFFFFFFFFFFFFFFFFFFFFFF AND DUP2 MSTORE PUSH1 0x20 ADD SWAP1 DUP2 MSTORE PUSH1 0x20 ADD PUSH1 0x0 KECCAK256 PUSH1 0x0 DUP6 DUP2 MSTORE PUSH1 0x20 ADD SWAP1 DUP2 MSTORE PUSH1 0x20 ADD PUSH1 0x0 KECCAK256 SWAP1 POP DUP1 PUSH1 0x7 ADD DUP1 SLOAD SWAP1 POP DUP4 LT PUSH2 0xD1E JUMPI PUSH1 0x40 MLOAD PUSH32 0x8C379A000000000000000000000000000000000000000000000000000000000 DUP2 MSTORE PUSH1 0x4 ADD PUSH2 0xD15 SWAP1 PUSH2 0x466D JUMP JUMPDEST PUSH1 0x40 MLOAD DUP1 SWAP2 SUB SWAP1 REVERT JUMPDEST PUSH1 0x0 DUP2 PUSH1 0x7 ADD DUP5 DUP2 SLOAD DUP2 LT PUSH2 0xD36 JUMPI PUSH2 0xD35 PUSH2 0x468D JUMP JUMPDEST JUMPDEST SWAP1 PUSH1 0x0 MSTORE PUSH1 0x20 PUSH1 0x0 KECCAK256 SWAP1 PUSH1 0x4 MUL ADD SWAP1 POP DUP1 PUSH1 0x3 ADD SLOAD TIMESTAMP GT ISZERO PUSH2 0xDAF JUMPI PUSH1 0x0 PUSH3 0x15180 DUP4 PUSH1 0x2 ADD SLOAD TIMESTAMP PUSH2 0xD68 SWAP2 SWAP1 PUSH2 0x40E7 JUMP JUMPDEST PUSH2 0xD72 SWAP2 SWAP1 PUSH2 0x414A JUMP JUMPDEST SWAP1 POP PUSH1 0x0 PUSH1 0x64 DUP3 DUP6 PUSH1 0x8 ADD SLOAD DUP7 PUSH1 0x1 ADD SLOAD PUSH2 0xD8D SWAP2 SWAP1 PUSH2 0x417B JUMP JUMPDEST PUSH2 0xD97 SWAP2 SWAP1 PUSH2 0x417B JUMP JUMPDEST PUSH2 0xDA1 SWAP2 SWAP1 PUSH2 0x414A JUMP JUMPDEST SWAP1 POP DUP1 SWAP5 POP POP POP POP POP PUSH2 0xDB6 JUMP JUMPDEST PUSH1 0x0 SWAP3 POP POP POP JUMPDEST SWAP3 SWAP2 POP POP JUMP JUMPDEST PUSH1 0x60 PUSH1 0x0 PUSH20 0xFFFFFFFFFFFFFFFFFFFFFFFFFFFFFFFFFFFFFFFF AND CALLER PUSH20 0xFFFFFFFFFFFFFFFFFFFFFFFFFFFFFFFFFFFFFFFF AND SUB PUSH2 0xE24 JUMPI PUSH1 0x40 MLOAD PUSH32 0x7A795C5600000000000000000000000000000000000000000000000000000000 DUP2 MSTORE PUSH1 0x4 ADD PUSH1 0x40 MLOAD DUP1 SWAP2 SUB SWAP1 REVERT JUMPDEST PUSH1 0x60 PUSH1 0x0 DUP1 SLOAD SWAP1 PUSH2 0x100 EXP SWAP1 DIV PUSH20 0xFFFFFFFFFFFFFFFFFFFFFFFFFFFFFFFFFFFFFFFF AND PUSH20 0xFFFFFFFFFFFFFFFFFFFFFFFFFFFFFFFFFFFFFFFF AND CALLER PUSH20 0xFFFFFFFFFFFFFFFFFFFFFFFFFFFFFFFFFFFFFFFF AND SUB PUSH2 0xED4 JUMPI PUSH1 0x0 PUSH2 0xE84 CALLER PUSH2 0x2D6A JUMP JUMPDEST SWAP1 POP PUSH1 0x1 PUSH1 0x4 SLOAD LT ISZERO PUSH2 0xEC3 JUMPI PUSH1 0x40 MLOAD PUSH32 0x9DF573EA00000000000000000000000000000000000000000000000000000000 DUP2 MSTORE PUSH1 0x4 ADD PUSH1 0x40 MLOAD DUP1 SWAP2 SUB SWAP1 REVERT JUMPDEST PUSH2 0xECC DUP2 PUSH2 0x2DB3 JUMP JUMPDEST SWAP2 POP POP PUSH2 0xF29 JUMP JUMPDEST PUSH1 0x0 PUSH2 0xEDF CALLER PUSH2 0x2D6A JUMP JUMPDEST SWAP1 POP PUSH1 0x1 DUP2 LT ISZERO PUSH2 0xF1C JUMPI PUSH1 0x40 MLOAD PUSH32 0x9DF573EA00000000000000000000000000000000000000000000000000000000 DUP2 MSTORE PUSH1 0x4 ADD PUSH1 0x40 MLOAD DUP1 SWAP2 SUB SWAP1 REVERT JUMPDEST PUSH2 0xF25 DUP2 PUSH2 0x2DB3 JUMP JUMPDEST SWAP2 POP POP JUMPDEST DUP1 SWAP2 POP POP SWAP1 JUMP JUMPDEST PUSH1 0x60 PUSH1 0x0 DUP1 PUSH1 0x1 SWAP1 POP JUMPDEST PUSH1 0x4 SLOAD DUP2 GT PUSH2 0x1066 JUMPI CALLER PUSH20 0xFFFFFFFFFFFFFFFFFFFFFFFFFFFFFFFFFFFFFFFF AND PUSH1 0x2 PUSH1 0x0 DUP1 PUSH1 0x0 SWAP1 SLOAD SWAP1 PUSH2 0x100 EXP SWAP1 DIV PUSH20 0xFFFFFFFFFFFFFFFFFFFFFFFFFFFFFFFFFFFFFFFF AND PUSH20 0xFFFFFFFFFFFFFFFFFFFFFFFFFFFFFFFFFFFFFFFF AND PUSH20 0xFFFFFFFFFFFFFFFFFFFFFFFFFFFFFFFFFFFFFFFF AND DUP2 MSTORE PUSH1 0x20 ADD SWAP1 DUP2 MSTORE PUSH1 0x20 ADD PUSH1 0x0 KECCAK256 PUSH1 0x0 DUP4 DUP2 MSTORE PUSH1 0x20 ADD SWAP1 DUP2 MSTORE PUSH1 0x20 ADD PUSH1 0x0 KECCAK256 PUSH1 0x0 ADD PUSH1 0x0 SWAP1 SLOAD SWAP1 PUSH2 0x100 EXP SWAP1 DIV PUSH20 0xFFFFFFFFFFFFFFFFFFFFFFFFFFFFFFFFFFFFFFFF AND PUSH20 0xFFFFFFFFFFFFFFFFFFFFFFFFFFFFFFFFFFFFFFFF AND EQ PUSH2 0x1045 JUMPI PUSH1 0x40 MLOAD PUSH32 0x8C379A000000000000000000000000000000000000000000000000000000000 DUP2 MSTORE PUSH1 0x4 ADD PUSH2 0x103C SWAP1 PUSH2 0x4708 JUMP JUMPDEST PUSH1 0x40 MLOAD DUP1 SWAP2 SUB SWAP1 REVERT JUMPDEST DUP2 DUP1 PUSH2 0x1050 SWAP1 PUSH2 0x45D9 JUMP JUMPDEST SWAP3 POP POP DUP1 DUP1 PUSH2 0x105E SWAP1 PUSH2 0x45D9 JUMP JUMPDEST SWAP2 POP POP PUSH2 0xF3A JUMP JUMPDEST POP PUSH1 0x0 DUP2 PUSH8 0xFFFFFFFFFFFFFFFF DUP2 GT ISZERO PUSH2 0x1083 JUMPI PUSH2 0x1082 PUSH2 0x3765 JUMP JUMPDEST JUMPDEST PUSH1 0x40 MLOAD SWAP1 DUP1 DUP3 MSTORE DUP1 PUSH1 0x20 MUL PUSH1 0x20 ADD DUP3 ADD PUSH1 0x40 MSTORE DUP1 ISZERO PUSH2 0x10BC JUMPI DUP2 PUSH1 0x20 ADD JUMPDEST PUSH2 0x10A9 PUSH2 0x337F JUMP JUMPDEST DUP2 MSTORE PUSH1 0x20 ADD SWAP1 PUSH1 0x1 SWAP1 SUB SWAP1 DUP2 PUSH2 0x10A1 JUMPI SWAP1 POP JUMPDEST POP SWAP1 POP PUSH1 0x0 DUP1 PUSH1 0x1 SWAP1 POP JUMPDEST PUSH1 0x4 SLOAD DUP2 GT PUSH2 0x1609 JUMPI CALLER PUSH20 0xFFFFFFFFFFFFFFFFFFFFFFFFFFFFFFFFFFFFFFFF AND PUSH1 0x2 PUSH1 0x0 DUP1 PUSH1 0x0 SWAP1 SLOAD SWAP1 PUSH2 0x100 EXP SWAP1 DIV PUSH20 0xFFFFFFFFFFFFFFFFFFFFFFFFFFFFFFFFFFFFFFFF AND PUSH20 0xFFFFFFFFFFFFFFFFFFFFFFFFFFFFFFFFFFFFFFFF AND PUSH20 0xFFFFFFFFFFFFFFFFFFFFFFFFFFFFFFFFFFFFFFFF AND DUP2 MSTORE PUSH1 0x20 ADD SWAP1 DUP2 MSTORE PUSH1 0x20 ADD PUSH1 0x0 KECCAK256 PUSH1 0x0 DUP4 DUP2 MSTORE PUSH1 0x20 ADD SWAP1 DUP2 MSTORE PUSH1 0x20 ADD PUSH1 0x0 KECCAK256 PUSH1 0x0 ADD PUSH1 0x0 SWAP1 SLOAD SWAP1 PUSH2 0x100 EXP SWAP1 DIV PUSH20 0xFFFFFFFFFFFFFFFFFFFFFFFFFFFFFFFFFFFFFFFF AND PUSH20 0xFFFFFFFFFFFFFFFFFFFFFFFFFFFFFFFFFFFFFFFF AND SUB PUSH2 0x15F6 JUMPI PUSH1 0x2 PUSH1 0x0 CALLER PUSH20 0xFFFFFFFFFFFFFFFFFFFFFFFFFFFFFFFFFFFFFFFF AND PUSH20 0xFFFFFFFFFFFFFFFFFFFFFFFFFFFFFFFFFFFFFFFF AND DUP2 MSTORE PUSH1 0x20 ADD SWAP1 DUP2 MSTORE PUSH1 0x20 ADD PUSH1 0x0 KECCAK256 PUSH1 0x0 DUP3 DUP2 MSTORE PUSH1 0x20 ADD SWAP1 DUP2 MSTORE PUSH1 0x20 ADD PUSH1 0x0 KECCAK256 PUSH1 0x40 MLOAD DUP1 PUSH2 0x160 ADD PUSH1 0x40 MSTORE SWAP1 DUP2 PUSH1 0x0 DUP3 ADD PUSH1 0x0 SWAP1 SLOAD SWAP1 PUSH2 0x100 EXP SWAP1 DIV PUSH20 0xFFFFFFFFFFFFFFFFFFFFFFFFFFFFFFFFFFFFFFFF AND PUSH20 0xFFFFFFFFFFFFFFFFFFFFFFFFFFFFFFFFFFFFFFFF AND PUSH20 0xFFFFFFFFFFFFFFFFFFFFFFFFFFFFFFFFFFFFFFFF AND DUP2 MSTORE PUSH1 0x20 ADD PUSH1 0x1 DUP3 ADD SLOAD DUP2 MSTORE PUSH1 0x20 ADD PUSH1 0x2 DUP3 ADD SLOAD DUP2 MSTORE PUSH1 0x20 ADD PUSH1 0x3 DUP3 ADD DUP1 SLOAD PUSH2 0x126D SWAP1 PUSH2 0x4087 JUMP JUMPDEST DUP1 PUSH1 0x1F ADD PUSH1 0x20 DUP1 SWAP2 DIV MUL PUSH1 0x20 ADD PUSH1 0x40 MLOAD SWAP1 DUP2 ADD PUSH1 0x40 MSTORE DUP1 SWAP3 SWAP2 SWAP1 DUP2 DUP2 MSTORE PUSH1 0x20 ADD DUP3 DUP1 SLOAD PUSH2 0x1299 SWAP1 PUSH2 0x4087 JUMP JUMPDEST DUP1 ISZERO PUSH2 0x12E6 JUMPI DUP1 PUSH1 0x1F LT PUSH2 0x12BB JUMPI PUSH2 0x100 DUP1 DUP4 SLOAD DIV MUL DUP4 MSTORE SWAP2 PUSH1 0x20 ADD SWAP2 PUSH2 0x12E6 JUMP JUMPDEST DUP3 ADD SWAP2 SWAP1 PUSH1 0x0 MSTORE PUSH1 0x20 PUSH1 0x0 KECCAK256 SWAP1 JUMPDEST DUP2 SLOAD DUP2 MSTORE SWAP1 PUSH1 0x1 ADD SWAP1 PUSH1 0x20 ADD DUP1 DUP4 GT PUSH2 0x12C9 JUMPI DUP3 SWAP1 SUB PUSH1 0x1F AND DUP3 ADD SWAP2 JUMPDEST POP POP POP POP POP DUP2 MSTORE PUSH1 0x20 ADD PUSH1 0x4 DUP3 ADD DUP1 SLOAD PUSH2 0x12FF SWAP1 PUSH2 0x4087 JUMP JUMPDEST DUP1 PUSH1 0x1F ADD PUSH1 0x20 DUP1 SWAP2 DIV MUL PUSH1 0x20 ADD PUSH1 0x40 MLOAD SWAP1 DUP2 ADD PUSH1 0x40 MSTORE DUP1 SWAP3 SWAP2 SWAP1 DUP2 DUP2 MSTORE PUSH1 0x20 ADD DUP3 DUP1 SLOAD PUSH2 0x132B SWAP1 PUSH2 0x4087 JUMP JUMPDEST DUP1 ISZERO PUSH2 0x1378 JUMPI DUP1 PUSH1 0x1F LT PUSH2 0x134D JUMPI PUSH2 0x100 DUP1 DUP4 SLOAD DIV MUL DUP4 MSTORE SWAP2 PUSH1 0x20 ADD SWAP2 PUSH2 0x1378 JUMP JUMPDEST DUP3 ADD SWAP2 SWAP1 PUSH1 0x0 MSTORE PUSH1 0x20 PUSH1 0x0 KECCAK256 SWAP1 JUMPDEST DUP2 SLOAD DUP2 MSTORE SWAP1 PUSH1 0x1 ADD SWAP1 PUSH1 0x20 ADD DUP1 DUP4 GT PUSH2 0x135B JUMPI DUP3 SWAP1 SUB PUSH1 0x1F AND DUP3 ADD SWAP2 JUMPDEST POP POP POP POP POP DUP2 MSTORE PUSH1 0x20 ADD PUSH1 0x5 DUP3 ADD DUP1 SLOAD PUSH2 0x1391 SWAP1 PUSH2 0x4087 JUMP JUMPDEST DUP1 PUSH1 0x1F ADD PUSH1 0x20 DUP1 SWAP2 DIV MUL PUSH1 0x20 ADD PUSH1 0x40 MLOAD SWAP1 DUP2 ADD PUSH1 0x40 MSTORE DUP1 SWAP3 SWAP2 SWAP1 DUP2 DUP2 MSTORE PUSH1 0x20 ADD DUP3 DUP1 SLOAD PUSH2 0x13BD SWAP1 PUSH2 0x4087 JUMP JUMPDEST DUP1 ISZERO PUSH2 0x140A JUMPI DUP1 PUSH1 0x1F LT PUSH2 0x13DF JUMPI PUSH2 0x100 DUP1 DUP4 SLOAD DIV MUL DUP4 MSTORE SWAP2 PUSH1 0x20 ADD SWAP2 PUSH2 0x140A JUMP JUMPDEST DUP3 ADD SWAP2 SWAP1 PUSH1 0x0 MSTORE PUSH1 0x20 PUSH1 0x0 KECCAK256 SWAP1 JUMPDEST DUP2 SLOAD DUP2 MSTORE SWAP1 PUSH1 0x1 ADD SWAP1 PUSH1 0x20 ADD DUP1 DUP4 GT PUSH2 0x13ED JUMPI DUP3 SWAP1 SUB PUSH1 0x1F AND DUP3 ADD SWAP2 JUMPDEST POP POP POP POP POP DUP2 MSTORE PUSH1 0x20 ADD PUSH1 0x6 DUP3 ADD PUSH1 0x0 SWAP1 SLOAD SWAP1 PUSH2 0x100 EXP SWAP1 DIV PUSH1 0xFF AND ISZERO ISZERO ISZERO ISZERO DUP2 MSTORE PUSH1 0x20 ADD PUSH1 0x6 DUP3 ADD PUSH1 0x1 SWAP1 SLOAD SWAP1 PUSH2 0x100 EXP SWAP1 DIV PUSH1 0xFF AND ISZERO ISZERO ISZERO ISZERO DUP2 MSTORE PUSH1 0x20 ADD PUSH1 0x6 DUP3 ADD PUSH1 0x2 SWAP1 SLOAD SWAP1 PUSH2 0x100 EXP SWAP1 DIV PUSH1 0xFF AND ISZERO ISZERO ISZERO ISZERO DUP2 MSTORE PUSH1 0x20 ADD PUSH1 0x7 DUP3 ADD DUP1 SLOAD DUP1 PUSH1 0x20 MUL PUSH1 0x20 ADD PUSH1 0x40 MLOAD SWAP1 DUP2 ADD PUSH1 0x40 MSTORE DUP1 SWAP3 SWAP2 SWAP1 DUP2 DUP2 MSTORE PUSH1 0x20 ADD PUSH1 0x0 SWAP1 JUMPDEST DUP3 DUP3 LT ISZERO PUSH2 0x15B7 JUMPI DUP4 DUP3 SWAP1 PUSH1 0x0 MSTORE PUSH1 0x20 PUSH1 0x0 KECCAK256 SWAP1 PUSH1 0x4 MUL ADD PUSH1 0x40 MLOAD DUP1 PUSH1 0xA0 ADD PUSH1 0x40 MSTORE SWAP1 DUP2 PUSH1 0x0 DUP3 ADD DUP1 SLOAD PUSH2 0x14BC SWAP1 PUSH2 0x4087 JUMP JUMPDEST DUP1 PUSH1 0x1F ADD PUSH1 0x20 DUP1 SWAP2 DIV MUL PUSH1 0x20 ADD PUSH1 0x40 MLOAD SWAP1 DUP2 ADD PUSH1 0x40 MSTORE DUP1 SWAP3 SWAP2 SWAP1 DUP2 DUP2 MSTORE PUSH1 0x20 ADD DUP3 DUP1 SLOAD PUSH2 0x14E8 SWAP1 PUSH2 0x4087 JUMP JUMPDEST DUP1 ISZERO PUSH2 0x1535 JUMPI DUP1 PUSH1 0x1F LT PUSH2 0x150A JUMPI PUSH2 0x100 DUP1 DUP4 SLOAD DIV MUL DUP4 MSTORE SWAP2 PUSH1 0x20 ADD SWAP2 PUSH2 0x1535 JUMP JUMPDEST DUP3 ADD SWAP2 SWAP1 PUSH1 0x0 MSTORE PUSH1 0x20 PUSH1 0x0 KECCAK256 SWAP1 JUMPDEST DUP2 SLOAD DUP2 MSTORE SWAP1 PUSH1 0x1 ADD SWAP1 PUSH1 0x20 ADD DUP1 DUP4 GT PUSH2 0x1518 JUMPI DUP3 SWAP1 SUB PUSH1 0x1F AND DUP3 ADD SWAP2 JUMPDEST POP POP POP POP POP DUP2 MSTORE PUSH1 0x20 ADD PUSH1 0x1 DUP3 ADD SLOAD DUP2 MSTORE PUSH1 0x20 ADD PUSH1 0x2 DUP3 ADD PUSH1 0x0 SWAP1 SLOAD SWAP1 PUSH2 0x100 EXP SWAP1 DIV PUSH1 0xFF AND PUSH1 0x2 DUP2 GT ISZERO PUSH2 0x156D JUMPI PUSH2 0x156C PUSH2 0x3A80 JUMP JUMPDEST JUMPDEST PUSH1 0x2 DUP2 GT ISZERO PUSH2 0x157F JUMPI PUSH2 0x157E PUSH2 0x3A80 JUMP JUMPDEST JUMPDEST DUP2 MSTORE PUSH1 0x20 ADD PUSH1 0x2 DUP3 ADD PUSH1 0x1 SWAP1 SLOAD SWAP1 PUSH2 0x100 EXP SWAP1 DIV PUSH1 0xFF AND ISZERO ISZERO ISZERO ISZERO DUP2 MSTORE PUSH1 0x20 ADD PUSH1 0x3 DUP3 ADD SLOAD DUP2 MSTORE POP POP DUP2 MSTORE PUSH1 0x20 ADD SWAP1 PUSH1 0x1 ADD SWAP1 PUSH2 0x1489 JUMP JUMPDEST POP POP POP POP DUP2 MSTORE PUSH1 0x20 ADD PUSH1 0x8 DUP3 ADD SLOAD DUP2 MSTORE POP POP DUP4 DUP4 DUP2 MLOAD DUP2 LT PUSH2 0x15DC JUMPI PUSH2 0x15DB PUSH2 0x468D JUMP JUMPDEST JUMPDEST PUSH1 0x20 MUL PUSH1 0x20 ADD ADD DUP2 SWAP1 MSTORE POP DUP2 DUP1 PUSH2 0x15F2 SWAP1 PUSH2 0x45D9 JUMP JUMPDEST SWAP3 POP POP JUMPDEST DUP1 DUP1 PUSH2 0x1601 SWAP1 PUSH2 0x45D9 JUMP JUMPDEST SWAP2 POP POP PUSH2 0x10C7 JUMP JUMPDEST POP DUP2 SWAP4 POP POP POP POP SWAP1 JUMP JUMPDEST PUSH2 0x161B PUSH2 0x337F JUMP JUMPDEST PUSH1 0x0 PUSH20 0xFFFFFFFFFFFFFFFFFFFFFFFFFFFFFFFFFFFFFFFF AND CALLER PUSH20 0xFFFFFFFFFFFFFFFFFFFFFFFFFFFFFFFFFFFFFFFF AND SUB PUSH2 0x1681 JUMPI PUSH1 0x40 MLOAD PUSH32 0x7A795C5600000000000000000000000000000000000000000000000000000000 DUP2 MSTORE PUSH1 0x4 ADD PUSH1 0x40 MLOAD DUP1 SWAP2 SUB SWAP1 REVERT JUMPDEST PUSH1 0x2 PUSH1 0x0 DUP1 PUSH1 0x0 SWAP1 SLOAD SWAP1 PUSH2 0x100 EXP SWAP1 DIV PUSH20 0xFFFFFFFFFFFFFFFFFFFFFFFFFFFFFFFFFFFFFFFF AND PUSH20 0xFFFFFFFFFFFFFFFFFFFFFFFFFFFFFFFFFFFFFFFF AND PUSH20 0xFFFFFFFFFFFFFFFFFFFFFFFFFFFFFFFFFFFFFFFF AND DUP2 MSTORE PUSH1 0x20 ADD SWAP1 DUP2 MSTORE PUSH1 0x20 ADD PUSH1 0x0 KECCAK256 PUSH1 0x0 DUP4 DUP2 MSTORE PUSH1 0x20 ADD SWAP1 DUP2 MSTORE PUSH1 0x20 ADD PUSH1 0x0 KECCAK256 PUSH1 0x40 MLOAD DUP1 PUSH2 0x160 ADD PUSH1 0x40 MSTORE SWAP1 DUP2 PUSH1 0x0 DUP3 ADD PUSH1 0x0 SWAP1 SLOAD SWAP1 PUSH2 0x100 EXP SWAP1 DIV PUSH20 0xFFFFFFFFFFFFFFFFFFFFFFFFFFFFFFFFFFFFFFFF AND PUSH20 0xFFFFFFFFFFFFFFFFFFFFFFFFFFFFFFFFFFFFFFFF AND PUSH20 0xFFFFFFFFFFFFFFFFFFFFFFFFFFFFFFFFFFFFFFFF AND DUP2 MSTORE PUSH1 0x20 ADD PUSH1 0x1 DUP3 ADD SLOAD DUP2 MSTORE PUSH1 0x20 ADD PUSH1 0x2 DUP3 ADD SLOAD DUP2 MSTORE PUSH1 0x20 ADD PUSH1 0x3 DUP3 ADD DUP1 SLOAD PUSH2 0x1778 SWAP1 PUSH2 0x4087 JUMP JUMPDEST DUP1 PUSH1 0x1F ADD PUSH1 0x20 DUP1 SWAP2 DIV MUL PUSH1 0x20 ADD PUSH1 0x40 MLOAD SWAP1 DUP2 ADD PUSH1 0x40 MSTORE DUP1 SWAP3 SWAP2 SWAP1 DUP2 DUP2 MSTORE PUSH1 0x20 ADD DUP3 DUP1 SLOAD PUSH2 0x17A4 SWAP1 PUSH2 0x4087 JUMP JUMPDEST DUP1 ISZERO PUSH2 0x17F1 JUMPI DUP1 PUSH1 0x1F LT PUSH2 0x17C6 JUMPI PUSH2 0x100 DUP1 DUP4 SLOAD DIV MUL DUP4 MSTORE SWAP2 PUSH1 0x20 ADD SWAP2 PUSH2 0x17F1 JUMP JUMPDEST DUP3 ADD SWAP2 SWAP1 PUSH1 0x0 MSTORE PUSH1 0x20 PUSH1 0x0 KECCAK256 SWAP1 JUMPDEST DUP2 SLOAD DUP2 MSTORE SWAP1 PUSH1 0x1 ADD SWAP1 PUSH1 0x20 ADD DUP1 DUP4 GT PUSH2 0x17D4 JUMPI DUP3 SWAP1 SUB PUSH1 0x1F AND DUP3 ADD SWAP2 JUMPDEST POP POP POP POP POP DUP2 MSTORE PUSH1 0x20 ADD PUSH1 0x4 DUP3 ADD DUP1 SLOAD PUSH2 0x180A SWAP1 PUSH2 0x4087 JUMP JUMPDEST DUP1 PUSH1 0x1F ADD PUSH1 0x20 DUP1 SWAP2 DIV MUL PUSH1 0x20 ADD PUSH1 0x40 MLOAD SWAP1 DUP2 ADD PUSH1 0x40 MSTORE DUP1 SWAP3 SWAP2 SWAP1 DUP2 DUP2 MSTORE PUSH1 0x20 ADD DUP3 DUP1 SLOAD PUSH2 0x1836 SWAP1 PUSH2 0x4087 JUMP JUMPDEST DUP1 ISZERO PUSH2 0x1883 JUMPI DUP1 PUSH1 0x1F LT PUSH2 0x1858 JUMPI PUSH2 0x100 DUP1 DUP4 SLOAD DIV MUL DUP4 MSTORE SWAP2 PUSH1 0x20 ADD SWAP2 PUSH2 0x1883 JUMP JUMPDEST DUP3 ADD SWAP2 SWAP1 PUSH1 0x0 MSTORE PUSH1 0x20 PUSH1 0x0 KECCAK256 SWAP1 JUMPDEST DUP2 SLOAD DUP2 MSTORE SWAP1 PUSH1 0x1 ADD SWAP1 PUSH1 0x20 ADD DUP1 DUP4 GT PUSH2 0x1866 JUMPI DUP3 SWAP1 SUB PUSH1 0x1F AND DUP3 ADD SWAP2 JUMPDEST POP POP POP POP POP DUP2 MSTORE PUSH1 0x20 ADD PUSH1 0x5 DUP3 ADD DUP1 SLOAD PUSH2 0x189C SWAP1 PUSH2 0x4087 JUMP JUMPDEST DUP1 PUSH1 0x1F ADD PUSH1 0x20 DUP1 SWAP2 DIV MUL PUSH1 0x20 ADD PUSH1 0x40 MLOAD SWAP1 DUP2 ADD PUSH1 0x40 MSTORE DUP1 SWAP3 SWAP2 SWAP1 DUP2 DUP2 MSTORE PUSH1 0x20 ADD DUP3 DUP1 SLOAD PUSH2 0x18C8 SWAP1 PUSH2 0x4087 JUMP JUMPDEST DUP1 ISZERO PUSH2 0x1915 JUMPI DUP1 PUSH1 0x1F LT PUSH2 0x18EA JUMPI PUSH2 0x100 DUP1 DUP4 SLOAD DIV MUL DUP4 MSTORE SWAP2 PUSH1 0x20 ADD SWAP2 PUSH2 0x1915 JUMP JUMPDEST DUP3 ADD SWAP2 SWAP1 PUSH1 0x0 MSTORE PUSH1 0x20 PUSH1 0x0 KECCAK256 SWAP1 JUMPDEST DUP2 SLOAD DUP2 MSTORE SWAP1 PUSH1 0x1 ADD SWAP1 PUSH1 0x20 ADD DUP1 DUP4 GT PUSH2 0x18F8 JUMPI DUP3 SWAP1 SUB PUSH1 0x1F AND DUP3 ADD SWAP2 JUMPDEST POP POP POP POP POP DUP2 MSTORE PUSH1 0x20 ADD PUSH1 0x6 DUP3 ADD PUSH1 0x0 SWAP1 SLOAD SWAP1 PUSH2 0x100 EXP SWAP1 DIV PUSH1 0xFF AND ISZERO ISZERO ISZERO ISZERO DUP2 MSTORE PUSH1 0x20 ADD PUSH1 0x6 DUP3 ADD PUSH1 0x1 SWAP1 SLOAD SWAP1 PUSH2 0x100 EXP SWAP1 DIV PUSH1 0xFF AND ISZERO ISZERO ISZERO ISZERO DUP2 MSTORE PUSH1 0x20 ADD PUSH1 0x6 DUP3 ADD PUSH1 0x2 SWAP1 SLOAD SWAP1 PUSH2 0x100 EXP SWAP1 DIV PUSH1 0xFF AND ISZERO ISZERO ISZERO ISZERO DUP2 MSTORE PUSH1 0x20 ADD PUSH1 0x7 DUP3 ADD DUP1 SLOAD DUP1 PUSH1 0x20 MUL PUSH1 0x20 ADD PUSH1 0x40 MLOAD SWAP1 DUP2 ADD PUSH1 0x40 MSTORE DUP1 SWAP3 SWAP2 SWAP1 DUP2 DUP2 MSTORE PUSH1 0x20 ADD PUSH1 0x0 SWAP1 JUMPDEST DUP3 DUP3 LT ISZERO PUSH2 0x1AC2 JUMPI DUP4 DUP3 SWAP1 PUSH1 0x0 MSTORE PUSH1 0x20 PUSH1 0x0 KECCAK256 SWAP1 PUSH1 0x4 MUL ADD PUSH1 0x40 MLOAD DUP1 PUSH1 0xA0 ADD PUSH1 0x40 MSTORE SWAP1 DUP2 PUSH1 0x0 DUP3 ADD DUP1 SLOAD PUSH2 0x19C7 SWAP1 PUSH2 0x4087 JUMP JUMPDEST DUP1 PUSH1 0x1F ADD PUSH1 0x20 DUP1 SWAP2 DIV MUL PUSH1 0x20 ADD PUSH1 0x40 MLOAD SWAP1 DUP2 ADD PUSH1 0x40 MSTORE DUP1 SWAP3 SWAP2 SWAP1 DUP2 DUP2 MSTORE PUSH1 0x20 ADD DUP3 DUP1 SLOAD PUSH2 0x19F3 SWAP1 PUSH2 0x4087 JUMP JUMPDEST DUP1 ISZERO PUSH2 0x1A40 JUMPI DUP1 PUSH1 0x1F LT PUSH2 0x1A15 JUMPI PUSH2 0x100 DUP1 DUP4 SLOAD DIV MUL DUP4 MSTORE SWAP2 PUSH1 0x20 ADD SWAP2 PUSH2 0x1A40 JUMP JUMPDEST DUP3 ADD SWAP2 SWAP1 PUSH1 0x0 MSTORE PUSH1 0x20 PUSH1 0x0 KECCAK256 SWAP1 JUMPDEST DUP2 SLOAD DUP2 MSTORE SWAP1 PUSH1 0x1 ADD SWAP1 PUSH1 0x20 ADD DUP1 DUP4 GT PUSH2 0x1A23 JUMPI DUP3 SWAP1 SUB PUSH1 0x1F AND DUP3 ADD SWAP2 JUMPDEST POP POP POP POP POP DUP2 MSTORE PUSH1 0x20 ADD PUSH1 0x1 DUP3 ADD SLOAD DUP2 MSTORE PUSH1 0x20 ADD PUSH1 0x2 DUP3 ADD PUSH1 0x0 SWAP1 SLOAD SWAP1 PUSH2 0x100 EXP SWAP1 DIV PUSH1 0xFF AND PUSH1 0x2 DUP2 GT ISZERO PUSH2 0x1A78 JUMPI PUSH2 0x1A77 PUSH2 0x3A80 JUMP JUMPDEST JUMPDEST PUSH1 0x2 DUP2 GT ISZERO PUSH2 0x1A8A JUMPI PUSH2 0x1A89 PUSH2 0x3A80 JUMP JUMPDEST JUMPDEST DUP2 MSTORE PUSH1 0x20 ADD PUSH1 0x2 DUP3 ADD PUSH1 0x1 SWAP1 SLOAD SWAP1 PUSH2 0x100 EXP SWAP1 DIV PUSH1 0xFF AND ISZERO ISZERO ISZERO ISZERO DUP2 MSTORE PUSH1 0x20 ADD PUSH1 0x3 DUP3 ADD SLOAD DUP2 MSTORE POP POP DUP2 MSTORE PUSH1 0x20 ADD SWAP1 PUSH1 0x1 ADD SWAP1 PUSH2 0x1994 JUMP JUMPDEST POP POP POP POP DUP2 MSTORE PUSH1 0x20 ADD PUSH1 0x8 DUP3 ADD SLOAD DUP2 MSTORE POP POP SWAP1 POP SWAP2 SWAP1 POP JUMP JUMPDEST PUSH1 0x60 PUSH1 0x2 PUSH1 0x0 CALLER PUSH20 0xFFFFFFFFFFFFFFFFFFFFFFFFFFFFFFFFFFFFFFFF AND PUSH20 0xFFFFFFFFFFFFFFFFFFFFFFFFFFFFFFFFFFFFFFFF AND DUP2 MSTORE PUSH1 0x20 ADD SWAP1 DUP2 MSTORE PUSH1 0x20 ADD PUSH1 0x0 KECCAK256 PUSH1 0x0 DUP4 DUP2 MSTORE PUSH1 0x20 ADD SWAP1 DUP2 MSTORE PUSH1 0x20 ADD PUSH1 0x0 KECCAK256 PUSH1 0x7 ADD DUP1 SLOAD DUP1 PUSH1 0x20 MUL PUSH1 0x20 ADD PUSH1 0x40 MLOAD SWAP1 DUP2 ADD PUSH1 0x40 MSTORE DUP1 SWAP3 SWAP2 SWAP1 DUP2 DUP2 MSTORE PUSH1 0x20 ADD PUSH1 0x0 SWAP1 JUMPDEST DUP3 DUP3 LT ISZERO PUSH2 0x1C7E JUMPI DUP4 DUP3 SWAP1 PUSH1 0x0 MSTORE PUSH1 0x20 PUSH1 0x0 KECCAK256 SWAP1 PUSH1 0x4 MUL ADD PUSH1 0x40 MLOAD DUP1 PUSH1 0xA0 ADD PUSH1 0x40 MSTORE SWAP1 DUP2 PUSH1 0x0 DUP3 ADD DUP1 SLOAD PUSH2 0x1B83 SWAP1 PUSH2 0x4087 JUMP JUMPDEST DUP1 PUSH1 0x1F ADD PUSH1 0x20 DUP1 SWAP2 DIV MUL PUSH1 0x20 ADD PUSH1 0x40 MLOAD SWAP1 DUP2 ADD PUSH1 0x40 MSTORE DUP1 SWAP3 SWAP2 SWAP1 DUP2 DUP2 MSTORE PUSH1 0x20 ADD DUP3 DUP1 SLOAD PUSH2 0x1BAF SWAP1 PUSH2 0x4087 JUMP JUMPDEST DUP1 ISZERO PUSH2 0x1BFC JUMPI DUP1 PUSH1 0x1F LT PUSH2 0x1BD1 JUMPI PUSH2 0x100 DUP1 DUP4 SLOAD DIV MUL DUP4 MSTORE SWAP2 PUSH1 0x20 ADD SWAP2 PUSH2 0x1BFC JUMP JUMPDEST DUP3 ADD SWAP2 SWAP1 PUSH1 0x0 MSTORE PUSH1 0x20 PUSH1 0x0 KECCAK256 SWAP1 JUMPDEST DUP2 SLOAD DUP2 MSTORE SWAP1 PUSH1 0x1 ADD SWAP1 PUSH1 0x20 ADD DUP1 DUP4 GT PUSH2 0x1BDF JUMPI DUP3 SWAP1 SUB PUSH1 0x1F AND DUP3 ADD SWAP2 JUMPDEST POP POP POP POP POP DUP2 MSTORE PUSH1 0x20 ADD PUSH1 0x1 DUP3 ADD SLOAD DUP2 MSTORE PUSH1 0x20 ADD PUSH1 0x2 DUP3 ADD PUSH1 0x0 SWAP1 SLOAD SWAP1 PUSH2 0x100 EXP SWAP1 DIV PUSH1 0xFF AND PUSH1 0x2 DUP2 GT ISZERO PUSH2 0x1C34 JUMPI PUSH2 0x1C33 PUSH2 0x3A80 JUMP JUMPDEST JUMPDEST PUSH1 0x2 DUP2 GT ISZERO PUSH2 0x1C46 JUMPI PUSH2 0x1C45 PUSH2 0x3A80 JUMP JUMPDEST JUMPDEST DUP2 MSTORE PUSH1 0x20 ADD PUSH1 0x2 DUP3 ADD PUSH1 0x1 SWAP1 SLOAD SWAP1 PUSH2 0x100 EXP SWAP1 DIV PUSH1 0xFF AND ISZERO ISZERO ISZERO ISZERO DUP2 MSTORE PUSH1 0x20 ADD PUSH1 0x3 DUP3 ADD SLOAD DUP2 MSTORE POP POP DUP2 MSTORE PUSH1 0x20 ADD SWAP1 PUSH1 0x1 ADD SWAP1 PUSH2 0x1B50 JUMP JUMPDEST POP POP POP POP SWAP1 POP SWAP2 SWAP1 POP JUMP JUMPDEST PUSH1 0x3 PUSH1 0x20 MSTORE DUP1 PUSH1 0x0 MSTORE PUSH1 0x40 PUSH1 0x0 KECCAK256 PUSH1 0x0 SWAP2 POP SWAP1 POP SLOAD DUP2 JUMP JUMPDEST PUSH1 0x0 PUSH1 0x2 PUSH1 0x0 CALLER PUSH20 0xFFFFFFFFFFFFFFFFFFFFFFFFFFFFFFFFFFFFFFFF AND PUSH20 0xFFFFFFFFFFFFFFFFFFFFFFFFFFFFFFFFFFFFFFFF AND DUP2 MSTORE PUSH1 0x20 ADD SWAP1 DUP2 MSTORE PUSH1 0x20 ADD PUSH1 0x0 KECCAK256 PUSH1 0x0 DUP5 DUP2 MSTORE PUSH1 0x20 ADD SWAP1 DUP2 MSTORE PUSH1 0x20 ADD PUSH1 0x0 KECCAK256 SWAP1 POP DUP1 PUSH1 0x7 ADD DUP1 SLOAD SWAP1 POP DUP3 LT PUSH2 0x1D3E JUMPI PUSH1 0x40 MLOAD PUSH32 0x8C379A000000000000000000000000000000000000000000000000000000000 DUP2 MSTORE PUSH1 0x4 ADD PUSH2 0x1D35 SWAP1 PUSH2 0x466D JUMP JUMPDEST PUSH1 0x40 MLOAD DUP1 SWAP2 SUB SWAP1 REVERT JUMPDEST PUSH1 0x0 DUP2 PUSH1 0x7 ADD DUP4 DUP2 SLOAD DUP2 LT PUSH2 0x1D56 JUMPI PUSH2 0x1D55 PUSH2 0x468D JUMP JUMPDEST JUMPDEST SWAP1 PUSH1 0x0 MSTORE PUSH1 0x20 PUSH1 0x0 KECCAK256 SWAP1 PUSH1 0x4 MUL ADD SWAP1 POP PUSH1 0x1 DUP2 PUSH1 0x2 ADD PUSH1 0x0 PUSH2 0x100 EXP DUP2 SLOAD DUP2 PUSH1 0xFF MUL NOT AND SWAP1 DUP4 PUSH1 0x2 DUP2 GT ISZERO PUSH2 0x1D8E JUMPI PUSH2 0x1D8D PUSH2 0x3A80 JUMP JUMPDEST JUMPDEST MUL OR SWAP1 SSTORE POP DUP3 DUP5 PUSH32 0x1B7218C0AC23EA9CBE4DF603D2B340FBF469A115B73EA3D11460727F445D6BE1 PUSH1 0x40 MLOAD PUSH1 0x40 MLOAD DUP1 SWAP2 SUB SWAP1 LOG3 POP POP POP POP JUMP JUMPDEST PUSH1 0x0 DUP1 SLOAD SWAP1 PUSH2 0x100 EXP SWAP1 DIV PUSH20 0xFFFFFFFFFFFFFFFFFFFFFFFFFFFFFFFFFFFFFFFF AND DUP2 JUMP JUMPDEST PUSH1 0x0 PUSH20 0xFFFFFFFFFFFFFFFFFFFFFFFFFFFFFFFFFFFFFFFF AND CALLER PUSH20 0xFFFFFFFFFFFFFFFFFFFFFFFFFFFFFFFFFFFFFFFF AND SUB PUSH2 0x1E51 JUMPI PUSH1 0x40 MLOAD PUSH32 0x7A795C5600000000000000000000000000000000000000000000000000000000 DUP2 MSTORE PUSH1 0x4 ADD PUSH1 0x40 MLOAD DUP1 SWAP2 SUB SWAP1 REVERT JUMPDEST PUSH1 0x0 PUSH1 0x2 PUSH1 0x0 DUP1 PUSH1 0x0 SWAP1 SLOAD SWAP1 PUSH2 0x100 EXP SWAP1 DIV PUSH20 0xFFFFFFFFFFFFFFFFFFFFFFFFFFFFFFFFFFFFFFFF AND PUSH20 0xFFFFFFFFFFFFFFFFFFFFFFFFFFFFFFFFFFFFFFFF AND PUSH20 0xFFFFFFFFFFFFFFFFFFFFFFFFFFFFFFFFFFFFFFFF AND DUP2 MSTORE PUSH1 0x20 ADD SWAP1 DUP2 MSTORE PUSH1 0x20 ADD PUSH1 0x0 KECCAK256 PUSH1 0x0 DUP4 DUP2 MSTORE PUSH1 0x20 ADD SWAP1 DUP2 MSTORE PUSH1 0x20 ADD PUSH1 0x0 KECCAK256 SWAP1 POP DUP1 PUSH1 0x0 ADD PUSH1 0x0 SWAP1 SLOAD SWAP1 PUSH2 0x100 EXP SWAP1 DIV PUSH20 0xFFFFFFFFFFFFFFFFFFFFFFFFFFFFFFFFFFFFFFFF AND PUSH20 0xFFFFFFFFFFFFFFFFFFFFFFFFFFFFFFFFFFFFFFFF AND CALLER PUSH20 0xFFFFFFFFFFFFFFFFFFFFFFFFFFFFFFFFFFFFFFFF AND EQ PUSH2 0x1F4F JUMPI PUSH1 0x40 MLOAD PUSH32 0x6810116800000000000000000000000000000000000000000000000000000000 DUP2 MSTORE PUSH1 0x4 ADD PUSH1 0x40 MLOAD DUP1 SWAP2 SUB SWAP1 REVERT JUMPDEST PUSH1 0x0 DUP2 PUSH1 0x1 ADD SLOAD SUB PUSH2 0x1F8D JUMPI PUSH1 0x40 MLOAD PUSH32 0x7EED038200000000000000000000000000000000000000000000000000000000 DUP2 MSTORE PUSH1 0x4 ADD PUSH1 0x40 MLOAD DUP1 SWAP2 SUB SWAP1 REVERT JUMPDEST PUSH1 0x0 DUP2 PUSH1 0x7 ADD DUP1 SLOAD SWAP1 POP SWAP1 POP PUSH1 0x0 PUSH1 0x1 PUSH1 0x0 SWAP1 SLOAD SWAP1 PUSH2 0x100 EXP SWAP1 DIV PUSH20 0xFFFFFFFFFFFFFFFFFFFFFFFFFFFFFFFFFFFFFFFF AND PUSH20 0xFFFFFFFFFFFFFFFFFFFFFFFFFFFFFFFFFFFFFFFF AND PUSH4 0x70A08231 CALLER PUSH1 0x40 MLOAD DUP3 PUSH4 0xFFFFFFFF AND PUSH1 0xE0 SHL DUP2 MSTORE PUSH1 0x4 ADD PUSH2 0x1FF6 SWAP2 SWAP1 PUSH2 0x3FBA JUMP JUMPDEST PUSH1 0x20 PUSH1 0x40 MLOAD DUP1 DUP4 SUB DUP2 DUP7 GAS STATICCALL ISZERO DUP1 ISZERO PUSH2 0x2013 JUMPI RETURNDATASIZE PUSH1 0x0 DUP1 RETURNDATACOPY RETURNDATASIZE PUSH1 0x0 REVERT JUMPDEST POP POP POP POP PUSH1 0x40 MLOAD RETURNDATASIZE PUSH1 0x1F NOT PUSH1 0x1F DUP3 ADD AND DUP3 ADD DUP1 PUSH1 0x40 MSTORE POP DUP2 ADD SWAP1 PUSH2 0x2037 SWAP2 SWAP1 PUSH2 0x473D JUMP JUMPDEST SWAP1 POP PUSH1 0x0 JUMPDEST DUP3 DUP2 LT ISZERO PUSH2 0x262A JUMPI PUSH1 0x0 ISZERO ISZERO DUP5 PUSH1 0x7 ADD DUP3 DUP2 SLOAD DUP2 LT PUSH2 0x205E JUMPI PUSH2 0x205D PUSH2 0x468D JUMP JUMPDEST JUMPDEST SWAP1 PUSH1 0x0 MSTORE PUSH1 0x20 PUSH1 0x0 KECCAK256 SWAP1 PUSH1 0x4 MUL ADD PUSH1 0x2 ADD PUSH1 0x1 SWAP1 SLOAD SWAP1 PUSH2 0x100 EXP SWAP1 DIV PUSH1 0xFF AND ISZERO ISZERO SUB PUSH2 0x261D JUMPI DUP4 PUSH1 0x7 ADD DUP2 DUP2 SLOAD DUP2 LT PUSH2 0x209A JUMPI PUSH2 0x2099 PUSH2 0x468D JUMP JUMPDEST JUMPDEST SWAP1 PUSH1 0x0 MSTORE PUSH1 0x20 PUSH1 0x0 KECCAK256 SWAP1 PUSH1 0x4 MUL ADD PUSH1 0x3 ADD SLOAD TIMESTAMP GT ISZERO DUP1 ISZERO PUSH2 0x20BF JUMPI POP DUP4 PUSH1 0x2 ADD SLOAD TIMESTAMP GT ISZERO JUMPDEST DUP1 ISZERO PUSH2 0x2122 JUMPI POP PUSH1 0x2 DUP1 DUP2 GT ISZERO PUSH2 0x20D9 JUMPI PUSH2 0x20D8 PUSH2 0x3A80 JUMP JUMPDEST JUMPDEST DUP5 PUSH1 0x7 ADD DUP3 DUP2 SLOAD DUP2 LT PUSH2 0x20EF JUMPI PUSH2 0x20EE PUSH2 0x468D JUMP JUMPDEST JUMPDEST SWAP1 PUSH1 0x0 MSTORE PUSH1 0x20 PUSH1 0x0 KECCAK256 SWAP1 PUSH1 0x4 MUL ADD PUSH1 0x2 ADD PUSH1 0x0 SWAP1 SLOAD SWAP1 PUSH2 0x100 EXP SWAP1 DIV PUSH1 0xFF AND PUSH1 0x2 DUP2 GT ISZERO PUSH2 0x2120 JUMPI PUSH2 0x211F PUSH2 0x3A80 JUMP JUMPDEST JUMPDEST EQ JUMPDEST ISZERO PUSH2 0x2252 JUMPI PUSH1 0x1 ISZERO ISZERO DUP5 PUSH1 0x7 ADD DUP3 DUP2 SLOAD DUP2 LT PUSH2 0x2141 JUMPI PUSH2 0x2140 PUSH2 0x468D JUMP JUMPDEST JUMPDEST SWAP1 PUSH1 0x0 MSTORE PUSH1 0x20 PUSH1 0x0 KECCAK256 SWAP1 PUSH1 0x4 MUL ADD PUSH1 0x2 ADD PUSH1 0x1 SWAP1 SLOAD SWAP1 PUSH2 0x100 EXP SWAP1 POP POP POP PUSH1 0x1 PUSH1 0x0 SWAP1 SLOAD SWAP1 PUSH2 0x100 EXP SWAP1 DIV PUSH20 0xFFFFFFFFFFFFFFFFFFFFFFFFFFFFFFFFFFFFFFFF AND PUSH20 0xFFFFFFFFFFFFFFFFFFFFFFFFFFFFFFFFFFFFFFFF AND PUSH4 0x23B872DD ADDRESS DUP7 PUSH1 0x0 ADD PUSH1 0x0 SWAP1 SLOAD SWAP1 PUSH2 0x100 EXP SWAP1 DIV PUSH20 0xFFFFFFFFFFFFFFFFFFFFFFFFFFFFFFFFFFFFFFFF AND DUP8 PUSH1 0x7 ADD DUP6 DUP2 SLOAD DUP2 LT PUSH2 0x21D9 JUMPI PUSH2 0x21D8 PUSH2 0x468D JUMP JUMPDEST JUMPDEST SWAP1 PUSH1 0x0 MSTORE PUSH1 0x20 PUSH1 0x0 KECCAK256 SWAP1 PUSH1 0x4 MUL ADD PUSH1 0x1 ADD SLOAD PUSH1 0x40 MLOAD DUP5 PUSH4 0xFFFFFFFF AND PUSH1 0xE0 SHL DUP2 MSTORE PUSH1 0x4 ADD PUSH2 0x2209 SWAP4 SWAP3 SWAP2 SWAP1 PUSH2 0x476A JUMP JUMPDEST PUSH1 0x20 PUSH1 0x40 MLOAD DUP1 DUP4 SUB DUP2 PUSH1 0x0 DUP8 GAS CALL ISZERO DUP1 ISZERO PUSH2 0x2228 JUMPI RETURNDATASIZE PUSH1 0x0 DUP1 RETURNDATACOPY RETURNDATASIZE PUSH1 0x0 REVERT JUMPDEST POP POP POP POP PUSH1 0x40 MLOAD RETURNDATASIZE PUSH1 0x1F NOT PUSH1 0x1F DUP3 ADD AND DUP3 ADD DUP1 PUSH1 0x40 MSTORE POP DUP2 ADD SWAP1 PUSH2 0x224C SWAP2 SWAP1 PUSH2 0x47CD JUMP JUMPDEST POP PUSH2 0x262A JUMP JUMPDEST DUP4 PUSH1 0x7 ADD DUP2 DUP2 SLOAD DUP2 LT PUSH2 0x2268 JUMPI PUSH2 0x2267 PUSH2 0x468D JUMP JUMPDEST JUMPDEST SWAP1 PUSH1 0x0 MSTORE PUSH1 0x20 PUSH1 0x0 KECCAK256 SWAP1 PUSH1 0x4 MUL ADD PUSH1 0x3 ADD SLOAD TIMESTAMP GT ISZERO DUP1 ISZERO PUSH2 0x228C JUMPI POP DUP4 PUSH1 0x2 ADD SLOAD TIMESTAMP GT JUMPDEST DUP1 ISZERO PUSH2 0x22EF JUMPI POP PUSH1 0x2 DUP1 DUP2 GT ISZERO PUSH2 0x22A6 JUMPI PUSH2 0x22A5 PUSH2 0x3A80 JUMP JUMPDEST JUMPDEST DUP5 PUSH1 0x7 ADD DUP3 DUP2 SLOAD DUP2 LT PUSH2 0x22BC JUMPI PUSH2 0x22BB PUSH2 0x468D JUMP JUMPDEST JUMPDEST SWAP1 PUSH1 0x0 MSTORE PUSH1 0x20 PUSH1 0x0 KECCAK256 SWAP1 PUSH1 0x4 MUL ADD PUSH1 0x2 ADD PUSH1 0x0 SWAP1 SLOAD SWAP1 PUSH2 0x100 EXP SWAP1 DIV PUSH1 0xFF AND PUSH1 0x2 DUP2 GT ISZERO PUSH2 0x22ED JUMPI PUSH2 0x22EC PUSH2 0x3A80 JUMP JUMPDEST JUMPDEST EQ JUMPDEST ISZERO PUSH2 0x243F JUMPI PUSH1 0x0 PUSH2 0x22FF DUP7 PUSH2 0x658 JUMP JUMPDEST SWAP1 POP PUSH1 0x0 DUP2 DUP7 PUSH1 0x1 ADD SLOAD PUSH2 0x2313 SWAP2 SWAP1 PUSH2 0x4229 JUMP JUMPDEST SWAP1 POP DUP1 DUP5 LT ISZERO PUSH2 0x2358 JUMPI PUSH1 0x40 MLOAD PUSH32 0x8C379A000000000000000000000000000000000000000000000000000000000 DUP2 MSTORE PUSH1 0x4 ADD PUSH2 0x234F SWAP1 PUSH2 0x486C JUMP JUMPDEST PUSH1 0x40 MLOAD DUP1 SWAP2 SUB SWAP1 REVERT JUMPDEST PUSH1 0x1 DUP7 PUSH1 0x6 ADD PUSH1 0x1 PUSH2 0x100 EXP DUP2 SLOAD DUP2 PUSH1 0xFF MUL NOT AND SWAP1 DUP4 ISZERO ISZERO MUL OR SWAP1 SSTORE POP PUSH1 0x1 PUSH1 0x0 SWAP1 SLOAD SWAP1 PUSH2 0x100 EXP SWAP1 DIV PUSH20 0xFFFFFFFFFFFFFFFFFFFFFFFFFFFFFFFFFFFFFFFF AND PUSH20 0xFFFFFFFFFFFFFFFFFFFFFFFFFFFFFFFFFFFFFFFF AND PUSH4 0x23B872DD ADDRESS DUP9 PUSH1 0x0 ADD PUSH1 0x0 SWAP1 SLOAD SWAP1 PUSH2 0x100 EXP SWAP1 DIV PUSH20 0xFFFFFFFFFFFFFFFFFFFFFFFFFFFFFFFFFFFFFFFF AND DUP5 PUSH1 0x40 MLOAD DUP5 PUSH4 0xFFFFFFFF AND PUSH1 0xE0 SHL DUP2 MSTORE PUSH1 0x4 ADD PUSH2 0x23F8 SWAP4 SWAP3 SWAP2 SWAP1 PUSH2 0x476A JUMP JUMPDEST PUSH1 0x20 PUSH1 0x40 MLOAD DUP1 DUP4 SUB DUP2 PUSH1 0x0 DUP8 GAS CALL ISZERO DUP1 ISZERO PUSH2 0x2417 JUMPI RETURNDATASIZE PUSH1 0x0 DUP1 RETURNDATACOPY RETURNDATASIZE PUSH1 0x0 REVERT JUMPDEST POP POP POP POP PUSH1 0x40 MLOAD RETURNDATASIZE PUSH1 0x1F NOT PUSH1 0x1F DUP3 ADD AND DUP3 ADD DUP1 PUSH1 0x40 MSTORE POP DUP2 ADD SWAP1 PUSH2 0x243B SWAP2 SWAP1 PUSH2 0x47CD JUMP JUMPDEST POP POP POP JUMPDEST DUP4 PUSH1 0x7 ADD DUP2 DUP2 SLOAD DUP2 LT PUSH2 0x2455 JUMPI PUSH2 0x2454 PUSH2 0x468D JUMP JUMPDEST JUMPDEST SWAP1 PUSH1 0x0 MSTORE PUSH1 0x20 PUSH1 0x0 KECCAK256 SWAP1 PUSH1 0x4 MUL ADD PUSH1 0x3 ADD SLOAD TIMESTAMP GT DUP1 ISZERO PUSH2 0x24CC JUMPI POP PUSH1 0x2 DUP1 DUP2 GT ISZERO PUSH2 0x2483 JUMPI PUSH2 0x2482 PUSH2 0x3A80 JUMP JUMPDEST JUMPDEST DUP5 PUSH1 0x7 ADD DUP3 DUP2 SLOAD DUP2 LT PUSH2 0x2499 JUMPI PUSH2 0x2498 PUSH2 0x468D JUMP JUMPDEST JUMPDEST SWAP1 PUSH1 0x0 MSTORE PUSH1 0x20 PUSH1 0x0 KECCAK256 SWAP1 PUSH1 0x4 MUL ADD PUSH1 0x2 ADD PUSH1 0x0 SWAP1 SLOAD SWAP1 PUSH2 0x100 EXP SWAP1 DIV PUSH1 0xFF AND PUSH1 0x2 DUP2 GT ISZERO PUSH2 0x24CA JUMPI PUSH2 0x24C9 PUSH2 0x3A80 JUMP JUMPDEST JUMPDEST EQ JUMPDEST ISZERO PUSH2 0x261C JUMPI PUSH1 0x0 PUSH2 0x24DD DUP7 DUP4 PUSH2 0xC80 JUMP JUMPDEST SWAP1 POP PUSH1 0x0 DUP2 DUP7 PUSH1 0x7 ADD DUP5 DUP2 SLOAD DUP2 LT PUSH2 0x24F8 JUMPI PUSH2 0x24F7 PUSH2 0x468D JUMP JUMPDEST JUMPDEST SWAP1 PUSH1 0x0 MSTORE PUSH1 0x20 PUSH1 0x0 KECCAK256 SWAP1 PUSH1 0x4 MUL ADD PUSH1 0x1 ADD SLOAD PUSH2 0x2514 SWAP2 SWAP1 PUSH2 0x40E7 JUMP JUMPDEST SWAP1 POP PUSH1 0x1 ISZERO ISZERO DUP7 PUSH1 0x7 ADD DUP5 DUP2 SLOAD DUP2 LT PUSH2 0x2530 JUMPI PUSH2 0x252F PUSH2 0x468D JUMP JUMPDEST JUMPDEST SWAP1 PUSH1 0x0 MSTORE PUSH1 0x20 PUSH1 0x0 KECCAK256 SWAP1 PUSH1 0x4 MUL ADD PUSH1 0x2 ADD PUSH1 0x1 SWAP1 SLOAD SWAP1 PUSH2 0x100 EXP SWAP1 POP POP POP PUSH1 0x1 PUSH1 0x0 SWAP1 SLOAD SWAP1 PUSH2 0x100 EXP SWAP1 DIV PUSH20 0xFFFFFFFFFFFFFFFFFFFFFFFFFFFFFFFFFFFFFFFF AND PUSH20 0xFFFFFFFFFFFFFFFFFFFFFFFFFFFFFFFFFFFFFFFF AND PUSH4 0x23B872DD ADDRESS DUP9 PUSH1 0x0 ADD PUSH1 0x0 SWAP1 SLOAD SWAP1 PUSH2 0x100 EXP SWAP1 DIV PUSH20 0xFFFFFFFFFFFFFFFFFFFFFFFFFFFFFFFFFFFFFFFF AND DUP5 PUSH1 0x40 MLOAD DUP5 PUSH4 0xFFFFFFFF AND PUSH1 0xE0 SHL DUP2 MSTORE PUSH1 0x4 ADD PUSH2 0x25D1 SWAP4 SWAP3 SWAP2 SWAP1 PUSH2 0x476A JUMP JUMPDEST PUSH1 0x20 PUSH1 0x40 MLOAD DUP1 DUP4 SUB DUP2 PUSH1 0x0 DUP8 GAS CALL ISZERO DUP1 ISZERO PUSH2 0x25F0 JUMPI RETURNDATASIZE PUSH1 0x0 DUP1 RETURNDATACOPY RETURNDATASIZE PUSH1 0x0 REVERT JUMPDEST POP POP POP POP PUSH1 0x40 MLOAD RETURNDATASIZE PUSH1 0x1F NOT PUSH1 0x1F DUP3 ADD AND DUP3 ADD DUP1 PUSH1 0x40 MSTORE POP DUP2 ADD SWAP1 PUSH2 0x2614 SWAP2 SWAP1 PUSH2 0x47CD JUMP JUMPDEST POP POP POP PUSH2 0x262A JUMP JUMPDEST JUMPDEST DUP1 DUP1 PUSH1 0x1 ADD SWAP2 POP POP PUSH2 0x203C JUMP JUMPDEST POP POP POP POP POP JUMP JUMPDEST PUSH1 0x0 PUSH1 0x2 PUSH1 0x0 CALLER PUSH20 0xFFFFFFFFFFFFFFFFFFFFFFFFFFFFFFFFFFFFFFFF AND PUSH20 0xFFFFFFFFFFFFFFFFFFFFFFFFFFFFFFFFFFFFFFFF AND DUP2 MSTORE PUSH1 0x20 ADD SWAP1 DUP2 MSTORE PUSH1 0x20 ADD PUSH1 0x0 KECCAK256 PUSH1 0x0 DUP7 DUP2 MSTORE PUSH1 0x20 ADD SWAP1 DUP2 MSTORE PUSH1 0x20 ADD PUSH1 0x0 KECCAK256 SWAP1 POP DUP1 PUSH1 0x7 ADD PUSH1 0x40 MLOAD DUP1 PUSH1 0xA0 ADD PUSH1 0x40 MSTORE DUP1 DUP7 DUP2 MSTORE PUSH1 0x20 ADD DUP6 DUP2 MSTORE PUSH1 0x20 ADD PUSH1 0x0 PUSH1 0x2 DUP2 GT ISZERO PUSH2 0x26B4 JUMPI PUSH2 0x26B3 PUSH2 0x3A80 JUMP JUMPDEST JUMPDEST DUP2 MSTORE PUSH1 0x20 ADD PUSH1 0x0 ISZERO ISZERO DUP2 MSTORE PUSH1 0x20 ADD DUP5 DUP2 MSTORE POP SWAP1 DUP1 PUSH1 0x1 DUP2 SLOAD ADD DUP1 DUP3 SSTORE DUP1 SWAP2 POP POP PUSH1 0x1 SWAP1 SUB SWAP1 PUSH1 0x0 MSTORE PUSH1 0x20 PUSH1 0x0 KECCAK256 SWAP1 PUSH1 0x4 MUL ADD PUSH1 0x0 SWAP1 SWAP2 SWAP1 SWAP2 SWAP1 SWAP2 POP PUSH1 0x0 DUP3 ADD MLOAD DUP2 PUSH1 0x0 ADD SWAP1 DUP2 PUSH2 0x2704 SWAP2 SWAP1 PUSH2 0x4409 JUMP JUMPDEST POP PUSH1 0x20 DUP3 ADD MLOAD DUP2 PUSH1 0x1 ADD SSTORE PUSH1 0x40 DUP3 ADD MLOAD DUP2 PUSH1 0x2 ADD PUSH1 0x0 PUSH2 0x100 EXP DUP2 SLOAD DUP2 PUSH1 0xFF MUL NOT AND SWAP1 DUP4 PUSH1 0x2 DUP2 GT ISZERO PUSH2 0x273A JUMPI PUSH2 0x2739 PUSH2 0x3A80 JUMP JUMPDEST JUMPDEST MUL OR SWAP1 SSTORE POP PUSH1 0x60 DUP3 ADD MLOAD DUP2 PUSH1 0x2 ADD PUSH1 0x1 PUSH2 0x100 EXP DUP2 SLOAD DUP2 PUSH1 0xFF MUL NOT AND SWAP1 DUP4 ISZERO ISZERO MUL OR SWAP1 SSTORE POP PUSH1 0x80 DUP3 ADD MLOAD DUP2 PUSH1 0x3 ADD SSTORE POP POP DUP3 DUP5 PUSH1 0x40 MLOAD PUSH2 0x277A SWAP2 SWAP1 PUSH2 0x48C8 JUMP JUMPDEST PUSH1 0x40 MLOAD DUP1 SWAP2 SUB SWAP1 KECCAK256 DUP7 PUSH32 0xBF293DB00F4DE65B181A066ECC2F8BB81FB7174B517FD8085700E259AD00DB1B PUSH1 0x40 MLOAD PUSH1 0x40 MLOAD DUP1 SWAP2 SUB SWAP1 LOG4 POP POP POP POP POP JUMP JUMPDEST PUSH1 0x0 PUSH1 0x2 PUSH1 0x0 CALLER PUSH20 0xFFFFFFFFFFFFFFFFFFFFFFFFFFFFFFFFFFFFFFFF AND PUSH20 0xFFFFFFFFFFFFFFFFFFFFFFFFFFFFFFFFFFFFFFFF AND DUP2 MSTORE PUSH1 0x20 ADD SWAP1 DUP2 MSTORE PUSH1 0x20 ADD PUSH1 0x0 KECCAK256 PUSH1 0x0 DUP4 DUP2 MSTORE PUSH1 0x20 ADD SWAP1 DUP2 MSTORE PUSH1 0x20 ADD PUSH1 0x0 KECCAK256 SWAP1 POP CALLER PUSH20 0xFFFFFFFFFFFFFFFFFFFFFFFFFFFFFFFFFFFFFFFF AND DUP2 PUSH1 0x0 ADD PUSH1 0x0 SWAP1 SLOAD SWAP1 PUSH2 0x100 EXP SWAP1 DIV PUSH20 0xFFFFFFFFFFFFFFFFFFFFFFFFFFFFFFFFFFFFFFFF AND PUSH20 0xFFFFFFFFFFFFFFFFFFFFFFFFFFFFFFFFFFFFFFFF AND EQ PUSH2 0x2893 JUMPI PUSH1 0x40 MLOAD PUSH32 0x44F3B42100000000000000000000000000000000000000000000000000000000 DUP2 MSTORE PUSH1 0x4 ADD PUSH1 0x40 MLOAD DUP1 SWAP2 SUB SWAP1 REVERT JUMPDEST PUSH1 0x0 PUSH1 0x1 PUSH1 0x0 SWAP1 SLOAD SWAP1 PUSH2 0x100 EXP SWAP1 DIV PUSH20 0xFFFFFFFFFFFFFFFFFFFFFFFFFFFFFFFFFFFFFFFF AND PUSH20 0xFFFFFFFFFFFFFFFFFFFFFFFFFFFFFFFFFFFFFFFF AND PUSH4 0x70A08231 CALLER PUSH1 0x40 MLOAD DUP3 PUSH4 0xFFFFFFFF AND PUSH1 0xE0 SHL DUP2 MSTORE PUSH1 0x4 ADD PUSH2 0x28F0 SWAP2 SWAP1 PUSH2 0x3FBA JUMP JUMPDEST PUSH1 0x20 PUSH1 0x40 MLOAD DUP1 DUP4 SUB DUP2 DUP7 GAS STATICCALL ISZERO DUP1 ISZERO PUSH2 0x290D JUMPI RETURNDATASIZE PUSH1 0x0 DUP1 RETURNDATACOPY RETURNDATASIZE PUSH1 0x0 REVERT JUMPDEST POP POP POP POP PUSH1 0x40 MLOAD RETURNDATASIZE PUSH1 0x1F NOT PUSH1 0x1F DUP3 ADD AND DUP3 ADD DUP1 PUSH1 0x40 MSTORE POP DUP2 ADD SWAP1 PUSH2 0x2931 SWAP2 SWAP1 PUSH2 0x473D JUMP JUMPDEST SWAP1 POP DUP2 PUSH1 0x2 ADD SLOAD TIMESTAMP GT ISZERO PUSH2 0x2A6A JUMPI PUSH1 0x0 PUSH2 0x294A DUP5 PUSH2 0x658 JUMP JUMPDEST SWAP1 POP PUSH1 0x0 DUP2 DUP5 PUSH1 0x1 ADD SLOAD PUSH2 0x295E SWAP2 SWAP1 PUSH2 0x4229 JUMP JUMPDEST SWAP1 POP DUP1 DUP4 LT ISZERO PUSH2 0x29A3 JUMPI PUSH1 0x40 MLOAD PUSH32 0x8C379A000000000000000000000000000000000000000000000000000000000 DUP2 MSTORE PUSH1 0x4 ADD PUSH2 0x299A SWAP1 PUSH2 0x486C JUMP JUMPDEST PUSH1 0x40 MLOAD DUP1 SWAP2 SUB SWAP1 REVERT JUMPDEST PUSH1 0x1 DUP5 PUSH1 0x6 ADD PUSH1 0x1 PUSH2 0x100 EXP DUP2 SLOAD DUP2 PUSH1 0xFF MUL NOT AND SWAP1 DUP4 ISZERO ISZERO MUL OR SWAP1 SSTORE POP PUSH1 0x1 PUSH1 0x0 SWAP1 SLOAD SWAP1 PUSH2 0x100 EXP SWAP1 DIV PUSH20 0xFFFFFFFFFFFFFFFFFFFFFFFFFFFFFFFFFFFFFFFF AND PUSH20 0xFFFFFFFFFFFFFFFFFFFFFFFFFFFFFFFFFFFFFFFF AND PUSH4 0x23B872DD CALLER ADDRESS DUP5 PUSH1 0x40 MLOAD DUP5 PUSH4 0xFFFFFFFF AND PUSH1 0xE0 SHL DUP2 MSTORE PUSH1 0x4 ADD PUSH2 0x2A1F SWAP4 SWAP3 SWAP2 SWAP1 PUSH2 0x476A JUMP JUMPDEST PUSH1 0x20 PUSH1 0x40 MLOAD DUP1 DUP4 SUB DUP2 PUSH1 0x0 DUP8 GAS CALL ISZERO DUP1 ISZERO PUSH2 0x2A3E JUMPI RETURNDATASIZE PUSH1 0x0 DUP1 RETURNDATACOPY RETURNDATASIZE PUSH1 0x0 REVERT JUMPDEST POP POP POP POP PUSH1 0x40 MLOAD RETURNDATASIZE PUSH1 0x1F NOT PUSH1 0x1F DUP3 ADD AND DUP3 ADD DUP1 PUSH1 0x40 MSTORE POP DUP2 ADD SWAP1 PUSH2 0x2A62 SWAP2 SWAP1 PUSH2 0x47CD JUMP JUMPDEST POP POP POP PUSH2 0x2B76 JUMP JUMPDEST DUP2 PUSH1 0x1 ADD SLOAD DUP2 LT ISZERO PUSH2 0x2AB1 JUMPI PUSH1 0x40 MLOAD PUSH32 0x8C379A000000000000000000000000000000000000000000000000000000000 DUP2 MSTORE PUSH1 0x4 ADD PUSH2 0x2AA8 SWAP1 PUSH2 0x492B JUMP JUMPDEST PUSH1 0x40 MLOAD DUP1 SWAP2 SUB SWAP1 REVERT JUMPDEST PUSH1 0x1 DUP3 PUSH1 0x6 ADD PUSH1 0x1 PUSH2 0x100 EXP DUP2 SLOAD DUP2 PUSH1 0xFF MUL NOT AND SWAP1 DUP4 ISZERO ISZERO MUL OR SWAP1 SSTORE POP PUSH1 0x1 PUSH1 0x0 SWAP1 SLOAD SWAP1 PUSH2 0x100 EXP SWAP1 DIV PUSH20 0xFFFFFFFFFFFFFFFFFFFFFFFFFFFFFFFFFFFFFFFF AND PUSH20 0xFFFFFFFFFFFFFFFFFFFFFFFFFFFFFFFFFFFFFFFF AND PUSH4 0x23B872DD CALLER ADDRESS DUP6 PUSH1 0x1 ADD SLOAD PUSH1 0x40 MLOAD DUP5 PUSH4 0xFFFFFFFF AND PUSH1 0xE0 SHL DUP2 MSTORE PUSH1 0x4 ADD PUSH2 0x2B31 SWAP4 SWAP3 SWAP2 SWAP1 PUSH2 0x476A JUMP JUMPDEST PUSH1 0x20 PUSH1 0x40 MLOAD DUP1 DUP4 SUB DUP2 PUSH1 0x0 DUP8 GAS CALL ISZERO DUP1 ISZERO PUSH2 0x2B50 JUMPI RETURNDATASIZE PUSH1 0x0 DUP1 RETURNDATACOPY RETURNDATASIZE PUSH1 0x0 REVERT JUMPDEST POP POP POP POP PUSH1 0x40 MLOAD RETURNDATASIZE PUSH1 0x1F NOT PUSH1 0x1F DUP3 ADD AND DUP3 ADD DUP1 PUSH1 0x40 MSTORE POP DUP2 ADD SWAP1 PUSH2 0x2B74 SWAP2 SWAP1 PUSH2 0x47CD JUMP JUMPDEST POP JUMPDEST POP POP POP JUMP JUMPDEST PUSH1 0x0 PUSH20 0xFFFFFFFFFFFFFFFFFFFFFFFFFFFFFFFFFFFFFFFF AND CALLER PUSH20 0xFFFFFFFFFFFFFFFFFFFFFFFFFFFFFFFFFFFFFFFF AND SUB PUSH2 0x2BE1 JUMPI PUSH1 0x40 MLOAD PUSH32 0x7A795C5600000000000000000000000000000000000000000000000000000000 DUP2 MSTORE PUSH1 0x4 ADD PUSH1 0x40 MLOAD DUP1 SWAP2 SUB SWAP1 REVERT JUMPDEST PUSH1 0x0 PUSH1 0x2 PUSH1 0x0 DUP1 PUSH1 0x0 SWAP1 SLOAD SWAP1 PUSH2 0x100 EXP SWAP1 DIV PUSH20 0xFFFFFFFFFFFFFFFFFFFFFFFFFFFFFFFFFFFFFFFF AND PUSH20 0xFFFFFFFFFFFFFFFFFFFFFFFFFFFFFFFFFFFFFFFF AND PUSH20 0xFFFFFFFFFFFFFFFFFFFFFFFFFFFFFFFFFFFFFFFF AND DUP2 MSTORE PUSH1 0x20 ADD SWAP1 DUP2 MSTORE PUSH1 0x20 ADD PUSH1 0x0 KECCAK256 PUSH1 0x0 DUP4 DUP2 MSTORE PUSH1 0x20 ADD SWAP1 DUP2 MSTORE PUSH1 0x20 ADD PUSH1 0x0 KECCAK256 SWAP1 POP CALLER PUSH20 0xFFFFFFFFFFFFFFFFFFFFFFFFFFFFFFFFFFFFFFFF AND DUP2 PUSH1 0x0 ADD PUSH1 0x0 SWAP1 SLOAD SWAP1 PUSH2 0x100 EXP SWAP1 DIV PUSH20 0xFFFFFFFFFFFFFFFFFFFFFFFFFFFFFFFFFFFFFFFF AND PUSH20 0xFFFFFFFFFFFFFFFFFFFFFFFFFFFFFFFFFFFFFFFF AND EQ PUSH2 0x2CDF JUMPI PUSH1 0x40 MLOAD PUSH32 0x5169E01000000000000000000000000000000000000000000000000000000000 DUP2 MSTORE PUSH1 0x4 ADD PUSH1 0x40 MLOAD DUP1 SWAP2 SUB SWAP1 REVERT JUMPDEST PUSH1 0x1 DUP2 PUSH1 0x6 ADD PUSH1 0x2 PUSH2 0x100 EXP DUP2 SLOAD DUP2 PUSH1 0xFF MUL NOT AND SWAP1 DUP4 ISZERO ISZERO MUL OR SWAP1 SSTORE POP DUP2 CALLER PUSH20 0xFFFFFFFFFFFFFFFFFFFFFFFFFFFFFFFFFFFFFFFF AND PUSH32 0xD3EC1DB989D7A04F562031E02001F88781A3BC555A5608A288ACCCAE5B50E86F PUSH1 0x40 MLOAD PUSH1 0x40 MLOAD DUP1 SWAP2 SUB SWAP1 LOG3 POP POP JUMP JUMPDEST PUSH1 0x1 PUSH1 0x0 SWAP1 SLOAD SWAP1 PUSH2 0x100 EXP SWAP1 DIV PUSH20 0xFFFFFFFFFFFFFFFFFFFFFFFFFFFFFFFFFFFFFFFF AND DUP2 JUMP JUMPDEST PUSH1 0x0 PUSH1 0x3 PUSH1 0x0 DUP4 PUSH20 0xFFFFFFFFFFFFFFFFFFFFFFFFFFFFFFFFFFFFFFFF AND PUSH20 0xFFFFFFFFFFFFFFFFFFFFFFFFFFFFFFFFFFFFFFFF AND DUP2 MSTORE PUSH1 0x20 ADD SWAP1 DUP2 MSTORE PUSH1 0x20 ADD PUSH1 0x0 KECCAK256 SLOAD SWAP1 POP SWAP2 SWAP1 POP JUMP JUMPDEST PUSH1 0x60 PUSH1 0x0 DUP3 PUSH8 0xFFFFFFFFFFFFFFFF DUP2 GT ISZERO PUSH2 0x2DD1 JUMPI PUSH2 0x2DD0 PUSH2 0x3765 JUMP JUMPDEST JUMPDEST PUSH1 0x40 MLOAD SWAP1 DUP1 DUP3 MSTORE DUP1 PUSH1 0x20 MUL PUSH1 0x20 ADD DUP3 ADD PUSH1 0x40 MSTORE DUP1 ISZERO PUSH2 0x2E0A JUMPI DUP2 PUSH1 0x20 ADD JUMPDEST PUSH2 0x2DF7 PUSH2 0x337F JUMP JUMPDEST DUP2 MSTORE PUSH1 0x20 ADD SWAP1 PUSH1 0x1 SWAP1 SUB SWAP1 DUP2 PUSH2 0x2DEF JUMPI SWAP1 POP JUMPDEST POP SWAP1 POP PUSH1 0x0 PUSH1 0x1 SWAP1 POP JUMPDEST DUP4 DUP2 GT PUSH2 0x328A JUMPI PUSH1 0x2 PUSH1 0x0 CALLER PUSH20 0xFFFFFFFFFFFFFFFFFFFFFFFFFFFFFFFFFFFFFFFF AND PUSH20 0xFFFFFFFFFFFFFFFFFFFFFFFFFFFFFFFFFFFFFFFF AND DUP2 MSTORE PUSH1 0x20 ADD SWAP1 DUP2 MSTORE PUSH1 0x20 ADD PUSH1 0x0 KECCAK256 PUSH1 0x0 DUP3 DUP2 MSTORE PUSH1 0x20 ADD SWAP1 DUP2 MSTORE PUSH1 0x20 ADD PUSH1 0x0 KECCAK256 PUSH1 0x40 MLOAD DUP1 PUSH2 0x160 ADD PUSH1 0x40 MSTORE SWAP1 DUP2 PUSH1 0x0 DUP3 ADD PUSH1 0x0 SWAP1 SLOAD SWAP1 PUSH2 0x100 EXP SWAP1 DIV PUSH20 0xFFFFFFFFFFFFFFFFFFFFFFFFFFFFFFFFFFFFFFFF AND PUSH20 0xFFFFFFFFFFFFFFFFFFFFFFFFFFFFFFFFFFFFFFFF AND PUSH20 0xFFFFFFFFFFFFFFFFFFFFFFFFFFFFFFFFFFFFFFFF AND DUP2 MSTORE PUSH1 0x20 ADD PUSH1 0x1 DUP3 ADD SLOAD DUP2 MSTORE PUSH1 0x20 ADD PUSH1 0x2 DUP3 ADD SLOAD DUP2 MSTORE PUSH1 0x20 ADD PUSH1 0x3 DUP3 ADD DUP1 SLOAD PUSH2 0x2EF1 SWAP1 PUSH2 0x4087 JUMP JUMPDEST DUP1 PUSH1 0x1F ADD PUSH1 0x20 DUP1 SWAP2 DIV MUL PUSH1 0x20 ADD PUSH1 0x40 MLOAD SWAP1 DUP2 ADD PUSH1 0x40 MSTORE DUP1 SWAP3 SWAP2 SWAP1 DUP2 DUP2 MSTORE PUSH1 0x20 ADD DUP3 DUP1 SLOAD PUSH2 0x2F1D SWAP1 PUSH2 0x4087 JUMP JUMPDEST DUP1 ISZERO PUSH2 0x2F6A JUMPI DUP1 PUSH1 0x1F LT PUSH2 0x2F3F JUMPI PUSH2 0x100 DUP1 DUP4 SLOAD DIV MUL DUP4 MSTORE SWAP2 PUSH1 0x20 ADD SWAP2 PUSH2 0x2F6A JUMP JUMPDEST DUP3 ADD SWAP2 SWAP1 PUSH1 0x0 MSTORE PUSH1 0x20 PUSH1 0x0 KECCAK256 SWAP1 JUMPDEST DUP2 SLOAD DUP2 MSTORE SWAP1 PUSH1 0x1 ADD SWAP1 PUSH1 0x20 ADD DUP1 DUP4 GT PUSH2 0x2F4D JUMPI DUP3 SWAP1 SUB PUSH1 0x1F AND DUP3 ADD SWAP2 JUMPDEST POP POP POP POP POP DUP2 MSTORE PUSH1 0x20 ADD PUSH1 0x4 DUP3 ADD DUP1 SLOAD PUSH2 0x2F83 SWAP1 PUSH2 0x4087 JUMP JUMPDEST DUP1 PUSH1 0x1F ADD PUSH1 0x20 DUP1 SWAP2 DIV MUL PUSH1 0x20 ADD PUSH1 0x40 MLOAD SWAP1 DUP2 ADD PUSH1 0x40 MSTORE DUP1 SWAP3 SWAP2 SWAP1 DUP2 DUP2 MSTORE PUSH1 0x20 ADD DUP3 DUP1 SLOAD PUSH2 0x2FAF SWAP1 PUSH2 0x4087 JUMP JUMPDEST DUP1 ISZERO PUSH2 0x2FFC JUMPI DUP1 PUSH1 0x1F LT PUSH2 0x2FD1 JUMPI PUSH2 0x100 DUP1 DUP4 SLOAD DIV MUL DUP4 MSTORE SWAP2 PUSH1 0x20 ADD SWAP2 PUSH2 0x2FFC JUMP JUMPDEST DUP3 ADD SWAP2 SWAP1 PUSH1 0x0 MSTORE PUSH1 0x20 PUSH1 0x0 KECCAK256 SWAP1 JUMPDEST DUP2 SLOAD DUP2 MSTORE SWAP1 PUSH1 0x1 ADD SWAP1 PUSH1 0x20 ADD DUP1 DUP4 GT PUSH2 0x2FDF JUMPI DUP3 SWAP1 SUB PUSH1 0x1F AND DUP3 ADD SWAP2 JUMPDEST POP POP POP POP POP DUP2 MSTORE PUSH1 0x20 ADD PUSH1 0x5 DUP3 ADD DUP1 SLOAD PUSH2 0x3015 SWAP1 PUSH2 0x4087 JUMP JUMPDEST DUP1 PUSH1 0x1F ADD PUSH1 0x20 DUP1 SWAP2 DIV MUL PUSH1 0x20 ADD PUSH1 0x40 MLOAD SWAP1 DUP2 ADD PUSH1 0x40 MSTORE DUP1 SWAP3 SWAP2 SWAP1 DUP2 DUP2 MSTORE PUSH1 0x20 ADD DUP3 DUP1 SLOAD PUSH2 0x3041 SWAP1 PUSH2 0x4087 JUMP JUMPDEST DUP1 ISZERO PUSH2 0x308E JUMPI DUP1 PUSH1 0x1F LT PUSH2 0x3063 JUMPI PUSH2 0x100 DUP1 DUP4 SLOAD DIV MUL DUP4 MSTORE SWAP2 PUSH1 0x20 ADD SWAP2 PUSH2 0x308E JUMP JUMPDEST DUP3 ADD SWAP2 SWAP1 PUSH1 0x0 MSTORE PUSH1 0x20 PUSH1 0x0 KECCAK256 SWAP1 JUMPDEST DUP2 SLOAD DUP2 MSTORE SWAP1 PUSH1 0x1 ADD SWAP1 PUSH1 0x20 ADD DUP1 DUP4 GT PUSH2 0x3071 JUMPI DUP3 SWAP1 SUB PUSH1 0x1F AND DUP3 ADD SWAP2 JUMPDEST POP POP POP POP POP DUP2 MSTORE PUSH1 0x20 ADD PUSH1 0x6 DUP3 ADD PUSH1 0x0 SWAP1 SLOAD SWAP1 PUSH2 0x100 EXP SWAP1 DIV PUSH1 0xFF AND ISZERO ISZERO ISZERO ISZERO DUP2 MSTORE PUSH1 0x20 ADD PUSH1 0x6 DUP3 ADD PUSH1 0x1 SWAP1 SLOAD SWAP1 PUSH2 0x100 EXP SWAP1 DIV PUSH1 0xFF AND ISZERO ISZERO ISZERO ISZERO DUP2 MSTORE PUSH1 0x20 ADD PUSH1 0x6 DUP3 ADD PUSH1 0x2 SWAP1 SLOAD SWAP1 PUSH2 0x100 EXP SWAP1 DIV PUSH1 0xFF AND ISZERO ISZERO ISZERO ISZERO DUP2 MSTORE PUSH1 0x20 ADD PUSH1 0x7 DUP3 ADD DUP1 SLOAD DUP1 PUSH1 0x20 MUL PUSH1 0x20 ADD PUSH1 0x40 MLOAD SWAP1 DUP2 ADD PUSH1 0x40 MSTORE DUP1 SWAP3 SWAP2 SWAP1 DUP2 DUP2 MSTORE PUSH1 0x20 ADD PUSH1 0x0 SWAP1 JUMPDEST DUP3 DUP3 LT ISZERO PUSH2 0x323B JUMPI DUP4 DUP3 SWAP1 PUSH1 0x0 MSTORE PUSH1 0x20 PUSH1 0x0 KECCAK256 SWAP1 PUSH1 0x4 MUL ADD PUSH1 0x40 MLOAD DUP1 PUSH1 0xA0 ADD PUSH1 0x40 MSTORE SWAP1 DUP2 PUSH1 0x0 DUP3 ADD DUP1 SLOAD PUSH2 0x3140 SWAP1 PUSH2 0x4087 JUMP JUMPDEST DUP1 PUSH1 0x1F ADD PUSH1 0x20 DUP1 SWAP2 DIV MUL PUSH1 0x20 ADD PUSH1 0x40 MLOAD SWAP1 DUP2 ADD PUSH1 0x40 MSTORE DUP1 SWAP3 SWAP2 SWAP1 DUP2 DUP2 MSTORE PUSH1 0x20 ADD DUP3 DUP1 SLOAD PUSH2 0x316C SWAP1 PUSH2 0x4087 JUMP JUMPDEST DUP1 ISZERO PUSH2 0x31B9 JUMPI DUP1 PUSH1 0x1F LT PUSH2 0x318E JUMPI PUSH2 0x100 DUP1 DUP4 SLOAD DIV MUL DUP4 MSTORE SWAP2 PUSH1 0x20 ADD SWAP2 PUSH2 0x31B9 JUMP JUMPDEST DUP3 ADD SWAP2 SWAP1 PUSH1 0x0 MSTORE PUSH1 0x20 PUSH1 0x0 KECCAK256 SWAP1 JUMPDEST DUP2 SLOAD DUP2 MSTORE SWAP1 PUSH1 0x1 ADD SWAP1 PUSH1 0x20 ADD DUP1 DUP4 GT PUSH2 0x319C JUMPI DUP3 SWAP1 SUB PUSH1 0x1F AND DUP3 ADD SWAP2 JUMPDEST POP POP POP POP POP DUP2 MSTORE PUSH1 0x20 ADD PUSH1 0x1 DUP3 ADD SLOAD DUP2 MSTORE PUSH1 0x20 ADD PUSH1 0x2 DUP3 ADD PUSH1 0x0 SWAP1 SLOAD SWAP1 PUSH2 0x100 EXP SWAP1 DIV PUSH1 0xFF AND PUSH1 0x2 DUP2 GT ISZERO PUSH2 0x31F1 JUMPI PUSH2 0x31F0 PUSH2 0x3A80 JUMP JUMPDEST JUMPDEST PUSH1 0x2 DUP2 GT ISZERO PUSH2 0x3203 JUMPI PUSH2 0x3202 PUSH2 0x3A80 JUMP JUMPDEST JUMPDEST DUP2 MSTORE PUSH1 0x20 ADD PUSH1 0x2 DUP3 ADD PUSH1 0x1 SWAP1 SLOAD SWAP1 PUSH2 0x100 EXP SWAP1 DIV PUSH1 0xFF AND ISZERO ISZERO ISZERO ISZERO DUP2 MSTORE PUSH1 0x20 ADD PUSH1 0x3 DUP3 ADD SLOAD DUP2 MSTORE POP POP DUP2 MSTORE PUSH1 0x20 ADD SWAP1 PUSH1 0x1 ADD SWAP1 PUSH2 0x310D JUMP JUMPDEST POP POP POP POP DUP2 MSTORE PUSH1 0x20 ADD PUSH1 0x8 DUP3 ADD SLOAD DUP2 MSTORE POP POP DUP3 PUSH1 0x1 DUP4 PUSH2 0x325B SWAP2 SWAP1 PUSH2 0x40E7 JUMP JUMPDEST DUP2 MLOAD DUP2 LT PUSH2 0x326C JUMPI PUSH2 0x326B PUSH2 0x468D JUMP JUMPDEST JUMPDEST PUSH1 0x20 MUL PUSH1 0x20 ADD ADD DUP2 SWAP1 MSTORE POP DUP1 DUP1 PUSH2 0x3282 SWAP1 PUSH2 0x45D9 JUMP JUMPDEST SWAP2 POP POP PUSH2 0x2E14 JUMP JUMPDEST POP DUP1 SWAP2 POP POP SWAP2 SWAP1 POP JUMP JUMPDEST DUP3 DUP1 SLOAD DUP3 DUP3 SSTORE SWAP1 PUSH1 0x0 MSTORE PUSH1 0x20 PUSH1 0x0 KECCAK256 SWAP1 PUSH1 0x4 MUL DUP2 ADD SWAP3 DUP3 ISZERO PUSH2 0x336E JUMPI PUSH1 0x0 MSTORE PUSH1 0x20 PUSH1 0x0 KECCAK256 SWAP2 PUSH1 0x4 MUL DUP3 ADD JUMPDEST DUP3 DUP2 GT ISZERO PUSH2 0x336D JUMPI DUP3 DUP3 PUSH1 0x0 DUP3 ADD DUP2 PUSH1 0x0 ADD SWAP1 DUP2 PUSH2 0x32DD SWAP2 SWAP1 PUSH2 0x44F1 JUMP JUMPDEST POP PUSH1 0x1 DUP3 ADD SLOAD DUP2 PUSH1 0x1 ADD SSTORE PUSH1 0x2 DUP3 ADD PUSH1 0x0 SWAP1 SLOAD SWAP1 PUSH2 0x100 EXP SWAP1 DIV PUSH1 0xFF AND DUP2 PUSH1 0x2 ADD PUSH1 0x0 PUSH2 0x100 EXP DUP2 SLOAD DUP2 PUSH1 0xFF MUL NOT AND SWAP1 DUP4 PUSH1 0x2 DUP2 GT ISZERO PUSH2 0x3320 JUMPI PUSH2 0x331F PUSH2 0x3A80 JUMP JUMPDEST JUMPDEST MUL OR SWAP1 SSTORE POP PUSH1 0x2 DUP3 ADD PUSH1 0x1 SWAP1 SLOAD SWAP1 PUSH2 0x100 EXP SWAP1 DIV PUSH1 0xFF AND DUP2 PUSH1 0x2 ADD PUSH1 0x1 PUSH2 0x100 EXP DUP2 SLOAD DUP2 PUSH1 0xFF MUL NOT AND SWAP1 DUP4 ISZERO ISZERO MUL OR SWAP1 SSTORE POP PUSH1 0x3 DUP3 ADD SLOAD DUP2 PUSH1 0x3 ADD SSTORE POP POP SWAP2 PUSH1 0x4 ADD SWAP2 SWAP1 PUSH1 0x4 ADD SWAP1 PUSH2 0x32BF JUMP JUMPDEST JUMPDEST POP SWAP1 POP PUSH2 0x337B SWAP2 SWAP1 PUSH2 0x33F5 JUMP JUMPDEST POP SWAP1 JUMP JUMPDEST PUSH1 0x40 MLOAD DUP1 PUSH2 0x160 ADD PUSH1 0x40 MSTORE DUP1 PUSH1 0x0 PUSH20 0xFFFFFFFFFFFFFFFFFFFFFFFFFFFFFFFFFFFFFFFF AND DUP2 MSTORE PUSH1 0x20 ADD PUSH1 0x0 DUP2 MSTORE PUSH1 0x20 ADD PUSH1 0x0 DUP2 MSTORE PUSH1 0x20 ADD PUSH1 0x60 DUP2 MSTORE PUSH1 0x20 ADD PUSH1 0x60 DUP2 MSTORE PUSH1 0x20 ADD PUSH1 0x60 DUP2 MSTORE PUSH1 0x20 ADD PUSH1 0x0 ISZERO ISZERO DUP2 MSTORE PUSH1 0x20 ADD PUSH1 0x0 ISZERO ISZERO DUP2 MSTORE PUSH1 0x20 ADD PUSH1 0x0 ISZERO ISZERO DUP2 MSTORE PUSH1 0x20 ADD PUSH1 0x60 DUP2 MSTORE PUSH1 0x20 ADD PUSH1 0x0 DUP2 MSTORE POP SWAP1 JUMP JUMPDEST JUMPDEST DUP1 DUP3 GT ISZERO PUSH2 0x3450 JUMPI PUSH1 0x0 DUP1 DUP3 ADD PUSH1 0x0 PUSH2 0x340F SWAP2 SWAP1 PUSH2 0x3454 JUMP JUMPDEST PUSH1 0x1 DUP3 ADD PUSH1 0x0 SWAP1 SSTORE PUSH1 0x2 DUP3 ADD PUSH1 0x0 PUSH2 0x100 EXP DUP2 SLOAD SWAP1 PUSH1 0xFF MUL NOT AND SWAP1 SSTORE PUSH1 0x2 DUP3 ADD PUSH1 0x1 PUSH2 0x100 EXP DUP2 SLOAD SWAP1 PUSH1 0xFF MUL NOT AND SWAP1 SSTORE PUSH1 0x3 DUP3 ADD PUSH1 0x0 SWAP1 SSTORE POP PUSH1 0x4 ADD PUSH2 0x33F6 JUMP JUMPDEST POP SWAP1 JUMP JUMPDEST POP DUP1 SLOAD PUSH2 0x3460 SWAP1 PUSH2 0x4087 JUMP JUMPDEST PUSH1 0x0 DUP3 SSTORE DUP1 PUSH1 0x1F LT PUSH2 0x3472 JUMPI POP PUSH2 0x3491 JUMP JUMPDEST PUSH1 0x1F ADD PUSH1 0x20 SWAP1 DIV SWAP1 PUSH1 0x0 MSTORE PUSH1 0x20 PUSH1 0x0 KECCAK256 SWAP1 DUP2 ADD SWAP1 PUSH2 0x3490 SWAP2 SWAP1 PUSH2 0x3494 JUMP JUMPDEST JUMPDEST POP JUMP JUMPDEST JUMPDEST DUP1 DUP3 GT ISZERO PUSH2 0x34AD JUMPI PUSH1 0x0 DUP2 PUSH1 0x0 SWAP1 SSTORE POP PUSH1 0x1 ADD PUSH2 0x3495 JUMP JUMPDEST POP SWAP1 JUMP JUMPDEST PUSH1 0x0 PUSH1 0x40 MLOAD SWAP1 POP SWAP1 JUMP JUMPDEST PUSH1 0x0 DUP1 REVERT JUMPDEST PUSH1 0x0 DUP1 REVERT JUMPDEST PUSH1 0x0 PUSH20 0xFFFFFFFFFFFFFFFFFFFFFFFFFFFFFFFFFFFFFFFF DUP3 AND SWAP1 POP SWAP2 SWAP1 POP JUMP JUMPDEST PUSH1 0x0 PUSH2 0x34F0 DUP3 PUSH2 0x34C5 JUMP JUMPDEST SWAP1 POP SWAP2 SWAP1 POP JUMP JUMPDEST PUSH2 0x3500 DUP2 PUSH2 0x34E5 JUMP JUMPDEST DUP2 EQ PUSH2 0x350B JUMPI PUSH1 0x0 DUP1 REVERT JUMPDEST POP JUMP JUMPDEST PUSH1 0x0 DUP2 CALLDATALOAD SWAP1 POP PUSH2 0x351D DUP2 PUSH2 0x34F7 JUMP JUMPDEST SWAP3 SWAP2 POP POP JUMP JUMPDEST PUSH1 0x0 DUP2 SWAP1 POP SWAP2 SWAP1 POP JUMP JUMPDEST PUSH2 0x3536 DUP2 PUSH2 0x3523 JUMP JUMPDEST DUP2 EQ PUSH2 0x3541 JUMPI PUSH1 0x0 DUP1 REVERT JUMPDEST POP JUMP JUMPDEST PUSH1 0x0 DUP2 CALLDATALOAD SWAP1 POP PUSH2 0x3553 DUP2 PUSH2 0x352D JUMP JUMPDEST SWAP3 SWAP2 POP POP JUMP JUMPDEST PUSH1 0x0 DUP1 PUSH1 0x40 DUP4 DUP6 SUB SLT ISZERO PUSH2 0x3570 JUMPI PUSH2 0x356F PUSH2 0x34BB JUMP JUMPDEST JUMPDEST PUSH1 0x0 PUSH2 0x357E DUP6 DUP3 DUP7 ADD PUSH2 0x350E JUMP JUMPDEST SWAP3 POP POP PUSH1 0x20 PUSH2 0x358F DUP6 DUP3 DUP7 ADD PUSH2 0x3544 JUMP JUMPDEST SWAP2 POP POP SWAP3 POP SWAP3 SWAP1 POP JUMP JUMPDEST PUSH2 0x35A2 DUP2 PUSH2 0x34E5 JUMP JUMPDEST DUP3 MSTORE POP POP JUMP JUMPDEST PUSH2 0x35B1 DUP2 PUSH2 0x3523 JUMP JUMPDEST DUP3 MSTORE POP POP JUMP JUMPDEST PUSH1 0x0 DUP2 MLOAD SWAP1 POP SWAP2 SWAP1 POP JUMP JUMPDEST PUSH1 0x0 DUP3 DUP3 MSTORE PUSH1 0x20 DUP3 ADD SWAP1 POP SWAP3 SWAP2 POP POP JUMP JUMPDEST PUSH1 0x0 JUMPDEST DUP4 DUP2 LT ISZERO PUSH2 0x35F1 JUMPI DUP1 DUP3 ADD MLOAD DUP2 DUP5 ADD MSTORE PUSH1 0x20 DUP2 ADD SWAP1 POP PUSH2 0x35D6 JUMP JUMPDEST PUSH1 0x0 DUP5 DUP5 ADD MSTORE POP POP POP POP JUMP JUMPDEST PUSH1 0x0 PUSH1 0x1F NOT PUSH1 0x1F DUP4 ADD AND SWAP1 POP SWAP2 SWAP1 POP JUMP JUMPDEST PUSH1 0x0 PUSH2 0x3619 DUP3 PUSH2 0x35B7 JUMP JUMPDEST PUSH2 0x3623 DUP2 DUP6 PUSH2 0x35C2 JUMP JUMPDEST SWAP4 POP PUSH2 0x3633 DUP2 DUP6 PUSH1 0x20 DUP7 ADD PUSH2 0x35D3 JUMP JUMPDEST PUSH2 0x363C DUP2 PUSH2 0x35FD JUMP JUMPDEST DUP5 ADD SWAP2 POP POP SWAP3 SWAP2 POP POP JUMP JUMPDEST PUSH1 0x0 DUP2 ISZERO ISZERO SWAP1 POP SWAP2 SWAP1 POP JUMP JUMPDEST PUSH2 0x365C DUP2 PUSH2 0x3647 JUMP JUMPDEST DUP3 MSTORE POP POP JUMP JUMPDEST PUSH1 0x0 PUSH2 0x140 DUP3 ADD SWAP1 POP PUSH2 0x3678 PUSH1 0x0 DUP4 ADD DUP14 PUSH2 0x3599 JUMP JUMPDEST PUSH2 0x3685 PUSH1 0x20 DUP4 ADD DUP13 PUSH2 0x35A8 JUMP JUMPDEST PUSH2 0x3692 PUSH1 0x40 DUP4 ADD DUP12 PUSH2 0x35A8 JUMP JUMPDEST DUP2 DUP2 SUB PUSH1 0x60 DUP4 ADD MSTORE PUSH2 0x36A4 DUP2 DUP11 PUSH2 0x360E JUMP JUMPDEST SWAP1 POP DUP2 DUP2 SUB PUSH1 0x80 DUP4 ADD MSTORE PUSH2 0x36B8 DUP2 DUP10 PUSH2 0x360E JUMP JUMPDEST SWAP1 POP DUP2 DUP2 SUB PUSH1 0xA0 DUP4 ADD MSTORE PUSH2 0x36CC DUP2 DUP9 PUSH2 0x360E JUMP JUMPDEST SWAP1 POP PUSH2 0x36DB PUSH1 0xC0 DUP4 ADD DUP8 PUSH2 0x3653 JUMP JUMPDEST PUSH2 0x36E8 PUSH1 0xE0 DUP4 ADD DUP7 PUSH2 0x3653 JUMP JUMPDEST PUSH2 0x36F6 PUSH2 0x100 DUP4 ADD DUP6 PUSH2 0x3653 JUMP JUMPDEST PUSH2 0x3704 PUSH2 0x120 DUP4 ADD DUP5 PUSH2 0x35A8 JUMP JUMPDEST SWAP12 SWAP11 POP POP POP POP POP POP POP POP POP POP POP JUMP JUMPDEST PUSH1 0x0 PUSH1 0x20 DUP3 DUP5 SUB SLT ISZERO PUSH2 0x3729 JUMPI PUSH2 0x3728 PUSH2 0x34BB JUMP JUMPDEST JUMPDEST PUSH1 0x0 PUSH2 0x3737 DUP5 DUP3 DUP6 ADD PUSH2 0x3544 JUMP JUMPDEST SWAP2 POP POP SWAP3 SWAP2 POP POP JUMP JUMPDEST PUSH1 0x0 PUSH1 0x20 DUP3 ADD SWAP1 POP PUSH2 0x3755 PUSH1 0x0 DUP4 ADD DUP5 PUSH2 0x35A8 JUMP JUMPDEST SWAP3 SWAP2 POP POP JUMP JUMPDEST PUSH1 0x0 DUP1 REVERT JUMPDEST PUSH1 0x0 DUP1 REVERT JUMPDEST PUSH32 0x4E487B7100000000000000000000000000000000000000000000000000000000 PUSH1 0x0 MSTORE PUSH1 0x41 PUSH1 0x4 MSTORE PUSH1 0x24 PUSH1 0x0 REVERT JUMPDEST PUSH2 0x379D DUP3 PUSH2 0x35FD JUMP JUMPDEST DUP2 ADD DUP2 DUP2 LT PUSH8 0xFFFFFFFFFFFFFFFF DUP3 GT OR ISZERO PUSH2 0x37BC JUMPI PUSH2 0x37BB PUSH2 0x3765 JUMP JUMPDEST JUMPDEST DUP1 PUSH1 0x40 MSTORE POP POP POP JUMP JUMPDEST PUSH1 0x0 PUSH2 0x37CF PUSH2 0x34B1 JUMP JUMPDEST SWAP1 POP PUSH2 0x37DB DUP3 DUP3 PUSH2 0x3794 JUMP JUMPDEST SWAP2 SWAP1 POP JUMP JUMPDEST PUSH1 0x0 PUSH8 0xFFFFFFFFFFFFFFFF DUP3 GT ISZERO PUSH2 0x37FB JUMPI PUSH2 0x37FA PUSH2 0x3765 JUMP JUMPDEST JUMPDEST PUSH2 0x3804 DUP3 PUSH2 0x35FD JUMP JUMPDEST SWAP1 POP PUSH1 0x20 DUP2 ADD SWAP1 POP SWAP2 SWAP1 POP JUMP JUMPDEST DUP3 DUP2 DUP4 CALLDATACOPY PUSH1 0x0 DUP4 DUP4 ADD MSTORE POP POP POP JUMP JUMPDEST PUSH1 0x0 PUSH2 0x3833 PUSH2 0x382E DUP5 PUSH2 0x37E0 JUMP JUMPDEST PUSH2 0x37C5 JUMP JUMPDEST SWAP1 POP DUP3 DUP2 MSTORE PUSH1 0x20 DUP2 ADD DUP5 DUP5 DUP5 ADD GT ISZERO PUSH2 0x384F JUMPI PUSH2 0x384E PUSH2 0x3760 JUMP JUMPDEST JUMPDEST PUSH2 0x385A DUP5 DUP3 DUP6 PUSH2 0x3811 JUMP JUMPDEST POP SWAP4 SWAP3 POP POP POP JUMP JUMPDEST PUSH1 0x0 DUP3 PUSH1 0x1F DUP4 ADD SLT PUSH2 0x3877 JUMPI PUSH2 0x3876 PUSH2 0x375B JUMP JUMPDEST JUMPDEST DUP2 CALLDATALOAD PUSH2 0x3887 DUP5 DUP3 PUSH1 0x20 DUP7 ADD PUSH2 0x3820 JUMP JUMPDEST SWAP2 POP POP SWAP3 SWAP2 POP POP JUMP JUMPDEST PUSH1 0x0 DUP1 PUSH1 0x0 DUP1 PUSH1 0x0 DUP1 PUSH1 0xC0 DUP8 DUP10 SUB SLT ISZERO PUSH2 0x38AD JUMPI PUSH2 0x38AC PUSH2 0x34BB JUMP JUMPDEST JUMPDEST PUSH1 0x0 PUSH2 0x38BB DUP10 DUP3 DUP11 ADD PUSH2 0x350E JUMP JUMPDEST SWAP7 POP POP PUSH1 0x20 PUSH2 0x38CC DUP10 DUP3 DUP11 ADD PUSH2 0x3544 JUMP JUMPDEST SWAP6 POP POP PUSH1 0x40 PUSH2 0x38DD DUP10 DUP3 DUP11 ADD PUSH2 0x3544 JUMP JUMPDEST SWAP5 POP POP PUSH1 0x60 DUP8 ADD CALLDATALOAD PUSH8 0xFFFFFFFFFFFFFFFF DUP2 GT ISZERO PUSH2 0x38FE JUMPI PUSH2 0x38FD PUSH2 0x34C0 JUMP JUMPDEST JUMPDEST PUSH2 0x390A DUP10 DUP3 DUP11 ADD PUSH2 0x3862 JUMP JUMPDEST SWAP4 POP POP PUSH1 0x80 DUP8 ADD CALLDATALOAD PUSH8 0xFFFFFFFFFFFFFFFF DUP2 GT ISZERO PUSH2 0x392B JUMPI PUSH2 0x392A PUSH2 0x34C0 JUMP JUMPDEST JUMPDEST PUSH2 0x3937 DUP10 DUP3 DUP11 ADD PUSH2 0x3862 JUMP JUMPDEST SWAP3 POP POP PUSH1 0xA0 DUP8 ADD CALLDATALOAD PUSH8 0xFFFFFFFFFFFFFFFF DUP2 GT ISZERO PUSH2 0x3958 JUMPI PUSH2 0x3957 PUSH2 0x34C0 JUMP JUMPDEST JUMPDEST PUSH2 0x3964 DUP10 DUP3 DUP11 ADD PUSH2 0x3862 JUMP JUMPDEST SWAP2 POP POP SWAP3 SWAP6 POP SWAP3 SWAP6 POP SWAP3 SWAP6 JUMP JUMPDEST PUSH1 0x0 DUP1 PUSH1 0x40 DUP4 DUP6 SUB SLT ISZERO PUSH2 0x3988 JUMPI PUSH2 0x3987 PUSH2 0x34BB JUMP JUMPDEST JUMPDEST PUSH1 0x0 PUSH2 0x3996 DUP6 DUP3 DUP7 ADD PUSH2 0x3544 JUMP JUMPDEST SWAP3 POP POP PUSH1 0x20 PUSH2 0x39A7 DUP6 DUP3 DUP7 ADD PUSH2 0x3544 JUMP JUMPDEST SWAP2 POP POP SWAP3 POP SWAP3 SWAP1 POP JUMP JUMPDEST PUSH1 0x0 DUP2 MLOAD SWAP1 POP SWAP2 SWAP1 POP JUMP JUMPDEST PUSH1 0x0 DUP3 DUP3 MSTORE PUSH1 0x20 DUP3 ADD SWAP1 POP SWAP3 SWAP2 POP POP JUMP JUMPDEST PUSH1 0x0 DUP2 SWAP1 POP PUSH1 0x20 DUP3 ADD SWAP1 POP SWAP2 SWAP1 POP JUMP JUMPDEST PUSH2 0x39E6 DUP2 PUSH2 0x34E5 JUMP JUMPDEST DUP3 MSTORE POP POP JUMP JUMPDEST PUSH2 0x39F5 DUP2 PUSH2 0x3523 JUMP JUMPDEST DUP3 MSTORE POP POP JUMP JUMPDEST PUSH1 0x0 DUP3 DUP3 MSTORE PUSH1 0x20 DUP3 ADD SWAP1 POP SWAP3 SWAP2 POP POP JUMP JUMPDEST PUSH1 0x0 PUSH2 0x3A17 DUP3 PUSH2 0x35B7 JUMP JUMPDEST PUSH2 0x3A21 DUP2 DUP6 PUSH2 0x39FB JUMP JUMPDEST SWAP4 POP PUSH2 0x3A31 DUP2 DUP6 PUSH1 0x20 DUP7 ADD PUSH2 0x35D3 JUMP JUMPDEST PUSH2 0x3A3A DUP2 PUSH2 0x35FD JUMP JUMPDEST DUP5 ADD SWAP2 POP POP SWAP3 SWAP2 POP POP JUMP JUMPDEST PUSH2 0x3A4E DUP2 PUSH2 0x3647 JUMP JUMPDEST DUP3 MSTORE POP POP JUMP JUMPDEST PUSH1 0x0 DUP2 MLOAD SWAP1 POP SWAP2 SWAP1 POP JUMP JUMPDEST PUSH1 0x0 DUP3 DUP3 MSTORE PUSH1 0x20 DUP3 ADD SWAP1 POP SWAP3 SWAP2 POP POP JUMP JUMPDEST PUSH1 0x0 DUP2 SWAP1 POP PUSH1 0x20 DUP3 ADD SWAP1 POP SWAP2 SWAP1 POP JUMP JUMPDEST PUSH32 0x4E487B7100000000000000000000000000000000000000000000000000000000 PUSH1 0x0 MSTORE PUSH1 0x21 PUSH1 0x4 MSTORE PUSH1 0x24 PUSH1 0x0 REVERT JUMPDEST PUSH1 0x3 DUP2 LT PUSH2 0x3AC0 JUMPI PUSH2 0x3ABF PUSH2 0x3A80 JUMP JUMPDEST JUMPDEST POP JUMP JUMPDEST PUSH1 0x0 DUP2 SWAP1 POP PUSH2 0x3AD1 DUP3 PUSH2 0x3AAF JUMP JUMPDEST SWAP2 SWAP1 POP JUMP JUMPDEST PUSH1 0x0 PUSH2 0x3AE1 DUP3 PUSH2 0x3AC3 JUMP JUMPDEST SWAP1 POP SWAP2 SWAP1 POP JUMP JUMPDEST PUSH2 0x3AF1 DUP2 PUSH2 0x3AD6 JUMP JUMPDEST DUP3 MSTORE POP POP JUMP JUMPDEST PUSH1 0x0 PUSH1 0xA0 DUP4 ADD PUSH1 0x0 DUP4 ADD MLOAD DUP5 DUP3 SUB PUSH1 0x0 DUP7 ADD MSTORE PUSH2 0x3B14 DUP3 DUP3 PUSH2 0x3A0C JUMP JUMPDEST SWAP2 POP POP PUSH1 0x20 DUP4 ADD MLOAD PUSH2 0x3B29 PUSH1 0x20 DUP7 ADD DUP3 PUSH2 0x39EC JUMP JUMPDEST POP PUSH1 0x40 DUP4 ADD MLOAD PUSH2 0x3B3C PUSH1 0x40 DUP7 ADD DUP3 PUSH2 0x3AE8 JUMP JUMPDEST POP PUSH1 0x60 DUP4 ADD MLOAD PUSH2 0x3B4F PUSH1 0x60 DUP7 ADD DUP3 PUSH2 0x3A45 JUMP JUMPDEST POP PUSH1 0x80 DUP4 ADD MLOAD PUSH2 0x3B62 PUSH1 0x80 DUP7 ADD DUP3 PUSH2 0x39EC JUMP JUMPDEST POP DUP1 SWAP2 POP POP SWAP3 SWAP2 POP POP JUMP JUMPDEST PUSH1 0x0 PUSH2 0x3B79 DUP4 DUP4 PUSH2 0x3AF7 JUMP JUMPDEST SWAP1 POP SWAP3 SWAP2 POP POP JUMP JUMPDEST PUSH1 0x0 PUSH1 0x20 DUP3 ADD SWAP1 POP SWAP2 SWAP1 POP JUMP JUMPDEST PUSH1 0x0 PUSH2 0x3B99 DUP3 PUSH2 0x3A54 JUMP JUMPDEST PUSH2 0x3BA3 DUP2 DUP6 PUSH2 0x3A5F JUMP JUMPDEST SWAP4 POP DUP4 PUSH1 0x20 DUP3 MUL DUP6 ADD PUSH2 0x3BB5 DUP6 PUSH2 0x3A70 JUMP JUMPDEST DUP1 PUSH1 0x0 JUMPDEST DUP6 DUP2 LT ISZERO PUSH2 0x3BF1 JUMPI DUP5 DUP5 SUB DUP10 MSTORE DUP2 MLOAD PUSH2 0x3BD2 DUP6 DUP3 PUSH2 0x3B6D JUMP JUMPDEST SWAP5 POP PUSH2 0x3BDD DUP4 PUSH2 0x3B81 JUMP JUMPDEST SWAP3 POP PUSH1 0x20 DUP11 ADD SWAP10 POP POP PUSH1 0x1 DUP2 ADD SWAP1 POP PUSH2 0x3BB9 JUMP JUMPDEST POP DUP3 SWAP8 POP DUP8 SWAP6 POP POP POP POP POP POP SWAP3 SWAP2 POP POP JUMP JUMPDEST PUSH1 0x0 PUSH2 0x160 DUP4 ADD PUSH1 0x0 DUP4 ADD MLOAD PUSH2 0x3C1C PUSH1 0x0 DUP7 ADD DUP3 PUSH2 0x39DD JUMP JUMPDEST POP PUSH1 0x20 DUP4 ADD MLOAD PUSH2 0x3C2F PUSH1 0x20 DUP7 ADD DUP3 PUSH2 0x39EC JUMP JUMPDEST POP PUSH1 0x40 DUP4 ADD MLOAD PUSH2 0x3C42 PUSH1 0x40 DUP7 ADD DUP3 PUSH2 0x39EC JUMP JUMPDEST POP PUSH1 0x60 DUP4 ADD MLOAD DUP5 DUP3 SUB PUSH1 0x60 DUP7 ADD MSTORE PUSH2 0x3C5A DUP3 DUP3 PUSH2 0x3A0C JUMP JUMPDEST SWAP2 POP POP PUSH1 0x80 DUP4 ADD MLOAD DUP5 DUP3 SUB PUSH1 0x80 DUP7 ADD MSTORE PUSH2 0x3C74 DUP3 DUP3 PUSH2 0x3A0C JUMP JUMPDEST SWAP2 POP POP PUSH1 0xA0 DUP4 ADD MLOAD DUP5 DUP3 SUB PUSH1 0xA0 DUP7 ADD MSTORE PUSH2 0x3C8E DUP3 DUP3 PUSH2 0x3A0C JUMP JUMPDEST SWAP2 POP POP PUSH1 0xC0 DUP4 ADD MLOAD PUSH2 0x3CA3 PUSH1 0xC0 DUP7 ADD DUP3 PUSH2 0x3A45 JUMP JUMPDEST POP PUSH1 0xE0 DUP4 ADD MLOAD PUSH2 0x3CB6 PUSH1 0xE0 DUP7 ADD DUP3 PUSH2 0x3A45 JUMP JUMPDEST POP PUSH2 0x100 DUP4 ADD MLOAD PUSH2 0x3CCB PUSH2 0x100 DUP7 ADD DUP3 PUSH2 0x3A45 JUMP JUMPDEST POP PUSH2 0x120 DUP4 ADD MLOAD DUP5 DUP3 SUB PUSH2 0x120 DUP7 ADD MSTORE PUSH2 0x3CE5 DUP3 DUP3 PUSH2 0x3B8E JUMP JUMPDEST SWAP2 POP POP PUSH2 0x140 DUP4 ADD MLOAD PUSH2 0x3CFC PUSH2 0x140 DUP7 ADD DUP3 PUSH2 0x39EC JUMP JUMPDEST POP DUP1 SWAP2 POP POP SWAP3 SWAP2 POP POP JUMP JUMPDEST PUSH1 0x0 PUSH2 0x3D13 DUP4 DUP4 PUSH2 0x3C03 JUMP JUMPDEST SWAP1 POP SWAP3 SWAP2 POP POP JUMP JUMPDEST PUSH1 0x0 PUSH1 0x20 DUP3 ADD SWAP1 POP SWAP2 SWAP1 POP JUMP JUMPDEST PUSH1 0x0 PUSH2 0x3D33 DUP3 PUSH2 0x39B1 JUMP JUMPDEST PUSH2 0x3D3D DUP2 DUP6 PUSH2 0x39BC JUMP JUMPDEST SWAP4 POP DUP4 PUSH1 0x20 DUP3 MUL DUP6 ADD PUSH2 0x3D4F DUP6 PUSH2 0x39CD JUMP JUMPDEST DUP1 PUSH1 0x0 JUMPDEST DUP6 DUP2 LT ISZERO PUSH2 0x3D8B JUMPI DUP5 DUP5 SUB DUP10 MSTORE DUP2 MLOAD PUSH2 0x3D6C DUP6 DUP3 PUSH2 0x3D07 JUMP JUMPDEST SWAP5 POP PUSH2 0x3D77 DUP4 PUSH2 0x3D1B JUMP JUMPDEST SWAP3 POP PUSH1 0x20 DUP11 ADD SWAP10 POP POP PUSH1 0x1 DUP2 ADD SWAP1 POP PUSH2 0x3D53 JUMP JUMPDEST POP DUP3 SWAP8 POP DUP8 SWAP6 POP POP POP POP POP POP SWAP3 SWAP2 POP POP JUMP JUMPDEST PUSH1 0x0 PUSH1 0x20 DUP3 ADD SWAP1 POP DUP2 DUP2 SUB PUSH1 0x0 DUP4 ADD MSTORE PUSH2 0x3DB7 DUP2 DUP5 PUSH2 0x3D28 JUMP JUMPDEST SWAP1 POP SWAP3 SWAP2 POP POP JUMP JUMPDEST PUSH1 0x0 PUSH2 0x160 DUP4 ADD PUSH1 0x0 DUP4 ADD MLOAD PUSH2 0x3DD8 PUSH1 0x0 DUP7 ADD DUP3 PUSH2 0x39DD JUMP JUMPDEST POP PUSH1 0x20 DUP4 ADD MLOAD PUSH2 0x3DEB PUSH1 0x20 DUP7 ADD DUP3 PUSH2 0x39EC JUMP JUMPDEST POP PUSH1 0x40 DUP4 ADD MLOAD PUSH2 0x3DFE PUSH1 0x40 DUP7 ADD DUP3 PUSH2 0x39EC JUMP JUMPDEST POP PUSH1 0x60 DUP4 ADD MLOAD DUP5 DUP3 SUB PUSH1 0x60 DUP7 ADD MSTORE PUSH2 0x3E16 DUP3 DUP3 PUSH2 0x3A0C JUMP JUMPDEST SWAP2 POP POP PUSH1 0x80 DUP4 ADD MLOAD DUP5 DUP3 SUB PUSH1 0x80 DUP7 ADD MSTORE PUSH2 0x3E30 DUP3 DUP3 PUSH2 0x3A0C JUMP JUMPDEST SWAP2 POP POP PUSH1 0xA0 DUP4 ADD MLOAD DUP5 DUP3 SUB PUSH1 0xA0 DUP7 ADD MSTORE PUSH2 0x3E4A DUP3 DUP3 PUSH2 0x3A0C JUMP JUMPDEST SWAP2 POP POP PUSH1 0xC0 DUP4 ADD MLOAD PUSH2 0x3E5F PUSH1 0xC0 DUP7 ADD DUP3 PUSH2 0x3A45 JUMP JUMPDEST POP PUSH1 0xE0 DUP4 ADD MLOAD PUSH2 0x3E72 PUSH1 0xE0 DUP7 ADD DUP3 PUSH2 0x3A45 JUMP JUMPDEST POP PUSH2 0x100 DUP4 ADD MLOAD PUSH2 0x3E87 PUSH2 0x100 DUP7 ADD DUP3 PUSH2 0x3A45 JUMP JUMPDEST POP PUSH2 0x120 DUP4 ADD MLOAD DUP5 DUP3 SUB PUSH2 0x120 DUP7 ADD MSTORE PUSH2 0x3EA1 DUP3 DUP3 PUSH2 0x3B8E JUMP JUMPDEST SWAP2 POP POP PUSH2 0x140 DUP4 ADD MLOAD PUSH2 0x3EB8 PUSH2 0x140 DUP7 ADD DUP3 PUSH2 0x39EC JUMP JUMPDEST POP DUP1 SWAP2 POP POP SWAP3 SWAP2 POP POP JUMP JUMPDEST PUSH1 0x0 PUSH1 0x20 DUP3 ADD SWAP1 POP DUP2 DUP2 SUB PUSH1 0x0 DUP4 ADD MSTORE PUSH2 0x3EDD DUP2 DUP5 PUSH2 0x3DBF JUMP JUMPDEST SWAP1 POP SWAP3 SWAP2 POP POP JUMP JUMPDEST PUSH1 0x0 DUP3 DUP3 MSTORE PUSH1 0x20 DUP3 ADD SWAP1 POP SWAP3 SWAP2 POP POP JUMP JUMPDEST PUSH1 0x0 PUSH2 0x3F01 DUP3 PUSH2 0x3A54 JUMP JUMPDEST PUSH2 0x3F0B DUP2 DUP6 PUSH2 0x3EE5 JUMP JUMPDEST SWAP4 POP DUP4 PUSH1 0x20 DUP3 MUL DUP6 ADD PUSH2 0x3F1D DUP6 PUSH2 0x3A70 JUMP JUMPDEST DUP1 PUSH1 0x0 JUMPDEST DUP6 DUP2 LT ISZERO PUSH2 0x3F59 JUMPI DUP5 DUP5 SUB DUP10 MSTORE DUP2 MLOAD PUSH2 0x3F3A DUP6 DUP3 PUSH2 0x3B6D JUMP JUMPDEST SWAP5 POP PUSH2 0x3F45 DUP4 PUSH2 0x3B81 JUMP JUMPDEST SWAP3 POP PUSH1 0x20 DUP11 ADD SWAP10 POP POP PUSH1 0x1 DUP2 ADD SWAP1 POP PUSH2 0x3F21 JUMP JUMPDEST POP DUP3 SWAP8 POP DUP8 SWAP6 POP POP POP POP POP POP SWAP3 SWAP2 POP POP JUMP JUMPDEST PUSH1 0x0 PUSH1 0x20 DUP3 ADD SWAP1 POP DUP2 DUP2 SUB PUSH1 0x0 DUP4 ADD MSTORE PUSH2 0x3F85 DUP2 DUP5 PUSH2 0x3EF6 JUMP JUMPDEST SWAP1 POP SWAP3 SWAP2 POP POP JUMP JUMPDEST PUSH1 0x0 PUSH1 0x20 DUP3 DUP5 SUB SLT ISZERO PUSH2 0x3FA3 JUMPI PUSH2 0x3FA2 PUSH2 0x34BB JUMP JUMPDEST JUMPDEST PUSH1 0x0 PUSH2 0x3FB1 DUP5 DUP3 DUP6 ADD PUSH2 0x350E JUMP JUMPDEST SWAP2 POP POP SWAP3 SWAP2 POP POP JUMP JUMPDEST PUSH1 0x0 PUSH1 0x20 DUP3 ADD SWAP1 POP PUSH2 0x3FCF PUSH1 0x0 DUP4 ADD DUP5 PUSH2 0x3599 JUMP JUMPDEST SWAP3 SWAP2 POP POP JUMP JUMPDEST PUSH1 0x0 DUP1 PUSH1 0x0 DUP1 PUSH1 0x80 DUP6 DUP8 SUB SLT ISZERO PUSH2 0x3FEF JUMPI PUSH2 0x3FEE PUSH2 0x34BB JUMP JUMPDEST JUMPDEST PUSH1 0x0 PUSH2 0x3FFD DUP8 DUP3 DUP9 ADD PUSH2 0x3544 JUMP JUMPDEST SWAP5 POP POP PUSH1 0x20 DUP6 ADD CALLDATALOAD PUSH8 0xFFFFFFFFFFFFFFFF DUP2 GT ISZERO PUSH2 0x401E JUMPI PUSH2 0x401D PUSH2 0x34C0 JUMP JUMPDEST JUMPDEST PUSH2 0x402A DUP8 DUP3 DUP9 ADD PUSH2 0x3862 JUMP JUMPDEST SWAP4 POP POP PUSH1 0x40 PUSH2 0x403B DUP8 DUP3 DUP9 ADD PUSH2 0x3544 JUMP JUMPDEST SWAP3 POP POP PUSH1 0x60 PUSH2 0x404C DUP8 DUP3 DUP9 ADD PUSH2 0x3544 JUMP JUMPDEST SWAP2 POP POP SWAP3 SWAP6 SWAP2 SWAP5 POP SWAP3 POP JUMP JUMPDEST PUSH32 0x4E487B7100000000000000000000000000000000000000000000000000000000 PUSH1 0x0 MSTORE PUSH1 0x22 PUSH1 0x4 MSTORE PUSH1 0x24 PUSH1 0x0 REVERT JUMPDEST PUSH1 0x0 PUSH1 0x2 DUP3 DIV SWAP1 POP PUSH1 0x1 DUP3 AND DUP1 PUSH2 0x409F JUMPI PUSH1 0x7F DUP3 AND SWAP2 POP JUMPDEST PUSH1 0x20 DUP3 LT DUP2 SUB PUSH2 0x40B2 JUMPI PUSH2 0x40B1 PUSH2 0x4058 JUMP JUMPDEST JUMPDEST POP SWAP2 SWAP1 POP JUMP JUMPDEST PUSH32 0x4E487B7100000000000000000000000000000000000000000000000000000000 PUSH1 0x0 MSTORE PUSH1 0x11 PUSH1 0x4 MSTORE PUSH1 0x24 PUSH1 0x0 REVERT JUMPDEST PUSH1 0x0 PUSH2 0x40F2 DUP3 PUSH2 0x3523 JUMP JUMPDEST SWAP2 POP PUSH2 0x40FD DUP4 PUSH2 0x3523 JUMP JUMPDEST SWAP3 POP DUP3 DUP3 SUB SWAP1 POP DUP2 DUP2 GT ISZERO PUSH2 0x4115 JUMPI PUSH2 0x4114 PUSH2 0x40B8 JUMP JUMPDEST JUMPDEST SWAP3 SWAP2 POP POP JUMP JUMPDEST PUSH32 0x4E487B7100000000000000000000000000000000000000000000000000000000 PUSH1 0x0 MSTORE PUSH1 0x12 PUSH1 0x4 MSTORE PUSH1 0x24 PUSH1 0x0 REVERT JUMPDEST PUSH1 0x0 PUSH2 0x4155 DUP3 PUSH2 0x3523 JUMP JUMPDEST SWAP2 POP PUSH2 0x4160 DUP4 PUSH2 0x3523 JUMP JUMPDEST SWAP3 POP DUP3 PUSH2 0x4170 JUMPI PUSH2 0x416F PUSH2 0x411B JUMP JUMPDEST JUMPDEST DUP3 DUP3 DIV SWAP1 POP SWAP3 SWAP2 POP POP JUMP JUMPDEST PUSH1 0x0 PUSH2 0x4186 DUP3 PUSH2 0x3523 JUMP JUMPDEST SWAP2 POP PUSH2 0x4191 DUP4 PUSH2 0x3523 JUMP JUMPDEST SWAP3 POP DUP3 DUP3 MUL PUSH2 0x419F DUP2 PUSH2 0x3523 JUMP JUMPDEST SWAP2 POP DUP3 DUP3 DIV DUP5 EQ DUP4 ISZERO OR PUSH2 0x41B6 JUMPI PUSH2 0x41B5 PUSH2 0x40B8 JUMP JUMPDEST JUMPDEST POP SWAP3 SWAP2 POP POP JUMP JUMPDEST PUSH32 0x4E4F000000000000000000000000000000000000000000000000000000000000 PUSH1 0x0 DUP3 ADD MSTORE POP JUMP JUMPDEST PUSH1 0x0 PUSH2 0x41F3 PUSH1 0x2 DUP4 PUSH2 0x35C2 JUMP JUMPDEST SWAP2 POP PUSH2 0x41FE DUP3 PUSH2 0x41BD JUMP JUMPDEST PUSH1 0x20 DUP3 ADD SWAP1 POP SWAP2 SWAP1 POP JUMP JUMPDEST PUSH1 0x0 PUSH1 0x20 DUP3 ADD SWAP1 POP DUP2 DUP2 SUB PUSH1 0x0 DUP4 ADD MSTORE PUSH2 0x4222 DUP2 PUSH2 0x41E6 JUMP JUMPDEST SWAP1 POP SWAP2 SWAP1 POP JUMP JUMPDEST PUSH1 0x0 PUSH2 0x4234 DUP3 PUSH2 0x3523 JUMP JUMPDEST SWAP2 POP PUSH2 0x423F DUP4 PUSH2 0x3523 JUMP JUMPDEST SWAP3 POP DUP3 DUP3 ADD SWAP1 POP DUP1 DUP3 GT ISZERO PUSH2 0x4257 JUMPI PUSH2 0x4256 PUSH2 0x40B8 JUMP JUMPDEST JUMPDEST SWAP3 SWAP2 POP POP JUMP JUMPDEST PUSH1 0x0 DUP2 SWAP1 POP DUP2 PUSH1 0x0 MSTORE PUSH1 0x20 PUSH1 0x0 KECCAK256 SWAP1 POP SWAP2 SWAP1 POP JUMP JUMPDEST PUSH1 0x0 PUSH1 0x20 PUSH1 0x1F DUP4 ADD DIV SWAP1 POP SWAP2 SWAP1 POP JUMP JUMPDEST PUSH1 0x0 DUP3 DUP3 SHL SWAP1 POP SWAP3 SWAP2 POP POP JUMP JUMPDEST PUSH1 0x0 PUSH1 0x8 DUP4 MUL PUSH2 0x42BF PUSH32 0xFFFFFFFFFFFFFFFFFFFFFFFFFFFFFFFFFFFFFFFFFFFFFFFFFFFFFFFFFFFFFFFF DUP3 PUSH2 0x4282 JUMP JUMPDEST PUSH2 0x42C9 DUP7 DUP4 PUSH2 0x4282 JUMP JUMPDEST SWAP6 POP DUP1 NOT DUP5 AND SWAP4 POP DUP1 DUP7 AND DUP5 OR SWAP3 POP POP POP SWAP4 SWAP3 POP POP POP JUMP JUMPDEST PUSH1 0x0 DUP2 SWAP1 POP SWAP2 SWAP1 POP JUMP JUMPDEST PUSH1 0x0 PUSH2 0x4306 PUSH2 0x4301 PUSH2 0x42FC DUP5 PUSH2 0x3523 JUMP JUMPDEST PUSH2 0x42E1 JUMP JUMPDEST PUSH2 0x3523 JUMP JUMPDEST SWAP1 POP SWAP2 SWAP1 POP JUMP JUMPDEST PUSH1 0x0 DUP2 SWAP1 POP SWAP2 SWAP1 POP JUMP JUMPDEST PUSH2 0x4320 DUP4 PUSH2 0x42EB JUMP JUMPDEST PUSH2 0x4334 PUSH2 0x432C DUP3 PUSH2 0x430D JUMP JUMPDEST DUP5 DUP5 SLOAD PUSH2 0x428F JUMP JUMPDEST DUP3 SSTORE POP POP POP POP JUMP JUMPDEST PUSH1 0x0 SWAP1 JUMP JUMPDEST PUSH2 0x4349 PUSH2 0x433C JUMP JUMPDEST PUSH2 0x4354 DUP2 DUP5 DUP5 PUSH2 0x4317 JUMP JUMPDEST POP POP POP JUMP JUMPDEST JUMPDEST DUP2 DUP2 LT ISZERO PUSH2 0x4378 JUMPI PUSH2 0x436D PUSH1 0x0 DUP3 PUSH2 0x4341 JUMP JUMPDEST PUSH1 0x1 DUP2 ADD SWAP1 POP PUSH2 0x435A JUMP JUMPDEST POP POP JUMP JUMPDEST PUSH1 0x1F DUP3 GT ISZERO PUSH2 0x43BD JUMPI PUSH2 0x438E DUP2 PUSH2 0x425D JUMP JUMPDEST PUSH2 0x4397 DUP5 PUSH2 0x4272 JUMP JUMPDEST DUP2 ADD PUSH1 0x20 DUP6 LT ISZERO PUSH2 0x43A6 JUMPI DUP2 SWAP1 POP JUMPDEST PUSH2 0x43BA PUSH2 0x43B2 DUP6 PUSH2 0x4272 JUMP JUMPDEST DUP4 ADD DUP3 PUSH2 0x4359 JUMP JUMPDEST POP POP JUMPDEST POP POP POP JUMP JUMPDEST PUSH1 0x0 DUP3 DUP3 SHR SWAP1 POP SWAP3 SWAP2 POP POP JUMP JUMPDEST PUSH1 0x0 PUSH2 0x43E0 PUSH1 0x0 NOT DUP5 PUSH1 0x8 MUL PUSH2 0x43C2 JUMP JUMPDEST NOT DUP1 DUP4 AND SWAP2 POP POP SWAP3 SWAP2 POP POP JUMP JUMPDEST PUSH1 0x0 PUSH2 0x43F9 DUP4 DUP4 PUSH2 0x43CF JUMP JUMPDEST SWAP2 POP DUP3 PUSH1 0x2 MUL DUP3 OR SWAP1 POP SWAP3 SWAP2 POP POP JUMP JUMPDEST PUSH2 0x4412 DUP3 PUSH2 0x35B7 JUMP JUMPDEST PUSH8 0xFFFFFFFFFFFFFFFF DUP2 GT ISZERO PUSH2 0x442B JUMPI PUSH2 0x442A PUSH2 0x3765 JUMP JUMPDEST JUMPDEST PUSH2 0x4435 DUP3 SLOAD PUSH2 0x4087 JUMP JUMPDEST PUSH2 0x4440 DUP3 DUP3 DUP6 PUSH2 0x437C JUMP JUMPDEST PUSH1 0x0 PUSH1 0x20 SWAP1 POP PUSH1 0x1F DUP4 GT PUSH1 0x1 DUP2 EQ PUSH2 0x4473 JUMPI PUSH1 0x0 DUP5 ISZERO PUSH2 0x4461 JUMPI DUP3 DUP8 ADD MLOAD SWAP1 POP JUMPDEST PUSH2 0x446B DUP6 DUP3 PUSH2 0x43ED JUMP JUMPDEST DUP7 SSTORE POP PUSH2 0x44D3 JUMP JUMPDEST PUSH1 0x1F NOT DUP5 AND PUSH2 0x4481 DUP7 PUSH2 0x425D JUMP JUMPDEST PUSH1 0x0 JUMPDEST DUP3 DUP2 LT ISZERO PUSH2 0x44A9 JUMPI DUP5 DUP10 ADD MLOAD DUP3 SSTORE PUSH1 0x1 DUP3 ADD SWAP2 POP PUSH1 0x20 DUP6 ADD SWAP5 POP PUSH1 0x20 DUP2 ADD SWAP1 POP PUSH2 0x4484 JUMP JUMPDEST DUP7 DUP4 LT ISZERO PUSH2 0x44C6 JUMPI DUP5 DUP10 ADD MLOAD PUSH2 0x44C2 PUSH1 0x1F DUP10 AND DUP3 PUSH2 0x43CF JUMP JUMPDEST DUP4 SSTORE POP JUMPDEST PUSH1 0x1 PUSH1 0x2 DUP9 MUL ADD DUP9 SSTORE POP POP POP JUMPDEST POP POP POP POP POP POP JUMP JUMPDEST PUSH1 0x0 DUP2 SLOAD SWAP1 POP PUSH2 0x44EA DUP2 PUSH2 0x4087 JUMP JUMPDEST SWAP1 POP SWAP2 SWAP1 POP JUMP JUMPDEST DUP2 DUP2 SUB PUSH2 0x44FF JUMPI POP POP PUSH2 0x45D7 JUMP JUMPDEST PUSH2 0x4508 DUP3 PUSH2 0x44DB JUMP JUMPDEST PUSH8 0xFFFFFFFFFFFFFFFF DUP2 GT ISZERO PUSH2 0x4521 JUMPI PUSH2 0x4520 PUSH2 0x3765 JUMP JUMPDEST JUMPDEST PUSH2 0x452B DUP3 SLOAD PUSH2 0x4087 JUMP JUMPDEST PUSH2 0x4536 DUP3 DUP3 DUP6 PUSH2 0x437C JUMP JUMPDEST PUSH1 0x0 PUSH1 0x1F DUP4 GT PUSH1 0x1 DUP2 EQ PUSH2 0x4565 JUMPI PUSH1 0x0 DUP5 ISZERO PUSH2 0x4553 JUMPI DUP3 DUP8 ADD SLOAD SWAP1 POP JUMPDEST PUSH2 0x455D DUP6 DUP3 PUSH2 0x43ED JUMP JUMPDEST DUP7 SSTORE POP PUSH2 0x45D0 JUMP JUMPDEST PUSH1 0x1F NOT DUP5 AND PUSH2 0x4573 DUP8 PUSH2 0x425D JUMP JUMPDEST SWAP7 POP PUSH2 0x457E DUP7 PUSH2 0x425D JUMP JUMPDEST PUSH1 0x0 JUMPDEST DUP3 DUP2 LT ISZERO PUSH2 0x45A6 JUMPI DUP5 DUP10 ADD SLOAD DUP3 SSTORE PUSH1 0x1 DUP3 ADD SWAP2 POP PUSH1 0x1 DUP6 ADD SWAP5 POP PUSH1 0x20 DUP2 ADD SWAP1 POP PUSH2 0x4581 JUMP JUMPDEST DUP7 DUP4 LT ISZERO PUSH2 0x45C3 JUMPI DUP5 DUP10 ADD SLOAD PUSH2 0x45BF PUSH1 0x1F DUP10 AND DUP3 PUSH2 0x43CF JUMP JUMPDEST DUP4 SSTORE POP JUMPDEST PUSH1 0x1 PUSH1 0x2 DUP9 MUL ADD DUP9 SSTORE POP POP POP JUMPDEST POP POP POP POP POP POP JUMPDEST JUMP JUMPDEST PUSH1 0x0 PUSH2 0x45E4 DUP3 PUSH2 0x3523 JUMP JUMPDEST SWAP2 POP PUSH32 0xFFFFFFFFFFFFFFFFFFFFFFFFFFFFFFFFFFFFFFFFFFFFFFFFFFFFFFFFFFFFFFFF DUP3 SUB PUSH2 0x4616 JUMPI PUSH2 0x4615 PUSH2 0x40B8 JUMP JUMPDEST JUMPDEST PUSH1 0x1 DUP3 ADD SWAP1 POP SWAP2 SWAP1 POP JUMP JUMPDEST PUSH32 0x496E76616C6964206D696C6573746F6E6520696E646578000000000000000000 PUSH1 0x0 DUP3 ADD MSTORE POP JUMP JUMPDEST PUSH1 0x0 PUSH2 0x4657 PUSH1 0x17 DUP4 PUSH2 0x35C2 JUMP JUMPDEST SWAP2 POP PUSH2 0x4662 DUP3 PUSH2 0x4621 JUMP JUMPDEST PUSH1 0x20 DUP3 ADD SWAP1 POP SWAP2 SWAP1 POP JUMP JUMPDEST PUSH1 0x0 PUSH1 0x20 DUP3 ADD SWAP1 POP DUP2 DUP2 SUB PUSH1 0x0 DUP4 ADD MSTORE PUSH2 0x4686 DUP2 PUSH2 0x464A JUMP JUMPDEST SWAP1 POP SWAP2 SWAP1 POP JUMP JUMPDEST PUSH32 0x4E487B7100000000000000000000000000000000000000000000000000000000 PUSH1 0x0 MSTORE PUSH1 0x32 PUSH1 0x4 MSTORE PUSH1 0x24 PUSH1 0x0 REVERT JUMPDEST PUSH32 0x456E74657220412076616C696420416464726573730000000000000000000000 PUSH1 0x0 DUP3 ADD MSTORE POP JUMP JUMPDEST PUSH1 0x0 PUSH2 0x46F2 PUSH1 0x15 DUP4 PUSH2 0x35C2 JUMP JUMPDEST SWAP2 POP PUSH2 0x46FD DUP3 PUSH2 0x46BC JUMP JUMPDEST PUSH1 0x20 DUP3 ADD SWAP1 POP SWAP2 SWAP1 POP JUMP JUMPDEST PUSH1 0x0 PUSH1 0x20 DUP3 ADD SWAP1 POP DUP2 DUP2 SUB PUSH1 0x0 DUP4 ADD MSTORE PUSH2 0x4721 DUP2 PUSH2 0x46E5 JUMP JUMPDEST SWAP1 POP SWAP2 SWAP1 POP JUMP JUMPDEST PUSH1 0x0 DUP2 MLOAD SWAP1 POP PUSH2 0x4737 DUP2 PUSH2 0x352D JUMP JUMPDEST SWAP3 SWAP2 POP POP JUMP JUMPDEST PUSH1 0x0 PUSH1 0x20 DUP3 DUP5 SUB SLT ISZERO PUSH2 0x4753 JUMPI PUSH2 0x4752 PUSH2 0x34BB JUMP JUMPDEST JUMPDEST PUSH1 0x0 PUSH2 0x4761 DUP5 DUP3 DUP6 ADD PUSH2 0x4728 JUMP JUMPDEST SWAP2 POP POP SWAP3 SWAP2 POP POP JUMP JUMPDEST PUSH1 0x0 PUSH1 0x60 DUP3 ADD SWAP1 POP PUSH2 0x477F PUSH1 0x0 DUP4 ADD DUP7 PUSH2 0x3599 JUMP JUMPDEST PUSH2 0x478C PUSH1 0x20 DUP4 ADD DUP6 PUSH2 0x3599 JUMP JUMPDEST PUSH2 0x4799 PUSH1 0x40 DUP4 ADD DUP5 PUSH2 0x35A8 JUMP JUMPDEST SWAP5 SWAP4 POP POP POP POP JUMP JUMPDEST PUSH2 0x47AA DUP2 PUSH2 0x3647 JUMP JUMPDEST DUP2 EQ PUSH2 0x47B5 JUMPI PUSH1 0x0 DUP1 REVERT JUMPDEST POP JUMP JUMPDEST PUSH1 0x0 DUP2 MLOAD SWAP1 POP PUSH2 0x47C7 DUP2 PUSH2 0x47A1 JUMP JUMPDEST SWAP3 SWAP2 POP POP JUMP JUMPDEST PUSH1 0x0 PUSH1 0x20 DUP3 DUP5 SUB SLT ISZERO PUSH2 0x47E3 JUMPI PUSH2 0x47E2 PUSH2 0x34BB JUMP JUMPDEST JUMPDEST PUSH1 0x0 PUSH2 0x47F1 DUP5 DUP3 DUP6 ADD PUSH2 0x47B8 JUMP JUMPDEST SWAP2 POP POP SWAP3 SWAP2 POP POP JUMP JUMPDEST PUSH32 0x496E73756666696369656E742062616C616E636520666F7220616D6F756E7420 PUSH1 0x0 DUP3 ADD MSTORE PUSH32 0x616E64206C617465206665650000000000000000000000000000000000000000 PUSH1 0x20 DUP3 ADD MSTORE POP JUMP JUMPDEST PUSH1 0x0 PUSH2 0x4856 PUSH1 0x2C DUP4 PUSH2 0x35C2 JUMP JUMPDEST SWAP2 POP PUSH2 0x4861 DUP3 PUSH2 0x47FA JUMP JUMPDEST PUSH1 0x40 DUP3 ADD SWAP1 POP SWAP2 SWAP1 POP JUMP JUMPDEST PUSH1 0x0 PUSH1 0x20 DUP3 ADD SWAP1 POP DUP2 DUP2 SUB PUSH1 0x0 DUP4 ADD MSTORE PUSH2 0x4885 DUP2 PUSH2 0x4849 JUMP JUMPDEST SWAP1 POP SWAP2 SWAP1 POP JUMP JUMPDEST PUSH1 0x0 DUP2 SWAP1 POP SWAP3 SWAP2 POP POP JUMP JUMPDEST PUSH1 0x0 PUSH2 0x48A2 DUP3 PUSH2 0x35B7 JUMP JUMPDEST PUSH2 0x48AC DUP2 DUP6 PUSH2 0x488C JUMP JUMPDEST SWAP4 POP PUSH2 0x48BC DUP2 DUP6 PUSH1 0x20 DUP7 ADD PUSH2 0x35D3 JUMP JUMPDEST DUP1 DUP5 ADD SWAP2 POP POP SWAP3 SWAP2 POP POP JUMP JUMPDEST PUSH1 0x0 PUSH2 0x48D4 DUP3 DUP5 PUSH2 0x4897 JUMP JUMPDEST SWAP2 POP DUP2 SWAP1 POP SWAP3 SWAP2 POP POP JUMP JUMPDEST PUSH32 0x496E73756666696369656E742062616C616E6365000000000000000000000000 PUSH1 0x0 DUP3 ADD MSTORE POP JUMP JUMPDEST PUSH1 0x0 PUSH2 0x4915 PUSH1 0x14 DUP4 PUSH2 0x35C2 JUMP JUMPDEST SWAP2 POP PUSH2 0x4920 DUP3 PUSH2 0x48DF JUMP JUMPDEST PUSH1 0x20 DUP3 ADD SWAP1 POP SWAP2 SWAP1 POP JUMP JUMPDEST PUSH1 0x0 PUSH1 0x20 DUP3 ADD SWAP1 POP DUP2 DUP2 SUB PUSH1 0x0 DUP4 ADD MSTORE PUSH2 0x4944 DUP2 PUSH2 0x4908 JUMP JUMPDEST SWAP1 POP SWAP2 SWAP1 POP JUMP INVALID LOG2 PUSH5 0x6970667358 0x22 SLT KECCAK256 EXP SWAP15 0xB4 SWAP9 PUSH29 0xC5CCDAE6848D3B03258BEB8EBF2159696273ACB05B5CE51B62858C6473 PUSH16 0x6C634300081800330000000000000000 "},"methodIdentifiers":{"acceptInvoice(uint256)":"f3c3d215","addMilestone(uint256,string,uint256,uint256)":"93d17e25","calculateLateFee(uint256)":"0e502e94","calculateLateFeeForSupplier(uint256,uint256)":"29772446","confirmPaymentRelease(uint256)":"8beed0f8","createInvoice(address,uint256,uint256,string,string,string)":"1c93a097","depositToEscrow(uint256)":"daa41e70","erc20TokenAddress()":"f835cd3c","generateAllInvoice()":"3141da53","getInvoice(uint256)":"3a23cc0a","getInvoicesForClient()":"3301c652","getMilestones(uint256)":"42c549c0","invoiceCount(address)":"4b7535d9","invoiceCreator()":"68a93d2d","invoices(address,uint256)":"0dad62fa","markMilestoneCompleted(uint256,uint256)":"5cae48f5"}}}}}