{
  "_format": "hh-sol-artifact-1",
  "contractName": "MasterContract",
  "sourceName": "contracts/master.sol",
  "abi": [
    {
      "inputs": [
        {
          "internalType": "address",
          "name": "tokenAddress",
          "type": "address"
        }
      ],
      "stateMutability": "nonpayable",
      "type": "constructor"
    },
    {
      "anonymous": false,
      "inputs": [
        {
          "indexed": true,
          "internalType": "uint256",
          "name": "agreementId",
          "type": "uint256"
        },
        {
          "indexed": true,
          "internalType": "address",
          "name": "customer",
          "type": "address"
        },
        {
          "indexed": true,
          "internalType": "uint256",
          "name": "totalAmount",
          "type": "uint256"
        }
      ],
      "name": "AgreementCreated",
      "type": "event"
    },
    {
      "anonymous": false,
      "inputs": [
        {
          "indexed": true,
          "internalType": "address",
          "name": "businessAddress",
          "type": "address"
        },
        {
          "indexed": true,
          "internalType": "string",
          "name": "businessName",
          "type": "string"
        }
      ],
      "name": "BusinessRegistered",
      "type": "event"
    },
    {
      "anonymous": false,
      "inputs": [
        {
          "indexed": true,
          "internalType": "uint256",
          "name": "amount",
          "type": "uint256"
        },
        {
          "indexed": false,
          "internalType": "address",
          "name": "from",
          "type": "address"
        }
      ],
      "name": "DepositReceived",
      "type": "event"
    },
    {
      "anonymous": false,
      "inputs": [
        {
          "indexed": true,
          "internalType": "uint256",
          "name": "agreementId",
          "type": "uint256"
        },
        {
          "indexed": false,
          "internalType": "address",
          "name": "_supplier",
          "type": "address"
        },
        {
          "indexed": true,
          "internalType": "uint256",
          "name": "milestoneIndex",
          "type": "uint256"
        },
        {
          "indexed": true,
          "internalType": "string",
          "name": "invoiceDetails",
          "type": "string"
        }
      ],
      "name": "InvoiceGenerated",
      "type": "event"
    },
    {
      "anonymous": false,
      "inputs": [
        {
          "indexed": true,
          "internalType": "uint256",
          "name": "agreementId",
          "type": "uint256"
        },
        {
          "indexed": true,
          "internalType": "uint256",
          "name": "milestoneIndex",
          "type": "uint256"
        }
      ],
      "name": "MilestoneCompleted",
      "type": "event"
    },
    {
      "anonymous": false,
      "inputs": [
        {
          "indexed": true,
          "internalType": "uint256",
          "name": "agreementId",
          "type": "uint256"
        },
        {
          "indexed": false,
          "internalType": "address",
          "name": "_supplier",
          "type": "address"
        },
        {
          "indexed": true,
          "internalType": "uint256",
          "name": "milestoneIndex",
          "type": "uint256"
        },
        {
          "indexed": true,
          "internalType": "uint256",
          "name": "amount",
          "type": "uint256"
        }
      ],
      "name": "PaymentReleased",
      "type": "event"
    },
    {
      "anonymous": false,
      "inputs": [
        {
          "indexed": true,
          "internalType": "uint256",
          "name": "agreementId",
          "type": "uint256"
        },
        {
          "indexed": true,
          "internalType": "address",
          "name": "supplier",
          "type": "address"
        }
      ],
      "name": "SupplierAdded",
      "type": "event"
    },
    {
      "inputs": [
        {
          "internalType": "uint256",
          "name": "_agreementId",
          "type": "uint256"
        },
        {
          "internalType": "address",
          "name": "_supplier",
          "type": "address"
        },
        {
          "internalType": "string[]",
          "name": "_milestoneDescriptions",
          "type": "string[]"
        },
        {
          "internalType": "uint256[]",
          "name": "_milestoneAmounts",
          "type": "uint256[]"
        }
      ],
      "name": "addSupplier",
      "outputs": [],
      "stateMutability": "nonpayable",
      "type": "function"
    },
    {
      "inputs": [
        {
          "internalType": "uint256",
          "name": "",
          "type": "uint256"
        }
      ],
      "name": "agreements",
      "outputs": [
        {
          "internalType": "address",
          "name": "customer",
          "type": "address"
        },
        {
          "internalType": "uint256",
          "name": "totalAmount",
          "type": "uint256"
        },
        {
          "internalType": "uint256",
          "name": "deadline",
          "type": "uint256"
        },
        {
          "internalType": "string",
          "name": "termsOfBusiness",
          "type": "string"
        },
        {
          "internalType": "bool",
          "name": "isCompleted",
          "type": "bool"
        }
      ],
      "stateMutability": "view",
      "type": "function"
    },
    {
      "inputs": [
        {
          "internalType": "uint256",
          "name": "_agreementId",
          "type": "uint256"
        },
        {
          "internalType": "address",
          "name": "_supplier",
          "type": "address"
        },
        {
          "internalType": "uint256",
          "name": "_milestoneIndex",
          "type": "uint256"
        }
      ],
      "name": "confirmMilestoneCompletion",
      "outputs": [],
      "stateMutability": "nonpayable",
      "type": "function"
    },
    {
      "inputs": [
        {
          "internalType": "address",
          "name": "_customer",
          "type": "address"
        },
        {
          "internalType": "uint256",
          "name": "_totalAmount",
          "type": "uint256"
        },
        {
          "internalType": "uint256",
          "name": "_deadline",
          "type": "uint256"
        },
        {
          "internalType": "string",
          "name": "_terms",
          "type": "string"
        }
      ],
      "name": "createAgreement",
      "outputs": [
        {
          "internalType": "uint256",
          "name": "aggreementId",
          "type": "uint256"
        }
      ],
      "stateMutability": "nonpayable",
      "type": "function"
    },
    {
      "inputs": [
        {
          "internalType": "uint256",
          "name": "_aggreementId",
          "type": "uint256"
        },
        {
          "internalType": "uint256",
          "name": "amount",
          "type": "uint256"
        }
      ],
      "name": "depositToEscrow",
      "outputs": [],
      "stateMutability": "nonpayable",
      "type": "function"
    },
    {
      "inputs": [],
      "name": "escrowAmount",
      "outputs": [
        {
          "internalType": "uint256",
          "name": "",
          "type": "uint256"
        }
      ],
      "stateMutability": "view",
      "type": "function"
    },
    {
      "inputs": [
        {
          "internalType": "uint256",
          "name": "_agreementId",
          "type": "uint256"
        },
        {
          "internalType": "uint256",
          "name": "_milestoneIndex",
          "type": "uint256"
        }
      ],
      "name": "markMilesstoneCompleted",
      "outputs": [],
      "stateMutability": "nonpayable",
      "type": "function"
    },
    {
      "inputs": [],
      "name": "paymentToken",
      "outputs": [
        {
          "internalType": "contract Token",
          "name": "",
          "type": "address"
        }
      ],
      "stateMutability": "view",
      "type": "function"
    },
    {
      "inputs": [
        {
          "internalType": "string",
          "name": "_name",
          "type": "string"
        },
        {
          "internalType": "string",
          "name": "_category",
          "type": "string"
        }
      ],
      "name": "registerBusiness",
      "outputs": [],
      "stateMutability": "nonpayable",
      "type": "function"
    },
    {
      "inputs": [
        {
          "internalType": "address",
          "name": "",
          "type": "address"
        }
      ],
      "name": "registeredBusiness",
      "outputs": [
        {
          "internalType": "string",
          "name": "businessName",
          "type": "string"
        },
        {
          "internalType": "string",
          "name": "category",
          "type": "string"
        },
        {
          "internalType": "bool",
          "name": "isRegistered",
          "type": "bool"
        }
      ],
      "stateMutability": "view",
      "type": "function"
    }
  ],
  "bytecode": "0x60806040523480156200001157600080fd5b5060405162002f2038038062002f208339818101604052810190620000379190620000f1565b600160028190555080600360006101000a81548173ffffffffffffffffffffffffffffffffffffffff021916908373ffffffffffffffffffffffffffffffffffffffff1602179055505062000123565b600080fd5b600073ffffffffffffffffffffffffffffffffffffffff82169050919050565b6000620000b9826200008c565b9050919050565b620000cb81620000ac565b8114620000d757600080fd5b50565b600081519050620000eb81620000c0565b92915050565b6000602082840312156200010a576200010962000087565b5b60006200011a84828501620000da565b91505092915050565b612ded80620001336000396000f3fe608060405234801561001057600080fd5b506004361061009e5760003560e01c80635d910ec1116100665780635d910ec114610149578063787dde4d14610165578063bd14de9614610181578063d16c0d4e146101b5578063fa4cd183146101d15761009e565b80631193d7fe146100a35780633013ce29146100d5578063397294f5146100f357806347a7846f1461010f5780634c6989981461012d575b600080fd5b6100bd60048036038101906100b89190611840565b610201565b6040516100cc93929190611918565b60405180910390f35b6100dd610348565b6040516100ea91906119bc565b60405180910390f35b61010d60048036038101906101089190611a0d565b61036e565b005b610117610586565b6040516101249190611a5c565b60405180910390f35b61014760048036038101906101429190611a77565b61058c565b005b610163600480360381019061015e9190611bff565b6107ab565b005b61017f600480360381019061017a9190611e20565b6108b4565b005b61019b60048036038101906101969190611ebf565b610d2b565b6040516101ac959493929190611efb565b60405180910390f35b6101cf60048036038101906101ca9190611a0d565b610e16565b005b6101eb60048036038101906101e69190611f55565b610ff4565b6040516101f89190611a5c565b60405180910390f35b600460205280600052604060002060009150905080600001805461022490612007565b80601f016020809104026020016040519081016040528092919081815260200182805461025090612007565b801561029d5780601f106102725761010080835404028352916020019161029d565b820191906000526020600020905b81548152906001019060200180831161028057829003601f168201915b5050505050908060010180546102b290612007565b80601f01602080910402602001604051908101604052809291908181526020018280546102de90612007565b801561032b5780601f106103005761010080835404028352916020019161032b565b820191906000526020600020905b81548152906001019060200180831161030e57829003601f168201915b5050505050908060020160009054906101000a900460ff16905083565b600360009054906101000a900473ffffffffffffffffffffffffffffffffffffffff1681565b600060056000848152602001908152602001600020905060008160050160003373ffffffffffffffffffffffffffffffffffffffff1673ffffffffffffffffffffffffffffffffffffffff16815260200190815260200160002090503373ffffffffffffffffffffffffffffffffffffffff168160000160009054906101000a900473ffffffffffffffffffffffffffffffffffffffff1673ffffffffffffffffffffffffffffffffffffffff161461045c576040517f08c379a0000000000000000000000000000000000000000000000000000000008152600401610453906120aa565b60405180910390fd5b600060048111156104705761046f6120ca565b5b816001018481548110610486576104856120f9565b5b906000526020600020906003020160020160009054906101000a900460ff1660048111156104b7576104b66120ca565b5b146104f7576040517f08c379a00000000000000000000000000000000000000000000000000000000081526004016104ee90612174565b60405180910390fd5b600181600101848154811061050f5761050e6120f9565b5b906000526020600020906003020160020160006101000a81548160ff02191690836004811115610542576105416120ca565b5b021790555082847f1b7218c0ac23ea9cbe4df603d2b340fbf469a115b73ea3d11460727f445d6be160405160405180910390a361058084843361114d565b50505050565b60005481565b600060056000858152602001908152602001600020905060008160050160003373ffffffffffffffffffffffffffffffffffffffff1673ffffffffffffffffffffffffffffffffffffffff1681526020019081526020016000209050600160048111156105fc576105fb6120ca565b5b816001018481548110610612576106116120f9565b5b906000526020600020906003020160020160009054906101000a900460ff166004811115610643576106426120ca565b5b14610683576040517f08c379a000000000000000000000000000000000000000000000000000000000815260040161067a90612206565b60405180910390fd5b600381600101848154811061069b5761069a6120f9565b5b906000526020600020906003020160020160006101000a81548160ff021916908360048111156106ce576106cd6120ca565b5b0217905550600160048111156106e7576106e66120ca565b5b8160010184815481106106fd576106fc6120f9565b5b906000526020600020906003020160020160009054906101000a900460ff16600481111561072e5761072d6120ca565b5b14801561079357506003600481111561074a576107496120ca565b5b8160010184815481106107605761075f6120f9565b5b906000526020600020906003020160020160009054906101000a900460ff166004811115610791576107906120ca565b5b145b156107a4576107a385858561127b565b5b5050505050565b604051806060016040528083815260200182815260200160011515815250600460003373ffffffffffffffffffffffffffffffffffffffff1673ffffffffffffffffffffffffffffffffffffffff168152602001908152602001600020600082015181600001908161081d91906123c8565b50602082015181600101908161083391906123c8565b5060408201518160020160006101000a81548160ff0219169083151502179055509050508160405161086591906124d6565b60405180910390203373ffffffffffffffffffffffffffffffffffffffff167f160d4f1baa5abe6346266de469621d777ce8d4ed54db1ecdeae78b47bad7faa560405160405180910390a35050565b833373ffffffffffffffffffffffffffffffffffffffff166005600083815260200190815260200160002060000160009054906101000a900473ffffffffffffffffffffffffffffffffffffffff1673ffffffffffffffffffffffffffffffffffffffff1614610959576040517f08c379a00000000000000000000000000000000000000000000000000000000081526004016109509061255f565b60405180910390fd5b600073ffffffffffffffffffffffffffffffffffffffff168473ffffffffffffffffffffffffffffffffffffffff16036109c8576040517f08c379a00000000000000000000000000000000000000000000000000000000081526004016109bf906125cb565b60405180910390fd5b8151835114610a0c576040517f08c379a0000000000000000000000000000000000000000000000000000000008152600401610a039061265d565b60405180910390fd5b6000600560008781526020019081526020016000209050600073ffffffffffffffffffffffffffffffffffffffff168160050160008773ffffffffffffffffffffffffffffffffffffffff1673ffffffffffffffffffffffffffffffffffffffff16815260200190815260200160002060000160009054906101000a900473ffffffffffffffffffffffffffffffffffffffff1673ffffffffffffffffffffffffffffffffffffffff1614610af6576040517f08c379a0000000000000000000000000000000000000000000000000000000008152600401610aed906126c9565b60405180910390fd5b60008160050160008773ffffffffffffffffffffffffffffffffffffffff1673ffffffffffffffffffffffffffffffffffffffff1681526020019081526020016000209050858160000160006101000a81548173ffffffffffffffffffffffffffffffffffffffff021916908373ffffffffffffffffffffffffffffffffffffffff16021790555060005b8551811015610c7857816001016040518060600160405280888481518110610bac57610bab6120f9565b5b60200260200101518152602001878481518110610bcc57610bcb6120f9565b5b6020026020010151815260200160006004811115610bed57610bec6120ca565b5b81525090806001815401808255809150506001900390600052602060002090600302016000909190919091506000820151816000019081610c2e91906123c8565b506020820151816001015560408201518160020160006101000a81548160ff02191690836004811115610c6457610c636120ca565b5b021790555050508080600101915050610b81565b5081600401869080600181540180825580915050600190039060005260206000200160009091909190916101000a81548173ffffffffffffffffffffffffffffffffffffffff021916908373ffffffffffffffffffffffffffffffffffffffff1602179055508573ffffffffffffffffffffffffffffffffffffffff16877f0708f7d08a0f1ecbaffcac591cf459503ce0b3914de0033c28ff31953757877760405160405180910390a350505050505050565b60056020528060005260406000206000915090508060000160009054906101000a900473ffffffffffffffffffffffffffffffffffffffff1690806001015490806002015490806003018054610d8090612007565b80601f0160208091040260200160405190810160405280929190818152602001828054610dac90612007565b8015610df95780601f10610dce57610100808354040283529160200191610df9565b820191906000526020600020905b815481529060010190602001808311610ddc57829003601f168201915b5050505050908060060160009054906101000a900460ff16905085565b60008111610e59576040517f08c379a0000000000000000000000000000000000000000000000000000000008152600401610e5090612735565b60405180910390fd5b3373ffffffffffffffffffffffffffffffffffffffff166005600084815260200190815260200160002060000160009054906101000a900473ffffffffffffffffffffffffffffffffffffffff1673ffffffffffffffffffffffffffffffffffffffff1614610efd576040517f08c379a0000000000000000000000000000000000000000000000000000000008152600401610ef4906127a1565b60405180910390fd5b600360009054906101000a900473ffffffffffffffffffffffffffffffffffffffff1673ffffffffffffffffffffffffffffffffffffffff166323b872dd3330846040518463ffffffff1660e01b8152600401610f5c939291906127c1565b6020604051808303816000875af1158015610f7b573d6000803e3d6000fd5b505050506040513d601f19601f82011682018060405250810190610f9f9190612824565b5080600080828254610fb19190612880565b92505081905550807f72e01ff1e5f1f178e84968b1978234a7a2a5415f1080236fc76ffbf0a61d807b33604051610fe891906128b4565b60405180910390a25050565b60008073ffffffffffffffffffffffffffffffffffffffff168573ffffffffffffffffffffffffffffffffffffffff1603611064576040517f08c379a000000000000000000000000000000000000000000000000000000000815260040161105b9061291b565b60405180910390fd5b60006005600060025481526020019081526020016000209050858160000160006101000a81548173ffffffffffffffffffffffffffffffffffffffff021916908373ffffffffffffffffffffffffffffffffffffffff160217905550848160010181905550838160020181905550828160030190816110e391906123c8565b50848673ffffffffffffffffffffffffffffffffffffffff166002547f06c4009a390ccbb198bfacc475957cf2cf16354f89ef6ff87d5b5a2a94f284fc60405160405180910390a46002600081548092919061113e9061293b565b91905055915050949350505050565b600060056000858152602001908152602001600020905060008160050160008473ffffffffffffffffffffffffffffffffffffffff1673ffffffffffffffffffffffffffffffffffffffff168152602001908152602001600020905060008160010185815481106111c1576111c06120f9565b5b90600052602060002090600302016000016112028360010187815481106111eb576111ea6120f9565b5b906000526020600020906003020160010154611668565b604051602001611213929190612a9e565b60405160208183030381529060405290508060405161123291906124d6565b604051809103902085877ffaa26ebf090dd0cbff31e5521865e4a007fc3b32f9703880fe2c7281387603c38760405161126b91906128b4565b60405180910390a4505050505050565b600060056000858152602001908152602001600020905060008160050160003373ffffffffffffffffffffffffffffffffffffffff1673ffffffffffffffffffffffffffffffffffffffff1681526020019081526020016000209050600160048111156112eb576112ea6120ca565b5b816001018481548110611301576113006120f9565b5b906000526020600020906003020160020160009054906101000a900460ff166004811115611332576113316120ca565b5b14611372576040517f08c379a000000000000000000000000000000000000000000000000000000000815260040161136990612b24565b60405180910390fd5b60036004811115611386576113856120ca565b5b81600101848154811061139c5761139b6120f9565b5b906000526020600020906003020160020160009054906101000a900460ff1660048111156113cd576113cc6120ca565b5b1461140d576040517f08c379a000000000000000000000000000000000000000000000000000000000815260040161140490612bb6565b60405180910390fd5b6004808111156114205761141f6120ca565b5b816001018481548110611436576114356120f9565b5b906000526020600020906003020160020160009054906101000a900460ff166004811115611467576114666120ca565b5b146114a7576040517f08c379a000000000000000000000000000000000000000000000000000000000815260040161149e90612c48565b60405180910390fd5b60008160010184815481106114bf576114be6120f9565b5b9060005260206000209060030201600101549050600360009054906101000a900473ffffffffffffffffffffffffffffffffffffffff1673ffffffffffffffffffffffffffffffffffffffff1663a9059cbb8360000160009054906101000a900473ffffffffffffffffffffffffffffffffffffffff16836040518363ffffffff1660e01b8152600401611554929190612c68565b6020604051808303816000875af1158015611573573d6000803e3d6000fd5b505050506040513d601f19601f820116820180604052508101906115979190612824565b6115d6576040517f08c379a00000000000000000000000000000000000000000000000000000000081526004016115cd90612cdd565b60405180910390fd5b60028260010185815481106115ee576115ed6120f9565b5b906000526020600020906003020160020160006101000a81548160ff02191690836004811115611621576116206120ca565b5b02179055508084877f8cdc8dc08e54a4e57f52077ecf1b4c508758513439cae2aa325dcc85b922fca88860405161165891906128b4565b60405180910390a4505050505050565b6060600082036116af576040518060400160405280600181526020017f300000000000000000000000000000000000000000000000000000000000000081525090506117c9565b600082905060005b600082146116e15780806116ca9061293b565b915050600a826116da9190612d2c565b91506116b7565b60008167ffffffffffffffff8111156116fd576116fc611ad4565b5b6040519080825280601f01601f19166020018201604052801561172f5781602001600182028036833780820191505090505b50905060008290508593505b600084146117c157600a846117509190612d5d565b603061175c9190612880565b60f81b828261176a90612d8e565b9250828151811061177e5761177d6120f9565b5b60200101907effffffffffffffffffffffffffffffffffffffffffffffffffffffffffffff1916908160001a905350600a846117ba9190612d2c565b935061173b565b819450505050505b919050565b6000604051905090565b600080fd5b600080fd5b600073ffffffffffffffffffffffffffffffffffffffff82169050919050565b600061180d826117e2565b9050919050565b61181d81611802565b811461182857600080fd5b50565b60008135905061183a81611814565b92915050565b600060208284031215611856576118556117d8565b5b60006118648482850161182b565b91505092915050565b600081519050919050565b600082825260208201905092915050565b60005b838110156118a757808201518184015260208101905061188c565b60008484015250505050565b6000601f19601f8301169050919050565b60006118cf8261186d565b6118d98185611878565b93506118e9818560208601611889565b6118f2816118b3565b840191505092915050565b60008115159050919050565b611912816118fd565b82525050565b6000606082019050818103600083015261193281866118c4565b9050818103602083015261194681856118c4565b90506119556040830184611909565b949350505050565b6000819050919050565b600061198261197d611978846117e2565b61195d565b6117e2565b9050919050565b600061199482611967565b9050919050565b60006119a682611989565b9050919050565b6119b68161199b565b82525050565b60006020820190506119d160008301846119ad565b92915050565b6000819050919050565b6119ea816119d7565b81146119f557600080fd5b50565b600081359050611a07816119e1565b92915050565b60008060408385031215611a2457611a236117d8565b5b6000611a32858286016119f8565b9250506020611a43858286016119f8565b9150509250929050565b611a56816119d7565b82525050565b6000602082019050611a716000830184611a4d565b92915050565b600080600060608486031215611a9057611a8f6117d8565b5b6000611a9e868287016119f8565b9350506020611aaf8682870161182b565b9250506040611ac0868287016119f8565b9150509250925092565b600080fd5b600080fd5b7f4e487b7100000000000000000000000000000000000000000000000000000000600052604160045260246000fd5b611b0c826118b3565b810181811067ffffffffffffffff82111715611b2b57611b2a611ad4565b5b80604052505050565b6000611b3e6117ce565b9050611b4a8282611b03565b919050565b600067ffffffffffffffff821115611b6a57611b69611ad4565b5b611b73826118b3565b9050602081019050919050565b82818337600083830152505050565b6000611ba2611b9d84611b4f565b611b34565b905082815260208101848484011115611bbe57611bbd611acf565b5b611bc9848285611b80565b509392505050565b600082601f830112611be657611be5611aca565b5b8135611bf6848260208601611b8f565b91505092915050565b60008060408385031215611c1657611c156117d8565b5b600083013567ffffffffffffffff811115611c3457611c336117dd565b5b611c4085828601611bd1565b925050602083013567ffffffffffffffff811115611c6157611c606117dd565b5b611c6d85828601611bd1565b9150509250929050565b600067ffffffffffffffff821115611c9257611c91611ad4565b5b602082029050602081019050919050565b600080fd5b6000611cbb611cb684611c77565b611b34565b90508083825260208201905060208402830185811115611cde57611cdd611ca3565b5b835b81811015611d2557803567ffffffffffffffff811115611d0357611d02611aca565b5b808601611d108982611bd1565b85526020850194505050602081019050611ce0565b5050509392505050565b600082601f830112611d4457611d43611aca565b5b8135611d54848260208601611ca8565b91505092915050565b600067ffffffffffffffff821115611d7857611d77611ad4565b5b602082029050602081019050919050565b6000611d9c611d9784611d5d565b611b34565b90508083825260208201905060208402830185811115611dbf57611dbe611ca3565b5b835b81811015611de85780611dd488826119f8565b845260208401935050602081019050611dc1565b5050509392505050565b600082601f830112611e0757611e06611aca565b5b8135611e17848260208601611d89565b91505092915050565b60008060008060808587031215611e3a57611e396117d8565b5b6000611e48878288016119f8565b9450506020611e598782880161182b565b935050604085013567ffffffffffffffff811115611e7a57611e796117dd565b5b611e8687828801611d2f565b925050606085013567ffffffffffffffff811115611ea757611ea66117dd565b5b611eb387828801611df2565b91505092959194509250565b600060208284031215611ed557611ed46117d8565b5b6000611ee3848285016119f8565b91505092915050565b611ef581611802565b82525050565b600060a082019050611f106000830188611eec565b611f1d6020830187611a4d565b611f2a6040830186611a4d565b8181036060830152611f3c81856118c4565b9050611f4b6080830184611909565b9695505050505050565b60008060008060808587031215611f6f57611f6e6117d8565b5b6000611f7d8782880161182b565b9450506020611f8e878288016119f8565b9350506040611f9f878288016119f8565b925050606085013567ffffffffffffffff811115611fc057611fbf6117dd565b5b611fcc87828801611bd1565b91505092959194509250565b7f4e487b7100000000000000000000000000000000000000000000000000000000600052602260045260246000fd5b6000600282049050600182168061201f57607f821691505b60208210810361203257612031611fd8565b5b50919050565b7f4f6e6c7920737570706c6965722063616e206d61726b20617320636f6d706c6560008201527f7465000000000000000000000000000000000000000000000000000000000000602082015250565b6000612094602283611878565b915061209f82612038565b604082019050919050565b600060208201905081810360008301526120c381612087565b9050919050565b7f4e487b7100000000000000000000000000000000000000000000000000000000600052602160045260246000fd5b7f4e487b7100000000000000000000000000000000000000000000000000000000600052603260045260246000fd5b7f4d696c6573746f6e6520616c726561647920636f6d706c657465640000000000600082015250565b600061215e601b83611878565b915061216982612128565b602082019050919050565b6000602082019050818103600083015261218d81612151565b9050919050565b7f4d696c6573746f6e65206e6f7420636f6d706c6574656420627920737570706c60008201527f6965720000000000000000000000000000000000000000000000000000000000602082015250565b60006121f0602383611878565b91506121fb82612194565b604082019050919050565b6000602082019050818103600083015261221f816121e3565b9050919050565b60008190508160005260206000209050919050565b60006020601f8301049050919050565b600082821b905092915050565b6000600883026122887fffffffffffffffffffffffffffffffffffffffffffffffffffffffffffffffff8261224b565b612292868361224b565b95508019841693508086168417925050509392505050565b60006122c56122c06122bb846119d7565b61195d565b6119d7565b9050919050565b6000819050919050565b6122df836122aa565b6122f36122eb826122cc565b848454612258565b825550505050565b600090565b6123086122fb565b6123138184846122d6565b505050565b5b818110156123375761232c600082612300565b600181019050612319565b5050565b601f82111561237c5761234d81612226565b6123568461223b565b81016020851015612365578190505b6123796123718561223b565b830182612318565b50505b505050565b600082821c905092915050565b600061239f60001984600802612381565b1980831691505092915050565b60006123b8838361238e565b9150826002028217905092915050565b6123d18261186d565b67ffffffffffffffff8111156123ea576123e9611ad4565b5b6123f48254612007565b6123ff82828561233b565b600060209050601f8311600181146124325760008415612420578287015190505b61242a85826123ac565b865550612492565b601f19841661244086612226565b60005b8281101561246857848901518255600182019150602085019450602081019050612443565b868310156124855784890151612481601f89168261238e565b8355505b6001600288020188555050505b505050505050565b600081905092915050565b60006124b08261186d565b6124ba818561249a565b93506124ca818560208601611889565b80840191505092915050565b60006124e282846124a5565b915081905092915050565b7f4f6e6c792074686520637573746f6d65722063616e20706572666f726d20746860008201527f697320616374696f6e0000000000000000000000000000000000000000000000602082015250565b6000612549602983611878565b9150612554826124ed565b604082019050919050565b600060208201905081810360008301526125788161253c565b9050919050565b7f496e76616c696420737570706c69657220616464726573730000000000000000600082015250565b60006125b5601883611878565b91506125c08261257f565b602082019050919050565b600060208201905081810360008301526125e4816125a8565b9050919050565b7f4465736372697074696f6e7320616e6420616d6f756e7473206c656e6774682060008201527f6d69736d61746368000000000000000000000000000000000000000000000000602082015250565b6000612647602883611878565b9150612652826125eb565b604082019050919050565b600060208201905081810360008301526126768161263a565b9050919050565b7f537570706c69657220616c726561647920616464656400000000000000000000600082015250565b60006126b3601683611878565b91506126be8261267d565b602082019050919050565b600060208201905081810360008301526126e2816126a6565b9050919050565b7f4d7573742073656e6420736f6d652066756e6473000000000000000000000000600082015250565b600061271f601483611878565b915061272a826126e9565b602082019050919050565b6000602082019050818103600083015261274e81612712565b9050919050565b7f4f6e6c7920637573746f6d65722063616e2073656e6400000000000000000000600082015250565b600061278b601683611878565b915061279682612755565b602082019050919050565b600060208201905081810360008301526127ba8161277e565b9050919050565b60006060820190506127d66000830186611eec565b6127e36020830185611eec565b6127f06040830184611a4d565b949350505050565b612801816118fd565b811461280c57600080fd5b50565b60008151905061281e816127f8565b92915050565b60006020828403121561283a576128396117d8565b5b60006128488482850161280f565b91505092915050565b7f4e487b7100000000000000000000000000000000000000000000000000000000600052601160045260246000fd5b600061288b826119d7565b9150612896836119d7565b92508282019050808211156128ae576128ad612851565b5b92915050565b60006020820190506128c96000830184611eec565b92915050565b7f496e76616c696420616464726573736573000000000000000000000000000000600082015250565b6000612905601183611878565b9150612910826128cf565b602082019050919050565b60006020820190508181036000830152612934816128f8565b9050919050565b6000612946826119d7565b91507fffffffffffffffffffffffffffffffffffffffffffffffffffffffffffffffff820361297857612977612851565b5b600182019050919050565b7f496e766f69636520666f72206d696c6573746f6e652000000000000000000000600082015250565b60006129b960168361249a565b91506129c482612983565b601682019050919050565b600081546129dc81612007565b6129e6818661249a565b94506001821660008114612a015760018114612a1657612a49565b60ff1983168652811515820286019350612a49565b612a1f85612226565b60005b83811015612a4157815481890152600182019150602081019050612a22565b838801955050505b50505092915050565b7f2e20416d6f756e743a2000000000000000000000000000000000000000000000600082015250565b6000612a88600a8361249a565b9150612a9382612a52565b600a82019050919050565b6000612aa9826129ac565b9150612ab582856129cf565b9150612ac082612a7b565b9150612acc82846124a5565b91508190509392505050565b7f4d696c6573746f6e65206e6f7420636f6d706c65746564000000000000000000600082015250565b6000612b0e601783611878565b9150612b1982612ad8565b602082019050919050565b60006020820190508181036000830152612b3d81612b01565b9050919050565b7f4d696c6573746f6e65206e6f7420636f6e6669726d656420627920637573746f60008201527f6d65720000000000000000000000000000000000000000000000000000000000602082015250565b6000612ba0602383611878565b9150612bab82612b44565b604082019050919050565b60006020820190508181036000830152612bcf81612b93565b9050919050565b7f4d696c6573746f6e65206e6f7420636f6e6669726d656420627920737570706c60008201527f6965720000000000000000000000000000000000000000000000000000000000602082015250565b6000612c32602383611878565b9150612c3d82612bd6565b604082019050919050565b60006020820190508181036000830152612c6181612c25565b9050919050565b6000604082019050612c7d6000830185611eec565b612c8a6020830184611a4d565b9392505050565b7f546f6b656e207472616e73666572206661696c65640000000000000000000000600082015250565b6000612cc7601583611878565b9150612cd282612c91565b602082019050919050565b60006020820190508181036000830152612cf681612cba565b9050919050565b7f4e487b7100000000000000000000000000000000000000000000000000000000600052601260045260246000fd5b6000612d37826119d7565b9150612d42836119d7565b925082612d5257612d51612cfd565b5b828204905092915050565b6000612d68826119d7565b9150612d73836119d7565b925082612d8357612d82612cfd565b5b828206905092915050565b6000612d99826119d7565b915060008203612dac57612dab612851565b5b60018203905091905056fea26469706673582212207594165ddbf73bad8ede46600f26d9640b74c1fc715c0ea279f36d19f3d9fed564736f6c63430008180033",
  "linkReferences": {},
  "deployedLinkReferences": {}
}