{
  "_format": "hh-sol-artifact-1",
  "contractName": "MasterContract",
  "sourceName": "contracts/master.sol",
  "abi": [
    {
      "inputs": [
        {
          "internalType": "address",
          "name": "tokenAddress",
          "type": "address"
        }
      ],
      "stateMutability": "nonpayable",
      "type": "constructor"
    },
    {
      "anonymous": false,
      "inputs": [
        {
          "indexed": true,
          "internalType": "uint256",
          "name": "agreementId",
          "type": "uint256"
        },
        {
          "indexed": true,
          "internalType": "address",
          "name": "supplier",
          "type": "address"
        },
        {
          "indexed": true,
          "internalType": "address",
          "name": "customer",
          "type": "address"
        },
        {
          "indexed": false,
          "internalType": "uint256",
          "name": "totalAmount",
          "type": "uint256"
        }
      ],
      "name": "AgreementCreated",
      "type": "event"
    },
    {
      "anonymous": false,
      "inputs": [
        {
          "indexed": true,
          "internalType": "address",
          "name": "businessAddress",
          "type": "address"
        },
        {
          "indexed": true,
          "internalType": "string",
          "name": "businessName",
          "type": "string"
        }
      ],
      "name": "BusinessRegistered",
      "type": "event"
    },
    {
      "anonymous": false,
      "inputs": [
        {
          "indexed": true,
          "internalType": "uint256",
          "name": "amount",
          "type": "uint256"
        },
        {
          "indexed": false,
          "internalType": "address",
          "name": "from",
          "type": "address"
        }
      ],
      "name": "DepositReceived",
      "type": "event"
    },
    {
      "anonymous": false,
      "inputs": [
        {
          "indexed": true,
          "internalType": "uint256",
          "name": "agreementId",
          "type": "uint256"
        },
        {
          "indexed": true,
          "internalType": "uint256",
          "name": "milestoneIndex",
          "type": "uint256"
        },
        {
          "indexed": true,
          "internalType": "string",
          "name": "invoiceDetails",
          "type": "string"
        }
      ],
      "name": "InvoiceGenerated",
      "type": "event"
    },
    {
      "anonymous": false,
      "inputs": [
        {
          "indexed": true,
          "internalType": "uint256",
          "name": "agreementId",
          "type": "uint256"
        },
        {
          "indexed": true,
          "internalType": "uint256",
          "name": "milestoneIndex",
          "type": "uint256"
        }
      ],
      "name": "MilestoneCompleted",
      "type": "event"
    },
    {
      "anonymous": false,
      "inputs": [
        {
          "indexed": true,
          "internalType": "uint256",
          "name": "agreementId",
          "type": "uint256"
        },
        {
          "indexed": true,
          "internalType": "uint256",
          "name": "milestoneIndex",
          "type": "uint256"
        },
        {
          "indexed": true,
          "internalType": "uint256",
          "name": "amount",
          "type": "uint256"
        }
      ],
      "name": "PaymentReleased",
      "type": "event"
    },
    {
      "inputs": [
        {
          "internalType": "uint256",
          "name": "",
          "type": "uint256"
        }
      ],
      "name": "agreements",
      "outputs": [
        {
          "internalType": "address",
          "name": "supplier",
          "type": "address"
        },
        {
          "internalType": "address",
          "name": "customer",
          "type": "address"
        },
        {
          "internalType": "uint256",
          "name": "totalAmount",
          "type": "uint256"
        },
        {
          "internalType": "uint256",
          "name": "deadline",
          "type": "uint256"
        },
        {
          "internalType": "string",
          "name": "termsOfBusiness",
          "type": "string"
        },
        {
          "internalType": "bool",
          "name": "isCompleted",
          "type": "bool"
        }
      ],
      "stateMutability": "view",
      "type": "function"
    },
    {
      "inputs": [
        {
          "internalType": "uint256",
          "name": "_agreementId",
          "type": "uint256"
        },
        {
          "internalType": "uint256",
          "name": "_milestoneIndex",
          "type": "uint256"
        }
      ],
      "name": "confirmMilestoneCompletion",
      "outputs": [],
      "stateMutability": "nonpayable",
      "type": "function"
    },
    {
      "inputs": [
        {
          "internalType": "address",
          "name": "_supplier",
          "type": "address"
        },
        {
          "internalType": "address",
          "name": "_customer",
          "type": "address"
        },
        {
          "internalType": "uint256",
          "name": "_totalAmount",
          "type": "uint256"
        },
        {
          "internalType": "string[]",
          "name": "_milestoneDescriptions",
          "type": "string[]"
        },
        {
          "internalType": "uint256",
          "name": "_deadline",
          "type": "uint256"
        },
        {
          "internalType": "uint256[]",
          "name": "_milestoneAmounts",
          "type": "uint256[]"
        },
        {
          "internalType": "string",
          "name": "_terms",
          "type": "string"
        }
      ],
      "name": "createAgreement",
      "outputs": [
        {
          "internalType": "uint256",
          "name": "aggreementId",
          "type": "uint256"
        }
      ],
      "stateMutability": "nonpayable",
      "type": "function"
    },
    {
      "inputs": [
        {
          "internalType": "uint256",
          "name": "_aggreementId",
          "type": "uint256"
        },
        {
          "internalType": "uint256",
          "name": "amount",
          "type": "uint256"
        }
      ],
      "name": "depositToEscrow",
      "outputs": [],
      "stateMutability": "nonpayable",
      "type": "function"
    },
    {
      "inputs": [],
      "name": "escrowAmount",
      "outputs": [
        {
          "internalType": "uint256",
          "name": "",
          "type": "uint256"
        }
      ],
      "stateMutability": "view",
      "type": "function"
    },
    {
      "inputs": [
        {
          "internalType": "uint256",
          "name": "__aggreementId",
          "type": "uint256"
        },
        {
          "internalType": "uint256",
          "name": "_milestoneIndex",
          "type": "uint256"
        }
      ],
      "name": "generateInvoice",
      "outputs": [],
      "stateMutability": "nonpayable",
      "type": "function"
    },
    {
      "inputs": [
        {
          "internalType": "uint256",
          "name": "_agreementId",
          "type": "uint256"
        },
        {
          "internalType": "uint256",
          "name": "_milestoneIndex",
          "type": "uint256"
        }
      ],
      "name": "markMilesstoneCompleted",
      "outputs": [],
      "stateMutability": "nonpayable",
      "type": "function"
    },
    {
      "inputs": [],
      "name": "paymentToken",
      "outputs": [
        {
          "internalType": "contract Token",
          "name": "",
          "type": "address"
        }
      ],
      "stateMutability": "view",
      "type": "function"
    },
    {
      "inputs": [
        {
          "internalType": "string",
          "name": "_name",
          "type": "string"
        },
        {
          "internalType": "string",
          "name": "_category",
          "type": "string"
        }
      ],
      "name": "registerBusiness",
      "outputs": [],
      "stateMutability": "nonpayable",
      "type": "function"
    },
    {
      "inputs": [
        {
          "internalType": "address",
          "name": "",
          "type": "address"
        }
      ],
      "name": "registeredBusiness",
      "outputs": [
        {
          "internalType": "string",
          "name": "businessName",
          "type": "string"
        },
        {
          "internalType": "string",
          "name": "category",
          "type": "string"
        },
        {
          "internalType": "bool",
          "name": "isRegistered",
          "type": "bool"
        }
      ],
      "stateMutability": "view",
      "type": "function"
    }
  ],
  "bytecode": "0x60806040523480156200001157600080fd5b5060405162002ae738038062002ae78339818101604052810190620000379190620000f1565b600160028190555080600360006101000a81548173ffffffffffffffffffffffffffffffffffffffff021916908373ffffffffffffffffffffffffffffffffffffffff1602179055505062000123565b600080fd5b600073ffffffffffffffffffffffffffffffffffffffff82169050919050565b6000620000b9826200008c565b9050919050565b620000cb81620000ac565b8114620000d757600080fd5b50565b600081519050620000eb81620000c0565b92915050565b6000602082840312156200010a576200010962000087565b5b60006200011a84828501620000da565b91505092915050565b6129b480620001336000396000f3fe608060405234801561001057600080fd5b506004361061009e5760003560e01c8063b1ed11d511610066578063b1ed11d514610149578063bd14de9614610165578063d16c0d4e1461019a578063dee91e2c146101b6578063fafcfcfc146101e65761009e565b80631193d7fe146100a35780633013ce29146100d5578063397294f5146100f357806347a7846f1461010f5780635d910ec11461012d575b600080fd5b6100bd60048036038101906100b891906115c2565b610202565b6040516100cc9392919061169a565b60405180910390f35b6100dd610349565b6040516100ea919061173e565b60405180910390f35b61010d6004803603810190610108919061178f565b61036f565b005b610117610536565b60405161012491906117de565b60405180910390f35b6101476004803603810190610142919061192e565b61053c565b005b610163600480360381019061015e919061178f565b610645565b005b61017f600480360381019061017a91906119a6565b610813565b604051610191969594939291906119e2565b60405180910390f35b6101b460048036038101906101af919061178f565b610924565b005b6101d060048036038101906101cb9190611bf3565b610b02565b6040516101dd91906117de565b60405180910390f35b61020060048036038101906101fb919061178f565b610e87565b005b600460205280600052604060002060009150905080600001805461022590611d18565b80601f016020809104026020016040519081016040528092919081815260200182805461025190611d18565b801561029e5780601f106102735761010080835404028352916020019161029e565b820191906000526020600020905b81548152906001019060200180831161028157829003601f168201915b5050505050908060010180546102b390611d18565b80601f01602080910402602001604051908101604052809291908181526020018280546102df90611d18565b801561032c5780601f106103015761010080835404028352916020019161032c565b820191906000526020600020905b81548152906001019060200180831161030f57829003601f168201915b5050505050908060020160009054906101000a900460ff16905083565b600360009054906101000a900473ffffffffffffffffffffffffffffffffffffffff1681565b60006005600084815260200190815260200160002090508060000160009054906101000a900473ffffffffffffffffffffffffffffffffffffffff1673ffffffffffffffffffffffffffffffffffffffff163373ffffffffffffffffffffffffffffffffffffffff1614610418576040517f08c379a000000000000000000000000000000000000000000000000000000000815260040161040f90611dbb565b60405180910390fd5b6000600481111561042c5761042b611ddb565b5b81600501838154811061044257610441611e0a565b5b906000526020600020906003020160020160009054906101000a900460ff16600481111561047357610472611ddb565b5b146104b3576040517f08c379a00000000000000000000000000000000000000000000000000000000081526004016104aa90611e85565b60405180910390fd5b60018160050183815481106104cb576104ca611e0a565b5b906000526020600020906003020160020160006101000a81548160ff021916908360048111156104fe576104fd611ddb565b5b021790555081837f1b7218c0ac23ea9cbe4df603d2b340fbf469a115b73ea3d11460727f445d6be160405160405180910390a3505050565b60005481565b604051806060016040528083815260200182815260200160011515815250600460003373ffffffffffffffffffffffffffffffffffffffff1673ffffffffffffffffffffffffffffffffffffffff16815260200190815260200160002060008201518160000190816105ae9190612047565b5060208201518160010190816105c49190612047565b5060408201518160020160006101000a81548160ff021916908315150217905550905050816040516105f69190612155565b60405180910390203373ffffffffffffffffffffffffffffffffffffffff167f160d4f1baa5abe6346266de469621d777ce8d4ed54db1ecdeae78b47bad7faa560405160405180910390a35050565b60006005600084815260200190815260200160002090508060010160009054906101000a900473ffffffffffffffffffffffffffffffffffffffff1673ffffffffffffffffffffffffffffffffffffffff163373ffffffffffffffffffffffffffffffffffffffff16146106ee576040517f08c379a00000000000000000000000000000000000000000000000000000000081526004016106e5906121b8565b60405180910390fd5b600381600501838154811061070657610705611e0a565b5b906000526020600020906003020160020160006101000a81548160ff0219169083600481111561073957610738611ddb565b5b02179055506001600481111561075257610751611ddb565b5b81600501838154811061076857610767611e0a565b5b906000526020600020906003020160020160009054906101000a900460ff16600481111561079957610798611ddb565b5b1480156107fe5750600360048111156107b5576107b4611ddb565b5b8160050183815481106107cb576107ca611e0a565b5b906000526020600020906003020160020160009054906101000a900460ff1660048111156107fc576107fb611ddb565b5b145b1561080e5761080d838361104f565b5b505050565b60056020528060005260406000206000915090508060000160009054906101000a900473ffffffffffffffffffffffffffffffffffffffff16908060010160009054906101000a900473ffffffffffffffffffffffffffffffffffffffff169080600201549080600301549080600401805461088e90611d18565b80601f01602080910402602001604051908101604052809291908181526020018280546108ba90611d18565b80156109075780601f106108dc57610100808354040283529160200191610907565b820191906000526020600020905b8154815290600101906020018083116108ea57829003601f168201915b5050505050908060060160009054906101000a900460ff16905086565b60008111610967576040517f08c379a000000000000000000000000000000000000000000000000000000000815260040161095e90612224565b60405180910390fd5b3373ffffffffffffffffffffffffffffffffffffffff166005600084815260200190815260200160002060010160009054906101000a900473ffffffffffffffffffffffffffffffffffffffff1673ffffffffffffffffffffffffffffffffffffffff1614610a0b576040517f08c379a0000000000000000000000000000000000000000000000000000000008152600401610a0290612290565b60405180910390fd5b600360009054906101000a900473ffffffffffffffffffffffffffffffffffffffff1673ffffffffffffffffffffffffffffffffffffffff166323b872dd3330846040518463ffffffff1660e01b8152600401610a6a939291906122b0565b6020604051808303816000875af1158015610a89573d6000803e3d6000fd5b505050506040513d601f19601f82011682018060405250810190610aad9190612313565b5080600080828254610abf919061236f565b92505081905550807f72e01ff1e5f1f178e84968b1978234a7a2a5415f1080236fc76ffbf0a61d807b33604051610af691906123a3565b60405180910390a25050565b6000600460003373ffffffffffffffffffffffffffffffffffffffff1673ffffffffffffffffffffffffffffffffffffffff16815260200190815260200160002060020160009054906101000a900460ff16610b93576040517f08c379a0000000000000000000000000000000000000000000000000000000008152600401610b8a9061240a565b60405180910390fd5b600073ffffffffffffffffffffffffffffffffffffffff168873ffffffffffffffffffffffffffffffffffffffff1614158015610bfd5750600073ffffffffffffffffffffffffffffffffffffffff168773ffffffffffffffffffffffffffffffffffffffff1614155b610c3c576040517f08c379a0000000000000000000000000000000000000000000000000000000008152600401610c3390612476565b60405180910390fd5b60006005600060025481526020019081526020016000209050888160000160006101000a81548173ffffffffffffffffffffffffffffffffffffffff021916908373ffffffffffffffffffffffffffffffffffffffff160217905550878160010160006101000a81548173ffffffffffffffffffffffffffffffffffffffff021916908373ffffffffffffffffffffffffffffffffffffffff16021790555086816002018190555084816003018190555082816004019081610cfe9190612047565b5060005b8651811015610df957816005016040518060600160405280898481518110610d2d57610d2c611e0a565b5b60200260200101518152602001878481518110610d4d57610d4c611e0a565b5b6020026020010151815260200160006004811115610d6e57610d6d611ddb565b5b81525090806001815401808255809150506001900390600052602060002090600302016000909190919091506000820151816000019081610daf9190612047565b506020820151816001015560408201518160020160006101000a81548160ff02191690836004811115610de557610de4611ddb565b5b021790555050508080600101915050610d02565b508773ffffffffffffffffffffffffffffffffffffffff168973ffffffffffffffffffffffffffffffffffffffff166002547fa3019c2118d1f0fbc2b78ed5c045ac5b0d67e76749d5dca1d62037c1f15e4b168a604051610e5a91906117de565b60405180910390a460026000815480929190610e7590612496565b91905055915050979650505050505050565b60006005600084815260200190815260200160002090508060000160009054906101000a900473ffffffffffffffffffffffffffffffffffffffff1673ffffffffffffffffffffffffffffffffffffffff163373ffffffffffffffffffffffffffffffffffffffff161480610f4b57508060010160009054906101000a900473ffffffffffffffffffffffffffffffffffffffff1673ffffffffffffffffffffffffffffffffffffffff163373ffffffffffffffffffffffffffffffffffffffff16145b610f8a576040517f08c379a0000000000000000000000000000000000000000000000000000000008152600401610f819061252a565b60405180910390fd5b6000816005018381548110610fa257610fa1611e0a565b5b9060005260206000209060030201600001610fe3836005018581548110610fcc57610fcb611e0a565b5b9060005260206000209060030201600101546113ea565b604051602001610ff4929190612665565b6040516020818303038152906040529050806040516110139190612155565b604051809103902083857f41ecbe019398cdf6d130b22f24e70a0171302b2a9e8db40748356716e777aff760405160405180910390a450505050565b60006005600084815260200190815260200160002090506001600481111561107a57611079611ddb565b5b8160050183815481106110905761108f611e0a565b5b906000526020600020906003020160020160009054906101000a900460ff1660048111156110c1576110c0611ddb565b5b14611101576040517f08c379a00000000000000000000000000000000000000000000000000000000081526004016110f8906126eb565b60405180910390fd5b6003600481111561111557611114611ddb565b5b81600501838154811061112b5761112a611e0a565b5b906000526020600020906003020160020160009054906101000a900460ff16600481111561115c5761115b611ddb565b5b1461119c576040517f08c379a00000000000000000000000000000000000000000000000000000000081526004016111939061277d565b60405180910390fd5b6004808111156111af576111ae611ddb565b5b8160050183815481106111c5576111c4611e0a565b5b906000526020600020906003020160020160009054906101000a900460ff1660048111156111f6576111f5611ddb565b5b14611236576040517f08c379a000000000000000000000000000000000000000000000000000000000815260040161122d9061280f565b60405180910390fd5b600081600501838154811061124e5761124d611e0a565b5b9060005260206000209060030201600101549050600360009054906101000a900473ffffffffffffffffffffffffffffffffffffffff1673ffffffffffffffffffffffffffffffffffffffff1663a9059cbb8360000160009054906101000a900473ffffffffffffffffffffffffffffffffffffffff16836040518363ffffffff1660e01b81526004016112e392919061282f565b6020604051808303816000875af1158015611302573d6000803e3d6000fd5b505050506040513d601f19601f820116820180604052508101906113269190612313565b611365576040517f08c379a000000000000000000000000000000000000000000000000000000000815260040161135c906128a4565b60405180910390fd5b600282600501848154811061137d5761137c611e0a565b5b906000526020600020906003020160020160006101000a81548160ff021916908360048111156113b0576113af611ddb565b5b02179055508083857f3c70b1e8034b5738ec77fbfdaa4d28906a0b3160018d67a2dc7b534e53e33fe060405160405180910390a450505050565b606060008203611431576040518060400160405280600181526020017f3000000000000000000000000000000000000000000000000000000000000000815250905061154b565b600082905060005b6000821461146357808061144c90612496565b915050600a8261145c91906128f3565b9150611439565b60008167ffffffffffffffff81111561147f5761147e611803565b5b6040519080825280601f01601f1916602001820160405280156114b15781602001600182028036833780820191505090505b50905060008290508593505b6000841461154357600a846114d29190612924565b60306114de919061236f565b60f81b82826114ec90612955565b92508281518110611500576114ff611e0a565b5b60200101907effffffffffffffffffffffffffffffffffffffffffffffffffffffffffffff1916908160001a905350600a8461153c91906128f3565b93506114bd565b819450505050505b919050565b6000604051905090565b600080fd5b600080fd5b600073ffffffffffffffffffffffffffffffffffffffff82169050919050565b600061158f82611564565b9050919050565b61159f81611584565b81146115aa57600080fd5b50565b6000813590506115bc81611596565b92915050565b6000602082840312156115d8576115d761155a565b5b60006115e6848285016115ad565b91505092915050565b600081519050919050565b600082825260208201905092915050565b60005b8381101561162957808201518184015260208101905061160e565b60008484015250505050565b6000601f19601f8301169050919050565b6000611651826115ef565b61165b81856115fa565b935061166b81856020860161160b565b61167481611635565b840191505092915050565b60008115159050919050565b6116948161167f565b82525050565b600060608201905081810360008301526116b48186611646565b905081810360208301526116c88185611646565b90506116d7604083018461168b565b949350505050565b6000819050919050565b60006117046116ff6116fa84611564565b6116df565b611564565b9050919050565b6000611716826116e9565b9050919050565b60006117288261170b565b9050919050565b6117388161171d565b82525050565b6000602082019050611753600083018461172f565b92915050565b6000819050919050565b61176c81611759565b811461177757600080fd5b50565b60008135905061178981611763565b92915050565b600080604083850312156117a6576117a561155a565b5b60006117b48582860161177a565b92505060206117c58582860161177a565b9150509250929050565b6117d881611759565b82525050565b60006020820190506117f360008301846117cf565b92915050565b600080fd5b600080fd5b7f4e487b7100000000000000000000000000000000000000000000000000000000600052604160045260246000fd5b61183b82611635565b810181811067ffffffffffffffff8211171561185a57611859611803565b5b80604052505050565b600061186d611550565b90506118798282611832565b919050565b600067ffffffffffffffff82111561189957611898611803565b5b6118a282611635565b9050602081019050919050565b82818337600083830152505050565b60006118d16118cc8461187e565b611863565b9050828152602081018484840111156118ed576118ec6117fe565b5b6118f88482856118af565b509392505050565b600082601f830112611915576119146117f9565b5b81356119258482602086016118be565b91505092915050565b600080604083850312156119455761194461155a565b5b600083013567ffffffffffffffff8111156119635761196261155f565b5b61196f85828601611900565b925050602083013567ffffffffffffffff8111156119905761198f61155f565b5b61199c85828601611900565b9150509250929050565b6000602082840312156119bc576119bb61155a565b5b60006119ca8482850161177a565b91505092915050565b6119dc81611584565b82525050565b600060c0820190506119f760008301896119d3565b611a0460208301886119d3565b611a1160408301876117cf565b611a1e60608301866117cf565b8181036080830152611a308185611646565b9050611a3f60a083018461168b565b979650505050505050565b600067ffffffffffffffff821115611a6557611a64611803565b5b602082029050602081019050919050565b600080fd5b6000611a8e611a8984611a4a565b611863565b90508083825260208201905060208402830185811115611ab157611ab0611a76565b5b835b81811015611af857803567ffffffffffffffff811115611ad657611ad56117f9565b5b808601611ae38982611900565b85526020850194505050602081019050611ab3565b5050509392505050565b600082601f830112611b1757611b166117f9565b5b8135611b27848260208601611a7b565b91505092915050565b600067ffffffffffffffff821115611b4b57611b4a611803565b5b602082029050602081019050919050565b6000611b6f611b6a84611b30565b611863565b90508083825260208201905060208402830185811115611b9257611b91611a76565b5b835b81811015611bbb5780611ba7888261177a565b845260208401935050602081019050611b94565b5050509392505050565b600082601f830112611bda57611bd96117f9565b5b8135611bea848260208601611b5c565b91505092915050565b600080600080600080600060e0888a031215611c1257611c1161155a565b5b6000611c208a828b016115ad565b9750506020611c318a828b016115ad565b9650506040611c428a828b0161177a565b955050606088013567ffffffffffffffff811115611c6357611c6261155f565b5b611c6f8a828b01611b02565b9450506080611c808a828b0161177a565b93505060a088013567ffffffffffffffff811115611ca157611ca061155f565b5b611cad8a828b01611bc5565b92505060c088013567ffffffffffffffff811115611cce57611ccd61155f565b5b611cda8a828b01611900565b91505092959891949750929550565b7f4e487b7100000000000000000000000000000000000000000000000000000000600052602260045260246000fd5b60006002820490506001821680611d3057607f821691505b602082108103611d4357611d42611ce9565b5b50919050565b7f4f6e6c7920737570706c6965722063616e206d61726b20617320636f6d706c6560008201527f7465000000000000000000000000000000000000000000000000000000000000602082015250565b6000611da56022836115fa565b9150611db082611d49565b604082019050919050565b60006020820190508181036000830152611dd481611d98565b9050919050565b7f4e487b7100000000000000000000000000000000000000000000000000000000600052602160045260246000fd5b7f4e487b7100000000000000000000000000000000000000000000000000000000600052603260045260246000fd5b7f4d696c6573746f6e6520616c726561647920636f6d706c657465640000000000600082015250565b6000611e6f601b836115fa565b9150611e7a82611e39565b602082019050919050565b60006020820190508181036000830152611e9e81611e62565b9050919050565b60008190508160005260206000209050919050565b60006020601f8301049050919050565b600082821b905092915050565b600060088302611f077fffffffffffffffffffffffffffffffffffffffffffffffffffffffffffffffff82611eca565b611f118683611eca565b95508019841693508086168417925050509392505050565b6000611f44611f3f611f3a84611759565b6116df565b611759565b9050919050565b6000819050919050565b611f5e83611f29565b611f72611f6a82611f4b565b848454611ed7565b825550505050565b600090565b611f87611f7a565b611f92818484611f55565b505050565b5b81811015611fb657611fab600082611f7f565b600181019050611f98565b5050565b601f821115611ffb57611fcc81611ea5565b611fd584611eba565b81016020851015611fe4578190505b611ff8611ff085611eba565b830182611f97565b50505b505050565b600082821c905092915050565b600061201e60001984600802612000565b1980831691505092915050565b6000612037838361200d565b9150826002028217905092915050565b612050826115ef565b67ffffffffffffffff81111561206957612068611803565b5b6120738254611d18565b61207e828285611fba565b600060209050601f8311600181146120b1576000841561209f578287015190505b6120a9858261202b565b865550612111565b601f1984166120bf86611ea5565b60005b828110156120e7578489015182556001820191506020850194506020810190506120c2565b868310156121045784890151612100601f89168261200d565b8355505b6001600288020188555050505b505050505050565b600081905092915050565b600061212f826115ef565b6121398185612119565b935061214981856020860161160b565b80840191505092915050565b60006121618284612124565b915081905092915050565b7f4f6e6c7920637573746f6d65722063616e20636f6e6669726d00000000000000600082015250565b60006121a26019836115fa565b91506121ad8261216c565b602082019050919050565b600060208201905081810360008301526121d181612195565b9050919050565b7f4d7573742073656e6420736f6d652066756e6473000000000000000000000000600082015250565b600061220e6014836115fa565b9150612219826121d8565b602082019050919050565b6000602082019050818103600083015261223d81612201565b9050919050565b7f4f6e6c7920637573746f6d65722063616e2073656e6400000000000000000000600082015250565b600061227a6016836115fa565b915061228582612244565b602082019050919050565b600060208201905081810360008301526122a98161226d565b9050919050565b60006060820190506122c560008301866119d3565b6122d260208301856119d3565b6122df60408301846117cf565b949350505050565b6122f08161167f565b81146122fb57600080fd5b50565b60008151905061230d816122e7565b92915050565b6000602082840312156123295761232861155a565b5b6000612337848285016122fe565b91505092915050565b7f4e487b7100000000000000000000000000000000000000000000000000000000600052601160045260246000fd5b600061237a82611759565b915061238583611759565b925082820190508082111561239d5761239c612340565b5b92915050565b60006020820190506123b860008301846119d3565b92915050565b7f427573696e657373206e6f742072656769737465726564000000000000000000600082015250565b60006123f46017836115fa565b91506123ff826123be565b602082019050919050565b60006020820190508181036000830152612423816123e7565b9050919050565b7f496e76616c696420616464726573736573000000000000000000000000000000600082015250565b60006124606011836115fa565b915061246b8261242a565b602082019050919050565b6000602082019050818103600083015261248f81612453565b9050919050565b60006124a182611759565b91507fffffffffffffffffffffffffffffffffffffffffffffffffffffffffffffffff82036124d3576124d2612340565b5b600182019050919050565b7f556e617574686f72697a65642061636365737300000000000000000000000000600082015250565b60006125146013836115fa565b915061251f826124de565b602082019050919050565b6000602082019050818103600083015261254381612507565b9050919050565b7f496e766f69636520666f72206d696c6573746f6e652000000000000000000000600082015250565b6000612580601683612119565b915061258b8261254a565b601682019050919050565b600081546125a381611d18565b6125ad8186612119565b945060018216600081146125c857600181146125dd57612610565b60ff1983168652811515820286019350612610565b6125e685611ea5565b60005b83811015612608578154818901526001820191506020810190506125e9565b838801955050505b50505092915050565b7f2e20416d6f756e743a2000000000000000000000000000000000000000000000600082015250565b600061264f600a83612119565b915061265a82612619565b600a82019050919050565b600061267082612573565b915061267c8285612596565b915061268782612642565b91506126938284612124565b91508190509392505050565b7f4d696c6573746f6e65206e6f7420636f6d706c65746564000000000000000000600082015250565b60006126d56017836115fa565b91506126e08261269f565b602082019050919050565b60006020820190508181036000830152612704816126c8565b9050919050565b7f4d696c6573746f6e65206e6f7420636f6e6669726d656420627920637573746f60008201527f6d65720000000000000000000000000000000000000000000000000000000000602082015250565b60006127676023836115fa565b91506127728261270b565b604082019050919050565b600060208201905081810360008301526127968161275a565b9050919050565b7f4d696c6573746f6e65206e6f7420636f6e6669726d656420627920737570706c60008201527f6965720000000000000000000000000000000000000000000000000000000000602082015250565b60006127f96023836115fa565b91506128048261279d565b604082019050919050565b60006020820190508181036000830152612828816127ec565b9050919050565b600060408201905061284460008301856119d3565b61285160208301846117cf565b9392505050565b7f546f6b656e207472616e73666572206661696c65640000000000000000000000600082015250565b600061288e6015836115fa565b915061289982612858565b602082019050919050565b600060208201905081810360008301526128bd81612881565b9050919050565b7f4e487b7100000000000000000000000000000000000000000000000000000000600052601260045260246000fd5b60006128fe82611759565b915061290983611759565b925082612919576129186128c4565b5b828204905092915050565b600061292f82611759565b915061293a83611759565b92508261294a576129496128c4565b5b828206905092915050565b600061296082611759565b91506000820361297357612972612340565b5b60018203905091905056fea26469706673582212203804f893f99761bcb08f1568539145c4cbcced5e8ed56d7e5bd50c454fd9dfeb64736f6c63430008170033",
  "linkReferences": {},
  "deployedLinkReferences": {}
}