{
  "_format": "hh-sol-artifact-1",
  "contractName": "PayNVoice",
  "sourceName": "contracts/PayNvoice.sol",
  "abi": [
    {
      "inputs": [
        {
          "internalType": "address",
          "name": "_erc20TokenAddress",
          "type": "address"
        }
      ],
      "stateMutability": "nonpayable",
      "type": "constructor"
    },
    {
      "inputs": [],
      "name": "ADDRESS_ZERO_NOT_PERMITED",
      "type": "error"
    },
    {
      "inputs": [],
      "name": "CANT_INITIATE_RELEASE",
      "type": "error"
    },
    {
      "inputs": [],
      "name": "INVOICE_DOES_NOT_EXIST",
      "type": "error"
    },
    {
      "inputs": [],
      "name": "INVOICE_NOT_FOR_YOU",
      "type": "error"
    },
    {
      "inputs": [],
      "name": "INVOICE_NOT_GENERATED_YET",
      "type": "error"
    },
    {
      "inputs": [],
      "name": "NOT_AUTHORIZE_TO_CALL_THIS_FUNCTION",
      "type": "error"
    },
    {
      "anonymous": false,
      "inputs": [
        {
          "indexed": true,
          "internalType": "address",
          "name": "forWho",
          "type": "address"
        },
        {
          "indexed": true,
          "internalType": "uint256",
          "name": "invoiceId",
          "type": "uint256"
        }
      ],
      "name": "InvoiceAcceptedSuccessfully",
      "type": "event"
    },
    {
      "anonymous": false,
      "inputs": [
        {
          "indexed": true,
          "internalType": "address",
          "name": "whocreates",
          "type": "address"
        },
        {
          "indexed": true,
          "internalType": "address",
          "name": "createFor",
          "type": "address"
        },
        {
          "indexed": false,
          "internalType": "uint256",
          "name": "amount",
          "type": "uint256"
        },
        {
          "indexed": true,
          "internalType": "uint256",
          "name": "id",
          "type": "uint256"
        }
      ],
      "name": "InvoiceCreatedSuccessfully",
      "type": "event"
    },
    {
      "anonymous": false,
      "inputs": [
        {
          "indexed": true,
          "internalType": "address",
          "name": "forwho",
          "type": "address"
        },
        {
          "indexed": true,
          "internalType": "uint256",
          "name": "invoiceId",
          "type": "uint256"
        }
      ],
      "name": "InvoiceReturnedSuccessfully",
      "type": "event"
    },
    {
      "anonymous": false,
      "inputs": [
        {
          "indexed": true,
          "internalType": "uint256",
          "name": "invoiceId",
          "type": "uint256"
        },
        {
          "indexed": true,
          "internalType": "string",
          "name": "description",
          "type": "string"
        },
        {
          "indexed": true,
          "internalType": "uint256",
          "name": "amount",
          "type": "uint256"
        }
      ],
      "name": "MilestoneAdded",
      "type": "event"
    },
    {
      "anonymous": false,
      "inputs": [
        {
          "indexed": true,
          "internalType": "uint256",
          "name": "invoiceId",
          "type": "uint256"
        },
        {
          "indexed": true,
          "internalType": "uint256",
          "name": "milestoneIndex",
          "type": "uint256"
        }
      ],
      "name": "MilestoneCompleted",
      "type": "event"
    },
    {
      "inputs": [
        {
          "internalType": "uint256",
          "name": "_invoiceId",
          "type": "uint256"
        }
      ],
      "name": "acceptInvoice",
      "outputs": [],
      "stateMutability": "nonpayable",
      "type": "function"
    },
    {
      "inputs": [
        {
          "internalType": "uint256",
          "name": "_invoiceId",
          "type": "uint256"
        },
        {
          "internalType": "string",
          "name": "_description",
          "type": "string"
        },
        {
          "internalType": "uint256",
          "name": "_amount",
          "type": "uint256"
        },
        {
          "internalType": "uint256",
          "name": "_deadline",
          "type": "uint256"
        }
      ],
      "name": "addMilestone",
      "outputs": [],
      "stateMutability": "nonpayable",
      "type": "function"
    },
    {
      "inputs": [
        {
          "internalType": "uint256",
          "name": "invoiceId",
          "type": "uint256"
        }
      ],
      "name": "calculateLateFee",
      "outputs": [
        {
          "internalType": "uint256",
          "name": "",
          "type": "uint256"
        }
      ],
      "stateMutability": "view",
      "type": "function"
    },
    {
      "inputs": [
        {
          "internalType": "uint256",
          "name": "invoiceId",
          "type": "uint256"
        },
        {
          "internalType": "uint256",
          "name": "milestoneIndex",
          "type": "uint256"
        }
      ],
      "name": "calculateLateFeeForSupplier",
      "outputs": [
        {
          "internalType": "uint256",
          "name": "",
          "type": "uint256"
        }
      ],
      "stateMutability": "view",
      "type": "function"
    },
    {
      "inputs": [
        {
          "internalType": "uint256",
          "name": "invoiceId",
          "type": "uint256"
        }
      ],
      "name": "confirmPaymentRelease",
      "outputs": [],
      "stateMutability": "nonpayable",
      "type": "function"
    },
    {
      "inputs": [
        {
          "internalType": "address",
          "name": "clientAddress",
          "type": "address"
        },
        {
          "internalType": "uint256",
          "name": "amount",
          "type": "uint256"
        },
        {
          "internalType": "uint256",
          "name": "deadline",
          "type": "uint256"
        },
        {
          "internalType": "string",
          "name": "termsAndConditions",
          "type": "string"
        },
        {
          "internalType": "string",
          "name": "paymentTerm",
          "type": "string"
        }
      ],
      "name": "createInvoice",
      "outputs": [
        {
          "internalType": "uint256",
          "name": "invoiceId_",
          "type": "uint256"
        }
      ],
      "stateMutability": "nonpayable",
      "type": "function"
    },
    {
      "inputs": [
        {
          "internalType": "uint256",
          "name": "invoiceId",
          "type": "uint256"
        }
      ],
      "name": "depositToEscrow",
      "outputs": [],
      "stateMutability": "payable",
      "type": "function"
    },
    {
      "inputs": [],
      "name": "erc20TokenAddress",
      "outputs": [
        {
          "internalType": "address",
          "name": "",
          "type": "address"
        }
      ],
      "stateMutability": "view",
      "type": "function"
    },
    {
      "inputs": [],
      "name": "generateAllInvoice",
      "outputs": [
        {
          "components": [
            {
              "internalType": "address",
              "name": "clientAddress",
              "type": "address"
            },
            {
              "internalType": "uint256",
              "name": "amount",
              "type": "uint256"
            },
            {
              "internalType": "uint256",
              "name": "deadline",
              "type": "uint256"
            },
            {
              "internalType": "string",
              "name": "termsAndConditions",
              "type": "string"
            },
            {
              "internalType": "string",
              "name": "paymentterm",
              "type": "string"
            },
            {
              "internalType": "bool",
              "name": "areConditionsMet",
              "type": "bool"
            },
            {
              "internalType": "bool",
              "name": "isPaid",
              "type": "bool"
            },
            {
              "internalType": "bool",
              "name": "hasAccepted",
              "type": "bool"
            },
            {
              "components": [
                {
                  "internalType": "string",
                  "name": "description",
                  "type": "string"
                },
                {
                  "internalType": "uint256",
                  "name": "amount",
                  "type": "uint256"
                },
                {
                  "internalType": "enum PayNVoice.Status",
                  "name": "status",
                  "type": "uint8"
                },
                {
                  "internalType": "bool",
                  "name": "isPaid",
                  "type": "bool"
                },
                {
                  "internalType": "uint256",
                  "name": "deadline",
                  "type": "uint256"
                }
              ],
              "internalType": "struct PayNVoice.Milestone[]",
              "name": "milestones",
              "type": "tuple[]"
            },
            {
              "internalType": "uint256",
              "name": "lateFeeRate",
              "type": "uint256"
            }
          ],
          "internalType": "struct PayNVoice.Invoice[]",
          "name": "",
          "type": "tuple[]"
        }
      ],
      "stateMutability": "view",
      "type": "function"
    },
    {
      "inputs": [
        {
          "internalType": "uint256",
          "name": "invoiceId",
          "type": "uint256"
        }
      ],
      "name": "getInvoice",
      "outputs": [
        {
          "components": [
            {
              "internalType": "address",
              "name": "clientAddress",
              "type": "address"
            },
            {
              "internalType": "uint256",
              "name": "amount",
              "type": "uint256"
            },
            {
              "internalType": "uint256",
              "name": "deadline",
              "type": "uint256"
            },
            {
              "internalType": "string",
              "name": "termsAndConditions",
              "type": "string"
            },
            {
              "internalType": "string",
              "name": "paymentterm",
              "type": "string"
            },
            {
              "internalType": "bool",
              "name": "areConditionsMet",
              "type": "bool"
            },
            {
              "internalType": "bool",
              "name": "isPaid",
              "type": "bool"
            },
            {
              "internalType": "bool",
              "name": "hasAccepted",
              "type": "bool"
            },
            {
              "components": [
                {
                  "internalType": "string",
                  "name": "description",
                  "type": "string"
                },
                {
                  "internalType": "uint256",
                  "name": "amount",
                  "type": "uint256"
                },
                {
                  "internalType": "enum PayNVoice.Status",
                  "name": "status",
                  "type": "uint8"
                },
                {
                  "internalType": "bool",
                  "name": "isPaid",
                  "type": "bool"
                },
                {
                  "internalType": "uint256",
                  "name": "deadline",
                  "type": "uint256"
                }
              ],
              "internalType": "struct PayNVoice.Milestone[]",
              "name": "milestones",
              "type": "tuple[]"
            },
            {
              "internalType": "uint256",
              "name": "lateFeeRate",
              "type": "uint256"
            }
          ],
          "internalType": "struct PayNVoice.Invoice",
          "name": "invoice1_",
          "type": "tuple"
        }
      ],
      "stateMutability": "nonpayable",
      "type": "function"
    },
    {
      "inputs": [
        {
          "internalType": "address",
          "name": "client",
          "type": "address"
        }
      ],
      "name": "getInvoicesForClient",
      "outputs": [
        {
          "components": [
            {
              "internalType": "address",
              "name": "clientAddress",
              "type": "address"
            },
            {
              "internalType": "uint256",
              "name": "amount",
              "type": "uint256"
            },
            {
              "internalType": "uint256",
              "name": "deadline",
              "type": "uint256"
            },
            {
              "internalType": "string",
              "name": "termsAndConditions",
              "type": "string"
            },
            {
              "internalType": "string",
              "name": "paymentterm",
              "type": "string"
            },
            {
              "internalType": "bool",
              "name": "areConditionsMet",
              "type": "bool"
            },
            {
              "internalType": "bool",
              "name": "isPaid",
              "type": "bool"
            },
            {
              "internalType": "bool",
              "name": "hasAccepted",
              "type": "bool"
            },
            {
              "components": [
                {
                  "internalType": "string",
                  "name": "description",
                  "type": "string"
                },
                {
                  "internalType": "uint256",
                  "name": "amount",
                  "type": "uint256"
                },
                {
                  "internalType": "enum PayNVoice.Status",
                  "name": "status",
                  "type": "uint8"
                },
                {
                  "internalType": "bool",
                  "name": "isPaid",
                  "type": "bool"
                },
                {
                  "internalType": "uint256",
                  "name": "deadline",
                  "type": "uint256"
                }
              ],
              "internalType": "struct PayNVoice.Milestone[]",
              "name": "milestones",
              "type": "tuple[]"
            },
            {
              "internalType": "uint256",
              "name": "lateFeeRate",
              "type": "uint256"
            }
          ],
          "internalType": "struct PayNVoice.Invoice[]",
          "name": "",
          "type": "tuple[]"
        }
      ],
      "stateMutability": "view",
      "type": "function"
    },
    {
      "inputs": [
        {
          "internalType": "uint256",
          "name": "invoiceId",
          "type": "uint256"
        }
      ],
      "name": "getMilestones",
      "outputs": [
        {
          "components": [
            {
              "internalType": "string",
              "name": "description",
              "type": "string"
            },
            {
              "internalType": "uint256",
              "name": "amount",
              "type": "uint256"
            },
            {
              "internalType": "enum PayNVoice.Status",
              "name": "status",
              "type": "uint8"
            },
            {
              "internalType": "bool",
              "name": "isPaid",
              "type": "bool"
            },
            {
              "internalType": "uint256",
              "name": "deadline",
              "type": "uint256"
            }
          ],
          "internalType": "struct PayNVoice.Milestone[]",
          "name": "",
          "type": "tuple[]"
        }
      ],
      "stateMutability": "view",
      "type": "function"
    },
    {
      "inputs": [
        {
          "internalType": "address",
          "name": "",
          "type": "address"
        }
      ],
      "name": "invoiceCount",
      "outputs": [
        {
          "internalType": "uint256",
          "name": "",
          "type": "uint256"
        }
      ],
      "stateMutability": "view",
      "type": "function"
    },
    {
      "inputs": [],
      "name": "invoiceCreator",
      "outputs": [
        {
          "internalType": "address",
          "name": "",
          "type": "address"
        }
      ],
      "stateMutability": "view",
      "type": "function"
    },
    {
      "inputs": [
        {
          "internalType": "address",
          "name": "",
          "type": "address"
        },
        {
          "internalType": "uint256",
          "name": "",
          "type": "uint256"
        }
      ],
      "name": "invoices",
      "outputs": [
        {
          "internalType": "address",
          "name": "clientAddress",
          "type": "address"
        },
        {
          "internalType": "uint256",
          "name": "amount",
          "type": "uint256"
        },
        {
          "internalType": "uint256",
          "name": "deadline",
          "type": "uint256"
        },
        {
          "internalType": "string",
          "name": "termsAndConditions",
          "type": "string"
        },
        {
          "internalType": "string",
          "name": "paymentterm",
          "type": "string"
        },
        {
          "internalType": "bool",
          "name": "areConditionsMet",
          "type": "bool"
        },
        {
          "internalType": "bool",
          "name": "isPaid",
          "type": "bool"
        },
        {
          "internalType": "bool",
          "name": "hasAccepted",
          "type": "bool"
        },
        {
          "internalType": "uint256",
          "name": "lateFeeRate",
          "type": "uint256"
        }
      ],
      "stateMutability": "view",
      "type": "function"
    },
    {
      "inputs": [
        {
          "internalType": "uint256",
          "name": "_invoiceId",
          "type": "uint256"
        },
        {
          "internalType": "uint256",
          "name": "_milestoneIndex",
          "type": "uint256"
        }
      ],
      "name": "markMilestoneCompleted",
      "outputs": [],
      "stateMutability": "nonpayable",
      "type": "function"
    }
  ],
  "bytecode": "0x608060405260016004553480156200001657600080fd5b506040516200458f3803806200458f83398181016040528101906200003c9190620001bc565b600073ffffffffffffffffffffffffffffffffffffffff163373ffffffffffffffffffffffffffffffffffffffff1603620000a3576040517f7a795c5600000000000000000000000000000000000000000000000000000000815260040160405180910390fd5b600073ffffffffffffffffffffffffffffffffffffffff168173ffffffffffffffffffffffffffffffffffffffff16036200010a576040517f7a795c5600000000000000000000000000000000000000000000000000000000815260040160405180910390fd5b80600160006101000a81548173ffffffffffffffffffffffffffffffffffffffff021916908373ffffffffffffffffffffffffffffffffffffffff16021790555050620001ee565b600080fd5b600073ffffffffffffffffffffffffffffffffffffffff82169050919050565b6000620001848262000157565b9050919050565b620001968162000177565b8114620001a257600080fd5b50565b600081519050620001b6816200018b565b92915050565b600060208284031215620001d557620001d462000152565b5b6000620001e584828501620001a5565b91505092915050565b61439180620001fe6000396000f3fe6080604052600436106100f35760003560e01c80635cae48f51161008a57806393d17e251161005957806393d17e2514610390578063daa41e70146103b9578063f3c3d215146103d5578063f835cd3c146103fe576100f3565b80635cae48f5146102d657806368a93d2d146102ff5780637a4652191461032a5780638beed0f814610367576100f3565b80633141da53116100c65780633141da53146101f45780633a23cc0a1461021f57806342c549c01461025c5780634b7535d914610299576100f3565b80630dad62fa146100f85780630e502e941461013d578063294e70d21461017a57806329772446146101b7575b600080fd5b34801561010457600080fd5b5061011f600480360381019061011a91906130bd565b610429565b604051610134999897969594939291906131c6565b60405180910390f35b34801561014957600080fd5b50610164600480360381019061015f9190613261565b6105db565b604051610171919061328e565b60405180910390f35b34801561018657600080fd5b506101a1600480360381019061019c91906133de565b6106a3565b6040516101ae919061328e565b60405180910390f35b3480156101c357600080fd5b506101de60048036038101906101d99190613491565b610a5a565b6040516101eb919061328e565b60405180910390f35b34801561020057600080fd5b50610209610b96565b60405161021691906138a1565b60405180910390f35b34801561022b57600080fd5b5061024660048036038101906102419190613261565b610cea565b60405161025391906139ab565b60405180910390f35b34801561026857600080fd5b50610283600480360381019061027e9190613261565b611143565b6040516102909190613a53565b60405180910390f35b3480156102a557600080fd5b506102c060048036038101906102bb9190613a75565b6112f1565b6040516102cd919061328e565b60405180910390f35b3480156102e257600080fd5b506102fd60048036038101906102f89190613491565b611309565b005b34801561030b57600080fd5b5061031461142f565b6040516103219190613aa2565b60405180910390f35b34801561033657600080fd5b50610351600480360381019061034c9190613a75565b611453565b60405161035e91906138a1565b60405180910390f35b34801561037357600080fd5b5061038e60048036038101906103899190613261565b611a2a565b005b34801561039c57600080fd5b506103b760048036038101906103b29190613abd565b61224f565b005b6103d360048036038101906103ce9190613261565b6123d4565b005b3480156103e157600080fd5b506103fc60048036038101906103f79190613261565b612799565b005b34801561040a57600080fd5b50610413612941565b6040516104209190613aa2565b60405180910390f35b6002602052816000526040600020602052806000526040600020600091509150508060000160009054906101000a900473ffffffffffffffffffffffffffffffffffffffff169080600101549080600201549080600301805461048b90613b6f565b80601f01602080910402602001604051908101604052809291908181526020018280546104b790613b6f565b80156105045780601f106104d957610100808354040283529160200191610504565b820191906000526020600020905b8154815290600101906020018083116104e757829003601f168201915b50505050509080600401805461051990613b6f565b80601f016020809104026020016040519081016040528092919081815260200182805461054590613b6f565b80156105925780601f1061056757610100808354040283529160200191610592565b820191906000526020600020905b81548152906001019060200180831161057557829003601f168201915b5050505050908060050160009054906101000a900460ff16908060050160019054906101000a900460ff16908060050160029054906101000a900460ff16908060070154905089565b600080600260003373ffffffffffffffffffffffffffffffffffffffff1673ffffffffffffffffffffffffffffffffffffffff168152602001908152602001600020600084815260200190815260200160002090508060020154421115610698576000620151808260020154426106529190613bcf565b61065c9190613c32565b90506000606482846007015485600101546106779190613c63565b6106819190613c63565b61068b9190613c32565b905080935050505061069e565b60009150505b919050565b60008073ffffffffffffffffffffffffffffffffffffffff163373ffffffffffffffffffffffffffffffffffffffff160361070a576040517f7a795c5600000000000000000000000000000000000000000000000000000000815260040160405180910390fd5b60045490506000600260003373ffffffffffffffffffffffffffffffffffffffff1673ffffffffffffffffffffffffffffffffffffffff16815260200190815260200160002060008381526020019081526020016000209050868160000160006101000a81548173ffffffffffffffffffffffffffffffffffffffff021916908373ffffffffffffffffffffffffffffffffffffffff160217905550858160010181905550848160020181905550838160030190816107c99190613e51565b50828160040190816107db9190613e51565b5080600260003373ffffffffffffffffffffffffffffffffffffffff1673ffffffffffffffffffffffffffffffffffffffff16815260200190815260200160002060008481526020019081526020016000206000820160009054906101000a900473ffffffffffffffffffffffffffffffffffffffff168160000160006101000a81548173ffffffffffffffffffffffffffffffffffffffff021916908373ffffffffffffffffffffffffffffffffffffffff1602179055506001820154816001015560028201548160020155600382018160030190816108bc9190613f39565b50600482018160040190816108d19190613f39565b506005820160009054906101000a900460ff168160050160006101000a81548160ff0219169083151502179055506005820160019054906101000a900460ff168160050160016101000a81548160ff0219169083151502179055506005820160029054906101000a900460ff168160050160026101000a81548160ff021916908315150217905550600682018160060190805461096f929190612dff565b5060078201548160070155905050600360003373ffffffffffffffffffffffffffffffffffffffff1673ffffffffffffffffffffffffffffffffffffffff16815260200190815260200160002060008154809291906109cd90614021565b9190505550600460008154809291906109e590614021565b9190505550818773ffffffffffffffffffffffffffffffffffffffff163373ffffffffffffffffffffffffffffffffffffffff167f88fb90d9d534f2792ee5650e3a21b58a53c91bb4155553be08ee1e83b7860aa589604051610a48919061328e565b60405180910390a45095945050505050565b600080600260003373ffffffffffffffffffffffffffffffffffffffff1673ffffffffffffffffffffffffffffffffffffffff1681526020019081526020016000206000858152602001908152602001600020905080600601805490508310610af8576040517f08c379a0000000000000000000000000000000000000000000000000000000008152600401610aef906140b5565b60405180910390fd5b6000816006018481548110610b1057610b0f6140d5565b5b906000526020600020906004020190508060030154421115610b8957600062015180836002015442610b429190613bcf565b610b4c9190613c32565b9050600060648285600701548660010154610b679190613c63565b610b719190613c63565b610b7b9190613c32565b905080945050505050610b90565b6000925050505b92915050565b6060600073ffffffffffffffffffffffffffffffffffffffff163373ffffffffffffffffffffffffffffffffffffffff1603610bfe576040517f7a795c5600000000000000000000000000000000000000000000000000000000815260040160405180910390fd5b60603373ffffffffffffffffffffffffffffffffffffffff163373ffffffffffffffffffffffffffffffffffffffff1603610c8e576000610c3e33612967565b905060016004541015610c7d576040517f9df573ea00000000000000000000000000000000000000000000000000000000815260040160405180910390fd5b610c86816129b0565b915050610ce3565b6000610c9933612967565b90506001811015610cd6576040517f9df573ea00000000000000000000000000000000000000000000000000000000815260040160405180910390fd5b610cdf816129b0565b9150505b8091505090565b610cf2612eea565b600073ffffffffffffffffffffffffffffffffffffffff163373ffffffffffffffffffffffffffffffffffffffff1603610d58576040517f7a795c5600000000000000000000000000000000000000000000000000000000815260040160405180910390fd5b600260003373ffffffffffffffffffffffffffffffffffffffff1673ffffffffffffffffffffffffffffffffffffffff1681526020019081526020016000206000838152602001908152602001600020604051806101400160405290816000820160009054906101000a900473ffffffffffffffffffffffffffffffffffffffff1673ffffffffffffffffffffffffffffffffffffffff1673ffffffffffffffffffffffffffffffffffffffff1681526020016001820154815260200160028201548152602001600382018054610e2e90613b6f565b80601f0160208091040260200160405190810160405280929190818152602001828054610e5a90613b6f565b8015610ea75780601f10610e7c57610100808354040283529160200191610ea7565b820191906000526020600020905b815481529060010190602001808311610e8a57829003601f168201915b50505050508152602001600482018054610ec090613b6f565b80601f0160208091040260200160405190810160405280929190818152602001828054610eec90613b6f565b8015610f395780601f10610f0e57610100808354040283529160200191610f39565b820191906000526020600020905b815481529060010190602001808311610f1c57829003601f168201915b505050505081526020016005820160009054906101000a900460ff161515151581526020016005820160019054906101000a900460ff161515151581526020016005820160029054906101000a900460ff1615151515815260200160068201805480602002602001604051908101604052809291908181526020016000905b828210156110e657838290600052602060002090600402016040518060a0016040529081600082018054610feb90613b6f565b80601f016020809104026020016040519081016040528092919081815260200182805461101790613b6f565b80156110645780601f1061103957610100808354040283529160200191611064565b820191906000526020600020905b81548152906001019060200180831161104757829003601f168201915b50505050508152602001600182015481526020016002820160009054906101000a900460ff16600281111561109c5761109b6135a0565b5b60028111156110ae576110ad6135a0565b5b81526020016002820160019054906101000a900460ff1615151515815260200160038201548152505081526020019060010190610fb8565b5050505081526020016007820154815250509050813373ffffffffffffffffffffffffffffffffffffffff167f4b91f05e4e767e5e8d10a7a3636995feb5ad4f56c1a75c977090f2b313be6d9460405160405180910390a3919050565b6060600260003373ffffffffffffffffffffffffffffffffffffffff1673ffffffffffffffffffffffffffffffffffffffff1681526020019081526020016000206000838152602001908152602001600020600601805480602002602001604051908101604052809291908181526020016000905b828210156112e657838290600052602060002090600402016040518060a00160405290816000820180546111eb90613b6f565b80601f016020809104026020016040519081016040528092919081815260200182805461121790613b6f565b80156112645780601f1061123957610100808354040283529160200191611264565b820191906000526020600020905b81548152906001019060200180831161124757829003601f168201915b50505050508152602001600182015481526020016002820160009054906101000a900460ff16600281111561129c5761129b6135a0565b5b60028111156112ae576112ad6135a0565b5b81526020016002820160019054906101000a900460ff16151515158152602001600382015481525050815260200190600101906111b8565b505050509050919050565b60036020528060005260406000206000915090505481565b6000600260003373ffffffffffffffffffffffffffffffffffffffff1673ffffffffffffffffffffffffffffffffffffffff16815260200190815260200160002060008481526020019081526020016000209050806006018054905082106113a6576040517f08c379a000000000000000000000000000000000000000000000000000000000815260040161139d906140b5565b60405180910390fd5b60008160060183815481106113be576113bd6140d5565b5b9060005260206000209060040201905060018160020160006101000a81548160ff021916908360028111156113f6576113f56135a0565b5b021790555082847f1b7218c0ac23ea9cbe4df603d2b340fbf469a115b73ea3d11460727f445d6be160405160405180910390a350505050565b60008054906101000a900473ffffffffffffffffffffffffffffffffffffffff1681565b6060600080600190505b600454811161152e578373ffffffffffffffffffffffffffffffffffffffff16600260003373ffffffffffffffffffffffffffffffffffffffff1673ffffffffffffffffffffffffffffffffffffffff168152602001908152602001600020600083815260200190815260200160002060000160009054906101000a900473ffffffffffffffffffffffffffffffffffffffff1673ffffffffffffffffffffffffffffffffffffffff160361151b57818061151790614021565b9250505b808061152690614021565b91505061145d565b5060008167ffffffffffffffff81111561154b5761154a6132b3565b5b60405190808252806020026020018201604052801561158457816020015b611571612eea565b8152602001906001900390816115695790505b509050600080600190505b6004548111611a1e578573ffffffffffffffffffffffffffffffffffffffff16600260003373ffffffffffffffffffffffffffffffffffffffff1673ffffffffffffffffffffffffffffffffffffffff168152602001908152602001600020600083815260200190815260200160002060000160009054906101000a900473ffffffffffffffffffffffffffffffffffffffff1673ffffffffffffffffffffffffffffffffffffffff1603611a0b57600260003373ffffffffffffffffffffffffffffffffffffffff1673ffffffffffffffffffffffffffffffffffffffff1681526020019081526020016000206000828152602001908152602001600020604051806101400160405290816000820160009054906101000a900473ffffffffffffffffffffffffffffffffffffffff1673ffffffffffffffffffffffffffffffffffffffff1673ffffffffffffffffffffffffffffffffffffffff168152602001600182015481526020016002820154815260200160038201805461171490613b6f565b80601f016020809104026020016040519081016040528092919081815260200182805461174090613b6f565b801561178d5780601f106117625761010080835404028352916020019161178d565b820191906000526020600020905b81548152906001019060200180831161177057829003601f168201915b505050505081526020016004820180546117a690613b6f565b80601f01602080910402602001604051908101604052809291908181526020018280546117d290613b6f565b801561181f5780601f106117f45761010080835404028352916020019161181f565b820191906000526020600020905b81548152906001019060200180831161180257829003601f168201915b505050505081526020016005820160009054906101000a900460ff161515151581526020016005820160019054906101000a900460ff161515151581526020016005820160029054906101000a900460ff1615151515815260200160068201805480602002602001604051908101604052809291908181526020016000905b828210156119cc57838290600052602060002090600402016040518060a00160405290816000820180546118d190613b6f565b80601f01602080910402602001604051908101604052809291908181526020018280546118fd90613b6f565b801561194a5780601f1061191f5761010080835404028352916020019161194a565b820191906000526020600020905b81548152906001019060200180831161192d57829003601f168201915b50505050508152602001600182015481526020016002820160009054906101000a900460ff166002811115611982576119816135a0565b5b6002811115611994576119936135a0565b5b81526020016002820160019054906101000a900460ff161515151581526020016003820154815250508152602001906001019061189e565b5050505081526020016007820154815250508383815181106119f1576119f06140d5565b5b60200260200101819052508180611a0790614021565b9250505b8080611a1690614021565b91505061158f565b50819350505050919050565b600073ffffffffffffffffffffffffffffffffffffffff163373ffffffffffffffffffffffffffffffffffffffff1603611a90576040517f7a795c5600000000000000000000000000000000000000000000000000000000815260040160405180910390fd5b6000600260003373ffffffffffffffffffffffffffffffffffffffff1673ffffffffffffffffffffffffffffffffffffffff168152602001908152602001600020600083815260200190815260200160002090508060000160009054906101000a900473ffffffffffffffffffffffffffffffffffffffff1673ffffffffffffffffffffffffffffffffffffffff163373ffffffffffffffffffffffffffffffffffffffff1614611b6d576040517f6810116800000000000000000000000000000000000000000000000000000000815260040160405180910390fd5b6000816001015403611bab576040517f7eed038200000000000000000000000000000000000000000000000000000000815260040160405180910390fd5b6000816006018054905090506000600160009054906101000a900473ffffffffffffffffffffffffffffffffffffffff1673ffffffffffffffffffffffffffffffffffffffff166370a08231336040518263ffffffff1660e01b8152600401611c149190613aa2565b602060405180830381865afa158015611c31573d6000803e3d6000fd5b505050506040513d601f19601f82011682018060405250810190611c559190614119565b905060005b828110156122485760001515846006018281548110611c7c57611c7b6140d5565b5b906000526020600020906004020160020160019054906101000a900460ff1615150361223b57836006018181548110611cb857611cb76140d5565b5b9060005260206000209060040201600301544211158015611cdd575083600201544211155b8015611d405750600280811115611cf757611cf66135a0565b5b846006018281548110611d0d57611d0c6140d5565b5b906000526020600020906004020160020160009054906101000a900460ff166002811115611d3e57611d3d6135a0565b5b145b15611e705760011515846006018281548110611d5f57611d5e6140d5565b5b906000526020600020906004020160020160019054906101000a90505050600160009054906101000a900473ffffffffffffffffffffffffffffffffffffffff1673ffffffffffffffffffffffffffffffffffffffff166323b872dd308660000160009054906101000a900473ffffffffffffffffffffffffffffffffffffffff16876006018581548110611df757611df66140d5565b5b9060005260206000209060040201600101546040518463ffffffff1660e01b8152600401611e2793929190614146565b6020604051808303816000875af1158015611e46573d6000803e3d6000fd5b505050506040513d601f19601f82011682018060405250810190611e6a91906141a9565b50612248565b836006018181548110611e8657611e856140d5565b5b9060005260206000209060040201600301544211158015611eaa5750836002015442115b8015611f0d5750600280811115611ec457611ec36135a0565b5b846006018281548110611eda57611ed96140d5565b5b906000526020600020906004020160020160009054906101000a900460ff166002811115611f0b57611f0a6135a0565b5b145b1561205d576000611f1d866105db565b90506000818660010154611f3191906141d6565b905080841015611f76576040517f08c379a0000000000000000000000000000000000000000000000000000000008152600401611f6d9061427c565b60405180910390fd5b60018660050160016101000a81548160ff021916908315150217905550600160009054906101000a900473ffffffffffffffffffffffffffffffffffffffff1673ffffffffffffffffffffffffffffffffffffffff166323b872dd308860000160009054906101000a900473ffffffffffffffffffffffffffffffffffffffff16846040518463ffffffff1660e01b815260040161201693929190614146565b6020604051808303816000875af1158015612035573d6000803e3d6000fd5b505050506040513d601f19601f8201168201806040525081019061205991906141a9565b5050505b836006018181548110612073576120726140d5565b5b906000526020600020906004020160030154421180156120ea57506002808111156120a1576120a06135a0565b5b8460060182815481106120b7576120b66140d5565b5b906000526020600020906004020160020160009054906101000a900460ff1660028111156120e8576120e76135a0565b5b145b1561223a5760006120fb8683610a5a565b9050600081866006018481548110612116576121156140d5565b5b9060005260206000209060040201600101546121329190613bcf565b90506001151586600601848154811061214e5761214d6140d5565b5b906000526020600020906004020160020160019054906101000a90505050600160009054906101000a900473ffffffffffffffffffffffffffffffffffffffff1673ffffffffffffffffffffffffffffffffffffffff166323b872dd308860000160009054906101000a900473ffffffffffffffffffffffffffffffffffffffff16846040518463ffffffff1660e01b81526004016121ef93929190614146565b6020604051808303816000875af115801561220e573d6000803e3d6000fd5b505050506040513d601f19601f8201168201806040525081019061223291906141a9565b505050612248565b5b8080600101915050611c5a565b5050505050565b6000600260003373ffffffffffffffffffffffffffffffffffffffff1673ffffffffffffffffffffffffffffffffffffffff16815260200190815260200160002060008681526020019081526020016000209050806006016040518060a00160405280868152602001858152602001600060028111156122d2576122d16135a0565b5b815260200160001515815260200184815250908060018154018082558091505060019003906000526020600020906004020160009091909190915060008201518160000190816123229190613e51565b506020820151816001015560408201518160020160006101000a81548160ff02191690836002811115612358576123576135a0565b5b021790555060608201518160020160016101000a81548160ff021916908315150217905550608082015181600301555050828460405161239891906142d8565b6040518091039020867fbf293db00f4de65b181a066ecc2f8bb81fb7174b517fd8085700e259ad00db1b60405160405180910390a45050505050565b6000600260003373ffffffffffffffffffffffffffffffffffffffff1673ffffffffffffffffffffffffffffffffffffffff168152602001908152602001600020600083815260200190815260200160002090503373ffffffffffffffffffffffffffffffffffffffff168160000160009054906101000a900473ffffffffffffffffffffffffffffffffffffffff1673ffffffffffffffffffffffffffffffffffffffff16146124b1576040517f44f3b42100000000000000000000000000000000000000000000000000000000815260040160405180910390fd5b6000600160009054906101000a900473ffffffffffffffffffffffffffffffffffffffff1673ffffffffffffffffffffffffffffffffffffffff166370a08231336040518263ffffffff1660e01b815260040161250e9190613aa2565b602060405180830381865afa15801561252b573d6000803e3d6000fd5b505050506040513d601f19601f8201168201806040525081019061254f9190614119565b90508160020154421115612688576000612568846105db565b9050600081846001015461257c91906141d6565b9050808310156125c1576040517f08c379a00000000000000000000000000000000000000000000000000000000081526004016125b89061427c565b60405180910390fd5b60018460050160016101000a81548160ff021916908315150217905550600160009054906101000a900473ffffffffffffffffffffffffffffffffffffffff1673ffffffffffffffffffffffffffffffffffffffff166323b872dd3330846040518463ffffffff1660e01b815260040161263d93929190614146565b6020604051808303816000875af115801561265c573d6000803e3d6000fd5b505050506040513d601f19601f8201168201806040525081019061268091906141a9565b505050612794565b81600101548110156126cf576040517f08c379a00000000000000000000000000000000000000000000000000000000081526004016126c69061433b565b60405180910390fd5b60018260050160016101000a81548160ff021916908315150217905550600160009054906101000a900473ffffffffffffffffffffffffffffffffffffffff1673ffffffffffffffffffffffffffffffffffffffff166323b872dd333085600101546040518463ffffffff1660e01b815260040161274f93929190614146565b6020604051808303816000875af115801561276e573d6000803e3d6000fd5b505050506040513d601f19601f8201168201806040525081019061279291906141a9565b505b505050565b600073ffffffffffffffffffffffffffffffffffffffff163373ffffffffffffffffffffffffffffffffffffffff16036127ff576040517f7a795c5600000000000000000000000000000000000000000000000000000000815260040160405180910390fd5b6000600260003373ffffffffffffffffffffffffffffffffffffffff1673ffffffffffffffffffffffffffffffffffffffff168152602001908152602001600020600083815260200190815260200160002090503373ffffffffffffffffffffffffffffffffffffffff168160000160009054906101000a900473ffffffffffffffffffffffffffffffffffffffff1673ffffffffffffffffffffffffffffffffffffffff16146128dc576040517f5169e01000000000000000000000000000000000000000000000000000000000815260040160405180910390fd5b60018160050160026101000a81548160ff021916908315150217905550813373ffffffffffffffffffffffffffffffffffffffff167fd3ec1db989d7a04f562031e02001f88781a3bc555a5608a288acccae5b50e86f60405160405180910390a35050565b600160009054906101000a900473ffffffffffffffffffffffffffffffffffffffff1681565b6000600360008373ffffffffffffffffffffffffffffffffffffffff1673ffffffffffffffffffffffffffffffffffffffff168152602001908152602001600020549050919050565b606060008267ffffffffffffffff8111156129ce576129cd6132b3565b5b604051908082528060200260200182016040528015612a0757816020015b6129f4612eea565b8152602001906001900390816129ec5790505b5090506000600190505b838111612df557600260003373ffffffffffffffffffffffffffffffffffffffff1673ffffffffffffffffffffffffffffffffffffffff1681526020019081526020016000206000828152602001908152602001600020604051806101400160405290816000820160009054906101000a900473ffffffffffffffffffffffffffffffffffffffff1673ffffffffffffffffffffffffffffffffffffffff1673ffffffffffffffffffffffffffffffffffffffff1681526020016001820154815260200160028201548152602001600382018054612aee90613b6f565b80601f0160208091040260200160405190810160405280929190818152602001828054612b1a90613b6f565b8015612b675780601f10612b3c57610100808354040283529160200191612b67565b820191906000526020600020905b815481529060010190602001808311612b4a57829003601f168201915b50505050508152602001600482018054612b8090613b6f565b80601f0160208091040260200160405190810160405280929190818152602001828054612bac90613b6f565b8015612bf95780601f10612bce57610100808354040283529160200191612bf9565b820191906000526020600020905b815481529060010190602001808311612bdc57829003601f168201915b505050505081526020016005820160009054906101000a900460ff161515151581526020016005820160019054906101000a900460ff161515151581526020016005820160029054906101000a900460ff1615151515815260200160068201805480602002602001604051908101604052809291908181526020016000905b82821015612da657838290600052602060002090600402016040518060a0016040529081600082018054612cab90613b6f565b80601f0160208091040260200160405190810160405280929190818152602001828054612cd790613b6f565b8015612d245780601f10612cf957610100808354040283529160200191612d24565b820191906000526020600020905b815481529060010190602001808311612d0757829003601f168201915b50505050508152602001600182015481526020016002820160009054906101000a900460ff166002811115612d5c57612d5b6135a0565b5b6002811115612d6e57612d6d6135a0565b5b81526020016002820160019054906101000a900460ff1615151515815260200160038201548152505081526020019060010190612c78565b50505050815260200160078201548152505082600183612dc69190613bcf565b81518110612dd757612dd66140d5565b5b60200260200101819052508080612ded90614021565b915050612a11565b5080915050919050565b828054828255906000526020600020906004028101928215612ed95760005260206000209160040282015b82811115612ed857828260008201816000019081612e489190613f39565b50600182015481600101556002820160009054906101000a900460ff168160020160006101000a81548160ff02191690836002811115612e8b57612e8a6135a0565b5b02179055506002820160019054906101000a900460ff168160020160016101000a81548160ff02191690831515021790555060038201548160030155505091600401919060040190612e2a565b5b509050612ee69190612f59565b5090565b604051806101400160405280600073ffffffffffffffffffffffffffffffffffffffff1681526020016000815260200160008152602001606081526020016060815260200160001515815260200160001515815260200160001515815260200160608152602001600081525090565b5b80821115612fb45760008082016000612f739190612fb8565b60018201600090556002820160006101000a81549060ff02191690556002820160016101000a81549060ff0219169055600382016000905550600401612f5a565b5090565b508054612fc490613b6f565b6000825580601f10612fd65750612ff5565b601f016020900490600052602060002090810190612ff49190612ff8565b5b50565b5b80821115613011576000816000905550600101612ff9565b5090565b6000604051905090565b600080fd5b600080fd5b600073ffffffffffffffffffffffffffffffffffffffff82169050919050565b600061305482613029565b9050919050565b61306481613049565b811461306f57600080fd5b50565b6000813590506130818161305b565b92915050565b6000819050919050565b61309a81613087565b81146130a557600080fd5b50565b6000813590506130b781613091565b92915050565b600080604083850312156130d4576130d361301f565b5b60006130e285828601613072565b92505060206130f3858286016130a8565b9150509250929050565b61310681613049565b82525050565b61311581613087565b82525050565b600081519050919050565b600082825260208201905092915050565b60005b8381101561315557808201518184015260208101905061313a565b60008484015250505050565b6000601f19601f8301169050919050565b600061317d8261311b565b6131878185613126565b9350613197818560208601613137565b6131a081613161565b840191505092915050565b60008115159050919050565b6131c0816131ab565b82525050565b6000610120820190506131dc600083018c6130fd565b6131e9602083018b61310c565b6131f6604083018a61310c565b81810360608301526132088189613172565b9050818103608083015261321c8188613172565b905061322b60a08301876131b7565b61323860c08301866131b7565b61324560e08301856131b7565b61325361010083018461310c565b9a9950505050505050505050565b6000602082840312156132775761327661301f565b5b6000613285848285016130a8565b91505092915050565b60006020820190506132a3600083018461310c565b92915050565b600080fd5b600080fd5b7f4e487b7100000000000000000000000000000000000000000000000000000000600052604160045260246000fd5b6132eb82613161565b810181811067ffffffffffffffff8211171561330a576133096132b3565b5b80604052505050565b600061331d613015565b905061332982826132e2565b919050565b600067ffffffffffffffff821115613349576133486132b3565b5b61335282613161565b9050602081019050919050565b82818337600083830152505050565b600061338161337c8461332e565b613313565b90508281526020810184848401111561339d5761339c6132ae565b5b6133a884828561335f565b509392505050565b600082601f8301126133c5576133c46132a9565b5b81356133d584826020860161336e565b91505092915050565b600080600080600060a086880312156133fa576133f961301f565b5b600061340888828901613072565b9550506020613419888289016130a8565b945050604061342a888289016130a8565b935050606086013567ffffffffffffffff81111561344b5761344a613024565b5b613457888289016133b0565b925050608086013567ffffffffffffffff81111561347857613477613024565b5b613484888289016133b0565b9150509295509295909350565b600080604083850312156134a8576134a761301f565b5b60006134b6858286016130a8565b92505060206134c7858286016130a8565b9150509250929050565b600081519050919050565b600082825260208201905092915050565b6000819050602082019050919050565b61350681613049565b82525050565b61351581613087565b82525050565b600082825260208201905092915050565b60006135378261311b565b613541818561351b565b9350613551818560208601613137565b61355a81613161565b840191505092915050565b61356e816131ab565b82525050565b600081519050919050565b600082825260208201905092915050565b6000819050602082019050919050565b7f4e487b7100000000000000000000000000000000000000000000000000000000600052602160045260246000fd5b600381106135e0576135df6135a0565b5b50565b60008190506135f1826135cf565b919050565b6000613601826135e3565b9050919050565b613611816135f6565b82525050565b600060a0830160008301518482036000860152613634828261352c565b9150506020830151613649602086018261350c565b50604083015161365c6040860182613608565b50606083015161366f6060860182613565565b506080830151613682608086018261350c565b508091505092915050565b60006136998383613617565b905092915050565b6000602082019050919050565b60006136b982613574565b6136c3818561357f565b9350836020820285016136d585613590565b8060005b8581101561371157848403895281516136f2858261368d565b94506136fd836136a1565b925060208a019950506001810190506136d9565b50829750879550505050505092915050565b60006101408301600083015161373c60008601826134fd565b50602083015161374f602086018261350c565b506040830151613762604086018261350c565b506060830151848203606086015261377a828261352c565b91505060808301518482036080860152613794828261352c565b91505060a08301516137a960a0860182613565565b5060c08301516137bc60c0860182613565565b5060e08301516137cf60e0860182613565565b506101008301518482036101008601526137e982826136ae565b91505061012083015161380061012086018261350c565b508091505092915050565b60006138178383613723565b905092915050565b6000602082019050919050565b6000613837826134d1565b61384181856134dc565b935083602082028501613853856134ed565b8060005b8581101561388f5784840389528151613870858261380b565b945061387b8361381f565b925060208a01995050600181019050613857565b50829750879550505050505092915050565b600060208201905081810360008301526138bb818461382c565b905092915050565b6000610140830160008301516138dc60008601826134fd565b5060208301516138ef602086018261350c565b506040830151613902604086018261350c565b506060830151848203606086015261391a828261352c565b91505060808301518482036080860152613934828261352c565b91505060a083015161394960a0860182613565565b5060c083015161395c60c0860182613565565b5060e083015161396f60e0860182613565565b5061010083015184820361010086015261398982826136ae565b9150506101208301516139a061012086018261350c565b508091505092915050565b600060208201905081810360008301526139c581846138c3565b905092915050565b600082825260208201905092915050565b60006139e982613574565b6139f381856139cd565b935083602082028501613a0585613590565b8060005b85811015613a415784840389528151613a22858261368d565b9450613a2d836136a1565b925060208a01995050600181019050613a09565b50829750879550505050505092915050565b60006020820190508181036000830152613a6d81846139de565b905092915050565b600060208284031215613a8b57613a8a61301f565b5b6000613a9984828501613072565b91505092915050565b6000602082019050613ab760008301846130fd565b92915050565b60008060008060808587031215613ad757613ad661301f565b5b6000613ae5878288016130a8565b945050602085013567ffffffffffffffff811115613b0657613b05613024565b5b613b12878288016133b0565b9350506040613b23878288016130a8565b9250506060613b34878288016130a8565b91505092959194509250565b7f4e487b7100000000000000000000000000000000000000000000000000000000600052602260045260246000fd5b60006002820490506001821680613b8757607f821691505b602082108103613b9a57613b99613b40565b5b50919050565b7f4e487b7100000000000000000000000000000000000000000000000000000000600052601160045260246000fd5b6000613bda82613087565b9150613be583613087565b9250828203905081811115613bfd57613bfc613ba0565b5b92915050565b7f4e487b7100000000000000000000000000000000000000000000000000000000600052601260045260246000fd5b6000613c3d82613087565b9150613c4883613087565b925082613c5857613c57613c03565b5b828204905092915050565b6000613c6e82613087565b9150613c7983613087565b9250828202613c8781613087565b91508282048414831517613c9e57613c9d613ba0565b5b5092915050565b60008190508160005260206000209050919050565b60006020601f8301049050919050565b600082821b905092915050565b600060088302613d077fffffffffffffffffffffffffffffffffffffffffffffffffffffffffffffffff82613cca565b613d118683613cca565b95508019841693508086168417925050509392505050565b6000819050919050565b6000613d4e613d49613d4484613087565b613d29565b613087565b9050919050565b6000819050919050565b613d6883613d33565b613d7c613d7482613d55565b848454613cd7565b825550505050565b600090565b613d91613d84565b613d9c818484613d5f565b505050565b5b81811015613dc057613db5600082613d89565b600181019050613da2565b5050565b601f821115613e0557613dd681613ca5565b613ddf84613cba565b81016020851015613dee578190505b613e02613dfa85613cba565b830182613da1565b50505b505050565b600082821c905092915050565b6000613e2860001984600802613e0a565b1980831691505092915050565b6000613e418383613e17565b9150826002028217905092915050565b613e5a8261311b565b67ffffffffffffffff811115613e7357613e726132b3565b5b613e7d8254613b6f565b613e88828285613dc4565b600060209050601f831160018114613ebb5760008415613ea9578287015190505b613eb38582613e35565b865550613f1b565b601f198416613ec986613ca5565b60005b82811015613ef157848901518255600182019150602085019450602081019050613ecc565b86831015613f0e5784890151613f0a601f891682613e17565b8355505b6001600288020188555050505b505050505050565b600081549050613f3281613b6f565b9050919050565b818103613f4757505061401f565b613f5082613f23565b67ffffffffffffffff811115613f6957613f686132b3565b5b613f738254613b6f565b613f7e828285613dc4565b6000601f831160018114613fad5760008415613f9b578287015490505b613fa58582613e35565b865550614018565b601f198416613fbb87613ca5565b9650613fc686613ca5565b60005b82811015613fee57848901548255600182019150600185019450602081019050613fc9565b8683101561400b5784890154614007601f891682613e17565b8355505b6001600288020188555050505b5050505050505b565b600061402c82613087565b91507fffffffffffffffffffffffffffffffffffffffffffffffffffffffffffffffff820361405e5761405d613ba0565b5b600182019050919050565b7f496e76616c6964206d696c6573746f6e6520696e646578000000000000000000600082015250565b600061409f601783613126565b91506140aa82614069565b602082019050919050565b600060208201905081810360008301526140ce81614092565b9050919050565b7f4e487b7100000000000000000000000000000000000000000000000000000000600052603260045260246000fd5b60008151905061411381613091565b92915050565b60006020828403121561412f5761412e61301f565b5b600061413d84828501614104565b91505092915050565b600060608201905061415b60008301866130fd565b61416860208301856130fd565b614175604083018461310c565b949350505050565b614186816131ab565b811461419157600080fd5b50565b6000815190506141a38161417d565b92915050565b6000602082840312156141bf576141be61301f565b5b60006141cd84828501614194565b91505092915050565b60006141e182613087565b91506141ec83613087565b925082820190508082111561420457614203613ba0565b5b92915050565b7f496e73756666696369656e742062616c616e636520666f7220616d6f756e742060008201527f616e64206c617465206665650000000000000000000000000000000000000000602082015250565b6000614266602c83613126565b91506142718261420a565b604082019050919050565b6000602082019050818103600083015261429581614259565b9050919050565b600081905092915050565b60006142b28261311b565b6142bc818561429c565b93506142cc818560208601613137565b80840191505092915050565b60006142e482846142a7565b915081905092915050565b7f496e73756666696369656e742062616c616e6365000000000000000000000000600082015250565b6000614325601483613126565b9150614330826142ef565b602082019050919050565b6000602082019050818103600083015261435481614318565b905091905056fea26469706673582212208ad0e6bd3357eea9d3be3388ebce2ee98ade7af5aecc7b94aa962375cbd8b25d64736f6c63430008180033",
  "linkReferences": {},
  "deployedLinkReferences": {}
}