{
  "_format": "hh-sol-artifact-1",
  "contractName": "PayNVoice",
  "sourceName": "contracts/BashirContract.sol",
  "abi": [
    {
      "inputs": [
        {
          "internalType": "address",
          "name": "clientAddress",
          "type": "address"
        },
        {
          "internalType": "uint256",
          "name": "amount",
          "type": "uint256"
        },
        {
          "internalType": "uint256",
          "name": "deadline",
          "type": "uint256"
        },
        {
          "internalType": "string",
          "name": "termsAndConditions",
          "type": "string"
        },
        {
          "internalType": "string",
          "name": "paymentterm",
          "type": "string"
        }
      ],
      "name": "createInvoice",
      "outputs": [],
      "stateMutability": "nonpayable",
      "type": "function"
    },
    {
      "inputs": [],
      "name": "erc20TokenAddress",
      "outputs": [
        {
          "internalType": "address",
          "name": "",
          "type": "address"
        }
      ],
      "stateMutability": "view",
      "type": "function"
    },
    {
      "inputs": [],
      "name": "generateAllInvoice",
      "outputs": [
        {
          "components": [
            {
              "internalType": "address",
              "name": "clientAddress",
              "type": "address"
            },
            {
              "internalType": "address",
              "name": "creatorAddress",
              "type": "address"
            },
            {
              "internalType": "uint256",
              "name": "amount",
              "type": "uint256"
            },
            {
              "internalType": "uint256",
              "name": "deadline",
              "type": "uint256"
            },
            {
              "internalType": "string",
              "name": "termsAndConditions",
              "type": "string"
            },
            {
              "internalType": "string",
              "name": "paymentterm",
              "type": "string"
            },
            {
              "internalType": "bool",
              "name": "areConditionsMet",
              "type": "bool"
            },
            {
              "internalType": "bool",
              "name": "isPaid",
              "type": "bool"
            }
          ],
          "internalType": "struct PayNVoice.Invoice[]",
          "name": "",
          "type": "tuple[]"
        }
      ],
      "stateMutability": "view",
      "type": "function"
    },
    {
      "inputs": [
        {
          "internalType": "uint256",
          "name": "invoiceId",
          "type": "uint256"
        }
      ],
      "name": "getInvoice",
      "outputs": [
        {
          "components": [
            {
              "internalType": "address",
              "name": "clientAddress",
              "type": "address"
            },
            {
              "internalType": "address",
              "name": "creatorAddress",
              "type": "address"
            },
            {
              "internalType": "uint256",
              "name": "amount",
              "type": "uint256"
            },
            {
              "internalType": "uint256",
              "name": "deadline",
              "type": "uint256"
            },
            {
              "internalType": "string",
              "name": "termsAndConditions",
              "type": "string"
            },
            {
              "internalType": "string",
              "name": "paymentterm",
              "type": "string"
            },
            {
              "internalType": "bool",
              "name": "areConditionsMet",
              "type": "bool"
            },
            {
              "internalType": "bool",
              "name": "isPaid",
              "type": "bool"
            }
          ],
          "internalType": "struct PayNVoice.Invoice",
          "name": "",
          "type": "tuple"
        }
      ],
      "stateMutability": "view",
      "type": "function"
    },
    {
      "inputs": [
        {
          "internalType": "uint256",
          "name": "",
          "type": "uint256"
        }
      ],
      "name": "invoice",
      "outputs": [
        {
          "internalType": "address",
          "name": "clientAddress",
          "type": "address"
        },
        {
          "internalType": "address",
          "name": "creatorAddress",
          "type": "address"
        },
        {
          "internalType": "uint256",
          "name": "amount",
          "type": "uint256"
        },
        {
          "internalType": "uint256",
          "name": "deadline",
          "type": "uint256"
        },
        {
          "internalType": "string",
          "name": "termsAndConditions",
          "type": "string"
        },
        {
          "internalType": "string",
          "name": "paymentterm",
          "type": "string"
        },
        {
          "internalType": "bool",
          "name": "areConditionsMet",
          "type": "bool"
        },
        {
          "internalType": "bool",
          "name": "isPaid",
          "type": "bool"
        }
      ],
      "stateMutability": "view",
      "type": "function"
    },
    {
      "inputs": [],
      "name": "invoiceCounter",
      "outputs": [
        {
          "internalType": "uint256",
          "name": "",
          "type": "uint256"
        }
      ],
      "stateMutability": "view",
      "type": "function"
    },
    {
      "inputs": [
        {
          "internalType": "uint256",
          "name": "invoiceId",
          "type": "uint256"
        }
      ],
      "name": "payment",
      "outputs": [],
      "stateMutability": "payable",
      "type": "function"
    },
    {
      "inputs": [
        {
          "internalType": "uint256",
          "name": "invoiceId",
          "type": "uint256"
        }
      ],
      "name": "releasePayment",
      "outputs": [],
      "stateMutability": "nonpayable",
      "type": "function"
    }
  ],
  "bytecode": "0x608060405234801561001057600080fd5b50611f8d806100206000396000f3fe60806040526004361061007b5760003560e01c806388685cd91161004e57806388685cd9146101555780638b3c99e31461017e578063a57b381c1461019a578063f835cd3c146101c55761007b565b8063294e70d2146100805780633141da53146100a95780633a23cc0a146100d45780633a86f04914610111575b600080fd5b34801561008c57600080fd5b506100a760048036038101906100a29190611328565b6101f0565b005b3480156100b557600080fd5b506100be61048d565b6040516100cb919061160c565b60405180910390f35b3480156100e057600080fd5b506100fb60048036038101906100f6919061162e565b610707565b6040516101089190611712565b60405180910390f35b34801561011d57600080fd5b506101386004803603810190610133919061162e565b61094f565b60405161014c9897969594939291906117ab565b60405180910390f35b34801561016157600080fd5b5061017c6004803603810190610177919061162e565b610b01565b005b6101986004803603810190610193919061162e565b610db9565b005b3480156101a657600080fd5b506101af61103e565b6040516101bc9190611837565b60405180910390f35b3480156101d157600080fd5b506101da611044565b6040516101e79190611852565b60405180910390f35b60006001600254610201919061189c565b90506000600160008381526020019081526020016000209050868160000160006101000a81548173ffffffffffffffffffffffffffffffffffffffff021916908373ffffffffffffffffffffffffffffffffffffffff160217905550338160010160006101000a81548173ffffffffffffffffffffffffffffffffffffffff021916908373ffffffffffffffffffffffffffffffffffffffff160217905550858160020181905550848160030181905550838160040190816102c39190611adc565b50828160050190816102d59190611adc565b5060038190806001815401808255809150506001900390600052602060002090600702016000909190919091506000820160009054906101000a900473ffffffffffffffffffffffffffffffffffffffff168160000160006101000a81548173ffffffffffffffffffffffffffffffffffffffff021916908373ffffffffffffffffffffffffffffffffffffffff1602179055506001820160009054906101000a900473ffffffffffffffffffffffffffffffffffffffff168160010160006101000a81548173ffffffffffffffffffffffffffffffffffffffff021916908373ffffffffffffffffffffffffffffffffffffffff1602179055506002820154816002015560038201548160030155600482018160040190816103f89190611bc4565b506005820181600501908161040d9190611bc4565b506006820160009054906101000a900460ff168160060160006101000a81548160ff0219169083151502179055506006820160019054906101000a900460ff168160060160016101000a81548160ff021916908315150217905550505060016002600082825461047d919061189c565b9250508190555050505050505050565b60606003805480602002602001604051908101604052809291908181526020016000905b828210156106fe5783829060005260206000209060070201604051806101000160405290816000820160009054906101000a900473ffffffffffffffffffffffffffffffffffffffff1673ffffffffffffffffffffffffffffffffffffffff1673ffffffffffffffffffffffffffffffffffffffff1681526020016001820160009054906101000a900473ffffffffffffffffffffffffffffffffffffffff1673ffffffffffffffffffffffffffffffffffffffff1673ffffffffffffffffffffffffffffffffffffffff16815260200160028201548152602001600382015481526020016004820180546105a5906118ff565b80601f01602080910402602001604051908101604052809291908181526020018280546105d1906118ff565b801561061e5780601f106105f35761010080835404028352916020019161061e565b820191906000526020600020905b81548152906001019060200180831161060157829003601f168201915b50505050508152602001600582018054610637906118ff565b80601f0160208091040260200160405190810160405280929190818152602001828054610663906118ff565b80156106b05780601f10610685576101008083540402835291602001916106b0565b820191906000526020600020905b81548152906001019060200180831161069357829003601f168201915b505050505081526020016006820160009054906101000a900460ff161515151581526020016006820160019054906101000a900460ff161515151581525050815260200190600101906104b1565b50505050905090565b61070f611068565b60016000838152602001908152602001600020604051806101000160405290816000820160009054906101000a900473ffffffffffffffffffffffffffffffffffffffff1673ffffffffffffffffffffffffffffffffffffffff1673ffffffffffffffffffffffffffffffffffffffff1681526020016001820160009054906101000a900473ffffffffffffffffffffffffffffffffffffffff1673ffffffffffffffffffffffffffffffffffffffff1673ffffffffffffffffffffffffffffffffffffffff16815260200160028201548152602001600382015481526020016004820180546107fe906118ff565b80601f016020809104026020016040519081016040528092919081815260200182805461082a906118ff565b80156108775780601f1061084c57610100808354040283529160200191610877565b820191906000526020600020905b81548152906001019060200180831161085a57829003601f168201915b50505050508152602001600582018054610890906118ff565b80601f01602080910402602001604051908101604052809291908181526020018280546108bc906118ff565b80156109095780601f106108de57610100808354040283529160200191610909565b820191906000526020600020905b8154815290600101906020018083116108ec57829003601f168201915b505050505081526020016006820160009054906101000a900460ff161515151581526020016006820160019054906101000a900460ff1615151515815250509050919050565b60016020528060005260406000206000915090508060000160009054906101000a900473ffffffffffffffffffffffffffffffffffffffff16908060010160009054906101000a900473ffffffffffffffffffffffffffffffffffffffff16908060020154908060030154908060040180546109ca906118ff565b80601f01602080910402602001604051908101604052809291908181526020018280546109f6906118ff565b8015610a435780601f10610a1857610100808354040283529160200191610a43565b820191906000526020600020905b815481529060010190602001808311610a2657829003601f168201915b505050505090806005018054610a58906118ff565b80601f0160208091040260200160405190810160405280929190818152602001828054610a84906118ff565b8015610ad15780601f10610aa657610100808354040283529160200191610ad1565b820191906000526020600020905b815481529060010190602001808311610ab457829003601f168201915b5050505050908060060160009054906101000a900460ff16908060060160019054906101000a900460ff16905088565b3373ffffffffffffffffffffffffffffffffffffffff166001600083815260200190815260200160002060010160009054906101000a900473ffffffffffffffffffffffffffffffffffffffff1673ffffffffffffffffffffffffffffffffffffffff1614610ba5576040517f08c379a0000000000000000000000000000000000000000000000000000000008152600401610b9c90611cf8565b60405180910390fd5b600115156001600083815260200190815260200160002060060160019054906101000a900460ff16151514610c0f576040517f08c379a0000000000000000000000000000000000000000000000000000000008152600401610c0690611d64565b60405180910390fd5b60008054906101000a900473ffffffffffffffffffffffffffffffffffffffff1673ffffffffffffffffffffffffffffffffffffffff1663a9059cbb6001600084815260200190815260200160002060000160009054906101000a900473ffffffffffffffffffffffffffffffffffffffff1660016000858152602001908152602001600020600201546040518363ffffffff1660e01b8152600401610cb6929190611d84565b6020604051808303816000875af1158015610cd5573d6000803e3d6000fd5b505050506040513d601f19601f82011682018060405250810190610cf99190611dd9565b5060016000828152602001908152602001600020600080820160006101000a81549073ffffffffffffffffffffffffffffffffffffffff02191690556001820160006101000a81549073ffffffffffffffffffffffffffffffffffffffff021916905560028201600090556003820160009055600482016000610d7c91906110dd565b600582016000610d8c91906110dd565b6006820160006101000a81549060ff02191690556006820160016101000a81549060ff0219169055505050565b3373ffffffffffffffffffffffffffffffffffffffff166001600083815260200190815260200160002060000160009054906101000a900473ffffffffffffffffffffffffffffffffffffffff1673ffffffffffffffffffffffffffffffffffffffff1614610e5d576040517f08c379a0000000000000000000000000000000000000000000000000000000008152600401610e5490611e52565b60405180910390fd5b60008060009054906101000a900473ffffffffffffffffffffffffffffffffffffffff1673ffffffffffffffffffffffffffffffffffffffff166370a08231336040518263ffffffff1660e01b8152600401610eb99190611852565b602060405180830381865afa158015610ed6573d6000803e3d6000fd5b505050506040513d601f19601f82011682018060405250810190610efa9190611e87565b90506001600083815260200190815260200160002060020154811015610f55576040517f08c379a0000000000000000000000000000000000000000000000000000000008152600401610f4c90611f00565b60405180910390fd5b600180600084815260200190815260200160002060060160016101000a81548160ff02191690831515021790555060008054906101000a900473ffffffffffffffffffffffffffffffffffffffff1673ffffffffffffffffffffffffffffffffffffffff166323b872dd333060016000878152602001908152602001600020600201546040518463ffffffff1660e01b8152600401610ff693929190611f20565b6020604051808303816000875af1158015611015573d6000803e3d6000fd5b505050506040513d601f19601f820116820180604052508101906110399190611dd9565b505050565b60025481565b60008054906101000a900473ffffffffffffffffffffffffffffffffffffffff1681565b604051806101000160405280600073ffffffffffffffffffffffffffffffffffffffff168152602001600073ffffffffffffffffffffffffffffffffffffffff168152602001600081526020016000815260200160608152602001606081526020016000151581526020016000151581525090565b5080546110e9906118ff565b6000825580601f106110fb575061111a565b601f016020900490600052602060002090810190611119919061111d565b5b50565b5b8082111561113657600081600090555060010161111e565b5090565b6000604051905090565b600080fd5b600080fd5b600073ffffffffffffffffffffffffffffffffffffffff82169050919050565b60006111798261114e565b9050919050565b6111898161116e565b811461119457600080fd5b50565b6000813590506111a681611180565b92915050565b6000819050919050565b6111bf816111ac565b81146111ca57600080fd5b50565b6000813590506111dc816111b6565b92915050565b600080fd5b600080fd5b6000601f19601f8301169050919050565b7f4e487b7100000000000000000000000000000000000000000000000000000000600052604160045260246000fd5b611235826111ec565b810181811067ffffffffffffffff82111715611254576112536111fd565b5b80604052505050565b600061126761113a565b9050611273828261122c565b919050565b600067ffffffffffffffff821115611293576112926111fd565b5b61129c826111ec565b9050602081019050919050565b82818337600083830152505050565b60006112cb6112c684611278565b61125d565b9050828152602081018484840111156112e7576112e66111e7565b5b6112f28482856112a9565b509392505050565b600082601f83011261130f5761130e6111e2565b5b813561131f8482602086016112b8565b91505092915050565b600080600080600060a0868803121561134457611343611144565b5b600061135288828901611197565b9550506020611363888289016111cd565b9450506040611374888289016111cd565b935050606086013567ffffffffffffffff81111561139557611394611149565b5b6113a1888289016112fa565b925050608086013567ffffffffffffffff8111156113c2576113c1611149565b5b6113ce888289016112fa565b9150509295509295909350565b600081519050919050565b600082825260208201905092915050565b6000819050602082019050919050565b6114108161116e565b82525050565b61141f816111ac565b82525050565b600081519050919050565b600082825260208201905092915050565b60005b8381101561145f578082015181840152602081019050611444565b60008484015250505050565b600061147682611425565b6114808185611430565b9350611490818560208601611441565b611499816111ec565b840191505092915050565b60008115159050919050565b6114b9816114a4565b82525050565b6000610100830160008301516114d86000860182611407565b5060208301516114eb6020860182611407565b5060408301516114fe6040860182611416565b5060608301516115116060860182611416565b5060808301518482036080860152611529828261146b565b91505060a083015184820360a0860152611543828261146b565b91505060c083015161155860c08601826114b0565b5060e083015161156b60e08601826114b0565b508091505092915050565b600061158283836114bf565b905092915050565b6000602082019050919050565b60006115a2826113db565b6115ac81856113e6565b9350836020820285016115be856113f7565b8060005b858110156115fa57848403895281516115db8582611576565b94506115e68361158a565b925060208a019950506001810190506115c2565b50829750879550505050505092915050565b600060208201905081810360008301526116268184611597565b905092915050565b60006020828403121561164457611643611144565b5b6000611652848285016111cd565b91505092915050565b6000610100830160008301516116746000860182611407565b5060208301516116876020860182611407565b50604083015161169a6040860182611416565b5060608301516116ad6060860182611416565b50608083015184820360808601526116c5828261146b565b91505060a083015184820360a08601526116df828261146b565b91505060c08301516116f460c08601826114b0565b5060e083015161170760e08601826114b0565b508091505092915050565b6000602082019050818103600083015261172c818461165b565b905092915050565b61173d8161116e565b82525050565b61174c816111ac565b82525050565b600082825260208201905092915050565b600061176e82611425565b6117788185611752565b9350611788818560208601611441565b611791816111ec565b840191505092915050565b6117a5816114a4565b82525050565b6000610100820190506117c1600083018b611734565b6117ce602083018a611734565b6117db6040830189611743565b6117e86060830188611743565b81810360808301526117fa8187611763565b905081810360a083015261180e8186611763565b905061181d60c083018561179c565b61182a60e083018461179c565b9998505050505050505050565b600060208201905061184c6000830184611743565b92915050565b60006020820190506118676000830184611734565b92915050565b7f4e487b7100000000000000000000000000000000000000000000000000000000600052601160045260246000fd5b60006118a7826111ac565b91506118b2836111ac565b92508282019050808211156118ca576118c961186d565b5b92915050565b7f4e487b7100000000000000000000000000000000000000000000000000000000600052602260045260246000fd5b6000600282049050600182168061191757607f821691505b60208210810361192a576119296118d0565b5b50919050565b60008190508160005260206000209050919050565b60006020601f8301049050919050565b600082821b905092915050565b6000600883026119927fffffffffffffffffffffffffffffffffffffffffffffffffffffffffffffffff82611955565b61199c8683611955565b95508019841693508086168417925050509392505050565b6000819050919050565b60006119d96119d46119cf846111ac565b6119b4565b6111ac565b9050919050565b6000819050919050565b6119f3836119be565b611a076119ff826119e0565b848454611962565b825550505050565b600090565b611a1c611a0f565b611a278184846119ea565b505050565b5b81811015611a4b57611a40600082611a14565b600181019050611a2d565b5050565b601f821115611a9057611a6181611930565b611a6a84611945565b81016020851015611a79578190505b611a8d611a8585611945565b830182611a2c565b50505b505050565b600082821c905092915050565b6000611ab360001984600802611a95565b1980831691505092915050565b6000611acc8383611aa2565b9150826002028217905092915050565b611ae582611425565b67ffffffffffffffff811115611afe57611afd6111fd565b5b611b0882546118ff565b611b13828285611a4f565b600060209050601f831160018114611b465760008415611b34578287015190505b611b3e8582611ac0565b865550611ba6565b601f198416611b5486611930565b60005b82811015611b7c57848901518255600182019150602085019450602081019050611b57565b86831015611b995784890151611b95601f891682611aa2565b8355505b6001600288020188555050505b505050505050565b600081549050611bbd816118ff565b9050919050565b818103611bd2575050611caa565b611bdb82611bae565b67ffffffffffffffff811115611bf457611bf36111fd565b5b611bfe82546118ff565b611c09828285611a4f565b6000601f831160018114611c385760008415611c26578287015490505b611c308582611ac0565b865550611ca3565b601f198416611c4687611930565b9650611c5186611930565b60005b82811015611c7957848901548255600182019150600185019450602081019050611c54565b86831015611c965784890154611c92601f891682611aa2565b8355505b6001600288020188555050505b5050505050505b565b7f596f752063616e7420696e697469617465207265616c65617365000000000000600082015250565b6000611ce2601a83611752565b9150611ced82611cac565b602082019050919050565b60006020820190508181036000830152611d1181611cd5565b9050919050565b7f496e766f696365206973206e6f74207061696400000000000000000000000000600082015250565b6000611d4e601383611752565b9150611d5982611d18565b602082019050919050565b60006020820190508181036000830152611d7d81611d41565b9050919050565b6000604082019050611d996000830185611734565b611da66020830184611743565b9392505050565b611db6816114a4565b8114611dc157600080fd5b50565b600081519050611dd381611dad565b92915050565b600060208284031215611def57611dee611144565b5b6000611dfd84828501611dc4565b91505092915050565b7f5468697320696e766f696365204e6f7420666f7220796f750000000000000000600082015250565b6000611e3c601883611752565b9150611e4782611e06565b602082019050919050565b60006020820190508181036000830152611e6b81611e2f565b9050919050565b600081519050611e81816111b6565b92915050565b600060208284031215611e9d57611e9c611144565b5b6000611eab84828501611e72565b91505092915050565b7f496e73756666696369656e742062616c616e6365000000000000000000000000600082015250565b6000611eea601483611752565b9150611ef582611eb4565b602082019050919050565b60006020820190508181036000830152611f1981611edd565b9050919050565b6000606082019050611f356000830186611734565b611f426020830185611734565b611f4f6040830184611743565b94935050505056fea26469706673582212208e8792bdabb48207f5c70d0a121a5b9f6a83f545f320e2d336616da77ac055a664736f6c63430008180033",
  "linkReferences": {},
  "deployedLinkReferences": {}
}