{
  "_format": "hh-sol-artifact-1",
  "contractName": "PayNVoice",
  "sourceName": "contracts/PayNvoice.sol",
  "abi": [
    {
      "inputs": [
        {
          "internalType": "address",
          "name": "_erc20TokenAddress",
          "type": "address"
        }
      ],
      "stateMutability": "nonpayable",
      "type": "constructor"
    },
    {
      "inputs": [],
      "name": "ADDRESS_ZERO_NOT_PERMITED",
      "type": "error"
    },
    {
      "inputs": [],
      "name": "CANT_INITIATE_RELEASE",
      "type": "error"
    },
    {
      "inputs": [],
      "name": "INVALID_ADDRESS",
      "type": "error"
    },
    {
      "inputs": [],
      "name": "INVOICE_DOES_NOT_EXIST",
      "type": "error"
    },
    {
      "inputs": [],
      "name": "INVOICE_NOT_FOR_YOU",
      "type": "error"
    },
    {
      "inputs": [],
      "name": "INVOICE_NOT_GENERATED_YET",
      "type": "error"
    },
    {
      "inputs": [],
      "name": "NOT_AUTHORIZE_TO_CALL_THIS_FUNCTION",
      "type": "error"
    },
    {
      "anonymous": false,
      "inputs": [
        {
          "indexed": true,
          "internalType": "address",
          "name": "forWho",
          "type": "address"
        },
        {
          "indexed": true,
          "internalType": "uint256",
          "name": "invoiceId",
          "type": "uint256"
        }
      ],
      "name": "InvoiceAcceptedSuccessfully",
      "type": "event"
    },
    {
      "anonymous": false,
      "inputs": [
        {
          "indexed": true,
          "internalType": "address",
          "name": "whocreates",
          "type": "address"
        },
        {
          "indexed": true,
          "internalType": "address",
          "name": "createFor",
          "type": "address"
        },
        {
          "indexed": false,
          "internalType": "uint256",
          "name": "amount",
          "type": "uint256"
        },
        {
          "indexed": true,
          "internalType": "uint256",
          "name": "id",
          "type": "uint256"
        }
      ],
      "name": "InvoiceCreatedSuccessfully",
      "type": "event"
    },
    {
      "anonymous": false,
      "inputs": [
        {
          "indexed": true,
          "internalType": "uint256",
          "name": "invoiceId",
          "type": "uint256"
        },
        {
          "indexed": true,
          "internalType": "string",
          "name": "description",
          "type": "string"
        },
        {
          "indexed": true,
          "internalType": "uint256",
          "name": "amount",
          "type": "uint256"
        }
      ],
      "name": "MilestoneAdded",
      "type": "event"
    },
    {
      "anonymous": false,
      "inputs": [
        {
          "indexed": true,
          "internalType": "uint256",
          "name": "invoiceId",
          "type": "uint256"
        },
        {
          "indexed": true,
          "internalType": "uint256",
          "name": "milestoneIndex",
          "type": "uint256"
        }
      ],
      "name": "MilestoneCompleted",
      "type": "event"
    },
    {
      "inputs": [
        {
          "internalType": "uint256",
          "name": "_invoiceId",
          "type": "uint256"
        }
      ],
      "name": "acceptInvoice",
      "outputs": [],
      "stateMutability": "nonpayable",
      "type": "function"
    },
    {
      "inputs": [
        {
          "internalType": "uint256",
          "name": "_invoiceId",
          "type": "uint256"
        },
        {
          "internalType": "string",
          "name": "_description",
          "type": "string"
        },
        {
          "internalType": "uint256",
          "name": "_amount",
          "type": "uint256"
        },
        {
          "internalType": "uint256",
          "name": "_deadline",
          "type": "uint256"
        }
      ],
      "name": "addMilestone",
      "outputs": [],
      "stateMutability": "nonpayable",
      "type": "function"
    },
    {
      "inputs": [
        {
          "internalType": "uint256",
          "name": "invoiceId",
          "type": "uint256"
        }
      ],
      "name": "calculateLateFee",
      "outputs": [
        {
          "internalType": "uint256",
          "name": "",
          "type": "uint256"
        }
      ],
      "stateMutability": "view",
      "type": "function"
    },
    {
      "inputs": [
        {
          "internalType": "uint256",
          "name": "invoiceId",
          "type": "uint256"
        },
        {
          "internalType": "uint256",
          "name": "milestoneIndex",
          "type": "uint256"
        }
      ],
      "name": "calculateLateFeeForSupplier",
      "outputs": [
        {
          "internalType": "uint256",
          "name": "",
          "type": "uint256"
        }
      ],
      "stateMutability": "view",
      "type": "function"
    },
    {
      "inputs": [
        {
          "internalType": "uint256",
          "name": "invoiceId",
          "type": "uint256"
        }
      ],
      "name": "confirmPaymentRelease",
      "outputs": [],
      "stateMutability": "nonpayable",
      "type": "function"
    },
    {
      "inputs": [
        {
          "internalType": "address",
          "name": "clientAddress",
          "type": "address"
        },
        {
          "internalType": "uint256",
          "name": "amount",
          "type": "uint256"
        },
        {
          "internalType": "uint256",
          "name": "deadline",
          "type": "uint256"
        },
        {
          "internalType": "string",
          "name": "termsAndConditions",
          "type": "string"
        },
        {
          "internalType": "string",
          "name": "paymentTerm",
          "type": "string"
        },
        {
          "internalType": "string",
          "name": "title",
          "type": "string"
        }
      ],
      "name": "createInvoice",
      "outputs": [
        {
          "internalType": "uint256",
          "name": "invoiceId_",
          "type": "uint256"
        }
      ],
      "stateMutability": "nonpayable",
      "type": "function"
    },
    {
      "inputs": [
        {
          "internalType": "uint256",
          "name": "invoiceId",
          "type": "uint256"
        }
      ],
      "name": "depositToEscrow",
      "outputs": [],
      "stateMutability": "payable",
      "type": "function"
    },
    {
      "inputs": [],
      "name": "erc20TokenAddress",
      "outputs": [
        {
          "internalType": "address",
          "name": "",
          "type": "address"
        }
      ],
      "stateMutability": "view",
      "type": "function"
    },
    {
      "inputs": [],
      "name": "generateAllInvoice",
      "outputs": [
        {
          "components": [
            {
              "internalType": "address",
              "name": "clientAddress",
              "type": "address"
            },
            {
              "internalType": "uint256",
              "name": "amount",
              "type": "uint256"
            },
            {
              "internalType": "uint256",
              "name": "deadline",
              "type": "uint256"
            },
            {
              "internalType": "string",
              "name": "title",
              "type": "string"
            },
            {
              "internalType": "string",
              "name": "termsAndConditions",
              "type": "string"
            },
            {
              "internalType": "string",
              "name": "paymentterm",
              "type": "string"
            },
            {
              "internalType": "bool",
              "name": "areConditionsMet",
              "type": "bool"
            },
            {
              "internalType": "bool",
              "name": "isPaid",
              "type": "bool"
            },
            {
              "internalType": "bool",
              "name": "hasAccepted",
              "type": "bool"
            },
            {
              "components": [
                {
                  "internalType": "string",
                  "name": "description",
                  "type": "string"
                },
                {
                  "internalType": "uint256",
                  "name": "amount",
                  "type": "uint256"
                },
                {
                  "internalType": "enum PayNVoice.Status",
                  "name": "status",
                  "type": "uint8"
                },
                {
                  "internalType": "bool",
                  "name": "isPaid",
                  "type": "bool"
                },
                {
                  "internalType": "uint256",
                  "name": "deadline",
                  "type": "uint256"
                }
              ],
              "internalType": "struct PayNVoice.Milestone[]",
              "name": "milestones",
              "type": "tuple[]"
            },
            {
              "internalType": "uint256",
              "name": "lateFeeRate",
              "type": "uint256"
            }
          ],
          "internalType": "struct PayNVoice.Invoice[]",
          "name": "",
          "type": "tuple[]"
        }
      ],
      "stateMutability": "view",
      "type": "function"
    },
    {
      "inputs": [
        {
          "internalType": "uint256",
          "name": "invoiceId",
          "type": "uint256"
        }
      ],
      "name": "getInvoice",
      "outputs": [
        {
          "components": [
            {
              "internalType": "address",
              "name": "clientAddress",
              "type": "address"
            },
            {
              "internalType": "uint256",
              "name": "amount",
              "type": "uint256"
            },
            {
              "internalType": "uint256",
              "name": "deadline",
              "type": "uint256"
            },
            {
              "internalType": "string",
              "name": "title",
              "type": "string"
            },
            {
              "internalType": "string",
              "name": "termsAndConditions",
              "type": "string"
            },
            {
              "internalType": "string",
              "name": "paymentterm",
              "type": "string"
            },
            {
              "internalType": "bool",
              "name": "areConditionsMet",
              "type": "bool"
            },
            {
              "internalType": "bool",
              "name": "isPaid",
              "type": "bool"
            },
            {
              "internalType": "bool",
              "name": "hasAccepted",
              "type": "bool"
            },
            {
              "components": [
                {
                  "internalType": "string",
                  "name": "description",
                  "type": "string"
                },
                {
                  "internalType": "uint256",
                  "name": "amount",
                  "type": "uint256"
                },
                {
                  "internalType": "enum PayNVoice.Status",
                  "name": "status",
                  "type": "uint8"
                },
                {
                  "internalType": "bool",
                  "name": "isPaid",
                  "type": "bool"
                },
                {
                  "internalType": "uint256",
                  "name": "deadline",
                  "type": "uint256"
                }
              ],
              "internalType": "struct PayNVoice.Milestone[]",
              "name": "milestones",
              "type": "tuple[]"
            },
            {
              "internalType": "uint256",
              "name": "lateFeeRate",
              "type": "uint256"
            }
          ],
          "internalType": "struct PayNVoice.Invoice",
          "name": "",
          "type": "tuple"
        }
      ],
      "stateMutability": "view",
      "type": "function"
    },
    {
      "inputs": [],
      "name": "getInvoicesForClient",
      "outputs": [
        {
          "components": [
            {
              "internalType": "address",
              "name": "clientAddress",
              "type": "address"
            },
            {
              "internalType": "uint256",
              "name": "amount",
              "type": "uint256"
            },
            {
              "internalType": "uint256",
              "name": "deadline",
              "type": "uint256"
            },
            {
              "internalType": "string",
              "name": "title",
              "type": "string"
            },
            {
              "internalType": "string",
              "name": "termsAndConditions",
              "type": "string"
            },
            {
              "internalType": "string",
              "name": "paymentterm",
              "type": "string"
            },
            {
              "internalType": "bool",
              "name": "areConditionsMet",
              "type": "bool"
            },
            {
              "internalType": "bool",
              "name": "isPaid",
              "type": "bool"
            },
            {
              "internalType": "bool",
              "name": "hasAccepted",
              "type": "bool"
            },
            {
              "components": [
                {
                  "internalType": "string",
                  "name": "description",
                  "type": "string"
                },
                {
                  "internalType": "uint256",
                  "name": "amount",
                  "type": "uint256"
                },
                {
                  "internalType": "enum PayNVoice.Status",
                  "name": "status",
                  "type": "uint8"
                },
                {
                  "internalType": "bool",
                  "name": "isPaid",
                  "type": "bool"
                },
                {
                  "internalType": "uint256",
                  "name": "deadline",
                  "type": "uint256"
                }
              ],
              "internalType": "struct PayNVoice.Milestone[]",
              "name": "milestones",
              "type": "tuple[]"
            },
            {
              "internalType": "uint256",
              "name": "lateFeeRate",
              "type": "uint256"
            }
          ],
          "internalType": "struct PayNVoice.Invoice[]",
          "name": "",
          "type": "tuple[]"
        }
      ],
      "stateMutability": "view",
      "type": "function"
    },
    {
      "inputs": [
        {
          "internalType": "uint256",
          "name": "invoiceId",
          "type": "uint256"
        }
      ],
      "name": "getMilestones",
      "outputs": [
        {
          "components": [
            {
              "internalType": "string",
              "name": "description",
              "type": "string"
            },
            {
              "internalType": "uint256",
              "name": "amount",
              "type": "uint256"
            },
            {
              "internalType": "enum PayNVoice.Status",
              "name": "status",
              "type": "uint8"
            },
            {
              "internalType": "bool",
              "name": "isPaid",
              "type": "bool"
            },
            {
              "internalType": "uint256",
              "name": "deadline",
              "type": "uint256"
            }
          ],
          "internalType": "struct PayNVoice.Milestone[]",
          "name": "",
          "type": "tuple[]"
        }
      ],
      "stateMutability": "view",
      "type": "function"
    },
    {
      "inputs": [
        {
          "internalType": "address",
          "name": "",
          "type": "address"
        }
      ],
      "name": "invoiceCount",
      "outputs": [
        {
          "internalType": "uint256",
          "name": "",
          "type": "uint256"
        }
      ],
      "stateMutability": "view",
      "type": "function"
    },
    {
      "inputs": [],
      "name": "invoiceCreator",
      "outputs": [
        {
          "internalType": "address",
          "name": "",
          "type": "address"
        }
      ],
      "stateMutability": "view",
      "type": "function"
    },
    {
      "inputs": [
        {
          "internalType": "address",
          "name": "",
          "type": "address"
        },
        {
          "internalType": "uint256",
          "name": "",
          "type": "uint256"
        }
      ],
      "name": "invoices",
      "outputs": [
        {
          "internalType": "address",
          "name": "clientAddress",
          "type": "address"
        },
        {
          "internalType": "uint256",
          "name": "amount",
          "type": "uint256"
        },
        {
          "internalType": "uint256",
          "name": "deadline",
          "type": "uint256"
        },
        {
          "internalType": "string",
          "name": "title",
          "type": "string"
        },
        {
          "internalType": "string",
          "name": "termsAndConditions",
          "type": "string"
        },
        {
          "internalType": "string",
          "name": "paymentterm",
          "type": "string"
        },
        {
          "internalType": "bool",
          "name": "areConditionsMet",
          "type": "bool"
        },
        {
          "internalType": "bool",
          "name": "isPaid",
          "type": "bool"
        },
        {
          "internalType": "bool",
          "name": "hasAccepted",
          "type": "bool"
        },
        {
          "internalType": "uint256",
          "name": "lateFeeRate",
          "type": "uint256"
        }
      ],
      "stateMutability": "view",
      "type": "function"
    },
    {
      "inputs": [
        {
          "internalType": "uint256",
          "name": "_invoiceId",
          "type": "uint256"
        },
        {
          "internalType": "uint256",
          "name": "_milestoneIndex",
          "type": "uint256"
        }
      ],
      "name": "markMilestoneCompleted",
      "outputs": [],
      "stateMutability": "nonpayable",
      "type": "function"
    }
  ],
  "bytecode": "0x60806040523480156200001157600080fd5b5060405162004b7a38038062004b7a8339818101604052810190620000379190620001b7565b600073ffffffffffffffffffffffffffffffffffffffff163373ffffffffffffffffffffffffffffffffffffffff16036200009e576040517f7a795c5600000000000000000000000000000000000000000000000000000000815260040160405180910390fd5b600073ffffffffffffffffffffffffffffffffffffffff168173ffffffffffffffffffffffffffffffffffffffff160362000105576040517f7a795c5600000000000000000000000000000000000000000000000000000000815260040160405180910390fd5b80600160006101000a81548173ffffffffffffffffffffffffffffffffffffffff021916908373ffffffffffffffffffffffffffffffffffffffff16021790555050620001e9565b600080fd5b600073ffffffffffffffffffffffffffffffffffffffff82169050919050565b60006200017f8262000152565b9050919050565b620001918162000172565b81146200019d57600080fd5b50565b600081519050620001b18162000186565b92915050565b600060208284031215620001d057620001cf6200014d565b5b6000620001e084828501620001a0565b91505092915050565b61498180620001f96000396000f3fe6080604052600436106100f35760003560e01c80634b7535d91161008a57806393d17e251161005957806393d17e251461037f578063daa41e70146103a8578063f3c3d215146103c4578063f835cd3c146103ed576100f3565b80634b7535d9146102c55780635cae48f51461030257806368a93d2d1461032b5780638beed0f814610356576100f3565b80633141da53116100c65780633141da53146101f55780633301c652146102205780633a23cc0a1461024b57806342c549c014610288576100f3565b80630dad62fa146100f85780630e502e941461013e5780631c93a0971461017b57806329772446146101b8575b600080fd5b34801561010457600080fd5b5061011f600480360381019061011a9190613559565b610418565b6040516101359a99989796959493929190613662565b60405180910390f35b34801561014a57600080fd5b5061016560048036038101906101609190613713565b610658565b6040516101729190613740565b60405180910390f35b34801561018757600080fd5b506101a2600480360381019061019d9190613890565b610720565b6040516101af9190613740565b60405180910390f35b3480156101c457600080fd5b506101df60048036038101906101da9190613971565b610c80565b6040516101ec9190613740565b60405180910390f35b34801561020157600080fd5b5061020a610dbc565b6040516102179190613d9d565b60405180910390f35b34801561022c57600080fd5b50610235610f30565b6040516102429190613d9d565b60405180910390f35b34801561025757600080fd5b50610272600480360381019061026d9190613713565b611613565b60405161027f9190613ec3565b60405180910390f35b34801561029457600080fd5b506102af60048036038101906102aa9190613713565b611adb565b6040516102bc9190613f6b565b60405180910390f35b3480156102d157600080fd5b506102ec60048036038101906102e79190613f8d565b611c89565b6040516102f99190613740565b60405180910390f35b34801561030e57600080fd5b5061032960048036038101906103249190613971565b611ca1565b005b34801561033757600080fd5b50610340611dc7565b60405161034d9190613fba565b60405180910390f35b34801561036257600080fd5b5061037d60048036038101906103789190613713565b611deb565b005b34801561038b57600080fd5b506103a660048036038101906103a19190613fd5565b612631565b005b6103c260048036038101906103bd9190613713565b6127b6565b005b3480156103d057600080fd5b506103eb60048036038101906103e69190613713565b612b7b565b005b3480156103f957600080fd5b50610402612d44565b60405161040f9190613fba565b60405180910390f35b6002602052816000526040600020602052806000526040600020600091509150508060000160009054906101000a900473ffffffffffffffffffffffffffffffffffffffff169080600101549080600201549080600301805461047a90614087565b80601f01602080910402602001604051908101604052809291908181526020018280546104a690614087565b80156104f35780601f106104c8576101008083540402835291602001916104f3565b820191906000526020600020905b8154815290600101906020018083116104d657829003601f168201915b50505050509080600401805461050890614087565b80601f016020809104026020016040519081016040528092919081815260200182805461053490614087565b80156105815780601f1061055657610100808354040283529160200191610581565b820191906000526020600020905b81548152906001019060200180831161056457829003601f168201915b50505050509080600501805461059690614087565b80601f01602080910402602001604051908101604052809291908181526020018280546105c290614087565b801561060f5780601f106105e45761010080835404028352916020019161060f565b820191906000526020600020905b8154815290600101906020018083116105f257829003601f168201915b5050505050908060060160009054906101000a900460ff16908060060160019054906101000a900460ff16908060060160029054906101000a900460ff1690806008015490508a565b600080600260003373ffffffffffffffffffffffffffffffffffffffff1673ffffffffffffffffffffffffffffffffffffffff168152602001908152602001600020600084815260200190815260200160002090508060020154421115610715576000620151808260020154426106cf91906140e7565b6106d9919061414a565b90506000606482846008015485600101546106f4919061417b565b6106fe919061417b565b610708919061414a565b905080935050505061071b565b60009150505b919050565b60008073ffffffffffffffffffffffffffffffffffffffff163373ffffffffffffffffffffffffffffffffffffffff1603610787576040517f7a795c5600000000000000000000000000000000000000000000000000000000815260040160405180910390fd5b3373ffffffffffffffffffffffffffffffffffffffff168773ffffffffffffffffffffffffffffffffffffffff16036107ec576040517f5963709b00000000000000000000000000000000000000000000000000000000815260040160405180910390fd5b3373ffffffffffffffffffffffffffffffffffffffff168773ffffffffffffffffffffffffffffffffffffffff160361085a576040517f08c379a000000000000000000000000000000000000000000000000000000000815260040161085190614209565b60405180910390fd5b60016004546108699190614229565b90506000600260003373ffffffffffffffffffffffffffffffffffffffff1673ffffffffffffffffffffffffffffffffffffffff16815260200190815260200160002060008381526020019081526020016000209050878160000160006101000a81548173ffffffffffffffffffffffffffffffffffffffff021916908373ffffffffffffffffffffffffffffffffffffffff160217905550868160010181905550858160020181905550848160040190816109259190614409565b50838160050190816109379190614409565b50828160030190816109499190614409565b50336000806101000a81548173ffffffffffffffffffffffffffffffffffffffff021916908373ffffffffffffffffffffffffffffffffffffffff16021790555080600260008060009054906101000a900473ffffffffffffffffffffffffffffffffffffffff1673ffffffffffffffffffffffffffffffffffffffff1673ffffffffffffffffffffffffffffffffffffffff16815260200190815260200160002060008481526020019081526020016000206000820160009054906101000a900473ffffffffffffffffffffffffffffffffffffffff168160000160006101000a81548173ffffffffffffffffffffffffffffffffffffffff021916908373ffffffffffffffffffffffffffffffffffffffff160217905550600182015481600101556002820154816002015560038201816003019081610a8b91906144f1565b5060048201816004019081610aa091906144f1565b5060058201816005019081610ab591906144f1565b506006820160009054906101000a900460ff168160060160006101000a81548160ff0219169083151502179055506006820160019054906101000a900460ff168160060160016101000a81548160ff0219169083151502179055506006820160029054906101000a900460ff168160060160026101000a81548160ff0219169083151502179055506007820181600701908054610b53929190613294565b5060088201548160080155905050600360008060009054906101000a900473ffffffffffffffffffffffffffffffffffffffff1673ffffffffffffffffffffffffffffffffffffffff1673ffffffffffffffffffffffffffffffffffffffff1681526020019081526020016000206000815480929190610bd2906145d9565b919050555060046000815480929190610bea906145d9565b9190505550818873ffffffffffffffffffffffffffffffffffffffff1660008054906101000a900473ffffffffffffffffffffffffffffffffffffffff1673ffffffffffffffffffffffffffffffffffffffff167f88fb90d9d534f2792ee5650e3a21b58a53c91bb4155553be08ee1e83b7860aa58a604051610c6d9190613740565b60405180910390a4509695505050505050565b600080600260003373ffffffffffffffffffffffffffffffffffffffff1673ffffffffffffffffffffffffffffffffffffffff1681526020019081526020016000206000858152602001908152602001600020905080600701805490508310610d1e576040517f08c379a0000000000000000000000000000000000000000000000000000000008152600401610d159061466d565b60405180910390fd5b6000816007018481548110610d3657610d3561468d565b5b906000526020600020906004020190508060030154421115610daf57600062015180836002015442610d6891906140e7565b610d72919061414a565b9050600060648285600801548660010154610d8d919061417b565b610d97919061417b565b610da1919061414a565b905080945050505050610db6565b6000925050505b92915050565b6060600073ffffffffffffffffffffffffffffffffffffffff163373ffffffffffffffffffffffffffffffffffffffff1603610e24576040517f7a795c5600000000000000000000000000000000000000000000000000000000815260040160405180910390fd5b606060008054906101000a900473ffffffffffffffffffffffffffffffffffffffff1673ffffffffffffffffffffffffffffffffffffffff163373ffffffffffffffffffffffffffffffffffffffff1603610ed4576000610e8433612d6a565b905060016004541015610ec3576040517f9df573ea00000000000000000000000000000000000000000000000000000000815260040160405180910390fd5b610ecc81612db3565b915050610f29565b6000610edf33612d6a565b90506001811015610f1c576040517f9df573ea00000000000000000000000000000000000000000000000000000000815260040160405180910390fd5b610f2581612db3565b9150505b8091505090565b6060600080600190505b6004548111611066573373ffffffffffffffffffffffffffffffffffffffff16600260008060009054906101000a900473ffffffffffffffffffffffffffffffffffffffff1673ffffffffffffffffffffffffffffffffffffffff1673ffffffffffffffffffffffffffffffffffffffff168152602001908152602001600020600083815260200190815260200160002060000160009054906101000a900473ffffffffffffffffffffffffffffffffffffffff1673ffffffffffffffffffffffffffffffffffffffff1614611045576040517f08c379a000000000000000000000000000000000000000000000000000000000815260040161103c90614708565b60405180910390fd5b8180611050906145d9565b925050808061105e906145d9565b915050610f3a565b5060008167ffffffffffffffff81111561108357611082613765565b5b6040519080825280602002602001820160405280156110bc57816020015b6110a961337f565b8152602001906001900390816110a15790505b509050600080600190505b6004548111611609573373ffffffffffffffffffffffffffffffffffffffff16600260008060009054906101000a900473ffffffffffffffffffffffffffffffffffffffff1673ffffffffffffffffffffffffffffffffffffffff1673ffffffffffffffffffffffffffffffffffffffff168152602001908152602001600020600083815260200190815260200160002060000160009054906101000a900473ffffffffffffffffffffffffffffffffffffffff1673ffffffffffffffffffffffffffffffffffffffff16036115f657600260003373ffffffffffffffffffffffffffffffffffffffff1673ffffffffffffffffffffffffffffffffffffffff1681526020019081526020016000206000828152602001908152602001600020604051806101600160405290816000820160009054906101000a900473ffffffffffffffffffffffffffffffffffffffff1673ffffffffffffffffffffffffffffffffffffffff1673ffffffffffffffffffffffffffffffffffffffff168152602001600182015481526020016002820154815260200160038201805461126d90614087565b80601f016020809104026020016040519081016040528092919081815260200182805461129990614087565b80156112e65780601f106112bb576101008083540402835291602001916112e6565b820191906000526020600020905b8154815290600101906020018083116112c957829003601f168201915b505050505081526020016004820180546112ff90614087565b80601f016020809104026020016040519081016040528092919081815260200182805461132b90614087565b80156113785780601f1061134d57610100808354040283529160200191611378565b820191906000526020600020905b81548152906001019060200180831161135b57829003601f168201915b5050505050815260200160058201805461139190614087565b80601f01602080910402602001604051908101604052809291908181526020018280546113bd90614087565b801561140a5780601f106113df5761010080835404028352916020019161140a565b820191906000526020600020905b8154815290600101906020018083116113ed57829003601f168201915b505050505081526020016006820160009054906101000a900460ff161515151581526020016006820160019054906101000a900460ff161515151581526020016006820160029054906101000a900460ff1615151515815260200160078201805480602002602001604051908101604052809291908181526020016000905b828210156115b757838290600052602060002090600402016040518060a00160405290816000820180546114bc90614087565b80601f01602080910402602001604051908101604052809291908181526020018280546114e890614087565b80156115355780601f1061150a57610100808354040283529160200191611535565b820191906000526020600020905b81548152906001019060200180831161151857829003601f168201915b50505050508152602001600182015481526020016002820160009054906101000a900460ff16600281111561156d5761156c613a80565b5b600281111561157f5761157e613a80565b5b81526020016002820160019054906101000a900460ff1615151515815260200160038201548152505081526020019060010190611489565b5050505081526020016008820154815250508383815181106115dc576115db61468d565b5b602002602001018190525081806115f2906145d9565b9250505b8080611601906145d9565b9150506110c7565b5081935050505090565b61161b61337f565b600073ffffffffffffffffffffffffffffffffffffffff163373ffffffffffffffffffffffffffffffffffffffff1603611681576040517f7a795c5600000000000000000000000000000000000000000000000000000000815260040160405180910390fd5b600260008060009054906101000a900473ffffffffffffffffffffffffffffffffffffffff1673ffffffffffffffffffffffffffffffffffffffff1673ffffffffffffffffffffffffffffffffffffffff1681526020019081526020016000206000838152602001908152602001600020604051806101600160405290816000820160009054906101000a900473ffffffffffffffffffffffffffffffffffffffff1673ffffffffffffffffffffffffffffffffffffffff1673ffffffffffffffffffffffffffffffffffffffff168152602001600182015481526020016002820154815260200160038201805461177890614087565b80601f01602080910402602001604051908101604052809291908181526020018280546117a490614087565b80156117f15780601f106117c6576101008083540402835291602001916117f1565b820191906000526020600020905b8154815290600101906020018083116117d457829003601f168201915b5050505050815260200160048201805461180a90614087565b80601f016020809104026020016040519081016040528092919081815260200182805461183690614087565b80156118835780601f1061185857610100808354040283529160200191611883565b820191906000526020600020905b81548152906001019060200180831161186657829003601f168201915b5050505050815260200160058201805461189c90614087565b80601f01602080910402602001604051908101604052809291908181526020018280546118c890614087565b80156119155780601f106118ea57610100808354040283529160200191611915565b820191906000526020600020905b8154815290600101906020018083116118f857829003601f168201915b505050505081526020016006820160009054906101000a900460ff161515151581526020016006820160019054906101000a900460ff161515151581526020016006820160029054906101000a900460ff1615151515815260200160078201805480602002602001604051908101604052809291908181526020016000905b82821015611ac257838290600052602060002090600402016040518060a00160405290816000820180546119c790614087565b80601f01602080910402602001604051908101604052809291908181526020018280546119f390614087565b8015611a405780601f10611a1557610100808354040283529160200191611a40565b820191906000526020600020905b815481529060010190602001808311611a2357829003601f168201915b50505050508152602001600182015481526020016002820160009054906101000a900460ff166002811115611a7857611a77613a80565b5b6002811115611a8a57611a89613a80565b5b81526020016002820160019054906101000a900460ff1615151515815260200160038201548152505081526020019060010190611994565b5050505081526020016008820154815250509050919050565b6060600260003373ffffffffffffffffffffffffffffffffffffffff1673ffffffffffffffffffffffffffffffffffffffff1681526020019081526020016000206000838152602001908152602001600020600701805480602002602001604051908101604052809291908181526020016000905b82821015611c7e57838290600052602060002090600402016040518060a0016040529081600082018054611b8390614087565b80601f0160208091040260200160405190810160405280929190818152602001828054611baf90614087565b8015611bfc5780601f10611bd157610100808354040283529160200191611bfc565b820191906000526020600020905b815481529060010190602001808311611bdf57829003601f168201915b50505050508152602001600182015481526020016002820160009054906101000a900460ff166002811115611c3457611c33613a80565b5b6002811115611c4657611c45613a80565b5b81526020016002820160019054906101000a900460ff1615151515815260200160038201548152505081526020019060010190611b50565b505050509050919050565b60036020528060005260406000206000915090505481565b6000600260003373ffffffffffffffffffffffffffffffffffffffff1673ffffffffffffffffffffffffffffffffffffffff1681526020019081526020016000206000848152602001908152602001600020905080600701805490508210611d3e576040517f08c379a0000000000000000000000000000000000000000000000000000000008152600401611d359061466d565b60405180910390fd5b6000816007018381548110611d5657611d5561468d565b5b9060005260206000209060040201905060018160020160006101000a81548160ff02191690836002811115611d8e57611d8d613a80565b5b021790555082847f1b7218c0ac23ea9cbe4df603d2b340fbf469a115b73ea3d11460727f445d6be160405160405180910390a350505050565b60008054906101000a900473ffffffffffffffffffffffffffffffffffffffff1681565b600073ffffffffffffffffffffffffffffffffffffffff163373ffffffffffffffffffffffffffffffffffffffff1603611e51576040517f7a795c5600000000000000000000000000000000000000000000000000000000815260040160405180910390fd5b6000600260008060009054906101000a900473ffffffffffffffffffffffffffffffffffffffff1673ffffffffffffffffffffffffffffffffffffffff1673ffffffffffffffffffffffffffffffffffffffff168152602001908152602001600020600083815260200190815260200160002090508060000160009054906101000a900473ffffffffffffffffffffffffffffffffffffffff1673ffffffffffffffffffffffffffffffffffffffff163373ffffffffffffffffffffffffffffffffffffffff1614611f4f576040517f6810116800000000000000000000000000000000000000000000000000000000815260040160405180910390fd5b6000816001015403611f8d576040517f7eed038200000000000000000000000000000000000000000000000000000000815260040160405180910390fd5b6000816007018054905090506000600160009054906101000a900473ffffffffffffffffffffffffffffffffffffffff1673ffffffffffffffffffffffffffffffffffffffff166370a08231336040518263ffffffff1660e01b8152600401611ff69190613fba565b602060405180830381865afa158015612013573d6000803e3d6000fd5b505050506040513d601f19601f82011682018060405250810190612037919061473d565b905060005b8281101561262a576000151584600701828154811061205e5761205d61468d565b5b906000526020600020906004020160020160019054906101000a900460ff1615150361261d5783600701818154811061209a5761209961468d565b5b90600052602060002090600402016003015442111580156120bf575083600201544211155b801561212257506002808111156120d9576120d8613a80565b5b8460070182815481106120ef576120ee61468d565b5b906000526020600020906004020160020160009054906101000a900460ff1660028111156121205761211f613a80565b5b145b1561225257600115158460070182815481106121415761214061468d565b5b906000526020600020906004020160020160019054906101000a90505050600160009054906101000a900473ffffffffffffffffffffffffffffffffffffffff1673ffffffffffffffffffffffffffffffffffffffff166323b872dd308660000160009054906101000a900473ffffffffffffffffffffffffffffffffffffffff168760070185815481106121d9576121d861468d565b5b9060005260206000209060040201600101546040518463ffffffff1660e01b81526004016122099392919061476a565b6020604051808303816000875af1158015612228573d6000803e3d6000fd5b505050506040513d601f19601f8201168201806040525081019061224c91906147cd565b5061262a565b8360070181815481106122685761226761468d565b5b906000526020600020906004020160030154421115801561228c5750836002015442115b80156122ef57506002808111156122a6576122a5613a80565b5b8460070182815481106122bc576122bb61468d565b5b906000526020600020906004020160020160009054906101000a900460ff1660028111156122ed576122ec613a80565b5b145b1561243f5760006122ff86610658565b905060008186600101546123139190614229565b905080841015612358576040517f08c379a000000000000000000000000000000000000000000000000000000000815260040161234f9061486c565b60405180910390fd5b60018660060160016101000a81548160ff021916908315150217905550600160009054906101000a900473ffffffffffffffffffffffffffffffffffffffff1673ffffffffffffffffffffffffffffffffffffffff166323b872dd308860000160009054906101000a900473ffffffffffffffffffffffffffffffffffffffff16846040518463ffffffff1660e01b81526004016123f89392919061476a565b6020604051808303816000875af1158015612417573d6000803e3d6000fd5b505050506040513d601f19601f8201168201806040525081019061243b91906147cd565b5050505b8360070181815481106124555761245461468d565b5b906000526020600020906004020160030154421180156124cc575060028081111561248357612482613a80565b5b8460070182815481106124995761249861468d565b5b906000526020600020906004020160020160009054906101000a900460ff1660028111156124ca576124c9613a80565b5b145b1561261c5760006124dd8683610c80565b90506000818660070184815481106124f8576124f761468d565b5b90600052602060002090600402016001015461251491906140e7565b9050600115158660070184815481106125305761252f61468d565b5b906000526020600020906004020160020160019054906101000a90505050600160009054906101000a900473ffffffffffffffffffffffffffffffffffffffff1673ffffffffffffffffffffffffffffffffffffffff166323b872dd308860000160009054906101000a900473ffffffffffffffffffffffffffffffffffffffff16846040518463ffffffff1660e01b81526004016125d19392919061476a565b6020604051808303816000875af11580156125f0573d6000803e3d6000fd5b505050506040513d601f19601f8201168201806040525081019061261491906147cd565b50505061262a565b5b808060010191505061203c565b5050505050565b6000600260003373ffffffffffffffffffffffffffffffffffffffff1673ffffffffffffffffffffffffffffffffffffffff16815260200190815260200160002060008681526020019081526020016000209050806007016040518060a00160405280868152602001858152602001600060028111156126b4576126b3613a80565b5b815260200160001515815260200184815250908060018154018082558091505060019003906000526020600020906004020160009091909190915060008201518160000190816127049190614409565b506020820151816001015560408201518160020160006101000a81548160ff0219169083600281111561273a57612739613a80565b5b021790555060608201518160020160016101000a81548160ff021916908315150217905550608082015181600301555050828460405161277a91906148c8565b6040518091039020867fbf293db00f4de65b181a066ecc2f8bb81fb7174b517fd8085700e259ad00db1b60405160405180910390a45050505050565b6000600260003373ffffffffffffffffffffffffffffffffffffffff1673ffffffffffffffffffffffffffffffffffffffff168152602001908152602001600020600083815260200190815260200160002090503373ffffffffffffffffffffffffffffffffffffffff168160000160009054906101000a900473ffffffffffffffffffffffffffffffffffffffff1673ffffffffffffffffffffffffffffffffffffffff1614612893576040517f44f3b42100000000000000000000000000000000000000000000000000000000815260040160405180910390fd5b6000600160009054906101000a900473ffffffffffffffffffffffffffffffffffffffff1673ffffffffffffffffffffffffffffffffffffffff166370a08231336040518263ffffffff1660e01b81526004016128f09190613fba565b602060405180830381865afa15801561290d573d6000803e3d6000fd5b505050506040513d601f19601f82011682018060405250810190612931919061473d565b90508160020154421115612a6a57600061294a84610658565b9050600081846001015461295e9190614229565b9050808310156129a3576040517f08c379a000000000000000000000000000000000000000000000000000000000815260040161299a9061486c565b60405180910390fd5b60018460060160016101000a81548160ff021916908315150217905550600160009054906101000a900473ffffffffffffffffffffffffffffffffffffffff1673ffffffffffffffffffffffffffffffffffffffff166323b872dd3330846040518463ffffffff1660e01b8152600401612a1f9392919061476a565b6020604051808303816000875af1158015612a3e573d6000803e3d6000fd5b505050506040513d601f19601f82011682018060405250810190612a6291906147cd565b505050612b76565b8160010154811015612ab1576040517f08c379a0000000000000000000000000000000000000000000000000000000008152600401612aa89061492b565b60405180910390fd5b60018260060160016101000a81548160ff021916908315150217905550600160009054906101000a900473ffffffffffffffffffffffffffffffffffffffff1673ffffffffffffffffffffffffffffffffffffffff166323b872dd333085600101546040518463ffffffff1660e01b8152600401612b319392919061476a565b6020604051808303816000875af1158015612b50573d6000803e3d6000fd5b505050506040513d601f19601f82011682018060405250810190612b7491906147cd565b505b505050565b600073ffffffffffffffffffffffffffffffffffffffff163373ffffffffffffffffffffffffffffffffffffffff1603612be1576040517f7a795c5600000000000000000000000000000000000000000000000000000000815260040160405180910390fd5b6000600260008060009054906101000a900473ffffffffffffffffffffffffffffffffffffffff1673ffffffffffffffffffffffffffffffffffffffff1673ffffffffffffffffffffffffffffffffffffffff168152602001908152602001600020600083815260200190815260200160002090503373ffffffffffffffffffffffffffffffffffffffff168160000160009054906101000a900473ffffffffffffffffffffffffffffffffffffffff1673ffffffffffffffffffffffffffffffffffffffff1614612cdf576040517f5169e01000000000000000000000000000000000000000000000000000000000815260040160405180910390fd5b60018160060160026101000a81548160ff021916908315150217905550813373ffffffffffffffffffffffffffffffffffffffff167fd3ec1db989d7a04f562031e02001f88781a3bc555a5608a288acccae5b50e86f60405160405180910390a35050565b600160009054906101000a900473ffffffffffffffffffffffffffffffffffffffff1681565b6000600360008373ffffffffffffffffffffffffffffffffffffffff1673ffffffffffffffffffffffffffffffffffffffff168152602001908152602001600020549050919050565b606060008267ffffffffffffffff811115612dd157612dd0613765565b5b604051908082528060200260200182016040528015612e0a57816020015b612df761337f565b815260200190600190039081612def5790505b5090506000600190505b83811161328a57600260003373ffffffffffffffffffffffffffffffffffffffff1673ffffffffffffffffffffffffffffffffffffffff1681526020019081526020016000206000828152602001908152602001600020604051806101600160405290816000820160009054906101000a900473ffffffffffffffffffffffffffffffffffffffff1673ffffffffffffffffffffffffffffffffffffffff1673ffffffffffffffffffffffffffffffffffffffff1681526020016001820154815260200160028201548152602001600382018054612ef190614087565b80601f0160208091040260200160405190810160405280929190818152602001828054612f1d90614087565b8015612f6a5780601f10612f3f57610100808354040283529160200191612f6a565b820191906000526020600020905b815481529060010190602001808311612f4d57829003601f168201915b50505050508152602001600482018054612f8390614087565b80601f0160208091040260200160405190810160405280929190818152602001828054612faf90614087565b8015612ffc5780601f10612fd157610100808354040283529160200191612ffc565b820191906000526020600020905b815481529060010190602001808311612fdf57829003601f168201915b5050505050815260200160058201805461301590614087565b80601f016020809104026020016040519081016040528092919081815260200182805461304190614087565b801561308e5780601f106130635761010080835404028352916020019161308e565b820191906000526020600020905b81548152906001019060200180831161307157829003601f168201915b505050505081526020016006820160009054906101000a900460ff161515151581526020016006820160019054906101000a900460ff161515151581526020016006820160029054906101000a900460ff1615151515815260200160078201805480602002602001604051908101604052809291908181526020016000905b8282101561323b57838290600052602060002090600402016040518060a001604052908160008201805461314090614087565b80601f016020809104026020016040519081016040528092919081815260200182805461316c90614087565b80156131b95780601f1061318e576101008083540402835291602001916131b9565b820191906000526020600020905b81548152906001019060200180831161319c57829003601f168201915b50505050508152602001600182015481526020016002820160009054906101000a900460ff1660028111156131f1576131f0613a80565b5b600281111561320357613202613a80565b5b81526020016002820160019054906101000a900460ff161515151581526020016003820154815250508152602001906001019061310d565b5050505081526020016008820154815250508260018361325b91906140e7565b8151811061326c5761326b61468d565b5b60200260200101819052508080613282906145d9565b915050612e14565b5080915050919050565b82805482825590600052602060002090600402810192821561336e5760005260206000209160040282015b8281111561336d578282600082018160000190816132dd91906144f1565b50600182015481600101556002820160009054906101000a900460ff168160020160006101000a81548160ff021916908360028111156133205761331f613a80565b5b02179055506002820160019054906101000a900460ff168160020160016101000a81548160ff021916908315150217905550600382015481600301555050916004019190600401906132bf565b5b50905061337b91906133f5565b5090565b604051806101600160405280600073ffffffffffffffffffffffffffffffffffffffff168152602001600081526020016000815260200160608152602001606081526020016060815260200160001515815260200160001515815260200160001515815260200160608152602001600081525090565b5b80821115613450576000808201600061340f9190613454565b60018201600090556002820160006101000a81549060ff02191690556002820160016101000a81549060ff02191690556003820160009055506004016133f6565b5090565b50805461346090614087565b6000825580601f106134725750613491565b601f0160209004906000526020600020908101906134909190613494565b5b50565b5b808211156134ad576000816000905550600101613495565b5090565b6000604051905090565b600080fd5b600080fd5b600073ffffffffffffffffffffffffffffffffffffffff82169050919050565b60006134f0826134c5565b9050919050565b613500816134e5565b811461350b57600080fd5b50565b60008135905061351d816134f7565b92915050565b6000819050919050565b61353681613523565b811461354157600080fd5b50565b6000813590506135538161352d565b92915050565b600080604083850312156135705761356f6134bb565b5b600061357e8582860161350e565b925050602061358f85828601613544565b9150509250929050565b6135a2816134e5565b82525050565b6135b181613523565b82525050565b600081519050919050565b600082825260208201905092915050565b60005b838110156135f15780820151818401526020810190506135d6565b60008484015250505050565b6000601f19601f8301169050919050565b6000613619826135b7565b61362381856135c2565b93506136338185602086016135d3565b61363c816135fd565b840191505092915050565b60008115159050919050565b61365c81613647565b82525050565b600061014082019050613678600083018d613599565b613685602083018c6135a8565b613692604083018b6135a8565b81810360608301526136a4818a61360e565b905081810360808301526136b8818961360e565b905081810360a08301526136cc818861360e565b90506136db60c0830187613653565b6136e860e0830186613653565b6136f6610100830185613653565b6137046101208301846135a8565b9b9a5050505050505050505050565b600060208284031215613729576137286134bb565b5b600061373784828501613544565b91505092915050565b600060208201905061375560008301846135a8565b92915050565b600080fd5b600080fd5b7f4e487b7100000000000000000000000000000000000000000000000000000000600052604160045260246000fd5b61379d826135fd565b810181811067ffffffffffffffff821117156137bc576137bb613765565b5b80604052505050565b60006137cf6134b1565b90506137db8282613794565b919050565b600067ffffffffffffffff8211156137fb576137fa613765565b5b613804826135fd565b9050602081019050919050565b82818337600083830152505050565b600061383361382e846137e0565b6137c5565b90508281526020810184848401111561384f5761384e613760565b5b61385a848285613811565b509392505050565b600082601f8301126138775761387661375b565b5b8135613887848260208601613820565b91505092915050565b60008060008060008060c087890312156138ad576138ac6134bb565b5b60006138bb89828a0161350e565b96505060206138cc89828a01613544565b95505060406138dd89828a01613544565b945050606087013567ffffffffffffffff8111156138fe576138fd6134c0565b5b61390a89828a01613862565b935050608087013567ffffffffffffffff81111561392b5761392a6134c0565b5b61393789828a01613862565b92505060a087013567ffffffffffffffff811115613958576139576134c0565b5b61396489828a01613862565b9150509295509295509295565b60008060408385031215613988576139876134bb565b5b600061399685828601613544565b92505060206139a785828601613544565b9150509250929050565b600081519050919050565b600082825260208201905092915050565b6000819050602082019050919050565b6139e6816134e5565b82525050565b6139f581613523565b82525050565b600082825260208201905092915050565b6000613a17826135b7565b613a2181856139fb565b9350613a318185602086016135d3565b613a3a816135fd565b840191505092915050565b613a4e81613647565b82525050565b600081519050919050565b600082825260208201905092915050565b6000819050602082019050919050565b7f4e487b7100000000000000000000000000000000000000000000000000000000600052602160045260246000fd5b60038110613ac057613abf613a80565b5b50565b6000819050613ad182613aaf565b919050565b6000613ae182613ac3565b9050919050565b613af181613ad6565b82525050565b600060a0830160008301518482036000860152613b148282613a0c565b9150506020830151613b2960208601826139ec565b506040830151613b3c6040860182613ae8565b506060830151613b4f6060860182613a45565b506080830151613b6260808601826139ec565b508091505092915050565b6000613b798383613af7565b905092915050565b6000602082019050919050565b6000613b9982613a54565b613ba38185613a5f565b935083602082028501613bb585613a70565b8060005b85811015613bf15784840389528151613bd28582613b6d565b9450613bdd83613b81565b925060208a01995050600181019050613bb9565b50829750879550505050505092915050565b600061016083016000830151613c1c60008601826139dd565b506020830151613c2f60208601826139ec565b506040830151613c4260408601826139ec565b5060608301518482036060860152613c5a8282613a0c565b91505060808301518482036080860152613c748282613a0c565b91505060a083015184820360a0860152613c8e8282613a0c565b91505060c0830151613ca360c0860182613a45565b5060e0830151613cb660e0860182613a45565b50610100830151613ccb610100860182613a45565b50610120830151848203610120860152613ce58282613b8e565b915050610140830151613cfc6101408601826139ec565b508091505092915050565b6000613d138383613c03565b905092915050565b6000602082019050919050565b6000613d33826139b1565b613d3d81856139bc565b935083602082028501613d4f856139cd565b8060005b85811015613d8b5784840389528151613d6c8582613d07565b9450613d7783613d1b565b925060208a01995050600181019050613d53565b50829750879550505050505092915050565b60006020820190508181036000830152613db78184613d28565b905092915050565b600061016083016000830151613dd860008601826139dd565b506020830151613deb60208601826139ec565b506040830151613dfe60408601826139ec565b5060608301518482036060860152613e168282613a0c565b91505060808301518482036080860152613e308282613a0c565b91505060a083015184820360a0860152613e4a8282613a0c565b91505060c0830151613e5f60c0860182613a45565b5060e0830151613e7260e0860182613a45565b50610100830151613e87610100860182613a45565b50610120830151848203610120860152613ea18282613b8e565b915050610140830151613eb86101408601826139ec565b508091505092915050565b60006020820190508181036000830152613edd8184613dbf565b905092915050565b600082825260208201905092915050565b6000613f0182613a54565b613f0b8185613ee5565b935083602082028501613f1d85613a70565b8060005b85811015613f595784840389528151613f3a8582613b6d565b9450613f4583613b81565b925060208a01995050600181019050613f21565b50829750879550505050505092915050565b60006020820190508181036000830152613f858184613ef6565b905092915050565b600060208284031215613fa357613fa26134bb565b5b6000613fb18482850161350e565b91505092915050565b6000602082019050613fcf6000830184613599565b92915050565b60008060008060808587031215613fef57613fee6134bb565b5b6000613ffd87828801613544565b945050602085013567ffffffffffffffff81111561401e5761401d6134c0565b5b61402a87828801613862565b935050604061403b87828801613544565b925050606061404c87828801613544565b91505092959194509250565b7f4e487b7100000000000000000000000000000000000000000000000000000000600052602260045260246000fd5b6000600282049050600182168061409f57607f821691505b6020821081036140b2576140b1614058565b5b50919050565b7f4e487b7100000000000000000000000000000000000000000000000000000000600052601160045260246000fd5b60006140f282613523565b91506140fd83613523565b9250828203905081811115614115576141146140b8565b5b92915050565b7f4e487b7100000000000000000000000000000000000000000000000000000000600052601260045260246000fd5b600061415582613523565b915061416083613523565b9250826141705761416f61411b565b5b828204905092915050565b600061418682613523565b915061419183613523565b925082820261419f81613523565b915082820484148315176141b6576141b56140b8565b5b5092915050565b7f4e4f000000000000000000000000000000000000000000000000000000000000600082015250565b60006141f36002836135c2565b91506141fe826141bd565b602082019050919050565b60006020820190508181036000830152614222816141e6565b9050919050565b600061423482613523565b915061423f83613523565b9250828201905080821115614257576142566140b8565b5b92915050565b60008190508160005260206000209050919050565b60006020601f8301049050919050565b600082821b905092915050565b6000600883026142bf7fffffffffffffffffffffffffffffffffffffffffffffffffffffffffffffffff82614282565b6142c98683614282565b95508019841693508086168417925050509392505050565b6000819050919050565b60006143066143016142fc84613523565b6142e1565b613523565b9050919050565b6000819050919050565b614320836142eb565b61433461432c8261430d565b84845461428f565b825550505050565b600090565b61434961433c565b614354818484614317565b505050565b5b818110156143785761436d600082614341565b60018101905061435a565b5050565b601f8211156143bd5761438e8161425d565b61439784614272565b810160208510156143a6578190505b6143ba6143b285614272565b830182614359565b50505b505050565b600082821c905092915050565b60006143e0600019846008026143c2565b1980831691505092915050565b60006143f983836143cf565b9150826002028217905092915050565b614412826135b7565b67ffffffffffffffff81111561442b5761442a613765565b5b6144358254614087565b61444082828561437c565b600060209050601f8311600181146144735760008415614461578287015190505b61446b85826143ed565b8655506144d3565b601f1984166144818661425d565b60005b828110156144a957848901518255600182019150602085019450602081019050614484565b868310156144c657848901516144c2601f8916826143cf565b8355505b6001600288020188555050505b505050505050565b6000815490506144ea81614087565b9050919050565b8181036144ff5750506145d7565b614508826144db565b67ffffffffffffffff81111561452157614520613765565b5b61452b8254614087565b61453682828561437c565b6000601f8311600181146145655760008415614553578287015490505b61455d85826143ed565b8655506145d0565b601f1984166145738761425d565b965061457e8661425d565b60005b828110156145a657848901548255600182019150600185019450602081019050614581565b868310156145c357848901546145bf601f8916826143cf565b8355505b6001600288020188555050505b5050505050505b565b60006145e482613523565b91507fffffffffffffffffffffffffffffffffffffffffffffffffffffffffffffffff8203614616576146156140b8565b5b600182019050919050565b7f496e76616c6964206d696c6573746f6e6520696e646578000000000000000000600082015250565b60006146576017836135c2565b915061466282614621565b602082019050919050565b600060208201905081810360008301526146868161464a565b9050919050565b7f4e487b7100000000000000000000000000000000000000000000000000000000600052603260045260246000fd5b7f456e74657220412076616c696420416464726573730000000000000000000000600082015250565b60006146f26015836135c2565b91506146fd826146bc565b602082019050919050565b60006020820190508181036000830152614721816146e5565b9050919050565b6000815190506147378161352d565b92915050565b600060208284031215614753576147526134bb565b5b600061476184828501614728565b91505092915050565b600060608201905061477f6000830186613599565b61478c6020830185613599565b61479960408301846135a8565b949350505050565b6147aa81613647565b81146147b557600080fd5b50565b6000815190506147c7816147a1565b92915050565b6000602082840312156147e3576147e26134bb565b5b60006147f1848285016147b8565b91505092915050565b7f496e73756666696369656e742062616c616e636520666f7220616d6f756e742060008201527f616e64206c617465206665650000000000000000000000000000000000000000602082015250565b6000614856602c836135c2565b9150614861826147fa565b604082019050919050565b6000602082019050818103600083015261488581614849565b9050919050565b600081905092915050565b60006148a2826135b7565b6148ac818561488c565b93506148bc8185602086016135d3565b80840191505092915050565b60006148d48284614897565b915081905092915050565b7f496e73756666696369656e742062616c616e6365000000000000000000000000600082015250565b60006149156014836135c2565b9150614920826148df565b602082019050919050565b6000602082019050818103600083015261494481614908565b905091905056fea26469706673582212200a9eb4987cc5ccdae6848d3b03258beb8ebf2159696273acb05b5ce51b62858c64736f6c63430008180033",
  "linkReferences": {},
  "deployedLinkReferences": {}
}