{
  "_format": "hh-sol-artifact-1",
  "contractName": "PayNVoice",
  "sourceName": "contracts/PayNvoice.sol",
  "abi": [
    {
      "inputs": [
        {
          "internalType": "address",
          "name": "_erc20TokenAddress",
          "type": "address"
        }
      ],
      "stateMutability": "nonpayable",
      "type": "constructor"
    },
    {
      "inputs": [],
      "name": "ADDRESS_ZERO_NOT_PERMITED",
      "type": "error"
    },
    {
      "inputs": [],
      "name": "CANT_INITIATE_RELEASE",
      "type": "error"
    },
    {
      "inputs": [],
      "name": "INVALID_ADDRESS",
      "type": "error"
    },
    {
      "inputs": [],
      "name": "INVOICE_DOES_NOT_EXIST",
      "type": "error"
    },
    {
      "inputs": [],
      "name": "INVOICE_NOT_FOR_YOU",
      "type": "error"
    },
    {
      "inputs": [],
      "name": "INVOICE_NOT_GENERATED_YET",
      "type": "error"
    },
    {
      "inputs": [],
      "name": "NOT_AUTHORIZE_TO_CALL_THIS_FUNCTION",
      "type": "error"
    },
    {
      "anonymous": false,
      "inputs": [
        {
          "indexed": true,
          "internalType": "address",
          "name": "forWho",
          "type": "address"
        },
        {
          "indexed": true,
          "internalType": "uint256",
          "name": "invoiceId",
          "type": "uint256"
        }
      ],
      "name": "InvoiceAcceptedSuccessfully",
      "type": "event"
    },
    {
      "anonymous": false,
      "inputs": [
        {
          "indexed": true,
          "internalType": "address",
          "name": "whocreates",
          "type": "address"
        },
        {
          "indexed": true,
          "internalType": "address",
          "name": "createFor",
          "type": "address"
        },
        {
          "indexed": false,
          "internalType": "uint256",
          "name": "amount",
          "type": "uint256"
        },
        {
          "indexed": true,
          "internalType": "uint256",
          "name": "id",
          "type": "uint256"
        }
      ],
      "name": "InvoiceCreatedSuccessfully",
      "type": "event"
    },
    {
      "anonymous": false,
      "inputs": [
        {
          "indexed": true,
          "internalType": "address",
          "name": "forwho",
          "type": "address"
        },
        {
          "indexed": true,
          "internalType": "uint256",
          "name": "invoiceId",
          "type": "uint256"
        }
      ],
      "name": "InvoiceReturnedSuccessfully",
      "type": "event"
    },
    {
      "anonymous": false,
      "inputs": [
        {
          "indexed": true,
          "internalType": "uint256",
          "name": "invoiceId",
          "type": "uint256"
        },
        {
          "indexed": true,
          "internalType": "string",
          "name": "description",
          "type": "string"
        },
        {
          "indexed": true,
          "internalType": "uint256",
          "name": "amount",
          "type": "uint256"
        }
      ],
      "name": "MilestoneAdded",
      "type": "event"
    },
    {
      "anonymous": false,
      "inputs": [
        {
          "indexed": true,
          "internalType": "uint256",
          "name": "invoiceId",
          "type": "uint256"
        },
        {
          "indexed": true,
          "internalType": "uint256",
          "name": "milestoneIndex",
          "type": "uint256"
        }
      ],
      "name": "MilestoneCompleted",
      "type": "event"
    },
    {
      "inputs": [
        {
          "internalType": "uint256",
          "name": "_invoiceId",
          "type": "uint256"
        }
      ],
      "name": "acceptInvoice",
      "outputs": [],
      "stateMutability": "nonpayable",
      "type": "function"
    },
    {
      "inputs": [
        {
          "internalType": "uint256",
          "name": "_invoiceId",
          "type": "uint256"
        },
        {
          "internalType": "string",
          "name": "_description",
          "type": "string"
        },
        {
          "internalType": "uint256",
          "name": "_amount",
          "type": "uint256"
        },
        {
          "internalType": "uint256",
          "name": "_deadline",
          "type": "uint256"
        }
      ],
      "name": "addMilestone",
      "outputs": [],
      "stateMutability": "nonpayable",
      "type": "function"
    },
    {
      "inputs": [
        {
          "internalType": "uint256",
          "name": "invoiceId",
          "type": "uint256"
        }
      ],
      "name": "calculateLateFee",
      "outputs": [
        {
          "internalType": "uint256",
          "name": "",
          "type": "uint256"
        }
      ],
      "stateMutability": "view",
      "type": "function"
    },
    {
      "inputs": [
        {
          "internalType": "uint256",
          "name": "invoiceId",
          "type": "uint256"
        },
        {
          "internalType": "uint256",
          "name": "milestoneIndex",
          "type": "uint256"
        }
      ],
      "name": "calculateLateFeeForSupplier",
      "outputs": [
        {
          "internalType": "uint256",
          "name": "",
          "type": "uint256"
        }
      ],
      "stateMutability": "view",
      "type": "function"
    },
    {
      "inputs": [
        {
          "internalType": "uint256",
          "name": "invoiceId",
          "type": "uint256"
        }
      ],
      "name": "confirmPaymentRelease",
      "outputs": [],
      "stateMutability": "nonpayable",
      "type": "function"
    },
    {
      "inputs": [
        {
          "internalType": "address",
          "name": "clientAddress",
          "type": "address"
        },
        {
          "internalType": "uint256",
          "name": "amount",
          "type": "uint256"
        },
        {
          "internalType": "uint256",
          "name": "deadline",
          "type": "uint256"
        },
        {
          "internalType": "string",
          "name": "termsAndConditions",
          "type": "string"
        },
        {
          "internalType": "string",
          "name": "paymentTerm",
          "type": "string"
        },
        {
          "internalType": "string",
          "name": "title",
          "type": "string"
        }
      ],
      "name": "createInvoice",
      "outputs": [
        {
          "internalType": "uint256",
          "name": "invoiceId_",
          "type": "uint256"
        }
      ],
      "stateMutability": "nonpayable",
      "type": "function"
    },
    {
      "inputs": [
        {
          "internalType": "uint256",
          "name": "invoiceId",
          "type": "uint256"
        }
      ],
      "name": "depositToEscrow",
      "outputs": [],
      "stateMutability": "payable",
      "type": "function"
    },
    {
      "inputs": [],
      "name": "erc20TokenAddress",
      "outputs": [
        {
          "internalType": "address",
          "name": "",
          "type": "address"
        }
      ],
      "stateMutability": "view",
      "type": "function"
    },
    {
      "inputs": [],
      "name": "generateAllInvoice",
      "outputs": [
        {
          "components": [
            {
              "internalType": "address",
              "name": "clientAddress",
              "type": "address"
            },
            {
              "internalType": "uint256",
              "name": "amount",
              "type": "uint256"
            },
            {
              "internalType": "uint256",
              "name": "deadline",
              "type": "uint256"
            },
            {
              "internalType": "string",
              "name": "title",
              "type": "string"
            },
            {
              "internalType": "string",
              "name": "termsAndConditions",
              "type": "string"
            },
            {
              "internalType": "string",
              "name": "paymentterm",
              "type": "string"
            },
            {
              "internalType": "bool",
              "name": "areConditionsMet",
              "type": "bool"
            },
            {
              "internalType": "bool",
              "name": "isPaid",
              "type": "bool"
            },
            {
              "internalType": "bool",
              "name": "hasAccepted",
              "type": "bool"
            },
            {
              "components": [
                {
                  "internalType": "string",
                  "name": "description",
                  "type": "string"
                },
                {
                  "internalType": "uint256",
                  "name": "amount",
                  "type": "uint256"
                },
                {
                  "internalType": "enum PayNVoice.Status",
                  "name": "status",
                  "type": "uint8"
                },
                {
                  "internalType": "bool",
                  "name": "isPaid",
                  "type": "bool"
                },
                {
                  "internalType": "uint256",
                  "name": "deadline",
                  "type": "uint256"
                }
              ],
              "internalType": "struct PayNVoice.Milestone[]",
              "name": "milestones",
              "type": "tuple[]"
            },
            {
              "internalType": "uint256",
              "name": "lateFeeRate",
              "type": "uint256"
            }
          ],
          "internalType": "struct PayNVoice.Invoice[]",
          "name": "",
          "type": "tuple[]"
        }
      ],
      "stateMutability": "view",
      "type": "function"
    },
    {
      "inputs": [
        {
          "internalType": "uint256",
          "name": "invoiceId",
          "type": "uint256"
        }
      ],
      "name": "getInvoice",
      "outputs": [
        {
          "components": [
            {
              "internalType": "address",
              "name": "clientAddress",
              "type": "address"
            },
            {
              "internalType": "uint256",
              "name": "amount",
              "type": "uint256"
            },
            {
              "internalType": "uint256",
              "name": "deadline",
              "type": "uint256"
            },
            {
              "internalType": "string",
              "name": "title",
              "type": "string"
            },
            {
              "internalType": "string",
              "name": "termsAndConditions",
              "type": "string"
            },
            {
              "internalType": "string",
              "name": "paymentterm",
              "type": "string"
            },
            {
              "internalType": "bool",
              "name": "areConditionsMet",
              "type": "bool"
            },
            {
              "internalType": "bool",
              "name": "isPaid",
              "type": "bool"
            },
            {
              "internalType": "bool",
              "name": "hasAccepted",
              "type": "bool"
            },
            {
              "components": [
                {
                  "internalType": "string",
                  "name": "description",
                  "type": "string"
                },
                {
                  "internalType": "uint256",
                  "name": "amount",
                  "type": "uint256"
                },
                {
                  "internalType": "enum PayNVoice.Status",
                  "name": "status",
                  "type": "uint8"
                },
                {
                  "internalType": "bool",
                  "name": "isPaid",
                  "type": "bool"
                },
                {
                  "internalType": "uint256",
                  "name": "deadline",
                  "type": "uint256"
                }
              ],
              "internalType": "struct PayNVoice.Milestone[]",
              "name": "milestones",
              "type": "tuple[]"
            },
            {
              "internalType": "uint256",
              "name": "lateFeeRate",
              "type": "uint256"
            }
          ],
          "internalType": "struct PayNVoice.Invoice",
          "name": "invoice1_",
          "type": "tuple"
        }
      ],
      "stateMutability": "nonpayable",
      "type": "function"
    },
    {
      "inputs": [
        {
          "internalType": "address",
          "name": "client",
          "type": "address"
        }
      ],
      "name": "getInvoicesForClient",
      "outputs": [
        {
          "components": [
            {
              "internalType": "address",
              "name": "clientAddress",
              "type": "address"
            },
            {
              "internalType": "uint256",
              "name": "amount",
              "type": "uint256"
            },
            {
              "internalType": "uint256",
              "name": "deadline",
              "type": "uint256"
            },
            {
              "internalType": "string",
              "name": "title",
              "type": "string"
            },
            {
              "internalType": "string",
              "name": "termsAndConditions",
              "type": "string"
            },
            {
              "internalType": "string",
              "name": "paymentterm",
              "type": "string"
            },
            {
              "internalType": "bool",
              "name": "areConditionsMet",
              "type": "bool"
            },
            {
              "internalType": "bool",
              "name": "isPaid",
              "type": "bool"
            },
            {
              "internalType": "bool",
              "name": "hasAccepted",
              "type": "bool"
            },
            {
              "components": [
                {
                  "internalType": "string",
                  "name": "description",
                  "type": "string"
                },
                {
                  "internalType": "uint256",
                  "name": "amount",
                  "type": "uint256"
                },
                {
                  "internalType": "enum PayNVoice.Status",
                  "name": "status",
                  "type": "uint8"
                },
                {
                  "internalType": "bool",
                  "name": "isPaid",
                  "type": "bool"
                },
                {
                  "internalType": "uint256",
                  "name": "deadline",
                  "type": "uint256"
                }
              ],
              "internalType": "struct PayNVoice.Milestone[]",
              "name": "milestones",
              "type": "tuple[]"
            },
            {
              "internalType": "uint256",
              "name": "lateFeeRate",
              "type": "uint256"
            }
          ],
          "internalType": "struct PayNVoice.Invoice[]",
          "name": "",
          "type": "tuple[]"
        }
      ],
      "stateMutability": "view",
      "type": "function"
    },
    {
      "inputs": [
        {
          "internalType": "uint256",
          "name": "invoiceId",
          "type": "uint256"
        }
      ],
      "name": "getMilestones",
      "outputs": [
        {
          "components": [
            {
              "internalType": "string",
              "name": "description",
              "type": "string"
            },
            {
              "internalType": "uint256",
              "name": "amount",
              "type": "uint256"
            },
            {
              "internalType": "enum PayNVoice.Status",
              "name": "status",
              "type": "uint8"
            },
            {
              "internalType": "bool",
              "name": "isPaid",
              "type": "bool"
            },
            {
              "internalType": "uint256",
              "name": "deadline",
              "type": "uint256"
            }
          ],
          "internalType": "struct PayNVoice.Milestone[]",
          "name": "",
          "type": "tuple[]"
        }
      ],
      "stateMutability": "view",
      "type": "function"
    },
    {
      "inputs": [
        {
          "internalType": "address",
          "name": "",
          "type": "address"
        }
      ],
      "name": "invoiceCount",
      "outputs": [
        {
          "internalType": "uint256",
          "name": "",
          "type": "uint256"
        }
      ],
      "stateMutability": "view",
      "type": "function"
    },
    {
      "inputs": [],
      "name": "invoiceCreator",
      "outputs": [
        {
          "internalType": "address",
          "name": "",
          "type": "address"
        }
      ],
      "stateMutability": "view",
      "type": "function"
    },
    {
      "inputs": [
        {
          "internalType": "address",
          "name": "",
          "type": "address"
        },
        {
          "internalType": "uint256",
          "name": "",
          "type": "uint256"
        }
      ],
      "name": "invoices",
      "outputs": [
        {
          "internalType": "address",
          "name": "clientAddress",
          "type": "address"
        },
        {
          "internalType": "uint256",
          "name": "amount",
          "type": "uint256"
        },
        {
          "internalType": "uint256",
          "name": "deadline",
          "type": "uint256"
        },
        {
          "internalType": "string",
          "name": "title",
          "type": "string"
        },
        {
          "internalType": "string",
          "name": "termsAndConditions",
          "type": "string"
        },
        {
          "internalType": "string",
          "name": "paymentterm",
          "type": "string"
        },
        {
          "internalType": "bool",
          "name": "areConditionsMet",
          "type": "bool"
        },
        {
          "internalType": "bool",
          "name": "isPaid",
          "type": "bool"
        },
        {
          "internalType": "bool",
          "name": "hasAccepted",
          "type": "bool"
        },
        {
          "internalType": "uint256",
          "name": "lateFeeRate",
          "type": "uint256"
        }
      ],
      "stateMutability": "view",
      "type": "function"
    },
    {
      "inputs": [
        {
          "internalType": "uint256",
          "name": "_invoiceId",
          "type": "uint256"
        },
        {
          "internalType": "uint256",
          "name": "_milestoneIndex",
          "type": "uint256"
        }
      ],
      "name": "markMilestoneCompleted",
      "outputs": [],
      "stateMutability": "nonpayable",
      "type": "function"
    }
  ],
  "bytecode": "0x60806040523480156200001157600080fd5b5060405162004a8738038062004a878339818101604052810190620000379190620001b7565b600073ffffffffffffffffffffffffffffffffffffffff163373ffffffffffffffffffffffffffffffffffffffff16036200009e576040517f7a795c5600000000000000000000000000000000000000000000000000000000815260040160405180910390fd5b600073ffffffffffffffffffffffffffffffffffffffff168173ffffffffffffffffffffffffffffffffffffffff160362000105576040517f7a795c5600000000000000000000000000000000000000000000000000000000815260040160405180910390fd5b80600160006101000a81548173ffffffffffffffffffffffffffffffffffffffff021916908373ffffffffffffffffffffffffffffffffffffffff16021790555050620001e9565b600080fd5b600073ffffffffffffffffffffffffffffffffffffffff82169050919050565b60006200017f8262000152565b9050919050565b620001918162000172565b81146200019d57600080fd5b50565b600081519050620001b18162000186565b92915050565b600060208284031215620001d057620001cf6200014d565b5b6000620001e084828501620001a0565b91505092915050565b61488e80620001f96000396000f3fe6080604052600436106100f35760003560e01c80635cae48f51161008a57806393d17e251161005957806393d17e2514610391578063daa41e70146103ba578063f3c3d215146103d6578063f835cd3c146103ff576100f3565b80635cae48f5146102d757806368a93d2d146103005780637a4652191461032b5780638beed0f814610368576100f3565b80633141da53116100c65780633141da53146101f55780633a23cc0a1461022057806342c549c01461025d5780634b7535d91461029a576100f3565b80630dad62fa146100f85780630e502e941461013e5780631c93a0971461017b57806329772446146101b8575b600080fd5b34801561010457600080fd5b5061011f600480360381019061011a91906134d2565b61042a565b6040516101359a999897969594939291906135db565b60405180910390f35b34801561014a57600080fd5b506101656004803603810190610160919061368c565b61066a565b60405161017291906136b9565b60405180910390f35b34801561018757600080fd5b506101a2600480360381019061019d9190613809565b610732565b6040516101af91906136b9565b60405180910390f35b3480156101c457600080fd5b506101df60048036038101906101da91906138ea565b610c92565b6040516101ec91906136b9565b60405180910390f35b34801561020157600080fd5b5061020a610dce565b6040516102179190613d16565b60405180910390f35b34801561022c57600080fd5b506102476004803603810190610242919061368c565b610f42565b6040516102549190613e3c565b60405180910390f35b34801561026957600080fd5b50610284600480360381019061027f919061368c565b61142d565b6040516102919190613ee4565b60405180910390f35b3480156102a657600080fd5b506102c160048036038101906102bc9190613f06565b6115db565b6040516102ce91906136b9565b60405180910390f35b3480156102e357600080fd5b506102fe60048036038101906102f991906138ea565b6115f3565b005b34801561030c57600080fd5b50610315611719565b6040516103229190613f33565b60405180910390f35b34801561033757600080fd5b50610352600480360381019061034d9190613f06565b61173d565b60405161035f9190613d16565b60405180910390f35b34801561037457600080fd5b5061038f600480360381019061038a919061368c565b611da6565b005b34801561039d57600080fd5b506103b860048036038101906103b39190613f4e565b6125cb565b005b6103d460048036038101906103cf919061368c565b612750565b005b3480156103e257600080fd5b506103fd60048036038101906103f8919061368c565b612b15565b005b34801561040b57600080fd5b50610414612cbd565b6040516104219190613f33565b60405180910390f35b6002602052816000526040600020602052806000526040600020600091509150508060000160009054906101000a900473ffffffffffffffffffffffffffffffffffffffff169080600101549080600201549080600301805461048c90614000565b80601f01602080910402602001604051908101604052809291908181526020018280546104b890614000565b80156105055780601f106104da57610100808354040283529160200191610505565b820191906000526020600020905b8154815290600101906020018083116104e857829003601f168201915b50505050509080600401805461051a90614000565b80601f016020809104026020016040519081016040528092919081815260200182805461054690614000565b80156105935780601f1061056857610100808354040283529160200191610593565b820191906000526020600020905b81548152906001019060200180831161057657829003601f168201915b5050505050908060050180546105a890614000565b80601f01602080910402602001604051908101604052809291908181526020018280546105d490614000565b80156106215780601f106105f657610100808354040283529160200191610621565b820191906000526020600020905b81548152906001019060200180831161060457829003601f168201915b5050505050908060060160009054906101000a900460ff16908060060160019054906101000a900460ff16908060060160029054906101000a900460ff1690806008015490508a565b600080600260003373ffffffffffffffffffffffffffffffffffffffff1673ffffffffffffffffffffffffffffffffffffffff168152602001908152602001600020600084815260200190815260200160002090508060020154421115610727576000620151808260020154426106e19190614060565b6106eb91906140c3565b905060006064828460080154856001015461070691906140f4565b61071091906140f4565b61071a91906140c3565b905080935050505061072d565b60009150505b919050565b60008073ffffffffffffffffffffffffffffffffffffffff163373ffffffffffffffffffffffffffffffffffffffff1603610799576040517f7a795c5600000000000000000000000000000000000000000000000000000000815260040160405180910390fd5b3373ffffffffffffffffffffffffffffffffffffffff168773ffffffffffffffffffffffffffffffffffffffff16036107fe576040517f5963709b00000000000000000000000000000000000000000000000000000000815260040160405180910390fd5b3373ffffffffffffffffffffffffffffffffffffffff168773ffffffffffffffffffffffffffffffffffffffff160361086c576040517f08c379a000000000000000000000000000000000000000000000000000000000815260040161086390614182565b60405180910390fd5b600160045461087b91906141a2565b90506000600260003373ffffffffffffffffffffffffffffffffffffffff1673ffffffffffffffffffffffffffffffffffffffff16815260200190815260200160002060008381526020019081526020016000209050878160000160006101000a81548173ffffffffffffffffffffffffffffffffffffffff021916908373ffffffffffffffffffffffffffffffffffffffff160217905550868160010181905550858160020181905550848160040190816109379190614382565b50838160050190816109499190614382565b508281600301908161095b9190614382565b50336000806101000a81548173ffffffffffffffffffffffffffffffffffffffff021916908373ffffffffffffffffffffffffffffffffffffffff16021790555080600260008060009054906101000a900473ffffffffffffffffffffffffffffffffffffffff1673ffffffffffffffffffffffffffffffffffffffff1673ffffffffffffffffffffffffffffffffffffffff16815260200190815260200160002060008481526020019081526020016000206000820160009054906101000a900473ffffffffffffffffffffffffffffffffffffffff168160000160006101000a81548173ffffffffffffffffffffffffffffffffffffffff021916908373ffffffffffffffffffffffffffffffffffffffff160217905550600182015481600101556002820154816002015560038201816003019081610a9d919061446a565b5060048201816004019081610ab2919061446a565b5060058201816005019081610ac7919061446a565b506006820160009054906101000a900460ff168160060160006101000a81548160ff0219169083151502179055506006820160019054906101000a900460ff168160060160016101000a81548160ff0219169083151502179055506006820160029054906101000a900460ff168160060160026101000a81548160ff0219169083151502179055506007820181600701908054610b6592919061320d565b5060088201548160080155905050600360008060009054906101000a900473ffffffffffffffffffffffffffffffffffffffff1673ffffffffffffffffffffffffffffffffffffffff1673ffffffffffffffffffffffffffffffffffffffff1681526020019081526020016000206000815480929190610be490614552565b919050555060046000815480929190610bfc90614552565b9190505550818873ffffffffffffffffffffffffffffffffffffffff1660008054906101000a900473ffffffffffffffffffffffffffffffffffffffff1673ffffffffffffffffffffffffffffffffffffffff167f88fb90d9d534f2792ee5650e3a21b58a53c91bb4155553be08ee1e83b7860aa58a604051610c7f91906136b9565b60405180910390a4509695505050505050565b600080600260003373ffffffffffffffffffffffffffffffffffffffff1673ffffffffffffffffffffffffffffffffffffffff1681526020019081526020016000206000858152602001908152602001600020905080600701805490508310610d30576040517f08c379a0000000000000000000000000000000000000000000000000000000008152600401610d27906145e6565b60405180910390fd5b6000816007018481548110610d4857610d47614606565b5b906000526020600020906004020190508060030154421115610dc157600062015180836002015442610d7a9190614060565b610d8491906140c3565b9050600060648285600801548660010154610d9f91906140f4565b610da991906140f4565b610db391906140c3565b905080945050505050610dc8565b6000925050505b92915050565b6060600073ffffffffffffffffffffffffffffffffffffffff163373ffffffffffffffffffffffffffffffffffffffff1603610e36576040517f7a795c5600000000000000000000000000000000000000000000000000000000815260040160405180910390fd5b606060008054906101000a900473ffffffffffffffffffffffffffffffffffffffff1673ffffffffffffffffffffffffffffffffffffffff163373ffffffffffffffffffffffffffffffffffffffff1603610ee6576000610e9633612ce3565b905060016004541015610ed5576040517f9df573ea00000000000000000000000000000000000000000000000000000000815260040160405180910390fd5b610ede81612d2c565b915050610f3b565b6000610ef133612ce3565b90506001811015610f2e576040517f9df573ea00000000000000000000000000000000000000000000000000000000815260040160405180910390fd5b610f3781612d2c565b9150505b8091505090565b610f4a6132f8565b600073ffffffffffffffffffffffffffffffffffffffff163373ffffffffffffffffffffffffffffffffffffffff1603610fb0576040517f7a795c5600000000000000000000000000000000000000000000000000000000815260040160405180910390fd5b600260003373ffffffffffffffffffffffffffffffffffffffff1673ffffffffffffffffffffffffffffffffffffffff1681526020019081526020016000206000838152602001908152602001600020604051806101600160405290816000820160009054906101000a900473ffffffffffffffffffffffffffffffffffffffff1673ffffffffffffffffffffffffffffffffffffffff1673ffffffffffffffffffffffffffffffffffffffff168152602001600182015481526020016002820154815260200160038201805461108690614000565b80601f01602080910402602001604051908101604052809291908181526020018280546110b290614000565b80156110ff5780601f106110d4576101008083540402835291602001916110ff565b820191906000526020600020905b8154815290600101906020018083116110e257829003601f168201915b5050505050815260200160048201805461111890614000565b80601f016020809104026020016040519081016040528092919081815260200182805461114490614000565b80156111915780601f1061116657610100808354040283529160200191611191565b820191906000526020600020905b81548152906001019060200180831161117457829003601f168201915b505050505081526020016005820180546111aa90614000565b80601f01602080910402602001604051908101604052809291908181526020018280546111d690614000565b80156112235780601f106111f857610100808354040283529160200191611223565b820191906000526020600020905b81548152906001019060200180831161120657829003601f168201915b505050505081526020016006820160009054906101000a900460ff161515151581526020016006820160019054906101000a900460ff161515151581526020016006820160029054906101000a900460ff1615151515815260200160078201805480602002602001604051908101604052809291908181526020016000905b828210156113d057838290600052602060002090600402016040518060a00160405290816000820180546112d590614000565b80601f016020809104026020016040519081016040528092919081815260200182805461130190614000565b801561134e5780601f106113235761010080835404028352916020019161134e565b820191906000526020600020905b81548152906001019060200180831161133157829003601f168201915b50505050508152602001600182015481526020016002820160009054906101000a900460ff166002811115611386576113856139f9565b5b6002811115611398576113976139f9565b5b81526020016002820160019054906101000a900460ff16151515158152602001600382015481525050815260200190600101906112a2565b5050505081526020016008820154815250509050813373ffffffffffffffffffffffffffffffffffffffff167f4b91f05e4e767e5e8d10a7a3636995feb5ad4f56c1a75c977090f2b313be6d9460405160405180910390a3919050565b6060600260003373ffffffffffffffffffffffffffffffffffffffff1673ffffffffffffffffffffffffffffffffffffffff1681526020019081526020016000206000838152602001908152602001600020600701805480602002602001604051908101604052809291908181526020016000905b828210156115d057838290600052602060002090600402016040518060a00160405290816000820180546114d590614000565b80601f016020809104026020016040519081016040528092919081815260200182805461150190614000565b801561154e5780601f106115235761010080835404028352916020019161154e565b820191906000526020600020905b81548152906001019060200180831161153157829003601f168201915b50505050508152602001600182015481526020016002820160009054906101000a900460ff166002811115611586576115856139f9565b5b6002811115611598576115976139f9565b5b81526020016002820160019054906101000a900460ff16151515158152602001600382015481525050815260200190600101906114a2565b505050509050919050565b60036020528060005260406000206000915090505481565b6000600260003373ffffffffffffffffffffffffffffffffffffffff1673ffffffffffffffffffffffffffffffffffffffff1681526020019081526020016000206000848152602001908152602001600020905080600701805490508210611690576040517f08c379a0000000000000000000000000000000000000000000000000000000008152600401611687906145e6565b60405180910390fd5b60008160070183815481106116a8576116a7614606565b5b9060005260206000209060040201905060018160020160006101000a81548160ff021916908360028111156116e0576116df6139f9565b5b021790555082847f1b7218c0ac23ea9cbe4df603d2b340fbf469a115b73ea3d11460727f445d6be160405160405180910390a350505050565b60008054906101000a900473ffffffffffffffffffffffffffffffffffffffff1681565b6060600080600190505b6004548111611818578373ffffffffffffffffffffffffffffffffffffffff16600260003373ffffffffffffffffffffffffffffffffffffffff1673ffffffffffffffffffffffffffffffffffffffff168152602001908152602001600020600083815260200190815260200160002060000160009054906101000a900473ffffffffffffffffffffffffffffffffffffffff1673ffffffffffffffffffffffffffffffffffffffff160361180557818061180190614552565b9250505b808061181090614552565b915050611747565b5060008167ffffffffffffffff811115611835576118346136de565b5b60405190808252806020026020018201604052801561186e57816020015b61185b6132f8565b8152602001906001900390816118535790505b509050600080600190505b6004548111611d9a578573ffffffffffffffffffffffffffffffffffffffff16600260003373ffffffffffffffffffffffffffffffffffffffff1673ffffffffffffffffffffffffffffffffffffffff168152602001908152602001600020600083815260200190815260200160002060000160009054906101000a900473ffffffffffffffffffffffffffffffffffffffff1673ffffffffffffffffffffffffffffffffffffffff1603611d8757600260003373ffffffffffffffffffffffffffffffffffffffff1673ffffffffffffffffffffffffffffffffffffffff1681526020019081526020016000206000828152602001908152602001600020604051806101600160405290816000820160009054906101000a900473ffffffffffffffffffffffffffffffffffffffff1673ffffffffffffffffffffffffffffffffffffffff1673ffffffffffffffffffffffffffffffffffffffff16815260200160018201548152602001600282015481526020016003820180546119fe90614000565b80601f0160208091040260200160405190810160405280929190818152602001828054611a2a90614000565b8015611a775780601f10611a4c57610100808354040283529160200191611a77565b820191906000526020600020905b815481529060010190602001808311611a5a57829003601f168201915b50505050508152602001600482018054611a9090614000565b80601f0160208091040260200160405190810160405280929190818152602001828054611abc90614000565b8015611b095780601f10611ade57610100808354040283529160200191611b09565b820191906000526020600020905b815481529060010190602001808311611aec57829003601f168201915b50505050508152602001600582018054611b2290614000565b80601f0160208091040260200160405190810160405280929190818152602001828054611b4e90614000565b8015611b9b5780601f10611b7057610100808354040283529160200191611b9b565b820191906000526020600020905b815481529060010190602001808311611b7e57829003601f168201915b505050505081526020016006820160009054906101000a900460ff161515151581526020016006820160019054906101000a900460ff161515151581526020016006820160029054906101000a900460ff1615151515815260200160078201805480602002602001604051908101604052809291908181526020016000905b82821015611d4857838290600052602060002090600402016040518060a0016040529081600082018054611c4d90614000565b80601f0160208091040260200160405190810160405280929190818152602001828054611c7990614000565b8015611cc65780601f10611c9b57610100808354040283529160200191611cc6565b820191906000526020600020905b815481529060010190602001808311611ca957829003601f168201915b50505050508152602001600182015481526020016002820160009054906101000a900460ff166002811115611cfe57611cfd6139f9565b5b6002811115611d1057611d0f6139f9565b5b81526020016002820160019054906101000a900460ff1615151515815260200160038201548152505081526020019060010190611c1a565b505050508152602001600882015481525050838381518110611d6d57611d6c614606565b5b60200260200101819052508180611d8390614552565b9250505b8080611d9290614552565b915050611879565b50819350505050919050565b600073ffffffffffffffffffffffffffffffffffffffff163373ffffffffffffffffffffffffffffffffffffffff1603611e0c576040517f7a795c5600000000000000000000000000000000000000000000000000000000815260040160405180910390fd5b6000600260003373ffffffffffffffffffffffffffffffffffffffff1673ffffffffffffffffffffffffffffffffffffffff168152602001908152602001600020600083815260200190815260200160002090508060000160009054906101000a900473ffffffffffffffffffffffffffffffffffffffff1673ffffffffffffffffffffffffffffffffffffffff163373ffffffffffffffffffffffffffffffffffffffff1614611ee9576040517f6810116800000000000000000000000000000000000000000000000000000000815260040160405180910390fd5b6000816001015403611f27576040517f7eed038200000000000000000000000000000000000000000000000000000000815260040160405180910390fd5b6000816007018054905090506000600160009054906101000a900473ffffffffffffffffffffffffffffffffffffffff1673ffffffffffffffffffffffffffffffffffffffff166370a08231336040518263ffffffff1660e01b8152600401611f909190613f33565b602060405180830381865afa158015611fad573d6000803e3d6000fd5b505050506040513d601f19601f82011682018060405250810190611fd1919061464a565b905060005b828110156125c45760001515846007018281548110611ff857611ff7614606565b5b906000526020600020906004020160020160019054906101000a900460ff161515036125b75783600701818154811061203457612033614606565b5b9060005260206000209060040201600301544211158015612059575083600201544211155b80156120bc5750600280811115612073576120726139f9565b5b84600701828154811061208957612088614606565b5b906000526020600020906004020160020160009054906101000a900460ff1660028111156120ba576120b96139f9565b5b145b156121ec57600115158460070182815481106120db576120da614606565b5b906000526020600020906004020160020160019054906101000a90505050600160009054906101000a900473ffffffffffffffffffffffffffffffffffffffff1673ffffffffffffffffffffffffffffffffffffffff166323b872dd308660000160009054906101000a900473ffffffffffffffffffffffffffffffffffffffff1687600701858154811061217357612172614606565b5b9060005260206000209060040201600101546040518463ffffffff1660e01b81526004016121a393929190614677565b6020604051808303816000875af11580156121c2573d6000803e3d6000fd5b505050506040513d601f19601f820116820180604052508101906121e691906146da565b506125c4565b83600701818154811061220257612201614606565b5b90600052602060002090600402016003015442111580156122265750836002015442115b801561228957506002808111156122405761223f6139f9565b5b84600701828154811061225657612255614606565b5b906000526020600020906004020160020160009054906101000a900460ff166002811115612287576122866139f9565b5b145b156123d95760006122998661066a565b905060008186600101546122ad91906141a2565b9050808410156122f2576040517f08c379a00000000000000000000000000000000000000000000000000000000081526004016122e990614779565b60405180910390fd5b60018660060160016101000a81548160ff021916908315150217905550600160009054906101000a900473ffffffffffffffffffffffffffffffffffffffff1673ffffffffffffffffffffffffffffffffffffffff166323b872dd308860000160009054906101000a900473ffffffffffffffffffffffffffffffffffffffff16846040518463ffffffff1660e01b815260040161239293929190614677565b6020604051808303816000875af11580156123b1573d6000803e3d6000fd5b505050506040513d601f19601f820116820180604052508101906123d591906146da565b5050505b8360070181815481106123ef576123ee614606565b5b90600052602060002090600402016003015442118015612466575060028081111561241d5761241c6139f9565b5b84600701828154811061243357612432614606565b5b906000526020600020906004020160020160009054906101000a900460ff166002811115612464576124636139f9565b5b145b156125b65760006124778683610c92565b905060008186600701848154811061249257612491614606565b5b9060005260206000209060040201600101546124ae9190614060565b9050600115158660070184815481106124ca576124c9614606565b5b906000526020600020906004020160020160019054906101000a90505050600160009054906101000a900473ffffffffffffffffffffffffffffffffffffffff1673ffffffffffffffffffffffffffffffffffffffff166323b872dd308860000160009054906101000a900473ffffffffffffffffffffffffffffffffffffffff16846040518463ffffffff1660e01b815260040161256b93929190614677565b6020604051808303816000875af115801561258a573d6000803e3d6000fd5b505050506040513d601f19601f820116820180604052508101906125ae91906146da565b5050506125c4565b5b8080600101915050611fd6565b5050505050565b6000600260003373ffffffffffffffffffffffffffffffffffffffff1673ffffffffffffffffffffffffffffffffffffffff16815260200190815260200160002060008681526020019081526020016000209050806007016040518060a001604052808681526020018581526020016000600281111561264e5761264d6139f9565b5b8152602001600015158152602001848152509080600181540180825580915050600190039060005260206000209060040201600090919091909150600082015181600001908161269e9190614382565b506020820151816001015560408201518160020160006101000a81548160ff021916908360028111156126d4576126d36139f9565b5b021790555060608201518160020160016101000a81548160ff021916908315150217905550608082015181600301555050828460405161271491906147d5565b6040518091039020867fbf293db00f4de65b181a066ecc2f8bb81fb7174b517fd8085700e259ad00db1b60405160405180910390a45050505050565b6000600260003373ffffffffffffffffffffffffffffffffffffffff1673ffffffffffffffffffffffffffffffffffffffff168152602001908152602001600020600083815260200190815260200160002090503373ffffffffffffffffffffffffffffffffffffffff168160000160009054906101000a900473ffffffffffffffffffffffffffffffffffffffff1673ffffffffffffffffffffffffffffffffffffffff161461282d576040517f44f3b42100000000000000000000000000000000000000000000000000000000815260040160405180910390fd5b6000600160009054906101000a900473ffffffffffffffffffffffffffffffffffffffff1673ffffffffffffffffffffffffffffffffffffffff166370a08231336040518263ffffffff1660e01b815260040161288a9190613f33565b602060405180830381865afa1580156128a7573d6000803e3d6000fd5b505050506040513d601f19601f820116820180604052508101906128cb919061464a565b90508160020154421115612a045760006128e48461066a565b905060008184600101546128f891906141a2565b90508083101561293d576040517f08c379a000000000000000000000000000000000000000000000000000000000815260040161293490614779565b60405180910390fd5b60018460060160016101000a81548160ff021916908315150217905550600160009054906101000a900473ffffffffffffffffffffffffffffffffffffffff1673ffffffffffffffffffffffffffffffffffffffff166323b872dd3330846040518463ffffffff1660e01b81526004016129b993929190614677565b6020604051808303816000875af11580156129d8573d6000803e3d6000fd5b505050506040513d601f19601f820116820180604052508101906129fc91906146da565b505050612b10565b8160010154811015612a4b576040517f08c379a0000000000000000000000000000000000000000000000000000000008152600401612a4290614838565b60405180910390fd5b60018260060160016101000a81548160ff021916908315150217905550600160009054906101000a900473ffffffffffffffffffffffffffffffffffffffff1673ffffffffffffffffffffffffffffffffffffffff166323b872dd333085600101546040518463ffffffff1660e01b8152600401612acb93929190614677565b6020604051808303816000875af1158015612aea573d6000803e3d6000fd5b505050506040513d601f19601f82011682018060405250810190612b0e91906146da565b505b505050565b600073ffffffffffffffffffffffffffffffffffffffff163373ffffffffffffffffffffffffffffffffffffffff1603612b7b576040517f7a795c5600000000000000000000000000000000000000000000000000000000815260040160405180910390fd5b6000600260003373ffffffffffffffffffffffffffffffffffffffff1673ffffffffffffffffffffffffffffffffffffffff168152602001908152602001600020600083815260200190815260200160002090503373ffffffffffffffffffffffffffffffffffffffff168160000160009054906101000a900473ffffffffffffffffffffffffffffffffffffffff1673ffffffffffffffffffffffffffffffffffffffff1614612c58576040517f5169e01000000000000000000000000000000000000000000000000000000000815260040160405180910390fd5b60018160060160026101000a81548160ff021916908315150217905550813373ffffffffffffffffffffffffffffffffffffffff167fd3ec1db989d7a04f562031e02001f88781a3bc555a5608a288acccae5b50e86f60405160405180910390a35050565b600160009054906101000a900473ffffffffffffffffffffffffffffffffffffffff1681565b6000600360008373ffffffffffffffffffffffffffffffffffffffff1673ffffffffffffffffffffffffffffffffffffffff168152602001908152602001600020549050919050565b606060008267ffffffffffffffff811115612d4a57612d496136de565b5b604051908082528060200260200182016040528015612d8357816020015b612d706132f8565b815260200190600190039081612d685790505b5090506000600190505b83811161320357600260003373ffffffffffffffffffffffffffffffffffffffff1673ffffffffffffffffffffffffffffffffffffffff1681526020019081526020016000206000828152602001908152602001600020604051806101600160405290816000820160009054906101000a900473ffffffffffffffffffffffffffffffffffffffff1673ffffffffffffffffffffffffffffffffffffffff1673ffffffffffffffffffffffffffffffffffffffff1681526020016001820154815260200160028201548152602001600382018054612e6a90614000565b80601f0160208091040260200160405190810160405280929190818152602001828054612e9690614000565b8015612ee35780601f10612eb857610100808354040283529160200191612ee3565b820191906000526020600020905b815481529060010190602001808311612ec657829003601f168201915b50505050508152602001600482018054612efc90614000565b80601f0160208091040260200160405190810160405280929190818152602001828054612f2890614000565b8015612f755780601f10612f4a57610100808354040283529160200191612f75565b820191906000526020600020905b815481529060010190602001808311612f5857829003601f168201915b50505050508152602001600582018054612f8e90614000565b80601f0160208091040260200160405190810160405280929190818152602001828054612fba90614000565b80156130075780601f10612fdc57610100808354040283529160200191613007565b820191906000526020600020905b815481529060010190602001808311612fea57829003601f168201915b505050505081526020016006820160009054906101000a900460ff161515151581526020016006820160019054906101000a900460ff161515151581526020016006820160029054906101000a900460ff1615151515815260200160078201805480602002602001604051908101604052809291908181526020016000905b828210156131b457838290600052602060002090600402016040518060a00160405290816000820180546130b990614000565b80601f01602080910402602001604051908101604052809291908181526020018280546130e590614000565b80156131325780601f1061310757610100808354040283529160200191613132565b820191906000526020600020905b81548152906001019060200180831161311557829003601f168201915b50505050508152602001600182015481526020016002820160009054906101000a900460ff16600281111561316a576131696139f9565b5b600281111561317c5761317b6139f9565b5b81526020016002820160019054906101000a900460ff1615151515815260200160038201548152505081526020019060010190613086565b505050508152602001600882015481525050826001836131d49190614060565b815181106131e5576131e4614606565b5b602002602001018190525080806131fb90614552565b915050612d8d565b5080915050919050565b8280548282559060005260206000209060040281019282156132e75760005260206000209160040282015b828111156132e657828260008201816000019081613256919061446a565b50600182015481600101556002820160009054906101000a900460ff168160020160006101000a81548160ff02191690836002811115613299576132986139f9565b5b02179055506002820160019054906101000a900460ff168160020160016101000a81548160ff02191690831515021790555060038201548160030155505091600401919060040190613238565b5b5090506132f4919061336e565b5090565b604051806101600160405280600073ffffffffffffffffffffffffffffffffffffffff168152602001600081526020016000815260200160608152602001606081526020016060815260200160001515815260200160001515815260200160001515815260200160608152602001600081525090565b5b808211156133c9576000808201600061338891906133cd565b60018201600090556002820160006101000a81549060ff02191690556002820160016101000a81549060ff021916905560038201600090555060040161336f565b5090565b5080546133d990614000565b6000825580601f106133eb575061340a565b601f016020900490600052602060002090810190613409919061340d565b5b50565b5b8082111561342657600081600090555060010161340e565b5090565b6000604051905090565b600080fd5b600080fd5b600073ffffffffffffffffffffffffffffffffffffffff82169050919050565b60006134698261343e565b9050919050565b6134798161345e565b811461348457600080fd5b50565b60008135905061349681613470565b92915050565b6000819050919050565b6134af8161349c565b81146134ba57600080fd5b50565b6000813590506134cc816134a6565b92915050565b600080604083850312156134e9576134e8613434565b5b60006134f785828601613487565b9250506020613508858286016134bd565b9150509250929050565b61351b8161345e565b82525050565b61352a8161349c565b82525050565b600081519050919050565b600082825260208201905092915050565b60005b8381101561356a57808201518184015260208101905061354f565b60008484015250505050565b6000601f19601f8301169050919050565b600061359282613530565b61359c818561353b565b93506135ac81856020860161354c565b6135b581613576565b840191505092915050565b60008115159050919050565b6135d5816135c0565b82525050565b6000610140820190506135f1600083018d613512565b6135fe602083018c613521565b61360b604083018b613521565b818103606083015261361d818a613587565b905081810360808301526136318189613587565b905081810360a08301526136458188613587565b905061365460c08301876135cc565b61366160e08301866135cc565b61366f6101008301856135cc565b61367d610120830184613521565b9b9a5050505050505050505050565b6000602082840312156136a2576136a1613434565b5b60006136b0848285016134bd565b91505092915050565b60006020820190506136ce6000830184613521565b92915050565b600080fd5b600080fd5b7f4e487b7100000000000000000000000000000000000000000000000000000000600052604160045260246000fd5b61371682613576565b810181811067ffffffffffffffff82111715613735576137346136de565b5b80604052505050565b600061374861342a565b9050613754828261370d565b919050565b600067ffffffffffffffff821115613774576137736136de565b5b61377d82613576565b9050602081019050919050565b82818337600083830152505050565b60006137ac6137a784613759565b61373e565b9050828152602081018484840111156137c8576137c76136d9565b5b6137d384828561378a565b509392505050565b600082601f8301126137f0576137ef6136d4565b5b8135613800848260208601613799565b91505092915050565b60008060008060008060c0878903121561382657613825613434565b5b600061383489828a01613487565b965050602061384589828a016134bd565b955050604061385689828a016134bd565b945050606087013567ffffffffffffffff81111561387757613876613439565b5b61388389828a016137db565b935050608087013567ffffffffffffffff8111156138a4576138a3613439565b5b6138b089828a016137db565b92505060a087013567ffffffffffffffff8111156138d1576138d0613439565b5b6138dd89828a016137db565b9150509295509295509295565b6000806040838503121561390157613900613434565b5b600061390f858286016134bd565b9250506020613920858286016134bd565b9150509250929050565b600081519050919050565b600082825260208201905092915050565b6000819050602082019050919050565b61395f8161345e565b82525050565b61396e8161349c565b82525050565b600082825260208201905092915050565b600061399082613530565b61399a8185613974565b93506139aa81856020860161354c565b6139b381613576565b840191505092915050565b6139c7816135c0565b82525050565b600081519050919050565b600082825260208201905092915050565b6000819050602082019050919050565b7f4e487b7100000000000000000000000000000000000000000000000000000000600052602160045260246000fd5b60038110613a3957613a386139f9565b5b50565b6000819050613a4a82613a28565b919050565b6000613a5a82613a3c565b9050919050565b613a6a81613a4f565b82525050565b600060a0830160008301518482036000860152613a8d8282613985565b9150506020830151613aa26020860182613965565b506040830151613ab56040860182613a61565b506060830151613ac860608601826139be565b506080830151613adb6080860182613965565b508091505092915050565b6000613af28383613a70565b905092915050565b6000602082019050919050565b6000613b12826139cd565b613b1c81856139d8565b935083602082028501613b2e856139e9565b8060005b85811015613b6a5784840389528151613b4b8582613ae6565b9450613b5683613afa565b925060208a01995050600181019050613b32565b50829750879550505050505092915050565b600061016083016000830151613b956000860182613956565b506020830151613ba86020860182613965565b506040830151613bbb6040860182613965565b5060608301518482036060860152613bd38282613985565b91505060808301518482036080860152613bed8282613985565b91505060a083015184820360a0860152613c078282613985565b91505060c0830151613c1c60c08601826139be565b5060e0830151613c2f60e08601826139be565b50610100830151613c446101008601826139be565b50610120830151848203610120860152613c5e8282613b07565b915050610140830151613c75610140860182613965565b508091505092915050565b6000613c8c8383613b7c565b905092915050565b6000602082019050919050565b6000613cac8261392a565b613cb68185613935565b935083602082028501613cc885613946565b8060005b85811015613d045784840389528151613ce58582613c80565b9450613cf083613c94565b925060208a01995050600181019050613ccc565b50829750879550505050505092915050565b60006020820190508181036000830152613d308184613ca1565b905092915050565b600061016083016000830151613d516000860182613956565b506020830151613d646020860182613965565b506040830151613d776040860182613965565b5060608301518482036060860152613d8f8282613985565b91505060808301518482036080860152613da98282613985565b91505060a083015184820360a0860152613dc38282613985565b91505060c0830151613dd860c08601826139be565b5060e0830151613deb60e08601826139be565b50610100830151613e006101008601826139be565b50610120830151848203610120860152613e1a8282613b07565b915050610140830151613e31610140860182613965565b508091505092915050565b60006020820190508181036000830152613e568184613d38565b905092915050565b600082825260208201905092915050565b6000613e7a826139cd565b613e848185613e5e565b935083602082028501613e96856139e9565b8060005b85811015613ed25784840389528151613eb38582613ae6565b9450613ebe83613afa565b925060208a01995050600181019050613e9a565b50829750879550505050505092915050565b60006020820190508181036000830152613efe8184613e6f565b905092915050565b600060208284031215613f1c57613f1b613434565b5b6000613f2a84828501613487565b91505092915050565b6000602082019050613f486000830184613512565b92915050565b60008060008060808587031215613f6857613f67613434565b5b6000613f76878288016134bd565b945050602085013567ffffffffffffffff811115613f9757613f96613439565b5b613fa3878288016137db565b9350506040613fb4878288016134bd565b9250506060613fc5878288016134bd565b91505092959194509250565b7f4e487b7100000000000000000000000000000000000000000000000000000000600052602260045260246000fd5b6000600282049050600182168061401857607f821691505b60208210810361402b5761402a613fd1565b5b50919050565b7f4e487b7100000000000000000000000000000000000000000000000000000000600052601160045260246000fd5b600061406b8261349c565b91506140768361349c565b925082820390508181111561408e5761408d614031565b5b92915050565b7f4e487b7100000000000000000000000000000000000000000000000000000000600052601260045260246000fd5b60006140ce8261349c565b91506140d98361349c565b9250826140e9576140e8614094565b5b828204905092915050565b60006140ff8261349c565b915061410a8361349c565b92508282026141188161349c565b9150828204841483151761412f5761412e614031565b5b5092915050565b7f4e4f000000000000000000000000000000000000000000000000000000000000600082015250565b600061416c60028361353b565b915061417782614136565b602082019050919050565b6000602082019050818103600083015261419b8161415f565b9050919050565b60006141ad8261349c565b91506141b88361349c565b92508282019050808211156141d0576141cf614031565b5b92915050565b60008190508160005260206000209050919050565b60006020601f8301049050919050565b600082821b905092915050565b6000600883026142387fffffffffffffffffffffffffffffffffffffffffffffffffffffffffffffffff826141fb565b61424286836141fb565b95508019841693508086168417925050509392505050565b6000819050919050565b600061427f61427a6142758461349c565b61425a565b61349c565b9050919050565b6000819050919050565b61429983614264565b6142ad6142a582614286565b848454614208565b825550505050565b600090565b6142c26142b5565b6142cd818484614290565b505050565b5b818110156142f1576142e66000826142ba565b6001810190506142d3565b5050565b601f82111561433657614307816141d6565b614310846141eb565b8101602085101561431f578190505b61433361432b856141eb565b8301826142d2565b50505b505050565b600082821c905092915050565b60006143596000198460080261433b565b1980831691505092915050565b60006143728383614348565b9150826002028217905092915050565b61438b82613530565b67ffffffffffffffff8111156143a4576143a36136de565b5b6143ae8254614000565b6143b98282856142f5565b600060209050601f8311600181146143ec57600084156143da578287015190505b6143e48582614366565b86555061444c565b601f1984166143fa866141d6565b60005b82811015614422578489015182556001820191506020850194506020810190506143fd565b8683101561443f578489015161443b601f891682614348565b8355505b6001600288020188555050505b505050505050565b60008154905061446381614000565b9050919050565b818103614478575050614550565b61448182614454565b67ffffffffffffffff81111561449a576144996136de565b5b6144a48254614000565b6144af8282856142f5565b6000601f8311600181146144de57600084156144cc578287015490505b6144d68582614366565b865550614549565b601f1984166144ec876141d6565b96506144f7866141d6565b60005b8281101561451f578489015482556001820191506001850194506020810190506144fa565b8683101561453c5784890154614538601f891682614348565b8355505b6001600288020188555050505b5050505050505b565b600061455d8261349c565b91507fffffffffffffffffffffffffffffffffffffffffffffffffffffffffffffffff820361458f5761458e614031565b5b600182019050919050565b7f496e76616c6964206d696c6573746f6e6520696e646578000000000000000000600082015250565b60006145d060178361353b565b91506145db8261459a565b602082019050919050565b600060208201905081810360008301526145ff816145c3565b9050919050565b7f4e487b7100000000000000000000000000000000000000000000000000000000600052603260045260246000fd5b600081519050614644816134a6565b92915050565b6000602082840312156146605761465f613434565b5b600061466e84828501614635565b91505092915050565b600060608201905061468c6000830186613512565b6146996020830185613512565b6146a66040830184613521565b949350505050565b6146b7816135c0565b81146146c257600080fd5b50565b6000815190506146d4816146ae565b92915050565b6000602082840312156146f0576146ef613434565b5b60006146fe848285016146c5565b91505092915050565b7f496e73756666696369656e742062616c616e636520666f7220616d6f756e742060008201527f616e64206c617465206665650000000000000000000000000000000000000000602082015250565b6000614763602c8361353b565b915061476e82614707565b604082019050919050565b6000602082019050818103600083015261479281614756565b9050919050565b600081905092915050565b60006147af82613530565b6147b98185614799565b93506147c981856020860161354c565b80840191505092915050565b60006147e182846147a4565b915081905092915050565b7f496e73756666696369656e742062616c616e6365000000000000000000000000600082015250565b600061482260148361353b565b915061482d826147ec565b602082019050919050565b6000602082019050818103600083015261485181614815565b905091905056fea26469706673582212209452792093acdd5aaa6b1d1c0a83a208c6a9c6c28374d2035976e5b85b63d90364736f6c63430008180033",
  "linkReferences": {},
  "deployedLinkReferences": {}
}